:020000041028C2
:1000000000000C2825E7281071052910A1F82810F8
:1000100075052910790529107D05291000000000BB
:1000200000000000000000000000000015FA281089
:100030008105291000000000850529108905291077
:10004000DBE2281001E3281027E328104DE32810F5
:1000500073E3281099E32810BFE32810E5E3281084
:100060008D0529109105291095052910990529104C
:100070009D052910A1052910A5052910A9052910FC
:100080005FF0FF3041F6FF717047D0B502001000FD
:10009000C0B22D2829DA72B6DFF848411000C0B28C
:1000A00004EB800080ED000AD4E92E6701200021D6
:1000B00001F05AFD30433943C4E92E01012084F890
:1000C000C000C82101290FDB14F01F004118BFF345
:1000D0004F8FDFF814010460203420390129F8DA49
:1000E000BFF34F8FBFF36F8F62B6D0BD4FF49E71D9
:1000F0003E4A01290EDB12F01F004118BFF34F8F5B
:1001000039480260203220390129F9DABFF34F8FD4
:10011000BFF36F8F704710B4C822324B1C00012A06
:100120000EDB14F01F018A18BFF34F8F2E490C60AD
:100130002034203A012AF9DABFF34F8FBFF36F8FD3
:1001400083F8C100C82101290EDB13F01F004118FC
:10015000BFF34F8F24480360203320390129F9DA97
:10016000BFF34F8FBFF36F8F10BC704710B54FF4C4
:100170009E711E4C220001290EDB12F01F00411857
:10018000BFF34F8F18480260203220390129F9DA75
:10019000BFF34F8FBFF36F8F72B601F01DFE14488F
:1001A00014490160002107E000EB810204EB8103A8
:1001B000D3F888305360491C2D29F5DB0E49C0F86F
:1001C000B8105F21002001F01FFD002803D05F213F
:1001D000002001F03AFD2F225F21002001F0D4FD24
:1001E00062B610BD0012002870EF00E00010002879
:1001F000C4070828AA55AA554433221138B52DED55
:10020000028B86B02F225F21002001F078FDDFF8FD
:10021000344C2068DFF8301C884241F06684D4F802
:10022000B800DFF8281C884241F05F84DFF84C0DED
:1002300002F0E9F8002007E004EB80014968DFF8EC
:10024000402D42F82010401C2D28F5DBDFF8340D3E
:1002500002F0D9F8DFF8284D94ED020AB5EE400A15
:10026000F1EE10FA04D594ED020AB1EE400A01E075
:1002700094ED020AD4ED020AF5EE400AF1EE10FA0E
:1002800006D5D4ED020AF1EE600AFDEEE00A03E0C5
:10029000D4ED020AFDEEE00A94ED021AB5EE401A22
:1002A000F1EE10FA06D594ED021AB1EE411ABDEE48
:1002B000C11A03E094ED021ABDEEC11AD4ED021A80
:1002C000F5EE401AF1EE10FA01D5BEA000E0BEA096
:1002D000D4ED011AF5EE401AF1EE10FA04D5D4ED82
:1002E000011AF1EE611A01E0D4ED011A94ED012A30
:1002F000B5EE402AF1EE10FA06D594ED012AB1EEE2
:10030000422ABDEEC22A03E094ED012ABDEEC22AC4
:10031000D4ED012AF5EE402AF1EE10FA06D5D4ED1F
:10032000012AF1EE622AFDEEE22A03E0D4ED012A71
:10033000FDEEE22A94ED013AB5EE403AF1EE10FA04
:1003400001D5A0A200E0A0A294ED003AB5EE403A9B
:10035000F1EE10FA04D594ED003AB1EE433A01E023
:1003600094ED003AD4ED003AF5EE403AF1EE10FA91
:1003700006D5D4ED003AF1EE633AFDEEE33A03E040
:10038000D4ED003AFDEEE33A94ED004AB5EE404A72
:10039000F1EE10FA06D594ED004AB1EE444ABDEEF6
:1003A000C44A03E094ED004ABDEEC44AD4ED004ACD
:1003B000F5EE404AF1EE10FA01D582A100E082A1EB
:1003C0009FED828AF8EEE00A30EE600A20EE080A1D
:1003D000BDEEC00A8DED050A8DED041A0390B8EE4E
:1003E000C20A31EEC00A20EE080ABDEEC00A8DED49
:1003F000020ACDED012A0092B8EEE30A33EE400A7C
:1004000020EE080ABDEEC00A10EE103A14EE102AD3
:10041000DFF86C0C01F0F7FF94ED040AB5EE400A2A
:10042000F1EE10FA04D594ED040AB1EE400A01E0B1
:1004300094ED040AD4ED040AF5EE400AF1EE10FA48
:1004400006D5D4ED040AF1EE600AFDEEE00A03E001
:10045000D4ED040AFDEEE00A94ED041AB5EE401A5C
:10046000F1EE10FA06D594ED041AB1EE411ABDEE84
:10047000C11A03E094ED041ABDEEC11AD4ED041ABA
:10048000F5EE401AF1EE10FA01D54EA000E04EA0B4
:10049000D4ED031AF5EE401AF1EE10FA04D5D4EDBE
:1004A000031AF1EE611A01E0D4ED031A94ED032A68
:1004B000B5EE402AF1EE10FA06D594ED032AB1EE1E
:1004C000422ABDEEC22A03E094ED032ABDEEC22A01
:1004D000D4ED032AF5EE402AF1EE10FA06D5D4ED5C
:1004E000032AF1EE622AFDEEE22A03E0D4ED032AAC
:1004F000FDEEE22A94ED033AB5EE403AF1EE10FA41
:1005000001D530A100E030A1F8EEE00A30EE600A3B
:1005100020EE080ABDEEC00A8DED020A8DED011A2B
:100520000090B8EEC20A31EEC00A20EE080ABDEE15
:10053000C00A10EE103A12EE902ADFF8480B01F0D4
:1005400062FFDFF8445B280001F05DFF94ED070ACD
:10055000B5EE400AF1EE10FA04D594ED070AB1EEBB
:10056000400A01E094ED070AD4ED070AF5EE400ACF
:10057000F1EE10FA06D5D4ED070AF1EE600AFDEEB1
:10058000E00A03E0D4ED070AFDEEE00A94ED071A55
:10059000B5EE401AF1EE10FA06D594ED071AB1EE59
:1005A000411ABDEEC11A03E094ED071ABDEEC11A5F
:1005B000D4ED071AF5EE401AF1EE10FA08D501A0B5
:1005C00007E000BF2D0000000000000000401C46B6
:1005D000C6A0D4ED061AF5EE401AF1EE10FA04D5D5
:1005E000D4ED061AF1EE611A01E0D4ED061A94ED8D
:1005F000062AB5EE402AF1EE10FA06D594ED062A49
:10060000B1EE422ABDEEC22A03E094ED062ABDEE09
:10061000C22AD4ED062AF5EE402AF1EE10FA06D5EC
:10062000D4ED062AF1EE622AFDEEE22A03E0D4EDD3
:10063000062AFDEEE22A94ED063AB5EE403AF1EED6
:1006400010FA01D5C2A200E0A8A294ED053AB5EED9
:10065000403AF1EE10FA04D594ED053AB1EE433A82
:1006600001E094ED053AD4ED053AF5EE403AF1EEAD
:1006700010FA06D5D4ED053AF1EE633AFDEEE33A11
:1006800003E0D4ED053AFDEEE33A94ED054AB5EE0C
:10069000404AF1EE10FA06D594ED054AB1EE444A0F
:1006A000BDEEC44A03E094ED054ABDEEC44AD4ED64
:1006B000054AF5EE404AF1EE10FA01D5A4A100E09A
:1006C0008AA1F8EEE00A30EE600A20EE080ABDEEDC
:1006D000C00A8DED050A8DED041A0390B8EEC20A2A
:1006E00031EEC00A20EE080ABDEEC00A8DED020A06
:1006F000CDED012A0092B8EEE30A33EE400A20EE77
:10070000080ABDEEC00A10EE103A14EE102ADFF807
:10071000E40C01F078FE94ED0A0AB5EE400AF1EE21
:1007200010FA04D594ED0A0AB1EE400A01E094ED06
:100730000A0AD4ED0A0AF5EE400AF1EE10FA06D5DF
:10074000D4ED0A0AF1EE600AFDEEE00A03E0D4ED12
:100750000A0AFDEEE00A94ED0A1AB5EE401AF1EE2F
:1007600010FA06D594ED0A1AB1EE411ABDEEC11A7F
:1007700003E094ED0A1ABDEEC11AD4ED0A1AF5EEA3
:10078000401AF1EE10FA01D571A000E057A0D4EDA7
:10079000091AF5EE401AF1EE10FA04D5D4ED091A53
:1007A000F1EE611A01E0D4ED091A94ED092AB5EED3
:1007B000402AF1EE10FA06D594ED092AB1EE422A4C
:1007C000BDEEC22A03E094ED092ABDEEC22AD4EDA3
:1007D000092AF5EE402AF1EE10FA06D5D4ED092AE1
:1007E000F1EE622AFDEEE22A03E0D4ED092AFDEEE5
:1007F000E22A94ED093AB5EE403AF1EE10FA01D54D
:1008000053A200E039A294ED083AB5EE403AF1EE79
:1008100010FA04D594ED083AB1EE433A01E094EDB4
:10082000083AD4ED083AF5EE403AF1EE10FA06D562
:10083000D4ED083AF1EE633AFDEEE33A03E0D4ED8D
:10084000083AFDEEE33A94ED084AB5EE404AF1EE7F
:1008500010FA06D594ED084AB1EE444ABDEEC44AFA
:1008600003E094ED084ABDEEC44AD4ED084AF5EE23
:10087000404AF1EE10FA01D535A100E01BA1F8EED7
:10088000E00A30EE600A20EE080ABDEEC00A8DEDE7
:10089000050A8DED041A0390B8EEC20A31EEC00AC3
:1008A00020EE080ABDEEC00A8DED020ACDED012A48
:1008B0000092B8EEE30A33EE400A20EE080ABDEEDD
:1008C000C00A10EE103A14EE102ADFF8080D01F0FD
:1008D0009AFD94ED0D0AB5EE400AF1EE10FA07D537
:1008E00094ED0D0AB1EE400A04E000BF00000000E4
:1008F00094ED0D0AD4ED0D0AF5EE400AF1EE10FA72
:1009000006D5D4ED0D0AF1EE600AFDEEE00A03E033
:10091000D4ED0D0AFDEEE00A94ED0D1AB5EE401A85
:10092000F1EE10FA06D594ED0D1AB1EE411ABDEEB6
:10093000C11A03E094ED0D1ABDEEC11AD4ED0D1AE3
:10094000F5EE401AF1EE10FA04D501A003E000BF65
:100950002D000000C9A0D4ED0C1AF5EE401AF1EEFE
:1009600010FA04D5D4ED0C1AF1EE611A01E0D4EDC1
:100970000C1A94ED0C2AB5EE402AF1EE10FA06D5C9
:1009800094ED0C2AB1EE422ABDEEC22A03E094EDAA
:100990000C2ABDEEC22AD4ED0C2AF5EE402AF1EE67
:1009A00010FA06D5D4ED0C2AF1EE622AFDEEE22A09
:1009B00003E0D4ED0C2AFDEEE22A94ED0C3AB5EEFC
:1009C000403AF1EE10FA01D5C5A200E0ABA294EDD9
:1009D0000B3AB5EE403AF1EE10FA04D594ED0B3A2D
:1009E000B1EE433A01E094ED0B3AD4ED0B3AF5EE5B
:1009F000403AF1EE10FA06D5D4ED0B3AF1EE633A37
:100A0000FDEEE33A03E0D4ED0B3AFDEEE33A94ED6C
:100A10000B4AB5EE404AF1EE10FA06D594ED0B4ABA
:100A2000B1EE444ABDEEC44A03E094ED0B4ABDEE7C
:100A3000C44AD4ED0B4AF5EE404AF1EE10FA01D566
:100A4000A7A100E08DA1F8EEE00A30EE600A20EEEA
:100A5000080ABDEEC00A8DED050A8DED041A03905B
:100A6000B8EEC20A31EEC00A20EE080ABDEEC00A96
:100A70008DED020ACDED012A0092B8EEE30A33EEC5
:100A8000400A20EE080ABDEEC00A10EE103A14EE3D
:100A9000102ADFF8F40C01F0B6FC280001F0B3FCDA
:100AA00094ED100AB5EE400AF1EE10FA04D594ED7B
:100AB000100AB1EE400A01E094ED100AD4ED100ADC
:100AC000F5EE400AF1EE10FA06D5D4ED100AF1EE7B
:100AD000600AFDEEE00A03E0D4ED100AFDEEE00A44
:100AE00094ED101AB5EE401AF1EE10FA06D594ED19
:100AF000101AB1EE411ABDEEC11A03E094ED101ABE
:100B0000BDEEC11AD4ED101AF5EE401AF1EE10FA4E
:100B100001D573A000E059A0D4ED0F1AF5EE401AEC
:100B2000F1EE10FA04D5D4ED0F1AF1EE611A01E0DE
:100B3000D4ED0F1A94ED0F2AB5EE402AF1EE10FA1B
:100B400006D594ED0F2AB1EE422ABDEEC22A03E08B
:100B500094ED0F2ABDEEC22AD4ED0F2AF5EE402AFD
:100B6000F1EE10FA06D5D4ED0F2AF1EE622AFDEE71
:100B7000E22A03E0D4ED0F2AFDEEE22A94ED0F3ACB
:100B8000B5EE403AF1EE10FA01D555A200E03BA2D5
:100B900094ED0E3AB5EE403AF1EE10FA04D594ED2C
:100BA0000E3AB1EE433A01E094ED0E3AD4ED0E3A2E
:100BB000F5EE403AF1EE10FA06D5D4ED0E3AF1EE2C
:100BC000633AFDEEE33A03E0D4ED0E3AFDEEE33A8C
:100BD00094ED0E4AB5EE404AF1EE10FA06D594EDCA
:100BE0000E4AB1EE444ABDEEC44A03E094ED0E4A0B
:100BF000BDEEC44AD4ED0E4AF5EE404AF1EE10FACD
:100C000001D537A100E01DA1F8EEE00A30EE600A40
:100C100020EE080ABDEEC00A8DED050A8DED041A1E
:100C20000390B8EEC20A31EEC00A20EE080ABDEE0B
:100C3000C00A8DED020ACDED012A0092B8EEE30A5A
:100C400033EE400A20EE080ABDEEC00A10EE103A5C
:100C500014EE102ADFF8400D01F0D5FB280001F05A
:100C6000D2FB94ED130AB5EE400AF1EE10FA07D567
:100C700094ED130AB1EE400A04E000BF000000004A
:100C800094ED130AD4ED130AF5EE400AF1EE10FAD2
:100C900006D5D4ED130AF1EE600AFDEEE00A03E09A
:100CA000D4ED130AFDEEE00A94ED131AB5EE401AE6
:100CB000F1EE10FA06D594ED131AB1EE411ABDEE1D
:100CC000C11A03E094ED131ABDEEC11AD4ED131A44
:100CD000F5EE401AF1EE10FA04D501A003E000BFD2
:100CE0002D000000A8A0D4ED121AF5EE401AF1EE86
:100CF00010FA04D5D4ED121AF1EE611A01E0D4ED28
:100D0000121A94ED122AB5EE402AF1EE10FA06D529
:100D100094ED122AB1EE422ABDEEC22A03E094ED10
:100D2000122ABDEEC22AD4ED122AF5EE402AF1EEC7
:100D300010FA06D5D4ED122AF1EE622AFDEEE22A6F
:100D400003E0D4ED122AFDEEE22A94ED123AB5EE5C
:100D5000403AF1EE10FA01D5C8A200E08AA294ED63
:100D6000113AB5EE403AF1EE10FA04D594ED113A8D
:100D7000B1EE433A01E094ED113AD4ED113AF5EEBB
:100D8000403AF1EE10FA06D5D4ED113AF1EE633A9D
:100D9000FDEEE33A03E0D4ED113AFDEEE33A94EDD3
:100DA000114AB5EE404AF1EE10FA06D594ED114A1B
:100DB000B1EE444ABDEEC44A03E094ED114ABDEEE3
:100DC000C44AD4ED114AF5EE404AF1EE10FA01D5CD
:100DD000AAA100E06CA1F8EEE00A30EE600A20EE75
:100DE000080ABDEEC00A8DED050A8DED041A0390C8
:100DF000B8EEC20A31EEC00A20EE080ABDEEC00A03
:100E00008DED020ACDED012A0092B8EEE30A33EE31
:100E1000400A20EE080ABDEEC00A10EE103A14EEA9
:100E2000102ADFF80C0D01F0EEFA94ED150AB5EE7C
:100E3000400AF1EE10FA0BD594ED150AB1EE400A16
:100E400008E000BFC4070828AA55AA554433221158
:100E500094ED150AD4ED150AF5EE400AF1EE10FAFC
:100E600006D5D4ED150AF1EE600AFDEEE00A03E0C6
:100E7000D4ED150AFDEEE00A94ED151AB5EE401A10
:100E8000F1EE10FA06D594ED151AB1EE411ABDEE49
:100E9000C11A03E094ED151ABDEEC11AD4ED151A6E
:100EA000F5EE401AF1EE10FA01D574A000E036A07C
:100EB000D4ED141AF5EE401AF1EE10FA04D5D4ED83
:100EC000141AF1EE611A01E0D4ED141A94ED142A0B
:100ED000B5EE402AF1EE10FA06D594ED142AB1EEE3
:100EE000422ABDEEC22A03E094ED142ABDEEC22AC6
:100EF000D4ED142AF5EE402AF1EE10FA06D5D4ED21
:100F0000142AF1EE622AFDEEE22A03E0D4ED142A5F
:100F1000FDEEE22A94ED143AB5EE403AF1EE10FA05
:100F200001D556A100E018A1F8EEE00A30EE600A03
:100F300020EE080ABDEEC00A8DED020A8DED011A01
:100F40000090B8EEC20A31EEC00A20EE080ABDEEEB
:100F5000C00A10EE103A12EE902ADFF8D80B01F01A
:100F600052FA94ED180AB5EE400AF1EE10FA0DD5DA
:100F700094ED180AB1EE400A0AE000BF54ED2810C3
:100F800000120028F0F228100000000094ED180A6A
:100F9000D4ED180AF5EE400AF1EE10FA06D5D4EDBC
:100FA000180AF1EE600AFDEEE00A03E0D4ED180A3B
:100FB000FDEEE00A94ED181AB5EE401AF1EE10FAC3
:100FC00006D594ED181AB1EE411ABDEEC11A03E030
:100FD00094ED181ABDEEC11AD4ED181AF5EE401AA8
:100FE000F1EE10FA01D525A000E0CAA0D4ED171A41
:100FF000F5EE401AF1EE10FA04D5D4ED171AF1EE21
:10100000611A01E0D4ED171A94ED172AB5EE402AC3
:10101000F1EE10FA06D594ED172AB1EE422ABDEE94
:10102000C22A03E094ED172ABDEEC22AD4ED172A96
:10103000F5EE402AF1EE10FA06D5D4ED172AF1EEBE
:10104000622AFDEEE22A03E0D4ED172AFDEEE22A41
:1010500094ED173AB5EE403AF1EE10FA01D507A239
:1010600000E0ACA294ED163AB5EE403AF1EE10FA7B
:101070000CD594ED163AB1EE433A09E02D0000008C
:10108000BCEB2810C0F32810F0F3281094ED163AAA
:10109000D4ED163AF5EE403AF1EE10FA06D5D4ED5D
:1010A000163AF1EE633AFDEEE33A03E0D4ED163A78
:1010B000FDEEE33A94ED164AB5EE404AF1EE10FA31
:1010C00006D594ED164AB1EE444ABDEEC44A03E09B
:1010D00094ED164ABDEEC44AD4ED164AF5EE404AE8
:1010E000F1EE10FA01D5C2A100E08AA1F8EEE00A03
:1010F00030EE600A20EE080ABDEEC00A8DED050A4A
:101100008DED041A0390B8EEC20A31EEC00A20EE4B
:10111000080ABDEEC00A8DED020ACDED012A00924B
:10112000B8EEE30A33EE400A20EE080ABDEEC00A2C
:1011300010EE103A14EE102ADFF8000A01F063F9FD
:1011400094ED1B0AB5EE400AF1EE10FA04D594EDC9
:101150001B0AB1EE400A01E094ED1B0AD4ED1B0A14
:10116000F5EE400AF1EE10FA06D5D4ED1B0AF1EEC9
:10117000600AFDEEE00A03E0D4ED1B0AFDEEE00A92
:1011800094ED1B1AB5EE401AF1EE10FA06D594ED67
:101190001B1AB1EE411ABDEEC11A03E094ED1B1A01
:1011A000BDEEC11AD4ED1B1AF5EE401AF1EE10FA9D
:1011B00001D58FA000E057A0D4ED1A1AF5EE401A21
:1011C000F1EE10FA04D5D4ED1A1AF1EE611A01E02D
:1011D000D4ED1A1A94ED1A2AB5EE402AF1EE10FA5F
:1011E00006D594ED1A2AB1EE422ABDEEC22A03E0DA
:1011F00094ED1A2ABDEEC22AD4ED1A2AF5EE402A41
:10120000F1EE10FA06D5D4ED1A2AF1EE622AFDEEBF
:10121000E22A03E0D4ED1A2AFDEEE22A94ED1A3A0E
:10122000B5EE403AF1EE10FA01D571A200E039A214
:1012300094ED193AB5EE403AF1EE10FA04D594ED7A
:10124000193AB1EE433A01E094ED193AD4ED193A66
:10125000F5EE403AF1EE10FA06D5D4ED193AF1EE7A
:10126000633AFDEEE33A03E0D4ED193AFDEEE33ADA
:1012700094ED194AB5EE404AF1EE10FA06D594ED18
:10128000194AB1EE444ABDEEC44A03E094ED194A4E
:10129000BDEEC44AD4ED194AF5EE404AF1EE10FA1B
:1012A00001D553A100E01BA1F8EEE00A30EE600A80
:1012B00020EE080ABDEEC00A8DED050A8DED041A78
:1012C0000390B8EEC20A31EEC00A20EE080ABDEE65
:1012D000C00A8DED020ACDED012A0092B8EEE30AB4
:1012E00033EE400A20EE080ABDEEC00A10EE103AB6
:1012F00014EE102ADFF8480801F085F894ED1E0A74
:10130000B5EE400AF1EE10FA06D594ED1E0AB1EEE4
:10131000400A03E00000000094ED1E0AD4ED1E0A0E
:10132000F5EE400AF1EE10FA06D5D4ED1E0AF1EE04
:10133000600AFDEEE00A03E0D4ED1E0AFDEEE00ACD
:1013400094ED1E1AB5EE401AF1EE10FA06D594EDA2
:101350001E1AB1EE411ABDEEC11A03E094ED1E1A39
:10136000BDEEC11AD4ED1E1AF5EE401AF1EE10FAD8
:1013700001D51FA000E0CBA0D4ED1D1AF5EE401A58
:10138000F1EE10FA04D5D4ED1D1AF1EE611A01E068
:10139000D4ED1D1A94ED1D2AB5EE402AF1EE10FA97
:1013A00006D594ED1D2AB1EE422ABDEEC22A03E015
:1013B00094ED1D2ABDEEC22AD4ED1D2AF5EE402A79
:1013C000F1EE10FA06D5D4ED1D2AF1EE622AFDEEFB
:1013D000E22A03E0D4ED1D2AFDEEE22A94ED1D3A47
:1013E000B5EE403AF1EE10FA06D501A205E000BFD5
:1013F0002D00000030F12810AAA294ED1C3AB5EEA1
:10140000403AF1EE10FA04D594ED1C3AB1EE433AAD
:1014100001E094ED1C3AD4ED1C3AF5EE403AF1EEC1
:1014200010FA06D5D4ED1C3AF1EE633AFDEEE33A3C
:1014300003E0D4ED1C3AFDEEE33A94ED1C4AB5EE20
:10144000404AF1EE10FA06D594ED1C4AB1EE444A3A
:10145000BDEEC44A03E094ED1C4ABDEEC44AD4ED8F
:101460001C4AF5EE404AF1EE10FA01D5C4A100E0A5
:101470008CA1DFEDC48AF8EEE00A30EE600A20EEBF
:10148000280ABDEEC00A8DED050A8DED041A039001
:10149000B8EEC20A31EEC00A20EE280ABDEEC00A3C
:1014A0008DED020ACDED012A0092B8EEE30A33EE8B
:1014B000400A20EE280ABDEEC00A10EE103A14EEE3
:1014C000102ADFF8800600F09EFF94ED210AB5EEA9
:1014D000400AF1EE10FA04D594ED210AB1EE400A6B
:1014E00001E094ED210AD4ED210AF5EE400AF1EE77
:1014F00010FA06D5D4ED210AF1EE600AFDEEE00AFD
:1015000003E0D4ED210AFDEEE00A94ED211AB5EED8
:10151000401AF1EE10FA06D594ED211AB1EE411AF7
:10152000BDEEC11A03E094ED211ABDEEC11AD4ED4F
:10153000211AF5EE401AF1EE10FA01D590A000E064
:1015400058A0D4ED201AF5EE401AF1EE10FA04D5A9
:10155000D4ED201AF1EE611A01E0D4ED201A94EDD9
:10156000202AB5EE402AF1EE10FA06D594ED202A95
:10157000B1EE422ABDEEC22A03E094ED202ABDEE70
:10158000C22AD4ED202AF5EE402AF1EE10FA06D553
:10159000D4ED202AF1EE622AFDEEE22A03E0D4ED3A
:1015A000202AFDEEE22A94ED203AB5EE403AF1EE23
:1015B00010FA01D572A200E03AA294ED1F3AB5EEFE
:1015C000403AF1EE10FA07D594ED1F3AB1EE433AE6
:1015D00004E000BF68F1281094ED1F3AD4ED1F3AE3
:1015E000F5EE403AF1EE10FA06D5D4ED1F3AF1EEE1
:1015F000633AFDEEE33A03E0D4ED1F3AFDEEE33A41
:1016000094ED1F4AB5EE404AF1EE10FA06D594ED7E
:101610001F4AB1EE444ABDEEC44A03E094ED1F4AAE
:10162000BDEEC44AD4ED1F4AF5EE404AF1EE10FA81
:1016300001D553A100E01BA1F8EEE00A30EE600AEC
:1016400020EE280ABDEEC00A8DED050A8DED041AC4
:101650000390B8EEC20A31EEC00A20EE280ABDEEB1
:10166000C00A8DED020ACDED012A0092B8EEE30A20
:1016700033EE400A20EE280ABDEEC00A10EE103A02
:1016800014EE102ADFF8C00400F0BDFE94ED240A29
:10169000B5EE400AF1EE10FA06D594ED240AB1EE4B
:1016A000400A03E00000000094ED240AD4ED240A6F
:1016B000F5EE400AF1EE10FA06D5D4ED240AF1EE6B
:1016C000600AFDEEE00A03E0D4ED240AFDEEE00A34
:1016D00094ED241AB5EE401AF1EE10FA06D594ED09
:1016E000241AB1EE411ABDEEC11A03E094ED241A9A
:1016F000BDEEC11AD4ED241AF5EE401AF1EE10FA3F
:1017000001D51FA000E0C3A0D4ED231AF5EE401AC6
:10171000F1EE10FA04D5D4ED231AF1EE611A01E0CE
:10172000D4ED231A94ED232AB5EE402AF1EE10FAF7
:1017300006D594ED232AB1EE422ABDEEC22A03E07B
:1017400094ED232ABDEEC22AD4ED232AF5EE402AD9
:10175000F1EE10FA06D5D4ED232AF1EE622AFDEE61
:10176000E22A03E0D4ED232AFDEEE22A94ED233AA7
:10177000B5EE403AF1EE10FA08D501A207E000BF3D
:101780002D0000000050C347A0F12810A1A294ED45
:10179000223AB5EE403AF1EE10FA04D594ED223A31
:1017A000B1EE433A01E094ED223AD4ED223AF5EE5F
:1017B000403AF1EE10FA06D5D4ED223AF1EE633A52
:1017C000FDEEE33A03E0D4ED223AFDEEE33A94ED88
:1017D000224AB5EE404AF1EE10FA06D594ED224ABF
:1017E000B1EE444ABDEEC44A03E094ED224ABDEE98
:1017F000C44AD4ED224AF5EE404AF1EE10FA01D582
:10180000CAA100E083A1F8EEE00A30EE600A20EE03
:10181000280ABDEEC00A8DED050A8DED041A03906D
:10182000B8EEC20A31EEC00A20EE280ABDEEC00AA8
:101830008DED020ACDED012A0092B8EEE30A33EEF7
:10184000400A20EE280ABDEEC00A10EE103A14EE4F
:10185000102ABE4800F0D7FD94ED260AB5EE400AE6
:10186000F1EE10FA04D594ED260AB1EE400A01E03B
:1018700094ED260AD4ED260AF5EE400AF1EE10FAB0
:1018800006D5D4ED260AF1EE600AFDEEE00A03E08B
:10189000D4ED260AFDEEE00A94ED261AB5EE401AC4
:1018A000F1EE10FA06D594ED261AB1EE411ABDEE0E
:1018B000C11A03E094ED261ABDEEC11AD4ED261A22
:1018C000F5EE401AF1EE10FA01D598A000E051A013
:1018D000D4ED251AF5EE401AF1EE10FA04D5D4ED48
:1018E000251AF1EE611A01E0D4ED251A94ED252AAE
:1018F000B5EE402AF1EE10FA06D594ED252AB1EEA8
:10190000422ABDEEC22A03E094ED252ABDEEC22A8A
:10191000D4ED252AF5EE402AF1EE10FA06D5D4EDE5
:10192000252AF1EE622AFDEEE22A03E0D4ED252A13
:10193000FDEEE22A94ED253AB5EE403AF1EE10FACA
:1019400001D57AA100E033A1F8EEE00A30EE600A9A
:1019500020EE080ABDEEC00A8DED020A8DED011AD7
:101960000090B8EEC20A31EEC00A20EE080ABDEEC1
:10197000C00A10EE103A12EE902A754800F043FDAE
:1019800094ED280AB5EE400AF1EE10FA06D594ED72
:10199000280AB1EE400A03E094ED281094ED280ADD
:1019A000D4ED280AF5EE400AF1EE10FA06D5D4ED92
:1019B000280AF1EE600AFDEEE00A03E0D4ED280A01
:1019C000FDEEE00A94ED281AB5EE401AF1EE10FA99
:1019D00006D594ED281AB1EE411ABDEEC11A03E006
:1019E00094ED281ABDEEC11AD4ED281AF5EE401A6E
:1019F000F1EE10FA01D54DA000E006A0D4ED271AB3
:101A0000F5EE401AF1EE10FA06D5D4ED271AF1EEF4
:101A1000611A03E000000000D4ED271A94ED272A94
:101A2000B5EE402AF1EE10FA06D594ED272AB1EE74
:101A3000422ABDEEC22A03E094ED272ABDEEC22A57
:101A4000D4ED272AF5EE402AF1EE10FA06D5D4EDB2
:101A5000272AF1EE622AFDEEE22A03E0D4ED272ADE
:101A6000FDEEE22A94ED273AB5EE403AF1EE10FA97
:101A700001D52EA100E030A1F8EEE00A30EE600AB8
:101A800020EE080ABDEEC00A8DED020A8DED011AA6
:101A90000090B8EEC20A31EEC00A20EE080ABDEE90
:101AA000C00A10EE103A12EE902A2A4800F0ABFC61
:101AB000294800F0A8FCFEF7E3FAC4E92E01012052
:101AC00084F8C000C82101290EDB14F01F00411862
:101AD000BFF34F8F21480460203420390129F9DAFF
:101AE000BFF34F8FBFF36F8F1CE01D4800F08BFCDE
:101AF0001C4CFEF7C5FAC4E92E01012084F8C00091
:101B0000C82101290EDB14F01F004118BFF34F8FCD
:101B100012480460203420390129F9DABFF34F8FCD
:101B2000BFF36F8F06B0BDEC028B31BD2D000000FE
:101B3000D8F12810F4F528100000000010F2281049
:101B400048F2281014EF281050EF28108CEF2810BE
:101B500020F4281050F4281024F3281070EF00E02F
:101B6000C8EF281000120028D2B2203A22BF00FA93
:101B700002F1002070475242D041D2F12002914040
:101B80004140D040904041407047F0B40246106858
:101B900095681318506803EB5004C00748BF4D44C4
:101BA000A3422DD013F8016B16F0030004BF13F805
:101BB000010BC01C31090F2907D113F8011B0F318C
:101BC00003E013F8017B05F8017B401EF9D10029E1
:101BD000E6D013F8010BC6F38106032E08BF13F8F5
:101BE000016B00EB0620404228440026B71E8F42BE
:101BF0001EBF10F8017B05F8017B761CF6D1CFE7FC
:101C0000F0BC02F10C00704738B50C00602C01D21A
:101C1000012000E00020794D36222900C0B200F0FA
:101C20000EFE372229007648007800F008FE0121D8
:101C3000E40214F1A054200000F018FF002801D1A4
:101C4000012000E00020C0B232BD38B50C00602C8D
:101C500001D2012000E00020684D46222900C0B2D8
:101C600000F0EDFD472229006548007800F0E7FD0F
:101C70000121E40214F1A054200000F0B8FE31BDAF
:101C80002DE9F04107000C0015001E00602C01D268
:101C9000012000E00020DFF8648174224146C0B2D8
:101CA00000F0CDFD40F20120864201D2012000E08B
:101CB000002075224146C0B200F0C1FD76224146A7
:101CC0004F48007800F0BBFD21003800FFF79CFF73
:101CD000002803D021003800FFF7B7FFE40214F119
:101CE000A054002707E001222900200000F004FF93
:101CF000241D2D1D7F1CB742F5D3BDE8F08170B5C2
:101D00000D0014000020602D01D2012000E0002011
:101D10003A4E92223100C0B200F091FD40F2012013
:101D2000844201D2012000E0002093223100C0B2A1
:101D300000F085FD942231003148007800F07FFDED
:101D40005FF0A050ED02AD0800EB8501A2000B0092
:101D5000012A0EDB13F01F008218BFF34F8F2948B2
:101D600003602033203A012AF9DABFF34F8FBFF323
:101D70006F8F002005E051F82020234B43F82020EE
:101D8000401CA042F7D370BD70B50C001500602C4C
:101D900001D2012000E00020184EAB223100C0B279
:101DA00000F04DFD40F20120854201D2012000E00B
:101DB0000020AC223100C0B200F041FDAD22310064
:101DC0000F48007800F03BFD0F4A2B002100002057
:101DD000FFF756FF002070BD10B54FF40071FF22D1
:101DE000094C200000F000FF10BD80B5002000F07D
:101DF000E0FD01200249087001BD000054EE2810EA
:101E0000A72208285CEF00E0C407082810B50400EA
:101E10000020DFF8341608700020DFF83016088044
:101E20006420DFF82C160880DFF8280600F036FF63
:101E30002100DFF8240601F01FFA10BD10B51400D0
:101E4000002801D0002901D1012022E0DFF8F82587
:101E50001278002A01D101201BE001F0F0FB0028DC
:101E60000DD0DFF8E8050188491C018000880A28A8
:101E700003DBDFF8E805FFF7C9FF012009E00020D8
:101E8000DFF8C8150880E4B2002C01D001F090FB07
:101E9000002010BD704778B587B06846DFF8C015E0
:101EA0001A2201F0DFFC00254FF40073DFF8B4259F
:101EB0000021DFF8A00501F0BFF9DFF88C45002014
:101EC0002070DFF8A415DFF8A40501F064FC0028F9
:101ED00013D02900C9B2491CDFF8940501F0CCF9F0
:101EE000642001F0F4FD6D1C2800C0B20528E8DB79
:101EF000DFF8800501F0C0F944E0DFF87C15DFF879
:101F00007C0501F0B9F9DFF87815DFF8780501F004
:101F1000B3F9DFF87415DFF8740501F0ADF90025A9
:101F200056A6DFF86C35DFF86C25DFF86C1530004D
:101F300001F025FB002812D03100DFF8600501F028
:101F40009BF9642001F0C3FD6D1C2800C0B2052878
:101F5000E6DB3100DFF8480501F08EF912E01921C7
:101F6000684601F06CFB002809D1DFF8380501F064
:101F700083F90020DFF8D4140880012020700520A8
:101F800001F034FE08B070BD38B5DFF8BC0400784D
:101F900000282ED0DFF81045DFF810554FF480717F
:101FA000280001F0B0FB20602068002805D02268DE
:101FB0002900DFF8A00400F0BCFEDFF89844200000
:101FC00000F0A6FE00900098032812D3022001F032
:101FD0007EFD200000F09CFE0090DFF8D45400232A
:101FE0006A462900200000F074FF0099280001F0E3
:101FF00085FE31BD38B5DFF85044207801283BD04C
:10200000DFF84C542888002803D02888401E2880F8
:1020100032E0DFF8A00401F02FF9DFF84C14DFF80C
:102020004C0401F0B8FB00281FD1DFF86434DFF85E
:102030006424DFF8641411A001F0A1FA002814D17F
:10204000DFF8740401F018F90020DFF800140880AC
:1020500001202070FEF74AF8DFF8600401F03CFE32
:10206000DFF85C0401F008F906E0DFF8580401F03D
:1020700003F94FF4FA70288031BD00005544500038
:1020800030B5E3B0DFF840140878002800F0B981DB
:1020900000200870DFF8B0030078002800F0B1815C
:1020A000DFF828040078012807D0C0F0AA810328AF
:1020B00000F0A181C0F09981A3E1DFF81404007859
:1020C000002840F0BD800021DFF8082410780028A7
:1020D00018D0DFF80404DFF804340C00E4B200EB9D
:1020E00084049D686560491C0C00E4B200EB840424
:1020F0005D686560491C0C00E4B200EB84001B685D
:102100004360491C507800281DD0DFF8D433DFF835
:10211000C803B3F9104000EE104AB8EEC00A0C0034
:10212000E4B200EB840484ED010A491CB3F91230D7
:1021300000EE103AB8EEC00A0B00DBB200EB8300F1
:1021400080ED010A491C907800281ED0DFF8880332
:10215000DFF89033B3F9003000EE103AB8EEC00A61
:102160000B00DBB200EB830383ED010A491CDE4B5D
:10217000B3F9003000EE103AB8EEC00A0B00DBB243
:1021800000EB830080ED010A491CD078002824D0A0
:10219000D148D24B0C00E4B200EB84045D69656069
:1021A000491C0C00E4B200EB84049D696560491C85
:1021B0000C00E4B200EB84049D686560491C0C00CF
:1021C000E4B200EB8404DD696560491C0C00E4B2F4
:1021D00000EB84001B6A4360491C1079002824D05E
:1021E000BD48BE4A0B00DBB200EB8303546A5C605F
:1021F000491C0B00DBB200EB8303D46A5C60491C12
:102200000B00DBB200EB8303546B5C60491C0B00DA
:10221000DBB200EB8303D46B5C60491C0B00DBB2C8
:1022200000EB8300126C4260491CAB484170C9B29C
:10223000002900F0D98002F07BFD01F0B9F9D3E06C
:102240004FF49671002218AC200000F0CDFCA14C98
:10225000207800282BD06078002828D1A07800288A
:1022600025D1E078002822D1207900281FD19B4871
:1022700090ED000AB7EEC00A8DED020B90ED010A59
:10228000B7EEC00A8DED000B90ED020AB7EEC00A62
:1022900053EC102B954918A802F07CFD18A802F009
:1022A00099FD0122010018A8FFF7C8FDA9E02078D8
:1022B00000281AD0894890ED000AB7EEC00A8DEDCB
:1022C000020B90ED010AB7EEC00A8DED000B90ED08
:1022D000020AB7EEC00A53EC102B854908A802F099
:1022E00059FD08A918A802F090FD607800280CD0CC
:1022F0007B48B0F91230B0F910207E4908A802F0EE
:1023000049FD08A918A802F080FDA07800280DD08A
:102310007548B0F900307348B0F90020764908A834
:1023200002F038FD08A918A802F06FFDE078002837
:1023300026D06A4890ED080AB7EEC00A8DED060B6C
:1023400090ED070AB7EEC00A8DED040B90ED020A7E
:10235000B7EEC00A8DED020B90ED060AB7EEC00A8B
:102360008DED000B90ED050AB7EEC00A53EC102B73
:10237000624908A802F00EFD08A918A802F045FD60
:102380002079002820D0554890ED0F0AB7EEC00AFA
:102390008DED040B90ED0D0AB7EEC00A8DED020B2A
:1023A00090ED0B0AB7EEC00A8DED000B90ED090A17
:1023B000B7EEC00A53EC102B514908A802F0EAFC12
:1023C00008A918A802F021FD18A802F003FD0028B2
:1023D0000AD01BA118A802F018FD02F0FBFC012294
:1023E000010018A8FFF72AFD0BE001221021454843
:1023F000FFF724FD05E0012216214348FFF71EFDEB
:10240000FFE763B030BD0EB400B5C0B0020041AB11
:102410004FF48071684602F007FD694609A000F09C
:102420002BFF09480078012807D1684602F0D2FC4A
:10243000010001226846FFF701FD40B05DF810FB86
:102440000D0A0000257300009A220828842208281B
:10245000862208283021082800EC2810A80129101D
:10246000DCF92810C4130828B4012910FC03291032
:10247000BCF62810F8F7281030220828ACFA2810EB
:1024800000220828C4FA2810CC200828DCFA2810DA
:102490000C0429100404291050FE2810E4F628101A
:1024A0000CF7281080F8281068220828DC1C08285F
:1024B000C415082834F728105CF728108810002865
:1024C0009CF52810F4F02810992208289822082852
:1024D000BD07082820070828A82008280010002881
:1024E000D821082880220828822208286CFC28107D
:1024F000F4FA281080FC281094FC281084F7281087
:10250000C8F52810A8FC28100CFB281082B0002069
:102510000190002000900020019009E00098401CEC
:1025200000900098B0F5005FF8D30198401C01902E
:102530000198B0F5805F02D200200090F1E702B070
:10254000704780B50100002002F080FE01BD2DE93A
:10255000F043ADF5137D0700884616001C000020EF
:10256000ADF802000020ADF800000020029000202D
:10257000ADF804000020ADF80600404602F02AFC49
:102580000290DFF858532888002801D02869804736
:10259000DFF84C030078002800F0338128880028F9
:1025A00000F01181BDF90600411CADF806103A009B
:1025B000010089B20020EB6898474746404602F088
:1025C00009FC02906888A97990FBF1F0ADF804004D
:1025D0003800471C00780028FAD10020ADF8000030
:1025E0000EE07F1E38782F2802D038785C2804D17E
:1025F000BDF80000401CADF800000298401E02909B
:10260000BDF80000022802DA02980028E9D50298F5
:10261000002806D47A1CDFF8CC1253A802F0BAFBCB
:102620000EE0BDF80000002805D13A00AE4953A8DD
:1026300002F0B0FB04E03A00AA4953A802F0AAFB5A
:102640000020ADF8020042E0BDF80010BDF8002007
:10265000BDF8023053AF9BB2BDF90400434313FAF7
:1026600082F0385C43AA89B25054BDF80000401C87
:10267000ADF80000BDF8000080B2BDF9041088423A
:102680000EDA53A802F0A6FBBDF80020BDF8023018
:102690009BB2BDF904104B4313FA82F18842D3D2A6
:1026A000002043A9BDF800208854BDF90600411C54
:1026B000ADF8061043AAE97911FB00F189B20020B8
:1026C000EB689847BDF80200401CADF80200BDF869
:1026D000027053A802F07EFBBDF90410B0FBF1F0CC
:1026E000401CBFB2874203D20020ADF80000C1E712
:1026F00032007E4953A802F04DFBBDF90600411C93
:10270000ADF8061053AAE97911FB00F189B2002057
:10271000EB689847002C74D00020ADF8020041E02F
:10272000BDF80010BDF80020BDF802309BB2BDF925
:102730000400434313FA82F0205C43AA89B2505448
:10274000BDF80000401CADF80000BDF8000080B2EC
:10275000BDF9041088420EDA200002F03BFBBDF800
:102760000020BDF802309BB2BDF904104B4313FAB0
:1027700082F18842D4D2002043A9BDF800208854B9
:10278000BDF90600411CADF8061043AAE97911FB1A
:1027900000F189B20020EB689847BDF80200401CA8
:1027A000ADF80200BDF80260200002F013FBBDF995
:1027B0000410B0FBF1F0401CB6B2864221D20020DA
:1027C000ADF80000C1E74FF4807100220DF10C0953
:1027D000484600F009FA3800A9688847002C07D05D
:1027E000009433004246424903A802F0D3FA05E0C0
:1027F000330042463F4903A802F0CCFA03A8A96877
:1028000088470DF5137DBDE8F08380B50A0001000F
:10281000002002F00CFD002002BD02B501000023E3
:102820006A46354800F055FB009802BD10B514000B
:102830002200D2B2002002F0FAFC200010BD38B510
:102840000C001500C0B2002803D12C4800780028E5
:1028500000D131BD2A490878002800D0FEE7087869
:10286000401C087002F05CFF00232A00210025486C
:10287000FFF76DFEFFF74AFEF6E7002101804FF6F5
:10288000FF7141808180FF218171C17100218160D0
:102890000021C160002101617047104902880A804F
:1028A00042884A8082888A8082798A71C279CA7114
:1028B00082688A60C268CA600069086101200849AC
:1028C0000870704700B585B06846FFF7D6FF0E4820
:1028D00002906846FFF7E1FF05B000BDEC21082833
:1028E0009B220828C001291060FE2810CC01291065
:1028F000F8F9281024FB281048210828BE070828CA
:102900009C22082870FE281043252810010009B2D7
:10291000002909D4012210F01F018A40DFF8941227
:1029200000B2400941F820207047020012B2002A8C
:1029300005D44901DFF8802200B2115408E04901B2
:10294000DFF8782200B210F00F00104400F8041CE9
:102950007047DFF86C02016851F001010160016805
:10296000C907FCD470479748016851F00101016024
:1029700070479548016851F00101016070471FB52B
:10298000684602F0CFFF00280DD0904C18229049E5
:10299000200003F063F80020E07549208D490860AD
:1029A000002003F093F801208B490870FFF7D1FF56
:1029B0001FBD80B5C0B201280ED10321874802F0A7
:1029C000DBFF03210320FFF7B0FF0320FFF79EFF8B
:1029D00001208349087002E0002081490870FFF758
:1029E000C2FFFFF7C6FF01207B49087001BD7CB51F
:1029F00004000D007B48D0E90023CDE90023280026
:102A0000C0B2002814D17648007801280DD06F4E4E
:102A100018226F49300003F021F80020F07594204F
:102A20006C490860002003F051F800206A490870E2
:102A300001208DF8040000208DF8050000942A0084
:102A4000D2B26946002003F04EFA00280DD05F4C48
:102A500018225F49200003F001F80020E0759E2055
:102A60005C490860002003F031F873BD7CB50500B7
:102A70000C00280003F03CF900280DD0534E18221A
:102A80005349300002F0EAFF0020F075B5205149AB
:102A90000860002003F01AF82000C0B2002814D10A
:102AA0004F48007801280DD0484E18224849300080
:102AB00002F0D4FF0020F075B920464908600020DC
:102AC00003F004F80020444908700095280003F042
:102AD00044F9002801D0202001E04FF4007001905B
:102AE0002200D2B26946002003F031FA002801D159
:102AF000012000E0002076BDF8B584B004000D0090
:102B00001600200003F0F4F800280DD02F4F1822F3
:102B10002F49380002F0A2FF0020F875DF202D4970
:102B20000860002002F0D2FF6846102103F0A0FAEE
:102B30003000C0B2002814D12948007801280DD0F7
:102B4000224F18222249380002F088FF0020F87531
:102B5000E62020490860002002F0B8FF00201E494E
:102B6000087001208DF8080001208DF8090002206E
:102B70008DF80A0001208DF80B0000208DF80C0064
:102B8000009401953200D2B26946002003F067F844
:102B900000280DD00D4C18220D49200002F05EFFD8
:102BA0000020E075F5200B490860002002F08EFF40
:102BB00005B0F0BD00E100E000E400E018ED00E049
:102BC0000800244000F4244000F524400021082897
:102BD00094EA28104C220828882208287F292810E7
:102BE00089220828FC01291062F30F2262F31F4298
:102BF000401810F0030308D0C91A1FD3DB0748BFE1
:102C000000F8012D28BF20F8022D130030B414461F
:102C10001546103928BF20E93C00FAD8490728BFDB
:102C200020E90C0048BF40F8042D890028BF20F897
:102C3000022D48BF00F8012D30BC7047C91818BFDD
:102C400000F8012DCB0728BF00F8012D70478268DE
:102C5000521C8260426832B10268531C03601170DA
:102C60004168491E4160704782688918816003E0AD
:102C700082684169521A8260816842699142F7D242
:102C80007047C2688918C16003E0C2684169521A7E
:102C9000C260C16842699142F7D2704770B50400C2
:102CA000002C01D0012000E000205422DFF8C415E0
:102CB000C0B2FFF7C4FD0025207850F0010020705D
:102CC0000020A0600020E06060692061607800283A
:102CD00003D0022810D007D315E06169002266688E
:102CE0003000FFF781FF0EE061694900002266684D
:102CF0003000FFF779FF06E061698900002266680D
:102D00003000FFF771FF002020702800C0B270BDB6
:102D100010B50400002C01D0012000E0002070223A
:102D2000DFF85015C0B2FFF78AFD60692169401ACB
:102D300010BD2DE9F84305001600002D01D001203B
:102D400000E000200C00AA22DFF82815C0B2FFF72F
:102D500076FD00270020002C01D10327B5E028785C
:102D600010F0050F01D00427AFE0287850F00400E0
:102D700028702869B042C0F0A380D5F81480A868F4
:102D8000B8EB0008B04567D26878002803D0022865
:102D900041D01FD390E0424621006868AB6800EB49
:102DA0000309484600F05EFD41462800FFF75CFF3E
:102DB000B6EB080204EB08016868AB6800EB03049B
:102DC000200000F04FFDB6EB080841462800FFF751
:102DD0004BFF71E05FEA480221006868AB6800EBD6
:102DE0004309484600F03EFD41462800FFF73CFFFE
:102DF000B6EB0802520004EB48016868AB6800EBD0
:102E00004304200000F02EFDB6EB080841462800E0
:102E1000FFF72AFF50E05FEA880221006868AB688C
:102E200000EB8309484600F01DFD41462800FFF7EE
:102E30001BFFB6EB0802920004EB88016868AB68E0
:102E400000EB8304200000F00DFDB6EB08084146BE
:102E50002800FFF709FF2FE06878002803D0022838
:102E60001DD00ED328E0320021006868AB6800EB6B
:102E70000304200000F0F6FC31002800FFF7F4FE08
:102E80001AE0720021006868AB6800EB4304200080
:102E900000F0E8FC31002800FFF7E6FE0CE0B2008D
:102EA00021006868AB6800EB8304200000F0DAFCC6
:102EB00031002800FFF7D8FE2869861B2E6100E04C
:102EC0000527287810F0FB0028703800C0B2BDE854
:102ED000F2832DE9F04705000E001F00002D01D000
:102EE000012000E000201400DFF8888340F25B122C
:102EF0004146C0B2FFF7A3FC002C01D0012000E046
:102F000000204FF4AE724146C0B2FFF798FC5FF06C
:102F1000000800200020002E02D15FF003088BE0A3
:102F2000297811F0030F03D020605FF006089CE0C1
:102F30002800FFF7EDFE2168884209D220605FF08B
:102F40000708002804D1287810F0F70028708CE0DA
:102F5000287850F008002870D5F81490E868B9EB8C
:102F600000092068814522D36878002803D0022810
:102F700013D008D35CE022686868E9680144300037
:102F800000F070FC54E0226852006868E96800EBC9
:102F90004101300000F066FC4AE022689200686857
:102FA000E96800EB8101300000F05CFC40E06878EB
:102FB000002803D0022827D011D339E04A46686898
:102FC000E9680144B246504600F04CFC2268B2EB7E
:102FD000090269684E44300000F044FC28E05FEAD2
:102FE00049026868E96800EB4101B246504600F0CA
:102FF00039FC2268B2EB09025200696806EB490607
:10300000300000F02FFC13E05FEA89026868E9688D
:1030100000EB8101B246504600F024FC2268B2EB7E
:1030200009029200696806EB8906300000F01AFC7C
:10303000287810F0F7002870FFB2002F15D12878FB
:103040000B2802D15FF002080FE0287850F0020050
:10305000287021682800FFF714FE296920684118AC
:103060002961287810F0FD0028704046C0B2BDE804
:10307000F0872DE9F04705000E001F00002D01D05C
:10308000012000E000201400DFF8E8814FF4DF7237
:103090004146C0B2FFF7D3FB002C01D0012000E075
:1030A000002040F2BF124146C0B2FFF7C8FB5FF0FC
:1030B000000800200020002E02D15FF00308ABE0E2
:1030C000297811F0070F03D020605FF00608AFE009
:1030D0002800FFF71DFE2168884209D220605FF0BA
:1030E0000708002804D1287810F0F70028709FE026
:1030F000287850F008002870E868A968884203D34F
:10310000A8682168884228D36878002803D002285C
:1031100017D00AD37CE022686968AB6820681B1A64
:103120001944300000F09EFB72E02268520069688A
:10313000AB6820681B1A01EB4301300000F092FBE2
:1031400066E0226892006968AB6820681B1A01EB90
:103150008301300000F086FB5AE0D4F80090A868A4
:10316000B9EB00096878002803D0022835D018D3BD
:103170004EE04A4668686969B1EB09010144B2460C
:10318000504600F06FFB2268B2EB09026968AB6839
:1031900020681B1A194406EB0904200000F062FBAA
:1031A00036E05FEA490268686969B1EB090100EB42
:1031B0004101B246504600F055FB2268B2EB0902CD
:1031C00052006968AB6820681B1A01EB430106EBEB
:1031D0004904200000F046FB1AE05FEA89026868B3
:1031E0006969B1EB090100EB8101B246504600F07C
:1031F00039FB2268B2EB090292006968AB6820686B
:103200001B1A01EB830106EB8904200000F02AFB66
:10321000287810F0F7002870FFB2002F08D1287826
:103220000B2802D15FF0020802E02800FFF736FD0C
:103230004046C0B2BDE8F087F8B504000E001700A4
:103240001D00002C01D0012000E000204FF4077287
:103250000849C0B2FFF7F3FA00206760002121702F
:1032600066700021A1600021E16025616561C0B246
:10327000F2BD0000D4ED28100EB4C0B5024603A87C
:1032800000210190009101AB0121044878440C30E9
:1032900002F0F5FE06BC5DF810FB00BFA1C80000FF
:1032A00038B50400002564204443142003F06DFE6B
:1032B000002805D10A2000F0DFFB6D1CA542F4D3E5
:1032C000A54201D3012000E00020C0B232BD38B5D4
:1032D00014001D000822DFF858351A60002805D0B8
:1032E00089B20A000100002004F075F9002C05D015
:1032F000ADB22A002100002004F06DF90820DFF8AB
:103300003415086031BD38B504000D000820DFF821
:1033100020150860042322002100002004F070FA28
:10332000280080B2002806D0ADB22B00221D211D3E
:10333000002004F065FA0820DFF8F814086031BDB9
:10334000F8B504000D0016000820DFF8E41408604A
:10335000022028706E8004232A002900002004F037
:103360004FFA300080B221280EDB20232A1D2100D5
:10337000002004F045FAB6B2203E320014F12001DC
:10338000002004F028F90CE0B6B22F1D3200210015
:10339000380000F067FA20232A1D291D002004F0C0
:1033A0002FFA0820DFF88C140860F1BDF8B50D0085
:1033B00016001F0001248DF80000ADF802603800EF
:1033C000FFF76EFF00281ED133009BB22A000421B4
:1033D0006846FFF77CFF3800FFF762FF002812D134
:1033E00002208DF800000020ADF80200BDF80210A8
:1033F0006846FFF788FF142000F03EFB9DF80000B0
:10340000802800D100242000C0B2F2BDF8B504002D
:103410000D00160001273000FFF742FF002814D1ED
:103420002C700023002220212800FFF750FF3000DD
:10343000FFF736FF002808D102202870002068809E
:1034400020212800FFF75FFF00273800C0B2F2BD3F
:1034500030B589B04FF47A7269462020FFF7D6FF65
:1034600004002000C0B200280BD19DF80000A02865
:1034700007D1BDF8022001A9DFF8BC53280000F0F5
:10348000F1F9E4B2002C07D19DF80000A02801D08A
:10349000012002E0002000E00120C0B209B030BDF0
:1034A00030B589B04FF47A7269462120FFF7AEFF3C
:1034B00004002000C0B200280BD19DF80000A12814
:1034C00007D1BDF8022001A9DFF87053280000F0F1
:1034D000C9F9E4B2002C07D19DF80000A12801D061
:1034E000012002E0002000E00120C0B209B030BDA0
:1034F00030B589B04FF47A7269462220FFF786FF13
:1035000004002000C0B200280BD19DF80000A228C2
:1035100007D1BDF8022001A9DFF82453280000F0EC
:10352000A1F9E4B2002C07D19DF80000A22801D037
:10353000012002E0002000E00120C0B209B030BD4F
:1035400010B590B002000B00002B05D0BD496846B5
:1035500001F020FC020004E0BB49684601F01AFCBF
:10356000020042F2107392B269461020FFF71EFF6C
:103570000400FFF7BDFF2000C0B210B010BD18B5A9
:103580008DB0019300920B000200B04902A801F037
:1035900001FC02004CF2503392B202A91120FFF755
:1035A00005FF0400FFF7A4FF2000C0B20EB010BD5D
:1035B00030B589B00124A64D287800283BD10120E0
:1035C00028704FF47A70FFF76BFE002831D103208A
:1035D0008DF800000020ADF8020020216846FFF7BA
:1035E00092FE9DF80000902803D09DF800009128DD
:1035F00009D1BDF80200002805D0BDF8022001A9BC
:103600009448FFF796FB4FF47A70FFF749FE0028C5
:103610000FD102208DF800000020ADF80200BDF8A7
:1036200002106846FFF76FFE9DF80000802800D169
:103630000024002028702000C0B209B030BDF0B5D1
:1036400089B006000C00824D2878002858D101204E
:1036500028701CE03A0092B269463000FFF770FE15
:103660009DF80000902803D09DF80000912809D112
:10367000BDF80200002805D0BDF8022001A9754858
:10368000FFF757FB380080B2241ABFB23E44002C2B
:103690002AD040F6F970844202D340F6F87700E071
:1036A00027004FF47A70FFF7FBFD0028D2D01BE013
:1036B00002208DF800000020ADF8020020216846AD
:1036C000FFF721FE9DF80000902803D09DF8000030
:1036D000912809D1BDF80200002805D0BDF80220CC
:1036E00001A95C48FFF725FB9DF80000902805D153
:1036F0004FF47A70FFF7D4FD0028D9D0002028704D
:10370000200009B0F0BD38B58AB004000D00002CCF
:1037100001D0012000E000204FF40E724E49C0B2EB
:10372000FFF78DF800954A4D287800282AD101200E
:1037300028704FF47A70FFF7B3FD002820D10220E3
:103740008DF804000020ADF80600202101A8FFF745
:10375000DAFD9DF80400902803D09DF8040091281C
:1037600009D1BDF80600002805D0BDF8062002A941
:103770003848FFF7DEFA9DF804009028D9D0FFE71B
:103780000020287000236A4621003248FFF7A1FB81
:1037900000980BB030BD3EB504000D0000204FF482
:1037A00080632E4A00212B48FFF746FD0820029037
:1037B00000200190002000900023294A00210020D1
:1037C00004F086F8032301220121132003F0EEFB0D
:1037D000032301220121B82003F0E8FB0223002289
:1037E0000021142003F0E2FB0021B82003F0ABFB22
:1037F0000A2000F06CF90121B82003F0A4FB64203A
:1038000000F065F9002012490870FFF721FE010061
:10381000C9B2002909D1FFF743FE29002000FFF7B4
:103820008FFE0100C9B20029FFD1C0B23EBD000029
:1038300004013140080131403022082800220828C4
:10384000CC200828D801291014042910BCFC281009
:10385000A622082890210828CCEC2810C40F08289C
:103860008096980062B38B0708D0521E11F8013B76
:1038700000F8013B00F024808B07F6D1830740F06D
:10388000208000BF103A07D330B4B1E83810103AA6
:10389000A0E83810F9D230BC530724BFB1E80810B3
:1038A000A0E8081044BF51F8043B40F8043BD2079D
:1038B00024BF31F8022B20F8022B44BF0B78037091
:1038C0007047121F17D35B0009D151F8043B20F851
:1038D000023B1B0C121F20F8023BF6D20BE051F802
:1038E000043B00F8013B1B0A20F8023B1B0C121F93
:1038F00000F8013BF3D238BF121D521E24BF11F84D
:10390000013B00F8013BF8D870470268531C036084
:1039100011707047022801D301200FE00B00DBB2C9
:10392000042B01DB012009E0AA4B03EB8000C9B2A4
:10393000405C824201D3012000E000207047F8B5CE
:1039400006000F0015001C00022E01D301201CE010
:103950002A003900C9B23000FFF7DCFF012801D18D
:10396000012012E03800C0B2002811D1B4F5807FE8
:103970000CD299487603304400EB850010F5805056
:10398000016864F30F2101600020F2BD0120FCE713
:10399000FFB2012F10D1B4F5803F0BD28E487603D1
:1039A000304400EB850010F5A050016864F3172146
:1039B0000160E9E70120E8E70120E6E700B2001234
:1039C000C0B27047F8B505000E001700280000B21D
:1039D000FFF7F4FF04002000C0B2022801D3012049
:1039E00023E03A003100C9B22000C0B2FFF792FFD5
:1039F000012801D1012018E077492000C0B240031E
:103A000008442A00D2B200EB8200D0F8000CF6B2D3
:103A100066F3092067F30700E4B264032144EDB2C2
:103A200001EB8501C1F8000C0020F2BD70B5040067
:103A30000D001600022C01D301201CE032002900E9
:103A4000C9B22000FFF766FF012801D1012012E072
:103A500061496003085850F0004050F0407050F445
:103A60007F00EDB265F3092066F30700620388501A
:103A700064030859002070BDF8B50600F600574CE5
:103A8000574D00212078C001284404F04CF912E081
:103A90002078C001284404F048F9B842F8D32078CF
:103AA000C001284404F041F9361A00212078C001F1
:103AB000284404F038F94CF25137BE42E8D220785D
:103AC000C001284404F031F98642F8D2F1BDF8B5BE
:103AD00004004FF4FA504443404D414E00212878F1
:103AE000C001304404F01FF914E02878C0013044CC
:103AF00004F01BF9B842F8D33A4F3C192878C001BA
:103B0000304404F012F93F1839002878C0013044DD
:103B100004F009F94CF25137BC42E6D22878C001D2
:103B2000304404F002F98442F8D2F1BD38B594B0C3
:103B3000502100226C462000FFF756F82A4C002244
:103B40000121B4F90000FFF73DFFB4F90000FFF7D1
:103B500035FF092300220121C0B2FFF7F0FEB4F9BE
:103B60000000FFF72BFF00220121C0B2FFF75EFF2C
:103B70005FF0FF30009000208DF8040000208DF8E9
:103B8000050000208DF8060000208DF808000320B5
:103B90008DF844000120129001208DF807000F4C91
:103BA0000F4D69462078C001284403F0F7FF2078C4
:103BB000C001284404F0B2F800212078C001284454
:103BC00004F0B1F82078C001284404F0BEF815B024
:103BD00030BD00000C02291000000440C307082873
:103BE00000005940B03CFFFFB8070828C0B20028C9
:103BF0000AD001280FD0032814D0042819D0052892
:103C00001ED0062823D022E011481249086012482D
:103C1000124908601BE012480E49086011480F491C
:103C2000086014E010480B49086010480B49086010
:103C30000DE00F48074908600E480849086006E093
:103C40000D48044908600D4804490860FFE77047C3
:103C50000B282810180708281B2828101C070828DC
:103C60006DE82810D1E82810D5E7281039E8281089
:103C7000BDE02810B5E128103F362810073728107E
:103C800010B402000020002402E0135D1818641C28
:103C90008C42FAD3C0B210BC7047F8B50C00B42502
:103CA000EE1C002803D0002C01D0B24201D200202B
:103CB00011E0AA212170C42161702A00A71C010013
:103CC0003800FFF7CFFD2900A01CFFF7D9FF04EB58
:103CD000050188703000F2BD80B5C0B04FF480722D
:103CE0006946FFF7DAFF0100002901D1012003E056
:103CF00001226846FEF7A2F841B000BD2DE9F84365
:103D00002DED028BEEB00E00002E02D00500002D2E
:103D100001D100F092BF00271AE046A801F05AF83E
:103D200006A911F80820DFF8E41C46AB184401F09E
:103D300031F818F10108A045EFDB46A9DFF8D00CF7
:103D4000FEF761FBDFF8CC0CFEF75DFBFF1C7F1C70
:103D5000B74280F07287B81CB0422AD2E85DAA2828
:103D600027D105EB07004078EE2822D105EB0700AC
:103D700080780100C9B2042919DA0100C9B2012909
:103D800012D1DFF8940C0178012906D001210170CD
:103D9000DFF8000DFEF737FB09E0DFF8FC0C0178D7
:103DA00091F00101017002E0DFF86C1C0870BF1C8B
:103DB000CDE7B81CB04221D2E85DAA281ED105EBA0
:103DC00007004078FF2819D105EB07008078010033
:103DD000C9B2002910D00100C9B206290CDADFF8F7
:103DE000201D0200D2B20A4412F8012C92F0010206
:103DF000C0B2084400F8012CBF1CA8E7781DB042EF
:103E00002ED2E85DAA282BD105EB07004078C12807
:103E100026D10021002204E057FA82F0285C4118E4
:103E2000521C1000C0B20528F6DB05EB07004079F4
:103E3000C9B281428BD105EB070080780100C9B27D
:103E4000012904D1DFF81C0DFEF7DDFA06E0C0B24F
:103E5000022803D1DFF8100DFEF7D5FA7F1D76E7B3
:103E6000B81DB04240D2E85DAA283DD105EB07005D
:103E70004078C22838D105EB070080780100C9B22C
:103E8000002903D00100C9B22E2901DBBF1D5EE766
:103E900005EB0701C9788DF8001005EB07010979DA
:103EA0008DF8011005EB070149798DF8021005EB3B
:103EB000070189798DF80310441E9DED000A20004A
:103EC000C0B2FCF7E2F89DED000AB7EEC00A53EC71
:103ED000102BDFF8980CE4B250F82410DFF8900CA7
:103EE000FEF791FABF1D32E7F81CB0424BD2E85DF5
:103EF000AA2848D105EB07004078C32843D105EB39
:103F00000700807888283ED105EB0700C078552847
:103F100039D1DFF8300DFEF776FA4FF49E71DFF8F5
:103F2000284D220001290FDB12F01F004118BFF3BA
:103F30004F8FDFF8180D0260203220390129F8DA9E
:103F4000BFF34F8FBFF36F8F40F2E938B4F9100021
:103F500003F001FF404505DAB4F9120003F0FBFE5F
:103F6000404504DBDFF81C0DFEF74DFA09E0DFF8F1
:103F7000180DFEF748FAFCF7F9F8DFF8D40CFEF755
:103F800042FAFF1CE3E617F1B70086424ED3E85D24
:103F9000AA284BD105EB07004078C42846D1002160
:103FA000002204E0D019284480784118521CB42A19
:103FB000F8DB05EB070090F8B600C9B281422FD1BB
:103FC000DFF8C80CFEF71FFA72B6B42205EB070043
:103FD000811CDFF8BC4CA0464046FFF743FCFCF7D1
:103FE0004FF8C4E92E01012084F8C000C82101293E
:103FF0000FDB14F01F004118BFF34F8FDFF84C0C9C
:104000000460203420390129F8DABFF34F8FBFF361
:104010006F8F62B62D21DFF8B40CFEF7F4F903E0E0
:10402000DFF8AC0CFEF7EFF9B73790E6F81CB042BA
:10403000BFF48DAEE85DAA287FF489AE05EB0700DA
:104040004078C5287FF483AE05EB07008078882888
:104050007FF47DAE05EB0700C07855287FF477AE7E
:10406000DFF8700CFEF7CFF9FCF740F8DFF8D88BDB
:104070004FF4807206A918F18800FFF70EFE0400C5
:10408000002C04D00122210006A8FDF7D7FEDFF89E
:10409000480CFEF7B8F998ED2C0AB5EE400AF1EE9F
:1040A00010FA04D598ED2C0AB1EE400A01E098ED23
:1040B0002C0AD8ED2C0AF5EE400AF1EE10FA06D5DE
:1040C000D8ED2C0AF1EE600AFDEEE00A03E0D8ED2F
:1040D0002C0AFDEEE00A98ED2C1AB5EE401AF1EE2E
:1040E00010FA06D598ED2C1AB1EE411ABDEEC11AA0
:1040F00003E098ED2C1ABDEEC11AD8ED2C1AF5EE9E
:10410000401AF1EE10FA01D5C1A000E0C1A0D8ED2F
:104110002A1AF5EE401AF1EE10FA04D5D8ED2A1A53
:10412000F1EE611A01E0D8ED2A1A98ED2A2AB5EECF
:10413000402AF1EE10FA06D598ED2A2AB1EE422A6D
:10414000BDEEC22A03E098ED2A2ABDEEC22AD8EDC0
:104150002A2AF5EE402AF1EE10FA06D5D8ED2A2AE1
:10416000F1EE622AFDEEE22A03E0D8ED2A2AFDEE06
:10417000E22A98ED2A3AB5EE403AF1EE10FA01D56E
:10418000A3A100E0A3A19FEDA48AF8EEE00A30EE1F
:10419000600A20EE080ABDEEC00A8DED020A8DED20
:1041A000011A0090B8EEC20A31EEC00A20EE080AE9
:1041B000BDEEC00A10EE103A12EE902ADFF8240B82
:1041C000FEF721F998ED290AB5EE400AF1EE10FA52
:1041D00004D598ED290AB1EE400A01E098ED290ACC
:1041E000D8ED290AF5EE400AF1EE10FA06D5D8ED21
:1041F000290AF1EE600AFDEEE00A03E0D8ED290A93
:10420000FDEEE00A98ED291AB5EE401AF1EE10FA2B
:1042100006D598ED291AB1EE411ABDEEC11A03E098
:1042200098ED291ABDEEC11AD8ED291AF5EE401AFB
:10423000F1EE10FA01D576A000E076A0D8ED281AAC
:10424000F5EE401AF1EE10FA04D5D8ED281AF1EE89
:10425000611A01E0D8ED281A98ED282AB5EE402A17
:10426000F1EE10FA06D598ED282AB1EE422ABDEEFD
:10427000C22A03E098ED282ABDEEC22AD8ED282AEA
:10428000F5EE402AF1EE10FA06D5D8ED282AF1EE27
:10429000622AFDEEE22A03E0D8ED282AFDEEE22AAA
:1042A00098ED283AB5EE403AF1EE10FA01D558A251
:1042B00000E058A298ED273AB5EE403AF1EE10FA38
:1042C00004D598ED273AB1EE433A01E098ED273A4C
:1042D000D8ED273AF5EE403AF1EE10FA06D5D8EDD2
:1042E000273AF1EE633AFDEEE33A03E0D8ED273AE0
:1042F000FDEEE33A98ED274AB5EE404AF1EE10FAAA
:1043000006D598ED274AB1EE444ABDEEC44A03E013
:1043100098ED274ABDEEC44AD8ED274AF5EE404A4B
:10432000F1EE10FA01D53AA100E03AA1F8EEE00A68
:1043300030EE600A20EE080ABDEEC00A8DED050AD7
:104340008DED041A0390B8EEC20A31EEC00A20EED9
:10435000080ABDEEC00A8DED020ACDED012A0092D9
:10436000B8EEE30A33EE400A20EE080ABDEEC00ABA
:1043700010EE103A14EE102ADFF86C09FEF743F83D
:1043800098ED2F0AB5EE400AF1EE10FA04D598ED3B
:104390002F0AB1EE400A01E098ED2F0AD8ED2F0A5E
:1043A000F5EE400AF1EE10FA06D5D8ED2F0AF1EE3F
:1043B000600AFDEEE00A03E0D8ED2F0AFDEEE00A08
:1043C00098ED2F1AB5EE401AF1EE10FA06D598EDD9
:1043D0002F1AB1EE411ABDEEC11A03E098ED2F1A63
:1043E000BDEEC11AD8ED2F1AF5EE401AF1EE10FA13
:1043F00001D507A000E007A0D8ED2E1AF5EE401A6F
:10440000F1EE10FA0AD5D8ED2E1AF1EE611A07E096
:104410002D0000000000000000401C46D8ED2E1AC0
:1044200098ED2E2AB5EE402AF1EE10FA06D598ED59
:104430002E2AB1EE422ABDEEC22A03E098ED2E2AC2
:10444000BDEEC22AD8ED2E2AF5EE402AF1EE10FA82
:1044500006D5D8ED2E2AF1EE622AFDEEE22A03E01F
:10446000D8ED2E2AFDEEE22A98ED2E3AB5EE403A2E
:10447000F1EE10FA01D5C1A200E0C1A298ED2D3AEB
:10448000B5EE403AF1EE10FA04D598ED2D3AB1EEC2
:10449000433A01E098ED2D3AD8ED2D3AF5EE403A49
:1044A000F1EE10FA06D5D8ED2D3AF1EE633AFDEEB5
:1044B000E33A03E0D8ED2D3AFDEEE33A98ED2D4ACC
:1044C000B5EE404AF1EE10FA06D598ED2D4AB1EE60
:1044D000444ABDEEC44A03E098ED2D4ABDEEC44AFD
:1044E000D8ED2D4AF5EE404AF1EE10FA01D5A3A120
:1044F00000E0A3A1F8EEE00A30EE600A20EE080A20
:10450000BDEEC00A8DED050A8DED041A0390B8EEDC
:10451000C20A31EEC00A20EE080ABDEEC00A8DEDD7
:10452000020ACDED012A0092B8EEE30A33EE400A0A
:1045300020EE080ABDEEC00A10EE103A14EE102A62
:10454000DFF8A807FDF75FFF98ED3A0AB5EE400ADD
:10455000F1EE10FA04D598ED3A0AB1EE400A01E006
:1045600098ED3A0AD8ED3A0AF5EE400AF1EE10FA63
:1045700006D5D8ED3A0AF1EE600AFDEEE00A03E056
:10458000D8ED3A0AFDEEE00A98ED3A1AB5EE401A77
:10459000F1EE10FA06D598ED3A1AB1EE411ABDEED9
:1045A000C11A03E098ED3A1ABDEEC11AD8ED3A1AD5
:1045B000F5EE401AF1EE10FA01D570A000E070A0FF
:1045C000D8ED391AF5EE401AF1EE10FA04D5D8ED0F
:1045D000391AF1EE611A01E0D8ED391A98ED392A4D
:1045E000B5EE402AF1EE10FA06D598ED392AB1EE73
:1045F000422ABDEEC22A03E098ED392ABDEEC22A56
:10460000D8ED392AF5EE402AF1EE10FA06D5D8EDAC
:10461000392AF1EE622AFDEEE22A03E0D8ED392ACA
:10462000FDEEE22A98ED393AB5EE403AF1EE10FA95
:1046300001D552A200E052A298ED383AB5EE403AC8
:10464000F1EE10FA04D598ED383AB1EE433A01E0B4
:1046500098ED383AD8ED383AF5EE403AF1EE10FAE6
:1046600006D5D8ED383AF1EE633AFDEEE33A03E0D1
:10467000D8ED383AFDEEE33A98ED384AB5EE404AC7
:10468000F1EE10FA06D598ED384AB1EE444ABDEE87
:10469000C44A03E098ED384ABDEEC44AD8ED384A22
:1046A000F5EE404AF1EE10FA01D534A100E034A154
:1046B000F8EEE00A30EE600A20EE080ABDEEC00A0D
:1046C0008DED050A8DED041A0390B8EEC20A31EEA5
:1046D000C00A20EE080ABDEEC00A8DED020ACDED3B
:1046E000012A0092B8EEE30A33EE400A20EE080AEF
:1046F000BDEEC00A10EE103A14EE102ADFF8F005F5
:10470000FDF781FE98ED3D0AB5EE400AF1EE10FA94
:1047100004D598ED3D0AB1EE400A01E098ED3D0A5E
:10472000D8ED3D0AF5EE400AF1EE10FA06D5D8EDC7
:104730003D0AF1EE600AFDEEE00A03E0D8ED3D0A25
:10474000FDEEE00A98ED3D1AB5EE401AF1EE10FAD2
:1047500006D598ED3D1AB1EE411ABDEEC11A03E03F
:1047600098ED3D1ABDEEC11AD8ED3D1AF5EE401A8E
:10477000F1EE10FA06D501A005E000BF2D00000003
:1047800000000000C5A0D8ED3C1AF5EE401AF1EE8D
:1047900010FA04D5D8ED3C1AF1EE611A01E0D8ED1B
:1047A0003C1A98ED3C2AB5EE402AF1EE10FA06D5F7
:1047B00098ED3C2AB1EE422ABDEEC22A03E098ED04
:1047C0003C2ABDEEC22AD8ED3C2AF5EE402AF1EE95
:1047D00010FA06D5D8ED3C2AF1EE622AFDEEE22A67
:1047E00003E0D8ED3C2AFDEEE22A98ED3C3AB5EE26
:1047F000403AF1EE10FA01D5C2A200E0A7A298ED6E
:104800003B3AB5EE403AF1EE10FA04D598ED3B3A5A
:10481000B1EE433A01E098ED3B3AD8ED3B3AF5EE84
:10482000403AF1EE10FA06D5D8ED3B3AF1EE633A94
:10483000FDEEE33A03E0D8ED3B3AFDEEE33A98EDC6
:104840003B4AB5EE404AF1EE10FA06D598ED3B4AE8
:10485000B1EE444ABDEEC44A03E098ED3B4ABDEEDA
:10486000C44AD8ED3B4AF5EE404AF1EE10FA01D5C4
:10487000A4A100E089A1F8EEE00A30EE600A20EE83
:10488000080ABDEEC00A8DED050A8DED041A0390ED
:10489000B8EEC20A31EEC00A20EE080ABDEEC00A28
:1048A0008DED020ACDED012A0092B8EEE30A33EE57
:1048B000400A20EE080ABDEEC00A10EE103A14EECF
:1048C000102ADFF83004FDF79EFD98ED480AB5EE9A
:1048D000400AF1EE10FA04D598ED480AB1EE400A0C
:1048E00001E098ED480AD8ED480AF5EE400AF1EEED
:1048F00010FA06D5D8ED480AF1EE600AFDEEE00A9E
:1049000003E0D8ED480AFDEEE00A98ED481AB5EE4E
:10491000401AF1EE10FA06D598ED481AB1EE411A98
:10492000BDEEC11A03E098ED481ABDEEC11AD8EDEC
:10493000481AF5EE401AF1EE10FA01D571A000E028
:1049400056A0D8ED471AF5EE401AF1EE10FA04D54C
:10495000D8ED471AF1EE611A01E0D8ED471A98ED4B
:10496000472AB5EE402AF1EE10FA06D598ED472A0F
:10497000B1EE422ABDEEC22A03E098ED472ABDEE11
:10498000C22AD8ED472AF5EE402AF1EE10FA06D5F4
:10499000D8ED472AF1EE622AFDEEE22A03E0D8EDD7
:1049A000472AFDEEE22A98ED473AB5EE403AF1EE9D
:1049B00010FA01D553A100E038A1F8EEE00A30EE7C
:1049C000600A20EE080ABDEEC00A8DED020A8DEDE8
:1049D000011A0090B8EEC20A31EEC00A20EE080AB1
:1049E000BDEEC00A10EE103A12EE902AC248FDF752
:1049F0000AFD98ED4A0AB5EE400AF1EE10FA0DD51F
:104A000098ED4A0AB1EE400A0AE000BFEC03291013
:104A1000F4032910C0F928109822082898ED4A0AB2
:104A2000D8ED4A0AF5EE400AF1EE10FA06D5D8EDB7
:104A30004A0AF1EE600AFDEEE00A03E0D8ED4A0A08
:104A4000FDEEE00A98ED4A1AB5EE401AF1EE10FAC2
:104A500006D598ED4A1AB1EE411ABDEEC11A03E02F
:104A600098ED4A1ABDEEC11AD8ED4A1AF5EE401A71
:104A7000F1EE10FA01D523A000E008A0D8ED491A04
:104A8000F5EE401AF1EE10FA0AD5D8ED491AF1EE1A
:104A9000611A07E060F82810BD0708280000000030
:104AA000D8ED491A98ED492AB5EE402AF1EE10FAF0
:104AB00006D598ED492AB1EE422ABDEEC22A03E09E
:104AC00098ED492ABDEEC22AD8ED492AF5EE402AD2
:104AD000F1EE10FA06D5D8ED492AF1EE622AFDEE84
:104AE000E22A03E0D8ED492AFDEEE22A98ED493AA0
:104AF000B5EE403AF1EE10FA06D502A105E000BF8E
:104B0000200708282D00000074A1F8EEE00A30EE1E
:104B1000600A20EE080ABDEEC00A8DED020A8DED96
:104B2000011A0090B8EEC20A31EEC00A20EE080A5F
:104B3000BDEEC00A10EE103A12EE902A6F48FDF753
:104B400062FC6F48FDF75FFC6E48FDF75CFCA0213E
:104B500000220DF58C784046FEF746F85FF000081D
:104B600015E000BF88F92810A4F9281070E6281075
:104B7000D4F7281046A800F02DF906A911F808204E
:104B8000614946AB184400F005F918F10108B8F185
:104B9000280F01DAA045EDDB0FF2441846A9404684
:104BA000FDF731FCA02100220DF58C794846FEF777
:104BB0001BF85FF028090CE046A800F00BF906A9E5
:104BC00011F80920504946AB184400F0E3F819F1F8
:104BD0000109B9F1500F01DAA145EDDB46A94046C4
:104BE000FDF711FCA02100220DF58C794846FDF758
:104BF000FBFF5FF050090CE046A800F0EBF806A9B7
:104C000011F80920404946AB184400F0C3F819F1E7
:104C10000109B9F1780F01DAA145EDDB46A940465B
:104C2000FDF7F1FBA02100220DF58C784046FDF741
:104C3000DBFF5FF07808FFF77EB86EB0BDEC028B4B
:104C4000BDE8F18370F528100010002870EF00E037
:104C500058FC281080B54FF480732C4A00212C4852
:104C6000FEF7EAFA0F20FEF732FF002300225FF47E
:104C7000E131002000F01EFC0121002000F09BFB30
:104C800001BD000058F3281080F42810B0F428105B
:104C90000012002838B51E4C2000FEF739F80090AD
:104CA0000098032811D30220FEF711FF2000FEF721
:104CB0002FF80090174D00236A4629002000FEF7C8
:104CC00008F900992800FFF719F831BD8CF3281076
:104CD0001CF6281080F22810E0F4281000000000D4
:104CE0002573000044F6281004F0281040F0281026
:104CF0007CF02810B8F028106CF6281094F62810D4
:104D000010F5281040F52810EC032910DC1A0828AB
:104D100018210828DC1B08280300002002E01A786C
:104D200010185B1C0A00511E002AF8D1C0B270474F
:104D300038B50400607810F00F00607060780928C2
:104D400001DA012000E00020C522DFF84410C0B2E3
:104D5000FDF775FDAA2020706578D5F10805AD0036
:104D6000D5F12405E570607850F0100060700020E7
:104D7000A0702900C9B22000FFF7CEFFA070EDB2ED
:104D800029002000014A1268904731BD1807082801
:104D90002CEB28100CB430B583B00A4606A902915A
:104DA000044600250194009502AB01A90848784407
:104DB0001E3001F064F9019A157000284EBF0446B8
:104DC0000198041B204603B030BC5DF80CFB00BF0B
:104DD0003BEBFFFF00F10103810704D010F8011B3A
:104DE000820781B1FAD10268A2F10131914311F039
:104DF000803104BF50F8042FF6E709BAB1FA81F107
:104E000000EBD100401CC01A7047034600E05B1C59
:104E10001A78002AFBD111F801CB83F800C013F8EF
:104E2000012B002AF7D1704708B584B00023039303
:104E300000290EBF01930190491E0291009301A920
:104E400004AB07487844183001F019F9019909B109
:104E500000220A70002858BF039805B000BD00BFAB
:104E6000EFDDFFFF022801D3012010E00B00DBB2D1
:104E7000042B01DB01200AE0DFF8CC3703EB8000D4
:104E8000C9B2405C824201D3012000E0002070479B
:104E9000F8B504000F0015001E00022C01D30120FC
:104EA0002AE02A003900C9B22000FFF7DBFF012801
:104EB00001D1012020E006983900C9B202291ED193
:104EC000B6F5803F19D2202817D24FF4C052DFF830
:104ED0007C1763030B4403EB850313441F6866F3DD
:104EE00017271F606403214401EB850111440A6800
:104EF00060F3C7020A600020F2BD0120FCE7FFB2A8
:104F0000032F1FD1B6F1807F1AD2202818D24FF478
:104F1000E052DFF8381763030B4403EB85031344B7
:104F20001F6807F0FF0757EA06271F606403214444
:104F300001EB850111440A6860F3C7020A60DAE7F1
:104F40000120D9E70120D7E700B20012C0B27047B4
:104F5000F8B505000E001700280000B2FFF7F4FFB7
:104F600004002000C0B2022801D3012024E03A004E
:104F70003100C9B22000C0B2FFF774FF012801D18F
:104F8000012019E0DFF8C4162000C0B24003084435
:104F90002A00D2B200EB8200D0F8000CF6B266F321
:104FA000092067F30700E4B264032144EDB201EB8A
:104FB0008501C1F8000C0020F2BD70B504000D00A1
:104FC0001600022C01D301201DE032002900C9B2D5
:104FD0002000FFF747FF012801D1012013E0DFF88F
:104FE0006C166003085850F0004050F0407050F4C8
:104FF0007F00EDB265F3092066F307006203885075
:1050000064030859002070BDD0F840037047D0F801
:105010000803C005C00D7047C0F840127047D0F8B3
:105020000802C005C00D7047D0F80802C0F3C030B8
:10503000704738B505002800FFF7F1FF040028008D
:10504000FFF7F2FF0419002C01D1012000E000203D
:10505000C0B232BDC0F8C81F7047D0F8C80F704743
:10506000C0F8881F7047D0F8880F7047016851F06A
:1050700000410160704738B504001500C9B200292D
:1050800006D002291ED010D3042935D027D340E002
:10509000DFF8BC05A06001202073112060734FF47D
:1050A0008C70E0811220208239E0DFF8A805A06032
:1050B000012020731120607340F21D10E0816B20ED
:1050C00020822CE0DFF89005A060012020731120E1
:1050D00060734FF48E70E0816A2020821FE0DFF859
:1050E0007C05A060022020731120607340F21B1029
:1050F000E0816920208212E0DFF86405A0600120D1
:105100002073132060734FF48D70E081682020823B
:1051100005E07C22DFF84C150020FDF790FBEDB296
:10512000002D06D0022D1ED010D3042D35D027D34C
:1051300040E0DFF81C052060002020711120607124
:105140004FF48C70E0811220208239E0DFF80405F2
:105150002060002020711120607140F21D10E0815C
:105160006B2020822CE0DFF8F0042060002020710A
:10517000112060714FF48E70E0816A2020821FE060
:10518000DFF8D8042060012020711120607140F206
:105190001B10E0816920208212E0DFF8C404206047
:1051A00000202071132060714FF48D70E081682021
:1051B000208205E0A822DFF8AC140020FDF73FFBB9
:1051C00031BD10B5C0B2002806D002280AD006D3DF
:1051D00004280DD009D30EE0DFF88C4411E0DFF88D
:1051E0008C440EE0DFF888440BE0DFF8884408E0E8
:1051F000DFF8844405E0BD22DFF868140020FDF7E5
:105200001EFB200010BD38B50400DFF87054C9B291
:105210002000C0B255F82000FFF7FEFE2000C0B20B
:1052200055F82000FFF705FF0028F7D031BD70B515
:1052300005000E00140006E031782800C0B2FFF728
:10524000E2FF641E761C002CF6D170BD38B5040058
:105250000D0005E029782000C0B2FFF7D4FF6D1CD7
:1052600028780028F6D131BD70B504000D0000206B
:10527000DFF808642000C0B256F82000FFF7C7FE30
:10528000002807D0E4B256F82400FFF7BDFE2870CE
:10529000012000E00020C0B270BD70B505000C0018
:1052A000DFF8D8632800C0B256F82000FFF7DBFE15
:1052B0004008400001002800C0B256F82000FFF767
:1052C000CFFE2800C0B256F82000FFF7CCFE30F029
:1052D000020001002800C0B256F82000FFF7C0FE0F
:1052E0002800C0B256F82000FFF7BDFE30F02000C5
:1052F00001002800C0B256F82000FFF7B1FE2800D8
:10530000C0B256F82000FFF7AEFE30F040000100BA
:105310002800C0B256F82000FFF7A2FE2800C0B255
:1053200056F82000FFF79FFE30F010000100280023
:10533000C0B256F82000FFF793FE2800C0B256F81E
:105340002000FFF790FE30F4807001002800C0B20A
:1053500056F82000FFF784FE2800C0B256F820005F
:10536000FFF781FE30F4806001002800C0B256F8DB
:105370002000FFF775FE002C0ED02800C0B256F8B2
:105380002000FFF76AFE50F400700100EDB256F8FD
:105390002500FFF765FE0DE02800C0B256F820009A
:1053A000FFF75BFE30F400700100EDB256F8250007
:1053B000FFF756FE70BD70B505000C00DFF8BC624B
:1053C0002800C0B256F82000FFF747FE4008400012
:1053D00001002800C0B256F82000FFF73BFE28006D
:1053E000C0B256F82000FFF738FE30F00800010088
:1053F0002800C0B256F82000FFF72CFE2800C0B2EB
:1054000056F82000FFF729FE30F0200001002800A8
:10541000C0B256F82000FFF71DFE2800C0B256F8B3
:105420002000FFF71AFE30F4807001002800C0B29F
:1054300056F82000FFF70EFE2800C0B256F82000F4
:10544000FFF70BFE30F4007001002800C0B256F8E0
:105450002000FFF7FFFD2800C0B256F82000FFF73C
:10546000FCFD30F4006001002800C0B256F82000B6
:10547000FFF7F0FD002C0ED02800C0B256F8200037
:10548000FFF7EBFD50F004000100EDB256F82500E7
:10549000FFF7E0FD0DE02800C0B256F82000FFF74E
:1054A000DCFD30F004000100EDB256F82500FFF7F6
:1054B000D1FD70BD2DE9F841A7B005000F00160021
:1054C00028003100C0B2C9B2884201D1012000E0F9
:1054D00000201C00DFF88C814FF4CE724146C0B230
:1054E000FDF7ADF928002100C0B2C9B2884201D150
:1054F000012000E0002040F29D124146C0B2FDF7BD
:105500009EF902A8142100F0B3FD342100220DF110
:1055100068084046FDF768FB4C2100220DF11C088D
:105520004046FDF761FBFF003A000023544800218C
:1055300002F016FC07002200D2B23100C9B202A864
:10554000FFF799FD08201B909DF80D008DF8700065
:105550001AAA9DF80C10029802F0A5FD06201B90D7
:105560009DF80D008DF870001AAA9DF8141004988B
:1055700002F099FD0020079008200890082009906B
:1055800002200B9000200C9000201290002014901C
:105590003A4C2800C0B254F8200002F005FF394907
:1055A0002A00D2B2382042430A4407A92800C0B2D8
:1055B00054F8200002F0B6FD2800C0B254F82000D4
:1055C000FFF754FD2A00D2B20321BDF91600FFF700
:1055D000BFFCBDF91600FFF7B7FC17F01F010091E3
:1055E000C7F357132A00D2B20321C0B2FFF750FC11
:1055F000BDF91600FFF7A8FC2A00D2B20321C0B201
:10560000FFF7DBFCBDF91800ADF800000320ADF892
:10561000020001208DF8040007221B482900C9B2AE
:1056200050F82110684600F087F800212800C0B229
:10563000FFF7C1FE00212800C0B2FFF72EFE28B000
:10564000BDE8F081000000000C02291000000440B9
:1056500000003140000231400005314080083140F7
:1056600000073140D4EE2810000060400000654083
:105670000000644000006340000062409C0708286E
:1056800000809698C419082888070828010009B2E4
:10569000002908D4012210F01F018A401B4900B2E2
:1056A000400941F820207047010009B2002908D4C0
:1056B000012210F01F018A40154900B2400941F84B
:1056C00020207047020012B2002A04D44901114A76
:1056D00000B2115407E049010F4A00B210F00F0068
:1056E000104400F8041C7047002800D162B60B4833
:1056F0000168491C0160704772B6084908680028B3
:1057000002D00868401E08600868704700E100E0A9
:1057100080E200E000E400E018ED00E070220828DC
:1057200080B5FFF7E9FF02F087FE01BD80B5C9B281
:1057300000B2FFF7C7FF01BD70B504000D001600F1
:10574000200002F089FE2900B4F9000002F0C3FE37
:105750003100C9B2B4F90200FFF7E8FFB4F9020062
:10576000FFF7A2FFB4F90200FFF790FF70BD000041
:1057700038B50400082C10D3DFF8B0521822DFF837
:10578000B012280000F06AF90020E875E820DFF880
:10579000A4120860002000F099F9DFF89C0264016F
:1057A000204432BDDFF894321B6862F31F4361F37B
:1057B0000F0383607047C0687047DFF884321B684E
:1057C00062F31F4361F30F03036000687047C06911
:1057D000C00FC0B27047F8B502000D00002A01D119
:1057E000052053E0DFF85C120868C0F303200028AE
:1057F00001D1002007E00868C0F303200E2801D182
:10580000012000E00220DFF84012400101EB000619
:105810007FF07044DFF83472380011001022FEF778
:1058200021F838684008400038601021380000F046
:10583000A9F9DFF81C323A000121300002F074FEB1
:10584000002804D0012021E0641E002C15D0300077
:10585000FFF7BDFF0028F7D1002D08D01021380038
:1058600000F07EF9280039001022FDF7FBFF00F060
:1058700041F8012803D1032008E0022006E000F0EF
:1058800039F8002801D1002000E00420F2BD38B52D
:105890000100002901D105202BE06A4A1068C0F3FD
:1058A0000320002801D1002007E01068C0F3032086
:1058B0000E2801D1012000E00220634A400102EBE2
:1058C0000004624D28001022FDF7CCFF2868400834
:1058D000400028601021280000F054F95C4B2A0099
:1058E0000121200002F020FE002801D0012000E06C
:1058F000002032BD10B5554C1021200000F030F9C9
:10590000206810F07040B0F1204F01D1002008E075
:10591000206810F07040B0F1704F01D1012000E01C
:10592000022010BD38B50400FFF7E4FF0500280091
:10593000C0B2022802D17FF070400DE0002C04D0EC
:10594000200042491022FDF78DFFEDB2002D01D15C
:10595000002001E03D48006832BD10F07041B1F117
:10596000204F01D1002006E010F07041B1F1704FDE
:1059700001D07FF0704070473EB5364AD2E900450D
:10598000CDE90045ADF8021033490860684602F0E1
:1059900063FD0FF24101BDF9000002F09CFD022001
:1059A000FFF7E6FE274A1168C1F30321002901D160
:1059B000002107E01168C1F303210E2901D1012163
:1059C00000E002210022012313FA01F1FFF7EAFEB1
:1059D00037BD000038B500200220FFF7C9FE0400E3
:1059E0002000FFF7E8FE050016490868C0F3032011
:1059F000002801D1002007E00868C0F303200E282A
:105A000001D1012000E002202900C140C80705D5CE
:105A100011490868002801D0086880472A00120C44
:105A2000ADB229002000FFF7C8FE31BD00210828D3
:105A3000E0EA28104C22082800102240880429108F
:105A40008C04291000002040000022402022082859
:105A500048220828040229104422082801B58B078F
:105A60001AD1830724D1121F21D351F8043BA3F18B
:105A7000013C2CEA030C1CF0803C04BF40F8043BC2
:105A8000F1E79CFA8CFCBCFA8CF1C1F118018B4057
:105A9000CB4040F8043B13E0042A09D311F8013B42
:105AA000521E00F8013B5BB18B07F7D1D9E7121DFD
:105AB0005AB111F8013B521E00F8013B03B1F8D175
:105AC00011001CBF0022FDF793F801BD01BEFEE7E7
:105AD00080B5354A35490B6893423ED00A60344A56
