:020000041028C2
:1000000000000C28A5C3281075DD281019D528106C
:1000100079DD28107DDD281081DD2810000000002A
:1000200000000000000000000000000095D628102D
:1000300085DD28100000000089DD28108DDD2810E6
:100040005BBF281081BF2810A7BF2810CDBF281084
:10005000F3BF281019C028103FC0281065C0281011
:1000600091DD281095DD281099DD28109DDD2810E0
:10007000A1DD2810A5DD2810A9DD2810ADDD281090
:100080004FF49E713C4A01290EDB12F01F0041180B
:10009000BFF34F8F3A480260203220390129F9DA44
:1000A000BFF34F8FBFF36F8F704710B4C822334B2D
:1000B0001C00012A0EDB14F01F018A18BFF34F8FBA
:1000C0002F490C602034203A012AF9DABFF34F8F10
:1000D000BFF36F8F83F8C100C82101290EDB13F035
:1000E0001F004118BFF34F8F25480360203320398C
:1000F0000129F9DABFF34F8FBFF36F8F10BC704740
:1001000010B54FF49E711C4C220001290EDB12F039
:100110001F004118BFF34F8F194802602032203969
:100120000129F9DABFF34F8FBFF36F8F72B601F079
:10013000D1FD144814490160002107E000EB810261
:1001400004EB8103D3F888305360491C2D29F5DB7B
:100150000E49C0F8B8105F21002001F0D3FC002840
:1001600003D05F21002001F0EEFC2F225F21002050
:1001700001F088FD62B610BD0010002800120028B2
:1001800070EF00E09C070828AA55AA5544332211B5
:1001900038B52DED028B86B02F225F21002001F0B3
:1001A0002CFDDFF8344C2068DFF8301C884241F029
:1001B0006884D4F8B800DFF8281C884241F06184D4
:1001C000DFF84C0D02F085F8002007E004EB800119
:1001D0004968DFF8402D42F82010401C2D28F5DB3F
:1001E000DFF8340D02F075F8DFF8284D94ED020ABF
:1001F000B5EE400AF1EE10FA04D594ED020AB1EE24
:10020000400A01E094ED020AD4ED020AF5EE400A3C
:10021000F1EE10FA06D5D4ED020AF1EE600AFDEE19
:10022000E00A03E0D4ED020AFDEEE00A94ED021AC2
:10023000B5EE401AF1EE10FA06D594ED021AB1EEC1
:10024000411ABDEEC11A03E094ED021ABDEEC11AC7
:10025000D4ED021AF5EE401AF1EE10FA01D5BEA067
:1002600000E0BEA0D4ED011AF5EE401AF1EE10FA4E
:1002700004D5D4ED011AF1EE611A01E0D4ED011AB2
:1002800094ED012AB5EE402AF1EE10FA06D594ED70
:10029000012AB1EE422ABDEEC22A03E094ED012A02
:1002A000BDEEC22AD4ED012AF5EE402AF1EE10FA95
:1002B00006D5D4ED012AF1EE622AFDEEE22A03E032
:1002C000D4ED012AFDEEE22A94ED013AB5EE403A72
:1002D000F1EE10FA01D5A0A200E0A0A294ED003A40
:1002E000B5EE403AF1EE10FA04D594ED003AB1EED5
:1002F000433A01E094ED003AD4ED003AF5EE403A8D
:10030000F1EE10FA06D5D4ED003AF1EE633AFDEEC7
:10031000E33A03E0D4ED003AFDEEE33A94ED004A0F
:10032000B5EE404AF1EE10FA06D594ED004AB1EE72
:10033000444ABDEEC44A03E094ED004ABDEEC44A0F
:10034000D4ED004AF5EE404AF1EE10FA01D582A153
:1003500000E082A19FED828AF8EEE00A30EE600AAA
:1003600020EE080ABDEEC00A8DED050A8DED041AD7
:100370000390B8EEC20A31EEC00A20EE080ABDEEC4
:10038000C00A8DED020ACDED012A0092B8EEE30A13
:1003900033EE400A20EE080ABDEEC00A10EE103A15
:1003A00014EE102ADFF86C0C01F093FF94ED040AB0
:1003B000B5EE400AF1EE10FA04D594ED040AB1EE60
:1003C000400A01E094ED040AD4ED040AF5EE400A77
:1003D000F1EE10FA06D5D4ED040AF1EE600AFDEE56
:1003E000E00A03E0D4ED040AFDEEE00A94ED041AFD
:1003F000B5EE401AF1EE10FA06D594ED041AB1EEFE
:10040000411ABDEEC11A03E094ED041ABDEEC11A03
:10041000D4ED041AF5EE401AF1EE10FA01D54EA013
:1004200000E04EA0D4ED031AF5EE401AF1EE10FAFA
:1004300004D5D4ED031AF1EE611A01E0D4ED031AEC
:1004400094ED032AB5EE402AF1EE10FA06D594EDAC
:10045000032AB1EE422ABDEEC22A03E094ED032A3C
:10046000BDEEC22AD4ED032AF5EE402AF1EE10FAD1
:1004700006D5D4ED032AF1EE622AFDEEE22A03E06E
:10048000D4ED032AFDEEE22A94ED033AB5EE403AAC
:10049000F1EE10FA01D530A100E030A1F8EEE00A4B
:1004A00030EE600A20EE080ABDEEC00A8DED020AA9
:1004B0008DED011A0090B8EEC20A31EEC00A20EEAE
:1004C000080ABDEEC00A10EE103A12EE902ADFF8CC
:1004D000480B01F0FEFEDFF8445B280001F0F9FE56
:1004E00094ED070AB5EE400AF1EE10FA04D594ED4A
:1004F000070AB1EE400A01E094ED070AD4ED070ABD
:10050000F5EE400AF1EE10FA06D5D4ED070AF1EE49
:10051000600AFDEEE00A03E0D4ED070AFDEEE00A12
:1005200094ED071AB5EE401AF1EE10FA06D594EDE7
:10053000071AB1EE411ABDEEC11A03E094ED071A95
:10054000BDEEC11AD4ED071AF5EE401AF1EE10FA1D
:1005500008D501A007E000BF2D000000000000004A
:1005600000401C46C6A0D4ED061AF5EE401AF1EE86
:1005700010FA04D5D4ED061AF1EE611A01E0D4EDBB
:10058000061A94ED062AB5EE402AF1EE10FA06D5C9
:1005900094ED062AB1EE422ABDEEC22A03E094EDA4
:1005A000062ABDEEC22AD4ED062AF5EE402AF1EE67
:1005B00010FA06D5D4ED062AF1EE622AFDEEE22A03
:1005C00003E0D4ED062AFDEEE22A94ED063AB5EEFC
:1005D000403AF1EE10FA01D5C2A200E0A8A294EDD3
:1005E000053AB5EE403AF1EE10FA04D594ED053A2D
:1005F000B1EE433A01E094ED053AD4ED053AF5EE5B
:10060000403AF1EE10FA06D5D4ED053AF1EE633A30
:10061000FDEEE33A03E0D4ED053AFDEEE33A94ED66
:10062000054AB5EE404AF1EE10FA06D594ED054ABA
:10063000B1EE444ABDEEC44A03E094ED054ABDEE76
:10064000C44AD4ED054AF5EE404AF1EE10FA01D560
:10065000A4A100E08AA1F8EEE00A30EE600A20EEE4
:10066000080ABDEEC00A8DED050A8DED041A03904F
:10067000B8EEC20A31EEC00A20EE080ABDEEC00A8A
:100680008DED020ACDED012A0092B8EEE30A33EEB9
:10069000400A20EE080ABDEEC00A10EE103A14EE31
:1006A000102ADFF8E40C01F014FE94ED0A0AB5EE0E
:1006B000400AF1EE10FA04D594ED0A0AB1EE400AB0
:1006C00001E094ED0A0AD4ED0A0AF5EE400AF1EED3
:1006D00010FA06D5D4ED0A0AF1EE600AFDEEE00A42
:1006E00003E0D4ED0A0AFDEEE00A94ED0A1AB5EE35
:1006F000401AF1EE10FA06D594ED0A1AB1EE411A3D
:10070000BDEEC11A03E094ED0A1ABDEEC11AD4ED94
:100710000A1AF5EE401AF1EE10FA01D571A000E0C8
:1007200057A0D4ED091AF5EE401AF1EE10FA04D5EF
:10073000D4ED091AF1EE611A01E0D4ED091A94ED35
:10074000092AB5EE402AF1EE10FA06D594ED092AF1
:10075000B1EE422ABDEEC22A03E094ED092ABDEEB5
:10076000C22AD4ED092AF5EE402AF1EE10FA06D598
:10077000D4ED092AF1EE622AFDEEE22A03E0D4ED7F
:10078000092AFDEEE22A94ED093AB5EE403AF1EE7F
:1007900010FA01D553A200E039A294ED083AB5EE63
:1007A000403AF1EE10FA04D594ED083AB1EE433A2E
:1007B00001E094ED083AD4ED083AF5EE403AF1EE56
:1007C00010FA06D5D4ED083AF1EE633AFDEEE33ABD
:1007D00003E0D4ED083AFDEEE33A94ED084AB5EEB5
:1007E000404AF1EE10FA06D594ED084AB1EE444ABB
:1007F000BDEEC44A03E094ED084ABDEEC44AD4ED10
:10080000084AF5EE404AF1EE10FA01D535A100E0B4
:100810001BA1F8EEE00A30EE600A20EE080ABDEEF9
:10082000C00A8DED050A8DED041A0390B8EEC20AD8
:1008300031EEC00A20EE080ABDEEC00A8DED020AB4
:10084000CDED012A0092B8EEE30A33EE400A20EE25
:10085000080ABDEEC00A10EE103A14EE102ADFF8B6
:10086000080D01F036FD94ED0D0AB5EE400AF1EEEB
:1008700010FA07D594ED0D0AB1EE400A04E000BF6E
:100880000000000094ED0D0AD4ED0D0AF5EE400ACB
:10089000F1EE10FA06D5D4ED0D0AF1EE600AFDEE88
:1008A000E00A03E0D4ED0D0AFDEEE00A94ED0D1A26
:1008B000B5EE401AF1EE10FA06D594ED0D1AB1EE30
:1008C000411ABDEEC11A03E094ED0D1ABDEEC11A36
:1008D000D4ED0D1AF5EE401AF1EE10FA04D501A090
:1008E00003E000BF2D000000C9A0D4ED0C1AF5EE06
:1008F000401AF1EE10FA04D5D4ED0C1AF1EE611A9B
:1009000001E0D4ED0C1A94ED0C2AB5EE402AF1EE7C
:1009100010FA06D594ED0C2AB1EE422ABDEEC22A99
:1009200003E094ED0C2ABDEEC22AD4ED0C2AF5EEBC
:10093000402AF1EE10FA06D5D4ED0C2AF1EE622A27
:10094000FDEEE22A03E0D4ED0C2AFDEEE22A94ED5E
:100950000C3AB5EE403AF1EE10FA01D5C5A200E02E
:10096000ABA294ED0B3AB5EE403AF1EE10FA04D595
:1009700094ED0B3AB1EE433A01E094ED0B3AD4ED2D
:100980000B3AF5EE403AF1EE10FA06D5D4ED0B3AFB
:10099000F1EE633AFDEEE33A03E0D4ED0B3AFDEEFF
:1009A000E33A94ED0B4AB5EE404AF1EE10FA06D563
:1009B00094ED0B4AB1EE444ABDEEC44A03E094ED17
:1009C0000B4ABDEEC44AD4ED0B4AF5EE404AF1EEB7
:1009D00010FA01D5A7A100E08DA1F8EEE00A30EEF3
:1009E000600A20EE080ABDEEC00A8DED050A8DED05
:1009F000041A0390B8EEC20A31EEC00A20EE080ACB
:100A0000BDEEC00A8DED020ACDED012A0092B8EECE
:100A1000E30A33EE400A20EE080ABDEEC00A10EEEB
:100A2000103A14EE102ADFF8F40C01F052FC280002
:100A300001F04FFC94ED100AB5EE400AF1EE10FA09
:100A400004D594ED100AB1EE400A01E094ED100ACD
:100A5000D4ED100AF5EE400AF1EE10FA06D5D4ED09
:100A6000100AF1EE600AFDEEE00A03E0D4ED100A90
:100A7000FDEEE00A94ED101AB5EE401AF1EE10FA10
:100A800006D594ED101AB1EE411ABDEEC11A03E07D
:100A900094ED101ABDEEC11AD4ED101AF5EE401AFD
:100AA000F1EE10FA01D573A000E059A0D4ED0F1AB1
:100AB000F5EE401AF1EE10FA04D5D4ED0F1AF1EE6E
:100AC000611A01E0D4ED0F1A94ED0F2AB5EE402A19
:100AD000F1EE10FA06D594ED0F2AB1EE422ABDEEE2
:100AE000C22A03E094ED0F2ABDEEC22AD4ED0F2AEC
:100AF000F5EE402AF1EE10FA06D5D4ED0F2AF1EE0C
:100B0000622AFDEEE22A03E0D4ED0F2AFDEEE22A8E
:100B100094ED0F3AB5EE403AF1EE10FA01D555A238
:100B200000E03BA294ED0E3AB5EE403AF1EE10FA39
:100B300004D594ED0E3AB1EE433A01E094ED0E3A4D
:100B4000D4ED0E3AF5EE403AF1EE10FA06D5D4EDBA
:100B50000E3AF1EE633AFDEEE33A03E0D4ED0E3ADD
:100B6000FDEEE33A94ED0E4AB5EE404AF1EE10FA8E
:100B700006D594ED0E4AB1EE444ABDEEC44A03E0F8
:100B800094ED0E4ABDEEC44AD4ED0E4AF5EE404A4D
:100B9000F1EE10FA01D537A100E01DA1F8EEE00A50
:100BA00030EE600A20EE080ABDEEC00A8DED050A9F
:100BB0008DED041A0390B8EEC20A31EEC00A20EEA1
:100BC000080ABDEEC00A8DED020ACDED012A0092A1
:100BD000B8EEE30A33EE400A20EE080ABDEEC00A82
:100BE00010EE103A14EE102ADFF8400D01F071FB00
:100BF000280001F06EFB94ED130AB5EE400AF1EE09
:100C000010FA07D594ED130AB1EE400A04E000BFD4
:100C10000000000094ED130AD4ED130AF5EE400A2B
:100C2000F1EE10FA06D5D4ED130AF1EE600AFDEEEE
:100C3000E00A03E0D4ED130AFDEEE00A94ED131A86
:100C4000B5EE401AF1EE10FA06D594ED131AB1EE96
:100C5000411ABDEEC11A03E094ED131ABDEEC11A9C
:100C6000D4ED131AF5EE401AF1EE10FA04D501A0F6
:100C700003E000BF2D000000A8A0D4ED121AF5EE8D
:100C8000401AF1EE10FA04D5D4ED121AF1EE611A01
:100C900001E0D4ED121A94ED122AB5EE402AF1EEDD
:100CA00010FA06D594ED122AB1EE422ABDEEC22A00
:100CB00003E094ED122ABDEEC22AD4ED122AF5EE1D
:100CC000402AF1EE10FA06D5D4ED122AF1EE622A8E
:100CD000FDEEE22A03E0D4ED122AFDEEE22A94EDC5
:100CE000123AB5EE403AF1EE10FA01D5C8A200E092
:100CF0008AA294ED113AB5EE403AF1EE10FA04D51D
:100D000094ED113AB1EE433A01E094ED113AD4ED8D
:100D1000113AF5EE403AF1EE10FA06D5D4ED113A5B
:100D2000F1EE633AFDEEE33A03E0D4ED113AFDEE65
:100D3000E33A94ED114AB5EE404AF1EE10FA06D5C9
:100D400094ED114AB1EE444ABDEEC44A03E094ED7D
:100D5000114ABDEEC44AD4ED114AF5EE404AF1EE17
:100D600010FA01D5AAA100E06CA1F8EEE00A30EE7D
:100D7000600A20EE080ABDEEC00A8DED050A8DED71
:100D8000041A0390B8EEC20A31EEC00A20EE080A37
:100D9000BDEEC00A8DED020ACDED012A0092B8EE3B
:100DA000E30A33EE400A20EE080ABDEEC00A10EE58
:100DB000103A14EE102ADFF8140D01F08AFA94EDBF
:100DC000150AB5EE400AF1EE10FA0BD594ED150AAE
:100DD000B1EE400A08E000BF9C070828AA55AA55B2
:100DE0004433221194ED150AD4ED150AF5EE400AAC
:100DF000F1EE10FA06D5D4ED150AF1EE600AFDEE1B
:100E0000E00A03E0D4ED150AFDEEE00A94ED151AB0
:100E1000B5EE401AF1EE10FA06D594ED151AB1EEC2
:100E2000411ABDEEC11A03E094ED151ABDEEC11AC8
:100E3000D4ED151AF5EE401AF1EE10FA01D574A0B2
:100E400000E036A0D4ED141AF5EE401AF1EE10FAD7
:100E500004D5D4ED141AF1EE611A01E0D4ED141AA0
:100E600094ED142AB5EE402AF1EE10FA06D594ED71
:100E7000142AB1EE422ABDEEC22A03E094ED142AF0
:100E8000BDEEC22AD4ED142AF5EE402AF1EE10FA96
:100E900006D5D4ED142AF1EE622AFDEEE22A03E033
:100EA000D4ED142AFDEEE22A94ED143AB5EE403A60
:100EB000F1EE10FA01D556A100E018A1F8EEE00A13
:100EC00030EE600A20EE080ABDEEC00A8DED020A7F
:100ED0008DED011A0090B8EEC20A31EEC00A20EE84
:100EE000080ABDEEC00A10EE103A12EE902ADFF8A2
:100EF000E00B01F0EEF994ED180AB5EE400AF1EEC0
:100F000010FA0DD594ED180AB1EE400A0AE000BFC0
:100F10008CC928100012002868CF2810000000009B
:100F200094ED180AD4ED180AF5EE400AF1EE10FA25
:100F300006D5D4ED180AF1EE600AFDEEE00A03E0F2
:100F4000D4ED180AFDEEE00A94ED181AB5EE401A39
:100F5000F1EE10FA06D594ED181AB1EE411ABDEE75
:100F6000C11A03E094ED181ABDEEC11AD4ED181A97
:100F7000F5EE401AF1EE10FA01D525A000E0CAA066
:100F8000D4ED171AF5EE401AF1EE10FA04D5D4EDAF
:100F9000171AF1EE611A01E0D4ED171A94ED172A31
:100FA000B5EE402AF1EE10FA06D594ED172AB1EE0F
:100FB000422ABDEEC22A03E094ED172ABDEEC22AF2
:100FC000D4ED172AF5EE402AF1EE10FA06D5D4ED4D
:100FD000172AF1EE622AFDEEE22A03E0D4ED172A89
:100FE000FDEEE22A94ED173AB5EE403AF1EE10FA32
:100FF00001D507A200E0ACA294ED163AB5EE403A56
:10100000F1EE10FA0CD594ED163AB1EE433A09E040
:101010002D00000038C8281038D0281068D02810BB
:1010200094ED163AD4ED163AF5EE403AF1EE10FA98
:1010300006D5D4ED163AF1EE633AFDEEE33A03E05D
:10104000D4ED163AFDEEE33A94ED164AB5EE404A79
:10105000F1EE10FA06D594ED164AB1EE444ABDEE13
:10106000C44A03E094ED164ABDEEC44AD4ED164AD4
:10107000F5EE404AF1EE10FA01D5C2A100E08AA1D6
:10108000F8EEE00A30EE600A20EE080ABDEEC00A73
:101090008DED050A8DED041A0390B8EEC20A31EE0B
:1010A000C00A20EE080ABDEEC00A8DED020ACDEDA1
:1010B000012A0092B8EEE30A33EE400A20EE080A55
:1010C000BDEEC00A10EE103A14EE102ADFF8080A3E
:1010D00001F0FFF894ED1B0AB5EE400AF1EE10FAAC
:1010E00004D594ED1B0AB1EE400A01E094ED1B0A11
:1010F000D4ED1B0AF5EE400AF1EE10FA06D5D4ED58
:101100001B0AF1EE600AFDEEE00A03E0D4ED1B0AD3
:10111000FDEEE00A94ED1B1AB5EE401AF1EE10FA5E
:1011200006D594ED1B1AB1EE411ABDEEC11A03E0CB
:1011300094ED1B1ABDEEC11AD4ED1B1AF5EE401A40
:10114000F1EE10FA01D58FA000E057A0D4ED1A1AE5
:10115000F5EE401AF1EE10FA04D5D4ED1A1AF1EEBC
:10116000611A01E0D4ED1A1A94ED1A2AB5EE402A5C
:10117000F1EE10FA06D594ED1A2AB1EE422ABDEE30
:10118000C22A03E094ED1A2ABDEEC22AD4ED1A2A2F
:10119000F5EE402AF1EE10FA06D5D4ED1A2AF1EE5A
:1011A000622AFDEEE22A03E0D4ED1A2AFDEEE22ADD
:1011B00094ED1A3AB5EE403AF1EE10FA01D571A26B
:1011C00000E039A294ED193AB5EE403AF1EE10FA8A
:1011D00004D594ED193AB1EE433A01E094ED193A91
:1011E000D4ED193AF5EE403AF1EE10FA06D5D4ED09
:1011F000193AF1EE633AFDEEE33A03E0D4ED193A21
:10120000FDEEE33A94ED194AB5EE404AF1EE10FADC
:1012100006D594ED194AB1EE444ABDEEC44A03E046
:1012200094ED194ABDEEC44AD4ED194AF5EE404A90
:10123000F1EE10FA01D553A100E01BA1F8EEE00A8F
:1012400030EE600A20EE080ABDEEC00A8DED050AF8
:101250008DED041A0390B8EEC20A31EEC00A20EEFA
:10126000080ABDEEC00A8DED020ACDED012A0092FA
:10127000B8EEE30A33EE400A20EE080ABDEEC00ADB
:1012800010EE103A14EE102ADFF8500801F021F8A1
:1012900094ED1E0AB5EE400AF1EE10FA06D594ED73
:1012A0001E0AB1EE400A03E00000000094ED1E0AA1
:1012B000D4ED1E0AF5EE400AF1EE10FA06D5D4ED93
:1012C0001E0AF1EE600AFDEEE00A03E0D4ED1E0A0C
:1012D000FDEEE00A94ED1E1AB5EE401AF1EE10FA9A
:1012E00006D594ED1E1AB1EE411ABDEEC11A03E007
:1012F00094ED1E1ABDEEC11AD4ED1E1AF5EE401A79
:10130000F1EE10FA01D51FA000E0CBA0D4ED1D1A1C
:10131000F5EE401AF1EE10FA04D5D4ED1D1AF1EEF7
:10132000611A01E0D4ED1D1A94ED1D2AB5EE402A94
:10133000F1EE10FA06D594ED1D2AB1EE422ABDEE6B
:10134000C22A03E094ED1D2ABDEEC22AD4ED1D2A67
:10135000F5EE402AF1EE10FA06D5D4ED1D2AF1EE95
:10136000622AFDEEE22A03E0D4ED1D2AFDEEE22A18
:1013700094ED1D3AB5EE403AF1EE10FA06D501A211
:1013800005E000BF2D000000A8CD2810AAA294ED12
:101390001C3AB5EE403AF1EE10FA04D594ED1C3A41
:1013A000B1EE433A01E094ED1C3AD4ED1C3AF5EE6F
:1013B000403AF1EE10FA06D5D4ED1C3AF1EE633A5C
:1013C000FDEEE33A03E0D4ED1C3AFDEEE33A94ED92
:1013D0001C4AB5EE404AF1EE10FA06D594ED1C4ACF
:1013E000B1EE444ABDEEC44A03E094ED1C4ABDEEA2
:1013F000C44AD4ED1C4AF5EE404AF1EE10FA01D58C
:10140000C4A100E08CA1DFEDC48AF8EEE00A30EE62
:10141000600A20EE280ABDEEC00A8DED050A8DEDAA
:10142000041A0390B8EEC20A31EEC00A20EE280A70
:10143000BDEEC00A8DED020ACDED012A0092B8EE94
:10144000E30A33EE400A20EE280ABDEEC00A10EE91
:10145000103A14EE102ADFF8880600F03AFF94EDF7
:10146000210AB5EE400AF1EE10FA04D594ED210AF6
:10147000B1EE400A01E094ED210AD4ED210AF5EE27
:10148000400AF1EE10FA06D5D4ED210AF1EE600A19
:10149000FDEEE00A03E0D4ED210AFDEEE00A94ED52
:1014A000211AB5EE401AF1EE10FA06D594ED211A84
:1014B000B1EE411ABDEEC11A03E094ED211ABDEE62
:1014C000C11AD4ED211AF5EE401AF1EE10FA01D549
:1014D00090A000E058A0D4ED201AF5EE401AF1EEED
:1014E00010FA04D5D4ED201AF1EE611A01E0D4ED22
:1014F000201A94ED202AB5EE402AF1EE10FA06D516
:1015000094ED202AB1EE422ABDEEC22A03E094ED0A
:10151000202ABDEEC22AD4ED202AF5EE402AF1EEB3
:1015200010FA06D5D4ED202AF1EE622AFDEEE22A69
:1015300003E0D4ED202AFDEEE22A94ED203AB5EE48
:10154000403AF1EE10FA01D572A200E03AA294ED11
:101550001F3AB5EE403AF1EE10FA07D594ED1F3A76
:10156000B1EE433A04E000BFE0CD281094ED1F3AFD
:10157000D4ED1F3AF5EE403AF1EE10FA06D5D4ED6F
:101580001F3AF1EE633AFDEEE33A03E0D4ED1F3A81
:10159000FDEEE33A94ED1F4AB5EE404AF1EE10FA43
:1015A00006D594ED1F4AB1EE444ABDEEC44A03E0AD
:1015B00094ED1F4ABDEEC44AD4ED1F4AF5EE404AF1
:1015C000F1EE10FA01D553A100E01BA1F8EEE00AFC
:1015D00030EE600A20EE280ABDEEC00A8DED050A45
:1015E0008DED041A0390B8EEC20A31EEC00A20EE67
:1015F000280ABDEEC00A8DED020ACDED012A009247
:10160000B8EEE30A33EE400A20EE280ABDEEC00A27
:1016100010EE103A14EE102ADFF8C80400F059FE5C
:1016200094ED240AB5EE400AF1EE10FA06D594EDD9
:10163000240AB1EE400A03E00000000094ED240A01
:10164000D4ED240AF5EE400AF1EE10FA06D5D4EDF9
:10165000240AF1EE600AFDEEE00A03E0D4ED240A6C
:10166000FDEEE00A94ED241AB5EE401AF1EE10FA00
:1016700006D594ED241AB1EE411ABDEEC11A03E06D
:1016800094ED241ABDEEC11AD4ED241AF5EE401AD9
:10169000F1EE10FA01D51FA000E0C3A0D4ED231A8B
:1016A000F5EE401AF1EE10FA04D5D4ED231AF1EE5E
:1016B000611A01E0D4ED231A94ED232AB5EE402AF5
:1016C000F1EE10FA06D594ED232AB1EE422ABDEED2
:1016D000C22A03E094ED232ABDEEC22AD4ED232AC8
:1016E000F5EE402AF1EE10FA06D5D4ED232AF1EEFC
:1016F000622AFDEEE22A03E0D4ED232AFDEEE22A7F
:1017000094ED233AB5EE403AF1EE10FA08D501A275
:1017100007E000BF2D0000000050C34718CE28107E
:10172000A1A294ED223AB5EE403AF1EE10FA04D5BA
:1017300094ED223AB1EE433A01E094ED223AD4ED31
:10174000223AF5EE403AF1EE10FA06D5D4ED223AFF
:10175000F1EE633AFDEEE33A03E0D4ED223AFDEE1A
:10176000E33A94ED224AB5EE404AF1EE10FA06D57E
:1017700094ED224AB1EE444ABDEEC44A03E094ED32
:10178000224ABDEEC44AD4ED224AF5EE404AF1EEBB
:1017900010FA01D5CCA100E083A1F8EEE00A30EE0A
:1017A000600A20EE280ABDEEC00A8DED050A8DED17
:1017B000041A0390B8EEC20A31EEC00A20EE280ADD
:1017C000BDEEC00A8DED020ACDED012A0092B8EE01
:1017D000E30A33EE400A20EE280ABDEEC00A10EEFE
:1017E000103A14EE102AC04800F073FD94ED260A5A
:1017F000B5EE400AF1EE10FA04D594ED260AB1EEEA
:10180000400A01E094ED260AD4ED260AF5EE400ADE
:10181000F1EE10FA06D5D4ED260AF1EE600AFDEEDF
:10182000E00A03E0D4ED260AFDEEE00A94ED261A64
:10183000B5EE401AF1EE10FA06D594ED261AB1EE87
:10184000411ABDEEC11A03E094ED261ABDEEC11A8D
:10185000D4ED261AF5EE401AF1EE10FA01D59AA051
:1018600000E051A0D4ED251AF5EE401AF1EE10FA81
:1018700004D5D4ED251AF1EE611A01E0D4ED251A54
:1018800094ED252AB5EE402AF1EE10FA06D594ED36
:10189000252AB1EE422ABDEEC22A03E094ED252AA4
:1018A000BDEEC22AD4ED252AF5EE402AF1EE10FA5B
:1018B00006D5D4ED252AF1EE622AFDEEE22A03E0F8
:1018C000D4ED252AFDEEE22A94ED253AB5EE403A14
:1018D000F1EE10FA01D57CA100E033A1F8EEE00AA8
:1018E00030EE600A20EE080ABDEEC00A8DED020A55
:1018F0008DED011A0090B8EEC20A31EEC00A20EE5A
:10190000080ABDEEC00A10EE103A12EE902A77488F
:1019100000F0DFFC94ED280AB5EE400AF1EE10FA73
:1019200006D594ED280AB1EE400A03E0CCC9281090
:1019300094ED280AD4ED280AF5EE400AF1EE10FAEB
:1019400006D5D4ED280AF1EE600AFDEEE00A03E0C8
:10195000D4ED280AFDEEE00A94ED281AB5EE401AFF
:10196000F1EE10FA06D594ED281AB1EE411ABDEE4B
:10197000C11A03E094ED281ABDEEC11AD4ED281A5D
:10198000F5EE401AF1EE10FA01D54FA000E006A0E6
:10199000D4ED271AF5EE401AF1EE10FA06D5D4ED83
:1019A000271AF1EE611A03E000000000D4ED271AB7
:1019B00094ED272AB5EE402AF1EE10FA06D594ED03
:1019C000272AB1EE422ABDEEC22A03E094ED272A6F
:1019D000BDEEC22AD4ED272AF5EE402AF1EE10FA28
:1019E00006D5D4ED272AF1EE622AFDEEE22A03E0C5
:1019F000D4ED272AFDEEE22A94ED273AB5EE403ADF
:101A0000F1EE10FA01D530A100E032A1F8EEE00AC3
:101A100030EE600A20EE080ABDEEC00A8DED020A23
:101A20008DED011A0090B8EEC20A31EEC00A20EE28
:101A3000080ABDEEC00A10EE103A12EE902A2C48A9
:101A400000F047FC2B4800F044FC5FF0FF305FF0F3
:101A5000FF31C4E92E01012084F8C000C82101290A
:101A60000EDB14F01F004118BFF34F8F22480460B3
:101A7000203420390129F9DABFF34F8FBFF36F8F7C
:101A80001EE01E4800F025FC1D495FF0FF325FF0AC
:101A9000FF33C1E92E23012081F8C000C822012AAA
:101AA0000EDB11F01F008218BFF34F8F1248016048
:101AB0002031203A012AF9DABFF34F8FBFF36F8F3D
:101AC00006B0BDEC028B31BD2D00000050CE2810B9
:101AD0006CD228100000000088CE2810C0CE28103C
:101AE0008CCB2810C8CB281004CC281098D02810F4
:101AF000C8D028109CCF281070EF00E040CC2810F0
:101B00000012002838B50C00602C01D2012000E042
:101B10000020794D36222900C0B200F0F4FD3722B2
:101B200029007648007800F0EEFD0121E40214F16E
:101B3000A054200000F0FEFE002801D1012000E0AA
:101B40000020C0B232BD38B50C00602C01D201209B
:101B500000E00020684D46222900C0B200F0D3FD0D
:101B6000472229006548007800F0CDFD0121E402FC
:101B700014F1A054200000F09EFE31BD2DE9F0418B
:101B800007000C0015001E00602C01D2012000E0AF
:101B90000020DFF8648174224146C0B200F0B3FD3A
:101BA00040F20120864201D2012000E0002075228F
:101BB0004146C0B200F0A7FD762241464F4800786A
:101BC00000F0A1FD21003800FFF79CFF002803D0A2
:101BD00021003800FFF7B7FFE40214F1A0540027FA
:101BE00007E001222900200000F0EAFE241D2D1D3F
:101BF0007F1CB742F5D3BDE8F08170B50D0014002D
:101C00000020602D01D2012000E000203A4E9222F7
:101C10003100C0B200F077FD40F20120844201D2D1
:101C2000012000E0002093223100C0B200F06BFDE3
:101C3000942231003148007800F065FD5FF0A0503B
:101C4000ED02AD0800EB8501A2000B00012A0EDBBE
:101C500013F01F008218BFF34F8F29480360203311
:101C6000203A012AF9DABFF34F8FBFF36F8F0020BC
:101C700005E051F82020234B43F82020401CA042CF
:101C8000F7D370BD70B50C001500602C01D2012097
:101C900000E00020184EAB223100C0B200F033FD4E
:101CA00040F20120854201D2012000E00020AC2258
:101CB0003100C0B200F027FDAD2231000F4800789E
:101CC00000F021FD0F4A2B0021000020FFF756FFF6
:101CD000002070BD10B54FF40071FF22094C2000A8
:101CE00000F0E6FE10BD80B5002000F0C6FD01202A
:101CF0000249087001BD0000CCCA281078220828CB
:101D00005CEF00E09C07082838B51500002801D0DA
:101D1000002901D1012028E0DFF8F8452278002AC7
:101D200001D1012021E001F004F9002813D0DFF8EF
:101D3000E8050188491C018000880B2809DB002088
:101D400020706420DFF8D4150880DFF8D40501F096
:101D500003FA012009E00020DFF8BC150880EDB28D
:101D6000002D01D001F09EF8002032BD78B587B07B
:101D70006846DFF8B0151A2201F002FA00254FF488
:101D80000073DFF8A4250021DFF8A00501F040FD75
:101D9000DFF8804500202070DFF89415DFF8940507
:101DA00001F073F9002813D02900C9B2491CDFF8EB
:101DB000880501F0D1F9642001F027FE6D1C280090
:101DC000C0B20528E8DBDFF8740501F0C5F944E08E
:101DD000DFF86C15DFF86C0501F0BEF9DFF8681567
:101DE000DFF8680501F0B8F9DFF86415DFF864057D
:101DF00001F0B2F9002554A6DFF85C35DFF85C2568
:101E0000DFF85C15300001F034F8002812D0310002
:101E1000DFF8500501F0A0F9642001F0F6FD6D1C1B
:101E20002800C0B20528E6DB3100DFF83C0501F0F0
:101E300093F912E01921684601F07BF8002809D1D6
:101E4000DFF8280501F088F90020DFF8CC140880BD
:101E500001202070052001F067FE08B070BD38B584
:101E6000DFF80C45DFF80C554FF48071280001F0C5
:101E7000C4F820602068002805D022682900DFF817
:101E8000AC0401F042FADFF8A444200001F02CFA7F
:101E900000900098032812D3022001F0B6FD200024
:101EA00001F022FA0090DFF8D05400236A4629009E
:101EB000200001F0FAFA0099280001F0C1FE31BDBE
:101EC00038B5DFF85044207801283BD0DFF84C5477
:101ED0002888002803D02888401E288032E0DFF8B8
:101EE0009C0401F039F9DFF84814DFF8480401F0E8
:101EF000CCF800281FD1DFF86034DFF86024DFF869
:101F0000601411A000F0B5FF002814D1DFF87004B0
:101F100001F022F90020DFF8001408800120207071
:101F2000FEF7AEF8DFF85C0401F079FEDFF8580444
:101F300001F012F906E0DFF8540401F00DF94FF456
:101F4000FA70288031BD00005544500030B5E3B030
:101F5000DFF83C140878002800F0B98100200870F0
:101F6000DFF8B0030078002800F0B181DFF8240426
:101F70000078012807D0C0F0AA81032800F0A181D1
:101F8000C0F09981A3E1DFF810040078002840F048
:101F9000BD800021DFF804241078002818D0DFF875
:101FA0000004DFF800340C00E4B200EB84049D6808
:101FB0006560491C0C00E4B200EB84045D68656058
:101FC000491C0C00E4B200EB84001B684360491C10
:101FD000507800281DD0DFF8D033DFF8C403B3F900
:101FE000104000EE104AB8EEC00A0C00E4B200EB5C
:101FF000840484ED010A491CB3F9123000EE103A52
:10200000B8EEC00A0B00DBB200EB830080ED010AE2
:10201000491C907800281ED0DFF88403DFF88C3349
:10202000B3F9003000EE103AB8EEC00A0B00DBB294
:1020300000EB830383ED010A491CDD4BB3F900304B
:1020400000EE103AB8EEC00A0B00DBB200EB8300E2
:1020500080ED010A491CD078002824D0D048D14B0B
:102060000C00E4B200EB84045D696560491C0C005F
:10207000E4B200EB84049D696560491C0C00E4B285
:1020800000EB84049D686560491C0C00E4B200EB21
:102090008404DD696560491C0C00E4B200EB840037
:1020A0001B6A4360491C1079002824D0BC48BD4AF3
:1020B0000B00DBB200EB8303546A5C60491C0B002D
:1020C000DBB200EB8303D46A5C60491C0B00DBB21B
:1020D00000EB8303546B5C60491C0B00DBB200EB2C
:1020E0008303D46B5C60491C0B00DBB200EB830004
:1020F000126C4260491CAA484170C9B2002900F024
:10210000D98002F0D3FD00F0CDFED3E04FF49671FC
:10211000002218AC200000F0CBFCA04C2078002856
:102120002BD06078002828D1A078002825D1E0782D
:10213000002822D1207900281FD19A4890ED000A6A
:10214000B7EEC00A8DED020B90ED010AB7EEC00AA2
:102150008DED000B90ED020AB7EEC00A53EC102B88
:10216000944918A802F0D4FD18A802F0F1FD01224C
:10217000010018A8FFF7C8FDA9E0207800281AD0B0
:10218000884890ED000AB7EEC00A8DED020B90ED85
:10219000010AB7EEC00A8DED000B90ED020AB7EE12
:1021A000C00A53EC102B844908A802F0B1FD08A91D
:1021B00018A802F0E8FD607800280CD07A48B0F941
:1021C0001230B0F910207D4908A802F0A1FD08A93D
:1021D00018A802F0D8FDA07800280DD07448B0F9F6
:1021E00000307248B0F90020754908A802F090FD4F
:1021F00008A918A802F0C7FDE078002826D0694891
:1022000090ED080AB7EEC00A8DED060B90ED070AB7
:10221000B7EEC00A8DED040B90ED020AB7EEC00ACE
:102220008DED020B90ED060AB7EEC00A8DED000BA6
:1022300090ED050AB7EEC00A53EC102B614908A8CF
:1022400002F066FD08A918A802F09DFD207900287B
:1022500020D0544890ED0F0AB7EEC00A8DED040B64
:1022600090ED0D0AB7EEC00A8DED020B90ED0B0A52
:10227000B7EEC00A8DED000B90ED090AB7EEC00A6B
:1022800053EC102B504908A802F042FD08A918A8E9
:1022900002F079FD18A802F05BFD00280AD01BA10E
:1022A00018A802F070FD02F053FD0122010018A8E9
:1022B000FFF72AFD0BE0012210214448FFF724FD1F
:1022C00005E0012216214248FFF71EFDFFE763B03B
:1022D00030BD0EB400B5C0B0020041AB4FF4807108
:1022E000684602F05FFD694609A000F035FF094825
:1022F0000078012807D1684602F02AFD010001227A
:102300006846FFF701FD40B05DF810FB0D0A0000C4
:10231000257300006B220828602208286222082802
:102320000CCA28105CD628109C13082808210828FD
:1023300034DB2810BCDC281034D3281070D42810CB
:1023400010220828FCD62810D821082814D72810D5
:10235000A42008282CD72810CCDC2810C4DC281096
:1023600044D928105CD3281084D32810F8D428101E
:1023700044220828B41C08289C150828ACD328102F
:10238000D4D328108810002814D228106CCD28101F
:102390006A2208289407082895070828F8060828BC
:1023A0008020082800100028B02108285C22082876
:1023B0005E220828E0D7281044D72810F4D7281028
:1023C00008D82810FCD3281040D228101CD8281078
:1023D0005CD7281082B000200190002000900020DF
:1023E000019009E00098401C00900098B0F5005F53
:1023F000F8D30198401C01900198B0F5805F02D29B
:1024000000200090F1E702B0704780B50100002085
:1024100002F0DAFE01BD2DE9F043ADF5137D0700B2
:10242000884616001C000020ADF802000020ADF820
:102430000000002002900020ADF804000020ADF85C
:102440000600404602F084FC0290DFF858532888CA
:10245000002801D028698047DFF84C030078002865
:1024600000F033812888002800F01181BDF90600B2
:10247000411CADF806103A00010089B20020EB685B
:1024800098474746404602F063FC02906888A97965
:1024900090FBF1F0ADF804003800471C00780028EC
:1024A000FAD10020ADF800000EE07F1E38782F280A
:1024B00002D038785C2804D1BDF80000401CADF88B
:1024C00000000298401E0290BDF80000022802DAC7
:1024D00002980028E9D50298002806D47A1CDFF873
:1024E000CC1253A802F014FC0EE0BDF80000002846
:1024F00005D13A00AE4953A802F00AFC04E03A00C4
:10250000AA4953A802F004FC0020ADF8020042E002
:10251000BDF80010BDF80020BDF8023053AF9BB2EB
:10252000BDF90400434313FA82F0385C43AA89B230
:102530005054BDF80000401CADF80000BDF800008C
:1025400080B2BDF9041088420EDA53A802F000FCF4
:10255000BDF80020BDF802309BB2BDF904104B431A
:1025600013FA82F18842D3D2002043A9BDF800209B
:102570008854BDF90600411CADF8061043AAE9795C
:1025800011FB00F189B20020EB689847BDF802000A
:10259000401CADF80200BDF8027053A802F0D8FB51
:1025A000BDF90410B0FBF1F0401CBFB2874203D26A
:1025B0000020ADF80000C1E732007E4953A802F0C8
:1025C000A7FBBDF90600411CADF8061053AAE97936
:1025D00011FB00F189B20020EB689847002C74D001
:1025E0000020ADF8020041E0BDF80010BDF8002069
:1025F000BDF802309BB2BDF90400434313FA82F0E8
:10260000205C43AA89B25054BDF80000401CADF8CC
:102610000000BDF8000080B2BDF9041088420EDA57
:10262000200002F095FBBDF80020BDF802309BB2FF
:10263000BDF904104B4313FA82F18842D4D2002032
:1026400043A9BDF800208854BDF90600411CADF82F
:10265000061043AAE97911FB00F189B20020EB686A
:102660009847BDF80200401CADF80200BDF80260BA
:10267000200002F06DFBBDF90410B0FBF1F0401C2E
:10268000B6B2864221D20020ADF80000C1E74FF477
:10269000807100220DF10C09484600F009FA38005B
:1026A000A9688847002C07D000943300424642496D
:1026B00003A802F02DFB05E0330042463F4903A882
:1026C00002F026FB03A8A96888470DF5137DBDE835
:1026D000F08380B50A000100002002F066FD0020B2
:1026E00002BD02B5010000236A46354800F0DDFE58
:1026F000009802BD10B514002200D2B2002002F0F2
:1027000054FD200010BD38B50C001500C0B20028E3
:1027100003D12C480078002800D131BD2A4908781F
:10272000002800D0FEE70878401C087002F0B6FFD1
:1027300000232A0021002548FFF76DFEFFF74AFE1F
:10274000F6E7002101804FF6FF7141808180FF2173
:102750008171C171002181600021C160002101618E
:102760007047104902880A8042884A8082888A809D
:1027700082798A71C279CA7182688A60C268CA60C5
:1027800000690861012008490870704700B585B0EC
:102790006846FFF7D6FF0E4802906846FFF7E1FF54
:1027A00005B000BDC42108286C22082840DB281091
:1027B00054D928104CDB281078D6281074D728104C
:1027C00020210828960708286D22082864D9281097
:1027D0000B242810010009B2002909D4012210F0AD
:1027E0001F018A40DFF8941200B2400941F820200E
:1027F0007047020012B2002A05D44901DFF8802296
:1028000000B2115408E04901DFF8782200B210F05C
:102810000F00104400F8041C7047DFF86C020168D8
:1028200051F0010101600168C907FCD47047974865
:10283000016851F00101016070479548016851F04D
:102840000101016070471FB5684603F02DF80028AC
:102850000DD0904C18229049200003F0C1F80020C0
:10286000E07549208D490860002003F0F1F801204F
:102870008B490870FFF7D1FF1FBD80B5C0B201289A
:102880000ED10321874803F039F803210320FFF715
:10289000B0FF0320FFF79EFF01208349087002E08C
:1028A000002081490870FFF7C2FFFFF7C6FF012033
:1028B0007B49087001BD7CB504000D007B48D0E960
:1028C0000023CDE900232800C0B2002814D17648A7
:1028D000007801280DD06F4E18226F49300003F0A8
:1028E0007FF80020F07594206C490860002003F008
:1028F000AFF800206A49087001208DF8040000201C
:102900008DF8050000942A00D2B26946002003F039
:10291000ACFA00280DD05F4C18225F49200003F06C
:102920005FF80020E0759E205C490860002003F0FD
:102930008FF873BD7CB505000C00280003F09AF9F0
:1029400000280DD0534E18225349300003F048F8A8
:102950000020F075B52051490860002003F078F898
:102960002000C0B2002814D14F48007801280DD0B3
:10297000484E18224849300003F032F80020F07524
:10298000B92046490860002003F062F8002044495D
:1029900008700095280003F0A2F9002801D020203B
:1029A00001E04FF4007001902200D2B2694600208D
:1029B00003F08FFA002801D1012000E0002076BD4D
:1029C000F8B584B004000D001600200003F052F9A1
:1029D00000280DD02F4F18222F49380003F000F89F
:1029E0000020F875DF202D490860002003F030F842
:1029F0006846102103F0FEFA3000C0B2002814D15E
:102A00002948007801280DD0224F18222249380089
:102A100002F0E6FF0020F875E6202049086000205B
:102A200003F016F800201E49087001208DF80800F8
:102A300001208DF8090002208DF80A0001208DF890
:102A40000B0000208DF80C00009401953200D2B2EA
:102A50006946002003F0C5F800280DD00D4C18225F
:102A60000D49200002F0BCFF0020E075F5200B4965
:102A70000860002002F0ECFF05B0F0BD00E100E0CE
:102A800000E400E018ED00E00800244000F42440D9
:102A900000F52440D820082810C728102C22082828
:102AA0006422082847282810652208287CDB281083
:102AB00062F30F2262F31F42401810F0030308D0A4
:102AC000C91A1FD3DB0748BF00F8012D28BF20F823
:102AD000022D130030B414461546103928BF20E9E2
:102AE0003C00FAD8490728BF20E90C0048BF40F84D
:102AF000042D890028BF20F8022D48BF00F8012DC1
:102B000030BC7047C91818BF00F8012DCB0728BF8B
:102B100000F8012D7047F0B402461068956813184C
:102B2000506803EB5004C00748BF4D44A3422DD06A
:102B300013F8016B16F0030004BF13F8010BC01C5F
:102B400031090F2907D113F8011B0F3103E013F8E6
:102B5000017B05F8017B401EF9D10029E6D013F86E
:102B6000010BC6F38106032E08BF13F8016B00EBBF
:102B70000620404228440026B71E8F421EBF10F890
:102B8000017B05F8017B761CF6D1CFE7F0BC02F1A2
:102B90000C00704738B5040000256420444314201D
:102BA00003F05DFA002805D10A2000F003FF6D1C38
:102BB000A542F4D3A54201D3012000E00020C0B219
:102BC00032BD38B514001D000822DFF858351A60F0
:102BD000002805D089B20A000100002003F065FD3D
:102BE000002C05D0ADB22A002100002003F05DFDCD
:102BF0000820DFF83415086031BD38B504000D0039
:102C00000820DFF82015086004232200210000209E
:102C100003F060FE280080B2002806D0ADB22B0081
:102C2000221D211D002003F055FE0820DFF8F814B6
:102C3000086031BDF8B504000D0016000820DFF86B
:102C4000E4140860022028706E8004232A00290002
:102C5000002003F03FFE300080B221280EDB20234D
:102C60002A1D2100002003F035FEB6B2203E3200BE
:102C700014F12001002003F018FD0CE0B6B22F1D66
:102C800032002100380000F07BFA20232A1D291D84
:102C9000002003F01FFE0820DFF88C140860F1BD4F
:102CA000F8B50D0016001F0001248DF80000ADF8E6
:102CB00002603800FFF76EFF00281ED133009BB280
:102CC0002A0004216846FFF77CFF3800FFF762FF07
:102CD000002812D102208DF800000020ADF802007B
:102CE000BDF802106846FFF788FF142000F062FE6E
:102CF0009DF80000802800D100242000C0B2F2BD61
:102D0000F8B504000D00160001273000FFF742FF60
:102D1000002814D12C700023002220212800FFF766
:102D200050FF3000FFF736FF002808D1022028703E
:102D30000020688020212800FFF75FFF002738006F
:102D4000C0B2F2BD30B589B04FF47A726946202026
:102D5000FFF7D6FF04002000C0B200280BD19DF879
:102D60000000A02807D1BDF8022001A9DFF8BC535C
:102D7000280000F005FAE4B2002C07D19DF800000D
:102D8000A02801D0012002E0002000E00120C0B214
:102D900009B030BD30B589B04FF47A726946212050
:102DA000FFF7AEFF04002000C0B200280BD19DF851
:102DB0000000A12807D1BDF8022001A9DFF8705357
:102DC000280000F0DDF9E4B2002C07D19DF80000E6
:102DD000A12801D0012002E0002000E00120C0B2C3
:102DE00009B030BD30B589B04FF47A7269462220FF
:102DF000FFF786FF04002000C0B200280BD19DF829
:102E00000000A22807D1BDF8022001A9DFF8245351
:102E1000280000F0B5F9E4B2002C07D19DF80000BD
:102E2000A22801D0012002E0002000E00120C0B271
:102E300009B030BD10B590B002000B00002B05D0DA
:102E4000BD49684601F064FF020004E0BB496846E2
:102E500001F05EFF020042F2107392B26946102048
:102E6000FFF71EFF0400FFF7BDFF2000C0B210B047
:102E700010BD18B58DB0019300920B000200B0494F
:102E800002A801F045FF02004CF2503392B202A9B1
:102E90001120FFF705FF0400FFF7A4FF2000C0B2D8
:102EA0000EB010BD30B589B00124A64D2878002899
:102EB0003BD1012028704FF47A70FFF76BFE002899
:102EC00031D103208DF800000020ADF80200202150
:102ED0006846FFF792FE9DF80000902803D09DF809
:102EE0000000912809D1BDF80200002805D0BDF8E6
:102EF000022001A9944800F008FA4FF47A70FFF715
:102F000049FE00280FD102208DF800000020ADF806
:102F10000200BDF802106846FFF76FFE9DF8000042
:102F2000802800D10024002028702000C0B209B001
:102F300030BDF0B589B006000C00824D287800281D
:102F400058D1012028701CE03A0092B26946300046
:102F5000FFF770FE9DF80000902803D09DF8000058
:102F6000912809D1BDF80200002805D0BDF8022043
:102F700001A9754800F0C9F9380080B2241ABFB21F
:102F80003E44002C2AD040F6F970844202D340F629
:102F9000F87700E027004FF47A70FFF7FBFD002878
:102FA000D2D01BE002208DF800000020ADF8020016
:102FB00020216846FFF721FE9DF80000902803D0ED
:102FC0009DF80000912809D1BDF80200002805D025
:102FD000BDF8022001A95C4800F097F99DF80000B7
:102FE000902805D14FF47A70FFF7D4FD0028D9D08E
:102FF00000202870200009B0F0BD38B58AB0040068
:103000000D00002C01D0012000E000204FF40E72D2
:103010004E49C0B2FFF777FB00954A4D287800284B
:103020002AD1012028704FF47A70FFF7B3FD0028F1
:1030300020D102208DF804000020ADF806002021E8
:1030400001A8FFF7DAFD9DF80400902803D09DF851
:103050000400912809D1BDF80600002805D0BDF86C
:10306000062002A9384800F050F99DF80400902885
:10307000D9D0FFE70020287000236A46210032489B
:1030800000F013FA00980BB030BD3EB504000D00FF
:1030900000204FF480632E4A00212B4800F0B8FB3B
:1030A0000820029000200190002000900023294A6F
:1030B0000021002003F076FC0323012201211320CC
:1030C00002F0DEFF032301220121B82002F0D8FF25
:1030D000022300220021142002F0D2FF0021B82098
:1030E00002F09BFF0A2000F090FC0121B82002F0C2
:1030F00094FF642000F089FC002012490870FFF75B
:1031000021FE0100C9B2002909D1FFF743FE2900C1
:103110002000FFF78FFE0100C9B20029FFD1C0B225
:103120003EBD000004013140080131401022082852
:10313000D8210828A420082858DB2810D4DC28101F
:1031400030D82810772208286821082804C92810B8
:103150009C0F0828809698000EB4C0B5024603A8BC
:1031600000210190009101AB0121044878440C300A
:1031700003F081FD06BC5DF810FB00BF11A6000046
:1031800062B38B0708D0521E11F8013B00F8013BD7
:1031900000F024808B07F6D1830740F0208000BF29
:1031A000103A07D330B4B1E83810103AA0E838101C
:1031B000F9D230BC530724BFB1E80810A0E80810CA
:1031C00044BF51F8043B40F8043BD20724BF31F818
:1031D000022B20F8022B44BF0B7803707047121F9C
:1031E00017D35B0009D151F8043B20F8023B1B0CBC
:1031F000121F20F8023BF6D20BE051F8043B00F816
:10320000013B1B0A20F8023B1B0C121F00F8013B7C
:10321000F3D238BF121D521E24BF11F8013B00F833
:10322000013BF8D870478268521C8260426832B114
:103230000268531C036011704168491E4160704769
:1032400082688918816003E082684169521A82604D
:10325000816842699142F7D27047C2688918C1609B
:1032600003E0C2684169521AC260C1684269914272
:10327000F7D2704770B50400002C01D0012000E0A7
:1032800000205422DFF8C415C0B2FFF73CFA002535
:10329000207850F0010020700020A0600020E06045
:1032A000606920616078002803D0022810D007D31D
:1032B00015E06169002266683000FFF7F9FB0EE057
:1032C00061694900002266683000FFF7F1FB06E003
:1032D00061698900002266683000FFF7E9FB002081
:1032E00020702800C0B270BD10B50400002C01D0C1
:1032F000012000E000207022DFF85015C0B2FFF777
:1033000002FA60692169401A10BD2DE9F8430500F1
:103310001600002D01D0012000E000200C00AA22A0
:10332000DFF82815C0B2FFF7EEF900270020002CC7
:1033300001D10327B5E0287810F0050F01D004274C
:10334000AFE0287850F0040028702869B042C0F03F
:10335000A380D5F81480A868B8EB0008B04567D200
:103360006878002803D0022841D01FD390E042465D
:1033700021006868AB6800EB03094846FFF700FFCF
:1033800041462800FFF75CFFB6EB080204EB08019A
:103390006868AB6800EB03042000FFF7F1FEB6EBB2
:1033A000080841462800FFF74BFF71E05FEA48023A
:1033B00021006868AB6800EB43094846FFF7E0FE70
:1033C00041462800FFF73CFFB6EB0802520004EB31
:1033D00048016868AB6800EB43042000FFF7D0FEAB
:1033E000B6EB080841462800FFF72AFF50E05FEAE5
:1033F000880221006868AB6800EB83094846FFF744
:10340000BFFE41462800FFF71BFFB6EB0802920003
:1034100004EB88016868AB6800EB83042000FFF7C9
:10342000AFFEB6EB080841462800FFF709FF2FE082
:103430006878002803D002281DD00ED328E032007F
:1034400021006868AB6800EB03042000FFF798FEDA
:1034500031002800FFF7F4FE1AE0720021006868CE
:10346000AB6800EB43042000FFF78AFE3100280020
:10347000FFF7E6FE0CE0B20021006868AB6800EBE5
:1034800083042000FFF77CFE31002800FFF7D8FE00
:103490002869861B2E6100E00527287810F0FB00C4
:1034A00028703800C0B2BDE8F2832DE9F04705006E
:1034B0000E001F00002D01D0012000E000201400AC
:1034C000DFF8888340F25B124146C0B2FFF71BF978
:1034D000002C01D0012000E000204FF4AE724146E4
:1034E000C0B2FFF710F95FF0000800200020002EA6
:1034F00002D15FF003088BE0297811F0030F03D0AD
:1035000020605FF006089CE02800FFF7EDFE2168D0
:10351000884209D220605FF00708002804D128788B
:1035200010F0F70028708CE0287850F00800287020
:10353000D5F81490E868B9EB00092068814522D3DA
:103540006878002803D0022813D008D35CE02268F2
:103550006868E96801443000FFF712FE54E0226811
:1035600052006868E96800EB41013000FFF708FE8F
:103570004AE0226892006868E96800EB8101300047
:10358000FFF7FEFD40E06878002803D0022827D02E
:1035900011D339E04A466868E9680144B2465046AA
:1035A000FFF7EEFD2268B2EB090269684E44300075
:1035B000FFF7E6FD28E05FEA49026868E96800EB8A
:1035C0004101B2465046FFF7DBFD2268B2EB09022B
:1035D0005200696806EB49063000FFF7D1FD13E0A1
:1035E0005FEA89026868E96800EB8101B2465046EB
:1035F000FFF7C6FD2268B2EB09029200696806EB8C
:1036000089063000FFF7BCFD287810F0F70028701D
:10361000FFB2002F15D128780B2802D15FF00208E5
:103620000FE0287850F00200287021682800FFF78A
:1036300014FE2969206841182961287810F0FD00DE
:1036400028704046C0B2BDE8F0872DE9F04705007C
:103650000E001F00002D01D0012000E0002014000A
:10366000DFF8E8814FF4DF724146C0B2FFF74BF854
:10367000002C01D0012000E0002040F2BF124146A2
:10368000C0B2FFF740F85FF0000800200020002ED5
:1036900002D15FF00308ABE0297811F0070F03D0E7
:1036A00020605FF00608AFE02800FFF71DFE2168EC
:1036B000884209D220605FF00708002804D12878EA
:1036C00010F0F70028709FE0287850F0080028706C
:1036D000E868A968884203D3A8682168884228D38B
:1036E0006878002803D0022817D00AD37CE022682B
:1036F0006968AB6820681B1A19443000FFF740FD69
:1037000072E0226852006968AB6820681B1A01EBFE
:1037100043013000FFF734FD66E0226892006968DB
:10372000AB6820681B1A01EB83013000FFF728FD0E
:103730005AE0D4F80090A868B9EB0009687800282E
:1037400003D0022835D018D34EE04A46686869692C
:10375000B1EB09010144B2465046FFF711FD226862
:10376000B2EB09026968AB6820681B1A194406EBC2
:1037700009042000FFF704FD36E05FEA49026868AB
:103780006969B1EB090100EB4101B2465046FFF710
:10379000F7FC2268B2EB090252006968AB68206846
:1037A0001B1A01EB430106EB49042000FFF7E8FC7C
:1037B0001AE05FEA890268686969B1EB090100EB08
:1037C0008101B2465046FFF7DBFC2268B2EB0902EA
:1037D00092006968AB6820681B1A01EB830106EB55
:1037E00089042000FFF7CCFC287810F0F70028703F
:1037F000FFB2002F08D128780B2802D15FF0020811
:1038000002E02800FFF736FD4046C0B2BDE8F08771
:10381000F8B504000E0017001D00002C01D0012097
:1038200000E000204FF407720849C0B2FEF76BFFBA
:10383000002067600021217066700021A1600021D6
:10384000E16025616561C0B2F2BD00004CCA28107C
:10385000022801D301200FE00B00DBB2042B01DBB7
:10386000012009E0AA4B03EB8000C9B2405C824210
:1038700001D3012000E000207047F8B506000F00DA
:1038800015001C00022E01D301201CE02A00390083
:10389000C9B23000FFF7DCFF012801D1012012E09E
:1038A0003800C0B2002811D1B4F5807F0CD29948FD
:1038B0007603304400EB850010F58050016864F316
:1038C0000F2101600020F2BD0120FCE7FFB2012FB3
:1038D00010D1B4F5803F0BD28E487603304400EB14
:1038E000850010F5A050016864F317210160E9E735
:1038F0000120E8E70120E6E700B20012C0B27047FD
:10390000F8B505000E001700280000B2FFF7F4FF1D
:1039100004002000C0B2022801D3012023E03A00B5
:103920003100C9B22000C0B2FFF792FF012801D1D7
:10393000012018E077492000C0B2400308442A0063
:10394000D2B200EB8200D0F8000CF6B266F3092088
:1039500067F30700E4B264032144EDB201EB850193
:10396000C1F8000C0020F2BD70B504000D00160077
:10397000022C01D301201CE032002900C9B2200032
:10398000FFF766FF012801D1012012E061496003C1
:10399000085850F0004050F0407050F47F00EDB2F5
:1039A00065F3092066F30700620388506403085931
:1039B000002070BDF8B50600F600574C574D0021A9
:1039C0002078C001284404F070F912E02078C0018A
:1039D000284404F06CF9B842F8D32078C001284498
:1039E00004F065F9361A00212078C001284404F05B
:1039F0005CF94CF25137BE42E8D22078C00128442D
:103A000004F055F98642F8D2F1BDF8B504004FF440
:103A1000FA504443404D414E00212878C0013044C3
:103A200004F043F914E02878C001304404F03FF971
:103A3000B842F8D33A4F3C192878C001304404F01A
:103A400036F93F1839002878C001304404F02DF9C8
:103A50004CF25137BC42E6D22878C001304404F021
:103A600026F98442F8D2F1BD38B594B05021002235
:103A70006C462000FFF71CF82A4C00220121B4F903
:103A80000000FFF73DFFB4F90000FFF735FF092301
:103A900000220121C0B2FFF7F0FEB4F90000FFF7E9
:103AA0002BFF00220121C0B2FFF75EFF5FF0FF3065
:103AB000009000208DF8040000208DF80500002003
:103AC0008DF8060000208DF8080003208DF84400D2
:103AD0000120129001208DF807000F4C0F4D694610
:103AE0002078C001284404F01BF82078C001284445
:103AF00004F0D6F800212078C001284404F0D5F85D
:103B00002078C001284404F0E2F815B030BD000070
:103B10008CDB2810000004409B0708280000594057
:103B2000B03CFFFF90070828C0B200280AD0012847
:103B30000FD0032814D0042819D005281ED0062839
:103B400023D022E011481249086012481249086047
:103B50001BE012480E49086011480F49086014E044
:103B600010480B49086010480B4908600DE00F48E9
:103B7000074908600E480849086006E00D480449F6
:103B800008600D4804490860FFE77047D3262810F5
:103B9000F0060828E3262810F4060828EDC42810AB
:103BA00051C5281055C42810B9C428103DBD28108F
:103BB00035BE2810332F2810FB2F281010B4020018
:103BC0000020002402E0135D1818641C8C42FAD314
:103BD000C0B210BC70475FF0FF3041F6FF71704714
:103BE000F8B50C00B425EE1C002803D0002C01D041
:103BF000B24201D2002011E0AA212170C4216170DB
:103C00002A00A71C01003800FFF7BAFA2900A01CFF
:103C1000FFF7D4FF04EB050188703000F2BD80B5DA
:103C2000B2B0C8226946FFF7DBFF0100002901D1CD
:103C3000012003E001226846FEF766F833B000BDBC
:103C40002DE9F84F2DED028BE0B08846B8F1000F5A
:103C500002D00400002C01D100F0B1BF002518E013
:103C600038A801F075F806A9CA5DDFF87C1C38ABEE
:103C7000184401F04DF87F1CB742F1DB38A9DFF89A
:103C80006C0CFEF726FBDFF8680CFEF722FBED1C40
:103C90006D1C454580F09387A81C40452AD2605D85
:103CA000AA2827D104EB05004078EE2822D104EBA6
:103CB000050080780100C9B2042919DA0100C9B2EF
:103CC000012912D1DFF82C0C0178012906D001213D
:103CD0000170DFF8240CFEF7FCFA09E0DFF81C0C99
:103CE000017891F00101017002E0DFF8081C087012
:103CF000AD1CCDE7A81C404521D2605DAA281ED18D
:103D000004EB05004078FF2819D104EB050080780A
:103D10000100C9B2002910D00100C9B206290CDA8D
:103D2000DFF8041D0200D2B20A4412F8012C92F00E
:103D30000102C0B2084400F8012CAD1CA8E7681DC0
:103D400040452ED2605DAA282BD104EB05004078B7
:103D5000C12826D10021002204E055FA82F0205C1F
:103D60004118521C1000C0B20528F6DB04EB050018
:103D70004079C9B281428BD104EB05008078010003
:103D8000C9B2012904D1DFF8080DFEF7A2FA06E056
:103D9000C0B2022803D1DFF8FC0CFEF79AFA6D1DC1
:103DA00076E7A81D404566D2605DAA2863D104EB82
:103DB00005004078C2285ED104EB05008078010040
:103DC000C9B2002903D00100C9B22E2901DBAD1D03
:103DD0005EE704EB0501C9788DF8001004EB0501DE
:103DE00009798DF8011004EB050149798DF802106D
:103DF00004EB050189798DF80310461E72B6DFF8D1
:103E0000307D3000C0B2009947F82010D7E92EABC2
:103E100001200021320003F061FF52465B4610434F
:103E20001943C7E92E01012087F8C000C8210129E4
:103E30000FDB17F01F004118BFF34F8FDFF8F40CB2
:103E40000760203720390129F8DABFF34F8FBFF31D
:103E50006F8F62B69DED000AB7EEC00A53EC102BCF
:103E6000DFF8D40CF6B250F82610DFF8D00CFEF7CD
:103E700030FAAD1D0CE7E81C40454BD2605DAA2826
:103E800048D104EB05004078C32843D104EB05007A
:103E9000807888283ED104EB0500C078552839D1B8
:103EA000DFF8240DFEF715FA4FF49E71DFF81C6D54
:103EB000320001290FDB12F01F004118BFF34F8FB2
:103EC000DFF8700C0260203220390129F8DABFF3E4
:103ED0004F8FBFF36F8F40F2E937B6F9100003F050
:103EE0000EFFB84205DAB6F9120003F008FFB84237
:103EF00004DBDFF8140DFEF7ECF909E0DFF8D00C75
:103F0000FEF7E7F9FCF7FCF8DFF8C80CFEF7E1F97B
:103F1000ED1CBDE615F1B70080454ED3605DAA28C3
:103F20004BD104EB05004078C42846D10021002283
:103F300004E05019204480784118521CB42AF8DB60
:103F400004EB050090F8B600C9B281422FD1DFF82A
:103F5000BC0CFEF7BEF972B6B42204EB0500811C5E
:103F6000DFF8CC6B37003800FFF70AF9FFF733FEB4
:103F7000C6E92E01012086F8C000C82101290FDB07
:103F800016F01F004118BFF34F8FDFF8A80B066033
:103F9000203620390129F8DABFF34F8FBFF36F8F36
:103FA00062B62D21DFF8A00CFEF793F903E0DFF8ED
:103FB0009C0CFEF78EF9B7356AE6E81C4045BFF465
:103FC00067AE605DAA287FF463AE04EB050040781D
:103FD000C5287FF45DAE04EB0500807888287FF467
:103FE00057AE04EB0500C07855287FF451AEDFF8DA
:103FF000600CFEF76EF9FCF743F8DFF8D07BC822BF
:1040000006A917F18800FFF7EBFD0600002E04D08B
:104010000122310006A8FDF777FEDFF8380CFEF725
:1040200058F997ED2C0AB5EE400AF1EE10FA04D5D6
:1040300097ED2C0AB1EE400A01E097ED2C0AD7ED7E
:104040002C0AF5EE400AF1EE10FA06D5D7ED2C0A4F
:10405000F1EE600AFDEEE00A03E0D7ED2C0AFDEE7A
:10406000E00A97ED2C1AB5EE401AF1EE10FA06D5DB
:1040700097ED2C1AB1EE411ABDEEC11A03E097ED8F
:104080002C1ABDEEC11AD7ED2C1AF5EE401AF1EE3E
:1040900010FA01D5C1A000E0C1A0D7ED2A1AF5EEB3
:1040A000401AF1EE10FA04D5D7ED2A1AF1EE611A92
:1040B00001E0D7ED2A1A97ED2A2AB5EE402AF1EE53
:1040C00010FA06D597ED2A2AB1EE422ABDEEC22A91
:1040D00003E097ED2A2ABDEEC22AD7ED2A2AF5EE93
:1040E000402AF1EE10FA06D5D7ED2A2AF1EE622A1F
:1040F000FDEEE22A03E0D7ED2A2AFDEEE22A97ED53
:104100002A3AB5EE403AF1EE10FA01D5A3A100E04B
:10411000A3A19FEDA48AF8EEE00A30EE600A20EE3B
:10412000080ABDEEC00A8DED020A8DED011A00905D
:10413000B8EEC20A31EEC00A20EE080ABDEEC00A8F
:1041400010EE103A12EE902ADFF8140BFEF7C1F8C9
:1041500097ED290AB5EE400AF1EE10FA04D597ED75
:10416000290AB1EE400A01E097ED290AD7ED290AA4
:10417000F5EE400AF1EE10FA06D5D7ED290AF1EE78
:10418000600AFDEEE00A03E0D7ED290AFDEEE00A41
:1041900097ED291AB5EE401AF1EE10FA06D597ED13
:1041A000291AB1EE411ABDEEC11A03E097ED291AA2
:1041B000BDEEC11AD7ED291AF5EE401AF1EE10FA4C
:1041C00001D576A000E076A0D7ED281AF5EE401ACA
:1041D000F1EE10FA04D5D7ED281AF1EE611A01E0DC
:1041E000D7ED281A97ED282AB5EE402AF1EE10FAFD
:1041F00006D597ED282AB1EE422ABDEEC22A03E089
:1042000097ED282ABDEEC22AD7ED282AF5EE402ADE
:10421000F1EE10FA06D5D7ED282AF1EE622AFDEE6E
:10422000E22A03E0D7ED282AFDEEE22A97ED283AAC
:10423000B5EE403AF1EE10FA01D558A200E058A2CE
:1042400097ED273AB5EE403AF1EE10FA04D597ED26
:10425000273AB1EE433A01E097ED273AD7ED273AF6
:10426000F5EE403AF1EE10FA06D5D7ED273AF1EE29
:10427000633AFDEEE33A03E0D7ED273AFDEEE33A89
:1042800097ED274AB5EE404AF1EE10FA06D597EDC4
:10429000274AB1EE444ABDEEC44A03E097ED274AEF
:1042A000BDEEC44AD7ED274AF5EE404AF1EE10FACA
:1042B00001D53AA100E03AA1F8EEE00A30EE600A3A
:1042C00020EE080ABDEEC00A8DED050A8DED041A38
:1042D0000390B8EEC20A31EEC00A20EE080ABDEE25
:1042E000C00A8DED020ACDED012A0092B8EEE30A74
:1042F00033EE400A20EE080ABDEEC00A10EE103A76
:1043000014EE102ADFF85C09FDF7E3FF97ED2F0AA2
:10431000B5EE400AF1EE10FA04D597ED2F0AB1EE92
:10432000400A01E097ED2F0AD7ED2F0AF5EE400A7B
:10433000F1EE10FA06D5D7ED2F0AF1EE600AFDEE88
:10434000E00A03E0D7ED2F0AFDEEE00A97ED2F1A01
:10435000B5EE401AF1EE10FA06D597ED2F1AB1EE30
:10436000411ABDEEC11A03E097ED2F1ABDEEC11A36
:10437000D7ED2F1AF5EE401AF1EE10FA01D507A08D
:1043800000E007A0D7ED2E1AF5EE401AF1EE10FA74
:104390000AD5D7ED2E1AF1EE611A07E02D000000C4
:1043A0000000000000401C46D7ED2E1A97ED2E2A83
:1043B000B5EE402AF1EE10FA06D597ED2E2AB1EEB1
:1043C000422ABDEEC22A03E097ED2E2ABDEEC22A94
:1043D000D7ED2E2AF5EE402AF1EE10FA06D5D7EDEC
:1043E0002E2AF1EE622AFDEEE22A03E0D7ED2E2A14
:1043F000FDEEE22A97ED2E3AB5EE403AF1EE10FAD4
:1044000001D5C1A200E0C1A297ED2D3AB5EE403A28
:10441000F1EE10FA04D597ED2D3AB1EE433A01E0F2
:1044200097ED2D3AD7ED2D3AF5EE403AF1EE10FA30
:1044300006D5D7ED2D3AF1EE633AFDEEE33A03E00F
:10444000D7ED2D3AFDEEE33A97ED2D4AB5EE404A11
:10445000F1EE10FA06D597ED2D4AB1EE444ABDEEC5
:10446000C44A03E097ED2D4ABDEEC44AD7ED2D4A6C
:10447000F5EE404AF1EE10FA01D5A3A100E0A3A1A8
:10448000F8EEE00A30EE600A20EE080ABDEEC00A3F
:104490008DED050A8DED041A0390B8EEC20A31EED7
:1044A000C00A20EE080ABDEEC00A8DED020ACDED6D
:1044B000012A0092B8EEE30A33EE400A20EE080A21
:1044C000BDEEC00A10EE103A14EE102ADFF898077D
:1044D000FDF7FFFE97ED3A0AB5EE400AF1EE10FA4D
:1044E00004D597ED3A0AB1EE400A01E097ED3A0A99
:1044F000D7ED3A0AF5EE400AF1EE10FA06D5D7EDFF
:104500003A0AF1EE600AFDEEE00A03E0D7ED3A0A5E
:10451000FDEEE00A97ED3A1AB5EE401AF1EE10FA08
:1045200006D597ED3A1AB1EE411ABDEEC11A03E075
:1045300097ED3A1ABDEEC11AD7ED3A1AF5EE401AC8
:10454000F1EE10FA01D570A000E070A0D7ED391A95
:10455000F5EE401AF1EE10FA04D5D7ED391AF1EE66
:10456000611A01E0D7ED391A97ED392AB5EE402AE4
:10457000F1EE10FA06D597ED392AB1EE422ABDEEDA
:10458000C22A03E097ED392ABDEEC22AD7ED392AB7
:10459000F5EE402AF1EE10FA06D5D7ED392AF1EE04
:1045A000622AFDEEE22A03E0D7ED392AFDEEE22A87
:1045B00097ED393AB5EE403AF1EE10FA01D552A234
:1045C00000E052A297ED383AB5EE403AF1EE10FA1B
:1045D00004D597ED383AB1EE433A01E097ED383A19
:1045E000D7ED383AF5EE403AF1EE10FA06D5D7EDB0
:1045F000383AF1EE633AFDEEE33A03E0D7ED383AAC
:10460000FDEEE33A97ED384AB5EE404AF1EE10FA86
:1046100006D597ED384AB1EE444ABDEEC44A03E0F0
:1046200097ED384ABDEEC44AD7ED384AF5EE404A18
:10463000F1EE10FA01D534A100E034A1F8EEE00A61
:1046400030EE600A20EE080ABDEEC00A8DED050AC4
:104650008DED041A0390B8EEC20A31EEC00A20EEC6
:10466000080ABDEEC00A8DED020ACDED012A0092C6
:10467000B8EEE30A33EE400A20EE080ABDEEC00AA7
:1046800010EE103A14EE102ADFF8E005FDF721FED7
:1046900097ED3D0AB5EE400AF1EE10FA04D597ED1C
:1046A0003D0AB1EE400A01E097ED3D0AD7ED3D0A23
:1046B000F5EE400AF1EE10FA06D5D7ED3D0AF1EE1F
:1046C000600AFDEEE00A03E0D7ED3D0AFDEEE00AE8
:1046D00097ED3D1AB5EE401AF1EE10FA06D597EDBA
:1046E0003D1AB1EE411ABDEEC11A03E097ED3D1A35
:1046F000BDEEC11AD7ED3D1AF5EE401AF1EE10FAF3
:1047000006D501A005E000BF2D000000000000005C
:10471000C6A0D7ED3C1AF5EE401AF1EE10FA04D51A
:10472000D7ED3C1AF1EE611A01E0D7ED3C1A97ED96
:104730003C2AB5EE402AF1EE10FA06D597ED3C2A58
:10474000B1EE422ABDEEC22A03E097ED3C2ABDEE4F
:10475000C22AD7ED3C2AF5EE402AF1EE10FA06D532
:10476000D7ED3C2AF1EE622AFDEEE22A03E0D7ED16
:104770003C2AFDEEE22A97ED3C3AB5EE403AF1EEE6
:1047800010FA01D5C4A200E0A8A297ED3B3AB5EE1D
:10479000403AF1EE10FA04D597ED3B3AB1EE433AC8
:1047A00001E097ED3B3AD7ED3B3AF5EE403AF1EEBA
:1047B00010FA06D5D7ED3B3AF1EE633AFDEEE33A57
:1047C00003E0D7ED3B3AFDEEE33A97ED3B4AB5EE19
:1047D000404AF1EE10FA06D597ED3B4AB1EE444A55
:1047E000BDEEC44A03E097ED3B4ABDEEC44AD7EDA7
:1047F0003B4AF5EE404AF1EE10FA01D5A6A100E0E1
:104800008AA1F8EEE00A30EE600A20EE080ABDEE5A
:10481000C00A8DED050A8DED041A0390B8EEC20AA8
:1048200031EEC00A20EE080ABDEEC00A8DED020A84
:10483000CDED012A0092B8EEE30A33EE400A20EEF5
:10484000080ABDEEC00A10EE103A14EE102ADFF886
:104850002004FDF73EFD97ED480AB5EE400AF1EE63
:1048600010FA04D597ED480AB1EE400A01E097ED41
:10487000480AD7ED480AF5EE400AF1EE10FA06D5DF
:10488000D7ED480AF1EE600AFDEEE00A03E0D7ED4D
:10489000480AFDEEE00A97ED481AB5EE401AF1EE2F
:1048A00010FA06D597ED481AB1EE411ABDEEC11ABD
:1048B00003E097ED481ABDEEC11AD7ED481AF5EEA0
:1048C000401AF1EE10FA01D573A000E057A0D7ED21
:1048D000471AF5EE401AF1EE10FA11D5D7ED471A46
:1048E000F1EE611A0EE000BFACDC2810B4DC281039
:1048F00040D6281094070828D8D4281095070828EF
:10490000D7ED471A97ED472AB5EE402AF1EE10FA97
:1049100006D597ED472AB1EE422ABDEEC22A03E042
:1049200097ED472ABDEEC22AD7ED472AF5EE402A79
:10493000F1EE10FA06D5D7ED472AF1EE622AFDEE28
:10494000E22A03E0D7ED472AFDEEE22A97ED473A47
:10495000B5EE403AF1EE10FA01D54FA100E033A1D7
:10496000F8EEE00A30EE600A20EE080ABDEEC00A5A
:104970008DED020A8DED011A0090B8EEC20A31EEFB
:10498000C00A20EE080ABDEEC00A10EE103A12EE80
:10499000902AB848FDF79DFC97ED4A0AB5EE400A0B
:1049A000F1EE10FA04D597ED4A0AB1EE400A01E0A3
:1049B00097ED4A0AD7ED4A0AF5EE400AF1EE10FAF1
:1049C00006D5D7ED4A0AF1EE600AFDEEE00A03E0F3
:1049D000D7ED4A0AFDEEE00A97ED4A1AB5EE401A05
:1049E000F1EE10FA06D597ED4A1AB1EE411ABDEE76
:1049F000C11A03E097ED4A1ABDEEC11AD7ED4A1A63
:104A0000F5EE401AF1EE10FA01D523A000E007A060
:104A1000D7ED491AF5EE401AF1EE10FA08D5D7EDA8
:104A2000491AF1EE611A05E0F806082800000000B6
:104A3000D7ED491A97ED492AB5EE402AF1EE10FA62
:104A400006D597ED492AB1EE422ABDEEC22A03E00F
:104A500097ED492ABDEEC22AD7ED492AF5EE402A44
:104A6000F1EE10FA06D5D7ED492AF1EE622AFDEEF5
:104A7000E22A03E0D7ED492AFDEEE22A97ED493A12
:104A8000B5EE403AF1EE10FA08D503A107E000BFF9
:104A900008D6281024D628102D0000006EA1F8EEAC
:104AA000E00A30EE600A20EE080ABDEEC00A8DED85
:104AB000020A8DED011A0090B8EEC20A31EEC00A6A
:104AC00020EE080ABDEEC00A10EE103A12EE902A4F
:104AD0006948FDF7FEFB6948FDF7FBFB6848FDF7F9
:104AE000F8FBA021002238AF3800FDF7E1FF0027D6
:104AF0000AE038A800F02CF906A9CA5D614938AB74
:104B0000184400F005F97F1C282F01DAB742F0DBCA
:104B100052A738A93800FDF7DCFBA02100220DF1D7
:104B2000E0094846FDF7C4FF5FF0280915E000BF23
:104B30000012002870EF00E0F0C228104CD42810BA
:104B400038A800F005F906A911F809204D4938AB3D
:104B5000184400F0DDF819F10109B9F1500F01DA3C
:104B6000B145EDDB38A93800FDF7B3FBA0210022E9
:104B70000DF1E0094846FDF79BFF5FF050090CE09E
:104B800038A800F0E5F806A911F809203D4938AB2E
:104B9000184400F0BDF819F10109B9F1780F01DAF4
:104BA000B145EDDB38A93800FDF793FBA0210022C9
:104BB00038AF3800FDF77CFF7827FFF75DB860B0AD
:104BC000BDEC028BBDE8F18FE8D128100010002861
:104BD000F8D02810CCD7281080B54FF480732A4A1B
:104BE00000212A48FEF714FE0F20FEF70EFF0023D7
:104BF00000225FF4E131002000F01AFC01210020C6
:104C000000F097FB01BD0000D0CF281028D128105C
:104C100038B51E4C2000FEF767FB00900098032873
:104C200011D30220FEF7F1FE2000FEF75DFB00909D
:104C3000174D00236A4629002000FEF736FC009934
:104C40002800FEF7FDFF31BD04D0281094D22810B3
:104C5000F8CE281058D1281000000000257300005D
:104C6000BCD228107CCC2810B8CC2810F4CC28104A
:104C700030CD2810E4D228100CD3281088D1281069
:104C8000B8D12810ACDC2810B41A0828F020082865
:104C9000B41B08280300002002E01A7810185B1CDF
:104CA0000A00511E002AF8D1C0B2704738B504007E
:104CB000607810F00F0060706078092801DA012038
:104CC00000E00020C522DFF84410C0B2FDF71BFD54
:104CD000AA2020706578D5F10805AD00D5F124052E
:104CE000E570607850F0100060700020A07029001E
:104CF000C9B22000FFF7CEFFA070EDB2290020005E
:104D0000014A1268904731BDF0060828A8C728104C
:104D10000CB430B583B00A4606A9029104460025BA
:104D20000194009502AB01A9084878441E3001F0B7
:104D3000A2FF019A157000284EBF04460198041B7B
:104D4000204603B030BC5DF80CFB00BF9F0900009B
:104D500000F10103810704D010F8011B820781B123
:104D6000FAD10268A2F10131914311F0803104BF00
:104D700050F8042FF6E709BAB1FA81F100EBD1003F
:104D8000401CC01A7047034600E05B1C1A78002ADA
:104D9000FBD111F801CB83F800C013F8012B002AD6
:104DA000F7D1704708B584B00023039300290EBFE4
:104DB00001930190491E0291009301A904AB074899
:104DC0007844183001F057FF019909B100220A70A8
:104DD000002858BF039805B000BD00BF4BE4FFFF9B
:104DE000022801D3012010E00B00DBB2042B01DB11
:104DF00001200AE0DFF8CC3703EB8000C9B2405C49
:104E0000824201D3012000E000207047F8B5040081
:104E10000F0015001E00022C01D301202AE02A00F9
:104E20003900C9B22000FFF7DBFF012801D10120C2
:104E300020E006983900C9B202291ED1B6F5803F9C
:104E400019D2202817D24FF4C052DFF87C17630321
:104E50000B4403EB850313441F6866F317271F6099
:104E60006403214401EB850111440A6860F3C70221
:104E70000A600020F2BD0120FCE7FFB2032F1FD122
:104E8000B6F1807F1AD2202818D24FF4E052DFF812
:104E9000381763030B4403EB850313441F6807F0C3
:104EA000FF0757EA06271F606403214401EB8501D1
:104EB00011440A6860F3C7020A60DAE70120D9E703
:104EC0000120D7E700B20012C0B27047F8B5050064
:104ED0000E001700280000B2FFF7F4FF04002000C6
:104EE000C0B2022801D3012024E03A003100C9B247
:104EF0002000C0B2FFF774FF012801D1012019E0A2
:104F0000DFF8C4162000C0B2400308442A00D2B221
:104F100000EB8200D0F8000CF6B266F3092067F3CC
:104F20000700E4B264032144EDB201EB8501C1F84E
:104F3000000C0020F2BD70B504000D001600022C1C
:104F400001D301201DE032002900C9B22000FFF783
:104F500047FF012801D1012013E0DFF86C16600340
:104F6000085850F0004050F0407050F47F00EDB20F
:104F700065F3092066F3070062038850640308594B
:104F8000002070BDD0F840037047D0F80803C0057A
:104F9000C00D7047C0F840127047D0F80802C00535
:104FA000C00D7047D0F80802C0F3C030704738B564
:104FB00005002800FFF7F1FF04002800FFF7F2FFCB
:104FC0000419002C01D1012000E00020C0B232BD44
:104FD000C0F8C81F7047D0F8C80F7047C0F8881FC6
:104FE0007047D0F8880F7047016851F000410160A8
:104FF000704738B504001500C9B2002906D002294F
:105000001ED010D3042935D027D340E0DFF8BC05EB
:10501000A06001202073112060734FF48C70E08138
:105020001220208239E0DFF8A805A060012020735B
:105030001120607340F21D10E0816B2020822CE073
:10504000DFF89005A06001202073112060734FF4F9
:105050008E70E0816A2020821FE0DFF87C05A0606E
:10506000022020731120607340F21B10E081692040
:10507000208212E0DFF86405A06001202073132075
:1050800060734FF48D70E0816820208205E07C22FF
:10509000DFF84C150020FDF736FBEDB2002D06D0F1
:1050A000022D1ED010D3042D35D027D340E0DFF8D9
:1050B0001C05206000202071112060714FF48C705D
:1050C000E0811220208239E0DFF804052060002012
:1050D00020711120607140F21D10E0816B20208250
:1050E0002CE0DFF8F00420600020207111206071B6
:1050F0004FF48E70E0816A2020821FE0DFF8D80430
:105100002060012020711120607140F21B10E081AD
:105110006920208212E0DFF8C404206000202071A2
:10512000132060714FF48D70E0816820208205E0CB
:10513000A822DFF8AC140020FDF7E5FA31BD10B568
:10514000C0B2002806D002280AD006D304280DD009
:1051500009D30EE0DFF88C4411E0DFF88C440EE058
:10516000DFF888440BE0DFF8884408E0DFF8844487
:1051700005E0BD22DFF868140020FDF7C4FA200026
:1051800010BD38B50400DFF87054C9B22000C0B2B9
:1051900055F82000FFF7FEFE2000C0B255F82000B1
:1051A000FFF705FF0028F7D031BD70B505000E00F0
:1051B000140006E031782800C0B2FFF7E2FF641E59
:1051C000761C002CF6D170BD38B504000D0005E04A
:1051D00029782000C0B2FFF7D4FF6D1C2878002882
:1051E000F6D131BD70B504000D000020DFF8086471
:1051F0002000C0B256F82000FFF7C7FE002807D0F5
:10520000E4B256F82400FFF7BDFE2870012000E04C
:105210000020C0B270BD70B505000C00DFF8D86387
:105220002800C0B256F82000FFF7DBFE400840001F
:1052300001002800C0B256F82000FFF7CFFE28007A
:10524000C0B256F82000FFF7CCFE30F0020001009B
:105250002800C0B256F82000FFF7C0FE2800C0B2F8
:1052600056F82000FFF7BDFE30F0200001002800B6
:10527000C0B256F82000FFF7B1FE2800C0B256F8C1
:105280002000FFF7AEFE30F0400001002800C0B261
:1052900056F82000FFF7A2FE2800C0B256F8200002
:1052A000FFF79FFE30F0100001002800C0B256F852
:1052B0002000FFF793FE2800C0B256F82000FFF749
:1052C00090FE30F4807001002800C0B256F8200033
:1052D000FFF784FE2800C0B256F82000FFF781FED9
:1052E00030F4806001002800C0B256F82000FFF7BB
:1052F00075FE002C0ED02800C0B256F82000FFF733
:105300006AFE50F400700100EDB256F82500FFF778
:1053100065FE0DE02800C0B256F82000FFF75BFEE6
:1053200030F400700100EDB256F82500FFF756FE8C
:1053300070BD70B505000C00DFF8BC622800C0B27B
:1053400056F82000FFF747FE400840000100280003
:10535000C0B256F82000FFF73BFE2800C0B256F856
:105360002000FFF738FE30F0080001002800C0B22E
:1053700056F82000FFF72CFE2800C0B256F8200097
:10538000FFF729FE30F0200001002800C0B256F8D7
:105390002000FFF71DFE2800C0B256F82000FFF7DE
:1053A0001AFE30F4807001002800C0B256F82000C8
:1053B000FFF70EFE2800C0B256F82000FFF70BFEE4
:1053C00030F4007001002800C0B256F82000FFF74A
:1053D000FFFD2800C0B256F82000FFF7FCFD30F4B6
:1053E000006001002800C0B256F82000FFF7F0FD71
:1053F000002C0ED02800C0B256F82000FFF7EBFDBD
:1054000050F004000100EDB256F82500FFF7E0FD72
:105410000DE02800C0B256F82000FFF7DCFD30F0A8
:1054200004000100EDB256F82500FFF7D1FD70BD74
:105430002DE9F841A7B005000F0016002800310043
:10544000C0B2C9B2884201D1012000E000201C0096
:10545000DFF88C814FF4CE724146C0B2FDF753F9AC
:1054600028002100C0B2C9B2884201D1012000E069
:10547000002040F29D124146C0B2FDF744F902A857
:10548000142100F0B7FD342100220DF168084046D8
:10549000FDF70EFB4C2100220DF11C084046FDF7E4
:1054A00007FBFF003A0000235448002102F02CFCC7
:1054B00007002200D2B23100C9B202A8FFF799FD5D
:1054C00008201B909DF80D008DF870001AAA9DF819
:1054D0000C10029802F0BBFD06201B909DF80D00F9
:1054E0008DF870001AAA9DF81410049802F0AFFD10
:1054F00000200790082008900820099002200B90B7
:1055000000200C9000201290002014903A4C2800AB
:10551000C0B254F8200002F01BFF39492A00D2B271
:10552000382042430A4407A92800C0B254F820009A
:1055300002F0CCFD2800C0B254F82000FFF754FD63
:105540002A00D2B20321BDF91600FFF7BFFCBDF956
:105550001600FFF7B7FC17F01F010091C7F35713B0
:105560002A00D2B20321C0B2FFF750FCBDF91600E9
:10557000FFF7A8FC2A00D2B20321C0B2FFF7DBFC80
:10558000BDF91800ADF800000320ADF802000120BD
:105590008DF8040007221B482900C9B250F82110D9
:1055A000684600F087F800212800C0B2FFF7C1FE6E
:1055B00000212800C0B2FFF72EFE28B0BDE8F08120
:1055C000000000008CDB2810000004400000314087
:1055D0000002314000053140800831400007314071
:1055E0004CCB281000006040000065400000644083
:1055F000000063400000624074070828008096980D
:105600009C19082860070828010009B2002908D45D
:10561000012210F01F018A401B4900B2400941F8E5
:1056200020207047010009B2002908D4012210F09F
:105630001F018A40154900B2400941F820207047F7
:10564000020012B2002A04D44901114A00B21154D6
:1056500007E049010F4A00B210F00F00104400F8B3
:10566000041C7047002800D162B60B480168491C31
:105670000160704772B608490868002802D00868BF
:10568000401E08600868704700E100E080E200E02A
:1056900000E400E018ED00E04C22082880B5FFF798
:1056A000E9FF02F09DFE01BD80B5C9B200B2FFF76F
:1056B000C7FF01BD70B504000D001600200002F008
:1056C0009FFE2900B4F9000002F0D9FE3100C9B2F2
:1056D000B4F90200FFF7E8FFB4F90200FFF7A2FFF8
:1056E000B4F90200FFF790FF70BD0268531C03601D
:1056F0001170704738B50400082C10D3DFF8B05291
:105700001822DFF8B012280000F06AF90020E875CE
:10571000E820DFF8A4120860002000F099F9DFF813
:105720009C026401204432BDDFF894321B6862F3AE
:105730001F4361F30F0383607047C0687047DFF851
:1057400084321B6862F31F4361F30F030360006838
:105750007047C069C00FC0B27047F8B502000D00B5
:10576000002A01D1052053E0DFF85C120868C0F37D
:105770000320002801D1002007E00868C0F30320BF
:105780000E2801D1012000E00220DFF84012400184
:1057900001EB00067FF07044DFF83472380011002E
:1057A0001022FDF7EDFC38684008400038601021F9
:1057B000380000F0A9F9DFF81C323A00012130006E
:1057C00002F086FE002804D0012021E0641E002C97
:1057D00015D03000FFF7BDFF0028F7D1002D08D00D
:1057E0001021380000F07EF9280039001022FDF762
:1057F000C7FC00F041F8012803D1032008E0022093
:1058000006E000F039F8002801D1002000E0042073
:10581000F2BD38B50100002901D105202BE06A4A0C
:105820001068C0F30320002801D1002007E01068B1
:10583000C0F303200E2801D1012000E00220634ABA
:10584000400102EB0004624D28001022FDF798FC95
:1058500028684008400028601021280000F054F912
:105860005C4B2A000121200002F032FE002801D00A
:10587000012000E0002032BD10B5554C1021200061
:1058800000F030F9206810F07040B0F1204F01D1E5
:10589000002008E0206810F07040B0F1704F01D196
:1058A000012000E0022010BD38B50400FFF7E4FF3E
:1058B00005002800C0B2022802D17FF070400DE040
:1058C000002C04D0200042491022FDF759FCEDB213
:1058D000002D01D1002001E03D48006832BD10F0EC
:1058E0007041B1F1204F01D1002006E010F070416D
:1058F000B1F1704F01D07FF0704070473EB5364A2D
:10590000D2E90045CDE90045ADF802103349086001
:10591000684602F075FD0FF24101BDF9000002F08A
:10592000AEFD0220FFF7E6FE274A1168C1F303210E
:10593000002901D1002107E01168C1F303210E29DC
:1059400001D1012100E002210022012313FA01F11B
:10595000FFF7EAFE37BD000038B500200220FFF750
:10596000C9FE04002000FFF7E8FE0500164908689C
:10597000C0F30320002801D1002007E00868C0F32D
:1059800003200E2801D1012000E002202900C1409F
:10599000C80705D511490868002801D00868804764
:1059A0002A00120CADB229002000FFF7C8FE31BD5D
:1059B000D82008285CC728102C2208280010224074
:1059C00048DD28104CDD2810000020400000224057
:1059D000002208282822082884DB281024220828EE
:1059E00001B58B071AD1830724D1121F21D351F897
:1059F000043BA3F1013C2CEA030C1CF0803C04BFE7
:105A000040F8043BF1E79CFA8CFCBCFA8CF1C1F144
:105A100018018B40CB4040F8043B13E0042A09D323
:105A200011F8013B521E00F8013B5BB18B07F7D127
:105A3000D9E7121D5AB111F8013B521E00F8013B83
:105A400003B1F8D111001CBF0022FDF735F801BDEC
:105A500001BEFEE780B5354A35490B6893423ED01A
:105A60000A60344A12684A62334A8A6202684A60AB
:105A700042688A608268CA60C2680A6102694A61D3
:105A800042698A618269CA61C2690A62F1EE102ABA
:105A900012F0900F23D0294A8A62026ACA62426ACF
:105AA0000A63826A4A63C26A8A63026BCA63426B90
:105AB0000A64826B4A64C26B8A64026CCA64426C78
:105AC0000A65826C4A65C26C8A65026DCA65426D60
:105AD0000A66826D4A66C26D8A66006EC86602F00A
