:020000041028C2
:1000000000000C2879C028102DDB281029D32810D7
:1000100031DB281035DB281039DB28100000000008
:10002000000000000000000000000000A5D428101F
:100030003DDB28100000000041DB281045DB2810C4
:10004000AFBD2810D5BD2810FBBD281021BE28103B
:1000500047BE28106DBE281093BE2810B9BE2810C8
:1000600049DB28104DDB281051DB281055DB281008
:1000700059DB28105DDB281061DB281065DB2810B8
:10008000EC21264A01290EDB12F01F004118BFF3B4
:100090004F8F23480260203220390129F9DABFF35B
:1000A0004F8FBFF36F8F704710B5EC211B4C2200B0
:1000B00001290EDB12F01F004118BFF34F8F1848C3
:1000C0000260203220390129F9DABFF34F8FBFF3E4
:1000D0006F8F72B601F0CEFD124813490160002106
:1000E00006E000EB810204EB81039B6C5360491C2A
:1000F0002929F6DB0D49C0F8A8105F21002001F086
:10010000D1FC002803D05F21002001F0ECFC2B2261
:100110005F21002001F086FD62B610BD00100028AE
:1001200070EF00E09C070828AA55AA554433221115
:1001300038B52DED028B86B02B225F21002001F017
:100140002CFDDFF8344C2068DFF8301C884241F089
:100150006884D4F8A800DFF8281C884241F0618444
:10016000DFF84C0D02F03EF8002007E004EB8001C0
:100170004968DFF8402D42F82010401C2928F5DBA3
:10018000DFF8340D02F02EF8DFF8284D94ED020A66
:10019000B5EE400AF1EE10FA04D594ED020AB1EE84
:1001A000400A01E094ED020AD4ED020AF5EE400A9D
:1001B000F1EE10FA06D5D4ED020AF1EE600AFDEE7A
:1001C000E00A03E0D4ED020AFDEEE00A94ED021A23
:1001D000B5EE401AF1EE10FA06D594ED021AB1EE22
:1001E000411ABDEEC11A03E094ED021ABDEEC11A28
:1001F000D4ED021AF5EE401AF1EE10FA01D5BEA0C8
:1002000000E0BEA0D4ED011AF5EE401AF1EE10FAAE
:1002100004D5D4ED011AF1EE611A01E0D4ED011A12
:1002200094ED012AB5EE402AF1EE10FA06D594EDD0
:10023000012AB1EE422ABDEEC22A03E094ED012A62
:10024000BDEEC22AD4ED012AF5EE402AF1EE10FAF5
:1002500006D5D4ED012AF1EE622AFDEEE22A03E092
:10026000D4ED012AFDEEE22A94ED013AB5EE403AD2
:10027000F1EE10FA01D5A0A200E0A0A294ED003AA0
:10028000B5EE403AF1EE10FA04D594ED003AB1EE35
:10029000433A01E094ED003AD4ED003AF5EE403AED
:1002A000F1EE10FA06D5D4ED003AF1EE633AFDEE28
:1002B000E33A03E0D4ED003AFDEEE33A94ED004A70
:1002C000B5EE404AF1EE10FA06D594ED004AB1EED3
:1002D000444ABDEEC44A03E094ED004ABDEEC44A70
:1002E000D4ED004AF5EE404AF1EE10FA01D582A1B4
:1002F00000E082A19FED828AF8EEE00A30EE600A0B
:1003000020EE080ABDEEC00A8DED050A8DED041A37
:100310000390B8EEC20A31EEC00A20EE080ABDEE24
:10032000C00A8DED020ACDED012A0092B8EEE30A73
:1003300033EE400A20EE080ABDEEC00A10EE103A75
:1003400014EE102ADFF86C0C01F04CFF94ED040A57
:10035000B5EE400AF1EE10FA04D594ED040AB1EEC0
:10036000400A01E094ED040AD4ED040AF5EE400AD7
:10037000F1EE10FA06D5D4ED040AF1EE600AFDEEB6
:10038000E00A03E0D4ED040AFDEEE00A94ED041A5D
:10039000B5EE401AF1EE10FA06D594ED041AB1EE5E
:1003A000411ABDEEC11A03E094ED041ABDEEC11A64
:1003B000D4ED041AF5EE401AF1EE10FA01D54EA074
:1003C00000E04EA0D4ED031AF5EE401AF1EE10FA5B
:1003D00004D5D4ED031AF1EE611A01E0D4ED031A4D
:1003E00094ED032AB5EE402AF1EE10FA06D594ED0D
:1003F000032AB1EE422ABDEEC22A03E094ED032A9D
:10040000BDEEC22AD4ED032AF5EE402AF1EE10FA31
:1004100006D5D4ED032AF1EE622AFDEEE22A03E0CE
:10042000D4ED032AFDEEE22A94ED033AB5EE403A0C
:10043000F1EE10FA01D530A100E030A1F8EEE00AAB
:1004400030EE600A20EE080ABDEEC00A8DED020A09
:100450008DED011A0090B8EEC20A31EEC00A20EE0E
:10046000080ABDEEC00A10EE103A12EE902ADFF82C
:10047000480B01F0B7FEDFF8445B280001F0B2FE44
:1004800094ED070AB5EE400AF1EE10FA04D594EDAA
:10049000070AB1EE400A01E094ED070AD4ED070A1D
:1004A000F5EE400AF1EE10FA06D5D4ED070AF1EEAA
:1004B000600AFDEEE00A03E0D4ED070AFDEEE00A73
:1004C00094ED071AB5EE401AF1EE10FA06D594ED48
:1004D000071AB1EE411ABDEEC11A03E094ED071AF6
:1004E000BDEEC11AD4ED071AF5EE401AF1EE10FA7E
:1004F00008D501A007E000BF2D00000000000000AB
:1005000000401C46C6A0D4ED061AF5EE401AF1EEE6
:1005100010FA04D5D4ED061AF1EE611A01E0D4ED1B
:10052000061A94ED062AB5EE402AF1EE10FA06D529
:1005300094ED062AB1EE422ABDEEC22A03E094ED04
:10054000062ABDEEC22AD4ED062AF5EE402AF1EEC7
:1005500010FA06D5D4ED062AF1EE622AFDEEE22A63
:1005600003E0D4ED062AFDEEE22A94ED063AB5EE5C
:10057000403AF1EE10FA01D5C2A200E0A8A294ED33
:10058000053AB5EE403AF1EE10FA04D594ED053A8D
:10059000B1EE433A01E094ED053AD4ED053AF5EEBB
:1005A000403AF1EE10FA06D5D4ED053AF1EE633A91
:1005B000FDEEE33A03E0D4ED053AFDEEE33A94EDC7
:1005C000054AB5EE404AF1EE10FA06D594ED054A1B
:1005D000B1EE444ABDEEC44A03E094ED054ABDEED7
:1005E000C44AD4ED054AF5EE404AF1EE10FA01D5C1
:1005F000A4A100E08AA1F8EEE00A30EE600A20EE45
:10060000080ABDEEC00A8DED050A8DED041A0390AF
:10061000B8EEC20A31EEC00A20EE080ABDEEC00AEA
:100620008DED020ACDED012A0092B8EEE30A33EE19
:10063000400A20EE080ABDEEC00A10EE103A14EE91
:10064000102ADFF8E40C01F0CDFD94ED0A0AB5EEB6
:10065000400AF1EE10FA04D594ED0A0AB1EE400A10
:1006600001E094ED0A0AD4ED0A0AF5EE400AF1EE33
:1006700010FA06D5D4ED0A0AF1EE600AFDEEE00AA2
:1006800003E0D4ED0A0AFDEEE00A94ED0A1AB5EE95
:10069000401AF1EE10FA06D594ED0A1AB1EE411A9D
:1006A000BDEEC11A03E094ED0A1ABDEEC11AD4EDF5
:1006B0000A1AF5EE401AF1EE10FA01D571A000E029
:1006C00057A0D4ED091AF5EE401AF1EE10FA04D550
:1006D000D4ED091AF1EE611A01E0D4ED091A94ED96
:1006E000092AB5EE402AF1EE10FA06D594ED092A52
:1006F000B1EE422ABDEEC22A03E094ED092ABDEE16
:10070000C22AD4ED092AF5EE402AF1EE10FA06D5F8
:10071000D4ED092AF1EE622AFDEEE22A03E0D4EDDF
:10072000092AFDEEE22A94ED093AB5EE403AF1EEDF
:1007300010FA01D553A200E039A294ED083AB5EEC3
:10074000403AF1EE10FA04D594ED083AB1EE433A8E
:1007500001E094ED083AD4ED083AF5EE403AF1EEB6
:1007600010FA06D5D4ED083AF1EE633AFDEEE33A1D
:1007700003E0D4ED083AFDEEE33A94ED084AB5EE15
:10078000404AF1EE10FA06D594ED084AB1EE444A1B
:10079000BDEEC44A03E094ED084ABDEEC44AD4ED70
:1007A000084AF5EE404AF1EE10FA01D535A100E015
:1007B0001BA1F8EEE00A30EE600A20EE080ABDEE5A
:1007C000C00A8DED050A8DED041A0390B8EEC20A39
:1007D00031EEC00A20EE080ABDEEC00A8DED020A15
:1007E000CDED012A0092B8EEE30A33EE400A20EE86
:1007F000080ABDEEC00A10EE103A14EE102ADFF817
:10080000080D01F0EFFC94ED0D0AB5EE400AF1EE93
:1008100010FA07D594ED0D0AB1EE400A04E000BFCE
:100820000000000094ED0D0AD4ED0D0AF5EE400A2B
:10083000F1EE10FA06D5D4ED0D0AF1EE600AFDEEE8
:10084000E00A03E0D4ED0D0AFDEEE00A94ED0D1A86
:10085000B5EE401AF1EE10FA06D594ED0D1AB1EE90
:10086000411ABDEEC11A03E094ED0D1ABDEEC11A96
:10087000D4ED0D1AF5EE401AF1EE10FA04D501A0F0
:1008800003E000BF2D000000C9A0D4ED0C1AF5EE66
:10089000401AF1EE10FA04D5D4ED0C1AF1EE611AFB
:1008A00001E0D4ED0C1A94ED0C2AB5EE402AF1EEDD
:1008B00010FA06D594ED0C2AB1EE422ABDEEC22AFA
:1008C00003E094ED0C2ABDEEC22AD4ED0C2AF5EE1D
:1008D000402AF1EE10FA06D5D4ED0C2AF1EE622A88
:1008E000FDEEE22A03E0D4ED0C2AFDEEE22A94EDBF
:1008F0000C3AB5EE403AF1EE10FA01D5C5A200E08F
:10090000ABA294ED0B3AB5EE403AF1EE10FA04D5F5
:1009100094ED0B3AB1EE433A01E094ED0B3AD4ED8D
:100920000B3AF5EE403AF1EE10FA06D5D4ED0B3A5B
:10093000F1EE633AFDEEE33A03E0D4ED0B3AFDEE5F
:10094000E33A94ED0B4AB5EE404AF1EE10FA06D5C3
:1009500094ED0B4AB1EE444ABDEEC44A03E094ED77
:100960000B4ABDEEC44AD4ED0B4AF5EE404AF1EE17
:1009700010FA01D5A7A100E08DA1F8EEE00A30EE53
:10098000600A20EE080ABDEEC00A8DED050A8DED65
:10099000041A0390B8EEC20A31EEC00A20EE080A2B
:1009A000BDEEC00A8DED020ACDED012A0092B8EE2F
:1009B000E30A33EE400A20EE080ABDEEC00A10EE4C
:1009C000103A14EE102ADFF8F40C01F00BFC2800AA
:1009D00001F008FC94ED100AB5EE400AF1EE10FAB1
:1009E00004D594ED100AB1EE400A01E094ED100A2E
:1009F000D4ED100AF5EE400AF1EE10FA06D5D4ED6A
:100A0000100AF1EE600AFDEEE00A03E0D4ED100AF0
:100A1000FDEEE00A94ED101AB5EE401AF1EE10FA70
:100A200006D594ED101AB1EE411ABDEEC11A03E0DD
:100A300094ED101ABDEEC11AD4ED101AF5EE401A5D
:100A4000F1EE10FA01D573A000E059A0D4ED0F1A11
:100A5000F5EE401AF1EE10FA04D5D4ED0F1AF1EECE
:100A6000611A01E0D4ED0F1A94ED0F2AB5EE402A79
:100A7000F1EE10FA06D594ED0F2AB1EE422ABDEE42
:100A8000C22A03E094ED0F2ABDEEC22AD4ED0F2A4C
:100A9000F5EE402AF1EE10FA06D5D4ED0F2AF1EE6C
:100AA000622AFDEEE22A03E0D4ED0F2AFDEEE22AEF
:100AB00094ED0F3AB5EE403AF1EE10FA01D555A299
:100AC00000E03BA294ED0E3AB5EE403AF1EE10FA9A
:100AD00004D594ED0E3AB1EE433A01E094ED0E3AAE
:100AE000D4ED0E3AF5EE403AF1EE10FA06D5D4ED1B
:100AF0000E3AF1EE633AFDEEE33A03E0D4ED0E3A3E
:100B0000FDEEE33A94ED0E4AB5EE404AF1EE10FAEE
:100B100006D594ED0E4AB1EE444ABDEEC44A03E058
:100B200094ED0E4ABDEEC44AD4ED0E4AF5EE404AAD
:100B3000F1EE10FA01D537A100E01DA1F8EEE00AB0
:100B400030EE600A20EE080ABDEEC00A8DED050AFF
:100B50008DED041A0390B8EEC20A31EEC00A20EE01
:100B6000080ABDEEC00A8DED020ACDED012A009201
:100B7000B8EEE30A33EE400A20EE080ABDEEC00AE2
:100B800010EE103A14EE102ADFF8400D01F02AFBA7
:100B9000280001F027FB94ED130AB5EE400AF1EEB0
:100BA00010FA07D594ED130AB1EE400A04E000BF35
:100BB0000000000094ED130AD4ED130AF5EE400A8C
:100BC000F1EE10FA06D5D4ED130AF1EE600AFDEE4F
:100BD000E00A03E0D4ED130AFDEEE00A94ED131AE7
:100BE000B5EE401AF1EE10FA06D594ED131AB1EEF7
:100BF000411ABDEEC11A03E094ED131ABDEEC11AFD
:100C0000D4ED131AF5EE401AF1EE10FA04D501A056
:100C100003E000BF2D000000A8A0D4ED121AF5EEED
:100C2000401AF1EE10FA04D5D4ED121AF1EE611A61
:100C300001E0D4ED121A94ED122AB5EE402AF1EE3D
:100C400010FA06D594ED122AB1EE422ABDEEC22A60
:100C500003E094ED122ABDEEC22AD4ED122AF5EE7D
:100C6000402AF1EE10FA06D5D4ED122AF1EE622AEE
:100C7000FDEEE22A03E0D4ED122AFDEEE22A94ED25
:100C8000123AB5EE403AF1EE10FA01D5C8A200E0F2
:100C90008AA294ED113AB5EE403AF1EE10FA04D57D
:100CA00094ED113AB1EE433A01E094ED113AD4EDEE
:100CB000113AF5EE403AF1EE10FA06D5D4ED113ABC
:100CC000F1EE633AFDEEE33A03E0D4ED113AFDEEC6
:100CD000E33A94ED114AB5EE404AF1EE10FA06D52A
:100CE00094ED114AB1EE444ABDEEC44A03E094EDDE
:100CF000114ABDEEC44AD4ED114AF5EE404AF1EE78
:100D000010FA01D5AAA100E06CA1F8EEE00A30EEDD
:100D1000600A20EE080ABDEEC00A8DED050A8DEDD1
:100D2000041A0390B8EEC20A31EEC00A20EE080A97
:100D3000BDEEC00A8DED020ACDED012A0092B8EE9B
:100D4000E30A33EE400A20EE080ABDEEC00A10EEB8
:100D5000103A14EE102ADFF8140D01F043FA94ED66
:100D6000150AB5EE400AF1EE10FA0BD594ED150A0E
:100D7000B1EE400A08E000BF9C070828AA55AA5512
:100D80004433221194ED150AD4ED150AF5EE400A0C
:100D9000F1EE10FA06D5D4ED150AF1EE600AFDEE7B
:100DA000E00A03E0D4ED150AFDEEE00A94ED151A11
:100DB000B5EE401AF1EE10FA06D594ED151AB1EE23
:100DC000411ABDEEC11A03E094ED151ABDEEC11A29
:100DD000D4ED151AF5EE401AF1EE10FA01D574A013
:100DE00000E036A0D4ED141AF5EE401AF1EE10FA38
:100DF00004D5D4ED141AF1EE611A01E0D4ED141A01
:100E000094ED142AB5EE402AF1EE10FA06D594EDD1
:100E1000142AB1EE422ABDEEC22A03E094ED142A50
:100E2000BDEEC22AD4ED142AF5EE402AF1EE10FAF6
:100E300006D5D4ED142AF1EE622AFDEEE22A03E093
:100E4000D4ED142AFDEEE22A94ED143AB5EE403AC0
:100E5000F1EE10FA01D556A100E018A1F8EEE00A73
:100E600030EE600A20EE080ABDEEC00A8DED020ADF
:100E70008DED011A0090B8EEC20A31EEC00A20EEE4
:100E8000080ABDEEC00A10EE103A12EE902ADFF802
:100E9000E00B01F0A7F994ED180AB5EE400AF1EE67
:100EA00010FA0DD594ED180AB1EE400A0AE000BF21
:100EB0008CC728100012002868CD28100000000000
:100EC00094ED180AD4ED180AF5EE400AF1EE10FA86
:100ED00006D5D4ED180AF1EE600AFDEEE00A03E053
:100EE000D4ED180AFDEEE00A94ED181AB5EE401A9A
:100EF000F1EE10FA06D594ED181AB1EE411ABDEED6
:100F0000C11A03E094ED181ABDEEC11AD4ED181AF7
:100F1000F5EE401AF1EE10FA01D525A000E0CAA0C6
:100F2000D4ED171AF5EE401AF1EE10FA04D5D4ED0F
:100F3000171AF1EE611A01E0D4ED171A94ED172A91
:100F4000B5EE402AF1EE10FA06D594ED172AB1EE6F
:100F5000422ABDEEC22A03E094ED172ABDEEC22A52
:100F6000D4ED172AF5EE402AF1EE10FA06D5D4EDAD
:100F7000172AF1EE622AFDEEE22A03E0D4ED172AE9
:100F8000FDEEE22A94ED173AB5EE403AF1EE10FA92
:100F900001D507A200E0ACA294ED163AB5EE403AB6
:100FA000F1EE10FA0CD594ED163AB1EE433A09E0A1
:100FB0002D00000038C628106CCE28109CCE2810BA
:100FC00094ED163AD4ED163AF5EE403AF1EE10FAF9
:100FD00006D5D4ED163AF1EE633AFDEEE33A03E0BE
:100FE000D4ED163AFDEEE33A94ED164AB5EE404ADA
:100FF000F1EE10FA06D594ED164AB1EE444ABDEE74
:10100000C44A03E094ED164ABDEEC44AD4ED164A34
:10101000F5EE404AF1EE10FA01D5C2A100E08AA136
:10102000F8EEE00A30EE600A20EE080ABDEEC00AD3
:101030008DED050A8DED041A0390B8EEC20A31EE6B
:10104000C00A20EE080ABDEEC00A8DED020ACDED01
:10105000012A0092B8EEE30A33EE400A20EE080AB5
:10106000BDEEC00A10EE103A14EE102ADFF8080A9E
:1010700001F0B8F894ED1B0AB5EE400AF1EE10FA53
:1010800004D594ED1B0AB1EE400A01E094ED1B0A71
:10109000D4ED1B0AF5EE400AF1EE10FA06D5D4EDB8
:1010A0001B0AF1EE600AFDEEE00A03E0D4ED1B0A34
:1010B000FDEEE00A94ED1B1AB5EE401AF1EE10FABF
:1010C00006D594ED1B1AB1EE411ABDEEC11A03E02C
:1010D00094ED1B1ABDEEC11AD4ED1B1AF5EE401AA1
:1010E000F1EE10FA01D58FA000E057A0D4ED1A1A46
:1010F000F5EE401AF1EE10FA04D5D4ED1A1AF1EE1D
:10110000611A01E0D4ED1A1A94ED1A2AB5EE402ABC
:10111000F1EE10FA06D594ED1A2AB1EE422ABDEE90
:10112000C22A03E094ED1A2ABDEEC22AD4ED1A2A8F
:10113000F5EE402AF1EE10FA06D5D4ED1A2AF1EEBA
:10114000622AFDEEE22A03E0D4ED1A2AFDEEE22A3D
:1011500094ED1A3AB5EE403AF1EE10FA01D571A2CB
:1011600000E039A294ED193AB5EE403AF1EE10FAEA
:1011700004D594ED193AB1EE433A01E094ED193AF1
:10118000D4ED193AF5EE403AF1EE10FA06D5D4ED69
:10119000193AF1EE633AFDEEE33A03E0D4ED193A81
:1011A000FDEEE33A94ED194AB5EE404AF1EE10FA3D
:1011B00006D594ED194AB1EE444ABDEEC44A03E0A7
:1011C00094ED194ABDEEC44AD4ED194AF5EE404AF1
:1011D000F1EE10FA01D553A100E01BA1F8EEE00AF0
:1011E00030EE600A20EE080ABDEEC00A8DED050A59
:1011F0008DED041A0390B8EEC20A31EEC00A20EE5B
:10120000080ABDEEC00A8DED020ACDED012A00925A
:10121000B8EEE30A33EE400A20EE080ABDEEC00A3B
:1012200010EE103A14EE102ADFF8500800F0DAFF42
:1012300094ED1E0AB5EE400AF1EE10FA06D594EDD3
:101240001E0AB1EE400A03E00000000094ED1E0A01
:10125000D4ED1E0AF5EE400AF1EE10FA06D5D4EDF3
:101260001E0AF1EE600AFDEEE00A03E0D4ED1E0A6C
:10127000FDEEE00A94ED1E1AB5EE401AF1EE10FAFA
:1012800006D594ED1E1AB1EE411ABDEEC11A03E067
:1012900094ED1E1ABDEEC11AD4ED1E1AF5EE401AD9
:1012A000F1EE10FA01D51FA000E0CBA0D4ED1D1A7D
:1012B000F5EE401AF1EE10FA04D5D4ED1D1AF1EE58
:1012C000611A01E0D4ED1D1A94ED1D2AB5EE402AF5
:1012D000F1EE10FA06D594ED1D2AB1EE422ABDEECC
:1012E000C22A03E094ED1D2ABDEEC22AD4ED1D2AC8
:1012F000F5EE402AF1EE10FA06D5D4ED1D2AF1EEF6
:10130000622AFDEEE22A03E0D4ED1D2AFDEEE22A78
:1013100094ED1D3AB5EE403AF1EE10FA06D501A271
:1013200005E000BF2D000000A8CB2810AAA294ED74
:101330001C3AB5EE403AF1EE10FA04D594ED1C3AA1
:10134000B1EE433A01E094ED1C3AD4ED1C3AF5EECF
:10135000403AF1EE10FA06D5D4ED1C3AF1EE633ABC
:10136000FDEEE33A03E0D4ED1C3AFDEEE33A94EDF2
:101370001C4AB5EE404AF1EE10FA06D594ED1C4A2F
:10138000B1EE444ABDEEC44A03E094ED1C4ABDEE02
:10139000C44AD4ED1C4AF5EE404AF1EE10FA01D5EC
:1013A000C4A100E08CA1DFEDC48AF8EEE00A30EEC3
:1013B000600A20EE280ABDEEC00A8DED050A8DED0B
:1013C000041A0390B8EEC20A31EEC00A20EE280AD1
:1013D000BDEEC00A8DED020ACDED012A0092B8EEF5
:1013E000E30A33EE400A20EE280ABDEEC00A10EEF2
:1013F000103A14EE102ADFF8880600F0F3FE94EDA0
:10140000210AB5EE400AF1EE10FA04D594ED210A56
:10141000B1EE400A01E094ED210AD4ED210AF5EE87
:10142000400AF1EE10FA06D5D4ED210AF1EE600A79
:10143000FDEEE00A03E0D4ED210AFDEEE00A94EDB2
:10144000211AB5EE401AF1EE10FA06D594ED211AE4
:10145000B1EE411ABDEEC11A03E094ED211ABDEEC2
:10146000C11AD4ED211AF5EE401AF1EE10FA01D5A9
:1014700090A000E058A0D4ED201AF5EE401AF1EE4D
:1014800010FA04D5D4ED201AF1EE611A01E0D4ED82
:10149000201A94ED202AB5EE402AF1EE10FA06D576
:1014A00094ED202AB1EE422ABDEEC22A03E094ED6B
:1014B000202ABDEEC22AD4ED202AF5EE402AF1EE14
:1014C00010FA06D5D4ED202AF1EE622AFDEEE22ACA
:1014D00003E0D4ED202AFDEEE22A94ED203AB5EEA9
:1014E000403AF1EE10FA01D572A200E03AA294ED72
:1014F0001F3AB5EE403AF1EE10FA07D594ED1F3AD7
:10150000B1EE433A04E000BFE0CB281094ED1F3A5F
:10151000D4ED1F3AF5EE403AF1EE10FA06D5D4EDCF
:101520001F3AF1EE633AFDEEE33A03E0D4ED1F3AE1
:10153000FDEEE33A94ED1F4AB5EE404AF1EE10FAA3
:1015400006D594ED1F4AB1EE444ABDEEC44A03E00D
:1015500094ED1F4ABDEEC44AD4ED1F4AF5EE404A51
:10156000F1EE10FA01D553A100E01BA1F8EEE00A5C
:1015700030EE600A20EE280ABDEEC00A8DED050AA5
:101580008DED041A0390B8EEC20A31EEC00A20EEC7
:10159000280ABDEEC00A8DED020ACDED012A0092A7
:1015A000B8EEE30A33EE400A20EE280ABDEEC00A88
:1015B00010EE103A14EE102ADFF8C80400F012FE04
:1015C00094ED240AB5EE400AF1EE10FA06D594ED3A
:1015D000240AB1EE400A03E00000000094ED240A62
:1015E000D4ED240AF5EE400AF1EE10FA06D5D4ED5A
:1015F000240AF1EE600AFDEEE00A03E0D4ED240ACD
:10160000FDEEE00A94ED241AB5EE401AF1EE10FA60
:1016100006D594ED241AB1EE411ABDEEC11A03E0CD
:1016200094ED241ABDEEC11AD4ED241AF5EE401A39
:10163000F1EE10FA01D51FA000E0C3A0D4ED231AEB
:10164000F5EE401AF1EE10FA04D5D4ED231AF1EEBE
:10165000611A01E0D4ED231A94ED232AB5EE402A55
:10166000F1EE10FA06D594ED232AB1EE422ABDEE32
:10167000C22A03E094ED232ABDEEC22AD4ED232A28
:10168000F5EE402AF1EE10FA06D5D4ED232AF1EE5C
:10169000622AFDEEE22A03E0D4ED232AFDEEE22ADF
:1016A00094ED233AB5EE403AF1EE10FA08D501A2D6
:1016B00007E000BF2D0000000050C34718CC2810E1
:1016C000A1A294ED223AB5EE403AF1EE10FA04D51B
:1016D00094ED223AB1EE433A01E094ED223AD4ED92
:1016E000223AF5EE403AF1EE10FA06D5D4ED223A60
:1016F000F1EE633AFDEEE33A03E0D4ED223AFDEE7B
:10170000E33A94ED224AB5EE404AF1EE10FA06D5DE
:1017100094ED224AB1EE444ABDEEC44A03E094ED92
:10172000224ABDEEC44AD4ED224AF5EE404AF1EE1B
:1017300010FA01D5CCA100E083A1F8EEE00A30EE6A
:10174000600A20EE280ABDEEC00A8DED050A8DED77
:10175000041A0390B8EEC20A31EEC00A20EE280A3D
:10176000BDEEC00A8DED020ACDED012A0092B8EE61
:10177000E30A33EE400A20EE280ABDEEC00A10EE5E
:10178000103A14EE102AC04800F02CFD94ED260A01
:10179000B5EE400AF1EE10FA04D594ED260AB1EE4A
:1017A000400A01E094ED260AD4ED260AF5EE400A3F
:1017B000F1EE10FA06D5D4ED260AF1EE600AFDEE40
:1017C000E00A03E0D4ED260AFDEEE00A94ED261AC5
:1017D000B5EE401AF1EE10FA06D594ED261AB1EEE8
:1017E000411ABDEEC11A03E094ED261ABDEEC11AEE
:1017F000D4ED261AF5EE401AF1EE10FA01D59AA0B2
:1018000000E051A0D4ED251AF5EE401AF1EE10FAE1
:1018100004D5D4ED251AF1EE611A01E0D4ED251AB4
:1018200094ED252AB5EE402AF1EE10FA06D594ED96
:10183000252AB1EE422ABDEEC22A03E094ED252A04
:10184000BDEEC22AD4ED252AF5EE402AF1EE10FABB
:1018500006D5D4ED252AF1EE622AFDEEE22A03E058
:10186000D4ED252AFDEEE22A94ED253AB5EE403A74
:10187000F1EE10FA01D57CA100E033A1F8EEE00A08
:1018800030EE600A20EE080ABDEEC00A8DED020AB5
:101890008DED011A0090B8EEC20A31EEC00A20EEBA
:1018A000080ABDEEC00A10EE103A12EE902A7748F0
:1018B00000F098FC94ED280AB5EE400AF1EE10FA1B
:1018C00006D594ED280AB1EE400A03E0CCC72810F3
:1018D00094ED280AD4ED280AF5EE400AF1EE10FA4C
:1018E00006D5D4ED280AF1EE600AFDEEE00A03E029
:1018F000D4ED280AFDEEE00A94ED281AB5EE401A60
:10190000F1EE10FA06D594ED281AB1EE411ABDEEAB
:10191000C11A03E094ED281ABDEEC11AD4ED281ABD
:10192000F5EE401AF1EE10FA01D54FA000E006A046
:10193000D4ED271AF5EE401AF1EE10FA06D5D4EDE3
:10194000271AF1EE611A03E000000000D4ED271A17
:1019500094ED272AB5EE402AF1EE10FA06D594ED63
:10196000272AB1EE422ABDEEC22A03E094ED272ACF
:10197000BDEEC22AD4ED272AF5EE402AF1EE10FA88
:1019800006D5D4ED272AF1EE622AFDEEE22A03E025
:10199000D4ED272AFDEEE22A94ED273AB5EE403A3F
:1019A000F1EE10FA01D530A100E032A1F8EEE00A24
:1019B00030EE600A20EE080ABDEEC00A8DED020A84
:1019C0008DED011A0090B8EEC20A31EEC00A20EE89
:1019D000080ABDEEC00A10EE103A12EE902A2C480A
:1019E00000F000FC2B4800F0FDFB5FF0FF305FF0E3
:1019F000FF31C4E92A01012084F8B000B82101298F
:101A00000EDB14F01F004118BFF34F8F2248046013
:101A1000203420390129F9DABFF34F8FBFF36F8FDC
:101A20001EE01E4800F0DEFB1D495FF0FF325FF054
:101A3000FF33C1E92A23012081F8B000B822012A2E
:101A40000EDB11F01F008218BFF34F8F12480160A8
:101A50002031203A012AF9DABFF34F8FBFF36F8F9D
:101A600006B0BDEC028B31BD2D00000050CC28101B
:101A7000A0D028100000000088CC2810C0CC28106E
:101A80008CC92810C8C9281004CA2810CCCE281028
:101A9000FCCE28109CCD281070EF00E040CA281022
:101AA0000012002838B50C00602C01D2012000E0A3
:101AB0000020794D36222900C0B200F0C4FD372243
:101AC00029007648007800F0BEFD0121E40214F1FF
:101AD000A054200000F0CEFE002801D1012000E03B
:101AE0000020C0B232BD38B50C00602C01D20120FC
:101AF00000E00020684D46222900C0B200F0A3FD9E
:101B0000472229006548007800F09DFD0121E4028C
:101B100014F1A054200000F06EFE31BD2DE9F0411B
:101B200007000C0015001E00602C01D2012000E00F
:101B30000020DFF8648174224146C0B200F083FDCA
:101B400040F20120864201D2012000E000207522EF
:101B50004146C0B200F077FD762241464F480078FA
:101B600000F071FD21003800FFF79CFF002803D032
:101B700021003800FFF7B7FFE40214F1A05400275A
:101B800007E001222900200000F0BAFE241D2D1DCF
:101B90007F1CB742F5D3BDE8F08170B50D0014008D
:101BA0000020602D01D2012000E000203A4E922258
:101BB0003100C0B200F047FD40F20120844201D262
:101BC000012000E0002093223100C0B200F03BFD74
:101BD000942231003148007800F035FD5FF0A050CC
:101BE000ED02AD0800EB8501A2000B00012A0EDB1F
:101BF00013F01F008218BFF34F8F29480360203372
:101C0000203A012AF9DABFF34F8FBFF36F8F00201C
:101C100005E051F82020234B43F82020401CA0422F
:101C2000F7D370BD70B50C001500602C01D20120F7
:101C300000E00020184EAB223100C0B200F003FDDE
:101C400040F20120854201D2012000E00020AC22B8
:101C50003100C0B200F0F7FCAD2231000F4800782F
:101C600000F0F1FC0F4A2B0021000020FFF756FF87
:101C7000002070BD10B54FF40071FF22094C200008
:101C800000F0B6FE10BD80B5002000F096FD0120EA
:101C90000249087001BD0000CCC82810B9220828EC
:101CA0005CEF00E09C07082878B587B06846DFF84D
:101CB000A4151A2200F00EFF00254FF40073DFF880
:101CC00098250021DFF8940501F04CFADFF89045E3
:101CD00000202070DFF88C15DFF88C0501F0DDFCAA
:101CE000002813D02900C9B2491CDFF8800501F093
:101CF0003BFD642001F029FE6D1C2800C0B20528C0
:101D0000E8DBDFF86C0501F02FFD44E0DFF8641537
:101D1000DFF8640501F028FDDFF86015DFF86005E5
:101D200001F022FDDFF85C15DFF85C0501F01CFD19
:101D3000002563A6DFF85435DFF85425DFF8541585
:101D4000300001F09EFB002812D03100DFF848057A
:101D500001F00AFD642001F0F8FD6D1C2800C0B2FE
:101D60000528E6DB3100DFF8340501F0FDFC12E068
:101D70001921684601F0E5FB002809D1DFF82005AC
:101D800001F0F2FC0020DFF81C1508800120207013
:101D9000052001F069FE08B070BD38B5DFF80845D0
:101DA000DFF808554FF48071280001F02EFC206008
:101DB0002068002805D022682900DFF8A00400F080
:101DC0004EFFDFF89844200000F038FF00900098A4
:101DD000032812D3022001F0B8FD200000F02EFFEE
:101DE0000090DFF8CC5400236A462900200001F05F
:101DF00006F80099280001F081FE31BD38B5B2B077
:101E0000DFF85C442078012857D0DFF8A8542888F0
:101E1000002803D02888401E28804EE0DFF8980470
:101E200001F0A2FCDFF83C14DFF83C0401F035FCC3
:101E300000283BD1DFF85434DFF85424DFF8541481
:101E40001FA001F01EFB002830D1DFF8700401F064
:101E50008BFC0020DFF84C14088001202070FEF776
:101E60000FF9AA208DF80000C4208DF80100A422EB
:101E7000DFF84C140DF10204200000F02BFE0021CD
:101E8000002204E06846104480784118521CA42ABD
:101E9000F8DB8DF8A610A721684601F052FB01F08F
:101EA00009FBDFF8200401F05FFC06E0DFF818040E
:101EB00001F05AFC4FF4FA70288033B030BD0000B6
:101EC0005544500038B5CAB0DFF80014087800282F
:101ED00000F0868100200870DFF884030078002875
:101EE00000F07E81DFF8E8030078012807D0C0F019
:101EF0007781032800F06F81C0F0688170E1DFF81E
:101F0000D4030078002840F0BB800021DFF8C8230C
:101F10001078002818D0DFF8C403DFF8C4330C00B1
:101F2000E4B200EB84049D6A6560491C0C00E4B2D5
:101F300000EB8404DD6A6560491C0C00E4B200EB30
:101F400084001B6B4360491C507800281DD0DFF8CB
:101F50009433DFF88803B3F9104000EE104AB8EE6E
:101F6000C00A0C00E4B200EB840484ED010A491CB1
:101F7000B3F9123000EE103AB8EEC00A0B00DBB233
:101F800000EB830080ED010A491C907800281CD0EA
:101F9000D248D54BB3F9003000EE103AB8EEC00A83
:101FA0000B00DBB200EB830383ED010A491CCF4B2E
:101FB000B3F9003000EE103AB8EEC00A0B00DBB205
:101FC00000EB830080ED010A491CD078002824D062
:101FD000C748C24B0C00E4B203EB8404456965605A
:101FE000491C0C00E4B203EB840485696560491C5C
:101FF0000C00E4B203EB840485686560491C0C00A6
:10200000E4B203EB8404C5696560491C0C00E4B2CA
:1020100003EB8403006A5860491C1079002824D01F
:10202000B348AE4A0B00DBB202EB8303446A5C6048
:10203000491C0B00DBB202EB8303C46A5C60491CE1
:102040000B00DBB202EB8303446B5C60491C0B00AA
:10205000DBB202EB8303C46B5C60491C0B00DBB298
:1020600002EB8302006C5060491C9C484170C9B26D
:10207000002900F0AA8002F091FD01F01BFAA4E013
:10208000C821002218AC200000F0B2FC924C20784D
:1020900000281AD0924890ED0C0AB7EEC00A8DEDD8
:1020A000020B90ED0B0AB7EEC00A8DED000B90ED20
:1020B0000A0AB7EEC00A53EC102B8E4908A802F0AA
:1020C0009FFD08A918A802F0BBFD607800280CD07D
:1020D0008448B0F91230B0F91020874908A802F0FE
:1020E0008FFD08A918A802F0ABFDA07800280DD03C
:1020F0007E48B0F900307C48B0F900207F4908A83C
:1021000002F07EFD08A918A802F09AFDE0780028E8
:1021100026D0774890ED080AB7EEC00A8DED060B81
:1021200090ED070AB7EEC00A8DED040B90ED020AA0
:10213000B7EEC00A8DED020B90ED060AB7EEC00AAD
:102140008DED000B90ED050AB7EEC00A53EC102B95
:102150006B4908A802F054FD08A918A802F070FD08
:102160002079002820D0624890ED0F0AB7EEC00A0F
:102170008DED040B90ED0D0AB7EEC00A8DED020B4C
:1021800090ED0B0AB7EEC00A8DED000B90ED090A39
:10219000B7EEC00A53EC102B5A4908A802F030FDE4
:1021A00008A918A802F04CFD18A802F05DFD00284F
:1021B0000BD026A118A802F043FD02F055FD010046
:1021C00018A801F0BEF901F075F909E010214E4898
:1021D00001F0B7F904E016214C4801F0B2F9FFE72D
:1021E0004BB030BD0EB418B5C0B0020043AB4FF4D5
:1021F0008071684602F054FD694615A001F0B4FAFA
:10220000174C207801281DD1684602F02DFD0100F1
:10221000684601F096F900280FD022480188491C31
:10222000018000880B280BDB0020207064202149EE
:102230000880374801F098FA02E000201949088028
:1022400001F038F941B010BC5DF810FB0D0A000038
:10225000257300006CD428109C13082848210828F6
:10226000AC220828ECD8281074DA281068D128107D
:1022700080D22810502208280CD5281018220828AF
:1022800024D52810E42008283CD5281084DA28100A
:102290007CDA281020D7281090D12810B8D1281027
:1022A00008D32810A022082884220828B41C082853
:1022B0009C150828A2220828E0D1281008D228104E
:1022C0004810002848D028106CCB2810AB220828D2
:1022D000AA22082894070828F8060828C0200828F9
:1022E00080200828F02108289C2208289E220828FF
:1022F0000010002854D52810F0D5281004D6281036
:1023000030D2281074D0281018D628106CD5281078
:102310000CC8281082B000200190002000900020FE
:10232000019009E00098401C00900098B0F5005F13
:10233000F8D30198401C01900198B0F5805F02D25B
:1023400000200090F1E702B0704780B50100002046
:1023500002F0B8FE01BD2DE9F043ADF5137D070095
:10236000884616001C000020ADF802000020ADF8E1
:102370000000002002900020ADF804000020ADF81D
:102380000600404602F070FC0290DFF8585328889F
:10239000002801D028698047DFF84C030078002826
:1023A00000F033812888002800F01181BDF9060073
:1023B000411CADF806103A00010089B20020EB681C
:1023C00098474746404602F04FFC02906888A9793A
:1023D00090FBF1F0ADF804003800471C00780028AD
:1023E000FAD10020ADF800000EE07F1E38782F28CB
:1023F00002D038785C2804D1BDF80000401CADF84C
:1024000000000298401E0290BDF80000022802DA87
:1024100002980028E9D50298002806D47A1CDFF833
:10242000CC1253A802F0ECFB0EE0BDF8000000282F
:1024300005D13A00AE4953A802F0E2FB04E03A00AD
:10244000AA4953A802F0DCFB0020ADF8020042E0EC
:10245000BDF80010BDF80020BDF8023053AF9BB2AC
:10246000BDF90400434313FA82F0385C43AA89B2F1
:102470005054BDF80000401CADF80000BDF800004D
:1024800080B2BDF9041088420EDA53A802F0ECFBCA
:10249000BDF80020BDF802309BB2BDF904104B43DB
:1024A00013FA82F18842D3D2002043A9BDF800205C
:1024B0008854BDF90600411CADF8061043AAE9791D
:1024C00011FB00F189B20020EB689847BDF80200CB
:1024D000401CADF80200BDF8027053A802F0C4FB26
:1024E000BDF90410B0FBF1F0401CBFB2874203D22B
:1024F0000020ADF80000C1E732007E4953A802F089
:102500007FFBBDF90600411CADF8061053AAE9791E
:1025100011FB00F189B20020EB689847002C74D0C1
:102520000020ADF8020041E0BDF80010BDF8002029
:10253000BDF802309BB2BDF90400434313FA82F0A8
:10254000205C43AA89B25054BDF80000401CADF88D
:102550000000BDF8000080B2BDF9041088420EDA18
:10256000200002F081FBBDF80020BDF802309BB2D4
:10257000BDF904104B4313FA82F18842D4D20020F3
:1025800043A9BDF800208854BDF90600411CADF8F0
:10259000061043AAE97911FB00F189B20020EB682B
:1025A0009847BDF80200401CADF80200BDF802607B
:1025B000200002F059FBBDF90410B0FBF1F0401C03
:1025C000B6B2864221D20020ADF80000C1E74FF438
:1025D000807100220DF10C09484600F009FA38001C
:1025E000A9688847002C07D000943300424642492E
:1025F00003A802F005FB05E0330042463F4903A86B
:1026000002F0FEFA03A8A96888470DF5137DBDE81E
:10261000F08380B50A000100002002F044FD002094
:1026200002BD02B5010000236A46354800F0E7FB11
:10263000009802BD10B514002200D2B2002002F0B2
:1026400032FD200010BD38B50C001500C0B20028C6
:1026500003D12C480078002800D131BD2A490878E0
:10266000002800D0FEE70878401C087002F094FFB4
:1026700000232A0021002548FFF76DFEFFF74AFEE0
:10268000F6E7002101804FF6FF7141808180FF2134
:102690008171C171002181600021C160002101614F
:1026A0007047104902880A8042884A8082888A805E
:1026B00082798A71C279CA7182688A60C268CA6086
:1026C00000690861012008490870704700B585B0AD
:1026D0006846FFF7D6FF0E4802906846FFF7E1FF15
:1026E00005B000BD04220828AD220828F8D828101B
:1026F00030D7281004D9281088D4281084D5281061
:102700006021082895070828AE22082840D72810FD
:102710004B232810010009B2002909D4012210F02E
:102720001F018A40DFF8941200B2400941F82020CE
:102730007047020012B2002A05D44901DFF8802256
:1027400000B2115408E04901DFF8782200B210F01D
:102750000F00104400F8041C7047DFF86C02016899
:1027600051F0010101600168C907FCD47047974826
:10277000016851F00101016070479548016851F00E
:102780000101016070471FB5684603F007F8002893
:102790000DD0904C18229049200003F09BF80020A7
:1027A000E07549208D490860002003F0CBF8012036
:1027B0008B490870FFF7D1FF1FBD80B5C0B201285B
:1027C0000ED10321874803F013F803210320FFF7FC
:1027D000B0FF0320FFF79EFF01208349087002E04D
:1027E000002081490870FFF7C2FFFFF7C6FF0120F4
:1027F0007B49087001BD7CB504000D007B48D0E921
:102800000023CDE900232800C0B2002814D1764867
:10281000007801280DD06F4E18226F49300003F068
:1028200059F80020F07594206C490860002003F0EE
:1028300089F800206A49087001208DF80400002002
:102840008DF8050000942A00D2B26946002003F0FA
:1028500086FA00280DD05F4C18225F49200003F053
:1028600039F80020E0759E205C490860002003F0E4
:1028700069F873BD7CB505000C00280003F074F9FD
:1028800000280DD0534E18225349300003F022F88F
:102890000020F075B52051490860002003F052F87F
:1028A0002000C0B2002814D14F48007801280DD074
:1028B000484E18224849300003F00CF80020F0750B
:1028C000B92046490860002003F03CF80020444944
:1028D00008700095280003F07CF9002801D0202022
:1028E00001E04FF4007001902200D2B2694600204E
:1028F00003F069FA002801D1012000E0002076BD34
:10290000F8B584B004000D001600200003F02CF987
:1029100000280DD02F4F18222F49380002F0DAFF7F
:102920000020F875DF202D490860002003F00AF828
:102930006846102103F0D8FA3000C0B2002814D144
:102940002948007801280DD0224F1822224938004A
:1029500002F0C0FF0020F875E62020490860002042
:1029600002F0F0FF00201E49087001208DF80800D9
:1029700001208DF8090002208DF80A0001208DF851
:102980000B0000208DF80C00009401953200D2B2AB
:102990006946002003F09FF800280DD00D4C182246
:1029A0000D49200002F096FF0020E075F5200B494C
:1029B0000860002002F0C6FF05B0F0BD00E100E0B5
:1029C00000E400E018ED00E00800244000F424409A
:1029D00000F524401821082810C528106C2208286A
:1029E000A422082887272810A522082834D92810CF
:1029F00062F30F2262F31F42401810F0030308D065
:102A0000C91A1FD3DB0748BF00F8012D28BF20F8E3
:102A1000022D130030B414461546103928BF20E9A2
:102A20003C00FAD8490728BF20E90C0048BF40F80D
:102A3000042D890028BF20F8022D48BF00F8012D81
:102A400030BC7047C91818BF00F8012DCB0728BF4C
:102A500000F8012D7047F0B402461068956813180D
:102A6000506803EB5004C00748BF4D44A3422DD02B
:102A700013F8016B16F0030004BF13F8010BC01C20
:102A800031090F2907D113F8011B0F3103E013F8A7
:102A9000017B05F8017B401EF9D10029E6D013F82F
:102AA000010BC6F38106032E08BF13F8016B00EB80
:102AB0000620404228440026B71E8F421EBF10F851
:102AC000017B05F8017B761CF6D1CFE7F0BC02F163
:102AD0000C00704762B38B0708D0521E11F8013BFF
:102AE00000F8013B00F024808B07F6D1830740F00B
:102AF000208000BF103A07D330B4B1E83810103A44
:102B0000A0E83810F9D230BC530724BFB1E8081050
:102B1000A0E8081044BF51F8043B40F8043BD2073A
:102B200024BF31F8022B20F8022B44BF0B7803702E
:102B30007047121F17D35B0009D151F8043B20F8EE
:102B4000023B1B0C121F20F8023BF6D20BE051F89F
:102B5000043B00F8013B1B0A20F8023B1B0C121F30
:102B600000F8013BF3D238BF121D521E24BF11F8EA
:102B7000013B00F8013BF8D870478268521C826024
:102B8000426832B10268531C036011704168491EEB
:102B90004160704782688918816003E082684169FA
:102BA000521A8260816842699142F7D27047C268C6
:102BB0008918C16003E0C2684169521AC260C168E5
:102BC00042699142F7D2704770B50400002C01D0E1
:102BD000012000E000205422DFF8C415C0B2FFF746
:102BE00032FD0025207850F0010020700020A06008
:102BF0000020E060606920616078002803D002282E
:102C000010D007D315E06169002266683000FFF735
:102C1000EFFE0EE061694900002266683000FFF7B0
:102C2000E7FE06E061698900002266683000FFF770
:102C3000DFFE002020702800C0B270BD10B5040077
:102C4000002C01D0012000E000207022DFF8501598
:102C5000C0B2FFF7F8FC60692169401A10BD2DE988
:102C6000F84305001600002D01D0012000E00020EF
:102C70000C00AA22DFF82815C0B2FFF7E4FC0027F9
:102C80000020002C01D10327B5E0287810F0050FB3
:102C900001D00427AFE0287850F00400287028699C
:102CA000B042C0F0A380D5F81480A868B8EB000843
:102CB000B04567D26878002803D0022841D01FD3DE
:102CC00090E0424621006868AB6800EB0309484683
:102CD000FFF700FF41462800FFF75CFFB6EB080254
:102CE00004EB08016868AB6800EB03042000FFF701
:102CF000F1FEB6EB080841462800FFF74BFF71E0F4
:102D00005FEA480221006868AB6800EB4309484667
:102D1000FFF7E0FE41462800FFF73CFFB6EB080254
:102D2000520004EB48016868AB6800EB43042000E4
:102D3000FFF7D0FEB6EB080841462800FFF72AFF50
:102D400050E05FEA880221006868AB6800EB830905
:102D50004846FFF7BFFE41462800FFF71BFFB6EBD2
:102D60000802920004EB88016868AB6800EB8304FA
:102D70002000FFF7AFFEB6EB080841462800FFF73A
:102D800009FF2FE06878002803D002281DD00ED359
:102D900028E0320021006868AB6800EB03042000E3
:102DA000FFF798FE31002800FFF7F4FE1AE07200EA
:102DB00021006868AB6800EB43042000FFF78AFE3F
:102DC00031002800FFF7E6FE0CE0B2002100686841
:102DD000AB6800EB83042000FFF77CFE3100280085
:102DE000FFF7D8FE2869861B2E6100E005272878AA
:102DF00010F0FB0028703800C0B2BDE8F2832DE966
:102E0000F04705000E001F00002D01D0012000E05A
:102E100000201400DFF8888340F25B124146C0B204
:102E2000FFF711FC002C01D0012000E000204FF43E
:102E3000AE724146C0B2FFF706FC5FF0000800200A
:102E40000020002E02D15FF003088BE0297811F0FA
:102E5000030F03D020605FF006089CE02800FFF716
:102E6000EDFE2168884209D220605FF00708002843
:102E700004D1287810F0F70028708CE0287850F002
:102E800008002870D5F81490E868B9EB00092068AC
:102E9000814522D36878002803D0022813D008D3B4
:102EA0005CE022686868E96801443000FFF712FEC0
:102EB00054E0226852006868E96800EB4101300084
:102EC000FFF708FE4AE0226892006868E96800EBB4
:102ED00081013000FFF7FEFD40E06878002803D054
:102EE000022827D011D339E04A466868E9680144CE
:102EF000B2465046FFF7EEFD2268B2EB0902696860
:102F00004E443000FFF7E6FD28E05FEA49026868BA
:102F1000E96800EB4101B2465046FFF7DBFD22684D
:102F2000B2EB09025200696806EB49063000FFF770
:102F3000D1FD13E05FEA89026868E96800EB81016E
:102F4000B2465046FFF7C6FD2268B2EB0902920076
:102F5000696806EB89063000FFF7BCFD287810F0A1
:102F6000F7002870FFB2002F15D128780B2802D166
:102F70005FF002080FE0287850F002002870216806
:102F80002800FFF714FE2969206841182961287874
:102F900010F0FD0028704046C0B2BDE8F0872DE972
:102FA000F04705000E001F00002D01D0012000E0B9
:102FB00000201400DFF8E8814FF4DF724146C0B210
:102FC000FFF741FB002C01D0012000E0002040F27F
:102FD000BF124146C0B2FFF736FB5FF00008002089
:102FE0000020002E02D15FF00308ABE0297811F039
:102FF000070F03D020605FF00608AFE02800FFF75E
:103000001DFE2168884209D220605FF00708002871
:1030100004D1287810F0F70028709FE0287850F04D
:1030200008002870E868A968884203D3A868216866
:10303000884228D36878002803D0022817D00AD302
:103040007CE022686968AB6820681B1A194430006C
:10305000FFF740FD72E0226852006968AB682068A3
:103060001B1A01EB43013000FFF734FD66E02268D4
:1030700092006968AB6820681B1A01EB830130007D
:10308000FFF728FD5AE0D4F80090A868B9EB0009D2
:103090006878002803D0022835D018D34EE04A467D
:1030A00068686969B1EB09010144B2465046FFF70F
:1030B00011FD2268B2EB09026968AB6820681B1A2F
:1030C000194406EB09042000FFF704FD36E05FEA2F
:1030D000490268686969B1EB090100EB4101B24638
:1030E0005046FFF7F7FC2268B2EB0902520069680C
:1030F000AB6820681B1A01EB430106EB4904200072
:10310000FFF7E8FC1AE05FEA890268686969B1EBD9
:10311000090100EB8101B2465046FFF7DBFC226853
:10312000B2EB090292006968AB6820681B1A01EBD8
:10313000830106EB89042000FFF7CCFC287810F00F
:10314000F7002870FFB2002F08D128780B2802D191
:103150005FF0020802E02800FFF736FD4046C0B2EB
:10316000BDE8F087F8B504000E0017001D00002C24
:1031700001D0012000E000204FF407720849C0B2DE
:10318000FFF761FA0020676000212170667000215E
:10319000A1600021E16025616561C0B2F2BD00005F
:1031A0004CC8281038B5040000256420444314207E
:1031B00002F0CFFE002805D10A2000F09BFB6D1C19
:1031C000A542F4D3A54201D3012000E00020C0B203
:1031D00032BD38B514001D000822DFF858351A60DA
:1031E000002805D089B20A000100002003F0D7F9B9
:1031F000002C05D0ADB22A002100002003F0CFF949
:103200000820DFF83415086031BD38B504000D0022
:103210000820DFF820150860042322002100002088
:1032200003F0D2FA280080B2002806D0ADB22B00FD
:10323000221D211D002003F0C7FA0820DFF8F81432
:10324000086031BDF8B504000D0016000820DFF855
:10325000E4140860022028706E8004232A002900EC
:10326000002003F0B1FA300080B221280EDB2023C9
:103270002A1D2100002003F0A7FAB6B2203E32003A
:1032800014F12001002003F08AF90CE0B6B22F1DE2
:10329000320021003800FFF71DFC20232A1D291DC4
:1032A000002003F091FA0820DFF88C140860F1BDCB
:1032B000F8B50D0016001F0001248DF80000ADF8D0
:1032C00002603800FFF76EFF00281ED133009BB26A
:1032D0002A0004216846FFF77CFF3800FFF762FFF1
:1032E000002812D102208DF800000020ADF8020065
:1032F000BDF802106846FFF788FF142000F0FAFAC4
:103300009DF80000802800D100242000C0B2F2BD4A
:10331000F8B504000D00160001273000FFF742FF4A
:10332000002814D12C700023002220212800FFF750
:1033300050FF3000FFF736FF002808D10220287028
:103340000020688020212800FFF75FFF0027380059
:10335000C0B2F2BD30B589B04FF47A726946202010
:10336000FFF7D6FF04002000C0B200280BD19DF863
:103370000000A02807D1BDF8022001A9DFF8BC5346
:103380002800FFF7A7FBE4B2002C07D19DF800004E
:10339000A02801D0012002E0002000E00120C0B2FE
:1033A00009B030BD30B589B04FF47A72694621203A
:1033B000FFF7AEFF04002000C0B200280BD19DF83B
:1033C0000000A12807D1BDF8022001A9DFF8705341
:1033D0002800FFF77FFBE4B2002C07D19DF8000026
:1033E000A12801D0012002E0002000E00120C0B2AD
:1033F00009B030BD30B589B04FF47A7269462220E9
:10340000FFF786FF04002000C0B200280BD19DF812
:103410000000A22807D1BDF8022001A9DFF824533B
:103420002800FFF757FBE4B2002C07D19DF80000FD
:10343000A22801D0012002E0002000E00120C0B25B
:1034400009B030BD10B590B002000B00002B05D0C4
:10345000BD49684601F0D4FB020004E0BB49684660
:1034600001F0CEFB020042F2107392B269461020C6
:10347000FFF71EFF0400FFF7BDFF2000C0B210B031
:1034800010BD18B58DB0019300920B000200B04939
:1034900002A801F0B5FB02004CF2503392B202A92F
:1034A0001120FFF705FF0400FFF7A4FF2000C0B2C2
:1034B0000EB010BD30B589B00124A64D2878002883
:1034C0003BD1012028704FF47A70FFF76BFE002883
:1034D00031D103208DF800000020ADF8020020213A
:1034E0006846FFF792FE9DF80000902803D09DF8F3
:1034F0000000912809D1BDF80200002805D0BDF8D0
:10350000022001A99448FFF7AAFB4FF47A70FFF755
:1035100049FE00280FD102208DF800000020ADF8F0
:103520000200BDF802106846FFF76FFE9DF800002C
:10353000802800D10024002028702000C0B209B0EB
:1035400030BDF0B589B006000C00824D2878002807
:1035500058D1012028701CE03A0092B26946300030
:10356000FFF770FE9DF80000902803D09DF8000042
:10357000912809D1BDF80200002805D0BDF802202D
:1035800001A97548FFF76BFB380080B2241ABFB25F
:103590003E44002C2AD040F6F970844202D340F613
:1035A000F87700E027004FF47A70FFF7FBFD002862
:1035B000D2D01BE002208DF800000020ADF8020000
:1035C00020216846FFF721FE9DF80000902803D0D7
:1035D0009DF80000912809D1BDF80200002805D00F
:1035E000BDF8022001A95C48FFF739FB9DF80000F7
:1035F000902805D14FF47A70FFF7D4FD0028D9D078
:1036000000202870200009B0F0BD38B58AB0040051
:103610000D00002C01D0012000E000204FF40E72BC
:103620004E49C0B2FFF70FF800954A4D28780028A0
:103630002AD1012028704FF47A70FFF7B3FD0028DB
:1036400020D102208DF804000020ADF806002021D2
:1036500001A8FFF7DAFD9DF80400902803D09DF83B
:103660000400912809D1BDF80600002805D0BDF856
:10367000062002A93848FFF7F2FA9DF804009028C6
:10368000D9D0FFE70020287000236A462100324885
:10369000FFF7B5FB00980BB030BD3EB504000D0040
:1036A00000204FF480632E4A00212B48FFF75AFD7B
:1036B0000820029000200190002000900023294A59
:1036C0000021002003F0E8F8032301220121132048
:1036D00002F050FC032301220121B82002F04AFC31
:1036E000022300220021142002F044FC0021B82013
:1036F00002F00DFC0A2000F028F90121B82002F0A8
:1037000006FC642000F021F9002012490870FFF740
:1037100021FE0100C9B2002909D1FFF743FE2900AB
:103720002000FFF78FFE0100C9B20029FFD1C0B20F
:103730003EBD0000040131400801314050220828FC
:1037400018220828E420082810D928108CDA28101C
:103750002CD62810B8220828A821082804C7281029
:103760009C0F0828809698000EB4C0B5024603A8A6
:1037700000210190009101AB0121044878440C30F4
:1037800003F0E1F906BC5DF810FB00BF119E0000DC
:10379000022801D301200FE00B00DBB2042B01DB78
:1037A000012009E0AA4B03EB8000C9B2405C8242D1
:1037B00001D3012000E000207047F8B506000F009B
:1037C00015001C00022E01D301201CE02A00390044
:1037D000C9B23000FFF7DCFF012801D1012012E05F
:1037E0003800C0B2002811D1B4F5807F0CD29948BE
:1037F0007603304400EB850010F58050016864F3D7
:103800000F2101600020F2BD0120FCE7FFB2012F73
:1038100010D1B4F5803F0BD28E487603304400EBD4
:10382000850010F5A050016864F317210160E9E7F5
:103830000120E8E70120E6E700B20012C0B27047BD
:10384000F8B505000E001700280000B2FFF7F4FFDE
:1038500004002000C0B2022801D3012023E03A0076
:103860003100C9B22000C0B2FFF792FF012801D198
:10387000012018E077492000C0B2400308442A0024
:10388000D2B200EB8200D0F8000CF6B266F3092049
:1038900067F30700E4B264032144EDB201EB850154
:1038A000C1F8000C0020F2BD70B504000D00160038
:1038B000022C01D301201CE032002900C9B22000F3
:1038C000FFF766FF012801D1012012E06149600382
:1038D000085850F0004050F0407050F47F00EDB2B6
:1038E00065F3092066F307006203885064030859F2
:1038F000002070BDF8B50600F600574C574D00216A
:103900002078C001284404F038F912E02078C00182
:10391000284404F034F9B842F8D32078C001284490
:1039200004F02DF9361A00212078C001284404F053
:1039300024F94CF25137BE42E8D22078C001284425
:1039400004F01DF98642F8D2F1BDF8B504004FF439
:10395000FA504443404D414E00212878C001304484
:1039600004F00BF914E02878C001304404F007F9A2
:10397000B842F8D33A4F3C192878C001304404F0DB
:10398000FEF83F1839002878C001304404F0F5F8FB
:103990004CF25137BC42E6D22878C001304404F0E2
:1039A000EEF88442F8D2F1BD38B594B0502100222F
:1039B0006C462000FFF71CF82A4C00220121B4F9C4
:1039C0000000FFF73DFFB4F90000FFF735FF0923C2
:1039D00000220121C0B2FFF7F0FEB4F90000FFF7AA
:1039E0002BFF00220121C0B2FFF75EFF5FF0FF3026
:1039F000009000208DF8040000208DF805000020C4
:103A00008DF8060000208DF8080003208DF8440092
:103A10000120129001208DF807000F4C0F4D6946D0
:103A20002078C001284403F0E3FF2078C001284437
:103A300004F09EF800212078C001284404F09DF88D
:103A40002078C001284404F0AAF815B030BD000069
:103A500044D92810000004409A0708280000594063
:103A6000B03CFFFF90070828C0B200280AD0012808
:103A70000FD0032814D0042819D005281ED00628FA
:103A800023D022E011481249086012481249086008
:103A90001BE012480E49086011480F49086014E005
:103AA00010480B49086010480B4908600DE00F48AA
:103AB000074908600E480849086006E00D480449B7
:103AC00008600D4804490860FFE770471326281076
:103AD000F006082823262810F406082801C3281019
:103AE00065C3281069C22810CDC2281091BB2810C8
:103AF00089BC2810433528100B3628102DE9F84FC3
:103B00002DED028BE0B08846B8F1000F02D0040022
:103B1000002C01D100F0CABF002519E038A801F03F
:103B2000A3F816F80920DFF8B01C38AB184401F0F0
:103B300067F819F10109B945F0DB38A9DFF89C0CE9
:103B4000FEF750FBDFF8980CFEF74CFBED1C6D1CEC
:103B5000454580F0AB87A81C40452AD2605DAA2865
:103B600027D104EB05004078EE2822D104EB0500B4
:103B700080780100C9B2042919DA0100C9B201290B
:103B800012D1DFF8600C0178012906D00121017003
:103B9000DFF8540CFEF726FB09E0DFF8500C017843
:103BA00091F00101017002E0DFF8381C0870AD1CD3
:103BB000CDE7A81C404521D2605DAA281ED104EBA8
:103BC00005004078FF2819D104EB0500807801003A
:103BD000C9B2002910D00100C9B206290CDADFF8F9
:103BE000101C0200D2B20A4412F8012C92F0010219
:103BF000C0B2084400F8012CAD1CA8E7681D404580
:103C00002ED2605DAA282BD104EB05004078C12894
:103C100026D10021002204E055FA82F0205C4118F0
:103C2000521C1000C0B20528F6DB04EB05004079F9
:103C3000C9B281428BD104EB050080780100C9B282
:103C4000012904D1DFF8D80CFEF7CCFA06E0C0B2A7
:103C5000022803D1DFF82C0DFEF7C4FA6D1D76E7BC
:103C6000A81D40456BD2605DAA2868D104EB050011
:103C70004078C22863D104EB050080780100C9B206
:103C8000002903D00100C9B22A2901DBAD1D5EE77E
:103C900004EB0501C9788DF8081004EB05010979DA
:103CA0008DF8091004EB050149798DF80A1004EB31
:103CB000050189798DF80B10461E72B6DFF8287D54
:103CC0003000C0B2029947F82010D7E92AAB012092
:103CD0000021320003F06AFF52465B46104319434D
:103CE000C7E92A01012087F8B000B8213A0001296C
:103CF0000FDB12F01F004118BFF34F8FDFF8EC0C01
:103D00000260203220390129F8DABFF34F8FBFF368
:103D10006F8F62B6D7E92A01CDE900019DED020A55
:103D2000B7EEC00A53EC102BDFF8C40CF6B250F813
:103D30002610DFF8C00CFEF755FAAD1D07E7E81CAA
:103D400040454AD2605DAA2847D104EB050040787F
:103D5000C32842D104EB0500807888283DD104EBCC
:103D60000500C078552838D1DFF84C0DFEF73AFA37
:103D7000EC21DFF8486D320001290FDB12F01F0043
:103D80004118BFF34F8FDFF8640C026020322039F6
:103D90000129F8DABFF34F8FBFF36F8F40F2E93795
:103DA000B6F9100003F013FFB84205DAB6F91200B5
:103DB00003F00DFFB84204DBDFF8380DFEF712FA0E
:103DC00009E0DFF8340DFEF70DFAFCF76DF9DFF8C6
:103DD000F00CFEF707FAED1CB9E615F1A7008045D7
:103DE00050D3605DAA284DD104EB05004078C4286B
:103DF00048D10021002204E0501920448078411865
:103E0000521CA42AF8DB04EB050090F8A600C9B206
:103E1000814231D1DFF8E40CFEF7E4F972B6A42256
:103E200004EB0500811CDFF8C06B37003800FEF79B
:103E300051FE5FF0FF305FF0FF31C6E92A0101203B
:103E400086F8B000B82101290FDB16F01F004118D9
:103E5000BFF34F8FDFF8940B06602036203901291D
:103E6000F8DABFF34F8FBFF36F8F62B62921DFF807
:103E7000C80CFEF7B7F903E0DFF8C00CFEF7B2F9A3
:103E8000A73564E6E81C4045BFF461AE605DAA2832
:103E90007FF45DAE04EB05004078C5287FF457AE93
:103EA00004EB0500807888287FF451AE04EB050010
:103EB000C07855287FF44BAEDFF8840CFEF792F9FA
:103EC000FCF7DEF8AA208DF8180006AEC42070704A
:103ED000A422DFF8E87B17F148010DF11A094846E2
:103EE000FEF7F8FD0021002204E006A810448078C7
:103EF0004118521CA42AF8DB86F8A610A72106A8B0
:103F0000FFF71FFBFFF7D6FADFF8380CFEF76AF968
:103F100097ED1C0AB5EE400AF1EE10FA04D597EDC4
:103F20001C0AB1EE400A01E097ED1C0AD7ED1C0A0D
:103F3000F5EE400AF1EE10FA06D5D7ED1C0AF1EEC7
:103F4000600AFDEEE00A03E0D7ED1C0AFDEEE00A90
:103F500097ED1C1AB5EE401AF1EE10FA06D597ED62
:103F60001C1AB1EE411ABDEEC11A03E097ED1C1AFE
:103F7000BDEEC11AD7ED1C1AF5EE401AF1EE10FA9B
:103F800001D5C2A000E0C2A0D7ED1A1AF5EE401A82
:103F9000F1EE10FA04D5D7ED1A1AF1EE611A01E02C
:103FA000D7ED1A1A97ED1A2AB5EE402AF1EE10FA5B
:103FB00006D597ED1A2AB1EE422ABDEEC22A03E0D9
:103FC00097ED1A2ABDEEC22AD7ED1A2AF5EE402A3D
:103FD000F1EE10FA06D5D7ED1A2AF1EE622AFDEEBF
:103FE000E22A03E0D7ED1A2AFDEEE22A97ED1A3A0B
:103FF000B5EE403AF1EE10FA01D5A4A100E0A4A17B
:104000009FEDA48AF8EEE00A30EE600A20EE080A7E
:10401000BDEEC00A8DED020A8DED011A0090B8EEDA
:10402000C20A31EEC00A20EE080ABDEEC00A10EE48
:10403000103A12EE902ADFF8180BFEF7D3F897ED3E
:10404000190AB5EE400AF1EE10FA04D597ED190AF7
:10405000B1EE400A01E097ED190AD7ED190AF5EE25
:10406000400AF1EE10FA06D5D7ED190AF1EE600A12
:10407000FDEEE00A03E0D7ED190AFDEEE00A97ED48
:10408000191AB5EE401AF1EE10FA06D597ED191A85
:10409000B1EE411ABDEEC11A03E097ED191ABDEE5B
:1040A000C11AD7ED191AF5EE401AF1EE10FA01D542
:1040B00076A000E076A0D7ED181AF5EE401AF1EEE2
:1040C00010FA04D5D7ED181AF1EE611A01E0D7ED18
:1040D000181A97ED182AB5EE402AF1EE10FA06D517
:1040E00097ED182AB1EE422ABDEEC22A03E097ED01
:1040F000182ABDEEC22AD7ED182AF5EE402AF1EEB5
:1041000010FA06D5D7ED182AF1EE622AFDEEE22A62
:1041100003E0D7ED182AFDEEE22A97ED183AB5EE46
:10412000403AF1EE10FA01D558A200E058A297EDFE
:10413000173AB5EE403AF1EE10FA04D597ED173A7A
:10414000B1EE433A01E097ED173AD7ED173AF5EEA5
:10415000403AF1EE10FA06D5D7ED173AF1EE633A90
:10416000FDEEE33A03E0D7ED173AFDEEE33A97EDC3
:10417000174AB5EE404AF1EE10FA06D597ED174A08
:10418000B1EE444ABDEEC44A03E097ED174ABDEED6
:10419000C44AD7ED174AF5EE404AF1EE10FA01D5C0
:1041A0003AA100E03AA1F8EEE00A30EE600A20EE13
:1041B000080ABDEEC00A8DED050A8DED041A0390C4
:1041C000B8EEC20A31EEC00A20EE080ABDEEC00AFF
:1041D0008DED020ACDED012A0092B8EEE30A33EE2E
:1041E000400A20EE080ABDEEC00A10EE103A14EEA6
:1041F000102ADFF86009FDF7F5FF97ED1F0AB5EE0D
:10420000400AF1EE10FA04D597ED1F0AB1EE400A0C
:1042100001E097ED1F0AD7ED1F0AF5EE400AF1EE17
:1042200010FA06D5D7ED1F0AF1EE600AFDEEE00A9E
:1042300003E0D7ED1F0AFDEEE00A97ED1F1AB5EE79
:10424000401AF1EE10FA06D597ED1F1AB1EE411A99
:10425000BDEEC11A03E097ED1F1ABDEEC11AD7EDEE
:104260001F1AF5EE401AF1EE10FA01D507A000E092
:1042700007A0D7ED1E1AF5EE401AF1EE10FA0BD595
:10428000D7ED1E1AF1EE611A08E000BF2D00000004
:104290000000000000401C46D7ED1E1A97ED1E2AB4
:1042A000B5EE402AF1EE10FA06D597ED1E2AB1EED2
:1042B000422ABDEEC22A03E097ED1E2ABDEEC22AB5
:1042C000D7ED1E2AF5EE402AF1EE10FA06D5D7ED0D
:1042D0001E2AF1EE622AFDEEE22A03E0D7ED1E2A45
:1042E000FDEEE22A97ED1E3AB5EE403AF1EE10FAF5
:1042F00001D5C1A200E0C1A297ED1D3AB5EE403A4A
:10430000F1EE10FA04D597ED1D3AB1EE433A01E013
:1043100097ED1D3AD7ED1D3AF5EE403AF1EE10FA61
:1043200006D5D7ED1D3AF1EE633AFDEEE33A03E030
:10433000D7ED1D3AFDEEE33A97ED1D4AB5EE404A42
:10434000F1EE10FA06D597ED1D4AB1EE444ABDEEE6
:10435000C44A03E097ED1D4ABDEEC44AD7ED1D4A9D
:10436000F5EE404AF1EE10FA01D5A3A100E0A3A1B9
:10437000F8EEE00A30EE600A20EE080ABDEEC00A50
:104380008DED050A8DED041A0390B8EEC20A31EEE8
:10439000C00A20EE080ABDEEC00A8DED020ACDED7E
:1043A000012A0092B8EEE30A33EE400A20EE080A32
:1043B000BDEEC00A10EE103A14EE102ADFF898078E
:1043C000FDF710FF97ED2A0AB5EE400AF1EE10FA5C
:1043D00004D597ED2A0AB1EE400A01E097ED2A0ACA
:1043E000D7ED2A0AF5EE400AF1EE10FA06D5D7ED20
:1043F0002A0AF1EE600AFDEEE00A03E0D7ED2A0A90
:10440000FDEEE00A97ED2A1AB5EE401AF1EE10FA29
:1044100006D597ED2A1AB1EE411ABDEEC11A03E096
:1044200097ED2A1ABDEEC11AD7ED2A1AF5EE401AF9
:10443000F1EE10FA01D570A000E070A0D7ED291AB6
:10444000F5EE401AF1EE10FA04D5D7ED291AF1EE87
:10445000611A01E0D7ED291A97ED292AB5EE402A15
:10446000F1EE10FA06D597ED292AB1EE422ABDEEFB
:10447000C22A03E097ED292ABDEEC22AD7ED292AE8
:10448000F5EE402AF1EE10FA06D5D7ED292AF1EE25
:10449000622AFDEEE22A03E0D7ED292AFDEEE22AA8
:1044A00097ED293AB5EE403AF1EE10FA01D552A255
:1044B00000E052A297ED283AB5EE403AF1EE10FA3C
:1044C00004D597ED283AB1EE433A01E097ED283A4A
:1044D000D7ED283AF5EE403AF1EE10FA06D5D7EDD1
:1044E000283AF1EE633AFDEEE33A03E0D7ED283ADD
:1044F000FDEEE33A97ED284AB5EE404AF1EE10FAA8
:1045000006D597ED284AB1EE444ABDEEC44A03E011
:1045100097ED284ABDEEC44AD7ED284AF5EE404A49
:10452000F1EE10FA01D534A100E034A1F8EEE00A72
:1045300030EE600A20EE080ABDEEC00A8DED050AD5
:104540008DED041A0390B8EEC20A31EEC00A20EED7
:10455000080ABDEEC00A8DED020ACDED012A0092D7
:10456000B8EEE30A33EE400A20EE080ABDEEC00AB8
:1045700010EE103A14EE102ADFF8E005FDF732FED7
:1045800097ED2D0AB5EE400AF1EE10FA04D597ED3D
:104590002D0AB1EE400A01E097ED2D0AD7ED2D0A64
:1045A000F5EE400AF1EE10FA06D5D7ED2D0AF1EE40
:1045B000600AFDEEE00A03E0D7ED2D0AFDEEE00A09
:1045C00097ED2D1AB5EE401AF1EE10FA06D597EDDB
:1045D0002D1AB1EE411ABDEEC11A03E097ED2D1A66
:1045E000BDEEC11AD7ED2D1AF5EE401AF1EE10FA14
:1045F00006D501A005E000BF2D000000000000006E
:10460000C6A0D7ED2C1AF5EE401AF1EE10FA04D53B
:10461000D7ED2C1AF1EE611A01E0D7ED2C1A97EDC7
:104620002C2AB5EE402AF1EE10FA06D597ED2C2A89
:10463000B1EE422ABDEEC22A03E097ED2C2ABDEE70
:10464000C22AD7ED2C2AF5EE402AF1EE10FA06D553
:10465000D7ED2C2AF1EE622AFDEEE22A03E0D7ED37
:104660002C2AFDEEE22A97ED2C3AB5EE403AF1EE17
:1046700010FA01D5C4A200E0A8A297ED2B3AB5EE3E
:10468000403AF1EE10FA04D597ED2B3AB1EE433AE9
:1046900001E097ED2B3AD7ED2B3AF5EE403AF1EEEB
:1046A00010FA06D5D7ED2B3AF1EE633AFDEEE33A78
:1046B00003E0D7ED2B3AFDEEE33A97ED2B4AB5EE4A
:1046C000404AF1EE10FA06D597ED2B4AB1EE444A76
:1046D000BDEEC44A03E097ED2B4ABDEEC44AD7EDC8
:1046E0002B4AF5EE404AF1EE10FA01D5A6A100E002
:1046F0008AA1F8EEE00A30EE600A20EE080ABDEE6C
:10470000C00A8DED050A8DED041A0390B8EEC20AB9
:1047100031EEC00A20EE080ABDEEC00A8DED020A95
:10472000CDED012A0092B8EEE30A33EE400A20EE06
:10473000080ABDEEC00A10EE103A14EE102ADFF897
:104740002004FDF74FFD97ED380AB5EE400AF1EE73
:1047500010FA04D597ED380AB1EE400A01E097ED62
:10476000380AD7ED380AF5EE400AF1EE10FA06D510
:10477000D7ED380AF1EE600AFDEEE00A03E0D7ED6E
:10478000380AFDEEE00A97ED381AB5EE401AF1EE60
:1047900010FA06D597ED381AB1EE411ABDEEC11ADE
:1047A00003E097ED381ABDEEC11AD7ED381AF5EED1
:1047B000401AF1EE10FA01D573A000E057A0D7ED32
:1047C000371AF5EE401AF1EE10FA13D5D7ED371A75
:1047D000F1EE611A10E000BF64DA28106CDA2810DC
:1047E00050D42810AA220828E8D2281094070828B4
:1047F000F8060828D7ED371A97ED372AB5EE402A84
:10480000F1EE10FA06D597ED372AB1EE422ABDEE49
:10481000C22A03E097ED372ABDEEC22AD7ED372A28
:10482000F5EE402AF1EE10FA06D5D7ED372AF1EE73
:10483000622AFDEEE22A03E0D7ED372AFDEEE22AF6
:1048400097ED373AB5EE403AF1EE10FA01D54EA1A8
:1048500000E032A1F8EEE00A30EE600A20EE080A2D
:10486000BDEEC00A8DED020A8DED011A0090B8EE82
:10487000C20A31EEC00A20EE080ABDEEC00A10EEF0
:10488000103A12EE902AB748FDF7ACFC97ED3A0AC1
:10489000B5EE400AF1EE10FA04D597ED3A0AB1EE02
:1048A000400A01E097ED3A0AD7ED3A0AF5EE400AE0
:1048B000F1EE10FA06D5D7ED3A0AF1EE600AFDEEF8
:1048C000E00A03E0D7ED3A0AFDEEE00A97ED3A1A66
:1048D000B5EE401AF1EE10FA06D597ED3A1AB1EEA0
:1048E000411ABDEEC11A03E097ED3A1ABDEEC11AA6
:1048F000D7ED3A1AF5EE401AF1EE10FA01D522A0E2
:1049000000E006A0D7ED391AF5EE401AF1EE10FAE4
:1049100008D5D7ED391AF1EE611A05E00000000064
:1049200018D42810D7ED391A97ED392AB5EE402A58
:10493000F1EE10FA06D597ED392AB1EE422ABDEE16
:10494000C22A03E097ED392ABDEEC22AD7ED392AF3
:10495000F5EE402AF1EE10FA06D5D7ED392AF1EE40
:10496000622AFDEEE22A03E0D7ED392AFDEEE22AC3
:1049700097ED393AB5EE403AF1EE10FA06D502A1BC
:1049800005E000BF34D428102D0000006EA1F8EE21
:10499000E00A30EE600A20EE080ABDEEC00A8DED96
:1049A000020A8DED011A0090B8EEC20A31EEC00A7B
:1049B00020EE080ABDEEC00A10EE103A12EE902A60
:1049C0006948FDF70FFC6948FDF70CFC6848FDF7E6
:1049D00009FCA727A02100220DF1E0094846FEF7B7
:1049E00007F85FF0000913E00012002870EF00E004
:1049F00028C12810D0CD281038A800F035F916F8B5
:104A000009205C4938AB184400F0FAF819F10109A3
:104A1000B9F1280FF0DB0FF2341938A94846FDF739
:104A2000E1FBA02100220DF1E00A5046FDF7E0FF76
:104A30005FF0280A0BE038A800F016F916F80A20F3
:104A40004C4938AB184400F0DBF81AF1010ABAF10E
:104A5000500FF0DB38A94846FDF7C4FBA021002227
:104A60000DF1E00A5046FDF7C3FF5FF0500A0BE07E
:104A700038A800F0F9F816F80A203E4938AB184477
:104A800000F0BEF81AF1010ABAF1780FF0DB38A98C
:104A90004846FDF7A7FBA02100220DF1E00948469A
:104AA000FDF7A6FF5FF07809FFF745B860B0BDECF1
:104AB000028BBDE8F18F00001CD0281000100028E8
:104AC000DCD5281080B54FF480732B4A00212B4889
:104AD000FEF748FB0F20FEF738FF002300225FF4AB
:104AE000E131002000F022FC0121002000F09FFBBA
:104AF00001BD000004CE28102CCF28105CCF281058
:104B000038B51E4C2000FEF799F800900098032855
:104B100011D30220FEF719FF2000FEF78FF8009056
:104B2000174D00236A4629002000FEF768F9009916
:104B30002800FEF7E3FF31BD38CE2810C8D028107A
:104B4000F8CC28108CCF281000000000257300003E
:104B5000F0D028107CCA2810B8CA2810F4CA28102F
:104B600030CB281018D1281040D12810BCCF2810E5
:104B7000ECCF281064DA2810B41A0828302108284D
:104B8000B41B08280300002002E01A7810185B1CF0
:104B90000A00511E002AF8D1C0B2704738B504008F
:104BA000607810F00F0060706078092801DA012049
:104BB00000E00020C522DFF84410C0B2FDF743FD3D
:104BC000AA2020706578D5F10805AD00D5F124053F
:104BD000E570607850F0100060700020A07029002F
:104BE000C9B22000FFF7CEFFA070EDB2290020006F
:104BF000014A1268904731BDF0060828A8C5281060
:104C00000CB430B583B00A4606A9029104460025CB
:104C10000194009502AB01A9084878441E3001F0C8
:104C200092FF019A157000284EBF04460198041B9C
:104C3000204603B030BC5DF80CFB00BF2300000031
:104C4000034600E05B1C1A78002AFBD111F801CB67
:104C500083F800C013F8012B002AF7D170470268CF
:104C6000531C03601170704700F10103810704D0E9
:104C700010F8011B820781B1FAD10268A2F101315B
:104C8000914311F0803104BF50F8042FF6E709BAC0
:104C9000B1FA81F100EBD100401CC01A704700004E
:104CA00008B584B00023039300290EBF019301903F
:104CB000491E0291009301A904AB074878441830BB
:104CC00001F041FF019909B100220A70002858BF84
:104CD000039805B000BD00BFA3DEFFFF022801D38B
:104CE000012010E00B00DBB2042B01DB01200AE005
:104CF000DFF8CC3703EB8000C9B2405C824201D3BD
:104D0000012000E000207047F8B504000F001500F6
:104D10001E00022C01D301202AE02A003900C9B26A
:104D20002000FFF7DBFF012801D1012020E00698D9
:104D30003900C9B202291ED1B6F5803F19D2202808
:104D400017D24FF4C052DFF87C1763030B4403EB18
:104D5000850313441F6866F317271F60640321440B
:104D600001EB850111440A6860F3C7020A60002064
:104D7000F2BD0120FCE7FFB2032F1FD1B6F1807F07
:104D80001AD2202818D24FF4E052DFF83817630304
:104D90000B4403EB850313441F6807F0FF0757EA32
:104DA00006271F606403214401EB850111440A6852
:104DB00060F3C7020A60DAE70120D9E70120D7E7EC
:104DC00000B20012C0B27047F8B505000E0017001F
:104DD000280000B2FFF7F4FF04002000C0B2022850
:104DE00001D3012024E03A003100C9B22000C0B252
:104DF000FFF774FF012801D1012019E0DFF8C41684
:104E00002000C0B2400308442A00D2B200EB820066
:104E1000D0F8000CF6B266F3092067F30700E4B29D
:104E200064032144EDB201EB8501C1F8000C0020C0
:104E3000F2BD70B504000D001600022C01D3012054
:104E40001DE032002900C9B22000FFF747FF01280A
:104E500001D1012013E0DFF86C166003085850F010
:104E6000004050F0407050F47F00EDB265F309202F
:104E700066F307006203885064030859002070BD80
:104E8000D0F840037047D0F80803C005C00D704744
:104E9000C0F840127047D0F80802C005C00D704736
:104EA000D0F80802C0F3C030704738B505002800BC
:104EB000FFF7F1FF04002800FFF7F2FF0419002CB0
:104EC00001D1012000E00020C0B232BDC0F8C81FEF
:104ED0007047D0F8C80F7047C0F8881F7047D0F8E7
:104EE000880F7047016851F000410160704738B584
:104EF00004001500C9B2002906D002291ED010D323
:104F0000042935D027D340E0DFF8BC05A06001209C
:104F10002073112060734FF48C70E0811220208286
:104F200039E0DFF8A805A06001202073112060732C
:104F300040F21D10E0816B2020822CE0DFF890050C
:104F4000A06001202073112060734FF48E70E08107
:104F50006A2020821FE0DFF87C05A0600220207319
:104F60001120607340F21B10E0816920208212E062
:104F7000DFF86405A06001202073132060734FF4F4
:104F80008D70E0816820208205E07C22DFF84C15DE
:104F90000020FDF758FBEDB2002D06D0022D1ED0EB
:104FA00010D3042D35D027D340E0DFF81C05206056
:104FB00000202071112060714FF48C70E08112206C
:104FC000208239E0DFF804052060002020711120E4
:104FD000607140F21D10E0816B2020822CE0DFF830
:104FE000F004206000202071112060714FF48E7059
:104FF000E0816A2020821FE0DFF8D80420600120D1
:1050000020711120607140F21B10E0816920208224
:1050100012E0DFF8C40420600020207113206071CA
:105020004FF48D70E0816820208205E0A822DFF82F
:10503000AC140020FDF707FB31BD10B5C0B200284D
:1050400006D002280AD006D304280DD009D30EE0DA
:10505000DFF88C4411E0DFF88C440EE0DFF8884480
:105060000BE0DFF8884408E0DFF8844405E0BD2267
:10507000DFF868140020FDF7E6FA200010BD38B50F
:105080000400DFF87054C9B22000C0B255F8200007
:10509000FFF7FEFE2000C0B255F82000FFF705FF25
:1050A0000028F7D031BD70B505000E00140006E0F1
:1050B00031782800C0B2FFF7E2FF641E761C002C96
:1050C000F6D170BD38B504000D0005E02978200048
:1050D000C0B2FFF7D4FF6D1C28780028F6D131BD8F
:1050E00070B504000D000020DFF808642000C0B295
:1050F00056F82000FFF7C7FE002807D0E4B256F8A4
:105100002400FFF7BDFE2870012000E00020C0B29F
:1051100070BD70B505000C00DFF8D8632800C0B280
:1051200056F82000FFF7DBFE400840000100280091
:10513000C0B256F82000FFF7CFFE2800C0B256F8E4
:105140002000FFF7CCFE30F0020001002800C0B2C2
:1051500056F82000FFF7C0FE2800C0B256F8200025
:10516000FFF7BDFE30F0200001002800C0B256F865
:105170002000FFF7B1FE2800C0B256F82000FFF76C
:10518000AEFE30F0400001002800C0B256F820000A
:10519000FFF7A2FE2800C0B256F82000FFF79FFEDE
:1051A00030F0100001002800C0B256F82000FFF7D0
:1051B00093FE2800C0B256F82000FFF790FE30F4AE
:1051C000807001002800C0B256F82000FFF784FE6E
:1051D0002800C0B256F82000FFF781FE30F480604E
:1051E00001002800C0B256F82000FFF775FE002C21
:1051F0000ED02800C0B256F82000FFF76AFE50F427
:1052000000700100EDB256F82500FFF765FE0DE0D5
:105210002800C0B256F82000FFF75BFE30F40070A3
:105220000100EDB256F82500FFF756FE70BD70B5CF
:1052300005000C00DFF8BC622800C0B256F8200060
:10524000FFF747FE4008400001002800C0B256F8B2
:105250002000FFF73BFE2800C0B256F82000FFF701
:1052600038FE30F0080001002800C0B256F82000D7
:10527000FFF72CFE2800C0B256F82000FFF729FEE9
:1052800030F0200001002800C0B256F82000FFF7DF
:105290001DFE2800C0B256F82000FFF71AFE30F4B9
:1052A000807001002800C0B256F82000FFF70EFE03
:1052B0002800C0B256F82000FFF70BFE30F4007053
:1052C00001002800C0B256F82000FFF7FFFD2800BB
:1052D000C0B256F82000FFF7FCFD30F4006001007A
:1052E0002800C0B256F82000FFF7F0FD002C0ED0C9
:1052F0002800C0B256F82000FFF7EBFD50F0040084
:105300000100EDB256F82500FFF7E0FD0DE02800A2
:10531000C0B256F82000FFF7DCFD30F004000100B9
:10532000EDB256F82500FFF7D1FD70BD2DE9F8412B
:10533000A7B005000F00160028003100C0B2C9B2A6
:10534000884201D1012000E000201C00DFF88C81A0
:105350004FF4CE724146C0B2FDF775F92800210026
:10536000C0B2C9B2884201D1012000E0002040F261
:105370009D124146C0B2FDF766F902A8142100F063
:10538000B3FD342100220DF168084046FDF730FBE3
:105390004C2100220DF11C084046FDF729FBFF00BF
:1053A0003A0000235448002102F016FC07002200B6
:1053B000D2B23100C9B202A8FFF799FD08201B90B4
:1053C0009DF80D008DF870001AAA9DF80C10029837
:1053D00002F0A5FD06201B909DF80D008DF87000D1
:1053E0001AAA9DF81410049802F099FD0020079065
:1053F000082008900820099002200B9000200C90B3
:1054000000201290002014903A4C2800C0B254F8AA
:10541000200002F005FF39492A00D2B23820424369
:105420000A4407A92800C0B254F8200002F0B6FDD3
:105430002800C0B254F82000FFF754FD2A00D2B271
:105440000321BDF91600FFF7BFFCBDF91600FFF7F9
:10545000B7FC17F01F010091C7F357132A00D2B20F
:105460000321C0B2FFF750FCBDF91600FFF7A8FCFE
:105470002A00D2B20321C0B2FFF7DBFCBDF918004D
:10548000ADF800000320ADF8020001208DF8040003
:1054900007221B482900C9B250F82110684600F0C5
:1054A00087F800212800C0B2FFF7C1FE00212800C4
:1054B000C0B2FFF72EFE28B0BDE8F081000000006A
:1054C00044D928100000044000003140000231405F
:1054D0000005314080083140000731404CC9281098
:1054E0000000604000006540000064400000634030
:1054F0000000624074070828008096989C190828CC
:1055000060070828010009B2002908D4012210F020
:105510001F018A401B4900B2400941F82020704712
:10552000010009B2002908D4012210F01F018A40AD
:10553000154900B2400941F820207047020012B21C
:10554000002A04D44901114A00B2115407E049016C
:105550000F4A00B210F00F00104400F8041C70470E
:10556000002800D162B60B480168491C01607047F1
:1055700072B608490868002802D00868401E086012
:105580000868704700E100E080E200E000E400E02D
:1055900018ED00E08C22082880B5FFF7E9FF02F043
:1055A00087FE01BD80B5C9B200B2FFF7C7FF01BDDC
:1055B00070B504000D001600200002F089FE2900DD
:1055C000B4F9000002F0C3FE3100C9B2B4F9020020
:1055D000FFF7E8FFB4F90200FFF7A2FFB4F90200F9
:1055E000FFF790FF70BD000038B50400082C10D301
:1055F000DFF8B0521822DFF8B012280000F06AF984
:105600000020E875E820DFF8A4120860002000F010
:1056100099F9DFF89C026401204432BDDFF894322E
:105620001B6862F31F4361F30F0383607047C06818
:105630007047DFF884321B6862F31F4361F30F0386
:10564000036000687047C069C00FC0B27047F8B50A
:1056500002000D00002A01D1052053E0DFF85C12A2
:105660000868C0F30320002801D1002007E0086883
:10567000C0F303200E2801D1012000E00220DFF852
:105680004012400101EB00067FF07044DFF83472F5
:10569000380011001022FDF71DFA3868400840005C
:1056A00038601021380000F0A9F9DFF81C323A0008
:1056B0000121300002F074FE002804D0012021E016
:1056C000641E002C15D03000FFF7BDFF0028F7D175
:1056D000002D08D01021380000F07EF92800390094
:1056E0001022FDF7F7F900F041F8012803D103205B
:1056F00008E0022006E000F039F8002801D100207F
:1057000000E00420F2BD38B50100002901D10520D8
:105710002BE06A4A1068C0F30320002801D1002062
:1057200007E01068C0F303200E2801D1012000E03B
:105730000220634A400102EB0004624D280010225F
:10574000FDF7C8F9286840084000286010212800AB
:1057500000F054F95C4B2A000121200002F020FEE9
:10576000002801D0012000E0002032BD10B5554CCA
:105770001021200000F030F9206810F07040B0F1E6
:10578000204F01D1002008E0206810F07040B0F1F7
:10579000704F01D1012000E0022010BD38B5040097
:1057A000FFF7E4FF05002800C0B2022802D17FF015
:1057B00070400DE0002C04D0200042491022FDF77B
:1057C00089F9EDB2002D01D1002001E03D480068CB
:1057D00032BD10F07041B1F1204F01D1002006E040
:1057E00010F07041B1F1704F01D07FF07040704700
:1057F0003EB5364AD2E90045CDE90045ADF8021084
:1058000033490860684602F063FD0FF24101BDF9BB
:10581000000002F09CFD0220FFF7E6FE274A116817
:10582000C1F30321002901D1002107E01168C1F370
:1058300003210E2901D1012100E0022100220123D0
:1058400013FA01F1FFF7EAFE37BD000038B500207A
:105850000220FFF7C9FE04002000FFF7E8FE050064
:1058600016490868C0F30320002801D1002007E092
:105870000868C0F303200E2801D1012000E00220B7
:105880002900C140C80705D511490868002801D082
:10589000086880472A00120CADB229002000FFF7EB
:1058A000C8FE31BD182108285CC528106C220828C4
:1058B0000010224000DB281004DB281000002040EC
:1058C0000000224040220828682208283CD92810DD
:1058D0006422082801B58B071AD1830724D1121F2F
:1058E00021D351F8043BA3F1013C2CEA030C1CF03A
:1058F000803C04BF40F8043BF1E79CFA8CFCBCFA06
:105900008CF1C1F118018B40CB4040F8043B13E00F
:10591000042A09D311F8013B521E00F8013B5BB188
:105920008B07F7D1D9E7121D5AB111F8013B521E6E
:1059300000F8013B03B1F8D111001CBF0022FDF7B4
:105940005BF801BD01BEFEE780B5354A35490B68FD
:1059500093423ED00A60344A12684A62334A8A62ED
:1059600002684A6042688A608268CA60C2680A61E6
:1059700002694A6142698A618269CA61C2690A62CE
:10598000F1EE102A12F0900F23D0294A8A62026A9F
:10599000CA62426A0A63826A4A63C26A8A63026BA3
:1059A000CA63426B0A64826B4A64C26B8A64026C8B
:1059B000CA64426C0A65826C4A65C26C8A65026D73
:1059C000CA65426D0A66826D4A66C26D8A66006E5D
:1059D000C86602F003FD01BD01290EDB10F01F02B5
:1059E0005118BFF34F8F134A10602030203901291E
:1059F000F9DABFF34F8FBFF36F8F704701290EDBCA
:105A000010F01F025118BFF34F8F0B4A1060203067
:105A100020390129F9DABFF34F8FBFF36F8F704739
:105A2000FAF9F8F7C81F082828ED00E0A4A3A2A1FE
:105A3000ABAAA9A85CEF00E068EF00E0DFF83C0447
:105A40000068400B10F001007047DFF83004006878
:105A5000000B10F001007047DFF82404016851F0DA
:105A6000010101600168C907FCD470471FB504003B
:105A7000C9B2012924D16846102100F035FA6946DF
:105A80002000FFF7E4FD0100C9B2012902D1DFF8CF
:105A9000F4031EE00100C9B2022902D1DFF8E803D5
:105AA00017E0C0B2042802D1DFF8E00311E000984B
:105AB00000F0F6F800280CD1FFF7CEFF002008E038
:105AC0002000FFF720FE002802D0DFF8B80300E036
:105AD000002004B010BD38B584B00C001500002CB7
