:020000041008E2
:100000000000082835A0081031A80810EDA4081039
:1000100035A8081039A808103DA8081000000000F5
:10002000000000000000000000000000A1A5081072
:1000300041A808100000000045A8081049A80810B1
:10004000379D08105D9D0810839D0810A99D08101C
:10005000CF9D0810F59D08101B9E0810419E0810AA
:100060004DA8081051A8081055A8081059A8081044
:100070005DA8081061A8081065A8081069A80810F4
:1000800040F0200070472DE9F14FB0B09246049146
:100090000DF142013A9A2B9199464A7000200AE0EC
:1000A0001AF8011B0498309A90470028049000F039
:1000B00034860D98401C0D909AF8000050B1252808
:1000C000EED1002100220791089209910A920B912A
:1000D0000C9204E00D9800F022BE41F001011AF8E4
:1000E000010F2028F9D023280CD02B2804D02D284C
:1000F00005D0302809D00BE041F00201EFE741F0D4
:100100000401ECE741F00801E9E741F01001E6E7FE
:100110002A280FD1D9F8002052F8040BC9F8002082
:1001200000280F9003D540420F9041F004010AF1DE
:10013000010A14E00F92DFF8EC3B0AE00F989842B6
:1001400005DA00EB800402EB4402303A0F920AF128
:10015000010A9AF80020A2F130000A28EED39AF89A
:1001600000002E2803D04FF0FF320E9229E01AF83B
:10017000010F2A2809D1D9F8000050F8042BC9F83A
:1001800000000E920AF1010A1BE02D280CBF0AF1B3
:10019000010A002000220E92DFF8884B0BE040B9E4
:1001A0000E9AA24205DA02EB820503EB4503303BCF
:1001B0000E930AF1010A9AF80030A3F130020A2ADC
:1001C000EDD3ADF840100FF660309AF8001000F053
:1001D000EDFE08B11AF8010B8DF842009DF84200BF
:1001E000682805D19AF8000068280CD1622106E041
:1001F0006C2804BF9AF800006C2804D171218DF896
:1002000042100AF1010A12A806901AF801BBBBF1CC
:1002100025012CD01C3900F09481091F022940F2DD
:100220009081133900F0AB84093900F08A81891E6E
:1002300000F04085491E00F0ED84491E022940F27D
:100240008081091F00F0E684491F00F0EF80491EFD
:1002500000F09584491E00F0D780C91E0CD0891E7D
:1002600000F08D84C91E00F08A8400F02EBD0123A9
:100270000793252100F026BDD9F8000050F8044B63
:10028000C9F80000002C059440F0AB802B99487809
:10029000002800F0A1804FF0FF340FF6942000F00A
:1002A00095FE241A40F0398500F01BBD01236A46F3
:1002B00002A9304600F000FE002840F02E85641EA2
:1002C000F4D13096079C12AF74B1309E17F8011B21
:1002D0000498B0470028049000F01F850D98401C3A
:1002E000641E0D90F2D130960A9C3021002C8DF8BE
:1002F00000100CDD309E01236A4602A9304600F052
:10030000DBFD002840F00985641EF4D13096059F7E
:10031000089C74B1309E17F8011B0498B047002860
:10032000049000F0FA840D98401C641E0D90F2D1E8
:1003300030960B9C3021002C8DF800100CDD309E87
:1003400001236A4602A9304600F0B6FD002840F0BD
:10035000E484641EF4D1309605980899099C4718E6
:1003600074B1309E17F8011B0498B0470028049020
:1003700000F0D3840D98401C641E0D90F2D130968D
:100380000C9C3021002C8DF800100CDD309E0123D8
:100390006A4602A9304600F08FFD002840F0BD8477
:1003A000641EF4D130969DF8400041077FF584AE7D
:1003B0002020002D8DF800007FF77EAE309C0123B9
:1003C0006A4602A9204600F077FD002840F0A58487
:1003D0006D1EF4D130946FE60FF63C30059000F0BE
:1003E00080BC0E9D002D04D5204600F00FFE044673
:1003F00007E02A46204600F025FE002814BF041B13
:100400002C46089400F06DBCD9F8001051F8040B8C
:10041000C9F8001020F00004002121F0FF35CDE9DB
:10042000024512AB0593782100F040BC2B99487827
:1004300020B14FF0FF340FF6B02030E79DF84200B6
:10044000622860D0682817D06A283FD06C2806D070
:10045000712847D074282CD07A281DD062E0D9F8B2
:10046000001051F8040BC9F80010002866D14FF0B5
:10047000FF340FF68C2012E7D9F8001051F8040B66
:10048000C9F8001020B94FF0FF340FF6742006E7CA
:100490000D99018000F025BCD9F8001051F8040B2B
:1004A000C9F80010002849D14FF0FF340FF6502052
:1004B000F5E6D9F8001051F8040BC9F8001000282F
:1004C0003CD14FF0FF340FF63820E8E6D9F80010A1
:1004D00051F8040BC9F8001080B94FF0FF340FF643
:1004E0002020DCE6D9F8001051F8040BC9F8001000
:1004F00020B94FF0FF340FF60820D0E60D9AD3173D
:10050000C0E90023EDE3D9F8001051F8040BC9F855
:10051000001020B94FF0FF340FF6E410BFE60D993C
:100520000170DEE3D9F8001051F8040BC9F800108F
:1005300020B94FF0FF340FF6C810B0E60D990160F6
:10054000CFE39DF842004C2807BFD9F80010CA1D20
:10055000D9F80000C21D22F00702C9F80020D2E934
:1005600000010832C9F80020CDE90201C80F02D00D
:1005700007982D210AE0BDF84000810702D50798B1
:100580002B2103E0C00705D50798202112AA11549A
:10059000401C079012A807994BF0200300EB010CB8
:1005A000DDE90201CDE92C01612BCDF814C021ACAD
:1005B0000BD00E98002848BF062105D404BF4BF08D
:1005C0002000672801D101210E91DDE902014F00D1
:1005D00047EAD0777E15FF174FF0FF32974208BFEA
:1005E000964210D1090341EA10510003002908BFC7
:1005F000002808D0ABF1610503211A2D089118D30A
:100600000FF61C1110E0DDE902014A00521512F14B
:10061000010F11D108030FD1ABF1610503211A2D90
:1006200008911FD30FF600110322604600F036FD3B
:1006300057E30FF6E801F7E7DDE902016A4600F04B
:1006400081FDCDE902014BF02000612811D1059810
:1006500030210170821C0592BBF1610F0CBF782123
:10066000582102E00FF6BC01DEE741700798801CBC
:100670000790DDE9020120F0000231F0004308BFDD
:10068000002A02D10026002542E14BF02008B8F1F3
:10069000610F40F092800E98002847BF2121019100
:1006A000401C0190019FDDE92C017F1C00220023EA
:1006B000DDE9024500F07EFD38BF85F00045009978
:1006C0008DF88420091F002F00910DF1850632DD81
:1006D000204629460022002300F086FD2BD21C2252
:1006E00000F09CFD04460D4600F01AFEFF1F002F8F
:1006F000804609DD00F01BFE02460B4620462946D7
:1007000000F01CFE04460D46F01D0721B8F1000F55
:100710000CDD491E5EBF08F00F0200F8012D4FEA04
:100720002818F3D502E0002200F8012D491EFAD561
:10073000C61D002FCCDC0DF18500361A01980DF195
:1007400085048642D8BF304600282FD4B04206DA4E
:100750000DF185010A5C082AA8BF0F2100DA0021EB
:10076000024621AB134400E0401E13F80159521E0B
:100770008D42F9D00F2904D10DF185018B5C5B1CF2
:100780008B54002A04D50099091D21AC401C00910E
:10079000411E0BD4621813783033DDB23A2DA4BF5A
:1007A0005B443A3B491E02F80139F4D50E99002901
:1007B00040F1AC80421E0E92A8E00099DFF8E826D6
:1007C00047F29750414391FBF2F20092DDE92C454C
:1007D000C2F10702002A25F0004504DD2046294623
:1007E00000F03EFB0BE052420020DFF8C01600F0A4
:1007F00037FB02460B462046294600F0A8FD04467A
:100800000D46B8F1660F06BF009F0A3706270E98FF
:100810003F18142FC8BF142730208DF884000DF125
:100820008506002F34DD2046294600F099FD01465B
:100830000A4606F1080304200A26B2FBF6F606EB88
:10084000860EA2EB4E02303203F8012C0A22B6FBD0
:10085000F2F202EB820EA6EB4E063036401E03F893
:10086000026DE9D1083F002F03F10806D9DD0846E3
:1008700000F07DFD02460B462046294600F05EFD55
:100880000022DFF82C3600F079FD04460D46CAE759
:100890000DF18500361A0DF1850404E00098401E24
:1008A000761E0090641C20783028F7D0B8F1660FCF
:1008B00002D10098401C04E0B8F1650F0CBF012084
:1008C00000200E9940188642B8BF701E00281DD423
:1008D000B04204DA215C3429C8BF392100DC302160
:1008E0000246631E9D1800E0401E15F80169521E65
:1008F0008E42F9D0392902D1A15C491CA154002AA9
:1009000004D50099491C1C46401C00910646009DD8
:100910000E9F30B2002802DC01260FF210644BF06B
:100920002000662808BF6D1C15D067280FFA85F8CF
:1009300041D118F1040F44DBB84542DA9DF840007C
:100940006D1C010703D430B2B842D8BF074628B2A5
:100950003F1A48BF00270FFA85F8B8F1000F00F3DF
:10096000AF800898411C0891302205990A54002F45
:1009700003DC9DF84000010705D50898411C08914B
:100980002E2205990A5417EB080FB8BF7D422DB2ED
:100990006842ED1932B20B909542B8BF2E46059BC6
:1009A000089836B2099632462146184400F076FB84
:1009B000AD1B0C95CCE0BBF1610F15D14FF0700B66
:1009C00017E030B2B84204DA9DF840100A0758BF69
:1009D00007467F1E48BF0027BBF1670F14BF4FF0CB
:1009E000450B4FF0650B04E0BBF1410F08BF4FF022
:1009F000500B0898411C0891002F059914F8012B01
:100A00000A5403DC9DF84000010719D50898411CE1
:100A100008912E2205990A54002F11DD761E30B25E
:100A20008742B8BF3E460598089B32B2214618441B
:100A300000F034FB089836B23018BF1B08900B97B3
:100A4000059808990844B8F1000F80F800B003D465
:100A50002B224270821C04E02D2145464170821CED
:100A60006D4200212CAB28460AE004460A2094FB84
:100A7000F0F000EB8005A4EB450403F8014B491CA2
:100A800000B20028F1DC012906DC4BF020006528CB
:100A900004BF302002F8010B00292CAB08D1302014
:100AA00002F8010B06E0491E585C303002F8010BD9
:100AB0000029F8DC059908980844121A099247E0C1
:100AC00030B229B288421BDA0598089B32B221461F
:100AD000184400F0E3FA089936B271180891A8EBAF
:100AE0000600002F0B9003DC9DF84000020705D59F
:100AF000059A2E2050540999491C09910C9727E01A
:100B00000598089B2AB22146184400F0C7FA0898B5
:100B1000761B4044002F089003DC9DF840100A0724
:100B200004D5411C08912E2205990A5430B28742FF
:100B3000B8BF3E460598089B32B204EB0801184442
:100B400000F0ACFA089836B23018BE1B08900B962D
:100B50009DF8400000F01400102840F0C280079A71
:100B600008980B99821809988A1882180C980F997E
:100B70008018884280F2B580081A0A90B1E09DF88A
:100B80004200622808D068280ED06A2814D06C2849
:100B90001FD0712810D01CE0D9F8001051F8040BB8
:100BA000C9F80010C0B21AE0D9F8001051F8040BCF
:100BB000C9F8001080B212E0D9F80000C21D22F07E
:100BC0000702C9F80020D2E900010832C9F8002064
:100BD00006E0D9F8001051F8040BC9F80010002104
:100BE000CDE902019DF8400001075AD5DDE9022355
:100BF000002B08BF002A54D04BF02000782850D199
:100C0000079812A930220A54401C431C079301F88C
:100C100000B046E09DF84200622808D068280ED057
:100C20006A2814D06C281FD0712810D01CE0D9F885
:100C3000001051F8040BC9F8001040B21AE0D9F8BE
:100C4000001051F8040BC9F8001000B212E0D9F8F6
:100C50000000C21D22F00702C9F80020D2E90001FD
:100C60000832C9F8002006E0D9F8001051F8040B4A
:100C7000C9F80010C117CDE90201002902D5079873
:100C80002D210AE0BDF84000810702D507982B21ED
:100C900003E0C00705D50798202112AA1154401C73
:100CA000079012A8079901440591594602A800F03F
:100CB0004DF816E001200790D9F8000050F8041B09
:100CC000C9F800008DF848100BE001212522BBF186
:100CD000000F07918DF8482003D0022207928DF86B
:100CE00049B00F9D07990A986D1A08992D1A0B980B
:100CF0006D1A09992D1A0C986D1A9DF840102D1A2D
:100D000048073FF5DFAA2021002D8DF800107FF75E
:100D1000D9AA309E2C46FFF7C9BA4FF0FF3031B048
:100D2000BDE8F08FCBCCCC0C686A6C747A4C0000B8
:100D30007072696E74665F733A2062616420257315
:100D400020617267756D656E740000002DE9FC47C7
:100D500007468A463C6950466F2808BF082505D0DB
:100D6000FFF78EF9782814BF0A251025D7E900016E
:100D70003C2680468946BAF1640F18BFBAF1690F64
:100D800005D1002903D5D8F1000869EB4909B9F16B
:100D9000000F08BFB8F1000F0CD1386B50B9082D07
:100DA0003AD197F83800010736D530223B2684F82F
:100DB0003B2031E08DF800A0404649462A46EB171B
:100DC00000F0E6FA3032D0B2761E3A2801960EDAFA
:100DD000A255404649462A46EB1700F0D9FA80460C
:100DE0005FEA010908BFB8F1000F05D108E09DF8DE
:100DF00000001218513AEBE7F868A1198842DBD3DA
:100E0000082D09D197F83800010705D5A05D3028D5
:100E100002D0761E3020A055C6F13C03BB61A1195B
:100E2000F960386B834208DAC31A3B624FF6EF7001
:100E3000398F01403987BDE8F38700280ED597F830
:100E4000380000F01400102808D17A6B7969386AEC
:100E5000521A121AD21A002AC8BF3A62BDE8F387A2
:100E60002DE9D04306460F4614464FF00008DFF840
:100E7000449012E0E00707D542464B4630463946DB
:100E800000F07CFA06460F464046494642464B462D
:100E900000F074FA641080468946002CEAD130468E
:100EA0003946BDE8D0830000A08601000000F03F75
:100EB00084D7974100002440F8B505460E461746F2
:100EC0001C4600205CB117F8011BB068A847B06051
:100ED00030B1F06A401CF0620020641EF3D1F2BD14
:100EE0004FF0FF30F2BD00007072696E74665F7380
:100EF0003A20256E20646973616C6C6F77656400BD
:100F00007072696E74663A2062616420256E206199
:100F10007267756D656E7400000000006E616E0092
:100F20004E414E00696E6600494E46003000F0B4F6
:100F30000246106895681318506803EB5004C00708
:100F400048BF4D44A3422DD013F8016B16F00300A7
:100F500004BF13F8010BC01C31090F2907D113F886
:100F6000011B0F3103E013F8017B05F8017B401EE4
:100F7000F9D10029E6D013F8010BC6F38106032E40
:100F800008BF13F8016B00EB0620404228440026FE
:100F9000B71E8F421EBF10F8017B05F8017B761C3F
:100FA000F6D1CFE7F0BC02F10C007047C9B202786D
:100FB0008A421AB11CBF10F8012FF9E718BF0020B0
:100FC00070470268531C03601170704780B500B908
:100FD00006A005490B681BB122220021984701E0B9
:100FE00000F0EEFA222002BD980F0228636F6E73A4
:100FF000747261696E742068616E646C65723A2007
:10100000626164206D6573736167650000F10103BF
:10101000810704D010F8011B820781B1FAD1026860
:10102000A2F10131914311F0803104BF50F8042F37
:10103000F6E709BAB1FA81F100EBD100401CC01A01
:1010400070470000C9B2830706D0521E22D310F8A1
:10105000013B9942F7D11FE0083A13D302F1040291
:1010600041EA012141EA014150F8043B121F21BF2E
:101070004B40A3F1013C2CEA030C1CF0803FF3D061
:10108000C9B2001F083210F8013B521E28BF91EA76
:10109000030FF8D818BF0120401E704762B38B07BA
:1010A00008D0521E11F8013B00F8013B00F02480EB
:1010B0008B07F6D1830740F0208000BF103A07D39A
:1010C00030B4B1E83810103AA0E83810F9D230BC8A
:1010D000530724BFB1E80810A0E8081044BF51F836
:1010E000043B40F8043BD20724BF31F8022B20F820
:1010F000022B44BF0B7803707047121F17D35B009D
:1011000009D151F8043B20F8023B1B0C121F20F8B8
:10111000023BF6D20BE051F8043B00F8013B1B0AFE
:1011200020F8023B1B0C121F00F8013BF3D238BF22
:10113000121D521E24BF11F8013B00F8013BF8D8E4
:101140007047000010B5144600F002F8226010BD90
:10115000C1F30A5343B14A0012F5001F28D2A3F28B
:10116000FE32A1EB0251704750EA410C20D001F051
:10117000004C31EA0C01B1FA81F204BFB0FA80F3FD
:10118000D2180B3AB2F120032CBF00FA03F19140C0
:1011900041EA0C013EBFC2F1200C20FA0CF31943C6
:1011A0009040524240F2FD33D21A01EB0351704796
:1011B0000022704741EA030C50EA4C0C52EA0C0C36
:1011C0004FF4001C09D307D01CEB410F9CBF1CEB54
:1011D000430F8B4208BF824270471CEB430FFBD882
:1011E000994208BF9042704741EA030C50EA4C0C08
:1011F00052EA0C0C4FF4001C09D307D01CEB410F32
:101200009CBF1CEB430F994208BF904270471CEBF8
:10121000410FFBD88B4208BF8242704700B541ECBA
:10122000100B104600F004F851EC100B00BD00BF8D
:10123000020030EE101B40F2FF7C37D41CEA115341
:1012400013D063456BD09B18634504D201EB025168
:1012500020EE101B704701F0004141EA0C510020C4
:1012600041EC100BAFF30080704710EE100B50EA0A
:10127000410054D0B2F57F7F08D202EB5C01090532
:10128000002041EC110B20EE010B70474FF0FE41A6
:10129000002341EC113B20EE010BB2F57E7230EEE3
:1012A000101B4FEA410342EB5353CDE752421CEA75
:1012B000115316D0634532D09A4204D2A1EB0251A9
:1012C00020EE101B70475B1ED21AA1EB035120EEDB
:1012D000101B372A0CD3002001F0004141EC100B09
:1012E000C0E710EE100B50EA410018D0372AF2D2B6
:1012F000C2EB5C021105002041EC110BF1EE100A6B
:1013000020F01F0121F4F851E1EE101A20EE010B3C
:10131000F1EE101AE1EE100A11F0080FA2D1704799
:1013200041EC100BBDEEC00B10EE100A704700EE42
:10133000100AB8EEC00B51EC100B704741EC100BCB
:1013400043EC112B30EE410B51EC100B704741EC8C
:10135000100B43EC112B80EE010B51EC100B70477E
:1013600041EC100BBCEEC00B10EE100A704700EE03
:10137000100AB8EE400B51EC100B704741EC100B0B
:1013800043EC112B20EE010B51EC100B70470000C9
:10139000BBBBE1B1B2F5803F80F07E80022A1ED94E
:1013A0008C46B1FBF2F102FB11C31B0443EA10436C
:1013B000B3FBF2FC02FB1C3380B240EA0343B3FBF5
:1013C000F2F002FB103240EA0C4000237047022A80
:1013D00005D98446B0FBF2F002FB10C270474AB157
:1013E00005D100F0010249085FEA30007047002291
:1013F0000023704700F0E8B80B0002000021002035
:101400007047904271EB030CF6D3B3F5803F2FD2B7
:10141000F0B5B3FA83F7B1FA81F4A7F10F0E3D1BD3
:101420005340CEF1200602FA0EF2F3415340B5F1DB
:101430000F0746D80F3C2C444140C4F12006A04081
:10144000F1414140B1FBF3F603FB1611A2FB064547
:10145000001BA94102D2761E8018594180EA010280
:1014600021FA0EF362FA0EF200215A403046F0BD26
:1014700030B4B1FBF3FC03FB1C11A2FB0C45001BB9
:10148000A94103D2ACF1010C8018594130BC02468D
:101490000B46604600217047B2F1807F65D3F0B5FE
:1014A000B2FA82F7B1FA81F4C7F10F063D1B22FAB6
:1014B00006F307F1110EF24120355A40B5F10F073E
:1014C000B8D94140C4F12006A040F1414140B1FBF0
:1014D000F3FC03FB1C11A2FB0C45001BA94103D22A
:1014E000BCF1010C801859410F2F12D30F3FC903D3
:1014F00041EA5041B1FBF3F603FB1611A2FB06458E
:10150000D4EBC030A94102D2761E8018594146EA78
:10151000CC3C07B34140C7F12006B840F1414140FF
:10152000B1FBF3F603FB1611A2FB0645001BA94114
:1015300002D2761E8018594180EA010221FA0EF388
:10154000C7F1200462FA0EF20CFA07F05A402CFAA6
:1015500004F13043F0BD80EA010221FA0EF30021CC
:1015600062FA0EF260465A40F0BD8C46B1FBF2F1D1
:1015700002FB11C31B0243EA1063B3FBF2FC02FB44
:101580001C331B024CEA002043EA1063B3FBF2FC5D
:1015900002FB1C331B024CEA002043EA1063B3FB3E
:1015A000F2FC02FB1C331B024CEA002043EA1063EE
:1015B000B3FBF2FC02FB1C324CEA00200023704714
:1015C000012000F003B800007047000080B5AFF3C1
:1015D0000080024A11001820ABBEFBE72600020083
:1015E000022801D3012010E00B00DBB2042B01DB49
:1015F00001200AE0DFF8283803EB8000C9B2405C24
:10160000824201D3012000E000207047F8B50600B7
:101610000F0015001C00022E01D301201DE02A003E
:101620003900C9B23000FFF7DBFF012801D10120EA
:1016300013E03800C0B2002812D1B4F5807F0DD27B
:10164000DFF8E0077603304400EB850010F58050AA
:10165000016864F30F2101600020F2BD0120FCE766
:10166000FFB2012F11D1B4F5803F0CD2DFF8B407DF
:101670007603304400EB850010F5A050016864F358
:1016800017210160E8E70120E7E70120E5E700B264
:101690000012C0B27047F8B505000E001700280010
:1016A00000B2FFF7F4FF04002000C0B2022801D30B
:1016B000012024E03A003100C9B22000C0B2FFF797
:1016C0008FFF012801D1012019E0DFF85817200011
:1016D000C0B2400308442A00D2B200EB8200D0F826
:1016E000000CF6B266F3092067F30700E4B2640366
:1016F0002144EDB201EB8501C1F8000C0020F2BDE0
:1017000070B504000D001600022C01D301201DE06D
:1017100032002900C9B22000FFF762FF012801D181
:10172000012013E0DFF8FC166003085850F0004079
:1017300050F0407050F47F00EDB265F3092066F37D
:1017400007006203885064030859002070BD10B57B
:10175000C0B2002800F0EA80022800F0EB80C0F060
:10176000E780042800F0EA80C0F0E680062800F058
:10177000E980C0F0E580082800F0E880C0F0E4804F
:101780000A2800F0E780C0F0E3800C2800F0E68033
:10179000C0F0E2800E2800F0E580C0F0E180102863
:1017A00000F0E480C0F0E080122800F0E380C0F098
:1017B000DF80142800F0E280C0F0DE80162800F000
:1017C000E180C0F0DD80182800F0E080C0F0DC800F
:1017D0001A2800F0DF80C0F0DB801C2800F0DE80DB
:1017E000C0F0DA801E2800F0DD80C0F0D98020280B
:1017F00000F0DC80C0F0D880222800F0DB80C0F050
:10180000D780242800F0DA80C0F0D680262800F0A7
:10181000D980C0F0D580282800F0D880C0F0D480CE
:101820002A2800F0D780C0F0D3802C2800F0D68082
:10183000C0F0D2802E2800F0D580C0F0D1803028B2
:1018400000F0D480C0F0D080322800F0D380C0F007
:10185000CF80342800F0D280C0F0CE80362800F04F
:10186000D180C0F0CD80382800F0D080C0F0CC808E
:101870003A2800F0CF80C0F0CB803C2800F0CE802A
:10188000C0F0CA803E2800F0CD80C0F0C98040285A
:1018900000F0CC80C0F0C880422800F0CB80C0F0BF
:1018A000C780442800F0CA80C0F0C680462800F0F7
:1018B000C980C0F0C580482800F0C880C0F0C4804E
:1018C0004A2800F0C780C0F0C3804C2800F0C680D2
:1018D000C0F0C2804E2800F0C580C0F0C180502802
:1018E00000F0C480C0F0C080522800F0C380C0F077
:1018F000BF80542800F0C280C0F0BE80562800F09F
:10190000C180C0F0BD80582800F0C080C0F0BC800D
:101910005A2800F0BF80C0F0BB805C2800F0BE8079
:10192000C0F0BA805D2800F0BB80BBE01924BFE0A6
:101930003124BDE01824BBE03324B9E03524B7E0FE
:101940001424B5E03724B3E01324B1E02024AFE041
:101950001224ADE02124ABE01124A9E01024A7E07B
:101960002824A5E02924A3E02A24A1E009249FE05B
:101970002B249DE008249BE02C2499E0032497E08D
:10198000022495E0392493E03B2491E03D248FE04C
:1019900001248DE03F248BE0002489E0402487E08F
:1019A000412485E0422483E0432481E0BF247FE09A
:1019B00048247DE049247BE0BC2479E0992477E049
:1019C0009A2475E0502473E09B2471E0B6246FE004
:1019D00051246DE09C246BE0B52469E0522467E05B
:1019E000A02465E0B42463E0532461E0B3245FE005
:1019F00054245DE0B2245BE0B12459E0AD2457E00B
:101A0000602455E0AE2453E0612451E0AD244FE062
:101A100062244DE063244BE0AB2449E0642447E0BA
:101A2000AA2445E0652443E0A92441E0A8243FE03E
:101A300069243DE06B243BE06D2439E06F2437E0FE
:101A4000A32435E0702433E0A22431E071242FE098
:101A5000A1242DE097242BE0962429E0742427E08C
:101A6000952425E0752423E0942421E093241FE0AD
:101A700092241DE078241BE0792419E08C2417E0DF
:101A80007A2415E08B2413E07B2411E08A240FE0F4
:101A90005A240DE059240BE0892409E0582407E07A
:101AA000882405E09D22DFF84019002000F02CFE7C
:101AB0002000C0B210BD10B5C0B2002800F0EA800E
:101AC000022800F0EB80C0F0E780042800F0EA80F4
:101AD000C0F0E680062800F0E980C0F0E580082824
:101AE00000F0E880C0F0E4800A2800F0E780C0F051
:101AF000E3800C2800F0E680C0F0E2800E2800F0C1
:101B0000E580C0F0E180102800F0E480C0F0E080C3
:101B1000122800F0E380C0F0DF80142800F0E2809B
:101B2000C0F0DE80162800F0E180C0F0DD801828CB
:101B300000F0E080C0F0DC801A2800F0DF80C0F008
:101B4000DB801C2800F0DE80C0F0DA801E2800F068
:101B5000DD80C0F0D980202800F0DC80C0F0D88083
:101B6000222800F0DB80C0F0D780242800F0DA8043
:101B7000C0F0D680262800F0D980C0F0D580282873
:101B800000F0D880C0F0D4802A2800F0D780C0F0C0
:101B9000D3802C2800F0D680C0F0D2802E2800F010
:101BA000D580C0F0D180302800F0D480C0F0D08043
:101BB000322800F0D380C0F0CF80342800F0D280EB
:101BC000C0F0CE80362800F0D180C0F0CD8038281B
:101BD00000F0D080C0F0CC803A2800F0CF80C0F078
:101BE000CB803C2800F0CE80C0F0CA803E2800F0B8
:101BF000CD80C0F0C980402800F0CC80C0F0C88003
:101C0000422800F0CB80C0F0C780442800F0CA8092
:101C1000C0F0C680462800F0C980C0F0C5804828C2
:101C200000F0C880C0F0C4804A2800F0C780C0F02F
:101C3000C3804C2800F0C680C0F0C2804E2800F05F
:101C4000C580C0F0C180502800F0C480C0F0C080C2
:101C5000522800F0C380C0F0BF80542800F0C2803A
:101C6000C0F0BE80562800F0C180C0F0BD8058286A
:101C700000F0C080C0F0BC805A2800F0BF80C0F0E7
:101C8000BB805C2800F0BE80C0F0BA805D2800F008
:101C9000BB80BBE00824C0E00824BEE00824BCE010
:101CA0000824BAE00824B8E00824B6E00824B4E028
:101CB0000824B2E00824B0E00824AEE00824ACE038
:101CC0000824AAE00824A8E00824A6E00824A4E048
:101CD0000824A2E00824A0E008249EE008249CE058
:101CE00008249AE0082498E0082496E0082494E068
:101CF000082492E0082490E008248EE008248CE078
:101D000008248AE0082488E0082486E0082484E087
:101D1000082482E0082480E008247EE008247CE097
:101D200008247AE0082478E0082476E0082474E0A7
:101D3000082472E0082470E008246EE008246CE0B7
:101D400008246AE0082468E0082466E0082464E0C7
:101D5000082462E0082460E008245EE008245CE0D7
:101D600008245AE0162458E0082456E0082454E0D9
:101D7000082452E0082450E008244EE008244CE0F7
:101D800008244AE0082448E0082446E0082444E007
:101D9000082442E0082440E008243EE008243CE017
:101DA00008243AE0082438E0082436E0082434E027
:101DB000082432E0082430E008242EE008242CE037
:101DC00008242AE0082428E0082426E0082424E047
:101DD000082422E0082420E008241EE008241CE057
:101DE00008241AE0082418E0082416E0082414E067
:101DF000082412E0082410E008240EE008240CE077
:101E000008240AE0082408E0082406E04FF486725B
:101E1000DFF8D415002000F077FC2000C0B210BD20
:101E2000D0A608100000044080B5C0B2002800F021
:101E3000EA80022800F0EB80C0F0E780042800F080
:101E4000EA80C0F0E680062800F0E980C0F0E58076
:101E5000082800F0E880C0F0E4800A2800F0E7805D
:101E6000C0F0E3800C2800F0E680C0F0E2800E288D
:101E700000F0E580C0F0E180102800F0E480C0F0C0
:101E8000E080122800F0E380C0F0DF80142800F02A
:101E9000E280C0F0DE80162800F0E180C0F0DD8036
:101EA000182800F0E080C0F0DC801A2800F0DF8005
:101EB000C0F0DB801C2800F0DE80C0F0DA801E2835
:101EC00000F0DD80C0F0D980202800F0DC80C0F078
:101ED000D880222800F0DB80C0F0D780242800F0D2
:101EE000DA80C0F0D680262800F0D980C0F0D580F6
:101EF000282800F0D880C0F0D4802A2800F0D780AD
:101F0000C0F0D3802C2800F0D680C0F0D2802E28DC
:101F100000F0D580C0F0D180302800F0D480C0F02F
:101F2000D080322800F0D380C0F0CF80342800F079
:101F3000D280C0F0CE80362800F0D180C0F0CD80B5
:101F4000382800F0D080C0F0CC803A2800F0CF8054
:101F5000C0F0CB803C2800F0CE80C0F0CA803E2884
:101F600000F0CD80C0F0C980402800F0CC80C0F0E7
:101F7000C880422800F0CB80C0F0C780442800F021
:101F8000CA80C0F0C680462800F0C980C0F0C58075
:101F9000482800F0C880C0F0C4804A2800F0C780FC
:101FA000C0F0C3804C2800F0C680C0F0C2804E282C
:101FB00000F0C580C0F0C180502800F0C480C0F09F
:101FC000C080522800F0C380C0F0BF80542800F0C9
:101FD000C280C0F0BE80562800F0C180C0F0BD8035
:101FE000582800F0C080C0F0BC805A2800F0BF80A4
:101FF000C0F0BB805C2800F0BE80C0F0BA805D28D5
:1020000000F0BB80BBE00020C0E00020BEE001206B
:10201000BCE00120BAE00220B8E00320B6E00320D3
:10202000B4E00420B2E00420B0E00520AEE00520DA
:10203000ACE00620AAE00720A8E00920A6E00A20DC
:10204000A4E00B20A2E00B20A0E00C209EE00C20DE
:102050009CE00D209AE00D2098E00E2096E00F20E5
:1020600094E0102092E0112090E011208EE01220E8
:102070008CE012208AE0132088E0142086E01520EE
:1020800084E0162082E0162080E018207EE01920EF
:102090007CE019207AE01A2078E01B2076E01C20F2
:1020A00074E01C2072E01C2070E01D206EE01D20FA
:1020B0006CE01D206AE01E2068E01E2066E01E2005
:1020C00064E01F2062E01F2060E020205EE020200E
:1020D0005CE021205AE0222058E0242056E0242011
:1020E00054E0252052E0252050E026204EE0272015
:1020F0004CE027204AE0282048E0282046E029201C
:1021000044E0292042E02A2040E02C203EE02D201F
:102110003CE02E203AE02F2038E02F2036E030201F
:1021200034E0302032E0312030E031202EE0322027
:102130002CE033202AE0342028E0342026E035202B
:1021400024E0352022E0362020E037201EE0382031
:102150001CE039201AE0392018E03A2016E03A2035
:1021600014E03B2012E03B2010E03B200EE03C203E
:102170000CE03C200AE03D2008E03D2006E040F273
:102180007B129949002000F0BFFA0020C0B202BDC6
:10219000002007E09549C2018A5822F00042C3019D
:1021A000CA50401C3F28F5DB704770B504000E0094
:1021B000002000202000C0B2FFF736FE8B4DC0B2D9
:1021C000C0012844006A80B206FB00F642F210709B
:1021D000B6FBF0F62000C0B2FFF726FEC00128448F
:1021E000B6B246612000C0B2FFF71EFE0100C9B2C0
:1021F000C9012944096C51F00101C0B2C001284451
:10220000016470BD2DE9F041AAB004000D00160074
:10221000342100221DAF380000F006FB002074219D
:1022200000226F46380000F0FFFA0E201E902000BA
:10223000C0B2FFF740FC8DF87C002000C0B2FFF771
:1022400086FA07005FF008082000C0B2FFF77FFAA7
:102250001DAA97FBF8F108FB11773900644BC0B257
:10226000C010C001184400F09EFB2000C0B2FFF770
:10227000DBFD00220121C0B210F5937000B2FFF720
:102280000AFA2000C0B2FFF7CFFDC0B210F593707C
:1022900000B2FFF7FCF9092300220121C0B2FFF7C9
:1022A000B5F92000C0B2FFF7BFFDC0B210F59370C2
:1022B00000B2FFF7ECF900220121C0B2FFF720FACB
:1022C0004C48B0FBF5F1090C4A482A04B0FBF2F384
:1022D00002FB1300002800D0491C022903D2002071
:1022E0008DF801002FE0032903D201208DF80100B1
:1022F00029E0052903D202208DF8010023E00929F5
:1023000003D203208DF801001DE0112903D204201F
:102310008DF8010017E0212903D205208DF8010076
:1023200011E0412903D206208DF801000BE081293C
:1023300003D207208DF8010005E040F2C9122A49B6
:10234000002000F0E1F904208DF8000001208DF854
:10235000100000208DF8110003208DF812000320DA
:102360008DF8130000208DF80800224901229DF904
:1023700001008240B1FBF2F0B0FBF5F0401E059089
:102380000598401C06FB00F642F21070B6FBF0F018
:10239000089002208DF8400003208DF8680001208D
:1023A0001B9001208DF828002000C0B2FFF73CFDF3
:1023B0000E4D6946C0B2C001284400F033FB200036
:1023C000C0B2FFF731FDC0B2C001284400F02AFCC2
:1023D0002000C0B2FFF728FDC0B2C001284400F0C1
:1023E00026FC2AB0BDE8F08140A308100000584048
:1023F0000000314000127A0082B0002001900020DD
:1024000000900020019009E00098401C0090009886
:10241000B0F5005FF8D30198401C01900198B0F529
:10242000805F02D200200090F1E702B0704780B5D3
:102430000100002000F005FE01BD2DE9F043ADF5DF
:10244000137D0700884616001C000020ADF802002E
:102450000020ADF80000002002900020ADF804003C
:102460000020ADF806004046FEF7D0FD0290DFF8F0
:1024700080532888002801D028698047DFF874033A
:102480000078002800F033812888002800F01181AE
:10249000BDF90600411CADF806103A00010089B2F2
:1024A0000020EB68984747464046FEF7AFFD029094
:1024B0006888A97990FBF1F0ADF804003800471C5A
:1024C00000780028FAD10020ADF800000EE07F1E51
:1024D00038782F2802D038785C2804D1BDF8000065
:1024E000401CADF800000298401E0290BDF80000AC
:1024F000022802DA02980028E9D50298002806D4BA
:102500007A1CDFF8F41253A801F08CF80EE0BDF845
:102510000000002805D13A00B84953A801F082F81C
:1025200004E03A00B44953A801F07CF80020ADF86B
:10253000020042E0BDF80010BDF80020BDF80230F6
:1025400053AF9BB2BDF90400434313FA82F0385CE9
:1025500043AA89B25054BDF80000401CADF80000F9
:10256000BDF8000080B2BDF9041088420EDA53A80D
:10257000FEF74CFDBDF80020BDF802309BB2BDF95E
:1025800004104B4313FA82F18842D3D2002043A9AE
:10259000BDF800208854BDF90600411CADF80610B6
:1025A00043AAE97911FB00F189B20020EB68984752
:1025B000BDF80200401CADF80200BDF8027053A83F
:1025C000FEF724FDBDF90410B0FBF1F0401CBFB2D2
:1025D000874203D20020ADF80000C1E732008849ED
:1025E00053A801F01FF8BDF90600411CADF8061014
:1025F00053AAE97911FB00F189B20020EB689847F2
:10260000002C74D00020ADF8020041E0BDF80010AD
:10261000BDF80020BDF802309BB2BDF90400434371
:1026200013FA82F0205C43AA89B25054BDF800002E
:10263000401CADF80000BDF8000080B2BDF90410E8
:1026400088420EDA2000FEF7E1FCBDF80020BDF85C
:1026500002309BB2BDF904104B4313FA82F1884259
:10266000D4D2002043A9BDF800208854BDF906004B
:10267000411CADF8061043AAE97911FB00F189B2BB
:102680000020EB689847BDF80200401CADF802003E
:10269000BDF802602000FEF7B9FCBDF90410B0FBE4
:1026A000F1F0401CB6B2864221D20020ADF8000005
:1026B000C1E74FF4807100220DF10C09484600F08B
:1026C000B3F83800A9688847002C07D0009433007D
:1026D00042464C4903A800F0A5FF05E033004246FE
:1026E000494903A800F09EFF03A8A96888470DF593
:1026F000137DBDE8F08310B514002200D2B2002093
:1027000000F090FC200010BD38B50C001500C0B2E0
:10271000002803D13E480078002800D131BD3D4952
:102720000878002800D0FEE70878401C087000F008
:10273000E3FF00232A0021003748FFF77EFEFFF762
:102740005BFEF6E710B514001A00C0B2002808D1ED
:1027500028480078002804D00B0021002F48FFF7FC
:102760006CFE10BD002101804FF6FF714180818019
:10277000FF218171C171002181600021C1600021B0
:10278000016170471A4902880A8042884A8082881B
:102790008A8082798A71C279CA7182688A60C268C5
:1027A000CA6000690861012012490870704700B5CD
:1027B00085B06846FFF7D6FF194802906846FFF7D4
:1027C000E1FF05B000BD80B5FFF7F1FF0023002257
:1027D0005FF4E131002000F037FE4023114A002170
:1027E0000A4800F0B1FF0121002000F0DFFC01BD2C
:1027F000480E0228BC0F0228A0A6081050A60810F8
:10280000ACA6081084A5081020A608101C0E0228EB
:1028100001080228BD0F022860A60810B8A60810FB
:102820002F240810740C022862F30F2262F31F4257
:10283000401810F0030308D0C91A1FD3DB0748BFA4
:1028400000F8012D28BF20F8022D130030B41446E3
:102850001546103928BF20E93C00FAD8490728BF9F
:1028600020E90C0048BF40F8042D890028BF20F85B
:10287000022D48BF00F8012D30BC7047C91818BFA1
:1028800000F8012DCB0728BF00F8012D704700008C
:1028900030B4614B1818C009604C14EB00140429C3
:1028A0000DD223681F25C8008540AB43D2B212F079
:1028B0001F02C90012FA01F1194321600CE0091F3F
:1028C00063681F25C8008540AB43D2B212F01F02D7
:1028D000C9008A401A43626030BC7047002A04D1A4
:1028E000012212FA01F1416003E0012212FA01F122
:1028F0008160704710B48900436C0F248C40A3435F
:1029000012F00F0212FA01F11943416410BC704732
:1029100010B4836C01248C40A34312F0010212FA1C
:1029200001F11943816410BC704710B4C36C0124D9
:102930008C40A34312F0010212FA01F11943C16461
:1029400010BC704710B449001031C36C03248C4094
:10295000A34312F0030212FA01F11943C16410BC3F
:1029600070474269012212FA01F1416140697047E2
:1029700010B4836901248C40A34312F0010212FABF
:1029800001F11943816110BC704710B44900036C18
:1029900003248C40A34312F0030212FA01F11943FD
:1029A000016410BC7047F8B505000E001400002744
:1029B000002D2ED0002C2CD0226831002800FFF7EB
:1029C0008DFF227A31002800FFF762FF6269310033
:1029D0002800FFF79DFFA26931002800FFF7A5FF3F
:1029E000E26931002800FFF7ADFF6268310028007E
:1029F000FFF780FFE26831002800FFF7C6FF3100D3
:102A00002800FFF7AEFF226931002800FFF7B0FF72
:102A100000E0034F3800F2BD0000CFBF000030409F
:102A200001005A000122002800F0EC80002900F08B
:102A3000E980754A12680B7A63F392420B7B13F0BC
:102A4000030363F311420B7813F0070363F31A6275
:102A50008B7863F39E7291F8283063F3000291F84B
:102A6000343063F341020B7F63F382024B7F63F3E5
:102A7000C30291F8403063F38A2291F84030DBB210
:102A80005B08DBB263F3492291F8703063F30822EC
:102A900091F8713013F0030363F30D3202600A7A88
:102AA000002A02D10022826007E00A7A012A02D1BC
:102AB0004A69826001E0012282600A6A02614A6A10
:102AC0004261CA6A82610A6BC2614A6902628A69AA
:102AD00042624E4A126891F8443003F0FF03120A32
:102AE00012021A4391F84C3003F0FF0363F31742CC
:102AF00091F85C3003F0FF0363F31F6291F86C30D0
:102B000003F0FF0363F30F224264414A126891F815
:102B1000643003F0FF0363F30F2291F8543003F0A5
:102B2000FF03120A12021A4382643A4A126891F8A9
:102B3000413013F00303920892001A4391F8603079
:102B400013F0030363F38B2291F8483013F003036F
:102B500063F3051291F8503013F0030363F3092275
:102B600091F8583013F0030363F3871291F868303B
:102B700013F0030363F38302C264274A126891F8D7
:102B8000723013F00703D208D2001A4391F8733061
:102B900013F0070363F30612426591F8352082674C
:102BA0001E4A12680B7C13F00303920892001A432A
:102BB000CB7C13F0030363F387124B7C13F0030306
:102BC00063F383028B7C13F0030363F30512026546
:102BD000134A1268CB8863F31F428B889BB21B0A8F
:102BE0009BB263F30F220B78052B06D1097901F014
:102BF000FF01120A12020A4302E0497861F3070258
:102C000002630022100070476CA7081070A708101C
:102C100074A7081078A708107CA7081080A70810D0
:102C200084A70810016851F00041016070474030EE
:102C3000016851F01001016070470000010009B205
:102C4000002909D4012210F01F018A40DFF88C19F5
:102C500000B2400941F820207047022801D301202A
:102C600010E00B00DBB2042B01DB01200AE0DFF8EF
:102C7000703903EB8000C9B2405C824201D301206D
:102C800000E000207047F8B504000F0015001E009A
:102C9000022C01D301202AE02A003900C9B2200009
:102CA000FFF7DBFF012801D1012020E00698390061
:102CB000C9B202291ED1B6F5803F19D2202817D2F9
:102CC0004FF4C052DFF81C1963030B4403EB850378
:102CD00013441F6866F317271F606403214401EB48
:102CE000850111440A6860F3C7020A600020F2BD42
:102CF0000120FCE7FFB2032F1FD1B6F1807F1AD26B
:102D0000202818D24FF4E052DFF8D81863030B44A0
:102D100003EB850313441F6807F0FF0757EA0627F4
:102D20001F606403214401EB850111440A6860F3CC
:102D3000C7020A60DAE70120D9E70120D7E700B22D
:102D40000012C0B27047F8B505000E001700280049
:102D500000B2FFF7F4FF04002000C0B2022801D344
:102D6000012024E03A003100C9B22000C0B2FFF7D0
:102D700074FF012801D1012019E0DFF86818200054
:102D8000C0B2400308442A00D2B200EB8200D0F85F
:102D9000000CF6B266F3092067F30700E4B264039F
:102DA0002144EDB201EB8501C1F8000C0020F2BD19
:102DB00070B504000D001600022C01D301201DE0A7
:102DC00032002900C9B22000FFF747FF012801D1D6
:102DD000012013E0DFF80C186003085850F00040A1
:102DE00050F0407050F47F00EDB265F3092066F3B7
:102DF00007006203885064030859002070BDD0F8B2
:102E000040037047D0F80803C005C00D7047C0F8F4
:102E100040127047D0F80802C005C00D7047D0F8C6
:102E20000802C0F3C030704738B505002800FFF72E
:102E3000F1FF04002800FFF7F2FF0419002C01D174
:102E4000012000E00020C0B232BDC0F8C81F7047AA
:102E5000D0F8C80F7047C0F8881F7047D0F8880FA7
:102E60007047016851F000410160704738B50400B7
:102E70001500C9B2002906D002291ED010D304299A
:102E800035D027D340E0DFF86007A0600120207331
:102E9000112060734FF48C70E0811220208239E0A1
:102EA000DFF84807A060012020731120607340F212
:102EB0001D10E0816B2020822CE0DFF83407A06039
:102EC00001202073112060734FF48E70E0816A201E
:102ED00020821FE0DFF81C07A06002202073112071
:102EE000607340F21B10E0816920208212E0DFF85D
:102EF0000807A06001202073132060734FF48D70C9
:102F0000E0816820208205E07C22DFF8F0160020B6
:102F1000FFF7FAFBEDB2002D06D0022D1ED010D324
:102F2000042D35D027D340E0DFF8BC062060002018
:102F30002071112060714FF48C70E081122020828A
:102F400039E0DFF8A80620600020207111206071B0
:102F500040F21D10E0816B2020822CE0DFF890060B
:102F6000206000202071112060714FF48E70E0818C
:102F70006A2020821FE0DFF87C062060012020719B
:102F80001120607140F21B10E0816920208212E064
:102F9000DFF86406206000202071132060714FF478
:102FA0008D70E0816820208205E0A822DFF84C16B1
:102FB0000020FFF7A9FB31BD10B5C0B2002806D034
:102FC00002280AD006D304280DD009D30EE0DFF87A
:102FD000304611E0DFF82C460EE0DFF82C460BE01F
:102FE000DFF8284608E0DFF8284605E0BD22DFF8D4
:102FF0000C160020FFF788FB200010BD38B5040038
:10300000DFF81056C9B22000C0B255F82000FFF713
:10301000FEFE2000C0B255F82000FFF705FF002893
:10302000F7D031BD70B505000E00140006E0317810
:103030002800C0B2FFF7E2FF641E761C002CF6D118
:1030400070BD38B504000D0005E029782000C0B23D
:10305000FFF7D4FF6D1C28780028F6D131BD70B57C
:1030600004000D000020DFF8AC652000C0B256F867
:103070002000FFF7C7FE002807D0E4B256F824006E
:10308000FFF7BDFE2870012000E00020C0B270BD37
:1030900070B505000C00DFF87C652800C0B256F85A
:1030A0002000FFF7DBFE4008400001002800C0B20E
:1030B00056F82000FFF7CFFE2800C0B256F82000D7
:1030C000FFF7CCFE30F0020001002800C0B256F835
:1030D0002000FFF7C0FE2800C0B256F82000FFF71E
:1030E000BDFE30F0200001002800C0B256F82000DC
:1030F000FFF7B1FE2800C0B256F82000FFF7AEFE81
:1031000030F0400001002800C0B256F82000FFF760
:10311000A2FE2800C0B256F82000FFF79FFE30F054
:10312000100001002800C0B256F82000FFF793FEFF
:103130002800C0B256F82000FFF790FE30F48070EF
:1031400001002800C0B256F82000FFF784FE2800D6
:10315000C0B256F82000FFF781FE30F48060010015
:103160002800C0B256F82000FFF775FE002C0ED0E4
:103170002800C0B256F82000FFF76AFE50F4007035
:103180000100EDB256F82500FFF765FE0DE02800BE
:10319000C0B256F82000FFF75BFE30F4007001006B
:1031A000EDB256F82500FFF756FE70BD70B505006C
:1031B0000C00DFF860642800C0B256F82000FFF76A
:1031C00047FE4008400001002800C0B256F8200029
:1031D000FFF73BFE2800C0B256F82000FFF738FE8C
:1031E00030F0080001002800C0B256F82000FFF7B8
:1031F0002CFE2800C0B256F82000FFF729FE30F060
:10320000200001002800C0B256F82000FFF71DFE84
:103210002800C0B256F82000FFF71AFE30F4807084
:1032200001002800C0B256F82000FFF70EFE28006B
:10323000C0B256F82000FFF70BFE30F4007001001A
:103240002800C0B256F82000FFF7FFFD2800C0B2EA
:1032500056F82000FFF7FCFD30F400600100280064
:10326000C0B256F82000FFF7F0FD002C0ED0280069
:10327000C0B256F82000FFF7EBFD50F0040001004B
:10328000EDB256F82500FFF7E0FD0DE02800C0B2D2
:1032900056F82000FFF7DCFD30F004000100EDB22D
:1032A00056F82500FFF7D1FD70BD2DE9F841A7B014
:1032B00005000F00160028003100C0B2C9B28842D4
:1032C00001D1012000E000201C00DFF8308340F233
:1032D0005D124146C0B2FFF717FA28002100C0B2C4
:1032E000C9B2884201D1012000E000204FF4AF7242
:1032F0004146C0B2FFF708FA02A8142100F044FAD0
:10330000342100220DF168084046FFF78DFA4C2168
:1033100000220DF11C084046FFF786FAFF003A0034
:103320000023BD480021FEF733F807002200D2B287
:103330003100C9B202A8FFF799FD08201B909DF843
:103340000D008DF870001AAA9DF80C100298FFF776
:103350002AFB06201B909DF80D008DF870001AAA1C
:103360009DF814100498FFF71EFB0020079008201A
:1033700008900920099002200B9002200C90002058
:10338000129000201490A34C2800C0B254F82000E2
:1033900000F040FBA1492A00D2B2382042430A443F
:1033A00007A92800C0B254F8200000F0F1F9280065
:1033B000C0B254F82000FFF754FD2A00D2B2032116
:1033C000BDF91600FFF7BFFCBDF91600FFF7B7FC0B
:1033D00017F01F010091C7F357132A00D2B203213F
:1033E000C0B2FFF750FCBDF91600FFF7A8FC2A0099
:1033F000D2B20321C0B2FFF7DBFCBDF91800ADF873
:1034000000000320ADF8020001208DF8040068469A
:1034100000F048FB82482900C9B250F82110BDF9DC
:10342000000000F07EFBBDF90200FFF707FC002161
:103430002800C0B2FFF7BAFE00212800C0B2FFF793
:1034400027FE28B0BDE8F0812DE9F841A7B00500BE
:103450000F00160028003100C0B2C9B2884201D165
:10346000012000E000201C00DFF890814FF4CE72B4
:103470004146C0B2FFF748F928002100C0B2C9B2E6
:10348000884201D1012000E0002040F29D12414617
:10349000C0B2FFF739F902A8142100F075F9342100
:1034A00000220DF168084046FFF7BEF94C210022CA
:1034B0000DF11C084046FFF7B7F9FF003A00002362
:1034C00055480021FDF764FF07002200D2B2310009
:1034D000C9B202A8FFF7CAFC08201B909DF80D0096
:1034E0008DF870001AAA9DF80C100298FFF75BFA8D
:1034F00006201B909DF80D008DF870001AAA9DF80B
:1035000014100498FFF74FFA002007900820089045
:103510000820099002200B9000200C9000201290AF
:10352000002014903B4C2800C0B254F8200000F05A
:1035300071FA3A492A00D2B2382042430A4407A914
:103540002800C0B254F8200000F022F92800C0B2D0
:1035500054F82000FFF785FC2A00D2B20321BDF900
:103560001600FFF7F0FBBDF91600FFF7E8FB17F0B8
:103570001F010091C7F357132A00D2B20321C0B232
:10358000FFF781FBBDF91600FFF7D9FB2A00D2B285
:103590000321C0B2FFF70CFCBDF91800ADF8000024
:1035A0000320ADF8020001208DF8040007221C481A
:1035B0002900C9B250F82110684600F0A9F800218E
:1035C0002800C0B2FFF7F2FD00212800C0B2FFF7CB
:1035D0005FFD28B0BDE8F0810000000000E100E0E0
:1035E000D0A6081000000440000031400002314025
:1035F000000531408008314000073140C0A3081069
:10360000000060400000654000006440000063402E
:1036100000006240E807022800809698040A022809
:10362000D40702280CB430B583B00A4606A902912B
:10363000044600250194009502AB01A9084878448E
:103640001E30FCF720FD019A157000284EBF04467D
:103650000198041B204603B030BC5DF80CFB00BF92
:1036600063D9FFFF010009B2002908D4012210F03C
:103670001F018A401B4900B2400941F820207047D1
:10368000010009B2002908D4012210F01F018A406C
:10369000154900B2400941F820207047020012B2DB
:1036A000002A04D44901114A00B2115407E049012B
:1036B0000F4A00B210F00F00104400F8041C7047CD
:1036C000002800D162B60B480168491C01607047B0
:1036D00072B608490868002802D00868401E0860D1
:1036E0000868704700E100E080E200E000E400E0EC
:1036F00018ED00E08C0F022880B5FFF7E9FFFEF718
:1037000047FD01BD80B5C9B200B2FFF7C7FF01BDDB
:1037100070B504000D001600200000F0C3F9290068
:10372000B4F9000000F0FDF93100C9B2B4F90200AB
:10373000FFF7E8FFB4F90200FFF7A2FFB4F90200B7
:10374000FFF790FF70BD0000F8B504000E001700F1
:103750001D00002C01D0012000E000204FF4077272
:103760000849C0B2FEF7D0FF002067600021217039
:1037700066700021A1600021E16025616561C0B231
:10378000F2BD0000C0A20810002200F0E1B9000064
:103790002DE9F44FDFF8D822DFF8D8321B68DFF8C4
:1037A000D8422468DFF8D4522D68DFF8D462366836
:1037B000DFF8D0723F68DFF8D0C2DCF800C0DFF875
:1037C000CCE2DEF800E0DFF8C882D8F80080DFF84D
:1037D000C492D9F80090DFF8C0A2DAF800A000285F
:1037E00000F01581002900F012810A68022A06D132
:1037F00091F82620002A02D15FF0000B03E0D1F8F7
:1038000004B0BBF1010B91F82420002A01D0012261
:1038100000E0002262F3104333F440436BF30303F0
:10382000022262F3196303600A7812F0030262F362
:103830001964046491F82520002A01D0012200E0D7
:10384000002262F38615CA7E002A01D0012200E020
:10385000002262F38A254A7E002A01D0012200E07C
:10386000002262F308258A7E002A01D0012200E0AE
:10387000002262F349258A6B521E12F00F0262F396
:1038800013450A69521E12F00702ED08ED001543B8
:103890004A6962F304154A69520862F34515856462
:1038A0000A7B002A01D0012200E0002262F30826F0
:1038B0000A7E002A01D0012200E0002262F349269C
:1038C0008A68521E12F01F02760976011643C0F86C
:1038D00000630A7F02F0FF023F0A3F02174391F89C
:1038E000202002F0FF0262F31747C0F8107391F82E
:1038F0002720002A01D0012200E0002262F3082CD8
:103900000A69521E12F007025FEADC0C5FEACC0C77
:1039100052EA0C0C4A6962F3041C4A69520862F3C9
:10392000451CC0F844C00A7B002A01D0012200E0F7
:10393000002262F3082E8A68521E12F01F025FEA0C
:103940005E1E5FEA4E1E52EA0E0E0A68012A01D17F
:10395000012200E0002262F3104EC0F800E291F86C
:103960003C2002F0FF025FEA18285FEA082852EACA
:103970000808C0F8048391F82820002A01D0012209
:1039800000E0002262F35969CA6A012A01D10122CA
:1039900000E0002262F318694A6B012A01D1012379
:1039A00000E00023009A63F3104991F8303003F0EF
:1039B000FF035FEA19295FEA092953EA0909C0F8F8
:1039C000509091F8443003F0FF035FEA1A2A5FEA4F
:1039D0000A2A53EA0A0AC0F804A28B6CC0F8883F8E
:1039E000096CC0F8C81F002A10D0002050600020C9
:1039F0001060002090600020D06000201062002045
:103A0000D06200201063DFF89400506300221000A1
:103A1000BDE8F28FDFF8881001605FF440110164A7
:103A20000021816440F20711C0F800130022C0F8A1
:103A300004230022C0F8102300224264C0F80012C0
:103A40000021C0F80412002101650021C0F8C81E41
:103A50000021C0F8881E0021C0F8C81F0021C0F84E
:103A6000881F0021C0F8081F0021C0F8481F7047B8
:103A70000160AA0028A708102CA7081030A708107A
:103A800034A7081038A708103CA7081040A7081052
:103A900044A7081048A708104CA70810EFCDAB00AA
:103AA0000F00000330B40021234A1368234A14682E
:103AB000002832D0224A1568C5F303250E2D0FD0F9
:103AC0001268C2F303220D2A28D1827812F00F0265
:103AD0002409240114430279002A15D0012214E09C
:103AE000827812F00F021B091B0113430279002A8E
:103AF00001D0012200E0002262F3DF73114AB0F925
:103B0000000042F8203009E0002262F3DF740E4A20
:103B1000B0F9000042F8204000E00649080030BC3F
:103B200070470A4B1A68002A03D01A6800B242F89C
:103B3000201070470100560050A7081054A7081025
:103B40000000204000A0204000C02040EC060228D9
:103B500000B500BF130096469446103928BFA0E870
:103B60000C50FAD85FEA417C28BF0CC048BF40F82F
:103B7000042BC90728BF20F8022B48BF00F8012BEF
:103B800000BD00002DE9F041BDF91850BDF91C60E1
:103B9000BDF92070BDF924C0BDF928E0DFF8384B2D
:103BA000DFF8388B00B200EE100AB8EEC00AD8ED8C
:103BB000000A80EE200A84ED030A09B200EE101A12
:103BC000B8EEC00AD8ED000A80EE200A84ED040A9F
:103BD00012B200EE102AB8EEC00AD8ED000A80EE4C
:103BE000200A84ED050A1BB200EE103AB8EEC00AB6
:103BF000D8ED010A80EE200A84ED000A2DB200EE15
:103C0000105AB8EEC00AD8ED010A80EE200A84ED01
:103C1000010A36B200EE106AB8EEC00AD8ED010A09
:103C200080EE200A84ED020A3FB200EE107AB8EE70
:103C3000C00AD8ED020A80EE200A0FFA8CFC00EED2
:103C400090CAF8EEE00A98ED021AC0EE810A0FFA67
:103C50008EFE01EE10EAB8EEC11AD8ED021A81EE1E
:103C6000211ADFF87C0AD0ED001A30EE610ADFF885
:103C7000740AD0ED001A20EE210A84ED060ADFF85E
:103C8000680A90ED000A30EEC00ADFF8600AD0ED55
:103C9000000A20EE200A84ED070A84ED081ABDE828
:103CA000F081000080ED000AC0ED010A80ED021AEB
:103CB000C0ED031A80ED042AC0ED052AB7EE000A14
:103CC00080ED110A80ED100A80ED0F0A80ED0E0ADA
:103CD00080ED0D0A80ED0C0A9FED0E0A80ED170AAB
:103CE00080ED160A80ED150A80ED140A80ED130AA6
:103CF00080ED120A9FED070A80ED080A80ED070AA1
:103D000080ED060A00214162002181620021C1622A
:103D1000704700000000000070B52DED108B90B0D2
:103D200004000D00F0EE40AAF0EE609AB0EE419A69
:103D3000F0EE61FAB0EE42AAB0EE62CAF0EE43CA0B
:103D4000B0EE63DAF0EE44DA684600210022002388
:103D500080E80E009FED680B95ED081AB7EEC11ACA
:103D600021EE001BB7EEC18B95ED071AB7EEC11A15
:103D700021EE000BF7EEC08B2AEEAA0A09EE090A23
:103D800000F0B6FCB0EE40EA29EEA90A09EE090AF5
:103D900000F0AEFCF0EE40EA2AEEAA0A09EEA90A0B
:103DA00009EE090A00F0A4FCDFED550A30EE200A06
:103DB000B0EEC0FA95ED059A9FED520AB4EE40EAD6
:103DC000F1EE10FA23DBF4EE40EAF1EE10FA1EDB1E
:103DD0009FED50BB6E4689EE8E0A00F099FCB7EE5F
:103DE000C00A20EE0B0BB7EEC00B86ED020ABFEE49
:103DF000000A2AEE800A80EE2E0A00F089FCB7EE57
:103E0000C00A20EE0B0BB7EEC00B86ED010A9FED4A
:103E10003E0AB4EE40FAF1EE10FA14DB9FED3B0AD5
:103E20007FEE000AB1EE081AB7EE000A00EE810A32
:103E3000DFED370AB4EE600AF1EE10FA01DBB2EE04
:103E4000080A29EE009AB0EE680A00F06BFDF0EE69
:103E5000409AB0EE480A00F065FDB0EE40BAB0EE10
:103E6000680A00F061FDF0EE40BAB0EE680A00F0BA
:103E70005BFD6CEEA9AA6DEE8B0A40EEABAA6DEE6F
:103E8000009AB0EE480A00F04FFD49EE80AAB0EE6D
:103E9000480A00F047FD6DEE009AB0EE480A00F0C7
:103EA00043FD40EE6D9AF0EE690AB0EE6A0A00F04A
:103EB0003DFDB7EEC00A9FED172B20EE020BB7EECB
:103EC000C00B8DED000A9DED000AD5ED060A30EE1F
:103ED000600ADFED120AB4EE600AF1EE10FA1FDBA1
:103EE0009DED000ADFED030A30EE200A8DED000A99
:103EF00030E000BF0000B4C3399D52A246DF913FBD
:103F0000C3F51CC1BE3786359B99193E9A9919BED7
:103F100001004041F8C1631ADCA54C400100344364
:103F20009DED000AD5ED060A30EE600ADFED050AC8
:103F3000B4EE600AF1EE10FA0CD59DED000ADFED4B
:103F4000020A03E0000034C30000B44330EE200A4C
:103F50008DED000AF0EE4C9ACDED03FAB0EE480A72
:103F600000F0E0FCF0EE40AAB0EE680A00F0DAFCE7
:103F7000B0EE40BAB0EE480A00F0D6FCF0EE40BA1F
:103F8000B0EE680A00F0CEFCD5ED0B0A79EEE00A3F
:103F900060EEAA0AC0EE8B0A95ED0A1A3AEE411AB3
:103FA00021EE2B1A81EE000A30EE800AD5ED000AD0
:103FB00095ED061A00EE201A85ED061AB0EE480AB5
:103FC00000F0B0FCF0EE40AAB0EE480A00F0ACFC05
:103FD000D5ED0A0A7AEE600A60EEAA0A95ED0B1A90
:103FE00031EE691A41EE000A95ED000A95ED071AC7
:103FF00000EE801A85ED071AB0EE480A00F092FC38
:10400000F0EE40AAB0EE680A00F0C6FCB0EE40BA8E
:10401000B0EE680A00F0C0FCF0EE40BAB0EE480A1C
:1040200000F082FCDDED030A95ED091A70EEC10A7D
:104030002AEE8B1AD5ED0B1A79EEE11A41EE210A20
:104040002BEE800A95ED0A1A3AEE411A40EE010A6B
:1040500095ED000A95ED081A00EE801A85ED081A14
:10406000D5ED0FAA95ED10BAD5ED11BAB0EE480A0C
:1040700000F058FCB0EE40CAB0EE680A00F052FC06
:10408000F0EE40CAB0EE480A00F04CFCB0EE40DA68
:10409000B0EE480A00F046FCF0EE40DAB0EE680AF6
:1040A00000F040FCB0EE40EAB0EE680A00F03AFCE6
:1040B000D5ED0C0A95ED011A70EE810A95ED171AEF
:1040C000D5ED001A21EE211A21EE0C1A81EE2C1AE0
:1040D00070EEC10A95ED001A21EE0D1AD5ED111AF8
:1040E00095ED002A61EE821A61EEAD1AC1EE8E1ACC
:1040F00095ED172A72EE611A21EE211A81EE000A5F
:1041000030EEC00A85ED0C0AB0EE480A00F00AFC59
:10411000B0EE40CAB0EE480A00F004FCF0EE40CA2F
:10412000B0EE480A00F000FCB0EE40DAB0EE480A0B
:1041300000F0FAFBF0EE40DAB0EE480A00F0F2FBD5
:10414000B0EE40EAB0EE480A00F0EEFBD5ED0D0A05
:1041500095ED021A70EE810A95ED101AD5ED001A50
:1041600021EE211A21EE2C1AD5ED151A31EE611A25
:10417000D5ED001A61EE8C1A41EE210A95ED001A78
:1041800021EE0D1AD5ED111A95ED002A61EE821A75
:1041900095ED162A01EEAD2A41EE020A95ED151AAB
:1041A000D5ED001A21EE211A41EE4E0A95ED161AB0
:1041B000D5ED001A21EE211A41EE000AC5ED0D0AD7
:1041C000B0EE680A00F0E8FB8DED060AB0EE480A92
:1041D00000F0AAFB8DED050AB0EE680A00F0DCFBEA
:1041E0008DED040AB0EE480A00F09EFBF0EE40FAB6
:1041F000B0EE480A00F096FBB0EE40CAB0EE680A96
:1042000000F0CAFBF0EE40CAB0EE680A00F0C4FB52
:10421000B0EE40DAB0EE480A00F086FBF0EE40DA8D
:10422000B0EE480A00F07EFBB0EE40EAB0EE680A5D
:1042300000F0B2FBF0EE40EAB0EE480A00F072FB8C
:10424000B0EE40FAB0EE680A00F0A6FBD5ED0E0A1B
:1042500095ED021A70EE810A95ED121AD5ED001A4D
:1042600041EE610A95ED0F1AD5ED001A21EE211AE3
:10427000D5ED121A31EE611AD5ED001A41EE210A80
:1042800095ED101AD5ED001A21EE211ADDED041A74
:1042900021EE211A21EE2F1AD5ED131A31EE611AF3
:1042A000D5ED001A9DED062A61EE821A9DED052AD4
:1042B00061EE821A41EE210A95ED141AD5ED001A2D
:1042C00021EE211A21EE0C1A41EE6C0A95ED131A1B
:1042D000D5ED001A21EE211A21EE0D1A41EE6D0ADC
:1042E00095ED111AD5ED001A21EE211A21EE0F1AC3
:1042F00021EE000A95ED141A30EE410A95ED001AF0
:1043000021EE0E1A21EE2E1A40EE010AC5ED0E0A1C
:1043100095ED0F0AD5ED030A30EE200A85ED0F0A60
:1043200095ED100AD5ED030A30EE200A85ED100A4E
:1043300095ED110AD5ED030A30EE200A85ED110A3C
:10434000B0EE480A00F0EEFAB0EE40CAB0EE680AED
:1043500000F0E8FAD5ED000A6BEEA00A60EE8C0AD8
:1043600080EE800AD5ED170A30EEC00A85ED170AF7
:10437000B0EE480A00F0D6FAD5ED000A6BEE200A3E
:1043800095ED151A00EEC01A85ED151AB0EE480A23
:1043900000F0CAFAD5ED000A6BEEA00A95ED161AE8
:1043A00000EE801A85ED161A95ED000AD5ED120A79
:1043B0004AEEC00AC5ED120AB0EE680A00F0ECFA47
:1043C000F0EE40AAB0EE480A00F0AEFAD5ED000AD1
:1043D0006BEE200A60EEAA0A95ED131A00EEC01AE1
:1043E00085ED131AB0EE480A00F09CFAB0EE408A50
:1043F000B0EE680A00F0D0FAD5ED000A6BEEA00A24
:1044000060EE880A95ED141A00EEC01A85ED141AB4
:104410009DED000AD5ED060A30EE600A8DED070A23
:1044200007A9684690ED010AD5ED070A30EE600A4B
:1044300081ED010A90ED020AD5ED080A30EE600A1E
:1044400081ED020A95ED0C0AD5ED040A30EE200A42
:10445000D5ED0C0A80EE800AD5ED0D0A70EE890AC2
:1044600095ED0D1AC1EE200A95ED0E1A31EE091ADE
:10447000D5ED0E1A81EE811AD5ED0E1A71EE891A5C
:1044800095ED122AC2EE211A95ED0D2A32EE092A77
:10449000D5ED152A82EE822AD5ED0E2A72EE892AF2
:1044A00095ED133AC3EE222A95ED0C3AD5ED043A78
:1044B00033EE233AD5ED173A83EE833AD5ED0D3A34
:1044C00073EE893A95ED164AC4EE233A95ED0E4AFD
:1044D00034EE094AD5ED144A84EE844ADDED074AEC
:1044E00095ED065A00EE245A85ED065AD1ED014AA3
:1044F00095ED075A00EEA45A85ED075AD1ED024A10
:1045000095ED085A01EE245A85ED085AD1ED024A7C
:1045100095ED095A01EEA45A85ED095AD1ED014AEB
:1045200062EE244A91ED025A42EE854A95ED0A5A0E
:1045300074EE854AC5ED0A4ADDED074A63EE244A6A
:1045400091ED015A43EE854A91ED025A44EE054A37
:1045500095ED0B5A74EE854AC5ED0B4AD5ED0C4A24
:1045600095ED0C5A04EEC05A85ED0C5AD5ED0D4A66
:1045700095ED0D5A04EEE05A85ED0D5AD5ED0E4A33
:1045800095ED0E5A04EEC15A85ED0E5AD5ED124A3C
:1045900095ED0F5A04EEE15A85ED0F5AD5ED151A37
:1045A00062EE211A95ED132A42EE821A95ED102A39
:1045B00072EE611AC5ED101AD5ED171A63EE211AC5
:1045C00095ED162A43EE821A95ED142A44EE021A4E
:1045D00095ED112A72EE611AC5ED111AD5ED171A73
:1045E00095ED172A01EEC02A85ED172A95ED150ADB
:1045F000D5ED151A40EE601AC5ED151A95ED160A9F
:10460000D5ED161A40EE601AC5ED161A95ED120A90
:10461000D5ED120A40EE410AC5ED120A95ED130AD6
:10462000D5ED130A40EE410AC5ED130A95ED140AC3
:10463000D5ED140A40EE410AC5ED140A95ED060ABF
:10464000DFED210AB4EE600AF1EE10FA08DB95ED19
:10465000060ADFED1E0A30EE200A85ED060A10E09C
:1046600095ED060ADFED1A0AB4EE600AF1EE10FAD3
:1046700007D595ED060ADFED170A30EE200A85ED25
:10468000060AA8690A90E8690B90286A0C909DEDCB
:10469000030AD5ED090A30EE600A8DED0D0A95ED9D
:1046A0000A0A3AEE400A8DED0E0A95ED0B0A39EE34
:1046B000C00A8DED0F0A20000AA91822FCF7FEFCA3
:1046C00010B0BDEC108B70BD010034430000B4C3CA
:1046D000000034C30000B443340C022868070228E9
:1046E0001007022818070228140702281C070228AE
:1046F000B5EEC00AF1EE10FA02D4B1EEC00A70476E
:104700006FF0004C00EE10CAAFF30080704700005D
:1047100010EE101AC1F3C752DAB1992A0FDAC80F96
:1047200021F0004100EE101AB1F17E5F40F30682E5
:10473000F7EE000A80EE800A001D00F0FFB9FF2AA4
:1047400001D14A0205D1034AC90F42EAC17100EE04
:10475000101A7047DB0FC93FDFED620A60EE200AD6
:1047600010EE902A22F0004101EE101ADFED5E1AE1
:10477000B4EE611AF1EE10FA25D54FF07C5102F03B
:1047800000420A4301EE102A71EE200AFDEEE00A13
:1047900010EE901A00296AD0FAEEC90A9FED531A5A
:1047A00000EE810ADFED521A00EEA10A9FED512AB8
:1047B00000EE820ADFED502A00EEA20A9FED4F1AAA
:1047C00000EE810A53E010EE101A4B001B1613F195
:1047D000010F0AD14900081610F1010F02D1090298
:1047E00040F07F809FED460A7047490004D10028C1
:1047F00077D0B7EE000A70474FF07C5102F00042CC
:104800000A4301EE102A71EE200A10EE902A5100A0
:104810000DD0090EC1F196011829A8BF02F000427F
:1048200003DA0029C4BFCA408A4000EE902A10EE85
:10483000901A490017D09FED331A20EE811ADFED50
:104840002B1A01EE210A9FED2A2A01EE020ADFED62
:10485000292A01EE220A9FED283A01EE030ADFED34
:10486000271A01EE210AFDEEE00A10EE901A01F07F
:104870000301081810EE101A21F0004100EE901A02
:104880009FED211AF4EE410AF1EE10FA04D5C107AA
:1048900023D5B7EE000A20E0C10760EE000A0ED56E
:1048A0009FED1A0A9FED1A1A00EE801ADFED191A11
:1048B00041EE201AB7EE000A01EEA00A0DE09FEDCE
:1048C000162ADFED161A40EE821ADFED152A20EEC9
:1048D000201A41EEA02A01EE220A800748BFB1EE5D
:1048E000400A704783F9223F0000004F0000C9C60C
:1048F00000A0FDC00020A2BA000034B30030C2AE58
:10490000FFFFFF7F00008038000080399349B2BA72
:1049100036A02A3DDFFFFFBE6E8C4CB94283083CB7
:10492000A1AA2ABE012017E7002015E752EC101AB1
:10493000B0EEC00AC80F49005200F0EEE00A28BFEE
:104940000C3011F1807F38BF12F1807F0CD28A4287
:1049500038BF80F00400124214D034BF80EE800AC9
:1049600080EE200A00F0EAB811F1807F08BF80F0E5
:10497000040098BF12F1807F08D88A4214BF002239
:104980004FF07E5200EE102A00F0D8B86FF00041D0
:1049900000EE101A70470000DFED5B0A60EE200A9F
:1049A00010EE901A21F0004001EE100ADFED571AC8
:1049B000B4EE611AF1EE10FA25D54FF07C5001F0FB
:1049C0000041014301EE101A71EE200AFDEEE00AEB
:1049D00010EE900A002864D0FAEEC90A9FED4C1A36
:1049E00000EE810ADFED4B1A00EEA10A9FED4A2A84
:1049F00000EE820ADFED492A00EEA20A9FED481A76
:104A000000EE810A4DE010EE100A4200121612F17B
:104A1000010F09D14000011611F1010F01D100026F
:104A200070D19FED400A704740006BD04FF07C5032
:104A300001F00041014301EE101A71EE200A10EE60
:104A4000901A48000DD0000EC0F196001828A8BF9B
:104A500001F0004103DA0028C4BFC140814000EEEC
:104A6000901A10EE900A400017D09FED2F1A20EEFA
:104A7000811ADFED271A01EE210A9FED262A01EEA9
:104A8000020ADFED252A01EE220A9FED243A01EE0B
:104A9000030ADFED231A01EE210AFDEEE00A10EE13
:104AA000900A10EE101A21F0004100EE901A9FEDCE
:104AB0001F1AF4EE410AF1EE10FA00F0030006D5D9
:104AC000C0071FD5FFEE000A80EE800A704720EE77
:104AD000001ADFED171A9FED172A01EE212AF7EED3
:104AE000000A42EE010A20EE011ADFED132AC00788
:104AF00001EE220A04D580EE800AB1EE400A70472A
:104B000080EE200A704700BF83F9223F0000004F6B
:104B10000000C9C600A0FDC00020A2BA000034B346
:104B20000030C2AEFFFFFF7F0000803800008039F8
:104B30006D161F3C1EB5DBBE8329C4BD1AA210EE44
:104B4000101A43F2A40CC3F6896CF2EC060A614514
:104B500009DB00EE803A70EE800A83EE200A40F016
:104B6000020010EE101A4900D1F1E6410BD860EEB8
:104B7000000A20EE203A03EE010A01EEA02A42EEDE
:104B8000202A80EE220A400810F0020F18BFB1EE72
:104B9000400A02EB8002D2ED000A30EE200A28BF64
:104BA000B1EE400A70470000D7B3DD3F6AD5033F3E
:104BB0002B94A93DB82A593F0000803F000080BFD8
:104BC00000000000920A063FDB0FC93F920A863FB1
:104BD000DB0FC93F920A0640DB0F4940368D274064
:104BE000D0F80803C005C00D704710F541710A6880
:104BF00052F480320A6010F541710A6832F4803252
:104C00000A60D0F804037047C0F840127047D0F82B
:104C10000802C005C00D7047D0F80802C0F3C030CC
:104C2000704738B505002800FFF7F1FF04002800A1
:104C3000FFF7F2FF0419002C01D1012000E0002051
:104C4000C0B232BD0068C0F38130002801D180209D
:104C500000E040207047016851F00041016070475A
:104C60002030026861F39B620260704780B5FFF7F5
:104C7000B7FF02BD80B5FFF7B8FF01BD022801D321
:104C8000012010E00B00DBB2042B01DB01200AE065
:104C9000DFF8203503EB8000C9B2405C824201D3CB
:104CA000012000E000207047F8B504000F00150057
:104CB0001E00022C01D301202AE02A003900C9B2CB
:104CC0002000FFF7DBFF012801D1012020E006983A
:104CD0003900C9B202291ED1B6F5803F19D2202869
:104CE00017D24FF4C052DFF8D01463030B4403EB28
:104CF000850313441F6866F317271F60640321446C
:104D000001EB850111440A6860F3C7020A600020C4
:104D1000F2BD0120FCE7FFB2032F1FD1B6F1807F67
:104D20001AD2202818D24FF4E052DFF88C14630313
:104D30000B4403EB850313441F6807F0FF0757EA92
:104D400006271F606403214401EB850111440A68B2
:104D500060F3C7020A60DAE70120D9E70120D7E74C
:104D600000B20012C0B27047F8B505000E0017007F
:104D7000280000B2FFF7F4FF04002000C0B20228B0
:104D800001D3012024E03A003100C9B22000C0B2B2
:104D9000FFF774FF012801D1012019E0DFF8181492
:104DA0002000C0B2400308442A00D2B200EB8200C7
:104DB000D0F8000CF6B266F3092067F30700E4B2FE
:104DC00064032144EDB201EB8501C1F8000C002021
:104DD000F2BD70B504000D001600022C01D30120B5
:104DE0001DE032002900C9B22000FFF747FF01286B
:104DF00001D1012013E0DFF8C0136003085850F020
:104E0000004050F0407050F47F00EDB265F309208F
:104E100066F307006203885064030859002070BDE0
:104E20000100C020C9B2002905D0022907D004D34F
:104E3000032906D006E0122004E0622002E07A2076
:104E400000E01A20C0B270470100C020C9B200299A
:104E500005D0022907D004D3032906D006E011208B
:104E600004E0612002E0792000E01920C0B2704720
:104E70000100C020C9B2002905D0022907D004D3FF
:104E8000032906D006E0102004E0602002E078202C
:104E900000E01820C0B270470100C020C9B200294C
:104EA0000BD002290DD00AD304290ED00BD306292A
:104EB0000FD00CD307290ED00EE013200CE01420E5
:104EC0000AE0632008E0642006E07B2004E029205B
:104ED00002E01B2000E01C20C0B27047010000204F
:104EE000C9B2002905D0022907D004D3032906D06E
:104EF00006E0132004E0132002E0132000E013205A
:104F0000C0B2704701000020C9B2002905D00229B3
:104F100007D004D3032906D006E0132004E01320B1
:104F200002E0132000E01320C0B27047010000200F
:104F3000C9B2002905D0022907D004D3032906D01D
:104F400006E0132004E0132002E0132000E0132009
:104F5000C0B2704701000020C9B200290BD002295D
:104F60000DD00AD304290ED00BD306290FD00CD3B1
:104F700007290ED00EE013200CE013200AE01320C6
:104F800008E0132006E0132004E0132002E01320C1
:104F900000E01320C0B27047C9B2082902D010291E
:104FA00046D096E0DFF8C8130200D2B251F82220B2
:104FB000126832F440420300DBB251F823301A6029
:104FC0000200D2B251F82220D2F800225209520136
:104FD0000300DBB251F82330C3F800220200D2B242
:104FE00051F82220D2F8002252F007020300DBB26F
:104FF00051F82330C3F800220200D2B251F8222027
:10500000D2F80023520952010300DBB251F82330D9
:10501000C3F800230200D2B251F82220D2F80023B4
:1050200052F00702C0B251F82000C0F8002350E04F
:10503000DFF83C130200D2B251F82220126832F499
:1050400040420300DBB251F823301A600200D2B2B2
:1050500051F82220126852F480420300DBB251F86A
:1050600023301A600200D2B251F82220D2F8002276
:10507000520952010300DBB251F82330C3F8002279
:105080000200D2B251F82220D2F8002252F00F02D0
:105090000300DBB251F82330C3F800220200D2B281
:1050A00051F82220D2F80023520952010300DBB24A
:1050B00051F82330C3F800230200D2B251F8222065
:1050C000D2F8002352F00F02C0B251F82000C0F80D
:1050D000002370472DE9F04104000F00160008215D
:1050E0002000C0B2FFF758FFDFF888522000C0B29E
:1050F000285C08280FD02000C0B2285CC010DFF860
:10510000781211EBC01101202200D2B2AA5C12F079
:10511000070290400860DFF85882FFB23900200093
:10512000C0B258F82000FFF76FFD2000C0B258F859
:105130002000FFF787FD07002000C0B258F82000CC
:10514000FFF765FD8742F0D0F6B231002000C0B213
:1051500058F82000FFF758FD2000C0B258F8200092
:10516000FFF770FD06002000C0B258F82000FFF7DE
:105170004EFD8642F0D02000C0B258F82000FFF764
:1051800050FD0028F7D02000C0B2285C08280ED0BF
:105190002000C0B2285CC010DFF8E01111EBC01194
:1051A0000120E4B22A5D12F0070290400860BDE8D9
:1051B000F0810000D0A6081000000440F8B50400FB
:1051C0000D00002008212000C0B2FFF7E5FE694E67
:1051D0002000C0B2305C08280ED02000C0B2305C85
:1051E000C010654911EBC01101202200D2B2B25C9F
:1051F00012F00702904008605D4FEDB229002000D8
:10520000C0B257F82000FFF7FFFC2000C0B257F8EB
:105210002000FFF72BFD0028F7D02000C0B257F880
:105220002000FFF727FD00212000C0B257F8200022
:10523000FFF7EAFC2000C0B257F82000FFF7F1FCAE
:105240000028F7D02000C0B257F82000FFF70EFD6D
:105250000028F7D02000C0B257F82000D0F8400353
:105260002100C9B2715C08290ED02100C9B2715C5D
:10527000C910DFF8082112EBC1120121E4B2335D3D
:1052800013F0070399401160C0B2F2BD2DE9F84355
:1052900080460D0016001C0008214046C0B2FFF7F2
:1052A0007BFE344F4046C0B2385C08280ED04046E2
:1052B000C0B2385CC010304911EBC0110120424629
:1052C000D2B2BA5C12F0070290400860DFF8A090FA
:1052D000EDB229004046C0B259F82000FFF794FC17
:1052E0004046C0B259F82000FFF7C0FC0028F7D0B4
:1052F0004046C0B259F82000FFF7BCFC00214046F0
:10530000C0B259F82000FFF77FFC4046C0B259F800
:105310002000FFF786FC0028F7D04046C0B259F8BD
:105320002000FFF7A3FC0028F7D04046C0B259F890
:105330002000D0F840033070761C641E002CDDD1B4
:105340004046C0B2385C08280FD04046C0B2385C36
:10535000C0100A4911EBC01101205FFA88F817F854
:10536000082012F0070290400860BDE8F1830000B9
:10537000C4070228900F0228040031400800314081
:105380002DE9F04F9DB004000D001E009200002397
:10539000A1480021FBF7FCFF0700342100220DF19A
:1053A00004084046FDF740FA3C2100220DF1380880
:1053B0004046FDF739FA20003100C0B2C9B2884238
:1053C00001D1012000E00020DDF89890DFF84CA228
:1053D0004FF464725146C0B2FDF796F93000494669
:1053E000C0B2C9B2884201D1012000E00020DDF83E
:1053F0009C8040F291325146C0B2FDF785F90620FB
:1054000002904846C0B2FFF77DFD8DF80C0048467B
:10541000C0B2FFF719FD82465FF0080B4846C0B2E4
:10542000FFF712FDDFF8F89101AA9AFBFBF10BFBE5
:1054300011AA5146C0B2C010C0014844FDF7B3FAEA
:10544000062002903000C0B2FFF748FD8DF80C0036
:105450003000C0B2FFF7E4FC82465FF0080B30007A
:10546000C0B2FFF7DDFC01AA9AFBFBF10BFB11AA0E
:105470005146C0B2C010C0014844FDF794FA4046FE
:10548000C0B204281ED0082002904046C0B2FFF7E8
:105490004DFD8DF80C004046C0B2FFF7E9FC060058
:1054A0005FF0080A4046C0B2FFF7E2FC01AA96FB93
:1054B000FAF10AFB11663100C0B2C010C0014844C5
:1054C000FDF771FA289E3000C0B208281ED00620D1
:1054D00002903000C0B2FFF73DFD8DF80C003000A7
:1054E000C0B2FFF7D9FC80465FF0080A3000C0B2B6
:1054F000FFF7D2FC01AA98FBFAF10AFB118841469A
:10550000C0B2C010C0014844FDF74DFA2000C0B23F
:10551000032803D22000C0B2401C00E0002022007B
:10552000D2B2521D032110F58F7000B2FFF71CFCA0
:105530002000C0B2032803D22000C0B2401C00E00B
:10554000002010F58F7000B2FFF70AFC17F01F0162
:105550000091C7F357132200D2B2521D0321C0B2EB
:10556000FFF7A2FB2000C0B2032803D22000C0B284
:10557000401C00E0002010F58F7000B2FFF7F0FB38
:105580002200D2B2521D0321C0B2FFF722FCEDB2BD
:10559000002D05D0022D09D005D3032D09D00AE036
:1055A0000020109007E00120109004E002201090ED
:1055B00001E00320109001200E9000200F900420A5
:1055C0001190082012900820139001208DF85000AF
:1055D00001208DF853000F4D00220EA92000C0B20B
:1055E00055F8200000F01EF800212000C0B255F848
:1055F0002000FFF735FB2000C0B255F82000FFF770
:105600002AFB0348E4B206551DB0BDE8F08F000048
:10561000900F0228C40702280080969880A30810E3
:10562000000031402DE9F041DFF8D0311C00DFF8F7
:10563000D051D5F800C0DFF8CC512D68DFF8C86133
:105640003668DFF8C8713F685FF0000E5FF0000E4B
:10565000002800F0D080002900F0CD804C68002C9C
:1056600001D18C6805E04C68022C01D1002400E0D7
:105670000224D1F810E0D1F81480C64502D3D1F845
:1056800010E001E0D1F814E0BEF1090F08D23CF4BB
:10569000404C91F82130002B12D05CF4807C11E05A
:1056A000BEF1110F03D2012363F38F3CF1E7BEF18A
:1056B000210F03D2022363F38F3CEAE718009BE03B
:1056C0003CF4807CCB685B1E13F00F035FEA1C1C6C
:1056D0005FEA0C1C53EA0C0C012363F3196CC0F84D
:1056E00000C00B7F002B01D0002300E0012363F3F7
:1056F00000054B681B0963F34105CB7E63F304157A
:105700004B7E63F345150B68012B01D1012300E0AB
:10571000002363F3DF7523005B0863F3820564F302
:10572000C3054B7F63F308258B7F63F34925CB7F4C
:1057300063F38A2591F8203063F3CB250B7913F0BE
:10574000030363F3196505620B7E63F308278B7E01
:1057500063F349270B695B1E13F01F037F097F0169
:105760001F43C0F8007391F8243003F0FF0310F5D5
:10577000417425682D0A2D022B4323600B7E63F3B1
:1057800008264B695B1E13F01F03760976011E4342
:10579000C0F8006291F82C3003F0FF0310F501749B
:1057A00025682D0A2D022B4323600B6BC0F8883F20
:1057B0008B6AC0F8C83F91F8383010F570642568DE
:1057C00063F34925256091F8391010F574631C685E
:1057D00061F3CB241C600021C0F8C81E002A09D048
:1057E00000201060002090610020D0600020D06177
:1057F0000748106200242000BDE8F0810140AA00A3
:1058000018A708101CA7081020A7081024A7081024
:10581000EFCDAB0080B52DED068BF0EE609A9FEDDD
:1058200055AAF0EE08AA9FED548ADFED548AB2EE35
:10583000041AFAEE040A00F0E7FCB0EE409A9FED7D
:10584000501ADFED500AB0EE690A00F0DDFCF0EE10
:10585000400A29EE0A0A6AEEA09AFFF79DF829EE9F
:10586000800AF0EEC90A9FED481AF4EE410AF1EE03
:1058700010FA10DBF0EEC00AF4EE680AF1EE10FA4E
:1058800009D5B5EE409AF1EE10FA02DDB0EE680AE5
:1058900001E0B1EE680AB0EE481AF1EE480A00F0F5
:1058A000B3FCBDEC068B01BD10B5DFF82846200027
:1058B00000F0BBFCDFF8200690ED001ADFF81C06B4
:1058C000D0ED000ADFF8180690ED000A200000F085
:1058D000C5FCDFF81046200000F0A7FCDFF8080642
:1058E00090ED001ADFF80406D0ED000ADFF800069C
:1058F00090ED000A200000F0B1FCDFF8F845200030
:1059000000F093FCDFF8F00590ED001ADFF8EC05ED
:10591000D0ED000ADFF8E80590ED000A200000F065
:105920009DFCDFF8E045200000F07FFCDFF8D805A3
:1059300090ED001ADFF8D405D0ED000ADFF8D005AD
:1059400090ED000A200000F089FCDFF8C845200037
:1059500000F06BFCDFF8C00590ED001ADFF8BC0525
:10596000D0ED000ADFF8D40790ED000A200000F027
:1059700075FC10BD35FA8E3C8FC2F53CA69BC43A2F
:10598000295C0F3ECDCCCC3C9B99993EE0B5FFF70E
:105990008BFF6A4601A9DFF8AC07D0ED000ADFF8FB
:1059A000A80790ED000A002000F074FE009901980D
:1059B00000F00FFF07BD000030EEC00A80ED010AC5
:1059C00090ED020AD0ED010A30EE200A80ED020AC5
:1059D00090ED020ADFED680AB4EE600AF1EE10FA0B
:1059E00002DBDFF8681781609FED640AD0ED020AE0
:1059F000F4EE400AF1EE10FA01D580ED020ADFF86C
:105A0000D41491ED000AD0ED010A20EE200AD1ED68
:105A1000010A90ED021A00EE810A80ED000A90ED75
:105A2000000ADFED570AB4EE600AF1EE10FA02DB6D
:105A3000DFF81C170160B9EE080AD0ED000AF4EE99
:105A4000400AF1EE10FA01D580ED000A90ED000A4F
:105A50007047000010B52DED028BDFF8E406D0EDA5
:105A6000001A31EE811A31EE408AF1EE608ADFF8D9
:105A7000E44694ED000A30EE080A84ED000A9FED3A
:105A80005F1ADFED5F0A94ED000A00F0BDFB84EDC4
:105A9000000ADFF8500490ED000A20EE480AD0ED2D
:105AA000010A94ED001A00EEC10AD0ED020A08EED8
:105AB000A00ADFF8A40680ED008ADFED520AB4EEFA
:105AC000600AF1EE10FA01DB9FED4F0ADFED4F0A9D
:105AD000B4EE600AF1EE10FA01D5B0EE600ABDEC4A
