:020000041008E2
:100000000000082895D90810E9E4081029E0081034
:10001000EDE40810F1E40810F5E408100000000019
:1000200000000000000000000000000019E10810BE
:10003000F9E4081000000000FDE4081001E50810D4
:100040008FD50810B5D50810DBD5081001D60810DB
:1000500027D608104DD6081073D6081099D6081068
:1000600005E5081009E508100DE5081011E5081070
:1000700015E5081019E508101DE5081021E5081020
:1000800080B5DFF8B004002141800021018000210B
:10009000417100F0C3F901BD2DE9F84785B09FED2E
:1000A000C00ADFF89804D0ED000AF4EE400AF1EE41
:1000B00010FA0CDBDFF88814D1ED000AF4EE400AE8
:1000C000F1EE10FA03D50121DFF868245174DFF84E
:1000D000701400680860DFF85C442079022805D1BC
:1000E000DFF8605495F82500002800D191E1608880
:1000F000B0F5FA7F80F28D81DFF84C64DFF84C7444
:10010000D7ED001A96ED001A95ED020BF7EEC00B35
:1001100095ED002BB7EEC20B00F0F3FEDFEDBE0A4B
:10012000B4EE600AF1EE10FA06DA607C002803D122
:10013000207C002840F06D81207C002814D101F043
:1001400045F9DFF8F4030021016000214160072137
:100150000173012101740020608001202074DFF808
:10016000F00302F04BF849E0B4F802A05FF0140885
:10017000DFF8C49395ED000BB7EEC00B5046C0B24C
:1001800008FB00F0484480ED000A5046C0B208FB6E
:1001900000F0484495ED020BB7EEC00B80ED010A6C
:1001A0005046C0B208FB00F0484429698160607C79
:1001B000002814D05046C0B208FB00F04844DFF8D5
:1001C000601C91ED000ABDEEC00A10EE101A01731A
:1001D00000206074DFF84C0C02F010F806E0504686
:1001E000C0B208FB00F04844002101735FFA8AFAAC
:1001F00008FB0AFA09EB0A00012101745FF01408F8
:10020000DFF83493608808FB00F04844007B00F07E
:10021000F5FE618808FB01F1494491ED010AB5EE54
:10022000400AF1EE10FA08D5618808FB01F1494453
:1002300091ED010AB1EE400A05E0618808FB01F189
:10024000494491ED010A618808FB01F14944D1ED6F
:10025000010AF5EE400AF1EE10FA0AD5618808FBB2
:1002600001F14944D1ED010AF1EE600AFDEEE00A28
:1002700007E0618808FB01F14944D1ED010AFDEE78
:10028000E00A618808FB01F1494491ED011AB5EEDD
:10029000401AF1EE10FA0AD5618808FB01F14944D1
:1002A00091ED011AB1EE411ABDEEC11A07E0618865
:1002B00008FB01F1494491ED011ABDEEC11A6188B4
:1002C00008FB01F14944D1ED011AF5EE401AF1EEB7
:1002D00010FA01D594A200E094A2618808FB01F114
:1002E0004944D1ED001AF5EE401AF1EE10FA08D5A6
:1002F000618808FB01F14944D1ED001AF1EE611A61
:1003000005E0618808FB01F14944D1ED001A6188DC
:1003100008FB01F1494491ED002AB5EE402AF1EEC7
:1003200010FA0AD5618808FB01F1494491ED002AD1
:10033000B1EE422ABDEEC22A07E0618808FB01F156
:10034000494491ED002ABDEEC22A618808FB01F103
:100350004944D1ED002AF5EE402AF1EE10FA0AD513
:10036000618808FB01F14944D1ED002AF1EE622ACF
:10037000FDEEE22A07E0618808FB01F14944D1ED76
:10038000002AFDEEE22A618808FB01F1494491ED63
:10039000003AB5EE403AF1EE10FA03D562A102E060
:1003A0000100003F61A19FED623A638808FB03F8FA
:1003B00009EB0803DB8904930390F8EEE00A30EEC2
:1003C000600A20EE030ABDEEC00A8DED020A8DED33
:1003D000011A0092B8EEC20A31EEC00A20EE030AFA
:1003E000BDEEC00A10EE103A12EE902ADFF8E80CCB
:1003F00001F004FF95ED000BB7EEC00B86ED000A8F
:1004000095ED020BB7EEC00B87ED000A6088401C2B
:10041000608006B0BDE8F087CECC4C3DF8B5454CC9
:100420000020608000F0D2FF00271425424E3800E3
:10043000C0B268433044DFF8AC1B142202F048F825
:100440007F1C3800C0B268433044DFF89C1B142284
:1004500002F03EF87F1C3800C0B268433044DFF839
:100460008C1B142202F034F87F1C3800C0B26843A1
:100470003044DFF87C1B142202F02AF87F1C38007D
:10048000C0B268433044DFF86C1B142202F020F83D
:100490007F1C3800C0B268433044DFF85C1B142274
:1004A00002F016F87F1C3800C0B205FB00F506EB21
:1004B0000500DFF8281C142202F00AF87F1CFFB2A6
:1004C000678000202080F1BDDFF8741B91ED000AE9
:1004D000BDEEC00A10EE100A0200D2B2002A21D0EE
:1004E000C0B2012804D01BD303280AD001D317E0DF
:1004F00016E010480022428000220280002202748E
:100500000EE0DFF8400B90ED000ABDEEC00A10EEE1
:10051000100ADFF8342B10700120DFF8682B107000
:1005200000200860704700002D000000000000005F
:100530000000C84210500228AC080228C851022806
:10054000D4510228404F0228D8510228DC510228F9
:100550003CDE08102DE9F0412DED028B8AB0DFF86A
:10056000844BDFF8E85A28786179884200F01F81CF
:1005700062792978DFF8D80A01F040FE0020608017
:10058000002020800020207442F210710022DFF849
:10059000086B3700380002F01DF86079002806D19A
:1005A000FFF73CFFDFF8AC0A01F028FE06E06079B7
:1005B000012803D1DFF8A00A01F020FE20790128EC
:1005C00040F0F3806088002800F0EF806188DFF859
:1005D000980A01F013FE002736E0DAA212E008FBC9
:1005E00007F2324492ED000ABDEEC03A08FB07F86C
:1005F00006EB080292ED000AB5EE400AF1EE10FAA1
:10060000EBD5D1A29FEDD10A0490B8EEC11A70EEDD
:10061000C10A60EE800AFDEEE00ACDED030ACDEDE1
:10062000021A0191F8EEE20A72EE600A20EE800AE8
:10063000BDEEC00A8DED000A13EE103A3900DFF866
:100640001C0A01F0DBFD7F1C6088874280F2A980D4
:100650005FF0140808FB07F03044007B00F0CEFC8C
:1006600008FB07F1314491ED010AB5EE400AF1EEC5
:1006700010FA07D508FB07F1314491ED010AF1EEBC
:10068000400A04E008FB07F13144D1ED010A08FB00
:1006900007F1314491ED010AB5EE400AF1EE10FA8E
:1006A00009D508FB07F1314491ED010AB1EE400A8A
:1006B000BDEEC01A06E008FB07F1314491ED010AD6
:1006C000BDEEC01A08FB07F1314491ED010AB5EE09
:1006D000400AF1EE10FA09D508FB07F1314491ED1B
:1006E000010AB1EE400AFDEEC01A06E008FB07F170
:1006F000314491ED010AFDEEC01A08FB07F13144C7
:1007000091ED010AB5EE400AF1EE10FA01D58EA185
:1007100000E08CA108FB07F2324492ED000AB5EE2E
:10072000400AF1EE10FA07D508FB07F2324492EDC9
:10073000000AB1EE402A04E008FB07F2324492EDD1
:10074000002A08FB07F2324492ED000AB5EE400A97
:10075000F1EE10FA09D508FB07F2324492ED000AD7
:10076000B1EE400AFDEEC02A06E008FB07F2324473
:1007700092ED000AFDEEC02A08FB07F2324492ED2A
:10078000000AB5EE400AF1EE10FA7FF528AF08FB3B
:1007900007F2324492ED000AB1EE400ABDEEC03AD3
:1007A00024E7DFF8CC0801F029FD60792870DFF834
:1007B000B06830782179884200F0188120790028CB
:1007C00004D1207930706079287021E320790128E4
:1007D00040F00A816079012840F0068100F0F6FDC2
:1007E0000020208001F036FFDFF8780801F006FDD8
:1007F0006088002800F0F8806188DFF86C0801F05C
:10080000FDFC002536E04FA212E008FB05F23A4459
:1008100092ED000ABDEEC03A08FB05F807EB0802AE
:1008200092ED000AB5EE400AF1EE10FAEBD546A2C1
:100830009FED460A0490B8EEC11A70EEC10A60EE50
:10084000800AFDEEE00ACDED030ACDED021A01911A
:10085000F8EEE20A72EE600A20EE800ABDEEC00AEF
:100860008DED000A13EE103A2900DFF8000801F0C0
:10087000C5FC6D1C6088854280F2B2805FF0140870
:10088000DFF8147808FB05F03844007B00F0B6FB75
:1008900008FB05F1394491ED010AB5EE400AF1EE8D
:1008A00010FA07D508FB05F1394491ED010AF1EE84
:1008B000400A04E008FB05F13944D1ED010A08FBC8
:1008C00005F1394491ED010AB5EE400AF1EE10FA56
:1008D00009D508FB05F1394491ED010AB1EE400A52
:1008E000BDEEC01A06E008FB05F1394491ED010A9E
:1008F000BDEEC01A08FB05F1394491ED010AB5EED1
:10090000400AF1EE10FA09D508FB05F1394491EDE2
:10091000010AB1EE400AFDEEC01A06E008FB05F13F
:10092000394491ED010AFDEEC01A08FB05F1394486
:1009300091ED010AB5EE400AF1EE10FA08D502A1D8
:1009400007E000BF000000002D0000000000C842CA
:10095000ACA108FB05F23A4492ED000AB5EE400A5C
:10096000F1EE10FA07D508FB05F23A4492ED000AC1
:10097000B1EE402A04E008FB05F23A4492ED002A69
:1009800008FB05F23A4492ED000AB5EE400AF1EE9A
:1009900010FA09D508FB05F23A4492ED000AB1EECF
:1009A000400AFDEEC02A06E008FB05F23A4492ED4B
:1009B000000AFDEEC02A08FB05F23A4492ED000A57
:1009C000B5EE400AF1EE10FA7FF51FAF08FB05F215
:1009D0003A4492ED000AB1EE400ABDEEC03A1BE780
:1009E000DFF88C0601F00AFC2079307020790028AD
:1009F00004D0022800F0FC8101D309E208E26788F4
:100A000025883800C0B2002804D1DFF8680600212C
:100A10000160FDE19FEDD60BDFF85C0690ED001A5A
:100A2000B0EEC11AB7EEC11A9FEDD33B21EE031B06
:100A3000B0EE402B01EE002BF7EEC20BB7EE000A32
:100A400001F046FEF0EE400A9FEDCD0A01F054FEA3
:100A5000B0EE408A7E1EA84601E018F1010840462B
:100A60003900C0B2C9B2884221D2DFF8342614213D
:100A7000DFF824064346DBB24B430344D3ED011AAF
:100A80004346DBB201FB03F1084490ED001A92EDFE
:100A9000020BF7EEC00B92ED002BB7EEC20B00F08D
:100AA00030FAB4EE480AF1EE10FAD6DB46460020E2
:100AB0000021CDE9080100200021CDE906019FEDCC
:100AC000D70A06AA08A9F6B2300080B200F0BCF935
:100AD000002837D09DED080BB7EEC00BDFF8C0053E
:100AE000D0ED040A30EE600A00F062FF9DED061BB7
:100AF000B6EE003BB4EE431BF1EE10FA02D5DFED8B
:100B0000C70A01E0DFEDC50AB7EE001A71EE600A10
:100B100060EE800AB0EE600ADFF8600590ED0A0A28
:100B200030EE600A00F044FFDFF8540580ED000A63
:100B3000DFF850050078002804D1DFF83805DFF829
:100B400048150160DFF8440590ED000ADFEDB60AB4
:100B5000B4EE600AF1EE10FA1CDBDFF8340590ED1C
:100B6000000AF2EE040A80EE200ABDEEC00A10EE82
:100B7000100A010049B2002900D10520DFF8141540
:100B80000A78521C0A7091F9002040B2824201DBBF
:100B9000002008702800C0B280B200F0C3F900281D
:100BA00000F01D8100F042F920880100C9B262887E
:100BB00089B2914280F00F812900C0B2C9B2884247
:100BC00000F009811426DFF8D0742800C0B2704309
:100BD000384490F8200000F011FA2900C9B271439E
:100BE000394491ED060AB5EE400AF1EE10FA0BD544
:100BF0002900C9B27143394491ED060AF1EE400A69
:100C000008E000BF000000002900C9B27143394468
:100C1000D1ED060A2900C9B27143394491ED060AA3
:100C2000B5EE400AF1EE10FA0AD52900C9B27143B7
:100C3000394491ED060AB1EE400ABDEEC01A07E054
:100C40002900C9B27143394491ED060ABDEEC01ABC
:100C50002900C9B27143394491ED060AB5EE400A44
:100C6000F1EE10FA0AD52900C9B27143394491ED69
:100C7000060AB1EE400AFDEEC01A07E02900C9B22B
:100C80007143394491ED060AFDEEC01A2900C9B23C
:100C90007143394491ED060AB5EE400AF1EE10FABF
:100CA00001D59EA200E09EA22900C9B27143394439
:100CB00091ED050AB5EE400AF1EE10FA08D52900CB
:100CC000C9B27143394491ED050AB1EE402A05E0FD
:100CD0002900C9B27143394491ED052A2900C9B2EE
:100CE0007143394491ED050AB5EE400AF1EE10FA70
:100CF0000AD52900C9B27143394491ED050AB1EE14
:100D0000400AFDEEC02A07E02900C9B27143394408
:100D100091ED050AFDEEC02A2900C9B2714339449C
:100D200091ED050AB5EE400AF1EE10FA0AD5290058
:100D3000C9B27143394491ED050AB1EE400ABDEEE6
:100D4000C03A07E02900C9B27143394491ED050A60
:100D5000BDEEC03A2900C9B27143394491ED050A8C
:100D6000B5EE400AF1EE10FA0CD56CA10BE000BF15
:100D7000000000A09999C93F32AB6ADFD619723FD3
:100D8000CDCC4C3E66A19FED960AEDB206FB05F672
:100D900007EB06035B8C04930390B8EEC11A70EE68
:100DA000C10A60EE800AFDEEE00ACDED020ACDED4B
:100DB000011A0092F8EEE20A72EE600A20EE800A52
:100DC000BDEEC00A10EE103A13EE102ADFF8CC0286
:100DD00001F014FA03E0DFF8080301F00FFA2088AD
:100DE0006188491E884202DB208800F09BF80FE0F2
:100DF0006079002801D1FFF711FB6079012801D14A
:100E0000FFF74AF96079022801D1FFF75DFBFFE7A0
:100E10000AB0BDEC028BBDE8F081000000000000CC
:100E2000C0510228ACDE08100100003FAD48018827
:100E30004288521E914201DB002003E00188491CD8
:100E4000018001207047000070B52DED048B0C006F
:100E50001500010089B2B1F5FA7F0DDA14228E4B2C
:100E6000010089B251431944097C002904D08C4EF9
:100E700096F82510002901D100203FE0010089B239
:100E80005143194491ED000AB7EEC00A96ED001BDC
:100E900030EE418B80B25043184490ED010AB7EE1A
:100EA000C00A96ED021B30EE419B28EE080B09EEBE
:100EB000090B01F037FC85ED000B95ED000B9FED64
:100EC000792BB4EE420BF1EE10FA06D596ED040A3A
:100ED000B7EEC00A84ED000B0FE0B0EE481BB0EE99
:100EE000490B01F033FC9FED712B20EE020B9FEDBF
:100EF0007E2B80EE020B84ED000B0120BDEC048BF9
:100F000070BD80B531EE400A71EEE00A20EE000AB5
:100F100000EEA00A01F05AFC01BD00002D00000007
:100F20000000000018B4010089B2B1F5FA7F0DDAB3
:100F30001422594B010089B251431944097C0029FC
:100F400004D0574C94F82510002901D1002044E02A
:100F5000010089B25143194491ED000AB7EEC00A6D
:100F600094ED001B30EE410B010089B2514319444E
:100F700091ED011AB7EEC11A94ED022B31EE421B2E
:100F800020EE000B01EE010B9FED4A1A80B2504398
:100F90001844007B002809D0042802D0062806D077
:100FA0000AE0DFED531A21EE211A09E008E0F6EE1F
:100FB000001A21EE211A03E0F6EE001A21EE211AA2
:100FC00021EE011AB7EEC11AB4EE401BF1EE10FA91
:100FD00001DB012000E00020C0B212BC704700001D
:100FE0000000C842C8E10810DCE10810F0E1081078
:100FF00004E2081018E208102CE20810C0B2002821
:101000000BD002280DD00AD304280ED00BD306280B
:101010000FD00CD307280ED00FE027480EE027484A
:101020000CE027480AE0274808E0274806E0274860
:1010300004E0274802E0274800E02E4870470000FF
:10104000BC510228C451022888500228A90802284D
:10105000C0DF0810C4E00810E8DB0810DCDE081070
:10106000C852022830DC08106CDF08103CDF081082
:101070000CDF0810E0510228F05002286C4D0228C5
:1010800040070228C252022800007A44380702288A
:101090003C070228C9520228AC08022844DA08108A
:1010A000404F02287B14AE47E17A843F00000000E5
:1010B00000806640CDCC4C3EA4E208103CE3081012
:1010C000B0E20810BCE20810C8E20810D4E2081030
:1010D000E0E2081044E30810A0DA081040E208102B
:1010E00074DC081010500228282D4454FB210940BC
:1010F000CDCC4C3FECE20810F8B52DED048B04008C
:101100000D0016009FEDAC0BDFF8287A97ED041A5E
:10111000B7EEC11A21EE001B9FEDA93B81EE031B28
:10112000B7EEC18B97ED031AB7EEC11A21EE000B93
:101130009FEDA32B80EE020BF7EEC08BB0EE480ABA
:1011400001F03CFCB0EE409AB0EE680A01F036FCCB
:10115000F0EE409AB0EE480A01F02EFC60EE299ABB
:10116000B0EE680A01F028FCF0EE408AB0EE480AC2
:1011700001F022FC20EE280ADFEDBE0A97ED091AE5
:1011800031EE491A21EE201A84ED001A97ED0A1A61
:1011900031EE691A21EE201A85ED001A97ED0B1A2F
:1011A00031EE400A20EE200A86ED000ABDEC048BE9
:1011B000F1BD000080B52DED028B00F05DF99FEDD3
:1011C000828AB0EE480ADFF8700901F0FBFDB0EE4C
:1011D000480ADFF8680901F0F5FDB6EE000ADFF80D
:1011E000600901F0EFFD9FEDA00ADFF86C0901F046
:1011F000E9FDBDEC028B01BDF8B52DED028BDFF8EA
:10120000444994ED0A0ADFF84009D0ED000A30EEB7
:10121000600A00F0CDFBDFF81C59B1EE400A85ED05
:10122000050A94ED0C0AB1EE400A85ED040A94ED2E
:101230000B0AB1EE400A85ED030A94ED010AB1EE06
:10124000400A85ED060A94ED000AB1EE400A85EDEC
:10125000070A94ED020AB1EE400A85ED080A94ED02
:10126000040AB1EE400A85ED090A94ED030AB1EED5
:10127000400A85ED0A0A6069E862DFF8D00890ED5F
:10128000000ABDEEC00A10EE100A2880DFF8C00880
:1012900090ED000ABDEEC00A10EE100A68809FEDC6
:1012A000730BB5F9000001EE100AB8EEC11AB7EEE3
:1012B000C11A21EE001BB7EEC11B85ED011AB5F96D
:1012C000020001EE100AB8EEC11AB7EEC11A21EE03
:1012D000000BB7EEC00B85ED020ADFF8786895EDDC
:1012E000010ADFF8540801F085FD86ED010A95ED4D
:1012F000020ADFF8480801F07DFD86ED020A16F1CA
:101300002C0216F1280116F12400FFF7F5FE96EDE8
:10131000090ADFF82C0801F06DFD86ED090A6869FD
:10132000706128693061E868F0600C2215F11801DD
:1013300016F11807380001F0BBF895ED080ADFF840
:10134000180801F057FD86ED080A94ED0A0AB7EE79
:10135000C00A9FED192B20EE020B9FED192B80EE9A
:10136000020BB7EEC08BDFF8F447B0EE480A01F08D
:1013700025FBDFF8EC07218800EB810080ED000AF7
:10138000B0EE480A01F018FBDFF8D807218800EB1F
:10139000810080ED000A2088401C20802088B0F564
:1013A000967F05DB002020800120DFF8C017087041
:1013B000BDEC028BF1BD0000282D4454FB210940F7
:1013C0000000000000806640CDCC4C3F10B5DFF837
:1013D000984700200021C4E9000100200021C4E951
:1013E0000201DFF888070078002832D09FED800ADC
:1013F000DFED7F0A002014E0DFF86417020092B2EC
:1014000001EB820191ED001A30EE010ADFF854176A
:10141000020092B201EB820191ED001A70EE810A96
:10142000401C010089B2B1F5967FE5DB01F0FCFCC0
:10143000B7EEC00A9FED6F2B20EE020B9FED6F2BD6
:1014400080EE020BB7EEC00BDFF8FC0680ED000A61
:1014500005E0DFF8F006806ADFF8EC16086001208E
:1014600084F8250010BD0000CDCC4C3E32AB6ADFC5
:10147000D619723F0AE81C4138B5DFF8F44601235B
:1014800003220421200001F09BFADFF81C052060F4
:1014900004F2C445280001F073FFDFF8D80690ED90
:1014A000000A00220021280001F00CFDDFF8C80628
:1014B00090ED000A01220121280001F003FDDFF870
:1014C000BC0690ED000A02220221280001F0FAFC7D
:1014D000DFF8AC0690ED000A03220321280001F09A
:1014E000F1FC04F25C55280001F04AFFDFF8940695
:1014F00090ED000A00220021280001F0E3FCDFF853
:10150000880690ED000A01220121280001F0DAFC92
:10151000DFF8780690ED000A02220221280001F08F
:10152000D1FC14F53F75280001F02AFFB7EE000A40
:1015300000220021280001F0C5FCB7EE000A0122BC
:101540000121280001F0BEFCB7EE000A01220221B1
:10155000280001F0B7FCB7EE000A032202212800A0
:1015600001F0B0FC04F22C4001F0C0FC241D20006E
:1015700001F006FFDFF8180690ED000AB7EEC00A8A
:101580009FED202B20EE020BB7EEC00B00220021B6
:10159000200001F097FC31BD38B52DED028BB0EE87
:1015A000408ADFF8CC45D4ED008A14F5E6752800B2
:1015B00001F09CFCB1EE680A02220021280001F033
:1015C00081FC14F19C05280001F0DAFEB0EE680AF7
:1015D00000220021280001F075FCB0EE480A00222C
:1015E000002114F59A7001F06DFCBDEC028B31BD49
:1015F000000000000000000000806640282D4454D8
:10160000FB21094032AB6ADFD619723F2DE9F04168
:101610002DED088B84B0FFF7EFFD00F08DF900F0A1
:10162000F1F9002804D1DFF86C05007A002801D018
:10163000012400E00024DFF8580590ED000AB7EE21
:10164000C00A9FEDB92B20EE020BF7EEC09BDFF82E
:10165000045595ED010AD5ED020A30EE200ADFEDC2
:10166000B40AC0EE208ADFF8CC0490ED089A95ED1C
:1016700009AADFF8100590ED000ADFF80C05D0ED9F
:1016800000AADFF8E46496F82400012807D1DFF807
:10169000080590ED000ADFF80405D0ED00AA9FEDE3
:1016A000C28AF0EEE90AF4EE480AF1EE10FA14D517
:1016B000F0EEE80A9FED9F1AF4EE410AF1EE10FAFF
:1016C0000BD52000C0B2002807D19FEDCDAADFEDD9
:1016D000B7AAB0EE6A0ADFEDCA8ADFF8947407F29F
:1016E0005C5800220021404601F0ECFBB0EE6A0A93
:1016F00001220121404601F0E5FBDFF8900490ED66
:10170000000A02220221404601F0DCFB07F2C44835
:10171000DFF8600490ED000A00220021404601F04D
:10172000D1FBDFF8540490ED000A0122012140466C
:1017300001F0C8FBDFF8440490ED000A0222022108
:10174000404601F0BFFBDFF8380490ED000A0322A9
:101750000321404601F0B6FB2000C0B2002825D08E
:101760009FEDA70AFFF718FF380001F0F3F917F112
:10177000040800220021404601F0A2FDF0EE409A4C
:1017800000220121404601F09BFDF0EE408A00223C
:101790000121404601F094FDB0EE409A0022032161
:1017A000404601F08DFD30EE099A06E0B0EE4A0A9F
:1017B000FFF7F2FE380001F0CDF9CDED009A684652
:1017C000C0ED018A80ED029A6946380001F01AFAEC
:1017D0003F1D00220021380001F072FDF0EE408A2A
:1017E00000220121380001F06BFDB0EE409A95ED2A
:1017F000050AB7EEC00A9FED7C2B20EE020B9FED91
:101800007C2B80EE020BB7EEC0ABDFED7B0ADFF87E
:10181000900390ED000AB0EEC00AB4EE600AF1EE5B
:1018200010FA11D5B0EEE90A9FED741AB4EE410A30
:10183000F1EE10FA08D5E4B2002C05D1DFED708A84
:101840009FED6F9A9FED6E0A9FED6D0A9FED6C0AFA
:1018500069EE08AAB0EEC90AB4EE600AF1EE10FA19
:1018600014D5B0EE000ACAEE80AA3AEE2A0A01F0B8
:10187000A3F820EE280A60EE089A3AEE2A0A01F050
:101880009DF820EE280A20EE080A1DE088EE898ADD
:101890003AEE2A0A01F092F8F0EE409AB0EE4A0AC7
:1018A00001F08CF839EEC00A60EE089AB0EE4A0AF0
:1018B00001F082F8B0EE40BA3AEE2A0A01F07CF864
:1018C0003BEE400A20EE080AB7EEE91A96ED002B2F
:1018D00031EE021B86ED001BB7EEC00A96ED021B2F
:1018E00030EE010B86ED020BC6ED058A86ED069AF9
:1018F00000220221380001F0E3FC86ED070A0022F5
:101900000321380001F0DCFC86ED080A95ED050A9C
:1019100000F04EF886ED040A012086F8250004B098
:10192000BDEC088BBDE8F08132AB6ADFD619723F9F
:101930005C8F423ECDCC4C3D9FED1B0A9448D0EDD0
:10194000000AB7EEE01A9FED973B21EE031BF7EE7E
:10195000C10B964890ED001A30EEC11A81EE000AD4
:10196000C0ED000A7B48D0ED090A30EE600AB0EE07
:10197000C00ADFED8F0AB4EE600AF1EE10FA0BDB5D
:101980008C480178491C0170007803280BDB01208A
:10199000754981F8240006E000208649087000207F
:1019A000714981F8240070470AD7233C17B7D13812
:1019B00080B52DED028B9FED808AF0EE480A9FEDF9
:1019C0007F1A30EE010A01F0F5FCB5EE400AF1EEA7
:1019D00010FA01D530EE080ADFED840A30EE200A55
:1019E000BDEC028B01BD0000282D4454FB210940B1
:1019F00000000000008066406F12833A9A99193EF9
:101A00000000000010B49FED6E2ADFED6E2A9FEDFE
:101A10006E3A9FED6E0ADFED6E0A9FED6E1ADFEDF6
:101A20006E1A4448D0ED0B3A90ED064AD0ED074AC5
:101A30006A4862EE233AB7EE005A35EE422A90ED3C
:101A4000005A42EE053AC0ED003AB0EEC42AF0EE7C
:101A5000E43A33EE822A624922EE822AF7EE003A15
:101A600073EEE22AD1ED003A02EEA32A81ED002ABC
:101A700090ED002AB4EE432AF1EE10FA08D590ED6D
:101A8000002AB4EE420AF1EE10FA01D5012200E07C
:101A9000002291ED000AB4EE600AF1EE10FA01D5D1
:101AA000012300E0002390ED000AB4EE401AF1EEAD
:101AB00010FA08D590ED000AB4EE610AF1EE10FAC2
:101AC00001D5012400E0002446490878002818D1F7
:101AD000D2B2002A11D0DBB2002B0ED042480278DD
:101AE000521C02700022424B1A700278052A1DDB3C
:101AF00001220A700022027018E000203A4A107099
:101B000014E0E4B2002C0ED039480278521C027066
:101B10000022354B1A7002780A2A07DB00220A706D
:101B20000022027002E00020314A1070087810BCD8
:101B300070470000EC4D022894500228A050022863
:101B4000AC5002286C4D0228B0510228F4500228F3
:101B5000F85002281C4E0228B85002289E52022833
:101B6000D43F022884440228404F0228C35202284E
:101B7000BC2F022810070228140702281807022881
:101B80001C070228200702282807022830070228FD
:101B9000F050022888500228240702282C07022827
:101BA000E051022832AB6ADFD619723FB4510228E5
:101BB00001000040C45202280000B4430000344336
:101BC0009A99993ECDCC4C3ECDCCCC3ECDCCCCBE22
:101BD0000000AF43CDCC4C3F9A99993F340702287F
:101BE000B8510228C5520228C6520228000034C348
:101BF000C75202285FF0FF307FF07C41704730B45D
:101C000000204FF480721300DFF804472500012BF9
:101C10000FDB15F01F01CB18BFF34F8FDFF8F41661
:101C20000D602035203B012BF8DABFF34F8FBFF357
:101C30006F8F94F8F410002915D00120002184F84A
:101C4000F410012A0FDB14F01F018A18BFF34F8F25
:101C5000DFF8C0160C602034203A012AF8DABFF30E
:101C60004F8FBFF36F8FC0B230BC7047DFF8A8262C
:101C700082F8C0004FF4D67101290FDB12F01F006B
:101C80004118BFF34F8FDFF88C06026020322039F5
:101C90000129F8DABFF34F8FBFF36F8F70472DE93B
:101CA000F0474FF4D67949460022DFF86C4625000C
:101CB000280000F08FFC4FF4847529000022DFF823
:101CC0005C663700380000F085FC4FF480773900FF
:101CD0000022DFF83C86C246504600F07BFCDFF86D
:101CE00040060068C8F80000DFF838060068C8F849
:101CF0000400DFF834060068C8F80800DFF82C0696
:101D00000068C8F80C00DFF828060068C8F8100062
:101D1000DFF820060068C8F81400DFF81C06006829
:101D2000C8F81800DFF814060068C8F81C00DFF8CF
:101D300010060068C8F82000DFF808060068C8F838
:101D40002400DFF804060068C8F82800DFF8FC0566
:101D50000068C8F82C00DFF8F8050068C8F8300003
:101D6000DFF8F0050068C8F83400DFF8EC0500681B
:101D7000C8F83800DFF8E4050068C8F83C00DFF870
:101D8000E0050068C8F84000DFF8D8050068C8F82A
:101D90004400DFF8D4050068C8F84800DFF8CC0537
:101DA0000068C8F84C00DFF8C8050068C8F85000A3
:101DB000DFF8C0050068C8F85400DFF8BC0500680B
:101DC000C8F85800DFF8B4050068C8F85C00DFF810
:101DD000B0050068C8F86000DFF8A8050068C8F81A
:101DE0006400DFF8A4050068C8F86800DFF89C0507
:101DF0000068C8F86C00DFF898050068C8F8700043
:101E0000DFF890050068C8F87400DFF88C050068FA
:101E1000C8F87800DFF884050068C8F87C00DFF8AF
:101E200080050068C8F88000DFF878050068C8F809
:101E30008400DFF874050068C8F88800DFF86C05D6
:101E40000068C8F88C00DFF868050068C8F89000E2
:101E5000DFF860050068C8F89400DFF85C050068EA
:101E6000C8F89800DFF854050068C8F89C00DFF84F
:101E700050050068C8F8A000DFF848050068C8F8F9
:101E8000A400DFF844050068C8F8A800DFF83C05A6
:101E90000068C8F8AC00DFF838050068C8F8B00082
:101EA000DFF830050068C8F8B400DFF82C050068DA
:101EB000C8F8B800DFF824050068C8F8BC00DFF8EF
:101EC00020050068C8F8C000DFF818050068C8F8E9
:101ED000C400DFF814050068C8F8C800DFF80C0576
:101EE0000068C8F8CC00DFF808050068C8F8D00022
:101EF000DFF800050068C8F8D400DFF8FC040068CB
:101F0000C8F8D800DFF8F4040068C8F8DC00DFF88F
:101F1000F0040068C8F8E000DFF8E8040068C8F8DA
:101F2000E400FFF767FEC8E93A01012088F8F000F5
:101F30001F20C8F8F800002088F8F200012088F877
:101F4000F300B9F1010F12DB14F01F0010EB0909C7
:101F5000BFF34F8FDFF8BC0304602034B9F12009D0
:101F6000B9F1010FF6DABFF34F8FBFF36F8F012D79
:101F70000FDB16F01F004519BFF34F8FDFF89403F6
:101F800006602036203D012DF8DABFF34F8FBFF3F6
:101F90006F8F012F11DB18F01F00C719BFF34F8F90
:101FA000DFF87003C0F8008018F12008203F012FEF
:101FB000F6DABFF34F8FBFF36F8FBDE8F087DFF81E
:101FC0005813DFF84404026B0A60C26A4A60806AF0
:101FD0008860DFF83804028A8A81408AC881DFF885
:101FE000300400880882DFF82C0400884882DFF87B
:101FF000280490ED000BB7EEC00B81ED050A90EDC3
:10200000020BB7EEC00B81ED060A4269CA61826914
:102010000A6202694A6290F8250000EE100AB8EEE2
:10202000400A81ED0A0ADFF8F4030068C862DFF8AD
:10203000F00300680863DFF8EC0300684863DFF82A
:10204000E80300688863DFF8E4030068C863DFF82A
:10205000E00300680864DFF8DC0300684864DFF828
:10206000D80300688864DFF8D4030068C864DFF828
:10207000D00300680865DFF8CC0300684865DFF826
:10208000C80300688865DFF8C4030068C865DFF826
:10209000C00300680866DFF8BC0300684866DFF824
:1020A000B80300688866DFF8B4030068C866DFF824
:1020B000B003008800EE100AB8EE400A81ED1C0A59
:1020C000DFF8A003007800EE100AB8EE400A81EDB8
:1020D0001D0ADFF89403007800EE100AB8EE400AFB
:1020E00081ED1E0ADFF8840390ED000AB8EE400A85
:1020F00081ED1F0ADFF8780390ED000AB8EE400A80
:1021000081ED200ADFF86C0390ED000AB8EE400A7A
:1021100081ED210ADFF8600390ED000AB8EE400A75
:1021200081ED220ADFF854030068C1F88C00DFF863
:1021300050030068C1F89000DFF848030068C1F858
:102140009400DFF844030068C1F89800DFF83C030E
:102150000068C1F89C00DFF838030068C1F8A000EF
:10216000DFF830030068C1F8A400DFF82C03006832
:10217000C1F8A800DFF824030068C1F8AC00DFF85C
:1021800020030068C1F8B000DFF818030068C1F848
:10219000B400002009E001EB8002DFF80C3353F8B3
:1021A00020301B68C2F8C430401C3A28F3DBD1F859
:1021B000B800401CC1F8B800DFF8F002827981F85D
:1021C000BC20C27981F8BD20027A81F8BE20407A15
:1021D00081F8BF004FF4D672012A0EDB11F01F0008
:1021E0008218BFF34F8F4B4801602031203A012AFB
:1021F000F9DABFF34F8FBFF36F8F70470EB400B59E
:10220000C0B0020041AB4FF48071684601F038F96C
:1022100000208DF8FF0072B6002100E0491CB1F5E6
:10222000807F07D26846425C3C4B0B445A71405C4D
:102230000028F3D1B1F5807F03D30020374981F81E
:102240000401364A012010711068401C10604FF4E0
:10225000847101290EDB12F01F004118BFF34F8F6C
:102260002C480260203220390129F9DABFF34F8F60
:10227000BFF36F8F62B640B05DF810FB80B501F020
:10228000C3F902BD70B54FF480742100204D2A00BF
:1022900001290EDB12F01F004118BFF34F8F1D48BC
:1022A0000260203220390129F9DABFF34F8FBFF3E2
:1022B0006F8F95F8F000012829D100260DE0D5E9AF
:1022C0003A01320001F0C8F9C00705D555F82600DB
:1022D000754951F826100860761C3A2EEFDB002075
:1022E0000021C5E93A01002085F8F000012C0EDB41
:1022F00015F01F000419BFF34F8F06480560203505
:10230000203C012CF9DABFF34F8FBFF36F8F70BD04
:102310000016002870EF00E00010002800140028CC
:1023200000E4081004E4081008E408100CE40810A5
:1023300010E4081014E4081018E408101CE4081055
:1023400020E4081024E4081028E408102CE4081005
:1023500030E4081034E4081038E408103CE40810B5
:1023600040E4081044E4081048E408104CE4081065
:1023700050E4081054E408107CE4081080E40810CD
:1023800084E4081088E408108CE4081090E4081035
:1023900094E4081098E408109CE40810A0E40810E5
:1023A000A4E40810A8E40810ACE40810B0E4081095
:1023B000B4E40810D8E40810DCE40810E0E40810E5
:1023C000E4E4081058E408105CE4081060E4081025
:1023D00064E4081068E408106CE4081070E4081065
:1023E00074E4081078E40810B8E40810BCE408109D
:1023F000C0E40810C4E40810C8E40810CCE40810D5
:10240000D0E40810D4E408106C4D022824500228AF
:102410009652022898520228404F02280C51022856
:102420001051022814510228185102281C51022868
:102430002051022800510228FC5002283C51022859
:102440004051022844510228485102284C51022888
:102450005051022854510228585102285C51022838
:10246000A4520228D5520228D652022850520228DD
:1024700054520228585202285C520228E450022882
:1024800040520228980702289C070228A007022829
:10249000A4070228A8070228AC07022844520228F1
:1024A000485202284C52022808D70810B0070228C8
:1024B00062B38B0708D0521E11F8013B00F8013BB4
:1024C00000F024808B07F6D1830740F0208000BF06
:1024D000103A07D330B4B1E83810103AA0E83810F9
:1024E000F9D230BC530724BFB1E80810A0E80810A7
:1024F00044BF51F8043B40F8043BD20724BF31F8F5
:10250000022B20F8022B44BF0B7803707047121F78
:1025100017D35B0009D151F8043B20F8023B1B0C98
:10252000121F20F8023BF6D20BE051F8043B00F8F2
:10253000013B1B0A20F8023B1B0C121F00F8013B59
:10254000F3D238BF121D521E24BF11F8013B00F810
:10255000013BF8D87047F0B402461068956813182C
:10256000506803EB5004C00748BF4D44A3422DD030
:1025700013F8016B16F0030004BF13F8010BC01C25
:1025800031090F2907D113F8011B0F3103E013F8AC
:10259000017B05F8017B401EF9D10029E6D013F834
:1025A000010BC6F38106032E08BF13F8016B00EB85
:1025B0000620404228440026B71E8F421EBF10F856
:1025C000017B05F8017B761CF6D1CFE7F0BC02F168
:1025D0000C00704762F30F2262F31F42401810F0A4
:1025E000030308D0C91A1FD3DB0748BF00F8012D29
:1025F00028BF20F8022D130030B4144615461039B8
:1026000028BF20E93C00FAD8490728BF20E90C0080
:1026100048BF40F8042D890028BF20F8022D48BF8C
:1026200000F8012D30BC7047C91818BF00F8012D03
:10263000CB0728BF00F8012D70478268521C8260CA
:10264000426832B10268531C036011704168491E30
:102650004160704710B4DFF86C10002081F864000E
:10266000002081F86500002200E0521CDFF85800CD
:102670004088824224DA1423DFF8504003FB02F042
:102680002044007B0028F0D003FB02F02044007BB4
:102690000728EAD091F8640001F8102091F864004E
:1026A00001EB400003FB02F323441B7B437091F8D2
:1026B0006400401C81F8640091F864003228D4DB87
:1026C00010BC7047BC4C022810500228AC080228ED
:1026D00010EE100AF5EE400AF1EE10FA0BD618B91A
:1026E00004BFB0EE600A06E0F4EE400AF1EE10FA24
:1026F000B8BFB0EE600A704710EE100AF5EE400A5F
:10270000F1EE10FA09D604BFC04207E0B4EE600A49
:10271000F1EE10FAB8BFB0EE600A704728BFB0EE15
:10272000600A7047B5EEC00BF1EE10FA02D4B1EEBC
:10273000C00B70476FF0004C20EE10CBAFF3008061
:1027400070470268531C03601170704752EC113BD4
:1027500051EC10CBB0EEC00BB0EEC11BC80F49005E
:10276000520028BF0C3011F5001F34BF12F5001FB6
:1027700010E0634572EB010C38BF80F00400134396
:102780001AD003D281EE000B00F076BF80EE010B71
:1027900000F072BF11F5001F08BF80F0040094BF65
:1027A00012F5001F0CE08A424FF0000312BF002216
:1027B0004FF07C5242F4700242EC103B00F05CBFE0
:1027C0006FF0004120EE101B70470000B5EEC00A0C
:1027D000F1EE10FA02D4B1EEC00A70476FF0004C6F
:1027E00000EE10CAAFF3008070470000DFED620A10
:1027F00060EE200A10EE902A22F0004101EE101A3D
:10280000DFED5E1AB4EE611AF1EE10FA25D54FF045
:102810007C5102F000420A4301EE102A71EE200AB8
:10282000FDEEE00A10EE901A00296AD0FAEEC90A0D
:102830009FED531A00EE810ADFED521A00EEA10A55
:102840009FED512A00EE820ADFED502A00EEA20A27
:102850009FED4F1A00EE810A53E010EE101A4B0064
:102860001B1613F1010F0AD14900081610F1010FD0
:1028700002D1090240F07F809FED460A704749006F
:1028800004D1002877D0B7EE000A70474FF07C5192
:1028900002F000420A4301EE102A71EE200A10EE07
:1028A000902A51000DD0090EC1F196011829A8BF38
:1028B00002F0004203DA0029C4BFCA408A4000EE99
:1028C000902A10EE901A490017D09FED331A20EE8F
:1028D000811ADFED2B1A01EE210A9FED2A2A01EE63
:1028E000020ADFED292A01EE220A9FED283A01EEC5
:1028F000030ADFED271A01EE210AFDEEE00A10EED1
:10290000901A01F00301081810EE101A21F000418E
:1029100000EE901A9FED211AF4EE410AF1EE10FA42
:1029200004D5C10723D5B7EE000A20E0C10760EE49
:10293000000A0ED59FED1A0A9FED1A1A00EE801AB2
:10294000DFED191A41EE201AB7EE000A01EEA00AD7
:102950000DE09FED162ADFED161A40EE821ADFED2C
:10296000152A20EE201A41EEA02A01EE220A800745
:1029700048BFB1EE400A704783F9223F0000004F84
:102980000000C9C600A0FDC00020A2BA000034B3F8
:102990000030C2AEFFFFFF7F0000803800008039AA
:1029A0009349B2BA36A02A3DDFFFFFBE6E8C4CB908
:1029B0004283083CA1AA2ABE012017E7002015E7A0
:1029C000F8B52DED028B04000E0017001D00002C41
:1029D00005D0701E062802D2781E042801D30020DC
:1029E000B2E001223100201D00F054FA2A0031002B
:1029F00014F19C0000F04EFA0122290014F59A709F
:102A000000F048FA3200310014F5E67000F042FAA6
:102A10003200310014F5197000F03CFA3200390030
:102A200014F53F7000F036FA3A00310014F5657085
:102A300000F030FA3200310004F22C4000F02AFAA3
:102A40003200310004F2C44000F024FA3A003900A8
:102A500004F25C5000F01EFA0122390004F2F45036
:102A600000F018FA3A00310004F28C6000F012FA1B
:102A70000122310004F2247000F00CFA012231002E
:102A800004F2BC7000F006FA3200310004F6540083
:102A900000F000FA3A00310004F6EC0000F0FAF918
:102AA0003A00390004F6841000F0F4F93A003900D5
:102AB00004F61C2000F0EEF90122390004F6B420DF
:102AC00000F0E8F90122310004F64C3000F0E2F9A0
:102AD0003200310004F6E43000F0DCF9320031005D
:102AE00004F67C4000F0D6F941F20C00265041F289
:102AF0001000275041F21400255014F5E67000F044
:102B0000F5F904F22C4000F0F1F914F19C0000F00A
:102B1000EDF904F2C44000F0E9F99FED0D8AB0EE42
:102B2000480A04F2C44104F2C44000F0E5FB04F298
:102B30005C5000F0DBF9B0EE480A04F25C5104F29C
:102B40005C5000F0D9FB0120BDEC028BF2BD00000F
:102B50000AD7233C10B50400002C52D041F20C00DF
:102B6000205841F214016158D4F85C22824213D1FA
:102B7000D4F8602282420FD1D4F82C2182420BD1AA
:102B8000D4F83001884207D1D4F8C401884203D177
:102B9000D4F8C801012800D033E0221D14F5E671F5
:102BA00004F2247000F004FA14F59A7214F19C01F6
:102BB00004F2BC7000F0FCF904F2BC7204F224715F
:102BC000201D00F0B2F904F22C4214F5E67104F66F
:102BD000540000F0EDF914F5E67114F5197000F0E9
:102BE0002FFA14F5197204F6540104F22C4000F087
:102BF000DFF904F2C44204F22C4104F22C4000F04C
:102C000094F910BD2DE9F0412DED028B04000D006B
:102C1000002C01D0002D00D1D0E041F20C0026584C
:102C200041F210002758D4F88C03B8420BD1D4F8E5
:102C30009003B04207D1D4F8EC05B84203D1D4F8E0
:102C4000F005B84200D0B9E05FF000080BE005EBFA
:102C5000880090ED000A0022414604F2F45000F092
:102C600031F918F10108B845F1DB14F53F7114F59D
:102C7000657000F0E5F914F5657204F22C4104F674
:102C8000EC0000F095F904F6EC0214F53F7104F63F
:102C9000841000F08DF904F25C5204F6841104F6FD
:102CA000841000F042F904F6841104F61C2000F0B0
:102CB000EBF9002800F0828004F61C2204F6EC01F7
:102CC00004F28C6000F074F9221D14F53F7104F6D3
:102CD000B42000F06DF9002516E00022290004F26E
:102CE000F45000F0EDFAB0EE408A0022290004F61C
:102CF000B42000F0E5FA38EE400A0022290004F67C
:102D0000B42000F0DFF86D1CBD42E6DB04F6B4220F
:102D100004F28C6104F64C3000F04AF904F64C32AF
:102D2000211D201D00F001F914F53F7204F28C61A1
:102D300004F6E43000F03CF904F67C4000F0D6F8EC
:102D4000002519E03A00290004F67C4000F0B8FAAA
:102D5000B0EE408A3A00290004F6E43000F0B0FA00
:102D600038EE400A3A00290004F67C4000F0AAF848
:102D70007F1CB742E6DB6D1CB54201DA0027F8E79D
:102D800004F22C4204F67C4104F6540000F010F9E1
:102D900000250FE03A00290004F6540000F090FAF4
:102DA0003A00290004F22C4000F08CF87F1CB74256
:102DB000F0DB6D1CB54201DA0027F8E7BDEC028BB1
:102DC000BDE8F08100280BD0B5EE400AF1EE10FA14
:102DD00006D9F7EE000AB4EE600AF1EE10FA01DB54
:102DE000002006E080ED000A00214160012101720F
:102DF00001207047002802D0017A002900D111E09B
:102E0000D0ED000A20EE800AF7EE000A90ED001ADD
:102E100070EEC10A90ED011A00EE810A80ED010A00
:102E200090ED010A7047000052EC101AB0EEC00A93
:102E3000C80F49005200F0EEE00A28BF0C3011F133
:102E4000807F38BF12F1807F0CD28A4238BF80F079
:102E50000400124214D034BF80EE800A80EE200AB3
:102E600000F096BC11F1807F08BF80F0040098BF8D
:102E700012F1807F08D88A4214BF00224FF07E52A0
:102E800000EE102A00F084BC6FF0004100EE101A32
:102E90007047000070B4C0F89010C0F89420002370
:102EA0000AE0182505FB03F50544002645F82460D3
:102EB000641C9442F5DB5B1C8B4201DA0024F8E7CA
:102EC00070BC7047002910D4D0F8903099420CDAC9
:102ED000002A0AD4D0F894309A4206DA18235943CB
:102EE000084400EB820080ED000A7047002100E0FA
:102EF000491CD0F89020914216DA002202E09FEDA2
:102F00004F0A07E0D0F894309A42F1DA9142F6D1B4
:102F1000B7EE000A182303FB01F3034403EB82031B
:102F200083ED000A521CEDE77047F0B4D1F8903001
:102F3000D2F89040A34211D1D1F89430D2F8944005
:102F4000A3420BD1D0F89030D1F89040A34205D1E4
:102F5000D0F89430D1F89440A34200D025E000236B
:102F60001DE0182505FB03F6064406EB840605FB69
:102F700003F70F4407EB840797ED000A05FB03F501
:102F8000154405EB8405D5ED000A30EE200A86EDE8
:102F9000000A641CD1F89450AC42E2DB5B1CD1F80F
:102FA0009040A34201DA0024F4E7F0BC704700002F
:102FB000F0B4D1F89430D2F89040A3420BD1D0F8BD
:102FC0009030D1F89040A34205D1D0F89430D2F897
:102FD0009440A34200D02FE0002300E05B1CD1F816
:102FE0009040A34228DA00241EE0182606FB03F7CF
:102FF0000F4407EB8507D7ED000A06FB05F61644DC
:1030000006EB840696ED001A00EE810A6D1CD1F8DD
:103010009460B542E9DB182505FB03F5054405EB93
:10302000840585ED000A641CD2F89450AC42D5DAD0
:103030009FED020A0025EAE7F0BC7047000000009F
:1030400030B4D1F89420C0F89020D1F89020C0F886
:103050009420002210E0182404FB03F5054404FB2F
:1030600002F40C4454F8234045F822405B1CD1F88C
:103070009440A342EFDB521CD1F890309A4201DA1F
:103080000023F4E730BC70472DE9F843C8B00D00C9
:10309000002D08D00400002C05D0D5F89000D5F8FC
:1030A0009410884201D0002006E1D5F8906068466F
:1030B0004FF4907100F0BEFB00271CE06846302101
:1030C00001FB07F1084400EB88094246390028005B
:1030D00000F0F6F889ED000A18F10108B045EDDBC3
:1030E0006846302101FB07F10844F1195FF07E5278
:1030F00040F821207F1CB74202DA5FF00008EDE7BC
:10310000002000E0401CB04280F2B78030216A46C7
:1031100001FB00F31A4402EB800292ED000A020068
:1031200003001AE0F0EEC00A6D4601FB03F73D44D0
:1031300005EB800595ED001AB0EEC11AF4EE410AD8
:10314000F1EE10FA08D56A4601FB03F52A4402EBBA
:10315000800292ED000A1A005B1CB342E2DBDFED55
:10316000640AB0EEC00AB4EE600AF1EE10FA03D4BD
:10317000824223D000231EE000209DE06D4601FB2B
:1031800000F73D4405EB830595ED000A6D4601FB14
:1031900000F73D446F4601FB02FC674457F823707B
:1031A00045F823706D4601FB02F73D4405EB8305AE
:1031B00085ED000A5B1CB3EB460FDFDB6A4601FBC3
:1031C00000F31A4402EB800292ED000A002212E0A2
:1031D0006B4601FB00F52B4403EB82036D4601FBBC
:1031E00000F73D4405EB820595ED001A81EE001ACB
:1031F00083ED001A521CB2EB460FE9DB00221EE001
:103200006D4601FB02F73D4405EB83056F4601FB6C
:1032100000FC674407EB830797ED001A6F4601FB3C
:1032200002FC674407EB8307D7ED001A40EE411A12
:10323000C5ED001A5B1CB3EB460FE1DB521CB2423A
:10324000BFF660AF8242F9D06B4601FB02F52B441A
:1032500003EB800393ED000AB0EEC00AB4EE600AFF
:10326000F1EE10FAEADB6B4601FB02F52B4403EBAF
:10327000800393ED000A0023DDE7320031002000D7
:10328000FFF708FE002512E06846302101FB05F13A
:103290000844F11900EB810090ED000A3A00290082
:1032A0002000FFF70FFE7F1CB742EDDB6D1CB5421F
:1032B00001DA0027F8E7012049B0BDE8F0830000FB
:1032C000002911D4D0F8903099420DDA002A0BD49D
:1032D000D0F894309A4207DA18235943084400EB97
:1032E000820090ED000A01E09FED020A70470000A5
:1032F00078CC2B320000000030B4002801D0002927
:1033000000D13BE0D0F89020D1F890309A4215D10E
:10331000D0F89420D1F894309A420FD1D1F890206F
:10332000072A0BDAD1F89420072A07DAD0F8902080
:10333000072A03DAD0F89420072A00DB1EE00022D7
:1033400016E0182404FB02F5054405EB830504FB95
:1033500002F40C4404EB8304D4ED000A60EE800A0E
:10336000C5ED000A5B1CD1F89440A342E9DB521C76
:10337000D1F890309A4201DA0023F4E730BC70476C
:1033800010B4002814D000210CE0182303FB01F333
:103390000344002443F82240521CD0F894309A424F
:1033A000F3DB491CD0F89020914201DA0022F4E7C7
:1033B00010BC704700B551EC100A00F003F800EEA5
:1033C000100A00BD10B54FF0004C00F0004349005A
:1033D000C0F3C7540A0E1ABFFF2CFF2A2DE0B1EB31
:1033E000400F21D24CEAC1114CEA0020090AA41A6C
:1033F000083C07D9B0FBF1FE01FB1E0000021AD009
:10340000083CF7D86442E040B0FBF1FE01FB1E002F
:1034100088B1B0FA80F18840D21D521A06DB43EA27
:10342000102000EBC25010BD05D010BDD2F1080233
:10343000D040184310BD184610BD09421ABFFF2CDA
:10344000FF2A0FE0B1EB400FEED20902B1FA81F290
:10345000914052422442C7D14002B0FA80F4A040C9
:103460006442C3E76346DA0912EB400F2CBFD8432E
:10347000D14218BFD843BDE81040AFF30080704779
:1034800008B584B00023039300290EBF0193019077
:10349000491E0291009301A904AB074878441830F3
:1034A00000F0CFF9019909B100220A70002858BF35
:1034B000039805B000BD00BF83F1FFFF3F21084026
:1034C00070470100C9B20A2901DB002000E0C0B248
:1034D00070472DE9F8435D4CA579E679277A94F891
:1034E00009804FF480710A00DFF864914B46012A8D
:1034F0000EDB13F01F008218BFF34F8F5548036097
:103500002033203A012AF9DABFF34F8FBFF36F8FD0
:1035100099F8F30000281AD11F20C9F8F8000020FC
:1035200089F8F200012089F8F3004A4601290EDBF0
:1035300012F01F004118BFF34F8F4648026020323F
:1035400020390129F9DABFF34F8FBFF36F8FD9F814
:10355000F800FFF7B3FF206099F8F100207199F8A7
:10356000F2006071A571E671277284F80980BDE8E8
:10357000F18310B504002000C0B2062801DB002052
:1035800007E0FFF7A6FF31480068E04010F00100B7
:10359000C0B210BD38B504000D002000C0B206282E
:1035A00031DAFFF796FFEDB2002D07D0274801680A
:1035B000012212FA04F40C43046007E02348016876
:1035C000012212FA04F431EA04040460204C1F487A
:1035D0000068FFF773FFC4F8F800012084F8F300D7
:1035E0004FF4807101290EDB14F01F004118BFF366
:1035F0004F8F18480460203420390129F9DABFF3CD
:103600004F8FBFF36F8F31BD80B5FFF762FF0F485B
:10361000007902BD80B5C0B2FFF753FF0B49887136
:1036200001BD80B5C0B2FFF74CFF0849C87101BDAC
:1036300080B5C0B2FFF745FF0449087201BD80B5EF
:10364000C0B2FFF73EFF0149487201BDB007022832
:103650000016002870EF00E0D2B2203A22BF21FA13
:1036600002F0002170472032D141D04048409140C3
:10367000D14048407047000021A1B1EC061BB4EED8
:10368000410BF1EE10FA09DBB1EE424B33EE001BB9
:1036900000EE034B84EE010B40F0020030EE10CB45
:1036A000B1EC063B2CF0004CBCF1795F15D320EE59
:1036B000001B03EE014B20EE013B04EE015B05EE27
:1036C000030BB1EC083B03EE014B04EE015B05EE8E
:1036D000016B06EE012B80EE020B38BF2031400853
:1036E00010F0020F18BFB1EE400B01EBC00191EDDD
:1036F000001B30EE010B28BFB1EE400B70470000FD
:1037000057CD9E5E1426D13F000000000000F03F20
:10371000AA4C58E87AB6FB3F845D57134B57B03F2D
:10372000B2934C19ED5EE43FBEDE02B90240F83FB1
:10373000DE39028FC7C0743F8AAB1283000CC83FCA
:1037400024D7E508B6D8F03F0F34580E5895FD3F02
:10375000000000000000000066732D3852C1E03FF9
:10376000182D4454FB21F93F66732D3852C1F03FA8
:10377000182D4454FB21F93F66732D3852C1004087
:10378000182D4454FB2109403FD038C6A6F104400F
:103790001AA210EE101A43F2A40CC3F6896CF2ECD4
:1037A000060A614509DB00EE803A70EE800A83EE7E
:1037B000200A40F0020010EE101A4900D1F1E64153
:1037C0000BD860EE000A20EE203A03EE010A01EE6B
:1037D000A02A42EE202A80EE220A400810F0020FB2
:1037E00018BFB1EE400A02EB8002D2ED000A30EEC3
:1037F000200A28BFB1EE400A70470000D7B3DD3F72
:103800006AD5033F2B94A93DB82A593F0000803F59
:10381000000080BF00000000920A063FDB0FC93F96
:10382000920A863FDB0FC93F920A0640DB0F4940F0
:10383000368D2740002200F059BF000040F02000E4
:1038400070472DE9F14FB0B0924604910DF142015D
:103850003A9A2B9199464A7000200AE01AF8011B07
:103860000498309A90470028049000F034860D9810
:10387000401C0D909AF8000050B12528EED100218F
:1038800000220791089209910A920B910C9204E090
:103890000D9800F022BE41F001011AF8010F202816
:1038A000F9D023280CD02B2804D02D2805D030287F
:1038B00009D00BE041F00201EFE741F00401ECE731
:1038C00041F00801E9E741F01001E6E72A280FD1AD
:1038D000D9F8002052F8040BC9F8002000280F90F6
:1038E00003D540420F9041F004010AF1010A14E0AF
:1038F0000F92DFF8EC3B0AE00F98984205DA00EBF4
:10390000800402EB4402303A0F920AF1010A9AF85D
:103910000020A2F130000A28EED39AF800002E28E9
:1039200003D04FF0FF320E9229E01AF8010F2A2837
:1039300009D1D9F8000050F8042BC9F800000E9204
:103940000AF1010A1BE02D280CBF0AF1010A002030
:1039500000220E92DFF8884B0BE040B90E9AA2428B
:1039600005DA02EB820503EB4503303B0E930AF1C7
:10397000010A9AF80030A3F130020A2AEDD3ADF81B
:1039800040100FF660309AF8001000F0C9FE08B140
:103990001AF8010B8DF842009DF84200682805D105
:1039A0009AF8000068280CD1622106E06C2804BF58
:1039B0009AF800006C2804D171218DF842100AF1A8
:1039C000010A12A806901AF801BBBBF125012CD000
:1039D0001C3900F09481091F022940F290811339AB
:1039E00000F0AB84093900F08A81891E00F040851F
:1039F000491E00F0ED84491E022940F28081091F12
:103A000000F0E684491F00F0EF80491E00F0958425
:103A1000491E00F0D780C91E0CD0891E00F08D848D
:103A2000C91E00F08A8400F02EBD012307932521D2
:103A300000F026BDD9F8000050F8044BC9F800008A
:103A4000002C059440F0AB802B994878002800F0BA
:103A5000A1804FF0FF340FF6942000F06DFE241A81
:103A600040F0398500F01BBD01236A4602A93046AB
:103A700000F000FE002840F02E85641EF4D1309640
:103A8000079C12AF74B1309E17F8011B0498B04721
:103A90000028049000F01F850D98401C641E0D90B6
:103AA000F2D130960A9C3021002C8DF800100CDDEC
:103AB000309E01236A4602A9304600F0DBFD002853
:103AC00040F00985641EF4D13096059F089C74B1BE
:103AD000309E17F8011B0498B0470028049000F0AE
:103AE000FA840D98401C641E0D90F2D130960B9C08
:103AF0003021002C8DF800100CDD309E01236A4629
:103B000002A9304600F0B6FD002840F0E484641EAF
:103B1000F4D1309605980899099C471874B1309EE5
:103B200017F8011B0498B0470028049000F0D384D4
:103B30000D98401C641E0D90F2D130960C9C3021E3
:103B4000002C8DF800100CDD309E01236A4602A97E
:103B5000304600F08FFD002840F0BD84641EF4D193
:103B600030969DF8400041077FF584AE2020002D5F
:103B70008DF800007FF77EAE309C01236A4602A9D3
:103B8000204600F077FD002840F0A5846D1EF4D19A
:103B900030946FE60FF63C30059000F080BC0E9D2F
:103BA000002D04D5204600F0E7FD044607E02A4634
:103BB000204600F0FDFD002814BF041B2C4608948D
:103BC00000F06DBCD9F8001051F8040BC9F80010D2
:103BD00020F00004002121F0FF35CDE9024512ABB1
:103BE0000593782100F040BC2B99487820B14FF024
:103BF000FF340FF6B02030E79DF84200622860D015
:103C0000682817D06A283FD06C2806D0712847D082
:103C100074282CD07A281DD062E0D9F8001051F811
:103C2000040BC9F80010002866D14FF0FF340FF6DE
:103C30008C2012E7D9F8001051F8040BC9F80010D5
:103C400020B94FF0FF340FF6742006E70D9901807C
:103C500000F025BCD9F8001051F8040BC9F8001089
:103C6000002849D14FF0FF340FF65020F5E6D9F87F
:103C7000001051F8040BC9F8001000283CD14FF097
:103C8000FF340FF63820E8E6D9F8001051F8040B9D
:103C9000C9F8001080B94FF0FF340FF62020DCE6A1
:103CA000D9F8001051F8040BC9F8001020B94FF0F2
:103CB000FF340FF60820D0E60D9AD317C0E9002391
:103CC000EDE3D9F8001051F8040BC9F8001020B941
:103CD0004FF0FF340FF6E410BFE60D990170DEE3FC
:103CE000D9F8001051F8040BC9F8001020B94FF0B2
:103CF000FF340FF6C810B0E60D990160CFE39DF8D0
:103D000042004C2807BFD9F80010CA1DD9F800009E
:103D1000C21D22F00702C9F80020D2E900010832D2
:103D2000C9F80020CDE90201C80F02D007982D2163
:103D30000AE0BDF84000810702D507982B2103E077
:103D4000C00705D50798202112AA1154401C0790DE
:103D500012A807994BF0200300EB010CDDE90201EA
:103D6000CDE92C01612BCDF814C021AC0BD00E98FD
:103D7000002848BF062105D404BF4BF02000672867
:103D800001D101210E91DDE902014F0047EAD07710
:103D90007E15FF174FF0FF32974208BF964210D1B1
:103DA000090341EA10510003002908BF002808D088
:103DB000ABF1610503211A2D089118D30FF61C11E0
:103DC00010E0DDE902014A00521512F1010F11D194
:103DD00008030FD1ABF1610503211A2D08911FD300
:103DE0000FF6001103226046FEF762FB57E30FF661
:103DF000E801F7E7DDE902016A4600F005FDCDE9DB
:103E000002014BF02000612811D10598302101708A
:103E1000821C0592BBF1610F0CBF7821582102E092
:103E20000FF6BC01DEE741700798801C0790DDE9C2
:103E3000020120F0000231F0004308BF002A02D145
:103E40000026002542E14BF02008B8F1610F40F058
:103E500092800E98002847BF21210191401C0190BB
:103E6000019FDDE92C017F1C00220023DDE90245D2
:103E700000F002FD38BF85F0004500998DF88420E0
:103E8000091F002F00910DF1850632DD20462946DD
:103E90000022002300F00AFD2BD21C2200F020FD9E
:103EA00004460D4600F09EFDFF1F002F804609DDF1
:103EB00000F09FFD02460B462046294600F0A0FD7B
:103EC00004460D46F01D0721B8F1000F0CDD491E18
:103ED0005EBF08F00F0200F8012D4FEA2818F3D555
:103EE00002E0002200F8012D491EFAD5C61D002F60
:103EF000CCDC0DF18500361A01980DF1850486425F
:103F0000D8BF304600282FD4B04206DA0DF1850123
:103F10000A5C082AA8BF0F2100DA0021024621AB63
:103F2000134400E0401E13F80159521E8D42F9D08F
:103F30000F2904D10DF185018B5C5B1C8B54002A89
:103F400004D50099091D21AC401C0091411E0BD4E1
:103F5000621813783033DDB23A2DA4BF5B443A3B8C
:103F6000491E02F80139F4D50E99002940F1AC80C0
:103F7000421E0E92A8E00099DFF8E82647F297501B
:103F8000414391FBF2F20092DDE92C45C2F10702B8
:103F9000002A25F0004504DD2046294600F03EFBBE
:103FA0000BE052420020DFF8C01600F037FB02465B
:103FB0000B462046294600F02CFD04460D46B8F17C
:103FC000660F06BF009F0A3706270E983F18142F6A
:103FD000C8BF142730208DF884000DF18506002F0E
:103FE00034DD2046294600F01DFD01460A4606F153
:103FF000080304200A26B2FBF6F606EB860EA2EBB7
:104000004E02303203F8012C0A22B6FBF2F202EB28
:10401000820EA6EB4E063036401E03F8026DE9D143
:10402000083F002F03F10806D9DD084600F001FD26
:1040300002460B462046294600F0E2FC0022DFF84B
:104040002C3600F0FDFC04460D46CAE70DF1850054
:10405000361A0DF1850404E00098401E761E00908B
:10406000641C20783028F7D0B8F1660F02D1009890
:10407000401C04E0B8F1650F0CBF012000200E9930
:1040800040188642B8BF701E00281DD4B04204DA22
:10409000215C3429C8BF392100DC30210246631E6F
:1040A0009D1800E0401E15F80169521E8E42F9D09D
:1040B000392902D1A15C491CA154002A04D50099D8
:1040C000491C1C46401C00910646009D0E9F30B2C4
:1040D000002802DC01260FF210644BF02000662855
:1040E00008BF6D1C15D067280FFA85F841D118F16B
:1040F000040F44DBB84542DA9DF840006D1C01070F
:1041000003D430B2B842D8BF074628B23F1A48BFDE
:1041100000270FFA85F8B8F1000F00F3AF80089878
:10412000411C0891302205990A54002F03DC9DF8A8
:104130004000010705D50898411C08912E220599D9
:104140000A5417EB080FB8BF7D422DB26842ED1933
:1041500032B20B909542B8BF2E46059B089836B2F6
:104160000996324621461844FEF7A2F9AD1B0C957C
:10417000CCE0BBF1610F15D14FF0700B17E030B2FE
:10418000B84204DA9DF840100A0758BF07467F1E60
:1041900048BF0027BBF1670F14BF4FF0450B4FF02E
:1041A000650B04E0BBF1410F08BF4FF0500B0898BE
:1041B000411C0891002F059914F8012B0A5403DCC7
:1041C0009DF84000010719D50898411C08912E223E
:1041D00005990A54002F11DD761E30B28742B8BF10
:1041E0003E460598089B32B221461844FEF760F916
:1041F000089836B23018BF1B08900B97059808999D
:104200000844B8F1000F80F800B003D42B224270AC
:10421000821C04E02D2145464170821C6D42002124
:104220002CAB28460AE004460A2094FBF0F000EB91
:104230008005A4EB450403F8014B491C00B200289B
:10424000F1DC012906DC4BF02000652804BF30209A
:1042500002F8010B00292CAB08D1302002F8010B29
:1042600006E0491E585C303002F8010B0029F8DCEA
:10427000059908980844121A099247E030B229B209
:1042800088421BDA0598089B32B221461844FEF793
:104290000FF9089936B271180891A8EB0600002FA3
:1042A0000B9003DC9DF84000020705D5059A2E20EF
:1042B00050540999491C09910C9727E00598089BCF
:1042C0002AB221461844FEF7F3F80898761B4044BA
:1042D000002F089003DC9DF840100A0704D5411C0C
:1042E00008912E2205990A5430B28742B8BF3E4643
:1042F0000598089B32B204EB08011844FEF7D8F881
:10430000089836B23018BE1B08900B969DF84000F6
:1043100000F01400102840F0C280079A08980B990A
:10432000821809988A1882180C980F998018884268
:1043300080F2B580081A0A90B1E09DF84200622828
:1043400008D068280ED06A2814D06C281FD0712895
:1043500010D01CE0D9F8001051F8040BC9F8001077
:10436000C0B21AE0D9F8001051F8040BC9F80010D7
:1043700080B212E0D9F80000C21D22F00702C9F88D
:104380000020D2E900010832C9F8002006E0D9F87F
:10439000001051F8040BC9F800100021CDE902010A
:1043A0009DF8400001075AD5DDE90223002B08BF24
:1043B000002A54D04BF02000782850D1079812A939
:1043C00030220A54401C431C079301F800B046E019
:1043D0009DF84200622808D068280ED06A2814D0C0
:1043E0006C281FD0712810D01CE0D9F8001051F8AB
:1043F000040BC9F8001040B21AE0D9F8001051F8C7
:10440000040BC9F8001000B212E0D9F80000C21D78
:1044100022F00702C9F80020D2E900010832C9F8E9
:10442000002006E0D9F8001051F8040BC9F800107C
:10443000C117CDE90201002902D507982D210AE014
:10444000BDF84000810702D507982B2103E0C00783
:1044500005D50798202112AA1154401C079012A8D4
:10446000079901440591594602A800F04DF816E05D
:1044700001200790D9F8000050F8041BC9F800008B
:104480008DF848100BE001212522BBF1000F0791A8
:104490008DF8482003D0022207928DF849B00F9D75
:1044A00007990A986D1A08992D1A0B986D1A09998F
:1044B0002D1A0C986D1A9DF840102D1A48073FF5DB
:1044C000DFAA2021002D8DF800107FF7D9AA309E99
:1044D0002C46FFF7C9BA4FF0FF3031B0BDE8F08F7E
:1044E000CBCCCC0C686A6C747A4C00007072696E2C
:1044F00074665F733A20626164202573206172677D
:10450000756D656E740000002DE9FC4707468A460C
:104510003C6950466F2808BF082505D0FFF78EF983
:10452000782814BF0A251025D7E900013C268046CB
:104530008946BAF1640F18BFBAF1690F05D1002995
:1045400003D5D8F1000869EB4909B9F1000F08BF9C
:10455000B8F1000F0CD1386B50B9082D3AD197F84B
:104560003800010736D530223B2684F83B2031E065
:104570008DF800A0404649462A46EB1700F06AFA3B
:104580003032D0B2761E3A2801960EDAA255404655
:1045900049462A46EB1700F05DFA80465FEA0109BA
:1045A00008BFB8F1000F05D108E09DF8000012180F
:1045B000513AEBE7F868A1198842DBD3082D09D1FD
:1045C00097F83800010705D5A05D302802D0761E87
:1045D0003020A055C6F13C03BB61A119F960386BCE
:1045E000834208DAC31A3B624FF6EF70398F0140FD
:1045F0003987BDE8F38700280ED597F8380000F01A
:104600001400102808D17A6B7969386A521A121A84
:10461000D21A002AC8BF3A62BDE8F3872DE9D04319
:1046200006460F4614464FF00008DFF8449012E0AB
:10463000E00707D542464B463046394600F000FABF
:1046400006460F464046494642464B4600F0F8F9BA
:10465000641080468946002CEAD130463946BDE8D0
:10466000D0830000A08601000000F03F84D797416E
:1046700000002440F8B505460E4617461C460020AB
:104680005CB117F8011BB068A847B06030B1F06AA0
:10469000401CF0620020641EF3D1F2BD4FF0FF30E9
:1046A000F2BD00007072696E74665F733A20256E09
:1046B00020646973616C6C6F776564007072696EF9
:1046C00074663A2062616420256E20617267756DA0
:1046D000656E7400000000006E616E004E414E0079
:1046E000696E6600494E46003000000000B500BF0C
:1046F000130096469446103928BFA0E80C50FAD80B
:104700005FEA417C28BF0CC048BF40F8042BC907B2
:1047100028BF20F8022B48BF00F8012B00BD000085
:10472000C9B202788A421AB11CBF10F8012FF9E70A
:1047300018BF00207047000080B500B906A00549E9
:104740000B681BB122220021984701E000F09AFA81
:10475000222002BD90520228636F6E7374726169E9
:104760006E742068616E646C65723A2062616420C8
:104770006D6573736167650000F10103810704D003
:1047800010F8011B820781B1FAD10268A2F1013150
:10479000914311F0803104BF50F8042FF6E709BAB5
:1047A000B1FA81F100EBD100401CC01A7047000043
:1047B000C9B2830706D0521E22D310F8013B99429A
:1047C000F7D11FE0083A13D302F1040241EA0121B4
:1047D00041EA014150F8043B121F21BF4B40A3F1B5
:1047E000013C2CEA030C1CF0803FF3D0C9B2001F3F
:1047F000083210F8013B521E28BF91EA030FF8D887
:1048000018BF0120401E704710B5144600F002F892
:10481000226010BDC1F30A5343B14A0012F5001FD4
:1048200028D2A3F2FE32A1EB0251704750EA410CAC
:1048300020D001F0004C31EA0C01B1FA81F204BF42
:10484000B0FA80F3D2180B3AB2F120032CBF00FA71
:1048500003F1914041EA0C013EBFC2F1200C20FA65
:104860000CF319439040524240F2FD33D21A01EB4F
:10487000035170470022704741EA030C50EA4C0C88
:1048800052EA0C0C4FF4001C09D307D01CEB410F6B
:104890009CBF1CEB430F8B4208BF824270471CEB4E
:1048A000430FFBD8994208BF9042704741EA030C7E
:1048B00050EA4C0C52EA0C0C4FF4001C09D307D000
:1048C0001CEB410F9CBF1CEB430F994208BF904269
:1048D00070471CEB410FFBD88B4208BF82427047E8
:1048E00000B541EC100B104600F004F851EC100B31
:1048F00000BD00BF020030EE101B40F2FF7C37D439
:104900001CEA115313D063456BD09B18634504D246
:1049100001EB025120EE101B704701F0004141EA0B
:104920000C51002041EC100BAFF30080704710EEEB
:10493000100B50EA410054D0B2F57F7F08D202EB51
:104940005C010905002041EC110B20EE010B7047C2
:104950004FF0FE41002341EC113B20EE010BB2F57C
:104960007E7230EE101B4FEA410342EB5353CDE70A
:1049700052421CEA115316D0634532D09A4204D2F7
:10498000A1EB025120EE101B70475B1ED21AA1EB67
:10499000035120EE101B372A0CD3002001F00041F8
:1049A00041EC100BC0E710EE100B50EA410018D09C
:1049B000372AF2D2C2EB5C021105002041EC110B48
:1049C000F1EE100A20F01F0121F4F851E1EE101A67
:1049D00020EE010BF1EE101AE1EE100A11F0080FB3
:1049E000A2D1704741EC100BBDEEC00B10EE100AC7
:1049F000704700EE100AB8EEC00B51EC100B704778
:104A000041EC100B43EC112B30EE410B51EC100B31
:104A1000704741EC100B43EC112B80EE010B51EC75
:104A2000100B704741EC100BBCEEC00B10EE100ADF
:104A3000704700EE100AB8EE400B51EC100B7047B7
:104A400041EC100B43EC112B20EE010B51EC100B41
:104A500070470000BBBBE1B1B2F5803F80F07E80C3
:104A6000022A1ED98C46B1FBF2F102FB11C31B04D2
:104A700043EA1043B3FBF2FC02FB1C3380B240EA72
:104A80000343B3FBF2F002FB103240EA0C40002378
:104A90007047022A05D98446B0FBF2F002FB10C22F
:104AA00070474AB105D100F0010249085FEA3000C1
:104AB000704700220023704700F0E8B80B000200A6
:104AC000002100207047904271EB030CF6D3B3F540
:104AD000803F2FD2F0B5B3FA83F7B1FA81F4A7F192
:104AE0000F0E3D1B5340CEF1200602FA0EF2F341A9
:104AF0005340B5F10F0746D80F3C2C444140C4F158
:104B00002006A040F1414140B1FBF3F603FB161132
:104B1000A2FB0645001BA94102D2761E801859410E
:104B200080EA010221FA0EF362FA0EF200215A40E5
:104B30003046F0BD30B4B1FBF3FC03FB1C11A2FB0B
:104B40000C45001BA94103D2ACF1010C801859415E
:104B500030BC02460B46604600217047B2F1807FB0
:104B600065D3F0B5B2FA82F7B1FA81F4C7F10F0656
:104B70003D1B22FA06F307F1110EF24120355A408F
:104B8000B5F10F07B8D94140C4F12006A040F1416A
:104B90004140B1FBF3FC03FB1C11A2FB0C45001BC5
:104BA000A94103D2BCF1010C801859410F2F12D337
:104BB0000F3FC90341EA5041B1FBF3F603FB161165
:104BC000A2FB0645D4EBC030A94102D2761E801864
:104BD000594146EACC3C07B34140C7F12006B840F2
:104BE000F1414140B1FBF3F603FB1611A2FB064570
:104BF000001BA94102D2761E8018594180EA0102A9
:104C000021FA0EF3C7F1200462FA0EF20CFA07F053
:104C10005A402CFA04F13043F0BD80EA010221FA37
:104C20000EF3002162FA0EF260465A40F0BD8C4647
:104C3000B1FBF2F102FB11C31B0243EA1063B3FBA9
:104C4000F2FC02FB1C331B024CEA002043EA106317
:104C5000B3FBF2FC02FB1C331B024CEA002043EACC
:104C60001063B3FBF2FC02FB1C331B024CEA002076
:104C700043EA1063B3FBF2FC02FB1C324CEA002057
:104C800000237047012000F003B8000070470000C7
:104C900080B5AFF30080024A11001820ABBEFBE7DD
:104CA0002600020080B52DED068BF0EE609A9FED98
:104CB00047AADFF84C05D0ED000AF5EE400AF1EE08
:104CC00010FA02DDD0ED00AA03E0DFF83805D0EDE0
:104CD00000AADFF83405D0ED000AF5EE400AF1EE47
:104CE00010FA02DD90ED008A03E0DFF8200590ED78
:104CF000008ADFF81C05D0ED000AF5EE400AF1EE5F
:104D000010FA02DDD0ED008A03E0DFF80805D0EDEF
:104D1000008ADFF80405C0ED00AADFF8000580ED89
:104D2000008AB2EE041AFAEE040A00F0FBFEB0EEBE
:104D3000409A9FED271ADFED5A0AB0EE690A00F09B
:104D4000F1FEF0EE400A29EE0A0A6AEEA09A00F09F
:104D50001BFF69EE809AB0EEC90ADFED520AB4EE8D
:104D6000600AF1EE10FA10DBB0EEE90AB4EE680A60
:104D7000F1EE10FA09D5B5EE409AF1EE10FA02DD27
:104D8000F0EE689A01E0F1EE689AB0EE481AF1EEA2
:104D9000480AB0EE690A00F0C5FE70EE690AF0EE4E
:104DA000E00A9FED411AF4EE410AF1EE10FA05DB3C
:104DB000DFF8D0075FF07E51016003E0DFF8C40741
:104DC00000210160BDEC068B01BD000035FA8E3C70
:104DD000295C0F3E10B5DFF84844200000F0B3FE18
:104DE000DFF8400490ED001ADFF83C04D0ED000A33
:104DF000DFF8380490ED000A200000F0BDFEDFF877
:104E00003044200000F09FFEDFF8280490ED001AE7
:104E1000DFF82404D0ED000ADFF8200490ED000A4A
:104E2000200000F0A9FEDFF81844200000F08BFEFF
:104E3000DFF8100490ED001ADFF80C04D0ED000A42
:104E4000DFF8080490ED000A200000F095FEDFF87E
:104E50000044200000F077FEDFF8F80390ED001A20
:104E6000DFF8F403D0ED000ADFF8F00390ED000A5C
:104E7000200000F081FEDFF8E843200000F063FE30
:104E8000DFF8E00390ED001ADFF8DC03D0ED000A54
:104E9000DFF8F40690ED000A200000F06DFE10BD72
:104EA000CDCCCC3C9B99993EADC52737E0B5FFF7FB
:104EB00091FF6A4601A9DFF8DC06D0ED000ADFF8B1
:104EC000440B90ED000A002001F044F9009901988C
:104ED00001F0DFF907BD000030EEC00A80ED010AE5
:104EE00090ED020AD0ED010A30EE200A80ED020AB0
:104EF00090ED020ADFED930AB4EE600AF1EE10FACB
:104F000002DBDFF8941681609FED8F0AD0ED020A74
:104F1000F4EE400AF1EE10FA01D580ED020ADFF856
:104F2000001391ED000AD0ED010A20EE200AD1ED28
:104F3000010A90ED021A00EE810A80ED000A90ED60
:104F4000000ADFED820AB4EE600AF1EE10FA02DB2D
:104F5000DFF8C81A0160B9EE080AD0ED000AF4EED5
:104F6000400AF1EE10FA01D580ED000A90ED000A3A
:104F70007047000010B52DED028BDFF81406D0ED60
:104F8000001A31EE811A31EE408AF1EE608ADFF8C4
:104F9000784A94ED000A30EE080A84ED000A9FED8D
:104FA0006C1ADFED6C0A94ED000A00F0BBFD84ED95
:104FB000000A9F4890ED000A20EE480AD0ED010A51
:104FC00094ED001A00EEC10AD0ED020A08EEA00A24
:104FD000DFF8380A80ED008ADFED5F0AB4EE600A80
:104FE000F1EE10FA01DB9FED5D0ADFED7B0AB4EE16
:104FF000600AF1EE10FA01D5B0EE600ABDEC028B4A
:1050000010BD000070EE600ADFF8040A90ED000A9F
:1050100030EE200A80ED000A90ED000A9FED6F1A35
:10502000B4EE410AF1EE10FA02DBDFF8E819016094
:105030009FED6B0A90ED001AB4EE401AF1EE10FAF3
:1050400001D580ED000ADFF8D01991ED000A30EEAD
:10505000C01ADFF8CC2992ED000A20EE200AD2ED2A
:10506000011A90ED002A01EE820AD2ED021A01EE39
:10507000810AC1ED000A7047010040F2D1708142FF
:1050800002DB4FF4FA6004E0DFF89809814200DBAC
:1050900008007047DFF8900900210160DFF88C09F3
:1050A00000210160DFF8880900210160DFF8840930
:1050B00000210160DFF8800900210160DFF87C0930
:1050C00000210160704780B50020DFF87419088066
:1050D0000020DFF870190880FFF7DCFF00210020B6
:1050E00001F056FB01BD10B52DED028BC0B20028BA
:1050F00008D030EE201ABDEEC11A30EE600ABDEEC7
:10510000C08A03E0BDEEC01ABDEEC08A11EE100ADF
:10511000FFF7B2FF0400644218EE100AFFF7ACFF7D
:10512000DFF81C190C80DFF81C190880644240422B
:10513000010009B2200000B201F02AFBBDEC028B95
:1051400010BD00000100FA440000FAC40100C04094
:1051500000007A4400007AC401409C4500409C4510
:1051600080B530EEC00ADFF82404D0ED020A03E077
:105170009FED1C1A30EE010A9FED1B1AB4EE410A96
:10518000F1EE10FAF4DA9FED191AB4EE410AF1EEDD
:1051900010FA04D59FED161A30EE010AF3E7B0EECF
:1051A000C01AF7EE081AB4EE611AF1EE10FA01D542
:1051B0009FED100A254890ED001A21EE000A2148C3
:1051C00090ED001A01EE600A9FED0B1ADFED0B0A5D
:1051D00000F0A8FC01BD000000409CC50180BB445C
:1051E0000080BBC40000B4C301003443000034C3DA
:1051F0000000B4430000000000009644000096C484
:105200004807022858E408104C0702285CE40810FC
:105210005007022860E40810505102285451022817
:105220004C4E0228F4510228F0510228EC51022879
:105230007C4E022800520228FC510228F851022814
:10524000AC4E022824520228205202281C52022866
:10525000DC4E02280C52022808520228045202286E
:105260000C4F0228185202281452022870B52DED56
:10527000028BDFF8D407B0F9000000EE100AB8EE98
:10528000C00A01F043FBB0EE408A01F03FFD002868
:1052900015D00320FEF7C5F9DFF8B0070021016043
:1052A000DFF8AC0700210160DFF8A80700210160EA
:1052B000DFF8A40700210160FFF705FF5CE1FCF7C0
:1052C000DDFF002815D10120FEF7ABF9DFF87C07E0
:1052D00000210160DFF8780700210160DFF8740722
:1052E00000210160DFF8700700210160FFF7EBFE8D
:1052F00042E10020FEF795F9DFF8601708780028F2
:105300000BD0DFF85C070078002806D0DFF85407E0
:10531000DFF85427026000200870DFF850579B4CDC
:10532000206B286001F09AFD002833D00320FEF79F
:1053300078F99FED931ADFED920A9FED910ADFF85D
:10534000300700F019FC9FED8E1ADFED8D0A9FEDFE
:105350008C0ADFF8200700F00FFC9FED891ADFEDC3
:10536000880A9FED870ADFF8B80600F005FCDFF831
:10537000DC0600210160DFF8D80600210160DFF8BB
:10538000D40600210160DFF8D00600210160FFF79C
:105390009AFEF1E0DFF8E00690ED001ADFF8DC0697
:1053A000D0ED000ADFF8D80690ED000ADFF8C0065D
:1053B00000F0E2FBDFF8CC0690ED001ADFF8C8063B
:1053C000D0ED000ADFF8C40690ED000ADFF8A4066D
:1053D00000F0D2FBDFF8B80690ED001ADFF8B40653
:1053E000D0ED000ADFF8B00690ED000ADFF83006D5
:1053F00000F0C2FBDFF8A40690ED001ADFF8A0066B
:10540000D0ED000ADFF89C0690ED000ADFF8980660
:1054100000F0B2FBDFF894160878401C0870DFF843
:1054200090060278521C02700A78052A52DB00228C
:105430000A70DFF88026DFF88016B1F910305B4281
:1054400000EE103AB8EEC00A82ED000ADFF86C36C2
:10545000B1F91210494200EE101AB8EEC00A83EDFD
:10546000000ADFF85C1692ED000AD3ED000A30EE78
:10547000600AF0EE000A80EE200A81ED000A027850
:10548000142A1BDB00220270DFF8C465DFF8340643
:10549000D0ED000A91ED000ADFF82C06FFF71CFDA5
:1054A00086ED000ADFF8AC0531680160DFF81C0604
:1054B00031680160DFF81816006808609FED301A47
:1054C000F0EE480A95ED000AFFF754FDDFF87C0581
:1054D00080ED000ADFF87465F0EE480A96ED000AE8
:1054E000FFF790FDB0EE408ADFF86C55DFF87405E9
:1054F000D0ED000A94ED0A0AFFF732FE85ED000AAE
:10550000DFF84C05DFF8201502680A60DFF81C158B
:1055100000680860DFF8180531680160DFF81405DD
:1055200031680160DFF8100580ED008ADFF80C05B6
:1055300080ED008ADFF89C050068002801D1012079
:1055400000E00020C0B2D5ED000AB0EE480AFFF737
:10555000CAFDDFF884050178491C0170017814291F
:105560000ADB0021017001F0D1FB002804D10949B8
:10557000DFF8900400F012F8BDEC028B70BD000063
:10558000000000005C510228105202286C4D0228D5
:10559000E4510228440702280000FA44F8B52DED32
:1055A000068B84B005000C00B7EE000A0020DFF87F
:1055B0002C0590ED000AF7EE000A30EE200A80ED8F
:1055C000000A01F0A3FB002813D00420FEF730F8F6
:1055D000DFF8FC0400210160DFF804050021016010
:1055E000DFF8000500210160DFF8FC040021016004
:1055F00000E20220FDF7BDFF002840F0DB809FEDB8
:10560000A21ADFEDA20A95ED000A00F08BFAB0EEC7
:10561000408A9FED9F1ADFED9F0A94ED000A00F08B
:1056200081FAF0EE408A0420FEF702F802AA03A9EC
:10563000F0EE680AB0EE480A002000F08BFD6A46E2
:1056400001A9F0EE680AB0EE480A012000F082FDE0
:10565000DFF898140878002815D00398DFF8902414
:1056600010600298DFF88C2410600198DFF888241D
:1056700010600098DFF884241060DFF8840480ED67
:10568000008A00200870DFF87C04DFF864549DED88
:10569000030AB8EEC00AD0ED000A20EE200AD5EDCC
:1056A000000AF8EEE00AB7EE001AD0ED001A31EE6B
:1056B000611A00EE810ABDEEC00A8DED030ADFF823
:1056C00034649DED020AB8EEC00AD0ED000A20EE67
:1056D000200AD6ED000AF8EEE00AB7EE001AD0ED87
:1056E000001A31EE611A00EE810ABDEEC00A8DED9E
:1056F000020ADFF804749DED010AB8EEC00AD0ED8D
:10570000000A20EE200AD7ED000AF8EEE00AB7EE14
:10571000001AD0ED001A31EE611A00EE810ABDEEDA
:10572000C00A8DED010ADFF8D4439DED000AB8EE02
:10573000C00AD0ED000A20EE200AD4ED000AF8EEEF
:10574000E00AB7EE001AD0ED001A31EE611A00EE51
:10575000810ABDEEC00A8DED000A0299039800F09F
:1057600031FE0099019800F057FE039828600298D6
:1057700030600198386000982060DFF88C030021C9
:105780000160DFF84C0300210160DFF854030021C1
:105790000160DFF8780380ED008ADFF8740380EDA4
:1057A000008ADFF8400300210160DFF83C0300219C
:1057B00001601FE100209FED911ADFED910ADFF8F3
:1057C000540390ED000A00F0ADF9B0EE408ADFF826
:1057D000140380ED008ADFED2D8ADFED2B9AB0EE09
:1057E000691AF0EE680A95ED000A00F09BF9B0EE38
:1057F000409A9FED271ADFED270A94ED000A00F08A
:1058000091F9B0EE40AADFF8C462F0EE4A0A96EDD4
:10581000000AFFF747FAF0EE40AAB0EE691AF0EE80
:10582000680A39EE2A0A00F07DF9F0EE408A082075
:10583000FDF7FEFEDFF8980231680160DFF8A00294
:10584000C0ED00AADFF8C402C0ED008A85ED009A21
:1058500084ED00AADFF8C05220682860DFF8BC623F
:1058600020683060DFF8A002C0ED00AA0120DFF858
:10587000B0120870DFF87442207800280CD0DFF8EE
:105880008002C0ED008A19E0CDCC4C3DCDCC4CBDA2
:10589000295C0F3ECDCCCC3CDFF86472B0EE481AE8
:1058A000F1EE480A97ED000A38EEC00A00F03AF926
:1058B000D7ED000A30EE800A87ED000A904F944839
:1058C0003968016002AA03A9D5ED000A97ED000A24
:1058D000002000F03FFC6A4601A9D6ED000A97EDD2
:1058E000000A012000F036FC207800280DD0039833
:1058F0007F49086002987F49086001987E490860E6
:1059000000987E490860002020707E48784D9DED0B
:10591000030AB8EEC00AD0ED000A20EE200AD5ED49
:10592000000AF8EEE00AB7EE001AD0ED001A31EEE8
:10593000611A00EE810ABDEEC00A8DED030A6D4EBC
:105940009DED020AB8EEC00AD0ED000A20EE200A52
:10595000D6ED000AF8EEE00AB7EE001AD0ED001A14
:1059600031EE611A00EE810ABDEEC00A8DED020A29
:10597000614F9DED010AB8EEC00AD0ED000A20EE9D
:10598000200AD7ED000AF8EEE00AB7EE001AD0EDD3
:10599000001A31EE611A00EE810ABDEEC00A8DEDEB
:1059A000010A564C9DED000AB8EEC00AD0ED000A7F
:1059B00020EE200AD4ED000AF8EEE00AB7EE001A55
:1059C000D0ED001A31EE611A00EE810ABDEEC00A78
:1059D0008DED000A0299039800F0F4FC00990198FB
:1059E00000F01AFD03982860029830600198386032
:1059F0000098206004B0BDEC068BF1BD0AD7A33C33
:105A000017B7D138E85102286051022824510228E2
:105A1000645102280080BB44285102280000C04085
:105A2000DC4E022830F8FFFF0C51022810510228EA
:105A300014510228185102281C5102282051022812
:105A40009652022898520228A85202286851022829
:105A5000045102280851022800510228A6080228F1
:105A6000B752022840070228000034432C51022874
:105A70004C4E02287C4E0228F4510228F051022894
:105A8000EC51022800520228FC510228F851022849
:105A90000C520228085202280452022824520228DA
:105AA000205202281C520228AC4E0228B85202286A
:105AB000B9520228F450022824500228F850022833
:105AC000F0500228E05102287C5002283851022868
:105AD0003C51022834510228BA5202284C51022863
