:020000041008E2
:1000000000000828B58F0810F1970810D194081047
:10001000F5970810F9970810FD97081000000000E8
:1000200000000000000000000000000081950810A2
:1000300001980810000000000598081009980810A1
:100040003B8E0810618E0810878E0810AD8E081048
:10005000D38E0810F98E08101F8F0810458F0810D6
:100060000D98081011980810159808101998081084
:100070001D98081021980810259808102998081034
:1000800040F0200070472DE9F14FB0B09246049146
:100090000DF142013A9A2B9199464A7000200AE0EC
:1000A0001AF8011B0498309A90470028049000F039
:1000B00034860D98401C0D909AF8000050B1252808
:1000C000EED1002100220791089209910A920B912A
:1000D0000C9204E00D9800F022BE41F001011AF8E4
:1000E000010F2028F9D023280CD02B2804D02D284C
:1000F00005D0302809D00BE041F00201EFE741F0D4
:100100000401ECE741F00801E9E741F01001E6E7FE
:100110002A280FD1D9F8002052F8040BC9F8002082
:1001200000280F9003D540420F9041F004010AF1DE
:10013000010A14E00F92DFF8EC3B0AE00F989842B6
:1001400005DA00EB800402EB4402303A0F920AF128
:10015000010A9AF80020A2F130000A28EED39AF89A
:1001600000002E2803D04FF0FF320E9229E01AF83B
:10017000010F2A2809D1D9F8000050F8042BC9F83A
:1001800000000E920AF1010A1BE02D280CBF0AF1B3
:10019000010A002000220E92DFF8884B0BE040B9E4
:1001A0000E9AA24205DA02EB820503EB4503303BCF
:1001B0000E930AF1010A9AF80030A3F130020A2ADC
:1001C000EDD3ADF840100FF660309AF8001000F053
:1001D000EDFE08B11AF8010B8DF842009DF84200BF
:1001E000682805D19AF8000068280CD1622106E041
:1001F0006C2804BF9AF800006C2804D171218DF896
:1002000042100AF1010A12A806901AF801BBBBF1CC
:1002100025012CD01C3900F09481091F022940F2DD
:100220009081133900F0AB84093900F08A81891E6E
:1002300000F04085491E00F0ED84491E022940F27D
:100240008081091F00F0E684491F00F0EF80491EFD
:1002500000F09584491E00F0D780C91E0CD0891E7D
:1002600000F08D84C91E00F08A8400F02EBD0123A9
:100270000793252100F026BDD9F8000050F8044B63
:10028000C9F80000002C059440F0AB802B99487809
:10029000002800F0A1804FF0FF340FF6942000F00A
:1002A00095FE241A40F0398500F01BBD01236A46F3
:1002B00002A9304600F000FE002840F02E85641EA2
:1002C000F4D13096079C12AF74B1309E17F8011B21
:1002D0000498B0470028049000F01F850D98401C3A
:1002E000641E0D90F2D130960A9C3021002C8DF8BE
:1002F00000100CDD309E01236A4602A9304600F052
:10030000DBFD002840F00985641EF4D13096059F7E
:10031000089C74B1309E17F8011B0498B047002860
:10032000049000F0FA840D98401C641E0D90F2D1E8
:1003300030960B9C3021002C8DF800100CDD309E87
:1003400001236A4602A9304600F0B6FD002840F0BD
:10035000E484641EF4D1309605980899099C4718E6
:1003600074B1309E17F8011B0498B0470028049020
:1003700000F0D3840D98401C641E0D90F2D130968D
:100380000C9C3021002C8DF800100CDD309E0123D8
:100390006A4602A9304600F08FFD002840F0BD8477
:1003A000641EF4D130969DF8400041077FF584AE7D
:1003B0002020002D8DF800007FF77EAE309C0123B9
:1003C0006A4602A9204600F077FD002840F0A58487
:1003D0006D1EF4D130946FE60FF63C30059000F0BE
:1003E00080BC0E9D002D04D5204600F00FFE044673
:1003F00007E02A46204600F025FE002814BF041B13
:100400002C46089400F06DBCD9F8001051F8040B8C
:10041000C9F8001020F00004002121F0FF35CDE9DB
:10042000024512AB0593782100F040BC2B99487827
:1004300020B14FF0FF340FF6B02030E79DF84200B6
:10044000622860D0682817D06A283FD06C2806D070
:10045000712847D074282CD07A281DD062E0D9F8B2
:10046000001051F8040BC9F80010002866D14FF0B5
:10047000FF340FF68C2012E7D9F8001051F8040B66
:10048000C9F8001020B94FF0FF340FF6742006E7CA
:100490000D99018000F025BCD9F8001051F8040B2B
:1004A000C9F80010002849D14FF0FF340FF6502052
:1004B000F5E6D9F8001051F8040BC9F8001000282F
:1004C0003CD14FF0FF340FF63820E8E6D9F80010A1
:1004D00051F8040BC9F8001080B94FF0FF340FF643
:1004E0002020DCE6D9F8001051F8040BC9F8001000
:1004F00020B94FF0FF340FF60820D0E60D9AD3173D
:10050000C0E90023EDE3D9F8001051F8040BC9F855
:10051000001020B94FF0FF340FF6E410BFE60D993C
:100520000170DEE3D9F8001051F8040BC9F800108F
:1005300020B94FF0FF340FF6C810B0E60D990160F6
:10054000CFE39DF842004C2807BFD9F80010CA1D20
:10055000D9F80000C21D22F00702C9F80020D2E934
:1005600000010832C9F80020CDE90201C80F02D00D
:1005700007982D210AE0BDF84000810702D50798B1
:100580002B2103E0C00705D50798202112AA11549A
:10059000401C079012A807994BF0200300EB010CB8
:1005A000DDE90201CDE92C01612BCDF814C021ACAD
:1005B0000BD00E98002848BF062105D404BF4BF08D
:1005C0002000672801D101210E91DDE902014F00D1
:1005D00047EAD0777E15FF174FF0FF32974208BFEA
:1005E000964210D1090341EA10510003002908BFC7
:1005F000002808D0ABF1610503211A2D089118D30A
:100600000FF61C1110E0DDE902014A00521512F14B
:10061000010F11D108030FD1ABF1610503211A2D90
:1006200008911FD30FF600110322604600F036FD3B
:1006300057E30FF6E801F7E7DDE902016A4600F04B
:1006400081FDCDE902014BF02000612811D1059810
:1006500030210170821C0592BBF1610F0CBF782123
:10066000582102E00FF6BC01DEE741700798801CBC
:100670000790DDE9020120F0000231F0004308BFDD
:10068000002A02D10026002542E14BF02008B8F1F3
:10069000610F40F092800E98002847BF2121019100
:1006A000401C0190019FDDE92C017F1C00220023EA
:1006B000DDE9024500F07EFD38BF85F00045009978
:1006C0008DF88420091F002F00910DF1850632DD81
:1006D000204629460022002300F086FD2BD21C2252
:1006E00000F09CFD04460D4600F01AFEFF1F002F8F
:1006F000804609DD00F01BFE02460B4620462946D7
:1007000000F01CFE04460D46F01D0721B8F1000F55
:100710000CDD491E5EBF08F00F0200F8012D4FEA04
:100720002818F3D502E0002200F8012D491EFAD561
:10073000C61D002FCCDC0DF18500361A01980DF195
:1007400085048642D8BF304600282FD4B04206DA4E
:100750000DF185010A5C082AA8BF0F2100DA0021EB
:10076000024621AB134400E0401E13F80159521E0B
:100770008D42F9D00F2904D10DF185018B5C5B1CF2
:100780008B54002A04D50099091D21AC401C00910E
:10079000411E0BD4621813783033DDB23A2DA4BF5A
:1007A0005B443A3B491E02F80139F4D50E99002901
:1007B00040F1AC80421E0E92A8E00099DFF8E826D6
:1007C00047F29750414391FBF2F20092DDE92C454C
:1007D000C2F10702002A25F0004504DD2046294623
:1007E00000F03EFB0BE052420020DFF8C01600F0A4
:1007F00037FB02460B462046294600F0A8FD04467A
:100800000D46B8F1660F06BF009F0A3706270E98FF
:100810003F18142FC8BF142730208DF884000DF125
:100820008506002F34DD2046294600F099FD01465B
:100830000A4606F1080304200A26B2FBF6F606EB88
:10084000860EA2EB4E02303203F8012C0A22B6FBD0
:10085000F2F202EB820EA6EB4E063036401E03F893
:10086000026DE9D1083F002F03F10806D9DD0846E3
:1008700000F07DFD02460B462046294600F05EFD55
:100880000022DFF82C3600F079FD04460D46CAE759
:100890000DF18500361A0DF1850404E00098401E24
:1008A000761E0090641C20783028F7D0B8F1660FCF
:1008B00002D10098401C04E0B8F1650F0CBF012084
:1008C00000200E9940188642B8BF701E00281DD423
:1008D000B04204DA215C3429C8BF392100DC302160
:1008E0000246631E9D1800E0401E15F80169521E65
:1008F0008E42F9D0392902D1A15C491CA154002AA9
:1009000004D50099491C1C46401C00910646009DD8
:100910000E9F30B2002802DC01260FF210644BF06B
:100920002000662808BF6D1C15D067280FFA85F8CF
:1009300041D118F1040F44DBB84542DA9DF840007C
:100940006D1C010703D430B2B842D8BF074628B2A5
:100950003F1A48BF00270FFA85F8B8F1000F00F3DF
:10096000AF800898411C0891302205990A54002F45
:1009700003DC9DF84000010705D50898411C08914B
:100980002E2205990A5417EB080FB8BF7D422DB2ED
:100990006842ED1932B20B909542B8BF2E46059BC6
:1009A000089836B2099632462146184400F076FB84
:1009B000AD1B0C95CCE0BBF1610F15D14FF0700B66
:1009C00017E030B2B84204DA9DF840100A0758BF69
:1009D00007467F1E48BF0027BBF1670F14BF4FF0CB
:1009E000450B4FF0650B04E0BBF1410F08BF4FF022
:1009F000500B0898411C0891002F059914F8012B01
:100A00000A5403DC9DF84000010719D50898411CE1
:100A100008912E2205990A54002F11DD761E30B25E
:100A20008742B8BF3E460598089B32B2214618441B
:100A300000F034FB089836B23018BF1B08900B97B3
:100A4000059808990844B8F1000F80F800B003D465
:100A50002B224270821C04E02D2145464170821CED
:100A60006D4200212CAB28460AE004460A2094FB84
:100A7000F0F000EB8005A4EB450403F8014B491CA2
:100A800000B20028F1DC012906DC4BF020006528CB
:100A900004BF302002F8010B00292CAB08D1302014
:100AA00002F8010B06E0491E585C303002F8010BD9
:100AB0000029F8DC059908980844121A099247E0C1
:100AC00030B229B288421BDA0598089B32B221461F
:100AD000184400F0E3FA089936B271180891A8EBAF
:100AE0000600002F0B9003DC9DF84000020705D59F
:100AF000059A2E2050540999491C09910C9727E01A
:100B00000598089B2AB22146184400F0C7FA0898B5
:100B1000761B4044002F089003DC9DF840100A0724
:100B200004D5411C08912E2205990A5430B28742FF
:100B3000B8BF3E460598089B32B204EB0801184442
:100B400000F0ACFA089836B23018BE1B08900B962D
:100B50009DF8400000F01400102840F0C280079A71
:100B600008980B99821809988A1882180C980F997E
:100B70008018884280F2B580081A0A90B1E09DF88A
:100B80004200622808D068280ED06A2814D06C2849
:100B90001FD0712810D01CE0D9F8001051F8040BB8
:100BA000C9F80010C0B21AE0D9F8001051F8040BCF
:100BB000C9F8001080B212E0D9F80000C21D22F07E
:100BC0000702C9F80020D2E900010832C9F8002064
:100BD00006E0D9F8001051F8040BC9F80010002104
:100BE000CDE902019DF8400001075AD5DDE9022355
:100BF000002B08BF002A54D04BF02000782850D199
:100C0000079812A930220A54401C431C079301F88C
:100C100000B046E09DF84200622808D068280ED057
:100C20006A2814D06C281FD0712810D01CE0D9F885
:100C3000001051F8040BC9F8001040B21AE0D9F8BE
:100C4000001051F8040BC9F8001000B212E0D9F8F6
:100C50000000C21D22F00702C9F80020D2E90001FD
:100C60000832C9F8002006E0D9F8001051F8040B4A
:100C7000C9F80010C117CDE90201002902D5079873
:100C80002D210AE0BDF84000810702D507982B21ED
:100C900003E0C00705D50798202112AA1154401C73
:100CA000079012A8079901440591594602A800F03F
:100CB0004DF816E001200790D9F8000050F8041B09
:100CC000C9F800008DF848100BE001212522BBF186
:100CD000000F07918DF8482003D0022207928DF86B
:100CE00049B00F9D07990A986D1A08992D1A0B980B
:100CF0006D1A09992D1A0C986D1A9DF840102D1A2D
:100D000048073FF5DFAA2021002D8DF800107FF75E
:100D1000D9AA309E2C46FFF7C9BA4FF0FF3031B048
:100D2000BDE8F08FCBCCCC0C686A6C747A4C0000B8
:100D30007072696E74665F733A2062616420257315
:100D400020617267756D656E740000002DE9FC47C7
:100D500007468A463C6950466F2808BF082505D0DB
:100D6000FFF78EF9782814BF0A251025D7E900016E
:100D70003C2680468946BAF1640F18BFBAF1690F64
:100D800005D1002903D5D8F1000869EB4909B9F16B
:100D9000000F08BFB8F1000F0CD1386B50B9082D07
:100DA0003AD197F83800010736D530223B2684F82F
:100DB0003B2031E08DF800A0404649462A46EB171B
:100DC00000F0E6FA3032D0B2761E3A2801960EDAFA
:100DD000A255404649462A46EB1700F0D9FA80460C
:100DE0005FEA010908BFB8F1000F05D108E09DF8DE
:100DF00000001218513AEBE7F868A1198842DBD3DA
:100E0000082D09D197F83800010705D5A05D3028D5
:100E100002D0761E3020A055C6F13C03BB61A1195B
:100E2000F960386B834208DAC31A3B624FF6EF7001
:100E3000398F01403987BDE8F38700280ED597F830
:100E4000380000F01400102808D17A6B7969386AEC
:100E5000521A121AD21A002AC8BF3A62BDE8F387A2
:100E60002DE9D04306460F4614464FF00008DFF840
:100E7000449012E0E00707D542464B4630463946DB
:100E800000F07CFA06460F464046494642464B462D
:100E900000F074FA641080468946002CEAD130468E
:100EA0003946BDE8D0830000A08601000000F03F75
:100EB00084D7974100002440F8B505460E461746F2
:100EC0001C4600205CB117F8011BB068A847B06051
:100ED00030B1F06A401CF0620020641EF3D1F2BD14
:100EE0004FF0FF30F2BD00007072696E74665F7380
:100EF0003A20256E20646973616C6C6F77656400BD
:100F00007072696E74663A2062616420256E206199
:100F10007267756D656E7400000000006E616E0092
:100F20004E414E00696E6600494E46003000F0B4F6
:100F30000246106895681318506803EB5004C00708
:100F400048BF4D44A3422DD013F8016B16F00300A7
:100F500004BF13F8010BC01C31090F2907D113F886
:100F6000011B0F3103E013F8017B05F8017B401EE4
:100F7000F9D10029E6D013F8010BC6F38106032E40
:100F800008BF13F8016B00EB0620404228440026FE
:100F9000B71E8F421EBF10F8017B05F8017B761C3F
:100FA000F6D1CFE7F0BC02F10C007047C9B202786D
:100FB0008A421AB11CBF10F8012FF9E718BF0020B0
:100FC00070470268531C03601170704780B500B908
:100FD00006A005490B681BB122220021984701E0B9
:100FE00000F0EEFA222002BD540F0228636F6E73E8
:100FF000747261696E742068616E646C65723A2007
:10100000626164206D6573736167650000F10103BF
:10101000810704D010F8011B820781B1FAD1026860
:10102000A2F10131914311F0803104BF50F8042F37
:10103000F6E709BAB1FA81F100EBD100401CC01A01
:1010400070470000C9B2830706D0521E22D310F8A1
:10105000013B9942F7D11FE0083A13D302F1040291
:1010600041EA012141EA014150F8043B121F21BF2E
:101070004B40A3F1013C2CEA030C1CF0803FF3D061
:10108000C9B2001F083210F8013B521E28BF91EA76
:10109000030FF8D818BF0120401E704762B38B07BA
:1010A00008D0521E11F8013B00F8013B00F02480EB
:1010B0008B07F6D1830740F0208000BF103A07D39A
:1010C00030B4B1E83810103AA0E83810F9D230BC8A
:1010D000530724BFB1E80810A0E8081044BF51F836
:1010E000043B40F8043BD20724BF31F8022B20F820
:1010F000022B44BF0B7803707047121F17D35B009D
:1011000009D151F8043B20F8023B1B0C121F20F8B8
:10111000023BF6D20BE051F8043B00F8013B1B0AFE
:1011200020F8023B1B0C121F00F8013BF3D238BF22
:10113000121D521E24BF11F8013B00F8013BF8D8E4
:101140007047000010B5144600F002F8226010BD90
:10115000C1F30A5343B14A0012F5001F28D2A3F28B
:10116000FE32A1EB0251704750EA410C20D001F051
:10117000004C31EA0C01B1FA81F204BFB0FA80F3FD
:10118000D2180B3AB2F120032CBF00FA03F19140C0
:1011900041EA0C013EBFC2F1200C20FA0CF31943C6
:1011A0009040524240F2FD33D21A01EB0351704796
:1011B0000022704741EA030C50EA4C0C52EA0C0C36
:1011C0004FF4001C09D307D01CEB410F9CBF1CEB54
:1011D000430F8B4208BF824270471CEB430FFBD882
:1011E000994208BF9042704741EA030C50EA4C0C08
:1011F00052EA0C0C4FF4001C09D307D01CEB410F32
:101200009CBF1CEB430F994208BF904270471CEBF8
:10121000410FFBD88B4208BF8242704700B541ECBA
:10122000100B104600F004F851EC100B00BD00BF8D
:10123000020030EE101B40F2FF7C37D41CEA115341
:1012400013D063456BD09B18634504D201EB025168
:1012500020EE101B704701F0004141EA0C510020C4
:1012600041EC100BAFF30080704710EE100B50EA0A
:10127000410054D0B2F57F7F08D202EB5C01090532
:10128000002041EC110B20EE010B70474FF0FE41A6
:10129000002341EC113B20EE010BB2F57E7230EEE3
:1012A000101B4FEA410342EB5353CDE752421CEA75
:1012B000115316D0634532D09A4204D2A1EB0251A9
:1012C00020EE101B70475B1ED21AA1EB035120EEDB
:1012D000101B372A0CD3002001F0004141EC100B09
:1012E000C0E710EE100B50EA410018D0372AF2D2B6
:1012F000C2EB5C021105002041EC110BF1EE100A6B
:1013000020F01F0121F4F851E1EE101A20EE010B3C
:10131000F1EE101AE1EE100A11F0080FA2D1704799
:1013200041EC100BBDEEC00B10EE100A704700EE42
:10133000100AB8EEC00B51EC100B704741EC100BCB
:1013400043EC112B30EE410B51EC100B704741EC8C
:10135000100B43EC112B80EE010B51EC100B70477E
:1013600041EC100BBCEEC00B10EE100A704700EE03
:10137000100AB8EE400B51EC100B704741EC100B0B
:1013800043EC112B20EE010B51EC100B70470000C9
:10139000BBBBE1B1B2F5803F80F07E80022A1ED94E
:1013A0008C46B1FBF2F102FB11C31B0443EA10436C
:1013B000B3FBF2FC02FB1C3380B240EA0343B3FBF5
:1013C000F2F002FB103240EA0C4000237047022A80
:1013D00005D98446B0FBF2F002FB10C270474AB157
:1013E00005D100F0010249085FEA30007047002291
:1013F0000023704700F0E8B80B0002000021002035
:101400007047904271EB030CF6D3B3F5803F2FD2B7
:10141000F0B5B3FA83F7B1FA81F4A7F10F0E3D1BD3
:101420005340CEF1200602FA0EF2F3415340B5F1DB
:101430000F0746D80F3C2C444140C4F12006A04081
:10144000F1414140B1FBF3F603FB1611A2FB064547
:10145000001BA94102D2761E8018594180EA010280
:1014600021FA0EF362FA0EF200215A403046F0BD26
:1014700030B4B1FBF3FC03FB1C11A2FB0C45001BB9
:10148000A94103D2ACF1010C8018594130BC02468D
:101490000B46604600217047B2F1807F65D3F0B5FE
:1014A000B2FA82F7B1FA81F4C7F10F063D1B22FAB6
:1014B00006F307F1110EF24120355A40B5F10F073E
:1014C000B8D94140C4F12006A040F1414140B1FBF0
:1014D000F3FC03FB1C11A2FB0C45001BA94103D22A
:1014E000BCF1010C801859410F2F12D30F3FC903D3
:1014F00041EA5041B1FBF3F603FB1611A2FB06458E
:10150000D4EBC030A94102D2761E8018594146EA78
:10151000CC3C07B34140C7F12006B840F1414140FF
:10152000B1FBF3F603FB1611A2FB0645001BA94114
:1015300002D2761E8018594180EA010221FA0EF388
:10154000C7F1200462FA0EF20CFA07F05A402CFAA6
:1015500004F13043F0BD80EA010221FA0EF30021CC
:1015600062FA0EF260465A40F0BD8C46B1FBF2F1D1
:1015700002FB11C31B0243EA1063B3FBF2FC02FB44
:101580001C331B024CEA002043EA1063B3FBF2FC5D
:1015900002FB1C331B024CEA002043EA1063B3FB3E
:1015A000F2FC02FB1C331B024CEA002043EA1063EE
:1015B000B3FBF2FC02FB1C324CEA00200023704714
:1015C000012000F003B800007047000080B5AFF3C1
:1015D0000080024A11001820ABBEFBE72600020083
:1015E000022801D3012010E00B00DBB2042B01DB49
:1015F00001200AE0DFF8283803EB8000C9B2405C24
:10160000824201D3012000E000207047F8B50600B7
:101610000F0015001C00022E01D301201DE02A003E
:101620003900C9B23000FFF7DBFF012801D10120EA
:1016300013E03800C0B2002812D1B4F5807F0DD27B
:10164000DFF8E0077603304400EB850010F58050AA
:10165000016864F30F2101600020F2BD0120FCE766
:10166000FFB2012F11D1B4F5803F0CD2DFF8B407DF
:101670007603304400EB850010F5A050016864F358
:1016800017210160E8E70120E7E70120E5E700B264
:101690000012C0B27047F8B505000E001700280010
:1016A00000B2FFF7F4FF04002000C0B2022801D30B
:1016B000012024E03A003100C9B22000C0B2FFF797
:1016C0008FFF012801D1012019E0DFF85817200011
:1016D000C0B2400308442A00D2B200EB8200D0F826
:1016E000000CF6B266F3092067F30700E4B2640366
:1016F0002144EDB201EB8501C1F8000C0020F2BDE0
:1017000070B504000D001600022C01D301201DE06D
:1017100032002900C9B22000FFF762FF012801D181
:10172000012013E0DFF8FC166003085850F0004079
:1017300050F0407050F47F00EDB265F3092066F37D
:1017400007006203885064030859002070BD10B57B
:10175000C0B2002800F0EA80022800F0EB80C0F060
:10176000E780042800F0EA80C0F0E680062800F058
:10177000E980C0F0E580082800F0E880C0F0E4804F
:101780000A2800F0E780C0F0E3800C2800F0E68033
:10179000C0F0E2800E2800F0E580C0F0E180102863
:1017A00000F0E480C0F0E080122800F0E380C0F098
:1017B000DF80142800F0E280C0F0DE80162800F000
:1017C000E180C0F0DD80182800F0E080C0F0DC800F
:1017D0001A2800F0DF80C0F0DB801C2800F0DE80DB
:1017E000C0F0DA801E2800F0DD80C0F0D98020280B
:1017F00000F0DC80C0F0D880222800F0DB80C0F050
:10180000D780242800F0DA80C0F0D680262800F0A7
:10181000D980C0F0D580282800F0D880C0F0D480CE
:101820002A2800F0D780C0F0D3802C2800F0D68082
:10183000C0F0D2802E2800F0D580C0F0D1803028B2
:1018400000F0D480C0F0D080322800F0D380C0F007
:10185000CF80342800F0D280C0F0CE80362800F04F
:10186000D180C0F0CD80382800F0D080C0F0CC808E
:101870003A2800F0CF80C0F0CB803C2800F0CE802A
:10188000C0F0CA803E2800F0CD80C0F0C98040285A
:1018900000F0CC80C0F0C880422800F0CB80C0F0BF
:1018A000C780442800F0CA80C0F0C680462800F0F7
:1018B000C980C0F0C580482800F0C880C0F0C4804E
:1018C0004A2800F0C780C0F0C3804C2800F0C680D2
:1018D000C0F0C2804E2800F0C580C0F0C180502802
:1018E00000F0C480C0F0C080522800F0C380C0F077
:1018F000BF80542800F0C280C0F0BE80562800F09F
:10190000C180C0F0BD80582800F0C080C0F0BC800D
:101910005A2800F0BF80C0F0BB805C2800F0BE8079
:10192000C0F0BA805D2800F0BB80BBE01924BFE0A6
:101930003124BDE01824BBE03324B9E03524B7E0FE
:101940001424B5E03724B3E01324B1E02024AFE041
:101950001224ADE02124ABE01124A9E01024A7E07B
:101960002824A5E02924A3E02A24A1E009249FE05B
:101970002B249DE008249BE02C2499E0032497E08D
:10198000022495E0392493E03B2491E03D248FE04C
:1019900001248DE03F248BE0002489E0402487E08F
:1019A000412485E0422483E0432481E0BF247FE09A
:1019B00048247DE049247BE0BC2479E0992477E049
:1019C0009A2475E0502473E09B2471E0B6246FE004
:1019D00051246DE09C246BE0B52469E0522467E05B
:1019E000A02465E0B42463E0532461E0B3245FE005
:1019F00054245DE0B2245BE0B12459E0AD2457E00B
:101A0000602455E0AE2453E0612451E0AD244FE062
:101A100062244DE063244BE0AB2449E0642447E0BA
:101A2000AA2445E0652443E0A92441E0A8243FE03E
:101A300069243DE06B243BE06D2439E06F2437E0FE
:101A4000A32435E0702433E0A22431E071242FE098
:101A5000A1242DE097242BE0962429E0742427E08C
:101A6000952425E0752423E0942421E093241FE0AD
:101A700092241DE078241BE0792419E08C2417E0DF
:101A80007A2415E08B2413E07B2411E08A240FE0F4
:101A90005A240DE059240BE0892409E0582407E07A
:101AA000882405E09D22DFF84019002000F02CFE7C
:101AB0002000C0B210BD10B5C0B2002800F0EA800E
:101AC000022800F0EB80C0F0E780042800F0EA80F4
:101AD000C0F0E680062800F0E980C0F0E580082824
:101AE00000F0E880C0F0E4800A2800F0E780C0F051
:101AF000E3800C2800F0E680C0F0E2800E2800F0C1
:101B0000E580C0F0E180102800F0E480C0F0E080C3
:101B1000122800F0E380C0F0DF80142800F0E2809B
:101B2000C0F0DE80162800F0E180C0F0DD801828CB
:101B300000F0E080C0F0DC801A2800F0DF80C0F008
:101B4000DB801C2800F0DE80C0F0DA801E2800F068
:101B5000DD80C0F0D980202800F0DC80C0F0D88083
:101B6000222800F0DB80C0F0D780242800F0DA8043
:101B7000C0F0D680262800F0D980C0F0D580282873
:101B800000F0D880C0F0D4802A2800F0D780C0F0C0
:101B9000D3802C2800F0D680C0F0D2802E2800F010
:101BA000D580C0F0D180302800F0D480C0F0D08043
:101BB000322800F0D380C0F0CF80342800F0D280EB
:101BC000C0F0CE80362800F0D180C0F0CD8038281B
:101BD00000F0D080C0F0CC803A2800F0CF80C0F078
:101BE000CB803C2800F0CE80C0F0CA803E2800F0B8
:101BF000CD80C0F0C980402800F0CC80C0F0C88003
:101C0000422800F0CB80C0F0C780442800F0CA8092
:101C1000C0F0C680462800F0C980C0F0C5804828C2
:101C200000F0C880C0F0C4804A2800F0C780C0F02F
:101C3000C3804C2800F0C680C0F0C2804E2800F05F
:101C4000C580C0F0C180502800F0C480C0F0C080C2
:101C5000522800F0C380C0F0BF80542800F0C2803A
:101C6000C0F0BE80562800F0C180C0F0BD8058286A
:101C700000F0C080C0F0BC805A2800F0BF80C0F0E7
:101C8000BB805C2800F0BE80C0F0BA805D2800F008
:101C9000BB80BBE00824C0E00824BEE00824BCE010
:101CA0000824BAE00824B8E00824B6E00824B4E028
:101CB0000824B2E00824B0E00824AEE00824ACE038
:101CC0000824AAE00824A8E00824A6E00824A4E048
:101CD0000824A2E00824A0E008249EE008249CE058
:101CE00008249AE0082498E0082496E0082494E068
:101CF000082492E0082490E008248EE008248CE078
:101D000008248AE0082488E0082486E0082484E087
:101D1000082482E0082480E008247EE008247CE097
:101D200008247AE0082478E0082476E0082474E0A7
:101D3000082472E0082470E008246EE008246CE0B7
:101D400008246AE0082468E0082466E0082464E0C7
:101D5000082462E0082460E008245EE008245CE0D7
:101D600008245AE0162458E0082456E0082454E0D9
:101D7000082452E0082450E008244EE008244CE0F7
:101D800008244AE0082448E0082446E0082444E007
:101D9000082442E0082440E008243EE008243CE017
:101DA00008243AE0082438E0082436E0082434E027
:101DB000082432E0082430E008242EE008242CE037
:101DC00008242AE0082428E0082426E0082424E047
:101DD000082422E0082420E008241EE008241CE057
:101DE00008241AE0082418E0082416E0082414E067
:101DF000082412E0082410E008240EE008240CE077
:101E000008240AE0082408E0082406E04FF486725B
:101E1000DFF8D415002000F077FC2000C0B210BD20
:101E2000B09608100000044080B5C0B2002800F051
:101E3000EA80022800F0EB80C0F0E780042800F080
:101E4000EA80C0F0E680062800F0E980C0F0E58076
:101E5000082800F0E880C0F0E4800A2800F0E7805D
:101E6000C0F0E3800C2800F0E680C0F0E2800E288D
:101E700000F0E580C0F0E180102800F0E480C0F0C0
:101E8000E080122800F0E380C0F0DF80142800F02A
:101E9000E280C0F0DE80162800F0E180C0F0DD8036
:101EA000182800F0E080C0F0DC801A2800F0DF8005
:101EB000C0F0DB801C2800F0DE80C0F0DA801E2835
:101EC00000F0DD80C0F0D980202800F0DC80C0F078
:101ED000D880222800F0DB80C0F0D780242800F0D2
:101EE000DA80C0F0D680262800F0D980C0F0D580F6
:101EF000282800F0D880C0F0D4802A2800F0D780AD
:101F0000C0F0D3802C2800F0D680C0F0D2802E28DC
:101F100000F0D580C0F0D180302800F0D480C0F02F
:101F2000D080322800F0D380C0F0CF80342800F079
:101F3000D280C0F0CE80362800F0D180C0F0CD80B5
:101F4000382800F0D080C0F0CC803A2800F0CF8054
:101F5000C0F0CB803C2800F0CE80C0F0CA803E2884
:101F600000F0CD80C0F0C980402800F0CC80C0F0E7
:101F7000C880422800F0CB80C0F0C780442800F021
:101F8000CA80C0F0C680462800F0C980C0F0C58075
:101F9000482800F0C880C0F0C4804A2800F0C780FC
:101FA000C0F0C3804C2800F0C680C0F0C2804E282C
:101FB00000F0C580C0F0C180502800F0C480C0F09F
:101FC000C080522800F0C380C0F0BF80542800F0C9
:101FD000C280C0F0BE80562800F0C180C0F0BD8035
:101FE000582800F0C080C0F0BC805A2800F0BF80A4
:101FF000C0F0BB805C2800F0BE80C0F0BA805D28D5
:1020000000F0BB80BBE00020C0E00020BEE001206B
:10201000BCE00120BAE00220B8E00320B6E00320D3
:10202000B4E00420B2E00420B0E00520AEE00520DA
:10203000ACE00620AAE00720A8E00920A6E00A20DC
:10204000A4E00B20A2E00B20A0E00C209EE00C20DE
:102050009CE00D209AE00D2098E00E2096E00F20E5
:1020600094E0102092E0112090E011208EE01220E8
:102070008CE012208AE0132088E0142086E01520EE
:1020800084E0162082E0162080E018207EE01920EF
:102090007CE019207AE01A2078E01B2076E01C20F2
:1020A00074E01C2072E01C2070E01D206EE01D20FA
:1020B0006CE01D206AE01E2068E01E2066E01E2005
:1020C00064E01F2062E01F2060E020205EE020200E
:1020D0005CE021205AE0222058E0242056E0242011
:1020E00054E0252052E0252050E026204EE0272015
:1020F0004CE027204AE0282048E0282046E029201C
:1021000044E0292042E02A2040E02C203EE02D201F
:102110003CE02E203AE02F2038E02F2036E030201F
:1021200034E0302032E0312030E031202EE0322027
:102130002CE033202AE0342028E0342026E035202B
:1021400024E0352022E0362020E037201EE0382031
:102150001CE039201AE0392018E03A2016E03A2035
:1021600014E03B2012E03B2010E03B200EE03C203E
:102170000CE03C200AE03D2008E03D2006E040F273
:102180007B129949002000F0BFFA0020C0B202BDC6
:10219000002007E09549C2018A5822F00042C3019D
:1021A000CA50401C3F28F5DB704770B504000E0094
:1021B000002000202000C0B2FFF736FE8B4DC0B2D9
:1021C000C0012844006A80B206FB00F642F210709B
:1021D000B6FBF0F62000C0B2FFF726FEC00128448F
:1021E000B6B246612000C0B2FFF71EFE0100C9B2C0
:1021F000C9012944096C51F00101C0B2C001284451
:10220000016470BD2DE9F041AAB004000D00160074
:10221000342100221DAF380000F006FB002074219D
:1022200000226F46380000F0FFFA0E201E902000BA
:10223000C0B2FFF740FC8DF87C002000C0B2FFF771
:1022400086FA07005FF008082000C0B2FFF77FFAA7
:102250001DAA97FBF8F108FB11773900644BC0B257
:10226000C010C001184400F09EFB2000C0B2FFF770
:10227000DBFD00220121C0B210F5937000B2FFF720
:102280000AFA2000C0B2FFF7CFFDC0B210F593707C
:1022900000B2FFF7FCF9092300220121C0B2FFF7C9
:1022A000B5F92000C0B2FFF7BFFDC0B210F59370C2
:1022B00000B2FFF7ECF900220121C0B2FFF720FACB
:1022C0004C48B0FBF5F1090C4A482A04B0FBF2F384
:1022D00002FB1300002800D0491C022903D2002071
:1022E0008DF801002FE0032903D201208DF80100B1
:1022F00029E0052903D202208DF8010023E00929F5
:1023000003D203208DF801001DE0112903D204201F
:102310008DF8010017E0212903D205208DF8010076
:1023200011E0412903D206208DF801000BE081293C
:1023300003D207208DF8010005E040F2C9122A49B6
:10234000002000F0E1F904208DF8000001208DF854
:10235000100000208DF8110003208DF812000320DA
:102360008DF8130000208DF80800224901229DF904
:1023700001008240B1FBF2F0B0FBF5F0401E059089
:102380000598401C06FB00F642F21070B6FBF0F018
:10239000089002208DF8400003208DF8680001208D
:1023A0001B9001208DF828002000C0B2FFF73CFDF3
:1023B0000E4D6946C0B2C001284400F033FB200036
:1023C000C0B2FFF731FDC0B2C001284400F02AFCC2
:1023D0002000C0B2FFF728FDC0B2C001284400F0C1
:1023E00026FC2AB0BDE8F081249308100000584074
:1023F0000000314000127A0082B0002001900020DD
:1024000000900020019009E00098401C0090009886
:10241000B0F5005FF8D30198401C01900198B0F529
:10242000805F02D200200090F1E702B0704780B5D3
:102430000100002000F0F6FD01BD2DE9F043ADF5EF
:10244000137D0700884616001C000020ADF802002E
:102450000020ADF80000002002900020ADF804003C
:102460000020ADF806004046FEF7D0FD0290DFF8F0
:1024700080532888002801D028698047DFF874033A
:102480000078002800F033812888002800F01181AE
:10249000BDF90600411CADF806103A00010089B2F2
:1024A0000020EB68984747464046FEF7AFFD029094
:1024B0006888A97990FBF1F0ADF804003800471C5A
:1024C00000780028FAD10020ADF800000EE07F1E51
:1024D00038782F2802D038785C2804D1BDF8000065
:1024E000401CADF800000298401E0290BDF80000AC
:1024F000022802DA02980028E9D50298002806D4BA
:102500007A1CDFF8F41253A800F0ACFF0EE0BDF81F
:102510000000002805D13A00B84953A800F0A2FFF6
:1025200004E03A00B44953A800F09CFF0020ADF845
:10253000020042E0BDF80010BDF80020BDF80230F6
:1025400053AF9BB2BDF90400434313FA82F0385CE9
:1025500043AA89B25054BDF80000401CADF80000F9
:10256000BDF8000080B2BDF9041088420EDA53A80D
:10257000FEF74CFDBDF80020BDF802309BB2BDF95E
:1025800004104B4313FA82F18842D3D2002043A9AE
:10259000BDF800208854BDF90600411CADF80610B6
:1025A00043AAE97911FB00F189B20020EB68984752
:1025B000BDF80200401CADF80200BDF8027053A83F
:1025C000FEF724FDBDF90410B0FBF1F0401CBFB2D2
:1025D000874203D20020ADF80000C1E732008849ED
:1025E00053A800F03FFFBDF90600411CADF80610EE
:1025F00053AAE97911FB00F189B20020EB689847F2
:10260000002C74D00020ADF8020041E0BDF80010AD
:10261000BDF80020BDF802309BB2BDF90400434371
:1026200013FA82F0205C43AA89B25054BDF800002E
:10263000401CADF80000BDF8000080B2BDF90410E8
:1026400088420EDA2000FEF7E1FCBDF80020BDF85C
:1026500002309BB2BDF904104B4313FA82F1884259
:10266000D4D2002043A9BDF800208854BDF906004B
:10267000411CADF8061043AAE97911FB00F189B2BB
:102680000020EB689847BDF80200401CADF802003E
:10269000BDF802602000FEF7B9FCBDF90410B0FBE4
:1026A000F1F0401CB6B2864221D20020ADF8000005
:1026B000C1E74FF4807100220DF10C09484600F08B
:1026C000B3F83800A9688847002C07D0009433007D
:1026D00042464C4903A800F0C5FE05E033004246DF
:1026E000494903A800F0BEFE03A8A96888470DF574
:1026F000137DBDE8F08310B514002200D2B2002093
:1027000000F081FC200010BD38B50C001500C0B2EF
:10271000002803D13E480078002800D131BD3D4952
:102720000878002800D0FEE70878401C087000F008
:1027300003FF00232A0021003748FFF77EFEFFF742
:102740005BFEF6E710B514001A00C0B2002808D1ED
:1027500028480078002804D00B0021002F48FFF7FC
:102760006CFE10BD002101804FF6FF714180818019
:10277000FF218171C171002181600021C1600021B0
:10278000016170471A4902880A8042884A8082881B
:102790008A8082798A71C279CA7182688A60C268C5
:1027A000CA6000690861012012490870704700B5CD
:1027B00085B06846FFF7D6FF194802906846FFF7D4
:1027C000E1FF05B000BD80B5FFF7F1FF0023002257
:1027D0005FF4E131002000F059FD4023114A00214F
:1027E0000A4800F0D1FE0121002000F0D0FC01BD1C
:1027F0000C0E0228730F02288096081030960810DD
:102800008C9608106495081000960810E00D0228B8
:10281000E5070228740F02284096081098960810C1
:102820002F240810580C022862F30F2262F31F4273
:10283000401810F0030308D0C91A1FD3DB0748BFA4
:1028400000F8012D28BF20F8022D130030B41446E3
:102850001546103928BF20E93C00FAD8490728BF9F
:1028600020E90C0048BF40F8042D890028BF20F85B
:10287000022D48BF00F8012D30BC7047C91818BFA1
:1028800000F8012DCB0728BF00F8012D704700008C
:1028900030B4614B1818C009604C14EB00140429C3
:1028A0000DD223681F25C8008540AB43D2B212F079
:1028B0001F02C90012FA01F1194321600CE0091F3F
:1028C00063681F25C8008540AB43D2B212F01F02D7
:1028D000C9008A401A43626030BC7047002A04D1A4
:1028E000012212FA01F1416003E0012212FA01F122
:1028F0008160704710B48900436C0F248C40A3435F
:1029000012F00F0212FA01F11943416410BC704732
:1029100010B4836C01248C40A34312F0010212FA1C
:1029200001F11943816410BC704710B4C36C0124D9
:102930008C40A34312F0010212FA01F11943C16461
:1029400010BC704710B449001031C36C03248C4094
:10295000A34312F0030212FA01F11943C16410BC3F
:1029600070474269012212FA01F1416140697047E2
:1029700010B4836901248C40A34312F0010212FABF
:1029800001F11943816110BC704710B44900036C18
:1029900003248C40A34312F0030212FA01F11943FD
:1029A000016410BC7047F8B505000E001400002744
:1029B000002D2ED0002C2CD0226831002800FFF7EB
:1029C0008DFF227A31002800FFF762FF6269310033
:1029D0002800FFF79DFFA26931002800FFF7A5FF3F
:1029E000E26931002800FFF7ADFF6268310028007E
:1029F000FFF780FFE26831002800FFF7C6FF3100D3
:102A00002800FFF7AEFF226931002800FFF7B0FF72
:102A100000E0034F3800F2BD0000CFBF000030409F
:102A200001005A000122002800F0EC80002900F08B
:102A3000E980754A12680B7A63F392420B7B13F0BC
:102A4000030363F311420B7813F0070363F31A6275
:102A50008B7863F39E7291F8283063F3000291F84B
:102A6000343063F341020B7F63F382024B7F63F3E5
:102A7000C30291F8403063F38A2291F84030DBB210
:102A80005B08DBB263F3492291F8703063F30822EC
:102A900091F8713013F0030363F30D3202600A7A88
:102AA000002A02D10022826007E00A7A012A02D1BC
:102AB0004A69826001E0012282600A6A02614A6A10
:102AC0004261CA6A82610A6BC2614A6902628A69AA
:102AD00042624E4A126891F8443003F0FF03120A32
:102AE00012021A4391F84C3003F0FF0363F31742CC
:102AF00091F85C3003F0FF0363F31F6291F86C30D0
:102B000003F0FF0363F30F224264414A126891F815
:102B1000643003F0FF0363F30F2291F8543003F0A5
:102B2000FF03120A12021A4382643A4A126891F8A9
:102B3000413013F00303920892001A4391F8603079
:102B400013F0030363F38B2291F8483013F003036F
:102B500063F3051291F8503013F0030363F3092275
:102B600091F8583013F0030363F3871291F868303B
:102B700013F0030363F38302C264274A126891F8D7
:102B8000723013F00703D208D2001A4391F8733061
:102B900013F0070363F30612426591F8352082674C
:102BA0001E4A12680B7C13F00303920892001A432A
:102BB000CB7C13F0030363F387124B7C13F0030306
:102BC00063F383028B7C13F0030363F30512026546
:102BD000134A1268CB8863F31F428B889BB21B0A8F
:102BE0009BB263F30F220B78052B06D1097901F014
:102BF000FF01120A12020A4302E0497861F3070258
:102C000002630022100070472C97081030970810BC
:102C100034970810389708103C9708104097081010
:102C200044970810016851F000410160704740303E
:102C3000016851F01001016070470000022801D3C3
:102C4000012010E00B00DBB2042B01DB01200AE0C5
:102C5000DFF8CC3703EB8000C9B2405C824201D37D
:102C6000012000E000207047F8B504000F001500B7
:102C70001E00022C01D301202AE02A003900C9B22B
:102C80002000FFF7DBFF012801D1012020E006989A
:102C90003900C9B202291ED1B6F5803F19D22028C9
:102CA00017D24FF4C052DFF87C1763030B4403EBD9
:102CB000850313441F6866F317271F6064032144CC
:102CC00001EB850111440A6860F3C7020A60002025
:102CD000F2BD0120FCE7FFB2032F1FD1B6F1807FC8
:102CE0001AD2202818D24FF4E052DFF838176303C5
:102CF0000B4403EB850313441F6807F0FF0757EAF3
:102D000006271F606403214401EB850111440A6812
:102D100060F3C7020A60DAE70120D9E70120D7E7AC
:102D200000B20012C0B27047F8B505000E001700DF
:102D3000280000B2FFF7F4FF04002000C0B2022810
:102D400001D3012024E03A003100C9B22000C0B212
:102D5000FFF774FF012801D1012019E0DFF8C41644
:102D60002000C0B2400308442A00D2B200EB820027
:102D7000D0F8000CF6B266F3092067F30700E4B25E
:102D800064032144EDB201EB8501C1F8000C002081
:102D9000F2BD70B504000D001600022C01D3012015
:102DA0001DE032002900C9B22000FFF747FF0128CB
:102DB00001D1012013E0DFF86C166003085850F0D1
:102DC000004050F0407050F47F00EDB265F30920F0
:102DD00066F307006203885064030859002070BD41
:102DE000D0F840037047D0F80803C005C00D704705
:102DF000C0F840127047D0F80802C005C00D7047F7
:102E0000D0F80802C0F3C030704738B5050028007C
:102E1000FFF7F1FF04002800FFF7F2FF0419002C70
:102E200001D1012000E00020C0B232BDC0F8C81FAF
:102E30007047D0F8C80F7047C0F8881F7047D0F8A7
:102E4000880F7047016851F000410160704738B544
:102E500004001500C9B2002906D002291ED010D3E3
:102E6000042935D027D340E0DFF8BC05A06001205D
:102E70002073112060734FF48C70E0811220208247
:102E800039E0DFF8A805A0600120207311206073ED
:102E900040F21D10E0816B2020822CE0DFF89005CD
:102EA000A06001202073112060734FF48E70E081C8
:102EB0006A2020821FE0DFF87C05A06002202073DA
:102EC0001120607340F21B10E0816920208212E023
:102ED000DFF86405A06001202073132060734FF4B5
:102EE0008D70E0816820208205E07C22DFF84C159F
:102EF0000020FFF709FCEDB2002D06D0022D1ED0F8
:102F000010D3042D35D027D340E0DFF81C05206016
:102F100000202071112060714FF48C70E08112202C
:102F2000208239E0DFF804052060002020711120A4
:102F3000607140F21D10E0816B2020822CE0DFF8F0
:102F4000F004206000202071112060714FF48E7019
:102F5000E0816A2020821FE0DFF8D8042060012091
:102F600020711120607140F21B10E08169202082E5
:102F700012E0DFF8C404206000202071132060718B
:102F80004FF48D70E0816820208205E0A822DFF8F0
:102F9000AC140020FFF7B8FB31BD10B5C0B200285B
:102FA00006D002280AD006D304280DD009D30EE09B
:102FB000DFF88C4411E0DFF88C440EE0DFF8884441
:102FC0000BE0DFF8884408E0DFF8844405E0BD2228
:102FD000DFF868140020FFF797FB200010BD38B51C
:102FE0000400DFF87054C9B22000C0B255F82000C8
:102FF000FFF7FEFE2000C0B255F82000FFF705FFE6
:103000000028F7D031BD70B505000E00140006E0B1
:1030100031782800C0B2FFF7E2FF641E761C002C56
:10302000F6D170BD38B504000D0005E02978200008
:10303000C0B2FFF7D4FF6D1C28780028F6D131BD4F
:1030400070B504000D000020DFF808642000C0B255
:1030500056F82000FFF7C7FE002807D0E4B256F864
:103060002400FFF7BDFE2870012000E00020C0B260
:1030700070BD70B505000C00DFF8D8632800C0B241
:1030800056F82000FFF7DBFE400840000100280052
:10309000C0B256F82000FFF7CFFE2800C0B256F8A5
:1030A0002000FFF7CCFE30F0020001002800C0B283
:1030B00056F82000FFF7C0FE2800C0B256F82000E6
:1030C000FFF7BDFE30F0200001002800C0B256F826
:1030D0002000FFF7B1FE2800C0B256F82000FFF72D
:1030E000AEFE30F0400001002800C0B256F82000CB
:1030F000FFF7A2FE2800C0B256F82000FFF79FFE9F
:1031000030F0100001002800C0B256F82000FFF790
:1031100093FE2800C0B256F82000FFF790FE30F46E
:10312000807001002800C0B256F82000FFF784FE2E
:103130002800C0B256F82000FFF781FE30F480600E
:1031400001002800C0B256F82000FFF775FE002CE1
:103150000ED02800C0B256F82000FFF76AFE50F4E7
:1031600000700100EDB256F82500FFF765FE0DE096
:103170002800C0B256F82000FFF75BFE30F4007064
:103180000100EDB256F82500FFF756FE70BD70B590
:1031900005000C00DFF8BC622800C0B256F8200021
:1031A000FFF747FE4008400001002800C0B256F873
:1031B0002000FFF73BFE2800C0B256F82000FFF7C2
:1031C00038FE30F0080001002800C0B256F8200098
:1031D000FFF72CFE2800C0B256F82000FFF729FEAA
:1031E00030F0200001002800C0B256F82000FFF7A0
:1031F0001DFE2800C0B256F82000FFF71AFE30F47A
:10320000807001002800C0B256F82000FFF70EFEC3
:103210002800C0B256F82000FFF70BFE30F4007013
:1032200001002800C0B256F82000FFF7FFFD28007B
:10323000C0B256F82000FFF7FCFD30F4006001003A
:103240002800C0B256F82000FFF7F0FD002C0ED089
:103250002800C0B256F82000FFF7EBFD50F0040044
:103260000100EDB256F82500FFF7E0FD0DE0280063
:10327000C0B256F82000FFF7DCFD30F0040001007A
:10328000EDB256F82500FFF7D1FD70BD2DE9F841EC
:10329000A7B005000F00160028003100C0B2C9B267
:1032A000884201D1012000E000201C00DFF88C8161
:1032B0004FF4CE724146C0B2FFF726FA2800210033
:1032C000C0B2C9B2884201D1012000E0002040F222
:1032D0009D124146C0B2FFF717FA02A8142100F070
:1032E00073F9342100220DF168084046FFF79CFA7B
:1032F0004C2100220DF11C084046FFF795FAFF0013
:103300003A00002354480021FEF742F8070022004B
:10331000D2B23100C9B202A8FFF799FD08201B9074
:103320009DF80D008DF870001AAA9DF80C100298F7
:10333000FFF739FB06201B909DF80D008DF87000FB
:103340001AAA9DF814100498FFF72DFB002007908F
:10335000082008900820099002200B9000200C9073
:1033600000201290002014903A4C2800C0B254F86B
:10337000200000F06FFA39492A00D2B238204243C7
:103380000A4407A92800C0B254F8200000F020F930
:103390002800C0B254F82000FFF754FD2A00D2B232
:1033A0000321BDF91600FFF7BFFCBDF91600FFF7BA
:1033B000B7FC17F01F010091C7F357132A00D2B2D0
:1033C0000321C0B2FFF750FCBDF91600FFF7A8FCBF
:1033D0002A00D2B20321C0B2FFF7DBFCBDF918000E
:1033E000ADF800000320ADF8020001208DF80400C4
:1033F00007221B482900C9B250F82110684600F086
:10340000A7F800212800C0B2FFF7C1FE0021280064
:10341000C0B2FFF72EFE28B0BDE8F081000000002A
:10342000B096081000000440000031400002314016
:10343000000531408008314000073140A493081056
:1034400000006040000065400000644000006340F0
:1034500000006240CC07022800809698E809022804
:10346000B80702280CB430B583B00A4606A9029109
:10347000044600250194009502AB01A90848784450
:103480001E30FCF700FE019A157000284EBF04465E
:103490000198041B204603B030BC5DF80CFB00BF54
:1034A00023DBFFFF010009B2002908D4012210F03C
:1034B0001F018A401B4900B2400941F82020704793
:1034C000010009B2002908D4012210F01F018A402E
:1034D000154900B2400941F820207047020012B29D
:1034E000002A04D44901114A00B2115407E04901ED
:1034F0000F4A00B210F00F00104400F8041C70478F
:10350000002800D162B60B480168491C0160704771
:1035100072B608490868002802D00868401E086092
:103520000868704700E100E080E200E000E400E0AD
:1035300018ED00E04C0F022880B5FFF7E9FFFEF719
:1035400027FE01BD80B5C9B200B2FFF7C7FF01BDBC
:1035500070B504000D001600200000F0C3F929002A
:10356000B4F9000000F0FDF93100C9B2B4F902006D
:10357000FFF7E8FFB4F90200FFF7A2FFB4F9020079
:10358000FFF790FF70BD0000F8B504000E001700B3
:103590001D00002C01D0012000E000204FF4077234
:1035A0000849C0B2FFF7B0F8002067600021217021
:1035B00066700021A1600021E16025616561C0B2F3
:1035C000F2BD0000E4920810002200F0E1B9000012
:1035D0002DE9F44FDFF8D822DFF8D8321B68DFF886
:1035E000D8422468DFF8D4522D68DFF8D4623668F8
:1035F000DFF8D0723F68DFF8D0C2DCF800C0DFF837
:10360000CCE2DEF800E0DFF8C882D8F80080DFF80E
:10361000C492D9F80090DFF8C0A2DAF800A0002820
:1036200000F01581002900F012810A68022A06D1F3
:1036300091F82620002A02D15FF0000B03E0D1F8B8
:1036400004B0BBF1010B91F82420002A01D0012223
:1036500000E0002262F3104333F440436BF30303B2
:10366000022262F3196303600A7812F0030262F324
:103670001964046491F82520002A01D0012200E099
:10368000002262F38615CA7E002A01D0012200E0E2
:10369000002262F38A254A7E002A01D0012200E03E
:1036A000002262F308258A7E002A01D0012200E070
:1036B000002262F349258A6B521E12F00F0262F358
:1036C00013450A69521E12F00702ED08ED0015437A
:1036D0004A6962F304154A69520862F34515856424
:1036E0000A7B002A01D0012200E0002262F30826B2
:1036F0000A7E002A01D0012200E0002262F349265E
:103700008A68521E12F01F02760976011643C0F82D
:1037100000630A7F02F0FF023F0A3F02174391F85D
:10372000202002F0FF0262F31747C0F8107391F8EF
:103730002720002A01D0012200E0002262F3082C99
:103740000A69521E12F007025FEADC0C5FEACC0C39
:1037500052EA0C0C4A6962F3041C4A69520862F38B
:10376000451CC0F844C00A7B002A01D0012200E0B9
:10377000002262F3082E8A68521E12F01F025FEACE
:103780005E1E5FEA4E1E52EA0E0E0A68012A01D141
:10379000012200E0002262F3104EC0F800E291F82E
:1037A0003C2002F0FF025FEA18285FEA082852EA8C
:1037B0000808C0F8048391F82820002A01D00122CB
:1037C00000E0002262F35969CA6A012A01D101228C
:1037D00000E0002262F318694A6B012A01D101233B
:1037E00000E00023009A63F3104991F8303003F0B1
:1037F000FF035FEA19295FEA092953EA0909C0F8BA
:10380000509091F8443003F0FF035FEA1A2A5FEA10
:103810000A2A53EA0A0AC0F804A28B6CC0F8883F4F
:10382000096CC0F8C81F002A10D00020506000208A
:103830001060002090600020D06000201062002006
:10384000D06200201063DFF8940050630022100063
:10385000BDE8F28FDFF8881001605FF44011016469
:103860000021816440F20711C0F800130022C0F863
:1038700004230022C0F8102300224264C0F8001282
:103880000021C0F80412002101650021C0F8C81E03
:103890000021C0F8881E0021C0F8C81F0021C0F810
:1038A000881F0021C0F8081F0021C0F8481F70477A
:1038B0000160AA00E8960810EC960810F09608102F
:1038C000F4960810F8960810FC9608100097081057
:1038D00004970810089708100C970810EFCDAB005C
:1038E0000F00000330B40021234A1368234A1468F0
:1038F000002832D0224A1568C5F303250E2D0FD0BB
:103900001268C2F303220D2A28D1827812F00F0226
:103910002409240114430279002A15D0012214E05D
:10392000827812F00F021B091B0113430279002A4F
:1039300001D0012200E0002262F3DF73114AB0F9E6
:10394000000042F8203009E0002262F3DF740E4AE2
:10395000B0F9000042F8204000E00649080030BC01
:1039600070470A4B1A68002A03D01A6800B242F85E
:103970002010704701005600109708101497081087
:103980000000204000A0204000C02040EC0602289B
:1039900000B500BF130096469446103928BFA0E832
:1039A0000C50FAD85FEA417C28BF0CC048BF40F8F1
:1039B000042BC90728BF20F8022B48BF00F8012BB1
:1039C00000BD00002DE9F041BDF91850BDF91C60A3
:1039D000BDF92070BDF924C0BDF928E0DFF8384BEF
:1039E000DFF8388B00B200EE100AB8EEC00AD8ED4E
:1039F000000A80EE200A84ED030A09B200EE101AD4
:103A0000B8EEC00AD8ED000A80EE200A84ED040A60
:103A100012B200EE102AB8EEC00AD8ED000A80EE0D
:103A2000200A84ED050A1BB200EE103AB8EEC00A77
:103A3000D8ED010A80EE200A84ED000A2DB200EED6
:103A4000105AB8EEC00AD8ED010A80EE200A84EDC3
:103A5000010A36B200EE106AB8EEC00AD8ED010ACB
:103A600080EE200A84ED020A3FB200EE107AB8EE32
:103A7000C00AD8ED020A80EE200A0FFA8CFC00EE94
:103A800090CAF8EEE00A98ED021AC0EE810A0FFA29
:103A90008EFE01EE10EAB8EEC11AD8ED021A81EEE0
:103AA000211ADFF87C0AD0ED001A30EE610ADFF847
:103AB000740AD0ED001A20EE210A84ED060ADFF820
:103AC000680A90ED000A30EEC00ADFF8600AD0ED17
:103AD000000A20EE200A84ED070A84ED081ABDE8EA
:103AE000F081000080ED000AC0ED010A80ED021AAD
:103AF000C0ED031A80ED042AC0ED052AB7EE000AD6
:103B000080ED110A80ED100A80ED0F0A80ED0E0A9B
:103B100080ED0D0A80ED0C0A9FED0E0A80ED170A6C
:103B200080ED160A80ED150A80ED140A80ED130A67
:103B300080ED120A9FED070A80ED080A80ED070A62
:103B400080ED060A00214162002181620021C162EC
:103B5000704700000000000070B52DED108B90B094
:103B600004000D00F0EE40AAF0EE609AB0EE419A2B
:103B7000F0EE61FAB0EE42AAB0EE62CAF0EE43CACD
:103B8000B0EE63DAF0EE44DA68460021002200234A
:103B900080E80E009FED680B95ED081AB7EEC11A8C
:103BA00021EE001BB7EEC18B95ED071AB7EEC11AD7
:103BB00021EE000BF7EEC08B2AEEAA0A09EE090AE5
:103BC00000F0B6FCB0EE40EA29EEA90A09EE090AB7
:103BD00000F0AEFCF0EE40EA2AEEAA0A09EEA90ACD
:103BE00009EE090A00F0A4FCDFED550A30EE200AC8
:103BF000B0EEC0FA95ED059A9FED520AB4EE40EA98
:103C0000F1EE10FA23DBF4EE40EAF1EE10FA1EDBDF
:103C10009FED50BB6E4689EE8E0A00F099FCB7EE20
:103C2000C00A20EE0B0BB7EEC00B86ED020ABFEE0A
:103C3000000A2AEE800A80EE2E0A00F089FCB7EE18
:103C4000C00A20EE0B0BB7EEC00B86ED010A9FED0C
:103C50003E0AB4EE40FAF1EE10FA14DB9FED3B0A97
:103C60007FEE000AB1EE081AB7EE000A00EE810AF4
:103C7000DFED370AB4EE600AF1EE10FA01DBB2EEC6
:103C8000080A29EE009AB0EE680A00F06BFDF0EE2B
:103C9000409AB0EE480A00F065FDB0EE40BAB0EED2
:103CA000680A00F061FDF0EE40BAB0EE680A00F07C
:103CB0005BFD6CEEA9AA6DEE8B0A40EEABAA6DEE31
:103CC000009AB0EE480A00F04FFD49EE80AAB0EE2F
:103CD000480A00F047FD6DEE009AB0EE480A00F089
:103CE00043FD40EE6D9AF0EE690AB0EE6A0A00F00C
:103CF0003DFDB7EEC00A9FED172B20EE020BB7EE8D
:103D0000C00B8DED000A9DED000AD5ED060A30EEE0
:103D1000600ADFED120AB4EE600AF1EE10FA1FDB62
:103D20009DED000ADFED030A30EE200A8DED000A5A
:103D300030E000BF0000B4C3399D52A246DF913F7E
:103D4000C3F51CC1BE3786359B99193E9A9919BE99
:103D500001004041F8C1631ADCA54C400100344326
:103D60009DED000AD5ED060A30EE600ADFED050A8A
:103D7000B4EE600AF1EE10FA0CD59DED000ADFED0D
:103D8000020A03E0000034C30000B44330EE200A0E
:103D90008DED000AF0EE4C9ACDED03FAB0EE480A34
:103DA00000F0E0FCF0EE40AAB0EE680A00F0DAFCA9
:103DB000B0EE40BAB0EE480A00F0D6FCF0EE40BAE1
:103DC000B0EE680A00F0CEFCD5ED0B0A79EEE00A01
:103DD00060EEAA0AC0EE8B0A95ED0A1A3AEE411A75
:103DE00021EE2B1A81EE000A30EE800AD5ED000A92
:103DF00095ED061A00EE201A85ED061AB0EE480A77
:103E000000F0B0FCF0EE40AAB0EE480A00F0ACFCC6
:103E1000D5ED0A0A7AEE600A60EEAA0A95ED0B1A51
:103E200031EE691A41EE000A95ED000A95ED071A88
:103E300000EE801A85ED071AB0EE480A00F092FCF9
:103E4000F0EE40AAB0EE680A00F0C6FCB0EE40BA50
:103E5000B0EE680A00F0C0FCF0EE40BAB0EE480ADE
:103E600000F082FCDDED030A95ED091A70EEC10A3F
:103E70002AEE8B1AD5ED0B1A79EEE11A41EE210AE2
:103E80002BEE800A95ED0A1A3AEE411A40EE010A2D
:103E900095ED000A95ED081A00EE801A85ED081AD6
:103EA000D5ED0FAA95ED10BAD5ED11BAB0EE480ACE
:103EB00000F058FCB0EE40CAB0EE680A00F052FCC8
:103EC000F0EE40CAB0EE480A00F04CFCB0EE40DA2A
:103ED000B0EE480A00F046FCF0EE40DAB0EE680AB8
:103EE00000F040FCB0EE40EAB0EE680A00F03AFCA8
:103EF000D5ED0C0A95ED011A70EE810A95ED171AB1
:103F0000D5ED001A21EE211A21EE0C1A81EE2C1AA1
:103F100070EEC10A95ED001A21EE0D1AD5ED111AB9
:103F200095ED002A61EE821A61EEAD1AC1EE8E1A8D
:103F300095ED172A72EE611A21EE211A81EE000A20
:103F400030EEC00A85ED0C0AB0EE480A00F00AFC1B
:103F5000B0EE40CAB0EE480A00F004FCF0EE40CAF1
:103F6000B0EE480A00F000FCB0EE40DAB0EE480ACD
:103F700000F0FAFBF0EE40DAB0EE480A00F0F2FB97
:103F8000B0EE40EAB0EE480A00F0EEFBD5ED0D0AC7
:103F900095ED021A70EE810A95ED101AD5ED001A12
:103FA00021EE211A21EE2C1AD5ED151A31EE611AE7
:103FB000D5ED001A61EE8C1A41EE210A95ED001A3A
:103FC00021EE0D1AD5ED111A95ED002A61EE821A37
:103FD00095ED162A01EEAD2A41EE020A95ED151A6D
:103FE000D5ED001A21EE211A41EE4E0A95ED161A72
:103FF000D5ED001A21EE211A41EE000AC5ED0D0A99
:10400000B0EE680A00F0E8FB8DED060AB0EE480A53
:1040100000F0AAFB8DED050AB0EE680A00F0DCFBAB
:104020008DED040AB0EE480A00F09EFBF0EE40FA77
:10403000B0EE480A00F096FBB0EE40CAB0EE680A57
:1040400000F0CAFBF0EE40CAB0EE680A00F0C4FB14
:10405000B0EE40DAB0EE480A00F086FBF0EE40DA4F
:10406000B0EE480A00F07EFBB0EE40EAB0EE680A1F
:1040700000F0B2FBF0EE40EAB0EE480A00F072FB4E
:10408000B0EE40FAB0EE680A00F0A6FBD5ED0E0ADD
:1040900095ED021A70EE810A95ED121AD5ED001A0F
:1040A00041EE610A95ED0F1AD5ED001A21EE211AA5
:1040B000D5ED121A31EE611AD5ED001A41EE210A42
:1040C00095ED101AD5ED001A21EE211ADDED041A36
:1040D00021EE211A21EE2F1AD5ED131A31EE611AB5
:1040E000D5ED001A9DED062A61EE821A9DED052A96
:1040F00061EE821A41EE210A95ED141AD5ED001AEF
:1041000021EE211A21EE0C1A41EE6C0A95ED131ADC
:10411000D5ED001A21EE211A21EE0D1A41EE6D0A9D
:1041200095ED111AD5ED001A21EE211A21EE0F1A84
:1041300021EE000A95ED141A30EE410A95ED001AB1
:1041400021EE0E1A21EE2E1A40EE010AC5ED0E0ADE
:1041500095ED0F0AD5ED030A30EE200A85ED0F0A22
:1041600095ED100AD5ED030A30EE200A85ED100A10
:1041700095ED110AD5ED030A30EE200A85ED110AFE
:10418000B0EE480A00F0EEFAB0EE40CAB0EE680AAF
:1041900000F0E8FAD5ED000A6BEEA00A60EE8C0A9A
:1041A00080EE800AD5ED170A30EEC00A85ED170AB9
:1041B000B0EE480A00F0D6FAD5ED000A6BEE200A00
:1041C00095ED151A00EEC01A85ED151AB0EE480AE5
:1041D00000F0CAFAD5ED000A6BEEA00A95ED161AAA
:1041E00000EE801A85ED161A95ED000AD5ED120A3B
:1041F0004AEEC00AC5ED120AB0EE680A00F0ECFA09
:10420000F0EE40AAB0EE480A00F0AEFAD5ED000A92
:104210006BEE200A60EEAA0A95ED131A00EEC01AA2
:1042200085ED131AB0EE480A00F09CFAB0EE408A11
:10423000B0EE680A00F0D0FAD5ED000A6BEEA00AE5
:1042400060EE880A95ED141A00EEC01A85ED141A76
:104250009DED000AD5ED060A30EE600A8DED070AE5
:1042600007A9684690ED010AD5ED070A30EE600A0D
:1042700081ED010A90ED020AD5ED080A30EE600AE0
:1042800081ED020A95ED0C0AD5ED040A30EE200A04
:10429000D5ED0C0A80EE800AD5ED0D0A70EE890A84
:1042A00095ED0D1AC1EE200A95ED0E1A31EE091AA0
:1042B000D5ED0E1A81EE811AD5ED0E1A71EE891A1E
:1042C00095ED122AC2EE211A95ED0D2A32EE092A39
:1042D000D5ED152A82EE822AD5ED0E2A72EE892AB4
:1042E00095ED133AC3EE222A95ED0C3AD5ED043A3A
:1042F00033EE233AD5ED173A83EE833AD5ED0D3AF6
:1043000073EE893A95ED164AC4EE233A95ED0E4ABE
:1043100034EE094AD5ED144A84EE844ADDED074AAD
:1043200095ED065A00EE245A85ED065AD1ED014A64
:1043300095ED075A00EEA45A85ED075AD1ED024AD1
:1043400095ED085A01EE245A85ED085AD1ED024A3E
:1043500095ED095A01EEA45A85ED095AD1ED014AAD
:1043600062EE244A91ED025A42EE854A95ED0A5AD0
:1043700074EE854AC5ED0A4ADDED074A63EE244A2C
:1043800091ED015A43EE854A91ED025A44EE054AF9
:1043900095ED0B5A74EE854AC5ED0B4AD5ED0C4AE6
:1043A00095ED0C5A04EEC05A85ED0C5AD5ED0D4A28
:1043B00095ED0D5A04EEE05A85ED0D5AD5ED0E4AF5
:1043C00095ED0E5A04EEC15A85ED0E5AD5ED124AFE
:1043D00095ED0F5A04EEE15A85ED0F5AD5ED151AF9
:1043E00062EE211A95ED132A42EE821A95ED102AFB
:1043F00072EE611AC5ED101AD5ED171A63EE211A87
:1044000095ED162A43EE821A95ED142A44EE021A0F
:1044100095ED112A72EE611AC5ED111AD5ED171A34
:1044200095ED172A01EEC02A85ED172A95ED150A9C
:10443000D5ED151A40EE601AC5ED151A95ED160A60
:10444000D5ED161A40EE601AC5ED161A95ED120A52
:10445000D5ED120A40EE410AC5ED120A95ED130A98
:10446000D5ED130A40EE410AC5ED130A95ED140A85
:10447000D5ED140A40EE410AC5ED140A95ED060A81
:10448000DFED210AB4EE600AF1EE10FA08DB95EDDB
:10449000060ADFED1E0A30EE200A85ED060A10E05E
:1044A00095ED060ADFED1A0AB4EE600AF1EE10FA95
:1044B00007D595ED060ADFED170A30EE200A85EDE7
:1044C000060AA8690A90E8690B90286A0C909DED8D
:1044D000030AD5ED090A30EE600A8DED0D0A95ED5F
:1044E0000A0A3AEE400A8DED0E0A95ED0B0A39EEF6
:1044F000C00A8DED0F0A20000AA91822FCF7DEFD84
:1045000010B0BDEC108B70BD010034430000B4C38B
:10451000000034C30000B443180C02284C070228E2
:104520001007022818070228140702281C0702286F
:10453000B5EEC00AF1EE10FA02D4B1EEC00A70472F
:104540006FF0004C00EE10CAAFF30080704700001F
:1045500010EE101AC1F3C752DAB1992A0FDAC80F58
:1045600021F0004100EE101AB1F17E5F40F30682A7
:10457000F7EE000A80EE800A001D00F0FFB9FF2A66
:1045800001D14A0205D1034AC90F42EAC17100EEC6
:10459000101A7047DB0FC93FDFED620A60EE200A98
:1045A00010EE902A22F0004101EE101ADFED5E1AA3
:1045B000B4EE611AF1EE10FA25D54FF07C5102F0FD
:1045C00000420A4301EE102A71EE200AFDEEE00AD5
:1045D00010EE901A00296AD0FAEEC90A9FED531A1C
:1045E00000EE810ADFED521A00EEA10A9FED512A7A
:1045F00000EE820ADFED502A00EEA20A9FED4F1A6C
:1046000000EE810A53E010EE101A4B001B1613F156
:10461000010F0AD14900081610F1010F02D1090259
:1046200040F07F809FED460A7047490004D1002882
:1046300077D0B7EE000A70474FF07C5102F000428D
:104640000A4301EE102A71EE200A10EE902A510062
:104650000DD0090EC1F196011829A8BF02F0004241
:1046600003DA0029C4BFCA408A4000EE902A10EE47
:10467000901A490017D09FED331A20EE811ADFED12
:104680002B1A01EE210A9FED2A2A01EE020ADFED24
:10469000292A01EE220A9FED283A01EE030ADFEDF6
:1046A000271A01EE210AFDEEE00A10EE901A01F041
:1046B0000301081810EE101A21F0004100EE901AC4
:1046C0009FED211AF4EE410AF1EE10FA04D5C1076C
:1046D00023D5B7EE000A20E0C10760EE000A0ED530
:1046E0009FED1A0A9FED1A1A00EE801ADFED191AD3
:1046F00041EE201AB7EE000A01EEA00A0DE09FED90
:10470000162ADFED161A40EE821ADFED152A20EE8A
:10471000201A41EEA02A01EE220A800748BFB1EE1E
:10472000400A704783F9223F0000004F0000C9C6CD
:1047300000A0FDC00020A2BA000034B30030C2AE19
:10474000FFFFFF7F00008038000080399349B2BA34
:1047500036A02A3DDFFFFFBE6E8C4CB94283083C79
:10476000A1AA2ABE012017E7002015E752EC101A73
:10477000B0EEC00AC80F49005200F0EEE00A28BFB0
:104780000C3011F1807F38BF12F1807F0CD28A4249
:1047900038BF80F00400124214D034BF80EE800A8B
:1047A00080EE200A00F0EAB811F1807F08BF80F0A7
:1047B000040098BF12F1807F08D88A4214BF0022FB
:1047C0004FF07E5200EE102A00F0D8B86FF0004192
:1047D00000EE101A70470000DFED5B0A60EE200A61
:1047E00010EE901A21F0004001EE100ADFED571A8A
:1047F000B4EE611AF1EE10FA25D54FF07C5001F0BD
:104800000041014301EE101A71EE200AFDEEE00AAC
:1048100010EE900A002864D0FAEEC90A9FED4C1AF7
:1048200000EE810ADFED4B1A00EEA10A9FED4A2A45
:1048300000EE820ADFED492A00EEA20A9FED481A37
:1048400000EE810A4DE010EE100A4200121612F13D
:10485000010F09D14000011611F1010F01D1000231
:1048600070D19FED400A704740006BD04FF07C50F4
:1048700001F00041014301EE101A71EE200A10EE22
:10488000901A48000DD0000EC0F196001828A8BF5D
:1048900001F0004103DA0028C4BFC140814000EEAE
:1048A000901A10EE900A400017D09FED2F1A20EEBC
:1048B000811ADFED271A01EE210A9FED262A01EE6B
:1048C000020ADFED252A01EE220A9FED243A01EECD
:1048D000030ADFED231A01EE210AFDEEE00A10EED5
:1048E000900A10EE101A21F0004100EE901A9FED90
:1048F0001F1AF4EE410AF1EE10FA00F0030006D59B
:10490000C0071FD5FFEE000A80EE800A704720EE38
:10491000001ADFED171A9FED172A01EE212AF7EE94
:10492000000A42EE010A20EE011ADFED132AC00749
:1049300001EE220A04D580EE800AB1EE400A7047EB
:1049400080EE200A704700BF83F9223F0000004F2D
:104950000000C9C600A0FDC00020A2BA000034B308
:104960000030C2AEFFFFFF7F0000803800008039BA
:104970006D161F3C1EB5DBBE8329C4BD1AA210EE06
:10498000101A43F2A40CC3F6896CF2EC060A6145D6
:1049900009DB00EE803A70EE800A83EE200A40F0D8
:1049A000020010EE101A4900D1F1E6410BD860EE7A
:1049B000000A20EE203A03EE010A01EEA02A42EEA0
:1049C000202A80EE220A400810F0020F18BFB1EE34
:1049D000400A02EB8002D2ED000A30EE200A28BF26
:1049E000B1EE400A70470000D7B3DD3F6AD5033F00
:1049F0002B94A93DB82A593F0000803F000080BF9A
:104A000000000000920A063FDB0FC93F920A863F72
:104A1000DB0FC93F920A0640DB0F4940368D274025
:104A200010B5DFF8C043200000F05BFDDFF8B803ED
:104A300090ED001ADFF8B403D0ED000ADFF8B00300
:104A400090ED000A200000F065FDDFF8A84320008B
:104A500000F047FDDFF8A00390ED001ADFF89C039B
:104A6000D0ED000ADFF8980390ED000A200000F076
:104A700051FDDFF89043200000F033FDDFF888039C
:104A800090ED001ADFF88403D0ED000ADFF8800310
:104A900090ED000A200000F03DFDDFF87843200093
:104AA00000F01FFDDFF85C0790ED001ADFF85807F3
:104AB000D0ED000ADFF8540790ED000A200000F066
:104AC00029FDDFF84C47200000F00BFDDFF844071C
:104AD00090ED001ADFF84007D0ED000ADFF8D408A7
:104AE00090ED000A200000F015FD10BDE0B5FFF7C5
:104AF00097FF6A4601A9DFF8D008D0ED000ADFF879
:104B0000CC0890ED000A002000F062FF00990198A7
:104B100000F0FDFF07BD000000EE901AF8EEE00A7D
:104B200030EE600A80ED010A90ED020AD0ED010A34
:104B300030EE200A80ED020A90ED020ADFED820AD3
:104B4000B4EE600AF1EE10FA01DBA44981609FED3A
:104B50007F0AD0ED020AF4EE400AF1EE10FA01D518
:104B600080ED020A9F4991ED000AD0ED010A20EE86
:104B7000200AD1ED010A90ED021A00EE810A80EDC3
:104B8000000A90ED000ADFED860AB4EE600AF1EE4D
:104B900010FA02DBDFF838180160B9EE080AD0ED30
:104BA000000AF4EE400AF1EE10FA01D580ED000A99
:104BB00090ED000A7047000010B52DED028BDFF874
:104BC0000008D0ED001A31EE811A31EE408AF1EE84
:104BD000608ADFF8004894ED000A30EE080A84EDA0
:104BE000000A9FED701ADFED700A94ED000A00F0E4
:104BF00067FC84ED000A7F4890ED000A20EE480A29
:104C0000D0ED010A94ED001A00EEC10AD0ED020ABF
:104C100008EEA00ADFF8C00780ED008ADFED630A26
:104C2000B4EE600AF1EE10FA01DB9FED610ADFEDF0
:104C3000610AB4EE600AF1EE10FA01D5B0EE600A36
:104C4000BDEC028B10BD000030EE600ADFF88C076F
:104C5000D0ED000A70EE800AC0ED000AD0ED000A27
:104C60009FED551AF4EE410AF1EE10FA02DBDFF87F
:104C700070170160DFED510A90ED001AB4EE601A72
:104C8000F1EE10FA01D5C0ED000ADFF85817D1EDAA
:104C9000000A70EE600ADFF82C2792ED001A21EE70
:104CA000001AD2ED011A90ED002A01EE821AD2ED1F
:104CB000021A01EEA01A81ED000AB1EE410A704716
:104CC000010041F64170814202DB4FF4FA5004E0EA
:104CD000DFF81407814200DB0800704730EE600AFD
:104CE00003E0DFED370A30EE200ADFED360AB4EEDE
:104CF000600AF1EE10FAF4DADFED330AB4EE600A7E
:104D0000F1EE10FA04D5DFED310A30EE200AF3E7B8
:104D100070470000DFED2E0AB4EE600AF1EE10FAE3
:104D200004DBDFED270A30EE200A0AE0DFED290A76
:104D3000B4EE600AF1EE10FA03D5DFED240A30EE8E
:104D4000200AB1EE400A70470100FA440000FAC49C
:104D500080B52DED028BB0EE408AB0EE600AFFF711
:104D6000D9FFF0EE480AFFF7B9FFB7EEC01AB0EE70
:104D7000C11BB7EE083BB4EE431BF1EE10FA02D5AF
:104D80009FED150A08E01F4800F0CBFB9FED131ABA
:104D9000DFED130A00F094FBBDEC028B01BD0000B7
:104DA0000100C04000007A4400007AC401409C45E4
:104DB00000409C4500409CC50180BB440080BBC4B2
:104DC0000000B4C301003443000034C30000B44306
:104DD00000003443FFFF33C3000000000000FA442A
:104DE0000000FAC4980C0228F40E0228F00E0228E3
:104DF000EC0E0228C80C0228000F0228FC0E022824
:104E0000F80E0228F80C0228240F0228200F02288E
:104E10001C0F0228280D02282DE9F0412DED028BF0
:104E2000DFF8F84394ED000ADFEDB90A30EE208A8E
:104E3000DFF8B815087800280AD0DFF8B405007844
:104E4000002805D0A06ADFF8AC25106000200870AB
:104E5000DFF8A45594ED0C0ADFF8A005D0ED000AA8
:104E600030EE600A85ED000ADFF89405006801283D
:104E70001ED19FEDE31ADFEDE20A9FEDE10ADFF8B4
:104E8000840500F047FB9FEDDE1ADFEDDD0A9FEDA4
:104E9000DC0ADFF8740500F03DFB9FEDD91ADFED69
:104EA000D80A9FEDD70ADFF81C0500F033FB3CE081
:104EB000DFF8580590ED001ADFF85405D0ED000A30
:104EC000DFF8500590ED000ADFF8380500F022FB0E
:104ED000DFF8440590ED001ADFF84005D0ED000A38
:104EE000DFF83C0590ED000ADFF81C0500F012FB2E
:104EF000C44890ED001AC448D0ED000AC34890EDB4
:104F0000000ADFF8C00400F005FBDFF8180590ED9B
:104F1000001ADFF81405D0ED000ADFF8100590ED57
:104F2000000ADFF80C0500F0F5FADFF8081508783C
:104F3000401C0870DFF800050278521C02700A78E5
:104F4000052AC0F2AF8000220A70DFF8F014DFF803
:104F5000F024B2F910305B4200EE103AB8EEC00A0D
:104F600081ED000ADFF8DC64B2F91220524200EE53
:104F7000102AB8EEC00A86ED000A91ED000AD6EDBF
:104F8000000A30EE600AF0EE000A80EE200ADFF838
:104F9000B82482ED000A0278142A67DB002202702E
:104FA000DFF8A80490ED000AB5EE400AF1EE10FA21
:104FB0002EDDDFF89C74DFF89C8498ED000AD7EDB5
:104FC000000A30EE600AD1ED000AFDEEE00A10EEB4
:104FD000901ADFF88404FFF79FFDDFF8800480ED6E
:104FE000000A98ED000AD7ED000A30EE200AD6ED4F
:104FF000000AF1EE600AFDEEE00A10EE901ADFF80A
:105000006004FFF789FDDFF85C0480ED000A2DE005
:10501000DFF83C74DFF83C8498ED000AD7ED000A15
:1050200030EE200AD1ED000AFDEEE00A10EE901AF3
:10503000DFF82404FFF770FDDFF8200480ED000A9C
:1050400098ED000AD7ED000A30EE600AD6ED000AAE
:10505000F1EE600AFDEEE00A10EE901ADFF80004AF
:10506000FFF75AFDDFF8FC0380ED000ADFF8EC03E0
:1050700090ED001AF0EE480A95ED000AFFF79CFD4E
:10508000DFF8E40380ED000ADFF8D80390ED001AA2
:10509000F0EE480A95ED000AFFF78EFDDFF8CC032D
:1050A00080ED000ADFF8C053F0EE480A95ED000AE3
:1050B000B1EE400AFFF7C8FDF0EE408ADFF8AC63BE
:1050C000F0EE480A96ED000AB1EE400AFFF7BCFD8B
:1050D000B0EE408ADFF898030068012808D0DFF8B6
:1050E000740390ED000AB5EE400AF1EE10FA11D10A
:1050F000BDEEE80A10EE100ADFF878130880BDEE66
:10510000C80A10EE100ADFF8701308803EE000BFF6
:1051100048E1FABEDFF86473DFF8D802D0ED000A88
:1051200094ED0A0AFFF714FE87ED000ABDEEE80AC7
:1051300010EE100A00B200EE100AB8EEC00AD7ED69
:10514000000AB7EE001A70EE810A20EE200ABDEECA
:10515000C00A10EE100ADFF81C130880BDEEC80A62
:1051600010EE100A00B200EE100AB8EEC00AF7EE18
:10517000000A97ED001A70EEC10A20EE200ABDEE7B
:10518000C00A10EE100ADFF8F0120880DFF8E442DF
:10519000B4F90000FFF794FD00B240422080DFF830
:1051A000D872B7F90000FFF78BFD3880DFF8D00226
:1051B000DFF8A81209680160DFF8C802DFF8A4125E
:1051C00009680160DFF8C00229680160DFF8BC02ED
:1051D00031680160DFF8B802C0ED008ADFF8B40280
:1051E00080ED008AB7F90010494209B2B4F9000015
:1051F000404200B200F0D1FDBDEC028BBDE8F08171
:10520000000000000C0F0228080F0228040F0228DB
:10521000580D0228180F0228140F0228180C022813
:10522000F8B584B004000D00B7EE000A002000209D
:105230009FED5E1ADFED5E0A94ED000A00F040F982
:1052400084ED000A9FED5C1ADFED5C0A95ED000A23
:1052500000F036F985ED000A8F48216801608F481B
:10526000296801608E4E29683160784900220A6001
:1052700001218C4A117002AA03A9D0ED000A94ED15
:10528000000A002000F0A4FB6A4601A9D6ED000A3E
:1052900094ED000A012000F09BFB83490878002868
:1052A0000DD00398814A10600298814A10600198DD
:1052B000804A10600098804A1060002008707F4883
:1052C0007A4D9DED030AB8EEC00AD0ED000A20EE3B
:1052D000200AD5ED000AF8EEE00AB7EE001AD0ED8C
:1052E000001A31EE611A00EE810ABDEEC00A8DEDA2
:1052F000030A6F4E9DED020AB8EEC00AD0ED000A17
:1053000020EE200AD6ED000AF8EEE00AB7EE001A09
:10531000D0ED001A31EE611A00EE810ABDEEC00A2E
:105320008DED020A634F9DED010AB8EEC00AD0ED83
:10533000000A20EE200AD7ED000AF8EEE00AB7EEE8
:10534000001AD0ED001A31EE611A00EE810ABDEEAE
:10535000C00A8DED010A584C9DED000AB8EEC00A56
:10536000D0ED000A20EE200AD4ED000AF8EEE00AA3
:10537000B7EE001AD0ED001A31EE611A00EE810A84
:10538000BDEEC00A8DED000A0299039800F02BFCD7
:105390000099019800F05BFC039828600298306047
:1053A000019838600098206005B0F0BDCDCC4C3D30
:1053B000CDCC4CBD100F0228295C0F3ECDCCCC3C8F
:1053C000E40E0228280D022848070228E80E0228C9
:1053D0000000C040880E0228740E02288C0E02289D
:1053E0000080BB44780E0228C0E0FFFFE2070228DD
:1053F0006F0F0228E00E02287C0E022844070228C4
:10540000800E0228980C0228C80C0228F40E0228EC
:10541000F00E0228EC0E0228000F0228FC0E0228D3
:10542000F80E0228240F0228200F02281C0F022841
:10543000F80C0228700F0228710F0228440E02286F
:10544000F80D0228480E0228400E02284C0E0228B1
:10545000D80E0228DC0E0228200E0228540E022844
:105460002C0E0228580E0228900E0228940E0228B4
:10547000840E0228580F02285A0F0228500E0228C4
:105480005C0E0228600E0228640E0228680E0228B4
:105490006C0E0228700E0228980E02289C0E02281C
:1054A000A00E0228E4070228E3070228A40E02281F
:1054B000A80E0228AC0E0228B00E02284897081049
:1054C000B4EE600AF1EE10FA02D5B0EE600A07E021
:1054D000B4EE401AF1EE10FA02D5B0EE410AFFE741
:1054E000704700210160002141600021816000219E
:1054F000C160002101610021416100218161002121
:10550000C16100210162002141620021816200210C
:10551000C162704780ED000AC0ED010A80ED021AF9
:10552000704710B52DED028B0400B0EE408A94ED6B
:10553000080A30EE080A84ED080A94ED031A94ED87
:10554000030AF1EE400A94ED080AFFF7B9FF84ED73
:10555000080A94ED000A20EE080A84ED040A94ED8E
:10556000010AD4ED080A20EE200A84ED050A94ED24
:10557000090A38EE400AD4ED020A20EE200A84ED32
:10558000060A84ED098A94ED040AD4ED050A30EE8A
:10559000200AD4ED060A30EE200A84ED070A94EDC5
:1055A000070ABDEC028B10BD03E0DFEDA20A30EE6E
:1055B000200ADFEDAA0AB4EE600AF1EE10FAF4DA7E
:1055C000B5EE400AF1EE10FA02D530EE200AF7E708
:1055D0007047000080B5FFF7E7FFDFED970AB4EEF4
:1055E000600AF1EE10FA03DBDFED920A30EE200ADA
:1055F00001BDB5EE400AF1EE10FA01DAB1EE400A53
:10560000704780B530EE600AFFF7E4FFFFF7F1FF67
:1056100001BD000038B52DED048BB0EE601A04001A
:105620000D00B7EEC00A9FED853B30EE030BF7EEA1
:10563000C01B9FED842BB0EE000A61EE800AB7EE2E
:10564000E03A23EE023BF7EEC30B21EE000AB7EE81
:10565000C03A23EE022BB7EEC20B61EEA11A41EE67
:10566000011AB7EEE11A9FED793B31EE031B9FED76
:10567000793B31EE031BB7EEC18B60EEA08A40EEA2
:10568000008AB0EE681A08EE481AB5EE401AF1EE3C
:1056900010FA04D4F5EE408AF1EE10FA01D8002099
:1056A00028E0FFF763F8B0EE409AB0EE680AFEF724
:1056B0003FFF88EE000A00F0D5FBF0EE409A9FED28
:1056C000C18B39EE290AB7EEC00A20EE080BB7EEFF
:1056D000C00BFFF769FF84ED000A39EE690AB7EEE7
:1056E000C00A20EE080BB7EEC00BFFF75DFF85ED9B
:1056F000000A0120BDEC048B32BD000038B52DED51
:10570000048BB0EE601A04000D00B7EEC00A9FEDE6
:10571000AA3B30EE030BF7EEC01B9FED4A2BB0EE19
:10572000000A61EE800AB7EEE03A23EE023BF7EEA4
:10573000C30B21EE000AB7EEC03A23EE022BB7EE00
:10574000C20B61EEA11A41EE011AB7EEE11A9FED0C
:105750003F3B31EE031B9FED3F3B31EE031BB7EEAA
:10576000C18B60EEA08A40EE008AB0EE681A08EEA7
:10577000481AB5EE401AF1EE10FA04D4F5EE408A5C
:10578000F1EE10FA01D8002028E0FEF7EFFFB0EEAE
:10579000409AB0EE680AFEF7CBFE88EE000A00F0F1
:1057A00061FBF0EE409A9FED878B39EE690AB7EE08
:1057B000C00A20EE080BB7EEC00BFFF70BFF84ED1D
:1057C000000A39EE290AB7EEC00A20EE080BB7EE40
:1057D000C00BFFF7FFFE85ED000A0120BDEC048B36
:1057E00032BD0000DFED760AB4EE600AF1EE10FA89
:1057F00008DBDFED760AB4EE600AF1EE10FA01D5AF
:10580000012000E00020C0B270470000DFEDA60AD2
:10581000B4EE600AF1EE10FA08DBDFEDA40AB4EE94
:10582000600AF1EE10FA01D5012000E00020C0B2BC
:10583000704700000000B4C301003443DBF97E6A06
:10584000BC74933FB81E85EB51B8AE3F92CB7F48F6
:10585000BF7D6D3F82E2C798BB9680BF0000B44316
:1058600038B52DED048BF0EE408AB0EE609AB0EEC4
:10587000418A0500B0EE680AFFF7B4FF0400B0EEFD
:10588000490AFFF7AFFF50EA0401002901D10020C7
:1058900027E0002C05D0002803D1C5ED008A0120A7
:1058A0001FE0002C05D1002803D085ED009A0120CF
:1058B00017E0F0EE480AB0EE680AFFF7A2FEF0EE3D
:1058C000409AF0EE480AB0EE490AFFF79AFEB4EEAD
:1058D000690AF1EE10FA01DAF0EE498AC5ED008AA4
:1058E0000120BDEC048B32BD38B52DED048BB0EE3C
:1058F000409AB0EE608AF0EE418A0500B0EE490AA7
:10590000FFF784FF0400B0EE480AFFF77FFF50EA7C
:105910000401002901D1002023E0002C05D000283B
:1059200003D185ED009A01201BE0002C05D1002851
:1059300003D085ED008A012013E039EE680AFFF7F5
:1059400058FEF0EE409A38EE680AFFF752FEB4EEC9
:10595000690AF1EE10FA01DAB0EE489A85ED009A84
:105960000120BDEC048B32BDDFED510A30EE200A80
:10597000DFED500A80EE200ADFED4F0A9FED4F1A4F
:1059800000EE201ABDEEC10A10EE100A70470000AA
:10599000DFED4B0A30EE200ADFED460A80EE200AEA
:1059A000DFED450A9FED451A00EE201ABDEEC10A53
:1059B00010EE100A70470000DBF97E6ABC7493BFDA
:1059C0000000C642F8C1631ADCA54C400180824346
:1059D00070B52DED028B86B0B0EE408AF0EE608A95
:1059E0000D001400002D01D0002C00D158E0010062
:1059F000C9B2002909D00100C9B2012905D0FA2095
:105A0000286040F2EE2020604AE02E49C0B200013A
:105A100001EB000604A905A8F0EE680AB0EE480AFA
:105A2000FFF7F8FD002809D002A903A8F0EE680AE4
:105A3000B0EE480AFFF762FE002804D13068286003
:105A4000706820602CE001A896ED021ADDED040AD2
:105A50009DED050AFFF704FF00280AD0684696ED81
:105A6000031ADDED020A9DED030AFFF73DFF002852
:105A700004D1306828607068206011E09DED010A53
:105A8000FFF772FF28609DED000AFFF781FF20609D
:105A900028683060206870600198B0600098F060FD
:105AA00006B0BDEC028B70BD0000A2C20100A24294
:105AB0000000B4C20000344300007A4400007A437E
:105AC0000000B442F0060228704740F2DC51081A88
:105AD000704740F2CF41884202D340F2CE4003E00B
