:020000041008E2
:10000000000008281990081049970810DD9408107E
:100010004D970810519708105597081000000000E0
:100020000000000000000000000000009195081092
:1000300059970810000000005D970810619708109C
:100040009F8E0810C58E0810EB8E0810118F0810B7
:10005000378F08105D8F0810838F0810A98F081044
:1000600065970810699708106D9708107197081028
:1000700075970810799708107D97081081970810D8
:1000800040F0200070472DE9F14FB0B09246049146
:100090000DF142013A9A2B9199464A7000200AE0EC
:1000A0001AF8011B0498309A90470028049000F039
:1000B00034860D98401C0D909AF8000050B1252808
:1000C000EED1002100220791089209910A920B912A
:1000D0000C9204E00D9800F022BE41F001011AF8E4
:1000E000010F2028F9D023280CD02B2804D02D284C
:1000F00005D0302809D00BE041F00201EFE741F0D4
:100100000401ECE741F00801E9E741F01001E6E7FE
:100110002A280FD1D9F8002052F8040BC9F8002082
:1001200000280F9003D540420F9041F004010AF1DE
:10013000010A14E00F92DFF8EC3B0AE00F989842B6
:1001400005DA00EB800402EB4402303A0F920AF128
:10015000010A9AF80020A2F130000A28EED39AF89A
:1001600000002E2803D04FF0FF320E9229E01AF83B
:10017000010F2A2809D1D9F8000050F8042BC9F83A
:1001800000000E920AF1010A1BE02D280CBF0AF1B3
:10019000010A002000220E92DFF8884B0BE040B9E4
:1001A0000E9AA24205DA02EB820503EB4503303BCF
:1001B0000E930AF1010A9AF80030A3F130020A2ADC
:1001C000EDD3ADF840100FF660309AF8001000F053
:1001D000EDFE08B11AF8010B8DF842009DF84200BF
:1001E000682805D19AF8000068280CD1622106E041
:1001F0006C2804BF9AF800006C2804D171218DF896
:1002000042100AF1010A12A806901AF801BBBBF1CC
:1002100025012CD01C3900F09481091F022940F2DD
:100220009081133900F0AB84093900F08A81891E6E
:1002300000F04085491E00F0ED84491E022940F27D
:100240008081091F00F0E684491F00F0EF80491EFD
:1002500000F09584491E00F0D780C91E0CD0891E7D
:1002600000F08D84C91E00F08A8400F02EBD0123A9
:100270000793252100F026BDD9F8000050F8044B63
:10028000C9F80000002C059440F0AB802B99487809
:10029000002800F0A1804FF0FF340FF6942000F00A
:1002A00095FE241A40F0398500F01BBD01236A46F3
:1002B00002A9304600F000FE002840F02E85641EA2
:1002C000F4D13096079C12AF74B1309E17F8011B21
:1002D0000498B0470028049000F01F850D98401C3A
:1002E000641E0D90F2D130960A9C3021002C8DF8BE
:1002F00000100CDD309E01236A4602A9304600F052
:10030000DBFD002840F00985641EF4D13096059F7E
:10031000089C74B1309E17F8011B0498B047002860
:10032000049000F0FA840D98401C641E0D90F2D1E8
:1003300030960B9C3021002C8DF800100CDD309E87
:1003400001236A4602A9304600F0B6FD002840F0BD
:10035000E484641EF4D1309605980899099C4718E6
:1003600074B1309E17F8011B0498B0470028049020
:1003700000F0D3840D98401C641E0D90F2D130968D
:100380000C9C3021002C8DF800100CDD309E0123D8
:100390006A4602A9304600F08FFD002840F0BD8477
:1003A000641EF4D130969DF8400041077FF584AE7D
:1003B0002020002D8DF800007FF77EAE309C0123B9
:1003C0006A4602A9204600F077FD002840F0A58487
:1003D0006D1EF4D130946FE60FF63C30059000F0BE
:1003E00080BC0E9D002D04D5204600F00FFE044673
:1003F00007E02A46204600F025FE002814BF041B13
:100400002C46089400F06DBCD9F8001051F8040B8C
:10041000C9F8001020F00004002121F0FF35CDE9DB
:10042000024512AB0593782100F040BC2B99487827
:1004300020B14FF0FF340FF6B02030E79DF84200B6
:10044000622860D0682817D06A283FD06C2806D070
:10045000712847D074282CD07A281DD062E0D9F8B2
:10046000001051F8040BC9F80010002866D14FF0B5
:10047000FF340FF68C2012E7D9F8001051F8040B66
:10048000C9F8001020B94FF0FF340FF6742006E7CA
:100490000D99018000F025BCD9F8001051F8040B2B
:1004A000C9F80010002849D14FF0FF340FF6502052
:1004B000F5E6D9F8001051F8040BC9F8001000282F
:1004C0003CD14FF0FF340FF63820E8E6D9F80010A1
:1004D00051F8040BC9F8001080B94FF0FF340FF643
:1004E0002020DCE6D9F8001051F8040BC9F8001000
:1004F00020B94FF0FF340FF60820D0E60D9AD3173D
:10050000C0E90023EDE3D9F8001051F8040BC9F855
:10051000001020B94FF0FF340FF6E410BFE60D993C
:100520000170DEE3D9F8001051F8040BC9F800108F
:1005300020B94FF0FF340FF6C810B0E60D990160F6
:10054000CFE39DF842004C2807BFD9F80010CA1D20
:10055000D9F80000C21D22F00702C9F80020D2E934
:1005600000010832C9F80020CDE90201C80F02D00D
:1005700007982D210AE0BDF84000810702D50798B1
:100580002B2103E0C00705D50798202112AA11549A
:10059000401C079012A807994BF0200300EB010CB8
:1005A000DDE90201CDE92C01612BCDF814C021ACAD
:1005B0000BD00E98002848BF062105D404BF4BF08D
:1005C0002000672801D101210E91DDE902014F00D1
:1005D00047EAD0777E15FF174FF0FF32974208BFEA
:1005E000964210D1090341EA10510003002908BFC7
:1005F000002808D0ABF1610503211A2D089118D30A
:100600000FF61C1110E0DDE902014A00521512F14B
:10061000010F11D108030FD1ABF1610503211A2D90
:1006200008911FD30FF600110322604600F036FD3B
:1006300057E30FF6E801F7E7DDE902016A4600F04B
:1006400081FDCDE902014BF02000612811D1059810
:1006500030210170821C0592BBF1610F0CBF782123
:10066000582102E00FF6BC01DEE741700798801CBC
:100670000790DDE9020120F0000231F0004308BFDD
:10068000002A02D10026002542E14BF02008B8F1F3
:10069000610F40F092800E98002847BF2121019100
:1006A000401C0190019FDDE92C017F1C00220023EA
:1006B000DDE9024500F07EFD38BF85F00045009978
:1006C0008DF88420091F002F00910DF1850632DD81
:1006D000204629460022002300F086FD2BD21C2252
:1006E00000F09CFD04460D4600F01AFEFF1F002F8F
:1006F000804609DD00F01BFE02460B4620462946D7
:1007000000F01CFE04460D46F01D0721B8F1000F55
:100710000CDD491E5EBF08F00F0200F8012D4FEA04
:100720002818F3D502E0002200F8012D491EFAD561
:10073000C61D002FCCDC0DF18500361A01980DF195
:1007400085048642D8BF304600282FD4B04206DA4E
:100750000DF185010A5C082AA8BF0F2100DA0021EB
:10076000024621AB134400E0401E13F80159521E0B
:100770008D42F9D00F2904D10DF185018B5C5B1CF2
:100780008B54002A04D50099091D21AC401C00910E
:10079000411E0BD4621813783033DDB23A2DA4BF5A
:1007A0005B443A3B491E02F80139F4D50E99002901
:1007B00040F1AC80421E0E92A8E00099DFF8E826D6
:1007C00047F29750414391FBF2F20092DDE92C454C
:1007D000C2F10702002A25F0004504DD2046294623
:1007E00000F03EFB0BE052420020DFF8C01600F0A4
:1007F00037FB02460B462046294600F0A8FD04467A
:100800000D46B8F1660F06BF009F0A3706270E98FF
:100810003F18142FC8BF142730208DF884000DF125
:100820008506002F34DD2046294600F099FD01465B
:100830000A4606F1080304200A26B2FBF6F606EB88
:10084000860EA2EB4E02303203F8012C0A22B6FBD0
:10085000F2F202EB820EA6EB4E063036401E03F893
:10086000026DE9D1083F002F03F10806D9DD0846E3
:1008700000F07DFD02460B462046294600F05EFD55
:100880000022DFF82C3600F079FD04460D46CAE759
:100890000DF18500361A0DF1850404E00098401E24
:1008A000761E0090641C20783028F7D0B8F1660FCF
:1008B00002D10098401C04E0B8F1650F0CBF012084
:1008C00000200E9940188642B8BF701E00281DD423
:1008D000B04204DA215C3429C8BF392100DC302160
:1008E0000246631E9D1800E0401E15F80169521E65
:1008F0008E42F9D0392902D1A15C491CA154002AA9
:1009000004D50099491C1C46401C00910646009DD8
:100910000E9F30B2002802DC01260FF210644BF06B
:100920002000662808BF6D1C15D067280FFA85F8CF
:1009300041D118F1040F44DBB84542DA9DF840007C
:100940006D1C010703D430B2B842D8BF074628B2A5
:100950003F1A48BF00270FFA85F8B8F1000F00F3DF
:10096000AF800898411C0891302205990A54002F45
:1009700003DC9DF84000010705D50898411C08914B
:100980002E2205990A5417EB080FB8BF7D422DB2ED
:100990006842ED1932B20B909542B8BF2E46059BC6
:1009A000089836B2099632462146184400F076FB84
:1009B000AD1B0C95CCE0BBF1610F15D14FF0700B66
:1009C00017E030B2B84204DA9DF840100A0758BF69
:1009D00007467F1E48BF0027BBF1670F14BF4FF0CB
:1009E000450B4FF0650B04E0BBF1410F08BF4FF022
:1009F000500B0898411C0891002F059914F8012B01
:100A00000A5403DC9DF84000010719D50898411CE1
:100A100008912E2205990A54002F11DD761E30B25E
:100A20008742B8BF3E460598089B32B2214618441B
:100A300000F034FB089836B23018BF1B08900B97B3
:100A4000059808990844B8F1000F80F800B003D465
:100A50002B224270821C04E02D2145464170821CED
:100A60006D4200212CAB28460AE004460A2094FB84
:100A7000F0F000EB8005A4EB450403F8014B491CA2
:100A800000B20028F1DC012906DC4BF020006528CB
:100A900004BF302002F8010B00292CAB08D1302014
:100AA00002F8010B06E0491E585C303002F8010BD9
:100AB0000029F8DC059908980844121A099247E0C1
:100AC00030B229B288421BDA0598089B32B221461F
:100AD000184400F0E3FA089936B271180891A8EBAF
:100AE0000600002F0B9003DC9DF84000020705D59F
:100AF000059A2E2050540999491C09910C9727E01A
:100B00000598089B2AB22146184400F0C7FA0898B5
:100B1000761B4044002F089003DC9DF840100A0724
:100B200004D5411C08912E2205990A5430B28742FF
:100B3000B8BF3E460598089B32B204EB0801184442
:100B400000F0ACFA089836B23018BE1B08900B962D
:100B50009DF8400000F01400102840F0C280079A71
:100B600008980B99821809988A1882180C980F997E
:100B70008018884280F2B580081A0A90B1E09DF88A
:100B80004200622808D068280ED06A2814D06C2849
:100B90001FD0712810D01CE0D9F8001051F8040BB8
:100BA000C9F80010C0B21AE0D9F8001051F8040BCF
:100BB000C9F8001080B212E0D9F80000C21D22F07E
:100BC0000702C9F80020D2E900010832C9F8002064
:100BD00006E0D9F8001051F8040BC9F80010002104
:100BE000CDE902019DF8400001075AD5DDE9022355
:100BF000002B08BF002A54D04BF02000782850D199
:100C0000079812A930220A54401C431C079301F88C
:100C100000B046E09DF84200622808D068280ED057
:100C20006A2814D06C281FD0712810D01CE0D9F885
:100C3000001051F8040BC9F8001040B21AE0D9F8BE
:100C4000001051F8040BC9F8001000B212E0D9F8F6
:100C50000000C21D22F00702C9F80020D2E90001FD
:100C60000832C9F8002006E0D9F8001051F8040B4A
:100C7000C9F80010C117CDE90201002902D5079873
:100C80002D210AE0BDF84000810702D507982B21ED
:100C900003E0C00705D50798202112AA1154401C73
:100CA000079012A8079901440591594602A800F03F
:100CB0004DF816E001200790D9F8000050F8041B09
:100CC000C9F800008DF848100BE001212522BBF186
:100CD000000F07918DF8482003D0022207928DF86B
:100CE00049B00F9D07990A986D1A08992D1A0B980B
:100CF0006D1A09992D1A0C986D1A9DF840102D1A2D
:100D000048073FF5DFAA2021002D8DF800107FF75E
:100D1000D9AA309E2C46FFF7C9BA4FF0FF3031B048
:100D2000BDE8F08FCBCCCC0C686A6C747A4C0000B8
:100D30007072696E74665F733A2062616420257315
:100D400020617267756D656E740000002DE9FC47C7
:100D500007468A463C6950466F2808BF082505D0DB
:100D6000FFF78EF9782814BF0A251025D7E900016E
:100D70003C2680468946BAF1640F18BFBAF1690F64
:100D800005D1002903D5D8F1000869EB4909B9F16B
:100D9000000F08BFB8F1000F0CD1386B50B9082D07
:100DA0003AD197F83800010736D530223B2684F82F
:100DB0003B2031E08DF800A0404649462A46EB171B
:100DC00000F0E6FA3032D0B2761E3A2801960EDAFA
:100DD000A255404649462A46EB1700F0D9FA80460C
:100DE0005FEA010908BFB8F1000F05D108E09DF8DE
:100DF00000001218513AEBE7F868A1198842DBD3DA
:100E0000082D09D197F83800010705D5A05D3028D5
:100E100002D0761E3020A055C6F13C03BB61A1195B
:100E2000F960386B834208DAC31A3B624FF6EF7001
:100E3000398F01403987BDE8F38700280ED597F830
:100E4000380000F01400102808D17A6B7969386AEC
:100E5000521A121AD21A002AC8BF3A62BDE8F387A2
:100E60002DE9D04306460F4614464FF00008DFF840
:100E7000449012E0E00707D542464B4630463946DB
:100E800000F07CFA06460F464046494642464B462D
:100E900000F074FA641080468946002CEAD130468E
:100EA0003946BDE8D0830000A08601000000F03F75
:100EB00084D7974100002440F8B505460E461746F2
:100EC0001C4600205CB117F8011BB068A847B06051
:100ED00030B1F06A401CF0620020641EF3D1F2BD14
:100EE0004FF0FF30F2BD00007072696E74665F7380
:100EF0003A20256E20646973616C6C6F77656400BD
:100F00007072696E74663A2062616420256E206199
:100F10007267756D656E7400000000006E616E0092
:100F20004E414E00696E6600494E46003000F0B4F6
:100F30000246106895681318506803EB5004C00708
:100F400048BF4D44A3422DD013F8016B16F00300A7
:100F500004BF13F8010BC01C31090F2907D113F886
:100F6000011B0F3103E013F8017B05F8017B401EE4
:100F7000F9D10029E6D013F8010BC6F38106032E40
:100F800008BF13F8016B00EB0620404228440026FE
:100F9000B71E8F421EBF10F8017B05F8017B761C3F
:100FA000F6D1CFE7F0BC02F10C007047C9B202786D
:100FB0008A421AB11CBF10F8012FF9E718BF0020B0
:100FC00070470268531C03601170704780B500B908
:100FD00006A005490B681BB122220021984701E0B9
:100FE00000F0EEFA222002BDDC0E0228636F6E7361
:100FF000747261696E742068616E646C65723A2007
:10100000626164206D6573736167650000F10103BF
:10101000810704D010F8011B820781B1FAD1026860
:10102000A2F10131914311F0803104BF50F8042F37
:10103000F6E709BAB1FA81F100EBD100401CC01A01
:1010400070470000C9B2830706D0521E22D310F8A1
:10105000013B9942F7D11FE0083A13D302F1040291
:1010600041EA012141EA014150F8043B121F21BF2E
:101070004B40A3F1013C2CEA030C1CF0803FF3D061
:10108000C9B2001F083210F8013B521E28BF91EA76
:10109000030FF8D818BF0120401E704762B38B07BA
:1010A00008D0521E11F8013B00F8013B00F02480EB
:1010B0008B07F6D1830740F0208000BF103A07D39A
:1010C00030B4B1E83810103AA0E83810F9D230BC8A
:1010D000530724BFB1E80810A0E8081044BF51F836
:1010E000043B40F8043BD20724BF31F8022B20F820
:1010F000022B44BF0B7803707047121F17D35B009D
:1011000009D151F8043B20F8023B1B0C121F20F8B8
:10111000023BF6D20BE051F8043B00F8013B1B0AFE
:1011200020F8023B1B0C121F00F8013BF3D238BF22
:10113000121D521E24BF11F8013B00F8013BF8D8E4
:101140007047000010B5144600F002F8226010BD90
:10115000C1F30A5343B14A0012F5001F28D2A3F28B
:10116000FE32A1EB0251704750EA410C20D001F051
:10117000004C31EA0C01B1FA81F204BFB0FA80F3FD
:10118000D2180B3AB2F120032CBF00FA03F19140C0
:1011900041EA0C013EBFC2F1200C20FA0CF31943C6
:1011A0009040524240F2FD33D21A01EB0351704796
:1011B0000022704741EA030C50EA4C0C52EA0C0C36
:1011C0004FF4001C09D307D01CEB410F9CBF1CEB54
:1011D000430F8B4208BF824270471CEB430FFBD882
:1011E000994208BF9042704741EA030C50EA4C0C08
:1011F00052EA0C0C4FF4001C09D307D01CEB410F32
:101200009CBF1CEB430F994208BF904270471CEBF8
:10121000410FFBD88B4208BF8242704700B541ECBA
:10122000100B104600F004F851EC100B00BD00BF8D
:10123000020030EE101B40F2FF7C37D41CEA115341
:1012400013D063456BD09B18634504D201EB025168
:1012500020EE101B704701F0004141EA0C510020C4
:1012600041EC100BAFF30080704710EE100B50EA0A
:10127000410054D0B2F57F7F08D202EB5C01090532
:10128000002041EC110B20EE010B70474FF0FE41A6
:10129000002341EC113B20EE010BB2F57E7230EEE3
:1012A000101B4FEA410342EB5353CDE752421CEA75
:1012B000115316D0634532D09A4204D2A1EB0251A9
:1012C00020EE101B70475B1ED21AA1EB035120EEDB
:1012D000101B372A0CD3002001F0004141EC100B09
:1012E000C0E710EE100B50EA410018D0372AF2D2B6
:1012F000C2EB5C021105002041EC110BF1EE100A6B
:1013000020F01F0121F4F851E1EE101A20EE010B3C
:10131000F1EE101AE1EE100A11F0080FA2D1704799
:1013200041EC100BBDEEC00B10EE100A704700EE42
:10133000100AB8EEC00B51EC100B704741EC100BCB
:1013400043EC112B30EE410B51EC100B704741EC8C
:10135000100B43EC112B80EE010B51EC100B70477E
:1013600041EC100BBCEEC00B10EE100A704700EE03
:10137000100AB8EE400B51EC100B704741EC100B0B
:1013800043EC112B20EE010B51EC100B70470000C9
:10139000BBBBE1B1B2F5803F80F07E80022A1ED94E
:1013A0008C46B1FBF2F102FB11C31B0443EA10436C
:1013B000B3FBF2FC02FB1C3380B240EA0343B3FBF5
:1013C000F2F002FB103240EA0C4000237047022A80
:1013D00005D98446B0FBF2F002FB10C270474AB157
:1013E00005D100F0010249085FEA30007047002291
:1013F0000023704700F0E8B80B0002000021002035
:101400007047904271EB030CF6D3B3F5803F2FD2B7
:10141000F0B5B3FA83F7B1FA81F4A7F10F0E3D1BD3
:101420005340CEF1200602FA0EF2F3415340B5F1DB
:101430000F0746D80F3C2C444140C4F12006A04081
:10144000F1414140B1FBF3F603FB1611A2FB064547
:10145000001BA94102D2761E8018594180EA010280
:1014600021FA0EF362FA0EF200215A403046F0BD26
:1014700030B4B1FBF3FC03FB1C11A2FB0C45001BB9
:10148000A94103D2ACF1010C8018594130BC02468D
:101490000B46604600217047B2F1807F65D3F0B5FE
:1014A000B2FA82F7B1FA81F4C7F10F063D1B22FAB6
:1014B00006F307F1110EF24120355A40B5F10F073E
:1014C000B8D94140C4F12006A040F1414140B1FBF0
:1014D000F3FC03FB1C11A2FB0C45001BA94103D22A
:1014E000BCF1010C801859410F2F12D30F3FC903D3
:1014F00041EA5041B1FBF3F603FB1611A2FB06458E
:10150000D4EBC030A94102D2761E8018594146EA78
:10151000CC3C07B34140C7F12006B840F1414140FF
:10152000B1FBF3F603FB1611A2FB0645001BA94114
:1015300002D2761E8018594180EA010221FA0EF388
:10154000C7F1200462FA0EF20CFA07F05A402CFAA6
:1015500004F13043F0BD80EA010221FA0EF30021CC
:1015600062FA0EF260465A40F0BD8C46B1FBF2F1D1
:1015700002FB11C31B0243EA1063B3FBF2FC02FB44
:101580001C331B024CEA002043EA1063B3FBF2FC5D
:1015900002FB1C331B024CEA002043EA1063B3FB3E
:1015A000F2FC02FB1C331B024CEA002043EA1063EE
:1015B000B3FBF2FC02FB1C324CEA00200023704714
:1015C000012000F003B800007047000080B5AFF3C1
:1015D0000080024A11001820ABBEFBE72600020083
:1015E000022801D3012010E00B00DBB2042B01DB49
:1015F00001200AE0DFF8283803EB8000C9B2405C24
:10160000824201D3012000E000207047F8B50600B7
:101610000F0015001C00022E01D301201DE02A003E
:101620003900C9B23000FFF7DBFF012801D10120EA
:1016300013E03800C0B2002812D1B4F5807F0DD27B
:10164000DFF8E0077603304400EB850010F58050AA
:10165000016864F30F2101600020F2BD0120FCE766
:10166000FFB2012F11D1B4F5803F0CD2DFF8B407DF
:101670007603304400EB850010F5A050016864F358
:1016800017210160E8E70120E7E70120E5E700B264
:101690000012C0B27047F8B505000E001700280010
:1016A00000B2FFF7F4FF04002000C0B2022801D30B
:1016B000012024E03A003100C9B22000C0B2FFF797
:1016C0008FFF012801D1012019E0DFF85817200011
:1016D000C0B2400308442A00D2B200EB8200D0F826
:1016E000000CF6B266F3092067F30700E4B2640366
:1016F0002144EDB201EB8501C1F8000C0020F2BDE0
:1017000070B504000D001600022C01D301201DE06D
:1017100032002900C9B22000FFF762FF012801D181
:10172000012013E0DFF8FC166003085850F0004079
:1017300050F0407050F47F00EDB265F3092066F37D
:1017400007006203885064030859002070BD10B57B
:10175000C0B2002800F0EA80022800F0EB80C0F060
:10176000E780042800F0EA80C0F0E680062800F058
:10177000E980C0F0E580082800F0E880C0F0E4804F
:101780000A2800F0E780C0F0E3800C2800F0E68033
:10179000C0F0E2800E2800F0E580C0F0E180102863
:1017A00000F0E480C0F0E080122800F0E380C0F098
:1017B000DF80142800F0E280C0F0DE80162800F000
:1017C000E180C0F0DD80182800F0E080C0F0DC800F
:1017D0001A2800F0DF80C0F0DB801C2800F0DE80DB
:1017E000C0F0DA801E2800F0DD80C0F0D98020280B
:1017F00000F0DC80C0F0D880222800F0DB80C0F050
:10180000D780242800F0DA80C0F0D680262800F0A7
:10181000D980C0F0D580282800F0D880C0F0D480CE
:101820002A2800F0D780C0F0D3802C2800F0D68082
:10183000C0F0D2802E2800F0D580C0F0D1803028B2
:1018400000F0D480C0F0D080322800F0D380C0F007
:10185000CF80342800F0D280C0F0CE80362800F04F
:10186000D180C0F0CD80382800F0D080C0F0CC808E
:101870003A2800F0CF80C0F0CB803C2800F0CE802A
:10188000C0F0CA803E2800F0CD80C0F0C98040285A
:1018900000F0CC80C0F0C880422800F0CB80C0F0BF
:1018A000C780442800F0CA80C0F0C680462800F0F7
:1018B000C980C0F0C580482800F0C880C0F0C4804E
:1018C0004A2800F0C780C0F0C3804C2800F0C680D2
:1018D000C0F0C2804E2800F0C580C0F0C180502802
:1018E00000F0C480C0F0C080522800F0C380C0F077
:1018F000BF80542800F0C280C0F0BE80562800F09F
:10190000C180C0F0BD80582800F0C080C0F0BC800D
:101910005A2800F0BF80C0F0BB805C2800F0BE8079
:10192000C0F0BA805D2800F0BB80BBE01924BFE0A6
:101930003124BDE01824BBE03324B9E03524B7E0FE
:101940001424B5E03724B3E01324B1E02024AFE041
:101950001224ADE02124ABE01124A9E01024A7E07B
:101960002824A5E02924A3E02A24A1E009249FE05B
:101970002B249DE008249BE02C2499E0032497E08D
:10198000022495E0392493E03B2491E03D248FE04C
:1019900001248DE03F248BE0002489E0402487E08F
:1019A000412485E0422483E0432481E0BF247FE09A
:1019B00048247DE049247BE0BC2479E0992477E049
:1019C0009A2475E0502473E09B2471E0B6246FE004
:1019D00051246DE09C246BE0B52469E0522467E05B
:1019E000A02465E0B42463E0532461E0B3245FE005
:1019F00054245DE0B2245BE0B12459E0AD2457E00B
:101A0000602455E0AE2453E0612451E0AD244FE062
:101A100062244DE063244BE0AB2449E0642447E0BA
:101A2000AA2445E0652443E0A92441E0A8243FE03E
:101A300069243DE06B243BE06D2439E06F2437E0FE
:101A4000A32435E0702433E0A22431E071242FE098
:101A5000A1242DE097242BE0962429E0742427E08C
:101A6000952425E0752423E0942421E093241FE0AD
:101A700092241DE078241BE0792419E08C2417E0DF
:101A80007A2415E08B2413E07B2411E08A240FE0F4
:101A90005A240DE059240BE0892409E0582407E07A
:101AA000882405E09D22DFF84019002000F02CFE7C
:101AB0002000C0B210BD10B5C0B2002800F0EA800E
:101AC000022800F0EB80C0F0E780042800F0EA80F4
:101AD000C0F0E680062800F0E980C0F0E580082824
:101AE00000F0E880C0F0E4800A2800F0E780C0F051
:101AF000E3800C2800F0E680C0F0E2800E2800F0C1
:101B0000E580C0F0E180102800F0E480C0F0E080C3
:101B1000122800F0E380C0F0DF80142800F0E2809B
:101B2000C0F0DE80162800F0E180C0F0DD801828CB
:101B300000F0E080C0F0DC801A2800F0DF80C0F008
:101B4000DB801C2800F0DE80C0F0DA801E2800F068
:101B5000DD80C0F0D980202800F0DC80C0F0D88083
:101B6000222800F0DB80C0F0D780242800F0DA8043
:101B7000C0F0D680262800F0D980C0F0D580282873
:101B800000F0D880C0F0D4802A2800F0D780C0F0C0
:101B9000D3802C2800F0D680C0F0D2802E2800F010
:101BA000D580C0F0D180302800F0D480C0F0D08043
:101BB000322800F0D380C0F0CF80342800F0D280EB
:101BC000C0F0CE80362800F0D180C0F0CD8038281B
:101BD00000F0D080C0F0CC803A2800F0CF80C0F078
:101BE000CB803C2800F0CE80C0F0CA803E2800F0B8
:101BF000CD80C0F0C980402800F0CC80C0F0C88003
:101C0000422800F0CB80C0F0C780442800F0CA8092
:101C1000C0F0C680462800F0C980C0F0C5804828C2
:101C200000F0C880C0F0C4804A2800F0C780C0F02F
:101C3000C3804C2800F0C680C0F0C2804E2800F05F
:101C4000C580C0F0C180502800F0C480C0F0C080C2
:101C5000522800F0C380C0F0BF80542800F0C2803A
:101C6000C0F0BE80562800F0C180C0F0BD8058286A
:101C700000F0C080C0F0BC805A2800F0BF80C0F0E7
:101C8000BB805C2800F0BE80C0F0BA805D2800F008
:101C9000BB80BBE00824C0E00824BEE00824BCE010
:101CA0000824BAE00824B8E00824B6E00824B4E028
:101CB0000824B2E00824B0E00824AEE00824ACE038
:101CC0000824AAE00824A8E00824A6E00824A4E048
:101CD0000824A2E00824A0E008249EE008249CE058
:101CE00008249AE0082498E0082496E0082494E068
:101CF000082492E0082490E008248EE008248CE078
:101D000008248AE0082488E0082486E0082484E087
:101D1000082482E0082480E008247EE008247CE097
:101D200008247AE0082478E0082476E0082474E0A7
:101D3000082472E0082470E008246EE008246CE0B7
:101D400008246AE0082468E0082466E0082464E0C7
:101D5000082462E0082460E008245EE008245CE0D7
:101D600008245AE0162458E0082456E0082454E0D9
:101D7000082452E0082450E008244EE008244CE0F7
:101D800008244AE0082448E0082446E0082444E007
:101D9000082442E0082440E008243EE008243CE017
:101DA00008243AE0082438E0082436E0082434E027
:101DB000082432E0082430E008242EE008242CE037
:101DC00008242AE0082428E0082426E0082424E047
:101DD000082422E0082420E008241EE008241CE057
:101DE00008241AE0082418E0082416E0082414E067
:101DF000082412E0082410E008240EE008240CE077
:101E000008240AE0082408E0082406E04FF486725B
:101E1000DFF8D415002000F077FC2000C0B210BD20
:101E2000AC9608100000044080B5C0B2002800F055
:101E3000EA80022800F0EB80C0F0E780042800F080
:101E4000EA80C0F0E680062800F0E980C0F0E58076
:101E5000082800F0E880C0F0E4800A2800F0E7805D
:101E6000C0F0E3800C2800F0E680C0F0E2800E288D
:101E700000F0E580C0F0E180102800F0E480C0F0C0
:101E8000E080122800F0E380C0F0DF80142800F02A
:101E9000E280C0F0DE80162800F0E180C0F0DD8036
:101EA000182800F0E080C0F0DC801A2800F0DF8005
:101EB000C0F0DB801C2800F0DE80C0F0DA801E2835
:101EC00000F0DD80C0F0D980202800F0DC80C0F078
:101ED000D880222800F0DB80C0F0D780242800F0D2
:101EE000DA80C0F0D680262800F0D980C0F0D580F6
:101EF000282800F0D880C0F0D4802A2800F0D780AD
:101F0000C0F0D3802C2800F0D680C0F0D2802E28DC
:101F100000F0D580C0F0D180302800F0D480C0F02F
:101F2000D080322800F0D380C0F0CF80342800F079
:101F3000D280C0F0CE80362800F0D180C0F0CD80B5
:101F4000382800F0D080C0F0CC803A2800F0CF8054
:101F5000C0F0CB803C2800F0CE80C0F0CA803E2884
:101F600000F0CD80C0F0C980402800F0CC80C0F0E7
:101F7000C880422800F0CB80C0F0C780442800F021
:101F8000CA80C0F0C680462800F0C980C0F0C58075
:101F9000482800F0C880C0F0C4804A2800F0C780FC
:101FA000C0F0C3804C2800F0C680C0F0C2804E282C
:101FB00000F0C580C0F0C180502800F0C480C0F09F
:101FC000C080522800F0C380C0F0BF80542800F0C9
:101FD000C280C0F0BE80562800F0C180C0F0BD8035
:101FE000582800F0C080C0F0BC805A2800F0BF80A4
:101FF000C0F0BB805C2800F0BE80C0F0BA805D28D5
:1020000000F0BB80BBE00020C0E00020BEE001206B
:10201000BCE00120BAE00220B8E00320B6E00320D3
:10202000B4E00420B2E00420B0E00520AEE00520DA
:10203000ACE00620AAE00720A8E00920A6E00A20DC
:10204000A4E00B20A2E00B20A0E00C209EE00C20DE
:102050009CE00D209AE00D2098E00E2096E00F20E5
:1020600094E0102092E0112090E011208EE01220E8
:102070008CE012208AE0132088E0142086E01520EE
:1020800084E0162082E0162080E018207EE01920EF
:102090007CE019207AE01A2078E01B2076E01C20F2
:1020A00074E01C2072E01C2070E01D206EE01D20FA
:1020B0006CE01D206AE01E2068E01E2066E01E2005
:1020C00064E01F2062E01F2060E020205EE020200E
:1020D0005CE021205AE0222058E0242056E0242011
:1020E00054E0252052E0252050E026204EE0272015
:1020F0004CE027204AE0282048E0282046E029201C
:1021000044E0292042E02A2040E02C203EE02D201F
:102110003CE02E203AE02F2038E02F2036E030201F
:1021200034E0302032E0312030E031202EE0322027
:102130002CE033202AE0342028E0342026E035202B
:1021400024E0352022E0362020E037201EE0382031
:102150001CE039201AE0392018E03A2016E03A2035
:1021600014E03B2012E03B2010E03B200EE03C203E
:102170000CE03C200AE03D2008E03D2006E040F273
:102180007B129949002000F0BFFA0020C0B202BDC6
:10219000002007E09549C2018A5822F00042C3019D
:1021A000CA50401C3F28F5DB704770B504000E0094
:1021B000002000202000C0B2FFF736FE8B4DC0B2D9
:1021C000C0012844006A80B206FB00F642F210709B
:1021D000B6FBF0F62000C0B2FFF726FEC00128448F
:1021E000B6B246612000C0B2FFF71EFE0100C9B2C0
:1021F000C9012944096C51F00101C0B2C001284451
:10220000016470BD2DE9F041AAB004000D00160074
:10221000342100221DAF380000F006FB002074219D
:1022200000226F46380000F0FFFA0E201E902000BA
:10223000C0B2FFF740FC8DF87C002000C0B2FFF771
:1022400086FA07005FF008082000C0B2FFF77FFAA7
:102250001DAA97FBF8F108FB11773900644BC0B257
:10226000C010C001184400F09EFB2000C0B2FFF770
:10227000DBFD00220121C0B210F5937000B2FFF720
:102280000AFA2000C0B2FFF7CFFDC0B210F593707C
:1022900000B2FFF7FCF9092300220121C0B2FFF7C9
:1022A000B5F92000C0B2FFF7BFFDC0B210F59370C2
:1022B00000B2FFF7ECF900220121C0B2FFF720FACB
:1022C0004C48B0FBF5F1090C4A482A04B0FBF2F384
:1022D00002FB1300002800D0491C022903D2002071
:1022E0008DF801002FE0032903D201208DF80100B1
:1022F00029E0052903D202208DF8010023E00929F5
:1023000003D203208DF801001DE0112903D204201F
:102310008DF8010017E0212903D205208DF8010076
:1023200011E0412903D206208DF801000BE081293C
:1023300003D207208DF8010005E040F2C9122A49B6
:10234000002000F0E1F904208DF8000001208DF854
:10235000100000208DF8110003208DF812000320DA
:102360008DF8130000208DF80800224901229DF904
:1023700001008240B1FBF2F0B0FBF5F0401E059089
:102380000598401C06FB00F642F21070B6FBF0F018
:10239000089002208DF8400003208DF8680001208D
:1023A0001B9001208DF828002000C0B2FFF73CFDF3
:1023B0000E4D6946C0B2C001284400F033FB200036
:1023C000C0B2FFF731FDC0B2C001284400F02AFCC2
:1023D0002000C0B2FFF728FDC0B2C001284400F0C1
:1023E00026FC2AB0BDE8F081309308100000584068
:1023F0000000314000127A0082B0002001900020DD
:1024000000900020019009E00098401C0090009886
:10241000B0F5005FF8D30198401C01900198B0F529
:10242000805F02D200200090F1E702B0704780B5D3
:102430000100002000F0F6FD01BD2DE9F043ADF5EF
:10244000137D0700884616001C000020ADF802002E
:102450000020ADF80000002002900020ADF804003C
:102460000020ADF806004046FEF7D0FD0290DFF8F0
:1024700080532888002801D028698047DFF874033A
:102480000078002800F033812888002800F01181AE
:10249000BDF90600411CADF806103A00010089B2F2
:1024A0000020EB68984747464046FEF7AFFD029094
:1024B0006888A97990FBF1F0ADF804003800471C5A
:1024C00000780028FAD10020ADF800000EE07F1E51
:1024D00038782F2802D038785C2804D1BDF8000065
:1024E000401CADF800000298401E0290BDF80000AC
:1024F000022802DA02980028E9D50298002806D4BA
:102500007A1CDFF8F41253A800F0ACFF0EE0BDF81F
:102510000000002805D13A00B84953A800F0A2FFF6
:1025200004E03A00B44953A800F09CFF0020ADF845
:10253000020042E0BDF80010BDF80020BDF80230F6
:1025400053AF9BB2BDF90400434313FA82F0385CE9
:1025500043AA89B25054BDF80000401CADF80000F9
:10256000BDF8000080B2BDF9041088420EDA53A80D
:10257000FEF74CFDBDF80020BDF802309BB2BDF95E
:1025800004104B4313FA82F18842D3D2002043A9AE
:10259000BDF800208854BDF90600411CADF80610B6
:1025A00043AAE97911FB00F189B20020EB68984752
:1025B000BDF80200401CADF80200BDF8027053A83F
:1025C000FEF724FDBDF90410B0FBF1F0401CBFB2D2
:1025D000874203D20020ADF80000C1E732008849ED
:1025E00053A800F03FFFBDF90600411CADF80610EE
:1025F00053AAE97911FB00F189B20020EB689847F2
:10260000002C74D00020ADF8020041E0BDF80010AD
:10261000BDF80020BDF802309BB2BDF90400434371
:1026200013FA82F0205C43AA89B25054BDF800002E
:10263000401CADF80000BDF8000080B2BDF90410E8
:1026400088420EDA2000FEF7E1FCBDF80020BDF85C
:1026500002309BB2BDF904104B4313FA82F1884259
:10266000D4D2002043A9BDF800208854BDF906004B
:10267000411CADF8061043AAE97911FB00F189B2BB
:102680000020EB689847BDF80200401CADF802003E
:10269000BDF802602000FEF7B9FCBDF90410B0FBE4
:1026A000F1F0401CB6B2864221D20020ADF8000005
:1026B000C1E74FF4807100220DF10C09484600F08B
:1026C000B3F83800A9688847002C07D0009433007D
:1026D00042464C4903A800F0C5FE05E033004246DF
:1026E000494903A800F0BEFE03A8A96888470DF574
:1026F000137DBDE8F08310B514002200D2B2002093
:1027000000F081FC200010BD38B50C001500C0B2EF
:10271000002803D13E480078002800D131BD3D4952
:102720000878002800D0FEE70878401C087000F008
:1027300003FF00232A0021003748FFF77EFEFFF742
:102740005BFEF6E710B514001A00C0B2002808D1ED
:1027500028480078002804D00B0021002F48FFF7FC
:102760006CFE10BD002101804FF6FF714180818019
:10277000FF218171C171002181600021C1600021B0
:10278000016170471A4902880A8042884A8082881B
:102790008A8082798A71C279CA7182688A60C268C5
:1027A000CA6000690861012012490870704700B5CD
:1027B00085B06846FFF7D6FF194802906846FFF7D4
:1027C000E1FF05B000BD80B5FFF7F1FF0023002257
:1027D0005FF4E131002000F059FD4023114A00214F
:1027E0000A4800F0D1FE0121002000F0D0FC01BD1C
:1027F0000C0E0228F70E02287C960810509608103E
:10280000889608107495081010960810CC0D0228B0
:10281000C7070228F80E0228609608109496081040
:102820002F2408103C0C022862F30F2262F31F428F
:10283000401810F0030308D0C91A1FD3DB0748BFA4
:1028400000F8012D28BF20F8022D130030B41446E3
:102850001546103928BF20E93C00FAD8490728BF9F
:1028600020E90C0048BF40F8042D890028BF20F85B
:10287000022D48BF00F8012D30BC7047C91818BFA1
:1028800000F8012DCB0728BF00F8012D704700008C
:1028900030B4614B1818C009604C14EB00140429C3
:1028A0000DD223681F25C8008540AB43D2B212F079
:1028B0001F02C90012FA01F1194321600CE0091F3F
:1028C00063681F25C8008540AB43D2B212F01F02D7
:1028D000C9008A401A43626030BC7047002A04D1A4
:1028E000012212FA01F1416003E0012212FA01F122
:1028F0008160704710B48900436C0F248C40A3435F
:1029000012F00F0212FA01F11943416410BC704732
:1029100010B4836C01248C40A34312F0010212FA1C
:1029200001F11943816410BC704710B4C36C0124D9
:102930008C40A34312F0010212FA01F11943C16461
:1029400010BC704710B449001031C36C03248C4094
:10295000A34312F0030212FA01F11943C16410BC3F
:1029600070474269012212FA01F1416140697047E2
:1029700010B4836901248C40A34312F0010212FABF
:1029800001F11943816110BC704710B44900036C18
:1029900003248C40A34312F0030212FA01F11943FD
:1029A000016410BC7047F8B505000E001400002744
:1029B000002D2ED0002C2CD0226831002800FFF7EB
:1029C0008DFF227A31002800FFF762FF6269310033
:1029D0002800FFF79DFFA26931002800FFF7A5FF3F
:1029E000E26931002800FFF7ADFF6268310028007E
:1029F000FFF780FFE26831002800FFF7C6FF3100D3
:102A00002800FFF7AEFF226931002800FFF7B0FF72
:102A100000E0034F3800F2BD0000CFBF000030409F
:102A200001005A000122002800F0EC80002900F08B
:102A3000E980754A12680B7A63F392420B7B13F0BC
:102A4000030363F311420B7813F0070363F31A6275
:102A50008B7863F39E7291F8283063F3000291F84B
:102A6000343063F341020B7F63F382024B7F63F3E5
:102A7000C30291F8403063F38A2291F84030DBB210
:102A80005B08DBB263F3492291F8703063F30822EC
:102A900091F8713013F0030363F30D3202600A7A88
:102AA000002A02D10022826007E00A7A012A02D1BC
:102AB0004A69826001E0012282600A6A02614A6A10
:102AC0004261CA6A82610A6BC2614A6902628A69AA
:102AD00042624E4A126891F8443003F0FF03120A32
:102AE00012021A4391F84C3003F0FF0363F31742CC
:102AF00091F85C3003F0FF0363F31F6291F86C30D0
:102B000003F0FF0363F30F224264414A126891F815
:102B1000643003F0FF0363F30F2291F8543003F0A5
:102B2000FF03120A12021A4382643A4A126891F8A9
:102B3000413013F00303920892001A4391F8603079
:102B400013F0030363F38B2291F8483013F003036F
:102B500063F3051291F8503013F0030363F3092275
:102B600091F8583013F0030363F3871291F868303B
:102B700013F0030363F38302C264274A126891F8D7
:102B8000723013F00703D208D2001A4391F8733061
:102B900013F0070363F30612426591F8352082674C
:102BA0001E4A12680B7C13F00303920892001A432A
:102BB000CB7C13F0030363F387124B7C13F0030306
:102BC00063F383028B7C13F0030363F30512026546
:102BD000134A1268CB8863F31F428B889BB21B0A8F
:102BE0009BB263F30F220B78052B06D1097901F014
:102BF000FF01120A12020A4302E0497861F3070258
:102C00000263002210007047289708102C970810C4
:102C10003097081034970810389708103C97081020
:102C200040970810016851F0004101607047403042
:102C3000016851F01001016070470000022801D3C3
:102C4000012010E00B00DBB2042B01DB01200AE0C5
:102C5000DFF8CC3703EB8000C9B2405C824201D37D
:102C6000012000E000207047F8B504000F001500B7
:102C70001E00022C01D301202AE02A003900C9B22B
:102C80002000FFF7DBFF012801D1012020E006989A
:102C90003900C9B202291ED1B6F5803F19D22028C9
:102CA00017D24FF4C052DFF87C1763030B4403EBD9
:102CB000850313441F6866F317271F6064032144CC
:102CC00001EB850111440A6860F3C7020A60002025
:102CD000F2BD0120FCE7FFB2032F1FD1B6F1807FC8
:102CE0001AD2202818D24FF4E052DFF838176303C5
:102CF0000B4403EB850313441F6807F0FF0757EAF3
:102D000006271F606403214401EB850111440A6812
:102D100060F3C7020A60DAE70120D9E70120D7E7AC
:102D200000B20012C0B27047F8B505000E001700DF
:102D3000280000B2FFF7F4FF04002000C0B2022810
:102D400001D3012024E03A003100C9B22000C0B212
:102D5000FFF774FF012801D1012019E0DFF8C41644
:102D60002000C0B2400308442A00D2B200EB820027
:102D7000D0F8000CF6B266F3092067F30700E4B25E
:102D800064032144EDB201EB8501C1F8000C002081
:102D9000F2BD70B504000D001600022C01D3012015
:102DA0001DE032002900C9B22000FFF747FF0128CB
:102DB00001D1012013E0DFF86C166003085850F0D1
:102DC000004050F0407050F47F00EDB265F30920F0
:102DD00066F307006203885064030859002070BD41
:102DE000D0F840037047D0F80803C005C00D704705
:102DF000C0F840127047D0F80802C005C00D7047F7
:102E0000D0F80802C0F3C030704738B5050028007C
:102E1000FFF7F1FF04002800FFF7F2FF0419002C70
:102E200001D1012000E00020C0B232BDC0F8C81FAF
:102E30007047D0F8C80F7047C0F8881F7047D0F8A7
:102E4000880F7047016851F000410160704738B544
:102E500004001500C9B2002906D002291ED010D3E3
:102E6000042935D027D340E0DFF8BC05A06001205D
:102E70002073112060734FF48C70E0811220208247
:102E800039E0DFF8A805A0600120207311206073ED
:102E900040F21D10E0816B2020822CE0DFF89005CD
:102EA000A06001202073112060734FF48E70E081C8
:102EB0006A2020821FE0DFF87C05A06002202073DA
:102EC0001120607340F21B10E0816920208212E023
:102ED000DFF86405A06001202073132060734FF4B5
:102EE0008D70E0816820208205E07C22DFF84C159F
:102EF0000020FFF709FCEDB2002D06D0022D1ED0F8
:102F000010D3042D35D027D340E0DFF81C05206016
:102F100000202071112060714FF48C70E08112202C
:102F2000208239E0DFF804052060002020711120A4
:102F3000607140F21D10E0816B2020822CE0DFF8F0
:102F4000F004206000202071112060714FF48E7019
:102F5000E0816A2020821FE0DFF8D8042060012091
:102F600020711120607140F21B10E08169202082E5
:102F700012E0DFF8C404206000202071132060718B
:102F80004FF48D70E0816820208205E0A822DFF8F0
:102F9000AC140020FFF7B8FB31BD10B5C0B200285B
:102FA00006D002280AD006D304280DD009D30EE09B
:102FB000DFF88C4411E0DFF88C440EE0DFF8884441
:102FC0000BE0DFF8884408E0DFF8844405E0BD2228
:102FD000DFF868140020FFF797FB200010BD38B51C
:102FE0000400DFF87054C9B22000C0B255F82000C8
:102FF000FFF7FEFE2000C0B255F82000FFF705FFE6
:103000000028F7D031BD70B505000E00140006E0B1
:1030100031782800C0B2FFF7E2FF641E761C002C56
:10302000F6D170BD38B504000D0005E02978200008
:10303000C0B2FFF7D4FF6D1C28780028F6D131BD4F
:1030400070B504000D000020DFF808642000C0B255
:1030500056F82000FFF7C7FE002807D0E4B256F864
:103060002400FFF7BDFE2870012000E00020C0B260
:1030700070BD70B505000C00DFF8D8632800C0B241
:1030800056F82000FFF7DBFE400840000100280052
:10309000C0B256F82000FFF7CFFE2800C0B256F8A5
:1030A0002000FFF7CCFE30F0020001002800C0B283
:1030B00056F82000FFF7C0FE2800C0B256F82000E6
:1030C000FFF7BDFE30F0200001002800C0B256F826
:1030D0002000FFF7B1FE2800C0B256F82000FFF72D
:1030E000AEFE30F0400001002800C0B256F82000CB
:1030F000FFF7A2FE2800C0B256F82000FFF79FFE9F
:1031000030F0100001002800C0B256F82000FFF790
:1031100093FE2800C0B256F82000FFF790FE30F46E
:10312000807001002800C0B256F82000FFF784FE2E
:103130002800C0B256F82000FFF781FE30F480600E
:1031400001002800C0B256F82000FFF775FE002CE1
:103150000ED02800C0B256F82000FFF76AFE50F4E7
:1031600000700100EDB256F82500FFF765FE0DE096
:103170002800C0B256F82000FFF75BFE30F4007064
:103180000100EDB256F82500FFF756FE70BD70B590
:1031900005000C00DFF8BC622800C0B256F8200021
:1031A000FFF747FE4008400001002800C0B256F873
:1031B0002000FFF73BFE2800C0B256F82000FFF7C2
:1031C00038FE30F0080001002800C0B256F8200098
:1031D000FFF72CFE2800C0B256F82000FFF729FEAA
:1031E00030F0200001002800C0B256F82000FFF7A0
:1031F0001DFE2800C0B256F82000FFF71AFE30F47A
:10320000807001002800C0B256F82000FFF70EFEC3
:103210002800C0B256F82000FFF70BFE30F4007013
:1032200001002800C0B256F82000FFF7FFFD28007B
:10323000C0B256F82000FFF7FCFD30F4006001003A
:103240002800C0B256F82000FFF7F0FD002C0ED089
:103250002800C0B256F82000FFF7EBFD50F0040044
:103260000100EDB256F82500FFF7E0FD0DE0280063
:10327000C0B256F82000FFF7DCFD30F0040001007A
:10328000EDB256F82500FFF7D1FD70BD2DE9F841EC
:10329000A7B005000F00160028003100C0B2C9B267
:1032A000884201D1012000E000201C00DFF88C8161
:1032B0004FF4CE724146C0B2FFF726FA2800210033
:1032C000C0B2C9B2884201D1012000E0002040F222
:1032D0009D124146C0B2FFF717FA02A8142100F070
:1032E00073F9342100220DF168084046FFF79CFA7B
:1032F0004C2100220DF11C084046FFF795FAFF0013
:103300003A00002354480021FEF742F8070022004B
:10331000D2B23100C9B202A8FFF799FD08201B9074
:103320009DF80D008DF870001AAA9DF80C100298F7
:10333000FFF739FB06201B909DF80D008DF87000FB
:103340001AAA9DF814100498FFF72DFB002007908F
:10335000082008900820099002200B9000200C9073
:1033600000201290002014903A4C2800C0B254F86B
:10337000200000F06FFA39492A00D2B238204243C7
:103380000A4407A92800C0B254F8200000F020F930
:103390002800C0B254F82000FFF754FD2A00D2B232
:1033A0000321BDF91600FFF7BFFCBDF91600FFF7BA
:1033B000B7FC17F01F010091C7F357132A00D2B2D0
:1033C0000321C0B2FFF750FCBDF91600FFF7A8FCBF
:1033D0002A00D2B20321C0B2FFF7DBFCBDF918000E
:1033E000ADF800000320ADF8020001208DF80400C4
:1033F00007221B482900C9B250F82110684600F086
:10340000A7F800212800C0B2FFF7C1FE0021280064
:10341000C0B2FFF72EFE28B0BDE8F081000000002A
:10342000AC9608100000044000003140000231401A
:10343000000531408008314000073140B09308104A
:1034400000006040000065400000644000006340F0
:1034500000006240B007022800809698CC0902283C
:103460009C0702280CB430B583B00A4606A9029125
:10347000044600250194009502AB01A90848784450
:103480001E30FCF700FE019A157000284EBF04465E
:103490000198041B204603B030BC5DF80CFB00BF54
:1034A00023DBFFFF010009B2002908D4012210F03C
:1034B0001F018A401B4900B2400941F82020704793
:1034C000010009B2002908D4012210F01F018A402E
:1034D000154900B2400941F820207047020012B29D
:1034E000002A04D44901114A00B2115407E04901ED
:1034F0000F4A00B210F00F00104400F8041C70478F
:10350000002800D162B60B480168491C0160704771
:1035100072B608490868002802D00868401E086092
:103520000868704700E100E080E200E000E400E0AD
:1035300018ED00E0D40E022880B5FFF7E9FFFEF792
:1035400027FE01BD80B5C9B200B2FFF7C7FF01BDBC
:1035500070B504000D001600200000F0C3F929002A
:10356000B4F9000000F0FDF93100C9B2B4F902006D
:10357000FFF7E8FFB4F90200FFF7A2FFB4F9020079
:10358000FFF790FF70BD0000F8B504000E001700B3
:103590001D00002C01D0012000E000204FF4077234
:1035A0000849C0B2FFF7B0F8002067600021217021
:1035B00066700021A1600021E16025616561C0B2F3
:1035C000F2BD0000F0920810002200F0E1B9000006
:1035D0002DE9F44FDFF8D822DFF8D8321B68DFF886
:1035E000D8422468DFF8D4522D68DFF8D4623668F8
:1035F000DFF8D0723F68DFF8D0C2DCF800C0DFF837
:10360000CCE2DEF800E0DFF8C882D8F80080DFF80E
:10361000C492D9F80090DFF8C0A2DAF800A0002820
:1036200000F01581002900F012810A68022A06D1F3
:1036300091F82620002A02D15FF0000B03E0D1F8B8
:1036400004B0BBF1010B91F82420002A01D0012223
:1036500000E0002262F3104333F440436BF30303B2
:10366000022262F3196303600A7812F0030262F324
:103670001964046491F82520002A01D0012200E099
:10368000002262F38615CA7E002A01D0012200E0E2
:10369000002262F38A254A7E002A01D0012200E03E
:1036A000002262F308258A7E002A01D0012200E070
:1036B000002262F349258A6B521E12F00F0262F358
:1036C00013450A69521E12F00702ED08ED0015437A
:1036D0004A6962F304154A69520862F34515856424
:1036E0000A7B002A01D0012200E0002262F30826B2
:1036F0000A7E002A01D0012200E0002262F349265E
:103700008A68521E12F01F02760976011643C0F82D
:1037100000630A7F02F0FF023F0A3F02174391F85D
:10372000202002F0FF0262F31747C0F8107391F8EF
:103730002720002A01D0012200E0002262F3082C99
:103740000A69521E12F007025FEADC0C5FEACC0C39
:1037500052EA0C0C4A6962F3041C4A69520862F38B
:10376000451CC0F844C00A7B002A01D0012200E0B9
:10377000002262F3082E8A68521E12F01F025FEACE
:103780005E1E5FEA4E1E52EA0E0E0A68012A01D141
:10379000012200E0002262F3104EC0F800E291F82E
:1037A0003C2002F0FF025FEA18285FEA082852EA8C
:1037B0000808C0F8048391F82820002A01D00122CB
:1037C00000E0002262F35969CA6A012A01D101228C
:1037D00000E0002262F318694A6B012A01D101233B
:1037E00000E00023009A63F3104991F8303003F0B1
:1037F000FF035FEA19295FEA092953EA0909C0F8BA
:10380000509091F8443003F0FF035FEA1A2A5FEA10
:103810000A2A53EA0A0AC0F804A28B6CC0F8883F4F
:10382000096CC0F8C81F002A10D00020506000208A
:103830001060002090600020D06000201062002006
:10384000D06200201063DFF8940050630022100063
:10385000BDE8F28FDFF8881001605FF44011016469
:103860000021816440F20711C0F800130022C0F863
:1038700004230022C0F8102300224264C0F8001282
:103880000021C0F80412002101650021C0F8C81E03
:103890000021C0F8881E0021C0F8C81F0021C0F810
:1038A000881F0021C0F8081F0021C0F8481F70477A
:1038B0000160AA00E4960810E8960810EC9608103B
:1038C000F0960810F4960810F8960810FC96081068
:1038D000009708100497081008970810EFCDAB0068
:1038E0000F00000330B40021234A1368234A1468F0
:1038F000002832D0224A1568C5F303250E2D0FD0BB
:103900001268C2F303220D2A28D1827812F00F0226
:103910002409240114430279002A15D0012214E05D
:10392000827812F00F021B091B0113430279002A4F
:1039300001D0012200E0002262F3DF73114AB0F9E6
:10394000000042F8203009E0002262F3DF740E4AE2
:10395000B0F9000042F8204000E00649080030BC01
:1039600070470A4B1A68002A03D01A6800B242F85E
:1039700020107047010056000C970810109708108F
:103980000000204000A0204000C02040EC0602289B
:1039900000B500BF130096469446103928BFA0E832
:1039A0000C50FAD85FEA417C28BF0CC048BF40F8F1
:1039B000042BC90728BF20F8022B48BF00F8012BB1
:1039C00000BD000010B5DFF8AC42200000F0A9FDFA
:1039D000DFF8A40290ED001ADFF8A002D0ED000A93
:1039E000DFF89C0290ED000A200000F0B3FDDFF844
:1039F0001446200000F095FDDFF80C0690ED001A4B
:103A0000DFF80806D0ED000ADFF8040690ED000AA2
:103A1000200000F09FFDDFF8FC45200000F081FD54
:103A2000DFF8F40590ED001ADFF8F005D0ED000A9C
:103A3000DFF8EC0590ED000A200000F08BFDDFF8C8
:103A4000E445200000F06DFDDFF8DC0590ED001A84
:103A5000DFF8D805D0ED000ADFF8D40590ED000AB4
:103A6000200000F077FDDFF8CC45200000F059FD84
:103A7000DFF8C40590ED001ADFF8C005D0ED000AAC
:103A8000DFF8A40890ED000A200000F063FD10BDEF
:103A9000E0B5FFF797FF694601A8DFF85428D2ED9B
:103AA000000ADFF87C2992ED000A00F0B1FE0099CF
:103AB000019800F09BFF07BD00EE900ADFF8340884
:103AC000F8EEE00A30EE600A80ED000ADFF85419E3
:103AD00091ED000AD0ED000A30EE200A81ED000AD7
:103AE00091ED000ADFED5A0AB4EE600AF1EE10FA29
:103AF00001DB5F4A0A609FED570AD1ED000AF4EE40
:103B0000400AF1EE10FA01D581ED000ADFF818291C
:103B1000584B93ED000AD0ED000A20EE200AD3EDB9
:103B2000010A91ED001A00EE810A82ED000A92ED81
:103B3000000ADFED490AB4EE600AF1EE10FA02DB8A
:103B4000DFF8E8081060BBEE020AD2ED000AF4EEDE
:103B5000400AF1EE10FA01D582ED000A92ED000A5A
:103B600070470000DFF88407D0ED001A31EE811AAB
:103B700031EE401AB1EE600ADFF88804D0ED020A97
:103B800020EE200AD0ED000A00EEC10ADFF8A008FE
:103B900080ED001ADFED310AB4EE600AF1EE10FAA2
:103BA00001DB9FED2F0ADFED2F0AB4EE600AF1EE84
:103BB00010FA01D5B0EE600A7047000030EE600ADE
:103BC000DFF87008D0ED000A70EE800AC0ED000A40
:103BD000D0ED000A9FED241AF4EE410AF1EE10FA3E
:103BE00002DBDFF854180160DFED200A90ED001AC7
:103BF000B4EE601AF1EE10FA01D5C0ED000ADFF85C
:103C00003018DFF82024D2ED000A60EE800A92ED31
:103C1000011AD0ED001A41EE210A91ED001A30EEA2
:103C2000411AD2ED021A41EE210A81ED000AB1EEED
:103C3000600A7047010041F64170814202DB4FF497
:103C4000FA5004E0DFF8F407814200DB0800704717
:103C50000100FA440000FAC40100904101409C4573
:103C600000409C4500409CC50180BB440080BBC413
:103C70000000FA447C0C0228FC060228AC0E022844
:103C8000F80602282DE9F0472DED028BDFF8B0474A
:103C9000DFF8B007B0F91010494200EE101AB8EE84
:103CA000C00A84ED000ADFF8A057B0F912004042C4
:103CB00000EE100AB8EEC00A85ED000A94ED000A85
:103CC000D5ED000A30EE600AF0EE000A80EE200A20
:103CD000DFF8780780ED000ADFF87467D84F386B9B
:103CE0003060DFF87087D8F80000401CC8F800008A
:103CF000DFF86407006801281CD19FEDBF1ADFEDD3
:103D0000BE0A9FEDBD0ADFF8540700F023FC9FEDCB
:103D1000BA1ADFEDB90A9FEDB80ABA4800F01AFCEA
:103D20009FEDB51ADFEDB40A9FEDB30ABD4800F070
:103D300011FC27E0DFF8280790ED001ADFF82407D0
:103D4000D0ED000ADFF8200790ED000ADFF80C073D
:103D500000F000FCAC4890ED001AAC48D0ED000A31
:103D6000AB4890ED000AA74800F0F4FBAE4890ED98
:103D7000001AAE48D0ED000AAD4890ED000AA948FF
:103D800000F0E8FB0520D8F80010D8F8002092FBDE
:103D9000F0F200FB121000285DD1DFF8D00690EDA4
:103DA000000AB5EE400AF1EE10FA2ADDDFF8C096FF
:103DB000DFF8C0A69AED000AD9ED000A30EE600ADD
:103DC000D4ED000AFDEEE00A10EE900AFFF774FE53
:103DD000DFF8A40680ED000A9AED000AD9ED000A8A
:103DE00030EE200AD5ED000AF1EE600AFDEEE00AA1
:103DF00010EE900AFFF760FEDFF8800680ED000A03
:103E000029E0DFF86C96DFF86CA69AED000AD9ED90
:103E1000000A30EE200AD4ED000AFDEEE00A10EEB2
:103E2000900AFFF749FEDFF8500680ED000A9AED90
:103E3000000AD9ED000A30EE600AD5ED000AF1EE75
:103E4000600AFDEEE00A10EE900AFFF735FEDFF89B
:103E50002C0680ED000A98F80000C00717D4DFF8A0
:103E6000180690ED001AD7ED000A96ED000AFFF74C
:103E700079FEF0EE408ADFF8040690ED001AD7EDE7
:103E8000000A96ED000AFFF76DFEB0EE408AD7ED0E
:103E9000000AB1EE680AFFF791FEF0EE408AD7ED16
:103EA000000AB1EE480AFFF789FEDFF8D405006882
:103EB000012808D0DFF8BC05D0ED000AF5EE400A75
:103EC000F1EE10FA0ED1FDEEE80A10EE900ADFF8DE
:103ED000B4150880BDEEC00A10EE100ADFF8A81570
:103EE00008806BE0DFF8A40500210160D0ED000A36
:103EF0009FED421AF4EE410AF1EE10FA04D50121C9
:103F0000DFF88C25116011E0D0ED000A9FED3C1A1E
:103F1000F4EE410AF1EE10FA04D50221DFF8702523
:103F2000116003E00021DFF868251160DFF86415F7
:103F3000FDEEE80A10EE902A12B200EE902AF8EE9A
:103F4000E00A90ED001AF7EE001A31EE211A60EE49
:103F5000810AB1F90020022392FBF3F212B201EEC2
:103F6000102AB8EEC11A70EEC10AFDEEE00A10EE9A
:103F7000902ADFF810351A80BDEEC00A10EE102A24
:103F800012B200EE102AB8EEC00AF7EE000A90ED69
:103F9000001A70EEC10AB1F90000022190FBF1F0A5
:103FA00000B201EE100AB8EEC11A00EE201ABDEE02
:103FB000C10A10EE100ADFF8D0140880DFF8C444FC
:103FC000B4F90000FFF736FE00B240422080DFF86F
:103FD000B854B5F90000FFF72DFE2880B5F90010A0
:103FE000494209B2B4F90000404200B200F0A5FD18
:103FF000BDEC028BBDE8F08700000000CDCC4C3E4C
:1040000001000040AC0C022804070228B00E022870
:1040100000070228DC0C02282407022820070228B7
:104020001C0702280C0D0228100702280C07022882
:10403000080702283C0D022818070228B40E02289F
:10404000FC0B02282DE9F0412DED048B84B0040017
:104050000D00DFF8446496ED0C0ADFEDA70A80EE50
:10406000200AB7EEC00A9FEDA52B20EE020B00F050
:10407000C9FD9FEDA42B20EE020BB7EEC08BB7EE6F
:10408000C80A53EC102BDFF8140400F001FF9FED79
:104090009F0AB4EE408AF1EE10FA02DB9FED9C8A93
:1040A00008E09FED9C0AB4EE408AF1EE10FA01D5CB
:1040B000B0EE408A9FED980ADFF8E40360EE080A4C
:1040C000B7EE001A31EE400A90ED001A40EE010AF8
:1040D000C0ED000AC4ED000ADFF8C873380000F034
:1040E00020FADFF8C40390ED001ADFF8C003D0ED2A
:1040F000000ADFF8BC0390ED000A380000F02AFA4D
:10410000DFF8B003F86096ED0B0A9FED848ADFF8C4
:10411000A863307800F00AF93078002803D0DFF87F
:104120009C0380ED000AB6EE001ADFF89003D0ED94
:10413000000A60EE810A40EE010AC0ED000A38EE86
:10414000408ADFF82883B0EE480A380000F009FA08
:1041500088ED000AB0EE040AB7EEC00AB7EEC81A3E
:10416000B0EEC11BB4EE401BF1EE10FA04D50020F6
:10417000C8F800000020386295ED008ADFED688AFB
:10418000F0EE680A98ED000A38EE400A00F0B0F947
:104190009FED649AF0EE490A00F0A2F9F0EE680A89
:1041A00098ED000A38EE000A00F0A2F9F0EE490A94
:1041B00000F096F902A903A8D5ED000A94ED000AD3
:1041C00000F026FB694601A8D5ED000A94ED000A2F
:1041D00000F01EFB307800280DD00398B849086025
:1041E0000298B84908600198B74908600098B74933
:1041F000086000203070B648B14D9DED030AB8EE5E
:10420000C00AD0ED000A20EE200AD5ED000AF8EE33
:10421000E00AB7EE001AD0ED001A31EE611A00EE96
:10422000810ABDEEC00A8DED030AA64E9DED020A7D
:10423000B8EEC00AD0ED000A20EE200AD6ED000A42
:10424000F8EEE00AB7EE001AD0ED001A31EE611A6E
:1042500000EE810ABDEEC00A8DED020A9A4F9DED77
:10426000010AB8EEC00AD0ED000A20EE200AD7ED10
:10427000000AF8EEE00AB7EE001AD0ED001A31EEAF
:10428000611A00EE810ABDEEC00A8DED010A8F4C65
:104290009DED000AB8EEC00AD0ED000A20EE200A1B
:1042A000D4ED000AF8EEE00AB7EE001AD0ED001ADD
:1042B00031EE611A00EE810ABDEEC00A8DED000AF2
:1042C0000299039800F0B6FB0099019800F0CAFB30
:1042D0000398286002983060019838600098206048
:1042E00004B0BDEC048BBDE8F0810000A40E0228F0
:1042F000F4060228580E0228000034431F85EB51B3
:10430000B81E09401904560E2DB29DBF0BD7233D90
:104310000AD7233D0AD723BDCDCCCC3E00000000F8
:10432000295C0F3ECDCCCC3C1407022830B585B0BB
:10433000C0B200280DD0002005E0664901EB8001E5
:1043400081ED000A401C0528F7DB634880ED000A78
:1043500064E0F1EE000A604C94ED001A30EE411A70
:10436000B7EEC11AB0EEC11BB7EEE02AB4EE412B96
:10437000F1EE10FA0FD594ED001AB4EE401AF1EEFA
:1043800010FA04D594ED000A30EE200A03E094ED13
:10439000000A30EE600A0520504A4E49136815683D
:1043A00095FBF0F500FB153001EB800080ED000A75
:1043B0001068401C106014226D462800FCF76EFE49
:1043C000002023E069466B4603EB820393ED010A6C
:1043D00001EB8203D3ED000AB4EE600AF1EE10FAAD
:1043E0000ED501EB820393ED000A6B4603EB8203CB
:1043F0005B6841F82230694601EB820181ED010AD8
:10440000521CD0F104018A42DCDB401C042801DA92
:104410000022F6E70298206094ED000A05B030BD56
:10442000A80E02285C0E0228540E022800009041BB
:10443000440E0228600E02280080BB44C0E0FFFF4B
:10444000240E0228F80D0228280E0228200E022829
:10445000480E0228380E02284C0E02287C0C022836
:10446000FC060228AC0E0228F80602282C0E0228B0
:104470009C0E0228F00602283C0E0228400E02285C
:10448000500E0228E00E0228E20E0228340E022806
:10449000300E0228E80E0228FC0B02287096081045
:1044A000640E02286C0D02282C070228B80E022880
:1044B000280702280AD7233CC6070228680E0228CC
:1044C0006C0E0228700E0228740E0228780E022844
:1044D00044970810E40D02287C0E0228800E022862
:1044E000F4EE400AF1EE10FA01D4B0EE600A704723
:1044F000B4EE600AF1EE10FA01D4B0EE600A704733
:10450000B4EE600AF1EE10FA02D5B0EE600A07E0F0
:10451000B4EE401AF1EE10FA02D5B0EE410AFFE710
:10452000704700210160002141600021816000216D
:10453000C1600021016100214161002181610021F0
:10454000C1610021016200214162002181620021DC
:10455000C162704780ED000AC0ED010A80ED021AC9
:10456000704710B52DED028B0400B0EE408A94ED3B
:10457000080A30EE080A84ED080A94ED031A94ED57
:10458000030AF1EE400A94ED080AFFF7B9FF84ED43
:10459000080A94ED000A20EE080A84ED040A94ED5E
:1045A000010AD4ED080A20EE200A84ED050A94EDF4
:1045B000090A38EE400AD4ED020A20EE200A84ED02
:1045C000060A84ED098A94ED040AD4ED050A30EE5A
:1045D000200AD4ED060A30EE200A84ED070A94ED95
:1045E000070ABDEC028B10BD38B52DED0C8BB0EE7B
:1045F000408AF0EE608A04000D00B7EEC80A9FED15
:10460000792B30EE020BB7EEC01B9FED789BB0EE1E
:1046100000CA21EE0C0AB7EEC00A20EE090BB7EE75
:10462000C00B68EE8C0AB7EEE02A22EE092BF7EEFB
:10463000C20B9FED70AB9FED71BB21EE011A08EE2E
:10464000A81AB7EEC11A31EE0B1B31EE0A1BF7EEBA
:10465000C1CB20EE00DA00EEA0DAB0EE4D1A0CEE7F
:10466000EC1AB5EE401AF1EE10FA41DBB7EEC01AC3
:10467000B7EEE00A00F020FCF7EEC0DBB7EECD0AA3
:1046800000F05AFCB7EEEC1A81EE000B00F064FC6F
:10469000B7EEC00B3DEE800AB7EEC00A9FED592B76
:1046A00020EE020BB7EEC00B84ED000A07E094ED9C
:1046B000000ADFED560A30EE200A84ED000A94ED80
:1046C000000ADFEDAE0AB4EE600AF1EE10FAEEDA9F
:1046D00094ED000AB5EE400AF1EE10FA0AD594ED19
:1046E000000ADFEDA70A30EE200A84ED000AEFE7AA
:1046F000A4482060B7EEC80A9FED9E2B30EE020B57
:10470000B7EEC01B21EE0C0AB7EEC00A20EE090B73
:10471000B7EEC00B68EE8C0AB7EEE02A22EE092B4A
:10472000F7EEC20B21EE011A08EEA81AB7EEC11A75
:1047300031EE0B1B31EE0A1BB7EEC18B60EE008A27
:1047400040EEA08AB0EE681A08EE481AB5EE401A9C
:10475000F1EE10FA41DBB7EEC01AB7EEE00A00F056
:10476000ABFBB7EEC09BB7EEE80A00F0E5FBB7EE97
:10477000C81A81EE000B00F0EFFBB7EEC00B39EE6C
:10478000400AB7EEC00A9FED1F2B20EE020BB7EEDA
:10479000C00B85ED000A07E095ED000ADFED1B0A6E
:1047A00030EE200A85ED000A95ED000ADFED730A70
:1047B000B4EE600AF1EE10FAEEDA95ED000AB5EE0D
:1047C000400AF1EE10FA0AD595ED000ADFED6C0A09
:1047D00030EE200A85ED000AEFE76A482860BDEC5C
:1047E0000C8B31BDDBF97E6ABC74933FB81E85EB40
:1047F00051B8AE3F82E2C798BB9680BF92CB7F484C
:10480000BF7D6D3FF8C1631ADCA54C400000B4C306
:104810003EB505000C00694601A8FFF7E5FE9FEDD7
:10482000590ADDED010AF4EE400AF1EE10FA06D065
:10483000DDED000AF4EE400AF1EE10FA09D161480C
:10484000006828606048006820604F4800F020FB46
:104850008FE09FED4E0ADDED010AF4EE400AF1EE25
:1048600010FA01D58DED010A9DED010ADFED480A30
:10487000B4EE600AF1EE10FA01DB464801909DEDBE
:10488000000ADFED450AB4EE600AF1EE10FA0ADB29
:104890009DED000ADFED4A0AB4EE600AF1EE10FA6F
:1048A00001D53E4800909DED000ADFED450AB4EECB
:1048B000600AF1EE10FA0ADB9FED390ADDED000A1D
:1048C000F4EE400AF1EE10FA01D58DED000A9FEDED
:1048D000350ADFED350A9DED011ADFED341A31EEB0
:1048E000211ADFED371A81EE211AF0EE401A41EE5F
:1048F000201ABDEEE11A85ED001A9DED001ADFEDDC
:104900002C1AB4EE611AF1EE10FA10DB9DED001ACC
:10491000DFED281A31EE211ADFED291A81EE211A76
:1049200001EE200ABDEEC00A84ED000A1BE09DEDF9
:10493000001ADFED211AB4EE611AF1EE10FA10D56B
:104940009DED001ADFED1D1A31EE211ADFED1C1A64
:1049500081EE211A01EE200ABDEEC00A84ED000AA4
:1049600001E0FA202060286816490860206816498E
:10497000086037BDDBF97E6ABC7493BF0100B443A5
:104980000000B4430000C843409608100000C6422F
:1049900001808243008082430100A2420000A242C3
:1049A00000808B4300007A4300007A440000B4C2C8
:1049B00000008743000087C30100B4420000B442F6
:1049C00000003443880E02288C0E022840F2DC518D
:1049D000081A704740F2CF41884202D340F2CE40DD
:1049E00003E0FA2801D2FA20FFE7704738B50D003E
:1049F000FFF7F0FF04002800FFF7ECFF05002000A0
:104A0000FFF7E4FF020032211420FDF7FBFB280032
:104A1000FFF7DCFF020032211220FDF7F3FB2A0032
:104A200032211020FDF7EEFB220032210E20FDF78F
:104A3000E9FB31BD38B50D00FFF7CCFF04002800BD
:104A4000FFF7C8FF05002000FFF7C0FF010014209A
:104A5000FDF7ABFB2800FFF7B9FF01001220FDF7BF
:104A6000A4FB31BD38B50D00FFF7B4FF04002800EA
:104A7000FFF7B0FF01001020FDF797FB21000E208B
:104A8000FDF793FB31BD00001CB569460220FEF71F
:104A9000D7FA002850D09DF80000A52805D14D4830
:104AA000C179A52901D0002181734A4B9DF80000EE
:104AB000997B1944C871987B401C9873987B072890
:104AC0003ADBD879A5282FD10020D873002106E041
:104AD000DA7B03EB0100C0798218DA73491C0629DE
:104AE000F6DBD87B597B884215D1187A022809D188
:104AF000587A997A51EA00211982D87A197B51EAB9
:104B0000002159820020987307210022DC1D20001B
:104B1000FDF78AFE10E00020987307210022DC1DBB
:104B20002000FDF781FE07E0002098730721002296
:104B3000DC1D2000FDF778FE13BD80B5254BA522B6
:104B40001A7001225A70020012B212129A70D870B2
:104B5000080000B2001218715971002098710021EC
:104B600004E09A79585C82189A71491C0629F8DB8E
:104B7000072219000220FEF746FA01BD80B515494B
:104B8000A520087002204870002088700020C8709E
:104B90000020087100204871A72088710722022098
:104BA000FEF731FA01BD38B507210022094C250076
:104BB0002800FDF739FE07210022E51D2800FDF73A
:104BC00033FE0020A0730020E073002060820020EC
:104BD000208231BDF80D022880B5022302225FF445
:104BE000E1210220FEF752FB01210220FEF7CFFA5D
:104BF000FFF7D9FF00210020FFF79FFFFFF7BEFF5F
:104C000001BD00009FED822B20EE021B51EC110B29
:104C10000A4622F0004330B455EC114B1D4645ECDA
:104C2000124B9FED7D4BB4EE442BF1EE10FA2DEDBF
:104C3000068B2BD5B6EE002B51EC120B02F0004286
:104C40000A4355EC124B154645EC124B32EE011B54
:104C5000BDEEC11B11EE100A002800F09580BAEEDF
:104C6000C21B9FED6F3B01EE030B9FED6F5B01EEEF
:104C7000050B9FED6F7B01EE070B9FED6F9B01EE28
:104C8000090B9FED6F3B01EE030B7DE055EC104BE4
:104C9000690041EAD4714815C91710F1010F14D108
:104CA0004FF0FF32914208BF904208D12D0345EAF0
:104CB00014552403002D08BF002C40F0A480BDEC47
:104CC000068B9FED610B30BC704724F0000035F07F
:104CD000004108BF002800F09680B6EE002B55EC8E
:104CE000124B02F000422A4351EC120B114641ECE8
:104CF000120B32EE011B51EC110B4B0043EAD07347
:104D00004200002B08BF002A19D040F23344A4EB24
:104D10005354352C04DB00F0000001F000410CE09E
:104D2000202C03DD203CE140A14000E001D1002027
:104D300003E0002CC4BFE040A04041EC110B51EC5B
:104D4000110B20F0000231F0004308BF002A17D0F9
:104D50009FED3F3B21EE032B9FED315B02EE050BF8
:104D60009FED317B02EE070B9FED319B02EE090BAD
:104D70009FED31AB02EE0A0B9FED315B02EE050BAE
:104D8000BDEEC11B11EE100A53EC102B23F00043B3
:104D900043EC112B9FED303BB4EE431BF1EE10FAC8
:104DA00000F0030009D5C0072DD5BDEC068BBFEE82
:104DB000002B30BC82EE000B704720EE001B9FEDF5
:104DC000284B9FED296B01EE046B9FED294B9FED66
:104DD0002A7B9FED2B9B06EE017B9FED2B6B01EE5B
:104DE000046BB7EE002B20EE018B06EE019B07EE65
:104DF000012B08EE090BC00746BF82EE000BB1EE97
:104E0000400B80EE020BBDEC068B30BC704700BF40
:104E100083C8C96D305FE43F0000A0FFFFFFDF41A2
:104E200000000050FB21B9C100000060B41011C0A7
:104E30000000002026A651BE000000005C14D3BC78
:104E4000000000209A833BBBFFFFFFFFFFFFFF7FB7
:104E5000000000000000303E000000000000403E66
:104E60006C9E741E68522BBFA908265CB9E7973F59
:104E7000DB9955949A63DFBED5FFB699218BDDBFD0
:104E80006955C388986BC0BFD625F78675FC663F09
:104E90000EB4C0B5024603A800210190009101ABF9
:104EA0000121044878440C30FBF7EDF806BC5DF8AE
:104EB00010FB00BF7547000052EC113B51EC10CBCA
:104EC000B0EEC00BB0EEC11BC80F4900520028BFA6
:104ED0000C3011F5001F34BF12F5001F10E06345C0
:104EE00072EB010C38BF80F0040013431AD003D2D8
:104EF00081EE000B00F070B880EE010B00F06CB892
:104F000011F5001F08BF80F0040094BF12F5001FC8
:104F10000CE08A424FF0000312BF00224FF07C5297
:104F200042F4700242EC103B00F056B86FF00041C2
:104F300020EE101B70470000B5EEC00BF1EE10FA2A
:104F400002D4B1EEC00B70476FF0004C20EE10CBD6
:104F5000AFF300807047000030EE101B9FED1A2B5E
:104F60009FED1B3BB0EEC00B4FEA410C1CF5001F40
:104F700094BFB4EE403B23E00420C90FF1EE10FAD9
:104F800033EE401B33EE004BB4EE402B12D400EB5B
:104F90008100F1EE10FA24EE011BB1EEC11B05D524
:104FA00080F0040081EE000B00F016B880EE010BDB
:104FB00000F012B86FF0004020EE100BAFF300804D
:104FC0007047000000000000CE3B7F669EA0E63FD9
:104FD000000000000000F03F21A1B1EC061BB4EE80
:104FE000410BF1EE10FA09DBB1EE424B33EE001B40
:104FF00000EE034B84EE010B40F0020030EE10CBCC
:10500000B1EC063B2CF0004CBCF1795F15D320EEDF
:10501000001B03EE014B20EE013B04EE015B05EEAD
:10502000030BB1EC083B03EE014B04EE015B05EE14
:10503000016B06EE012B80EE020B38BF20314008D9
:1050400010F0020F18BFB1EE400B01EBC00191ED63
:10505000001B30EE010B28BFB1EE400B7047000083
:1050600057CD9E5E1426D13F000000000000F03FA7
:10507000AA4C58E87AB6FB3F845D57134B57B03FB4
:10508000B2934C19ED5EE43FBEDE02B90240F83F38
:10509000DE39028FC7C0743F8AAB1283000CC83F51
:1050A00024D7E508B6D8F03F0F34580E5895FD3F89
:1050B000000000000000000066732D3852C1E03F80
:1050C000182D4454FB21F93F66732D3852C1F03F2F
:1050D000182D4454FB21F93F66732D3852C100400E
:1050E000182D4454FB2109403FD038C6A6F1044096
:1050F0002DE9F041BDF91840BDF91C50BDF9206003
:10510000BDF92470BDF928C0DFF8D8EADFF8D88AE5
:1051100000B200EE100AB8EEC00AD8ED000A80EE28
:10512000200A8EED030A09B200EE101AB8EEC00A8A
:10513000D8ED000A80EE200A8EED040A12B200EECD
:10514000102AB8EEC00AD8ED000A80EE200A8EEDD3
:10515000050A1BB200EE103AB8EEC00AD8ED010AFB
:1051600080EE200A8EED000A24B200EE104AB8EE5E
:10517000C00AD8ED010A80EE200A8EED010A2DB298
:1051800000EE105AB8EEC00AD8ED010A80EE200AEF
:105190008EED020A36B200EE106AB8EEC00AD8ED03
:1051A000020A80EE200A8EED060A3FB200EE107A67
:1051B000B8EEC00AD8ED020A80EE200A8EED070A8A
:1051C0000FFA8CFC00EE10CAB8EEC00AD8ED020A45
:1051D00080EE200A8EED080ABDE8F08180ED000A1D
:1051E000C0ED010A80ED021AC0ED031A80ED042A19
:1051F000C0ED052AB7EE000A80ED110A80ED100A15
:1052000080ED0F0A80ED0E0A80ED0D0A80ED0C0A8C
:105210009FED0E0A80ED170A80ED160A80ED150A43
:1052200080ED140A80ED130A80ED120A9FED070A43
:1052300080ED080A80ED070A80ED060A0021416230
:10524000002181620021C16270470000000000005F
:1052500070B52DED108B90B004000D00B0EE409AAB
:10526000B0EE60BAB0EE41CAF0EE61AAB0EE42AA6A
:10527000F0EE629AF0EE43CAB0EE63DAF0EE44DA92
:10528000684600210022002380E80E009FED5B0BA2
:1052900095ED081AB7EEC11A21EE001BB7EEC18BCF
:1052A00095ED071AB7EEC11A21EE000BF7EEC08B91
:1052B00029EE090A0CEE0C0A00F098FCB5EE400A43
:1052C000F1EE10FA01D0012600E00026B0EE4BEA24
:1052D0002EEE0E0A0CEE0C0A00F088FCB5EE400A29
:1052E000F1EE10FA01D0012000E000203100C9B237
:1052F00001422AD029EE090A0CEE0C0A00F076FCD5
:105300009FED40BB6E468EEE000A00F07FFCB7EECC
:10531000C00A20EE0B0BB7EEC00B86ED020A2EEE94
:105320000E0A0CEE0C0A00F061FCFFEE000A69EEBA
:10533000200A80EE800A00F069FCB7EEC00A20EE79
:105340000B0BB7EEC00B86ED010AB0EE680A00F059
:1053500067FDB0EE409AB0EE480A00F061FDF0EE55
:1053600040BAB0EE680A00F05DFDB0EE40CAB0EEA3
:10537000680A00F057FD2CEE89BA6DEEAB0A00EE1C
:105380008CBA2DEE009AB0EE480A00F04BFD09EE03
:1053900000BAB0EE480A00F043FD2DEE009AB0EEE0
:1053A000480A00F03FFD00EE6D9AF0EE490AB0EEBB
:1053B0004B0A00F039FDB7EEC00A9FED122B20EE2C
:1053C000020BB7EEC00B8DED000A9DED000AD5ED86
:1053D000060A30EE600ADFED0D0AB4EE600AF1EE67
:1053E00010FA15DB9DED000ADFED030A30EE200A0E
:1053F0008DED000A26E000BF0000B4C3399D52A223
:1054000046DF913FF8C1631ADCA54C4001003443EC
:105410009DED000AD5ED060A30EE600ADFED050AC3
:10542000B4EE600AF1EE10FA0CD59DED000ADFED46
:10543000020A03E0000034C30000B44330EE200A47
:105440008DED000AB0EE699AF0EE4A9ACDED03AA0E
:10545000B0EE480A00F0E4FCB0EE40AAB0EE680AF4
:1054600000F0DEFCF0EE40AAB0EE480A00F0DAFCF4
:10547000B0EE40BAB0EE680A00F0D2FCD5ED0B0AEF
:1054800079EE600A60EE8A0AC0EEAA0A95ED0A1A61
:1054900039EEC11A21EE0B1A81EE000A30EE800AB5
:1054A000D5ED000A95ED061A00EE201A85ED061AD4
:1054B000B0EE480A00F0B4FCB0EE40AAB0EE480AE4
:1054C00000F0B0FCD5ED0A0A79EEE00A60EE8A0A37
:1054D00095ED0B1A31EE491A41EE000A95ED000ADE
:1054E00095ED071A00EE801A85ED071AB0EE480A0E
:1054F00000F096FCB0EE40AAB0EE680A00F0CAFCDC
:10550000F0EE40AAB0EE680A00F0C4FCB0EE40BA7B
:10551000B0EE480A00F086FCDDED030A95ED091AAD
:1055200070EEC10A2AEE2A1AD5ED0B1A79EE611A2D
:1055300041EE210A2BEE000A95ED0A1A39EEC11A46
:1055400040EE010A95ED000A95ED081A00EE801A6A
:1055500085ED081A95ED0FAAD5ED10AA95ED11BAB3
:10556000B0EE480A00F05CFCF0EE40BAB0EE680A1B
:1055700000F056FCB0EE40CAB0EE480A00F050FC15
:10558000F0EE40CAB0EE480A00F04AFCB0EE40DA55
:10559000B0EE680A00F044FCF0EE40DAB0EE680AC3
:1055A00000F03EFCD5ED0C0A95ED011A70EE810A73
:1055B00095ED171AD5ED001A21EE211A21EE2B1ABE
:1055C00081EE0C1A70EEC10A95ED001A21EE2C1A2C
:1055D000D5ED111A95ED002A61EE821A61EE8D1A51
:1055E000C1EEAD1A95ED172A72EE611A21EE211A5D
:1055F00081EE000A30EEC00A85ED0C0AB0EE480AD2
:1056000000F00EFCF0EE40BAB0EE480A00F008FCE4
:10561000B0EE40CAB0EE480A00F004FCF0EE40CA1A
:10562000B0EE480A00F0FEFBB0EE40DAB0EE480AF9
:1056300000F0F6FBF0EE40DAB0EE480A00F0F2FBC4
:10564000D5ED0D0A95ED021A70EE810A95ED101A4E
:10565000D5ED001A21EE211A21EE0C1AD5ED151AFE
:1056600031EE611AD5ED001A61EEAB1A41EE210A56
:1056700095ED001A21EE2C1AD5ED111A95ED002AA0
:1056800061EE821A95ED162A01EE8D2A41EE020A8C
:1056900095ED151AD5ED001A21EE211A41EE6D0A8D
:1056A00095ED161AD5ED001A21EE211A41EE000AE9
:1056B000C5ED0D0AB0EE680A00F0ECFB8DED050AB1
:1056C000B0EE480A00F0AEFB8DED040AB0EE680AB9
:1056D00000F0E0FBF0EE40FAB0EE480A00F0A2FB6A
:1056E000F0EE40BAB0EE480A00F09AFBB0EE40CAC5
:1056F000B0EE680A00F0CEFBF0EE40CAB0EE680AE9
:1057000000F0C8FBB0EE40DAB0EE480A00F08AFBC9
:10571000F0EE40DAB0EE480A00F082FBB0EE40EA6C
:10572000B0EE680A00F0B6FBF0EE40EAB0EE480AD0
:1057300000F076FBB0EE40FAB0EE680A00F0AAFB8B
:10574000D5ED0E0A95ED021A70EE810A95ED121A4A
:10575000D5ED001A41EE610A95ED0F1AD5ED001A4C
:1057600021EE211AD5ED121A31EE611AD5ED001A8B
:1057700041EE210A95ED101AD5ED001A21EE211AFD
:1057800021EE2F1A21EE2B1AD5ED131A31EE611AE4
:10579000D5ED001A9DED052A61EE821A9DED042AD1
:1057A00061EE821A41EE210A95ED141AD5ED001A28
:1057B00021EE211A21EE0C1A41EE6C0A95ED131A16
:1057C000D5ED001A21EE211A21EE0D1A41EE6D0AD7
:1057D00095ED111AD5ED001A21EE211A21EE0F1ABE
:1057E00021EE000A95ED141A30EE410A95ED001AEB
:1057F00021EE0E1A21EE2E1A40EE010AC5ED0E0A18
:1058000095ED0F0AD5ED030A30EE200A85ED0F0A5B
:1058100095ED100AD5ED030A30EE200A85ED100A49
:1058200095ED110AD5ED030A30EE200A85ED110A37
:10583000B0EE480A00F0F4FAF0EE40BAB0EE680AB2
:1058400000F0EEFAD5ED000A6BEE200A60EEAB0A2E
:1058500080EE800AD5ED170A30EEC00A85ED170AF2
:10586000B0EE480A00F0DCFAD5ED000A6AEEA00AB4
:1058700095ED151A00EEC01A85ED151AB0EE480A1E
:1058800000F0D0FAD5ED000A6BEE200A95ED161A5D
:1058900000EE801A85ED161A95ED000AD5ED120A74
:1058A0004AEE400AC5ED120AB0EE680A00F0F2FABC
:1058B000B0EE40AAB0EE480A00F0B4FAD5ED000A06
:1058C0006AEEA00A60EE8A0A95ED131A00EEC01A7D
:1058D00085ED131AB0EE480A00F0A2FAB0EE408A45
:1058E000B0EE680A00F0D6FAD5ED000A6BEE200A99
:1058F00060EE880A95ED141A00EEC01A85ED141AB0
:105900009DED000AD5ED060A30EE600A8DED060A1F
:1059100006A9684690ED010AD5ED070A30EE600A47
:1059200081ED010A90ED020AD5ED080A30EE600A19
:1059300081ED020A95ED0C0AD5ED040A30EE200A3D
:10594000D5ED0C0A80EE800AD5ED0D0A95ED051A0D
:1059500070EE810A95ED0D1AC1EE200A95ED0E1A32
:10596000D5ED051A31EE211AD5ED0E1A81EE811A08
:10597000D5ED0E1A95ED052A71EE821A95ED122AD3
:10598000C2EE211A95ED0D2AD5ED052A32EE222A16
:10599000D5ED152A82EE822AD5ED0E2A95ED053A2F
:1059A00072EE832A95ED133AC3EE222A95ED0C3A56
:1059B000D5ED043A33EE233AD5ED173A83EE833A28
:1059C000D5ED0D3A95ED054A73EE843A95ED164AFC
:1059D000C4EE233A95ED0E4AD5ED054A34EE244A3D
:1059E000D5ED144A84EE844ADDED064A95ED065A5B
:1059F00000EE245A85ED065AD1ED014A95ED075A7D
:105A000000EEA45A85ED075AD1ED024A95ED085AE9
:105A100001EE245A85ED085AD1ED024A95ED095A56
:105A200001EEA45A85ED095AD1ED014A62EE244AED
:105A300091ED025A42EE854A95ED0A5A74EE854A76
:105A4000C5ED0A4ADDED064A63EE244A91ED015A9E
:105A500043EE854A91ED025A44EE054A95ED0B5A04
:105A600074EE854AC5ED0B4AD5ED0C4A95ED0C5AFE
:105A700004EEC05A85ED0C5AD5ED0D4A95ED0D5A40
:105A800004EEE05A85ED0D5AD5ED0E4A95ED0E5A0D
:105A900004EEC15A85ED0E5AD5ED124A95ED0F5A16
:105AA00004EEE15A85ED0F5AD5ED151A62EE211A72
:105AB00095ED132A42EE821A95ED102A72EE611AC4
:105AC000C5ED101AD5ED171A63EE211A95ED162AB9
:105AD00043EE821A95ED142A44EE021A95ED112A2E
