:020000041008E2
:100000000000082895950810D19D0810A59A0810A1
:10001000D59D0810D99D0810DD9D08100000000036
:10002000000000000000000000000000619B0810BC
:10003000E19D081000000000E59D0810E99D0810F2
:100040001B94081041940810679408108D940810B0
:10005000B3940810D9940810FF940810259508103F
:10006000ED9D0810F19D0810F59D0810F99D0810F0
:10007000FD9D0810019E0810059E0810099E08109D
:1000800010B5DFF87C43200000F0CBFFDFF87403ED
:1000900090ED001ADFF80407D0ED000ADFF8000742
:1000A00090ED000A200000F0D5FFDFF8F8462000B0
:1000B00000F0B7FFDFF8F00690ED001ADFF8EC066D
:1000C000D0ED000ADFF8E80690ED000A200000F00D
:1000D000C1FFDFF8E046200000F0A3FFDFF8D806FC
:1000E00090ED001ADFF8D406D0ED000ADFF8D00654
:1000F00090ED000A200000F0ADFFDFF8C8462000B8
:1001000000F08FFFDFF8C00690ED001ADFF8BC06A4
:10011000D0ED000ADFF8B80690ED000A200000F0EC
:1001200099FFDFF8B046200000F07BFFDFF8A8065B
:1001300090ED001ADFF8A406D0ED000ADFF8A00663
:1001400090ED000A200000F085FF10BDE0B5FFF73C
:1001500097FF6A4601A9DFF89406D0ED000ADFF8A0
:10016000D80C90ED000A002001F010FA00990198D7
:1001700001F0ABFA07BD000000EE901AF8EEE00ABD
:1001800030EE600A80ED010A90ED020AD0ED010A1E
:1001900030EE200A80ED020A90ED020ADFED880AB7
:1001A000B4EE600AF1EE10FA01DB944981609FED34
:1001B000850AD0ED020AF4EE400AF1EE10FA01D5FC
:1001C00080ED020A8E4991ED000AD0ED010A20EE81
:1001D000200AD1ED010A90ED021A00EE810A80EDAD
:1001E000000A90ED000ADFED780AB4EE600AF1EE45
:1001F00010FA02DBDFF8481C0160BBEE020AD0ED0A
:10020000000AF4EE400AF1EE10FA01D580ED000A82
:1002100090ED000A70470000DFF8CC05D0ED001A21
:1002200031EE811A31EE401AB1EE600ADFF8740542
:10023000D0ED020A20EE200AD0ED000A00EEC10A3D
:10024000DFF8AC0580ED001ADFED600AB4EE600A5D
:10025000F1EE10FA01DB9FED5E0ADFED5E0AB4EE0F
:10026000600AF1EE10FA01D5B0EE600A70470000A6
:1002700030EE600ADFF87C05D0ED000A70EE800AEF
:10028000C0ED000AD0ED000A9FED531AF4EE410ACA
:10029000F1EE10FA02DBDFF860150160DFED4F0AC6
:1002A00090ED001AB4EE601AF1EE10FA01D5C0ED2F
:1002B000000ADFF84815D1ED000A70EE600ADFF899
:1002C000042592ED001A21EE001AD2ED011A90EDEC
:1002D000002A01EE821AD2ED021A01EEA01A81ED77
:1002E000000AB1EE410A7047010041F641708142B7
:1002F00002DB4FF4FA5004E0DFF8440C814200DBEB
:100300000800704730EE600A03E0DFED350A30EE9A
:10031000200ADFED340AB4EE600AF1EE10FAF4DAE6
:10032000DFED310AB4EE600AF1EE10FA04D5DFED2C
:100330002F0A30EE200AF3E770470000DFED2C0AA9
:10034000B4EE600AF1EE10FA04DBDFED250A30EEC0
:10035000200A0AE0DFED270AB4EE600AF1EE10FA97
:1003600003D5DFED220A30EE200AB1EE400A7047D5
:1003700080B52DED028BB0EE408AB0EE600AFFF73B
:10038000DDFFF0EE480AFFF7BDFFB7EEC01AB0EE92
:10039000C11BB7EE083BB4EE431BF1EE10FA02D5D9
:1003A0009FED150A09E0DFF80C0400F05AFE9FEDFE
:1003B000131ADFED040A00F023FEBDEC028B01BD31
:1003C0000100FA440000FAC40100904101409C453C
:1003D00000409C4500409CC50180BB440080BBC4DC
:1003E0000000B4C301003443000034C30000B44330
:1003F00000003443FFFF33C3000000000000FA4454
:10040000940C0228240F02282DE9F8432DED028BCD
:10041000DFF8301A087800280CD0DFF82C0A0078B2
:10042000002807D0DFF8BC03806ADFF8182B1060C3
:1004300000200870DFF8106BDFF8100BB0F9101017
:10044000494200EE101AB8EEC00A86ED000ADFF845
:10045000007BB0F91200404200EE100AB8EEC00A6C
:1004600087ED000A96ED000AD7ED000A30EE600A2B
:10047000F0EE000A80EE200ADFF8D80A80ED000ACC
:10048000DFF8D44AD74D286B2060DFF8D08AD8F83F
:100490000000401CC8F80000DFF8C40A006801280A
:1004A0001CD19FEDBD1ADFEDBC0A9FEDBB0ADFF842
:1004B000B40A00F0CFFD9FEDB81ADFEDB70A9FED4B
:1004C000B60AB84800F0C6FD9FEDB31ADFEDB20AD8
:1004D0009FEDB10ABB4800F0BDFD31E0DFF8880AAE
:1004E00090ED001AAD48D0ED000AAD4890ED000A3D
:1004F000DFF8700A00F0AEFDAB4890ED001AAB4893
:10050000D0ED000AAA4890ED000AA64800F0A2FD2E
:10051000AD4890ED001AAD48D0ED000AAC4890ED22
:10052000000AA84800F096FDA34890ED001AA348E1
:10053000D0ED000AA24890ED000A9E4800F08AFD26
:1005400098F8000010F0030F65D1DFF8200A90ED55
:10055000000AB5EE400AF1EE10FA2EDDDFF8108A3F
:10056000DFF8109A99ED000AD8ED000A30EE600A23
:10057000D6ED000AFDEEE00A10EE901ADFF8F80959
:10058000FFF7FAFDDFF8F40980ED000A99ED000AA3
:10059000D8ED000A30EE200AD7ED000AF1EE600A2D
:1005A000FDEEE00A10EE901ADFF8D409FFF7E4FD43
:1005B000DFF8D00980ED000A2DE0DFF8B489DFF81C
:1005C000B49999ED000AD8ED000A30EE200AD6ED74
:1005D000000AFDEEE00A10EE901ADFF89C09FFF722
:1005E000CBFDDFF8980980ED000A99ED000AD8EDFF
:1005F000000A30EE600AD7ED000AF1EE600AFDEE67
:10060000E00A10EE901ADFF87809FFF7B5FDDFF881
:10061000740980ED000ADFF87069DFF8607997ED02
:10062000001AD5ED000A94ED000AFFF7F5FD86EDFE
:10063000000ADFF85889DFF84C9999ED001AD5EDDA
:10064000000A94ED000AFFF7E7FD88ED000AD5EDFA
:10065000000A96ED000AB1EE400AFFF709FEB0EE7F
:10066000408AD5ED000A98ED000AB1EE400AFFF786
:10067000FFFDF0EE408ADFF818090068012808D075
:10068000DFF8F00890ED000AB5EE400AF1EE10FA3E
:100690000ED1BDEEC80A10EE100ADFF8F818088077
:1006A000BDEEE80A10EE100ADFF8EC1808803BE017
:1006B000DFF8E848DFF88C08D0ED000A95ED0A0A6B
:1006C000FFF756FE84ED000ABDEEC80A10EE100AD0
:1006D00000B200EE100AB8EEC00AD4ED000AB7EE80
:1006E000001A70EE810A20EE200ABDEEC00A10EE5C
:1006F000100ADFF8A0180880BDEEE80A10EE100A14
:1007000000B200EE100AB8EEC00AF7EE000A94ED4F
:10071000001A70EEC10A20EE200ABDEEC00A10EEEB
:10072000100ADFF874180880DFF86848B4F9000090
:10073000FFF7DAFD00B240422080DFF85C58B5F9DF
:100740000000FFF7D1FD2880DFF854083968016008
:10075000DFF85008D9F800100160DFF84C08316864
:100760000160DFF84808D8F800100160DFF84008A1
:1007700080ED008ADFF83C08C0ED008AB5F9001072
:10078000494209B2B4F90000404200B201F0E3F876
:10079000BDEC028BBDE8F18300000000200F0228B1
:1007A0001C0F0228C40C0228300F02282C0F02282C
:1007B000280F0228F40C0228540F0228500F022898
:1007C0004C0F0228240D02283C0F0228380F022863
:1007D000340F0228540D0228480F0228440F022823
:1007E000400F0228140C0228140F02284407022884
:1007F0008C0E0228A00E02280080BB44900E022816
:100800002DE9F8432DED108B88B005008846B7EE32
:10081000008A0020DFF8A04794ED0B0ADFF89C6700
:10082000307800F013FB3078002803D0DFF8900711
:1008300080ED000ADFF88807D0ED000A9FEDB31ABB
:1008400060EE818ADFEDB20A40EE208AC0ED008AB8
:100850009FEDB09ADFEDB0EA29EE2E0ADFEDAF0A88
:1008600069EE200A9FEDAE1A29EE011AF0EE041A85
:1008700069EE211AB2EE082A29EE022AF3EE042AC2
:1008800069EE222AB7EE083A69EE039AB1EE0C3A05
:1008900029EE03AAB0EE003A69EE03AADFF82407B6
:1008A00007909FEDA0BADFEDA0BA9FEDA0CA9FED23
:1008B000A03A8DED053ADFED9F3AF0EE63FA8DED4B
:1008C000063ACDED043A94ED0C3A23EE093AD4ED14
:1008D000013A63EE893A94ED004A24EE094ADFEDCD
:1008E00096CAB0EEC3FAF0EEE33AB0EEC44A28EE90
:1008F000C93AB0EEC33ADFF8D0763878002816D07F
:10090000F4EE430AF1EE10FA0ED4F4EE4F1AF1EEC3
:1009100010FA09D4F4EE632AF1EE10FA04D4F4EEDE
:10092000442AF1EE10FA18D50020387015E0B4EE24
:10093000403AF1EE10FA10D5B4EE41FAF1EE10FAA9
:100940000BD5F4EE423AF1EE10FA06D5B4EE424A77
:10095000F1EE10FA01D5012038709FEDCCDADFED11
:10096000CCDAB0EE6D1AF0EE4D0A98ED000A00F008
:1009700047FBB0EE40EADFF8540690ED000AB0EE17
:10098000C00ADDED070A20EE201A28EEC90AF0EEB3
:10099000C00A3878002821D0DFF834060021016031
:1009A000DFF8C845B0EE4C1AF1EE4C0A94ED000A9F
:1009B000B1EE400A00F024FBD4ED000A30EE800ACC
:1009C00084ED000ADFF80C06D0ED009A9FED5AAADC
:1009D000F0EE4E8AB0EE4E9A0120FFE0F4EE690A86
:1009E000F1EE10FA02D59FED540A0DE0B5EE400A83
:1009F000F1EE10FA02DDB7EE000A01E0BFEE000AE8
:100A000070EEE91A21EE800ADFF8C49521EE001A93
:100A100089ED001A99ED001AB0EEC11AB5EE401A30
:100A2000F1EE10FA16DD99ED001AB0EEC11AB4EE2F
:100A30004B1AF1EE10FA0DD599ED001AB5EE401AE9
:100A4000F1EE10FA02DD89ED00BA03E0B1EE4B1AC7
:100A500089ED001AB4EE60AAF1EE10FA0CD5B5EEED
:100A6000400AF1EE10FA02DBC9ED00BA0EE0B1EE79
:100A70006B0A89ED000A09E0B0EE6B1AF1EE6B0A21
:100A800099ED000A00F0BCFA89ED000ADFF8DC8479
:100A9000B0EE4C1AF1EE4C0A99ED000AD8ED001AAE
:100AA00030EE610A00F0ACFAD8ED000A30EE800AB0
:100AB00088ED000AF4EE4FAAF1EE10FA0FD594ED8E
:100AC0000C0ADFEDD90A20EE200ADFEDD80A80EE0D
:100AD000200A00F0E3FFDFEDD60A60EE20CA9FEDAA
:100AE000D51ADFEDD30AB0EE6C0A00F089FAF0EE09
:100AF00040AADFED119A9FED10AAF0EE4E8AB0EEFB
:100B00004E9A00245FF000091CE000BF14AE473F7E
:100B1000AE47613E35FA8E3CCDCC4C3F6666E63F33
:100B20009A99993FA69BC43A0AD7A33CFAED6B3A2F
:100B300017B7513A52491D3A0000000028EE2E8A9C
:100B400019F10109B9F1140F2CDA6AEE889A98EDBF
:100B5000000A20EE08AAB0EE6D1AF0EE4D0A3EEE45
:100B60004A0A00F04DFAF0EE408AB0EE6D1AF0EE4F
:100B70004D0A3EEE0A0A00F043FAB0EE409AF0EE5B
:100B8000680AB0EE690A002000F0C2FC0028D5D047
:100B9000F0EE490AB0EE690A012000F0B9FC002825
:100BA000CCD00124002C19D1DFF82804D0ED009A14
:100BB0009FEDA2AAF0EE4E8AB0EE4E9AB0EE4C1A1D
:100BC000F1EE4C0A98ED000AB1EE400A00F018FA76
:100BD000D8ED000A30EE800A88ED000ADFF88C03B9
:100BE00080ED00AA307800280BD0DFF8E803C0EDD4
:100BF000009ADFF8E403C0ED008ADFF8E00380ED3F
:100C0000009A3878002820D1DFF8C84394ED000A14
:100C100039EEC00AB0EEC00ADDED060AB4EE600A95
:100C2000F1EE10FA11DB9DED051A9DED050AF1EECE
:100C3000400A94ED000A39EEC00A00F0E1F9D4ED63
:100C4000000A30EE800A84ED000ADFF88C4394ED50
:100C5000000A38EEC00AB0EEC00ADDED040AB4EEB8
:100C6000600AF1EE10FA15DBB0EE6F1AF1EE6F0AC2
:100C700094ED000A38EEC00A00F0C2F9D4ED000A83
:100C800030EE800A84ED000A09E000BFCDCCCC3CF8
:100C9000295C0F3E3878002801D0C4ED008ADFF8C7
:100CA0003C8398ED000A39EE400AB0EEC00ADDED53
:100CB000040AB4EE600AF1EE10FA10DBB0EE6F1A1F
:100CC000F1EE6F0A98ED000A39EE400A00F098F94B
:100CD000D8ED000A30EE800A88ED000A04E038788A
:100CE000002801D088ED009ABA480068286002AA5E
:100CF00003A9D4ED000A95ED000A002000F046FC9F
:100D00006A4601A9D8ED000A95ED000A012000F01D
:100D10003DFC307800280DD00398B1490860029856
:100D2000B04908600198B04908600098AF49086070
:100D300000203070AE48AA4D9DED030AB8EEC00AFF
:100D4000D0ED000A20EE200AD5ED000AF8EEE00A08
:100D5000B7EE001AD0ED001A31EE611A00EE810AEA
:100D6000BDEEC00A8DED030A9E4E9DED020AB8EE5F
:100D7000C00AD0ED000A20EE200AD6ED000AF8EEF7
:100D8000E00AB7EE001AD0ED001A31EE611A00EE5B
:100D9000810ABDEEC00A8DED020A934F9DED010A56
:100DA000B8EEC00AD0ED000A20EE200AD7ED000A06
:100DB000F8EEE00AB7EE001AD0ED001A31EE611A33
:100DC00000EE810ABDEEC00A8DED010A874C9DED53
:100DD000000AB8EEC00AD0ED000A20EE200AD4EDD9
:100DE000000AF8EEE00AB7EE001AD0ED001A31EE74
:100DF000611A00EE810ABDEEC00A8DED000A02996B
:100E0000039800F0CEFC0099019800F0FEFC0398D6
:100E1000286002983060019838600098206008B01F
:100E2000BDEC108BBDE8F183DB0F4940000034437B
:100E3000A69B44BCA69B443C180F0228000000005F
:100E400000009041DE0702289E0F022830B585B0D1
:100E5000C0B200280DD0002005E0664901EB8001FA
:100E600081ED000A401C0528F7DB634880ED000A8D
:100E700064E0F1EE000A604C94ED001A30EE411A85
:100E8000B7EEC11AB0EEC11BB7EEE02AB4EE412BAB
:100E9000F1EE10FA0FD594ED001AB4EE401AF1EE0F
:100EA00010FA04D594ED000A30EE200A03E094ED28
:100EB000000A30EE600A0520504A4E491368156852
:100EC00095FBF0F500FB153001EB800080ED000A8A
:100ED0001068401C106014226D46280000F0B0FE1F
:100EE000002023E069466B4603EB820393ED010A81
:100EF00001EB8203D3ED000AB4EE600AF1EE10FAC2
:100F00000ED501EB820393ED000A6B4603EB8203DF
:100F10005B6841F82230694601EB820181ED010AEC
:100F2000521CD0F104018A42DCDB401C042801DAA7
:100F30000022F6E70298206094ED000A05B030BD6B
:100F4000C0E0FFFF100F0228580E02280C0E0228E6
:100F50005C0E0228540E0228940E0228680E022805
:100F6000980E0228940C0228240F0228600E0228F2
:100F7000080F02280C0F0228340E02286C0E0228DB
:100F8000400E0228700E0228A40E0228A80E022885
:100F90009C0E0228880F02288A0F0228640E02285D
:100FA000740E0228780E02287C0E0228800E022879
:100FB000840E0228880E0228140C0228DF0702285B
:100FC000AC0E02280000C040E0070228580F02289B
:100FD000B00E0228B40E0228B80E0228BC0E022859
:100FE000C00E0228C40E0228C80E0228CC0E022809
:100FF000289D0810F80D0228D00E0228D40E0228D1
:10100000B4EE600AF1EE10FA02D5B0EE600A07E025
:10101000B4EE401AF1EE10FA02D5B0EE410AFFE745
:1010200070470021016000214160002181600021A2
:10103000C160002101610021416100218161002125
:10104000C161002101620021416200218162002111
:10105000C162704780ED000AC0ED010A80ED021AFE
:10106000704710B52DED028B0400B0EE408A94ED70
:10107000080A30EE080A84ED080A94ED031A94ED8C
:10108000030AF1EE400A94ED080AFFF7B9FF84ED78
:10109000080A94ED000A20EE080A84ED040A94ED93
:1010A000010AD4ED080A20EE200A84ED050A94ED29
:1010B000090A38EE400AD4ED020A20EE200A84ED37
:1010C000060A84ED098A94ED040AD4ED050A30EE8F
:1010D000200AD4ED060A30EE200A84ED070A94EDCA
:1010E000070ABDEC028B10BD03E0DFEDA20A30EE73
:1010F000200ADFEDAA0AB4EE600AF1EE10FAF4DA83
:10110000B5EE400AF1EE10FA02D530EE200AF7E70C
:101110007047000080B5FFF7E7FFDFED970AB4EEF8
:10112000600AF1EE10FA03DBDFED920A30EE200ADE
:1011300001BDB5EE400AF1EE10FA01DAB1EE400A57
:10114000704780B530EE600AFFF7E4FFFFF7F1FF6C
:1011500001BD000038B52DED048BB0EE601A04001F
:101160000D00B7EEC00A9FED853B30EE030BF7EEA6
:10117000C01B9FED842BB0EE000A61EE800AB7EE33
:10118000E03A23EE023BF7EEC30B21EE000AB7EE86
:10119000C03A23EE022BB7EEC20B61EEA11A41EE6C
:1011A000011AB7EEE11A9FED793B31EE031B9FED7B
:1011B000793B31EE031BB7EEC18B60EEA08A40EEA7
:1011C000008AB0EE681A08EE481AB5EE401AF1EE41
:1011D00010FA04D4F5EE408AF1EE10FA01D800209E
:1011E00028E000F085FDB0EE409AB0EE680A00F00D
:1011F000B5FD88EE000A00F0C1FDF0EE409A9FEDCB
:10120000C18B39EE290AB7EEC00A20EE080BB7EE03
:10121000C00BFFF769FF84ED000A39EE690AB7EEEB
:10122000C00A20EE080BB7EEC00BFFF75DFF85ED9F
:10123000000A0120BDEC048B32BD000038B52DED55
:10124000048BB0EE601A04000D00B7EEC00A9FEDEB
:10125000AA3B30EE030BF7EEC01B9FED4A2BB0EE1E
:10126000000A61EE800AB7EEE03A23EE023BF7EEA9
:10127000C30B21EE000AB7EEC03A23EE022BB7EE05
:10128000C20B61EEA11A41EE011AB7EEE11A9FED11
:101290003F3B31EE031B9FED3F3B31EE031BB7EEAF
:1012A000C18B60EEA08A40EE008AB0EE681A08EEAC
:1012B000481AB5EE401AF1EE10FA04D4F5EE408A61
:1012C000F1EE10FA01D8002028E000F011FDB0EE98
:1012D000409AB0EE680A00F041FD88EE000A00F086
:1012E0004DFDF0EE409A9FED878B39EE690AB7EE1F
:1012F000C00A20EE080BB7EEC00BFFF70BFF84ED22
:10130000000A39EE290AB7EEC00A20EE080BB7EE44
:10131000C00BFFF7FFFE85ED000A0120BDEC048B3A
:1013200032BD0000DFED760AB4EE600AF1EE10FA8D
:1013300008DBDFED760AB4EE600AF1EE10FA01D5B3
:10134000012000E00020C0B270470000DFEDC50AB8
:10135000B4EE600AF1EE10FA08DBDFEDC30AB4EE7A
:10136000600AF1EE10FA01D5012000E00020C0B2C1
:10137000704700000000B4C301003443DBF97E6A0B
:10138000BC74933FB81E85EB51B8AE3F92CB7F48FB
:10139000BF7D6D3F82E2C798BB9680BF0000B4431B
:1013A00038B52DED048BF0EE408AB0EE609AB0EEC9
:1013B000418A0500B0EE680AFFF7B4FF0400B0EE02
:1013C000490AFFF7AFFF50EA0401002901D10020CC
:1013D00027E0002C05D0002803D1C5ED008A0120AC
:1013E0001FE0002C05D1002803D085ED009A0120D4
:1013F00017E0F0EE480AB0EE680AFFF7A2FEF0EE42
:10140000409AF0EE480AB0EE490AFFF79AFEB4EEB1
:10141000690AF1EE10FA01DAF0EE498AC5ED008AA8
:101420000120BDEC048B32BD38B52DED048BB0EE40
:10143000409AB0EE608AF0EE418A0500B0EE490AAB
:10144000FFF784FF0400B0EE480AFFF77FFF50EA81
:101450000401002901D1002023E0002C05D0002840
:1014600003D185ED009A01201BE0002C05D1002856
:1014700003D085ED008A012013E039EE680AFFF7FA
:1014800058FEF0EE409A38EE680AFFF752FEB4EECE
:10149000690AF1EE10FA01DAB0EE489A85ED009A89
:1014A0000120BDEC048B32BDDFED700A30EE200A66
:1014B000DFED6F0A80EE200ADFED6E0A9FED6E1AF7
:1014C00000EE201ABDEEC10A10EE100A70470000AF
:1014D000DFED6A0A30EE200ADFED650A80EE200AB1
:1014E000DFED640A9FED641A00EE201ABDEEC10A1A
:1014F00010EE100A70470000DBF97E6ABC7493BFDF
:101500000000C642F8C1631ADCA54C40018082434A
:1015100080B52DED028B84B0B0EE408AF0EE608A8B
:1015200002A903A8F0EE680AB0EE480AFFF712FE1F
:10153000002809D0694601A8F0EE680AB0EE480A12
:10154000FFF77CFE002801D100201BE09DED030A7F
:10155000FFF7E8FE002805D19DED020AFFF7E2FE45
:1015600000280DD09DED010AFFF7F0FE002805D1FF
:101570009DED000AFFF7EAFE002801D0012000E0FF
:101580000020C0B204B0BDEC028B02BD70B52DEDE1
:10159000028B86B0B0EE408AF0EE608A0D00140037
:1015A000002D01D0002C00D158E00100C9B2002963
:1015B00009D00100C9B2012905D0FA20286040F203
:1015C000EE2020604AE02E49C0B2000101EB000687
:1015D00004A905A8F0EE680AB0EE480AFFF7BAFDC4
:1015E000002809D002A903A8F0EE680AB0EE480A64
:1015F000FFF724FE002804D130682860706820605E
:101600002CE001A896ED021ADDED040A9DED050A15
:10161000FFF7C6FE00280AD0684696ED031ADDEDF6
:10162000020A9DED030AFFF7FFFE002804D130688F
:1016300028607068206011E09DED010AFFF734FF1B
:1016400028609DED000AFFF743FF206028683060A6
:10165000206870600198B0600098F06006B0BDEC42
:10166000028B70BD0000A2C20100A2420000B4C201
:101670000000344300007A4400007A430000B44282
:10168000F0060228704740F2DC51081A704740F219
:10169000CF41884202D340F2CE4003E0FA2801D283
:1016A000FA20FFE7704780B5B1F9062080180A8953
:1016B000904200DA08894A89824200DA4889097929
:1016C000002901D0FFF7DFFF02BD2DE9F84F0D0023
:1016D000FFF7DDFF04002800FFF7D9FF82466548C9
:1016E00004606548C0F800A0644804606448C0F81D
:1016F00000A0644D64492000FFF7D5FF2860634EC9
:10170000634F39005046FFF7CEFF3060DFF8848129
:10171000DFF8849149465046FFF7C5FFC8F800003E
:10172000DFF878A1DFF878B159462000FFF7BBFF5A
:10173000CAF8000001212868FFF7A4FF28600221F1
:101740003068FFF79FFF30600321D8F80000FFF7F3
:1017500099FFC8F800000421DAF80000FFF792FFB3
:10176000CAF800002A68322147480068C0B201F078
:1017700049F9326832213868C0B201F043F9DAF829
:1017800000203221DBF80000C0B201F03BF9D8F8AC
:1017900000203221D9F80000C0B201F033F9BDE8D1
:1017A000F18F2DE9F0410D00FFF771FF04002800D3
:1017B000FFF76DFF05002F4804602F480560314E8C
:1017C000314F39002000FFF76EFF30602F4CDFF8FB
:1017D000C08041462800FFF766FF20600121306885
:1017E000FFF750FF306002212068FFF74BFF2060B9
:1017F00031683868C0B201F0D8F82168D8F8000024
:10180000C0B201F0D2F8BDE8F0812DE9F0410D0041
:10181000FFF73DFF04002800FFF739FF05001748D8
:101820000460174805601D4E1D4F39002000FFF76A
:101830003AFF3060174CDFF8608041462800FFF720
:1018400032FF206004213068FFF71CFF3060032165
:101850002068FFF717FF206031683868C0B201F0D8
:10186000A4F82168D8F80000C0B201F09EF8BDE8E5
:10187000F0810000EC0E0228F00E0228F40E02287F
:10188000F80E0228DC0E0228309C0810E00E022818
:101890003C9C0810E40E0228549C0810E80E022814
:1018A000489C08101CB56946022001F0A7FB0028DF
:1018B00050D09DF80000A52805D14D48C179A52933
:1018C00001D0002181734A4B9DF80000997B194497
:1018D000C871987B401C9873987B07283ADBD879AD
:1018E000A5282FD10020D873002106E0DA7B03EB76
:1018F0000100C0798218DA73491C0629F6DBD87B0F
:10190000597B884215D1187A022809D1587A997AD8
:1019100051EA00211982D87A197B51EA00215982B3
:101920000020987307210022DC1D200001F078FDC3
:1019300010E00020987307210022DC1D200001F038
:101940006FFD07E00020987307210022DC1D2000B6
:1019500001F066FD13BD80B5254BA5221A7001224A
:101960005A70020012B212129A70D870080000B2B7
:1019700000121871597100209871002104E09A79C1
:10198000585C82189A71491C0629F8DB0722190055
:10199000022001F016FB01BD80B51549A520087095
:1019A00002204870002088700020C8700020087154
:1019B00000204871A72088710722022001F001FB56
:1019C00001BD38B507210022094C2500280001F08F
:1019D00027FD07210022E51D280001F021FD002040
:1019E000A0730020E073002060820020208231BDBF
:1019F0000C0E022880B5022302225FF4E1210220AE
:101A000001F022FC0121022001F09FFBFFF7D9FF2A
:101A100000210020FFF79FFFFFF7BEFF01BDF0B4DC
:101A20000246106895681318506803EB5004C0070D
:101A300048BF4D44A3422DD013F8016B16F00300AC
:101A400004BF13F8010BC01C31090F2907D113F88B
:101A5000011B0F3103E013F8017B05F8017B401EE9
:101A6000F9D10029E6D013F8010BC6F38106032E45
:101A700008BF13F8016B00EB062040422844002603
:101A8000B71E8F421EBF10F8017B05F8017B761C44
:101A9000F6D1CFE7F0BC02F10C007047DFED5B0A36
:101AA00060EE200A10EE901A21F0004001EE100ABC
:101AB000DFED571AB4EE611AF1EE10FA25D54FF0AA
:101AC0007C5001F00041014301EE101A71EE200A32
:101AD000FDEEE00A10EE900A002864D0FAEEC90A82
:101AE0009FED4C1A00EE810ADFED4B1A00EEA10AC1
:101AF0009FED4A2A00EE820ADFED492A00EEA20A93
:101B00009FED481A00EE810A4DE010EE100A4200E7
:101B1000121612F1010F09D14000011611F1010F47
:101B200001D1000270D19FED400A704740006BD098
:101B30004FF07C5001F00041014301EE101A71EEAC
:101B4000200A10EE901A48000DD0000EC0F1960049
:101B50001828A8BF01F0004103DA0028C4BFC14023
:101B6000814000EE901A10EE900A400017D09FEDD1
:101B70002F1A20EE811ADFED271A01EE210A9FEDC0
:101B8000262A01EE020ADFED252A01EE220A9FED48
:101B9000243A01EE030ADFED231A01EE210AFDEEDD
:101BA000E00A10EE900A10EE101A21F0004100EE4B
:101BB000901A9FED1F1AF4EE410AF1EE10FA00F0B0
:101BC000030006D5C0071FD5FFEE000A80EE800A8D
:101BD000704720EE001ADFED171A9FED172A01EE6D
:101BE000212AF7EE000A42EE010A20EE011ADFED8B
:101BF000132AC00701EE220A04D580EE800AB1EE56
:101C0000400A704780EE200A704700BF83F9223FE8
:101C10000000004F0000C9C600A0FDC00020A2BA0D
:101C2000000034B30030C2AEFFFFFF7F00008038F9
:101C3000000080396D161F3C1EB5DBBE8329C4BD74
:101C400062B38B0708D0521E11F8013B00F8013B2C
:101C500000F024808B07F6D1830740F0208000BF7E
:101C6000103A07D330B4B1E83810103AA0E8381071
:101C7000F9D230BC530724BFB1E80810A0E808101F
:101C800044BF51F8043B40F8043BD20724BF31F86D
:101C9000022B20F8022B44BF0B7803707047121FF1
:101CA00017D35B0009D151F8043B20F8023B1B0C11
:101CB000121F20F8023BF6D20BE051F8043B00F86B
:101CC000013B1B0A20F8023B1B0C121F00F8013BD2
:101CD000F3D238BF121D521E24BF11F8013B00F889
:101CE000013BF8D870470268531C036011707047BD
:101CF00052EC101AB0EEC00AC80F49005200F0EEC4
:101D0000E00A28BF0C3011F1807F38BF12F1807FCC
:101D10000CD28A4238BF80F00400124214D034BF83
:101D200080EE800A80EE200A01F0AEBB11F1807FC8
:101D300008BF80F0040098BF12F1807F08D88A4263
:101D400014BF00224FF07E5200EE102A01F09CBB1F
:101D50006FF0004100EE101A70470000B5EEC00AA7
:101D6000F1EE10FA02D4B1EEC00A70476FF0004CE9
:101D700000EE10CAAFF300807047000010EE101A9A
:101D800004204FF07E5201EE902A490088BF0820BF
:101D9000490800EE101A914214D871EEC00A0F4A99
:101DA00031EE801A914261EE200AF1EEE00A05D987
:101DB00080F0040080EE800A01F066BB80EE200A0D
:101DC00001F062BB490011F1807F9CBF6FF00041C0
:101DD00000EE101AAFF3008070470000F404353FA6
:101DE000022801D3012010E00B00DBB2042B01DB41
:101DF00001200AE0DFF8283803EB8000C9B2405C1C
:101E0000824201D3012000E000207047F8B50600AF
:101E10000F0015001C00022E01D301201DE02A0036
:101E20003900C9B23000FFF7DBFF012801D10120E2
:101E300013E03800C0B2002812D1B4F5807F0DD273
:101E4000DFF8E0077603304400EB850010F58050A2
:101E5000016864F30F2101600020F2BD0120FCE75E
:101E6000FFB2012F11D1B4F5803F0CD2DFF8B407D7
:101E70007603304400EB850010F5A050016864F350
:101E800017210160E8E70120E7E70120E5E700B25C
:101E90000012C0B27047F8B505000E001700280008
:101EA00000B2FFF7F4FF04002000C0B2022801D303
:101EB000012024E03A003100C9B22000C0B2FFF78F
:101EC0008FFF012801D1012019E0DFF85817200009
:101ED000C0B2400308442A00D2B200EB8200D0F81E
:101EE000000CF6B266F3092067F30700E4B264035E
:101EF0002144EDB201EB8501C1F8000C0020F2BDD8
:101F000070B504000D001600022C01D301201DE065
:101F100032002900C9B22000FFF762FF012801D179
:101F2000012013E0DFF8FC166003085850F0004071
:101F300050F0407050F47F00EDB265F3092066F375
:101F400007006203885064030859002070BD10B573
:101F5000C0B2002800F0EA80022800F0EB80C0F058
:101F6000E780042800F0EA80C0F0E680062800F050
:101F7000E980C0F0E580082800F0E880C0F0E48047
:101F80000A2800F0E780C0F0E3800C2800F0E6802B
:101F9000C0F0E2800E2800F0E580C0F0E18010285B
:101FA00000F0E480C0F0E080122800F0E380C0F090
:101FB000DF80142800F0E280C0F0DE80162800F0F8
:101FC000E180C0F0DD80182800F0E080C0F0DC8007
:101FD0001A2800F0DF80C0F0DB801C2800F0DE80D3
:101FE000C0F0DA801E2800F0DD80C0F0D980202803
:101FF00000F0DC80C0F0D880222800F0DB80C0F048
:10200000D780242800F0DA80C0F0D680262800F09F
:10201000D980C0F0D580282800F0D880C0F0D480C6
:102020002A2800F0D780C0F0D3802C2800F0D6807A
:10203000C0F0D2802E2800F0D580C0F0D1803028AA
:1020400000F0D480C0F0D080322800F0D380C0F0FF
:10205000CF80342800F0D280C0F0CE80362800F047
:10206000D180C0F0CD80382800F0D080C0F0CC8086
:102070003A2800F0CF80C0F0CB803C2800F0CE8022
:10208000C0F0CA803E2800F0CD80C0F0C980402852
:1020900000F0CC80C0F0C880422800F0CB80C0F0B7
:1020A000C780442800F0CA80C0F0C680462800F0EF
:1020B000C980C0F0C580482800F0C880C0F0C48046
:1020C0004A2800F0C780C0F0C3804C2800F0C680CA
:1020D000C0F0C2804E2800F0C580C0F0C1805028FA
:1020E00000F0C480C0F0C080522800F0C380C0F06F
:1020F000BF80542800F0C280C0F0BE80562800F097
:10210000C180C0F0BD80582800F0C080C0F0BC8005
:102110005A2800F0BF80C0F0BB805C2800F0BE8071
:10212000C0F0BA805D2800F0BB80BBE01924BFE09E
:102130003124BDE01824BBE03324B9E03524B7E0F6
:102140001424B5E03724B3E01324B1E02024AFE039
:102150001224ADE02124ABE01124A9E01024A7E073
:102160002824A5E02924A3E02A24A1E009249FE053
:102170002B249DE008249BE02C2499E0032497E085
:10218000022495E0392493E03B2491E03D248FE044
:1021900001248DE03F248BE0002489E0402487E087
:1021A000412485E0422483E0432481E0BF247FE092
:1021B00048247DE049247BE0BC2479E0992477E041
:1021C0009A2475E0502473E09B2471E0B6246FE0FC
:1021D00051246DE09C246BE0B52469E0522467E053
:1021E000A02465E0B42463E0532461E0B3245FE0FD
:1021F00054245DE0B2245BE0B12459E0AD2457E003
:10220000602455E0AE2453E0612451E0AD244FE05A
:1022100062244DE063244BE0AB2449E0642447E0B2
:10222000AA2445E0652443E0A92441E0A8243FE036
:1022300069243DE06B243BE06D2439E06F2437E0F6
:10224000A32435E0702433E0A22431E071242FE090
:10225000A1242DE097242BE0962429E0742427E084
:10226000952425E0752423E0942421E093241FE0A5
:1022700092241DE078241BE0792419E08C2417E0D7
:102280007A2415E08B2413E07B2411E08A240FE0EC
:102290005A240DE059240BE0892409E0582407E072
:1022A000882405E09D22DFF84019002001F0C6FADD
:1022B0002000C0B210BD10B5C0B2002800F0EA8006
:1022C000022800F0EB80C0F0E780042800F0EA80EC
:1022D000C0F0E680062800F0E980C0F0E58008281C
:1022E00000F0E880C0F0E4800A2800F0E780C0F049
:1022F000E3800C2800F0E680C0F0E2800E2800F0B9
:10230000E580C0F0E180102800F0E480C0F0E080BB
:10231000122800F0E380C0F0DF80142800F0E28093
:10232000C0F0DE80162800F0E180C0F0DD801828C3
:1023300000F0E080C0F0DC801A2800F0DF80C0F000
:10234000DB801C2800F0DE80C0F0DA801E2800F060
:10235000DD80C0F0D980202800F0DC80C0F0D8807B
:10236000222800F0DB80C0F0D780242800F0DA803B
:10237000C0F0D680262800F0D980C0F0D58028286B
:1023800000F0D880C0F0D4802A2800F0D780C0F0B8
:10239000D3802C2800F0D680C0F0D2802E2800F008
:1023A000D580C0F0D180302800F0D480C0F0D0803B
:1023B000322800F0D380C0F0CF80342800F0D280E3
:1023C000C0F0CE80362800F0D180C0F0CD80382813
:1023D00000F0D080C0F0CC803A2800F0CF80C0F070
:1023E000CB803C2800F0CE80C0F0CA803E2800F0B0
:1023F000CD80C0F0C980402800F0CC80C0F0C880FB
:10240000422800F0CB80C0F0C780442800F0CA808A
:10241000C0F0C680462800F0C980C0F0C5804828BA
:1024200000F0C880C0F0C4804A2800F0C780C0F027
:10243000C3804C2800F0C680C0F0C2804E2800F057
:10244000C580C0F0C180502800F0C480C0F0C080BA
:10245000522800F0C380C0F0BF80542800F0C28032
:10246000C0F0BE80562800F0C180C0F0BD80582862
:1024700000F0C080C0F0BC805A2800F0BF80C0F0DF
:10248000BB805C2800F0BE80C0F0BA805D2800F000
:10249000BB80BBE00824C0E00824BEE00824BCE008
:1024A0000824BAE00824B8E00824B6E00824B4E020
:1024B0000824B2E00824B0E00824AEE00824ACE030
:1024C0000824AAE00824A8E00824A6E00824A4E040
:1024D0000824A2E00824A0E008249EE008249CE050
:1024E00008249AE0082498E0082496E0082494E060
:1024F000082492E0082490E008248EE008248CE070
:1025000008248AE0082488E0082486E0082484E07F
:10251000082482E0082480E008247EE008247CE08F
:1025200008247AE0082478E0082476E0082474E09F
:10253000082472E0082470E008246EE008246CE0AF
:1025400008246AE0082468E0082466E0082464E0BF
:10255000082462E0082460E008245EE008245CE0CF
:1025600008245AE0162458E0082456E0082454E0D1
:10257000082452E0082450E008244EE008244CE0EF
:1025800008244AE0082448E0082446E0082444E0FF
:10259000082442E0082440E008243EE008243CE00F
:1025A00008243AE0082438E0082436E0082434E01F
:1025B000082432E0082430E008242EE008242CE02F
:1025C00008242AE0082428E0082426E0082424E03F
:1025D000082422E0082420E008241EE008241CE04F
:1025E00008241AE0082418E0082416E0082414E05F
:1025F000082412E0082410E008240EE008240CE06F
:1026000008240AE0082408E0082406E04FF4867253
:10261000DFF8D415002001F011F92000C0B210BD80
:10262000909C08100000044080B5C0B2002800F063
:10263000EA80022800F0EB80C0F0E780042800F078
:10264000EA80C0F0E680062800F0E980C0F0E5806E
:10265000082800F0E880C0F0E4800A2800F0E78055
:10266000C0F0E3800C2800F0E680C0F0E2800E2885
:1026700000F0E580C0F0E180102800F0E480C0F0B8
:10268000E080122800F0E380C0F0DF80142800F022
:10269000E280C0F0DE80162800F0E180C0F0DD802E
:1026A000182800F0E080C0F0DC801A2800F0DF80FD
:1026B000C0F0DB801C2800F0DE80C0F0DA801E282D
:1026C00000F0DD80C0F0D980202800F0DC80C0F070
:1026D000D880222800F0DB80C0F0D780242800F0CA
:1026E000DA80C0F0D680262800F0D980C0F0D580EE
:1026F000282800F0D880C0F0D4802A2800F0D780A5
:10270000C0F0D3802C2800F0D680C0F0D2802E28D4
:1027100000F0D580C0F0D180302800F0D480C0F027
:10272000D080322800F0D380C0F0CF80342800F071
:10273000D280C0F0CE80362800F0D180C0F0CD80AD
:10274000382800F0D080C0F0CC803A2800F0CF804C
:10275000C0F0CB803C2800F0CE80C0F0CA803E287C
:1027600000F0CD80C0F0C980402800F0CC80C0F0DF
:10277000C880422800F0CB80C0F0C780442800F019
:10278000CA80C0F0C680462800F0C980C0F0C5806D
:10279000482800F0C880C0F0C4804A2800F0C780F4
:1027A000C0F0C3804C2800F0C680C0F0C2804E2824
:1027B00000F0C580C0F0C180502800F0C480C0F097
:1027C000C080522800F0C380C0F0BF80542800F0C1
:1027D000C280C0F0BE80562800F0C180C0F0BD802D
:1027E000582800F0C080C0F0BC805A2800F0BF809C
:1027F000C0F0BB805C2800F0BE80C0F0BA805D28CD
:1028000000F0BB80BBE00020C0E00020BEE0012063
:10281000BCE00120BAE00220B8E00320B6E00320CB
:10282000B4E00420B2E00420B0E00520AEE00520D2
:10283000ACE00620AAE00720A8E00920A6E00A20D4
:10284000A4E00B20A2E00B20A0E00C209EE00C20D6
:102850009CE00D209AE00D2098E00E2096E00F20DD
:1028600094E0102092E0112090E011208EE01220E0
:102870008CE012208AE0132088E0142086E01520E6
:1028800084E0162082E0162080E018207EE01920E7
:102890007CE019207AE01A2078E01B2076E01C20EA
:1028A00074E01C2072E01C2070E01D206EE01D20F2
:1028B0006CE01D206AE01E2068E01E2066E01E20FD
:1028C00064E01F2062E01F2060E020205EE0202006
:1028D0005CE021205AE0222058E0242056E0242009
:1028E00054E0252052E0252050E026204EE027200D
:1028F0004CE027204AE0282048E0282046E0292014
:1029000044E0292042E02A2040E02C203EE02D2017
:102910003CE02E203AE02F2038E02F2036E0302017
:1029200034E0302032E0312030E031202EE032201F
:102930002CE033202AE0342028E0342026E0352023
:1029400024E0352022E0362020E037201EE0382029
:102950001CE039201AE0392018E03A2016E03A202D
:1029600014E03B2012E03B2010E03B200EE03C2036
:102970000CE03C200AE03D2008E03D2006E040F26B
:102980007B129949002000F059FF0020C0B202BD1F
:10299000002007E09549C2018A5822F00042C30195
:1029A000CA50401C3F28F5DB704770B504000E008C
:1029B000002000202000C0B2FFF736FE8B4DC0B2D1
:1029C000C0012844006A80B206FB00F642F2107093
:1029D000B6FBF0F62000C0B2FFF726FEC001284487
:1029E000B6B246612000C0B2FFF71EFE0100C9B2B8
:1029F000C9012944096C51F00101C0B2C001284449
:102A0000016470BD2DE9F041AAB004000D0016006C
:102A1000342100221DAF380000F002FD0020742197
:102A200000226F46380000F0FBFC0E201E902000B4
:102A3000C0B2FFF740FC8DF87C002000C0B2FFF769
:102A400086FA07005FF008082000C0B2FFF77FFA9F
:102A50001DAA97FBF8F108FB11773900644BC0B24F
:102A6000C010C001184401F004F82000C0B2FFF704
:102A7000DBFD00220121C0B210F5937000B2FFF718
:102A80000AFA2000C0B2FFF7CFFDC0B210F5937074
:102A900000B2FFF7FCF9092300220121C0B2FFF7C1
:102AA000B5F92000C0B2FFF7BFFDC0B210F59370BA
:102AB00000B2FFF7ECF900220121C0B2FFF720FAC3
:102AC0004C48B0FBF5F1090C4A482A04B0FBF2F37C
:102AD00002FB1300002800D0491C022903D2002069
:102AE0008DF801002FE0032903D201208DF80100A9
:102AF00029E0052903D202208DF8010023E00929ED
:102B000003D203208DF801001DE0112903D2042017
:102B10008DF8010017E0212903D205208DF801006E
:102B200011E0412903D206208DF801000BE0812934
:102B300003D207208DF8010005E040F2C9122A49AE
:102B4000002000F07BFE04208DF8000001208DF8AD
:102B5000100000208DF8110003208DF812000320D2
:102B60008DF8130000208DF80800224901229DF9FC
:102B700001008240B1FBF2F0B0FBF5F0401E059081
:102B80000598401C06FB00F642F21070B6FBF0F010
:102B9000089002208DF8400003208DF86800012085
:102BA0001B9001208DF828002000C0B2FFF73CFDEB
:102BB0000E4D6946C0B2C001284400F099FF2000C4
:102BC000C0B2FFF731FDC0B2C001284401F090F857
:102BD0002000C0B2FFF728FDC0B2C001284401F0B8
:102BE0008CF82AB0BDE8F081F89808100000584031
:102BF0000000314000127A00022801D3012010E0C9
:102C00000B00DBB2042B01DB01200AE0DFF8CC373C
:102C100003EB8000C9B2405C824201D3012000E096
:102C200000207047F8B504000F0015001E00022CAC
:102C300001D301202AE02A003900C9B22000FFF7A1
:102C4000DBFF012801D1012020E006983900C9B23C
:102C500002291ED1B6F5803F19D2202817D24FF491
:102C6000C052DFF87C1763030B4403EB8503134466
:102C70001F6866F317271F606403214401EB850179
:102C800011440A6860F3C7020A600020F2BD012007
:102C9000FCE7FFB2032F1FD1B6F1807F1AD22028A4
:102CA00018D24FF4E052DFF8381763030B4403EBFC
:102CB000850313441F6807F0FF0757EA06271F60C4
:102CC0006403214401EB850111440A6860F3C702E3
:102CD0000A60DAE70120D9E70120D7E700B2001245
:102CE000C0B27047F8B505000E001700280000B20A
:102CF000FFF7F4FF04002000C0B2022801D3012036
:102D000024E03A003100C9B22000C0B2FFF774FFDE
:102D1000012801D1012019E0DFF8C4162000C0B25B
:102D2000400308442A00D2B200EB8200D0F8000C25
:102D3000F6B266F3092067F30700E4B264032144A6
:102D4000EDB201EB8501C1F8000C0020F2BD70B5B9
:102D500004000D001600022C01D301201DE03200FA
:102D60002900C9B22000FFF747FF012801D1012047
:102D700013E0DFF86C166003085850F0004050F084
:102D8000407050F47F00EDB265F3092066F3070050
:102D90006203885064030859002070BDD0F84003D6
:102DA0007047D0F80803C005C00D7047C0F8401246
:102DB0007047D0F80802C005C00D7047D0F808026F
:102DC000C0F3C030704738B505002800FFF7F1FFA9
:102DD00004002800FFF7F2FF0419002C01D10120A4
:102DE00000E00020C0B232BDC0F8C81F7047D0F864
:102DF000C80F7047C0F8881F7047D0F8880F704719
:102E0000016851F000410160704738B504001500B9
:102E1000C9B2002906D002291ED010D3042935D00A
:102E200027D340E0DFF8BC05A0600120207311200B
:102E300060734FF48C70E0811220208239E0DFF85B
:102E4000A805A060012020731120607340F21D10BE
:102E5000E0816B2020822CE0DFF89005A06001204B
:102E60002073112060734FF48E70E0816A202082FD
:102E70001FE0DFF87C05A060022020731120607342
:102E800040F21B10E0816920208212E0DFF8640527
:102E9000A06001202073132060734FF48D70E081D7
:102EA0006820208205E07C22DFF84C15002000F02D
:102EB000C5FCEDB2002D06D0022D1ED010D3042D7E
:102EC00035D027D340E0DFF81C05206000202071BA
:102ED000112060714FF48C70E0811220208239E063
:102EE000DFF804052060002020711120607140F29D
:102EF0001D10E0816B2020822CE0DFF8F0042060C0
:102F000000202071112060714FF48E70E0816A20E2
:102F100020821FE0DFF8D8042060012020711120FA
:102F2000607140F21B10E0816920208212E0DFF81E
:102F3000C404206000202071132060714FF48D7054
:102F4000E0816820208205E0A822DFF8AC14002090
:102F500000F074FC31BD10B5C0B2002806D00228C4
:102F60000AD006D304280DD009D30EE0DFF88C4434
:102F700011E0DFF88C440EE0DFF888440BE0DFF866
:102F8000884408E0DFF8844405E0BD22DFF86814D7
:102F9000002000F053FC200010BD38B50400DFF81D
:102FA0007054C9B22000C0B255F82000FFF7FEFEF1
:102FB0002000C0B255F82000FFF705FF0028F7D029
:102FC00031BD70B505000E00140006E03178280010
:102FD000C0B2FFF7E2FF641E761C002CF6D170BD74
:102FE00038B504000D0005E029782000C0B2FFF7D5
:102FF000D4FF6D1C28780028F6D131BD70B50400CF
:103000000D000020DFF808642000C0B256F8200050
:10301000FFF7C7FE002807D0E4B256F82400FFF7F8
:10302000BDFE2870012000E00020C0B270BD70B568
:1030300005000C00DFF8D8632800C0B256F8200065
:10304000FFF7DBFE4008400001002800C0B256F840
:103050002000FFF7CFFE2800C0B256F82000FFF78F
:10306000CCFE30F0020001002800C0B256F820006B
:10307000FFF7C0FE2800C0B256F82000FFF7BDFEE3
:1030800030F0200001002800C0B256F82000FFF701
:10309000B1FE2800C0B256F82000FFF7AEFE30F0B7
:1030A000400001002800C0B256F82000FFF7A2FE41
:1030B0002800C0B256F82000FFF79FFE30F0100045
:1030C00001002800C0B256F82000FFF793FE280048
:1030D000C0B256F82000FFF790FE30F48070010077
:1030E0002800C0B256F82000FFF784FE2800C0B2C6
:1030F00056F82000FFF781FE30F4806001002800C0
:10310000C0B256F82000FFF775FE002C0ED0280044
:10311000C0B256F82000FFF76AFE50F400700100BC
:10312000EDB256F82500FFF765FE0DE02800C0B2AD
:1031300056F82000FFF75BFE30F400700100EDB29E
:1031400056F82500FFF756FE70BD70B505000C005F
:10315000DFF8BC622800C0B256F82000FFF747FE37
:103160004008400001002800C0B256F82000FFF7D8
:103170003BFE2800C0B256F82000FFF738FE30F0C2
:10318000080001002800C0B256F82000FFF72CFE0E
:103190002800C0B256F82000FFF729FE30F02000CA
:1031A00001002800C0B256F82000FFF71DFE2800DD
:1031B000C0B256F82000FFF71AFE30F4807001000C
:1031C0002800C0B256F82000FFF70EFE2800C0B25B
:1031D00056F82000FFF70BFE30F4007001002800C5
:1031E000C0B256F82000FFF7FFFD2800C0B256F825
:1031F0002000FFF7FCFD30F4006001002800C0B2A1
:1032000056F82000FFF7F0FD002C0ED02800C0B2C9
:1032100056F82000FFF7EBFD50F004000100EDB27E
:1032200056F82500FFF7E0FD0DE02800C0B256F883
:103230002000FFF7DCFD30F004000100EDB256F88D
:103240002500FFF7D1FD70BD2DE9F841A7B00500BD
:103250000F00160028003100C0B2C9B2884201D167
:10326000012000E000201C00DFF88C814FF4CE72BA
:103270004146C0B200F0E2FA28002100C0B2C9B253
:10328000884201D1012000E0002040F29D12414619
:10329000C0B200F0D3FA02A8142100F035FD3421A9
:1032A00000220DF16808404600F0BAF84C210022D7
:1032B0000DF11C08404600F0B3F8FF003A0000236F
:1032C0005448002100F024FD07002200D2B2310052
:1032D000C9B202A8FFF799FD08201B909DF80D00C8
:1032E0008DF870001AAA9DF80C10029800F0C1FB2E
:1032F00006201B909DF80D008DF870001AAA9DF80D
:103300001410049800F0B5FB0020079008200890E6
:103310000820099002200B9000200C9000201290B1
:10332000002014903A4C2800C0B254F8200000F05D
:1033300049FF39492A00D2B2382042430A4407A93A
:103340002800C0B254F8200000F0FAFD2800C0B2F6
:1033500054F82000FFF754FD2A00D2B20321BDF932
:103360001600FFF7BFFCBDF91600FFF7B7FC17F01A
:103370001F010091C7F357132A00D2B20321C0B234
:10338000FFF750FCBDF91600FFF7A8FC2A00D2B2E7
:103390000321C0B2FFF7DBFCBDF91800ADF8000057
:1033A0000320ADF8020001208DF8040007221B481D
:1033B0002900C9B250F82110684600F0A1FF002191
:1033C0002800C0B2FFF7C1FE00212800C0B2FFF7FD
:1033D0002EFE28B0BDE8F08100000000909C08108F
:1033E000000004400000314000023140000531403F
:1033F0008008314000073140789908100000604093
:10340000000065400000644000006340000062402E
:10341000C807022800809698E4090228B407022809
:1034200062F30F2262F31F42401810F0030308D02A
:10343000C91A1FD3DB0748BF00F8012D28BF20F8A9
:10344000022D130030B414461546103928BF20E968
:103450003C00FAD8490728BF20E90C0048BF40F8D3
:10346000042D890028BF20F8022D48BF00F8012D47
:1034700030BC7047C91818BF00F8012DCB0728BF12
:1034800000F8012D704700001AA210EE101A43F246
:10349000A40CC3F6896CF2EC060A614509DB00EE68
:1034A000803A70EE800A83EE200A40F0020010EEAF
:1034B000101A4900D1F1E6410BD860EE000A20EE67
:1034C000203A03EE010A01EEA02A42EE202A80EE05
:1034D000220A400810F0020F18BFB1EE400A02EBBA
:1034E0008002D2ED000A30EE200A28BFB1EE400A79
:1034F00070470000D7B3DD3F6AD5033F2B94A93D49
:10350000B82A593F0000803F000080BF0000000043
:10351000920A063FDB0FC93F920A863FDB0FC93F85
:10352000920A0640DB0F4940368D274082B00020CA
:103530000190002000900020019009E00098401CBC
:1035400000900098B0F5005FF8D30198401C0190FE
:103550000198B0F5805F02D200200090F1E702B040
:10356000704780B501000020FFF73AFD01BD2DE94D
:10357000F043ADF5137D0700884616001C000020BF
:10358000ADF802000020ADF80000002002900020FD
:10359000ADF804000020ADF80600404600F0CCFE77
:1035A0000290DFF880532888002801D028698047DE
:1035B000DFF874030078002800F0338128880028A1
:1035C00000F01181BDF90600411CADF806103A006B
:1035D000010089B20020EB6898474746404600F05A
:1035E000ABFE02906888A97990FBF1F0ADF8040079
:1035F0003800471C00780028FAD10020ADF8000000
:103600000EE07F1E38782F2802D038785C2804D14D
:10361000BDF80000401CADF800000298401E02906A
:10362000BDF80000022802DA02980028E9D50298C5
:10363000002806D47A1CDFF8F41253A800F098FE94
:103640000EE0BDF80000002805D13A00B84953A8A3
:1036500000F08EFE04E03A00B44953A800F088FE62
:103660000020ADF8020042E0BDF80010BDF80020D7
:10367000BDF8023053AF9BB2BDF90400434313FAC7
:1036800082F0385C43AA89B25054BDF80000401C57
:10369000ADF80000BDF8000080B2BDF9041088420A
:1036A0000EDA53A800F048FEBDF80020BDF8023045
:1036B0009BB2BDF904104B4313FA82F18842D3D276
:1036C000002043A9BDF800208854BDF90600411C24
:1036D000ADF8061043AAE97911FB00F189B2002088
:1036E000EB689847BDF80200401CADF80200BDF839
:1036F000027053A800F020FEBDF90410B0FBF1F0F9
:10370000401CBFB2874203D20020ADF80000C1E7E1
:103710003200884953A800F02BFEBDF90600411C79
:10372000ADF8061053AAE97911FB00F189B2002027
:10373000EB689847002C74D00020ADF8020041E0FF
:10374000BDF80010BDF80020BDF802309BB2BDF9F5
:103750000400434313FA82F0205C43AA89B2505418
:10376000BDF80000401CADF80000BDF8000080B2BC
:10377000BDF9041088420EDA200000F0DDFDBDF82E
:103780000020BDF802309BB2BDF904104B4313FA80
:1037900082F18842D4D2002043A9BDF80020885489
:1037A000BDF90600411CADF8061043AAE97911FBEA
:1037B00000F189B20020EB689847BDF80200401C78
:1037C000ADF80200BDF80260200000F0B5FDBDF9C3
:1037D0000410B0FBF1F0401CB6B2864221D20020AA
:1037E000ADF80000C1E74FF4807100220DF10C0923
:1037F0004846FFF715FE3800A9688847002C07D017
:103800000094330042464C4903A800F0B1FD05E0A6
:1038100033004246494903A800F0AAFD03A8A9685D
:1038200088470DF5137DBDE8F08310B51400220024
:10383000D2B20020FFF7C5FB200010BD38B50C0048
:103840001500C0B2002803D13E480078002800D1FE
:1038500031BD3D490878002800D0FEE70878401CBB
:10386000087000F041FD00232A0021003748FFF7CF
:103870007EFEFFF75BFEF6E710B514001A00C0B23B
:10388000002808D128480078002804D00B00210027
:103890002F48FFF76CFE10BD002101804FF6FF712D
:1038A00041808180FF218171C171002181600021EF
:1038B000C1600021016170471A4902880A8042886C
:1038C0004A8082888A8082798A71C279CA718268C4
:1038D0008A60C268CA6000690861012012490870E4
:1038E000704700B585B06846FFF7D6FF19480290CB
:1038F0006846FFF7E1FF05B000BD80B5FFF7F1FFB7
:10390000002300225FF4E1310020FFF79DFC4023FB
:10391000114A00210A4800F04BFD01210020FFF769
:1039200014FC01BD200E0228A00F0228609C081084
:10393000109C08106C9C0810449B0810E09B081019
:10394000E00D0228E1070228A10F0228209C0810A0
:10395000789C081063350810540C022830B4614B71
:103960001818C009604C14EB001404290DD2236808
:103970001F25C8008540AB43D2B212F01F02C90018
:1039800012FA01F1194321600CE0091F63681F2539
:10399000C8008540AB43D2B212F01F02C9008A4072
:1039A0001A43626030BC7047002A04D1012212FA27
:1039B00001F1416003E0012212FA01F181607047D8
:1039C00010B48900436C0F248C40A34312F00F0203
:1039D00012FA01F11943416410BC704710B4836CB2
:1039E00001248C40A34312F0010212FA01F11943A1
:1039F000816410BC704710B4C36C01248C40A34395
:103A000012F0010212FA01F11943C16410BC7047AF
:103A100010B449001031C36C03248C40A34312F04E
:103A2000030212FA01F11943C16410BC70474269E4
:103A3000012212FA01F141614069704710B48369B3
:103A400001248C40A34312F0010212FA01F1194340
:103A5000816110BC704710B44900036C03248C4092
:103A6000A34312F0030212FA01F11943016410BCDE
:103A70007047F8B505000E0014000027002D2ED069
:103A8000002C2CD0226831002800FFF78DFF227A0D
:103A900031002800FFF762FF626931002800FFF75C
:103AA0009DFFA26931002800FFF7A5FFE269310000
:103AB0002800FFF7ADFF626831002800FFF780FFA4
:103AC000E26831002800FFF7C6FF31002800FFF749
:103AD000AEFF226931002800FFF7B0FF00E0034F7E
:103AE0003800F2BD0000CFBF0000304001005A0096
:103AF0000122002800F0EC80002900F0E980754ADE
:103B000012680B7A63F392420B7B13F0030363F3A7
:103B100011420B7813F0070363F31A628B7863F397
:103B20009E7291F8283063F3000291F8343063F309
:103B300041020B7F63F382024B7F63F3C30291F870
:103B4000403063F38A2291F84030DBB25B08DBB28D
:103B500063F3492291F8703063F3082291F87130D1
:103B600013F0030363F30D3202600A7A002A02D1D4
:103B70000022826007E00A7A012A02D14A69826043
:103B800001E0012282600A6A02614A6A4261CA6AED
:103B900082610A6BC2614A6902628A6942624E4A64
:103BA000126891F8443003F0FF03120A12021A431C
:103BB00091F84C3003F0FF0363F3174291F85C3047
:103BC00003F0FF0363F31F6291F86C3003F0FF030F
:103BD00063F30F224264414A126891F8643003F0A3
:103BE000FF0363F30F2291F8543003F0FF03120A2E
:103BF00012021A4382643A4A126891F8413013F073
:103C00000303920892001A4391F8603013F0030303
:103C100063F38B2291F8483013F0030363F305122A
:103C200091F8503013F0030363F3092291F85830F0
:103C300013F0030363F3871291F8683013F0030362
:103C400063F38302C264274A126891F8723013F05A
:103C50000703D208D2001A4391F8733013F0070318
:103C600063F30612426591F8352082671E4A126896
:103C70000B7C13F00303920892001A43CB7C13F0E1
:103C8000030363F387124B7C13F0030363F3830294
:103C90008B7C13F0030363F305120265134A126869
:103CA000CB8863F31F428B889BB21B0A9BB263F3E2
:103CB0000F220B78052B06D1097901F0FF01120ABA
:103CC00012020A4302E0497861F30702026300220C
:103CD000100070470C9D0810109D0810149D0810CE
:103CE000189D08101C9D0810209D0810249D081088
:103CF000016851F00041016070474030016851F0A7
:103D00001001016070470000002200F071BB00004C
:103D1000BBBBE1B1B2F5803F80F07E80022A1ED9A4
:103D20008C46B1FBF2F102FB11C31B0443EA1043C2
:103D3000B3FBF2FC02FB1C3380B240EA0343B3FB4B
:103D4000F2F002FB103240EA0C4000237047022AD6
:103D500005D98446B0FBF2F002FB10C270474AB1AD
:103D600005D100F0010249085FEA300070470022E7
:103D70000023704700F056BB0B000200002100201A
:103D80007047904271EB030CF6D3B3F5803F2FD20E
:103D9000F0B5B3FA83F7B1FA81F4A7F10F0E3D1B2A
:103DA0005340CEF1200602FA0EF2F3415340B5F132
:103DB0000F0746D80F3C2C444140C4F12006A040D8
:103DC000F1414140B1FBF3F603FB1611A2FB06459E
:103DD000001BA94102D2761E8018594180EA0102D7
:103DE00021FA0EF362FA0EF200215A403046F0BD7D
:103DF00030B4B1FBF3FC03FB1C11A2FB0C45001B10
:103E0000A94103D2ACF1010C8018594130BC0246E3
:103E10000B46604600217047B2F1807F65D3F0B554
:103E2000B2FA82F7B1FA81F4C7F10F063D1B22FA0C
:103E300006F307F1110EF24120355A40B5F10F0794
:103E4000B8D94140C4F12006A040F1414140B1FB46
:103E5000F3FC03FB1C11A2FB0C45001BA94103D280
:103E6000BCF1010C801859410F2F12D30F3FC90329
:103E700041EA5041B1FBF3F603FB1611A2FB0645E4
:103E8000D4EBC030A94102D2761E8018594146EACF
:103E9000CC3C07B34140C7F12006B840F141414056
:103EA000B1FBF3F603FB1611A2FB0645001BA9416B
:103EB00002D2761E8018594180EA010221FA0EF3DF
:103EC000C7F1200462FA0EF20CFA07F05A402CFAFD
:103ED00004F13043F0BD80EA010221FA0EF3002123
:103EE00062FA0EF260465A40F0BD8C46B1FBF2F128
:103EF00002FB11C31B0243EA1063B3FBF2FC02FB9B
:103F00001C331B024CEA002043EA1063B3FBF2FCB3
:103F100002FB1C331B024CEA002043EA1063B3FB94
:103F2000F2FC02FB1C331B024CEA002043EA106344
:103F3000B3FBF2FC02FB1C324CEA0020002370476A
:103F40002DE9F44FDFF8D822DFF8D8321B68DFF80C
:103F5000D8422468DFF8D4522D68DFF8D46236687E
:103F6000DFF8D0723F68DFF8D0C2DCF800C0DFF8BD
:103F7000CCE2DEF800E0DFF8C882D8F80080DFF895
:103F8000C492D9F80090DFF8C0A2DAF800A00028A7
:103F900000F01581002900F012810A68022A06D17A
:103FA00091F82620002A02D15FF0000B03E0D1F83F
:103FB00004B0BBF1010B91F82420002A01D00122AA
:103FC00000E0002262F3104333F440436BF3030339
:103FD000022262F3196303600A7812F0030262F3AB
:103FE0001964046491F82520002A01D0012200E020
:103FF000002262F38615CA7E002A01D0012200E069
:10400000002262F38A254A7E002A01D0012200E0C4
:10401000002262F308258A7E002A01D0012200E0F6
:10402000002262F349258A6B521E12F00F0262F3DE
:1040300013450A69521E12F00702ED08ED00154300
:104040004A6962F304154A69520862F345158564AA
:104050000A7B002A01D0012200E0002262F3082638
:104060000A7E002A01D0012200E0002262F34926E4
:104070008A68521E12F01F02760976011643C0F8B4
:1040800000630A7F02F0FF023F0A3F02174391F8E4
:10409000202002F0FF0262F31747C0F8107391F876
:1040A0002720002A01D0012200E0002262F3082C20
:1040B0000A69521E12F007025FEADC0C5FEACC0CC0
:1040C00052EA0C0C4A6962F3041C4A69520862F312
:1040D000451CC0F844C00A7B002A01D0012200E040
:1040E000002262F3082E8A68521E12F01F025FEA55
:1040F0005E1E5FEA4E1E52EA0E0E0A68012A01D1C8
:10410000012200E0002262F3104EC0F800E291F8B4
:104110003C2002F0FF025FEA18285FEA082852EA12
:104120000808C0F8048391F82820002A01D0012251
:1041300000E0002262F35969CA6A012A01D1012212
:1041400000E0002262F318694A6B012A01D10123C1
:1041500000E00023009A63F3104991F8303003F037
:10416000FF035FEA19295FEA092953EA0909C0F840
:10417000509091F8443003F0FF035FEA1A2A5FEA97
:104180000A2A53EA0A0AC0F804A28B6CC0F8883FD6
:10419000096CC0F8C81F002A10D000205060002011
:1041A0001060002090600020D0600020106200208D
:1041B000D06200201063DFF89400506300221000EA
:1041C000BDE8F28FDFF8881001605FF440110164F0
:1041D0000021816440F20711C0F800130022C0F8EA
:1041E00004230022C0F8102300224264C0F8001209
:1041F0000021C0F80412002101650021C0F8C81E8A
:104200000021C0F8881E0021C0F8C81F0021C0F896
:10421000881F0021C0F8081F0021C0F8481F704700
:104220000160AA00C89C0810CC9C0810D09C081003
:10423000D49C0810D89C0810DC9C0810E09C081046
:10424000E49C0810E89C0810EC9C0810EFCDAB0033
:104250000F000003010009B2002908D4012210F068
:104260001F018A401B4900B2400941F820207047D5
:10427000010009B2002908D4012210F01F018A4070
:10428000154900B2400941F820207047020012B2DF
:10429000002A04D44901114A00B2115407E049012F
:1042A0000F4A00B210F00F00104400F8041C7047D1
:1042B000002800D162B60B480168491C01607047B4
:1042C00072B608490868002802D00868401E0860D5
:1042D0000868704700E100E080E200E000E400E0F0
:1042E00018ED00E07C0F022880B5FFF7E9FFFEF72C
:1042F0004FFB01BD80B5C9B200B2FFF7C7FF01BDDA
:1043000070B504000D001600200000F08DF82900A3
:10431000B4F9000000F0C7F83100C9B2B4F90200E6
:10432000FFF7E8FFB4F90200FFF7A2FFB4F90200BB
:10433000FFF790FF70BD000000F10103810704D07A
:1043400010F8011B820781B1FAD10268A2F1013194
:10435000914311F0803104BF50F8042FF6E709BAF9
:10436000B1FA81F100EBD100401CC01A7047000087
:104370000CB430B583B00A4606A902910446002564
:104380000194009502AB01A9084878441E3000F062
:10439000A4F8019A157000284EBF04460198041B2A
:1043A000204603B030BC5DF80CFB00BF3BD9FFFFDB
:1043B000F8B504000E0017001D00002C01D00120EC
:1043C00000E000204FF407720849C0B2FFF736FA48
:1043D000002067600021217066700021A16000212B
:1043E000E16025616561C0B2F2BD0000B8980810B7
:1043F00000B500BF130096469446103928BFA0E8C8
:104400000C50FAD85FEA417C28BF0CC048BF40F886
:10441000042BC90728BF20F8022B48BF00F8012B46
:1044200000BD00007047000030B40021234A13682B
:10443000234A1468002832D0224A1568C5F30325A0
:104440000E2D0FD01268C2F303220D2A28D18278D4
:1044500012F00F022409240114430279002A15D016
:10446000012214E0827812F00F021B091B01134392
:104470000279002A01D0012200E0002262F3DF73FA
:10448000114AB0F9000042F8203009E0002262F33E
:10449000DF740E4AB0F9000042F8204000E00649FF
:1044A000080030BC70470A4B1A68002A03D01A680B
:1044B00000B242F82010704701005600F09C08102E
:1044C000F49C08100000204000A0204000C02040C4
:1044D000EC06022840F0200070472DE9F14FB0B003
:1044E000924604910DF142013A9A2B9199464A70F5
:1044F00000200AE01AF8011B0498309A904700281F
:10450000049000F034860D98401C0D909AF800003D
:1045100050B12528EED1002100220791089209917F
:104520000A920B910C9204E00D9800F022BE41F02B
:1045300001011AF8010F2028F9D023280CD02B28CC
:1045400004D02D2805D0302809D00BE041F002011D
:10455000EFE741F00401ECE741F00801E9E741F041
:104560001001E6E72A280FD1D9F8002052F8040BF1
:10457000C9F8002000280F9003D540420F9041F069
:1045800004010AF1010A14E00F92DFF8EC3B0AE0A3
:104590000F98984205DA00EB800402EB4402303AAF
:1045A0000F920AF1010A9AF80020A2F130000A28BD
:1045B000EED39AF800002E2803D04FF0FF320E926F
:1045C00029E01AF8010F2A2809D1D9F8000050F87B
:1045D000042BC9F800000E920AF1010A1BE02D28F5
:1045E0000CBF0AF1010A002000220E92DFF8884B6E
:1045F0000BE040B90E9AA24205DA02EB820503EB0A
:104600004503303B0E930AF1010A9AF80030A3F1FA
:1046100030020A2AEDD3ADF840100FF660309AF858
:10462000001000F0AFFE08B11AF8010B8DF842003F
:104630009DF84200682805D19AF8000068280CD13E
:10464000622106E06C2804BF9AF800006C2804D1AF
:1046500071218DF842100AF1010A12A806901AF889
:1046600001BBBBF125012CD01C3900F09481091F3E
:10467000022940F29081133900F0AB84093900F02F
:104680008A81891E00F04085491E00F0ED84491E94
:10469000022940F28081091F00F0E684491F00F0E2
:1046A000EF80491E00F09584491E00F0D780C91E96
:1046B0000CD0891E00F08D84C91E00F08A8400F0A1
:1046C0002EBD01230793252100F026BDD9F8000057
:1046D00050F8044BC9F80000002C059440F0AB8062
:1046E0002B994878002800F0A1804FF0FF340FF696
:1046F000942000F053FE241A40F0398500F01BBDD1
:1047000001236A4602A9304600F000FE002840F06E
:104710002E85641EF4D13096079C12AF74B1309E82
:1047200017F8011B0498B0470028049000F01F857B
:104730000D98401C641E0D90F2D130960A9C3021D9
:10474000002C8DF800100CDD309E01236A4602A972
:10475000304600F0DBFD002840F00985641EF4D1EE
:104760003096059F089C74B1309E17F8011B049881
:10477000B0470028049000F0FA840D98401C641E95
:104780000D90F2D130960B9C3021002C8DF800104A
:104790000CDD309E01236A4602A9304600F0B6FDCA
:1047A000002840F0E484641EF4D1309605980899FE
:1047B000099C471874B1309E17F8011B0498B04744
:1047C0000028049000F0D3840D98401C641E0D90C6
:1047D000F2D130960C9C3021002C8DF800100CDDAD
:1047E000309E01236A4602A9304600F08FFD002862
:1047F00040F0BD84641EF4D130969DF8400041071E
:104800007FF584AE2020002D8DF800007FF77EAE6E
:10481000309C01236A4602A9204600F077FD00285B
:1048200040F0A5846D1EF4D130946FE60FF63C3055
:10483000059000F080BC0E9D002D04D52046FFF7AA
:104840007BFD044607E02A46204600F0C7FD00280D
:1048500014BF041B2C46089400F06DBCD9F800105E
:1048600051F8040BC9F8001020F00004002121F0D9
:10487000FF35CDE9024512AB0593782100F040BC2D
:104880002B99487820B14FF0FF340FF6B02030E775
:104890009DF84200622860D0682817D06A283FD06F
:1048A0006C2806D0712847D074282CD07A281DD0C7
:1048B00062E0D9F8001051F8040BC9F80010002884
:1048C00066D14FF0FF340FF68C2012E7D9F80010B4
:1048D00051F8040BC9F8001020B94FF0FF340FF65F
:1048E000742006E70D99018000F025BCD9F800106E
:1048F00051F8040BC9F80010002849D14FF0FF34DB
:104900000FF65020F5E6D9F8001051F8040BC9F85D
:10491000001000283CD14FF0FF340FF63820E8E6B5
:10492000D9F8001051F8040BC9F8001080B94FF005
:10493000FF340FF62020DCE6D9F8001051F8040B04
:10494000C9F8001020B94FF0FF340FF60820D0E668
:104950000D9AD317C0E90023EDE3D9F8001051F800
:10496000040BC9F8001020B94FF0FF340FF6E41023
:10497000BFE60D990170DEE3D9F8001051F8040B81
:10498000C9F8001020B94FF0FF340FF6C810B0E698
:104990000D990160CFE39DF842004C2807BFD9F87C
:1049A0000010CA1DD9F80000C21D22F00702C9F884
:1049B0000020D2E900010832C9F80020CDE9020147
:1049C000C80F02D007982D210AE0BDF840008107EA
:1049D00002D507982B2103E0C00705D507982021B1
:1049E00012AA1154401C079012A807994BF02003FB
:1049F00000EB010CDDE90201CDE92C01612BCDF8C2
:104A000014C021AC0BD00E98002848BF062105D455
:104A100004BF4BF02000672801D101210E91DDE990
:104A200002014F0047EAD0777E15FF174FF0FF32A3
:104A3000974208BF964210D1090341EA1051000382
:104A4000002908BF002808D0ABF1610503211A2D09
:104A5000089118D30FF61C1110E0DDE902014A009D
:104A6000521512F1010F11D108030FD1ABF16105FD
:104A700003211A2D08911FD30FF60011032260465F
:104A8000FDF7DEF857E30FF6E801F7E7DDE902018D
:104A90006A4600F0CFFCCDE902014BF0200061280E
:104AA00011D1059830210170821C0592BBF1610F74
:104AB0000CBF7821582102E00FF6BC01DEE74170FF
:104AC0000798801C0790DDE9020120F0000231F018
:104AD000004308BF002A02D10026002542E14BF026
:104AE0002008B8F1610F40F092800E98002847BF6F
:104AF00021210191401C0190019FDDE92C017F1CC7
:104B000000220023DDE9024500F0CCFC38BF85F02F
:104B1000004500998DF88420091F002F00910DF1A8
:104B2000850632DD204629460022002300F0D4FC11
:104B30002BD21C2200F0EAFC04460D4600F068FD72
:104B4000FF1F002F804609DD00F069FD02460B467D
:104B50002046294600F06AFD04460D46F01D072157
:104B6000B8F1000F0CDD491E5EBF08F00F0200F81F
:104B7000012D4FEA2818F3D502E0002200F8012D9C
:104B8000491EFAD5C61D002FCCDC0DF18500361A62
:104B900001980DF185048642D8BF304600282FD4F5
:104BA000B04206DA0DF185010A5C082AA8BF0F2180
:104BB00000DA0021024621AB134400E0401E13F846
:104BC0000159521E8D42F9D00F2904D10DF18501F2
:104BD0008B5C5B1C8B54002A04D50099091D21AC09
:104BE000401C0091411E0BD4621813783033DDB2A3
:104BF0003A2DA4BF5B443A3B491E02F80139F4D573
:104C00000E99002940F1AC80421E0E92A8E0009956
:104C1000DFF8E82647F29750414391FBF2F2009209
:104C2000DDE92C45C2F10702002A25F0004504DD2C
:104C30002046294600F03EFB0BE052420020DFF800
:104C4000C01600F037FB02460B462046294600F00E
:104C5000F6FC04460D46B8F1660F06BF009F0A3702
:104C600006270E983F18142FC8BF142730208DF840
:104C700084000DF18506002F34DD2046294600F022
:104C8000E7FC01460A4606F1080304200A26B2FBA7
:104C9000F6F606EB860EA2EB4E02303203F8012C3C
:104CA0000A22B6FBF2F202EB820EA6EB4E0630367B
:104CB000401E03F8026DE9D1083F002F03F10806FA
:104CC000D9DD084600F0CBFC02460B4620462946BB
:104CD00000F0ACFC0022DFF82C3600F0C7FC0446E4
:104CE0000D46CAE70DF18500361A0DF1850404E082
:104CF0000098401E761E0090641C20783028F7D063
:104D0000B8F1660F02D10098401C04E0B8F1650FBD
:104D10000CBF012000200E9940188642B8BF701EBB
:104D200000281DD4B04204DA215C3429C8BF3921DF
:104D300000DC30210246631E9D1800E0401E15F87D
:104D40000169521E8E42F9D0392902D1A15C491C59
:104D5000A154002A04D50099491C1C46401C00910E
:104D60000646009D0E9F30B2002802DC01260FF29D
:104D700010644BF02000662808BF6D1C15D0672812
:104D80000FFA85F841D118F1040F44DBB84542DA37
:104D90009DF840006D1C010703D430B2B842D8BF63
:104DA000074628B23F1A48BF00270FFA85F8B8F126
:104DB000000F00F3AF800898411C0891302205993C
:104DC0000A54002F03DC9DF84000010705D5089820
:104DD000411C08912E2205990A5417EB080FB8BF01
:104DE0007D422DB26842ED1932B20B909542B8BFA8
:104DF0002E46059B089836B209963246214618443D
:104E0000FCF71EFFAD1B0C95CCE0BBF1610F15D17B
:104E10004FF0700B17E030B2B84204DA9DF8401042
:104E20000A0758BF07467F1E48BF0027BBF1670F20
:104E300014BF4FF0450B4FF0650B04E0BBF1410F81
:104E400008BF4FF0500B0898411C0891002F05999E
:104E500014F8012B0A5403DC9DF84000010719D512
:104E60000898411C08912E2205990A54002F11DD43
:104E7000761E30B28742B8BF3E460598089B32B2D4
:104E800021461844FCF7DCFE089836B23018BF1BE8
:104E900008900B97059808990844B8F1000F80F81E
:104EA00000B003D42B224270821C04E02D21454621
:104EB0004170821C6D4200212CAB28460AE004465A
:104EC0000A2094FBF0F000EB8005A4EB450403F806
:104ED000014B491C00B20028F1DC012906DC4BF033
:104EE0002000652804BF302002F8010B00292CABFC
:104EF00008D1302002F8010B06E0491E585C303022
:104F000002F8010B0029F8DC059908980844121AE8
:104F1000099247E030B229B288421BDA0598089B13
:104F200032B221461844FCF78BFE089936B271184C
:104F30000891A8EB0600002F0B9003DC9DF84000C1
:104F4000020705D5059A2E2050540999491C09914C
:104F50000C9727E00598089B2AB221461844FCF7D5
:104F60006FFE0898761B4044002F089003DC9DF8E4
:104F700040100A0704D5411C08912E2205990A54B5
:104F800030B28742B8BF3E460598089B32B204EB68
:104F900008011844FCF754FE089836B23018BE1BBE
:104FA00008900B969DF8400000F01400102840F087
:104FB000C280079A08980B99821809988A18821853
:104FC0000C980F998018884280F2B580081A0A90D0
:104FD000B1E09DF84200622808D068280ED06A2807
:104FE00014D06C281FD0712810D01CE0D9F8001004
:104FF00051F8040BC9F80010C0B21AE0D9F800103B
:1050000051F8040BC9F8001080B212E0D9F8000082
:10501000C21D22F00702C9F80020D2E900010832BF
:10502000C9F8002006E0D9F8001051F8040BC9F8BF
:1050300000100021CDE902019DF8400001075AD57A
:10504000DDE90223002B08BF002A54D04BF02000DA
:10505000782850D1079812A930220A54401C431CCA
:10506000079301F800B046E09DF84200622808D09E
:1050700068280ED06A2814D06C281FD0712810D050
:105080001CE0D9F8001051F8040BC9F8001040B228
:105090001AE0D9F8001051F8040BC9F8001000B25A
:1050A00012E0D9F80000C21D22F00702C9F8002062
:1050B000D2E900010832C9F8002006E0D9F8001052
:1050C00051F8040BC9F80010C117CDE902010029FD
:1050D00002D507982D210AE0BDF84000810702D5CE
:1050E00007982B2103E0C00705D50798202112AAB5
:1050F0001154401C079012A8079901440591594684
:1051000002A800F04DF816E001200790D9F8000041
:1051100050F8041BC9F800008DF848100BE001217D
:105120002522BBF1000F07918DF8482003D0022201
:1051300007928DF849B00F9D07990A986D1A089942
:105140002D1A0B986D1A09992D1A0C986D1A9DF845
:1051500040102D1A48073FF5DFAA2021002D8DF8B9
:1051600000107FF7D9AA309E2C46FFF7C9BA4FF03E
:10517000FF3031B0BDE8F08FCBCCCC0C686A6C74DA
:105180007A4C00007072696E74665F733A206261D7
:105190006420257320617267756D656E7400000070
:1051A0002DE9FC4707468A463C6950466F2808BFF0
:1051B000082505D0FFF78EF9782814BF0A25102599
:1051C000D7E900013C2680468946BAF1640F18BF32
:1051D000BAF1690F05D1002903D5D8F1000869EBB0
:1051E0004909B9F1000F08BFB8F1000F0CD1386BB5
:1051F00050B9082D3AD197F83800010736D530223A
:105200003B2684F83B2031E08DF800A0404649461B
:105210002A46EB17FEF77CFD3032D0B2761E3A28D4
:1052200001960EDAA255404649462A46EB17FEF78C
:105230006FFD80465FEA010908BFB8F1000F05D194
:1052400008E09DF800001218513AEBE7F868A11940
:105250008842DBD3082D09D197F83800010705D51E
:10526000A05D302802D0761E3020A055C6F13C0348
:10527000BB61A119F960386B834208DAC31A3B623B
:105280004FF6EF70398F01403987BDE8F38700286A
:105290000ED597F8380000F01400102808D17A6B6A
:1052A0007969386A521A121AD21A002AC8BF3A62A9
:1052B000BDE8F3872DE9D04306460F4614464FF06C
:1052C0000008DFF8449012E0E00707D542464B465D
:1052D0003046394600F0CAF906460F464046494670
:1052E00042464B4600F0C2F9641080468946002CC5
:1052F000EAD130463946BDE8D0830000A0860100DF
:105300000000F03F84D7974100002440F8B50546DF
:105310000E4617461C4600205CB117F8011BB0680A
:10532000A847B06030B1F06A401CF0620020641EF3
:10533000F3D1F2BD4FF0FF30F2BD00007072696E24
:1053400074665F733A20256E20646973616C6C6FBC
:10535000776564007072696E74663A2062616420D9
:10536000256E20617267756D656E74000000000027
:105370006E616E004E414E00696E6600494E4600F9
:1053800030000000C9B202788A421AB11CBF10F87E
:10539000012FF9E718BF00207047000080B500B961
:1053A00006A005490B681BB122220021984701E0A5
:1053B00000F065F9222002BD840F0228636F6E732E
:1053C000747261696E742068616E646C65723A20F3
:1053D000626164206D65737361676500C9B283079C
:1053E00006D0521E22D310F8013B9942F7D11FE09C
:1053F000083A13D302F1040241EA012141EA0141D2
:1054000050F8043B121F21BF4B40A3F1013C2CEA92
:10541000030C1CF0803FF3D0C9B2001F083210F813
:10542000013B521E28BF91EA030FF8D818BF012094
:10543000401E704710B5144600F002F8226010BDFF
:10544000C1F30A5343B14A0012F5001F28D2A3F258
:10545000FE32A1EB0251704750EA410C20D001F01E
:10546000004C31EA0C01B1FA81F204BFB0FA80F3CA
:10547000D2180B3AB2F120032CBF00FA03F191408D
:1054800041EA0C013EBFC2F1200C20FA0CF3194393
:105490009040524240F2FD33D21A01EB0351704763
:1054A0000022704741EA030C50EA4C0C52EA0C0C03
:1054B0004FF4001C09D307D01CEB410F9CBF1CEB21
:1054C000430F8B4208BF824270471CEB430FFBD84F
:1054D000994208BF9042704741EA030C50EA4C0CD5
:1054E00052EA0C0C4FF4001C09D307D01CEB410FFF
:1054F0009CBF1CEB430F994208BF904270471CEBC6
:10550000410FFBD88B4208BF8242704700B541EC87
:10551000100B104600F004F851EC100B00BD00BF5A
:10552000020030EE101B40F2FF7C37D41CEA11530E
:1055300013D063456BD09B18634504D201EB025135
:1055400020EE101B704701F0004141EA0C51002091
:1055500041EC100BAFF30080704710EE100B50EAD7
:10556000410054D0B2F57F7F08D202EB5C010905FF
:10557000002041EC110B20EE010B70474FF0FE4173
:10558000002341EC113B20EE010BB2F57E7230EEB0
:10559000101B4FEA410342EB5353CDE752421CEA42
:1055A000115316D0634532D09A4204D2A1EB025176
:1055B00020EE101B70475B1ED21AA1EB035120EEA8
:1055C000101B372A0CD3002001F0004141EC100BD6
:1055D000C0E710EE100B50EA410018D0372AF2D283
:1055E000C2EB5C021105002041EC110BF1EE100A38
:1055F00020F01F0121F4F851E1EE101A20EE010B0A
:10560000F1EE101AE1EE100A11F0080FA2D1704766
:1056100041EC100BBDEEC00B10EE100A704700EE0F
:10562000100AB8EEC00B51EC100B704741EC100B98
:1056300043EC112B30EE410B51EC100B704741EC59
:10564000100B43EC112B80EE010B51EC100B70474B
:1056500041EC100BBCEEC00B10EE100A704700EED0
:10566000100AB8EE400B51EC100B704741EC100BD8
:1056700043EC112B20EE010B51EC100B7047012075
:1056800000F000B880B5AFF30080024A1100182086
:10569000ABBEFBE7260002002DE9F041BDF9185032
:1056A000BDF91C60BDF92070BDF924C0BDF928E02A
:1056B000DFF80C4BDFF80C8B00B200EE100AB8EEEE
:1056C000C00AD8ED000A80EE200A84ED030A09B270
:1056D00000EE101AB8EEC00AD8ED000A80EE200ADB
:1056E00084ED040A12B200EE102AB8EEC00AD8ED1A
:1056F000000A80EE200A84ED050A1BB200EE103A83
:10570000B8EEC00AD8ED010A80EE200A84ED000A46
:105710002DB200EE105AB8EEC00AD8ED010A80EEA4
:10572000200A84ED010A36B200EE106AB8EEC00A13
:10573000D8ED010A80EE200A84ED020A3FB200EEA5
:10574000107AB8EEC00AD8ED020A80EE200A0FFAED
:105750008CFC00EE90CAF8EEE00A98ED021AC0EE5A
:10576000810A0FFA8EFE01EE10EAB8EEC11AD8EDEA
:10577000021A81EE211ADFF8500AD0ED001A30EE3D
:10578000610ADFF8480AD0ED001A20EE210A84ED04
:10579000060ADFF83C0A90ED000A30EEC00ADFF896
:1057A000340AD0ED000A20EE200A84ED070A84EDC9
:1057B000081ABDE8F081000080ED000AC0ED010A82
:1057C00080ED021AC0ED031A80ED042AC0ED052A0F
:1057D000B7EE000A80ED110A80ED100A80ED0F0A85
:1057E00080ED0E0A80ED0D0A80ED0C0A9FED0E0A89
:1057F00080ED170A80ED160A80ED150A80ED140A77
:1058000080ED130A80ED120A9FED070A80ED080A69
:1058100080ED070A80ED060A0021416200218162C5
:105820000021C162704700000000000070B52DED3E
:10583000108B90B004000D00B0EE409AB0EE60BA4C
:10584000B0EE41CAF0EE61AAB0EE42AAF0EE629A62
:10585000F0EE43CAB0EE63DAF0EE44DA68460021B7
:105860000022002380E80E009FED5B0B95ED081AE7
:10587000B7EEC11A21EE001BB7EEC18B95ED071AEA
:10588000B7EEC11A21EE000BF7EEC08B29EE090A24
:105890000CEE0C0AFCF762FAB5EE400AF1EE10FAD3
:1058A00001D0012600E00026B0EE4BEA2EEE0E0AF3
:1058B0000CEE0C0AFCF752FAB5EE400AF1EE10FAC3
:1058C00001D0012000E000203100C9B201422AD0FD
:1058D00029EE090A0CEE0C0AFCF740FA9FED40BBDA
:1058E0006E468EEE000A00F077FCB7EEC00A20EE9E
:1058F0000B0BB7EEC00B86ED020A2EEE0E0A0CEE75
:105900000C0AFCF72BFAFFEE000A69EE200A80EE83
:10591000800A00F061FCB7EEC00A20EE0B0BB7EE78
:10592000C00B86ED010AB0EE680A00F05FFDB0EE34
:10593000409AB0EE480A00F059FDF0EE40BAB0EEE1
:10594000680A00F055FDB0EE40CAB0EE680A00F0FB
:105950004FFD2CEE89BA6DEEAB0A00EE8CBA2DEE3F
:10596000009AB0EE480A00F043FD09EE00BAB0EE2E
:10597000480A00F03BFD2DEE009AB0EE480A00F018
:1059800037FD00EE6D9AF0EE490AB0EE4B0AFCF7D7
:10599000AFF9B7EEC00A9FED122B20EE020BB7EE67
:1059A000C00B8DED000A9DED000AD5ED060A30EE24
:1059B000600ADFED0D0AB4EE600AF1EE10FA15DBB5
:1059C0009DED000ADFED030A30EE200A8DED000A9E
:1059D00026E000BF0000B4C3399D52A246DF913FCC
:1059E000F8C1631ADCA54C40010034439DED000A68
:1059F000D5ED060A30EE600ADFED050AB4EE600A66
:105A0000F1EE10FA0CD59DED000ADFED020A03E07D
:105A1000000034C30000B44330EE200A8DED000ACC
:105A2000B0EE699AF0EE4A9ACDED03AAB0EE480ABC
:105A300000F0DCFCB0EE40AAB0EE680A00F0D6FC44
:105A4000F0EE40AAB0EE480A00F0D2FCB0EE40BA48
:105A5000B0EE680A00F0CAFCD5ED0B0A79EE600AD8
:105A600060EE8A0AC0EEAA0A95ED0A1A39EEC11A4A
:105A700021EE0B1A81EE000A30EE800AD5ED000A05
:105A800095ED061A00EE201A85ED061AB0EE480ACA
:105A900000F0ACFCB0EE40AAB0EE480A00F0A8FC62
:105AA000D5ED0A0A79EEE00A60EE8A0A95ED0B1A46
:105AB00031EE491A41EE000A95ED000A95ED071AFC
:105AC00000EE801A85ED071AB0EE480A00F08EFC51
:105AD000B0EE40AAB0EE680AFBF7E0FFF0EE40AA95
