:020000041008E2
:1000000000000828E1DF0810D1EB081005E7081010
:10001000D5EB0810D9EB0810DDEB0810000000004C
:10002000000000000000000000000000F9E70810D8
:10003000E1EB081000000000E5EB0810E9EB081008
:1000400067DB08108DDB0810B3DB0810D9DB081064
:10005000FFDB081025DC08104BDC081071DC0810F1
:10006000EDEB0810F1EB0810F5EB0810F9EB0810B8
:10007000FDEB081001EC081005EC081009EC081065
:1000800080B5DFF898040021418000210180002123
:10009000417100F0C3F901BD2DE9F84785B09FED2E
:1000A000C00ADFF88004D0ED000AF4EE400AF1EE59
:1000B00010FA0CDBDFF87014D1ED000AF4EE400A00
:1000C000F1EE10FA03D50121DFF850245174DFF866
:1000D000581400680860DFF844442079022805D1EC
:1000E000DFF8485495F82500002800D190E1608899
:1000F000B0F5FA7F80F28C81DFF83464DFF8347475
:10010000D7ED001A96ED001A95ED020BF7EEC00B35
:1001100095ED002BB7EEC20B01F0CCF9DFEDBE0A76
:10012000B4EE600AF1EE10FA06DA607C002803D122
:10013000207C002840F06C81207C002814D101F044
:10014000DFFBDFF8DC0300210160002141600721B3
:100150000173012101740020608001202074DFF808
:10016000D80302F0C4FA48E0B4F802A05FF0140823
:10017000DFF8AC9395ED000BB7EEC00B5046C0B264
:1001800008FB00F0484480ED000A5046C0B208FB6E
:1001900000F0484495ED020BB7EEC00B80ED010A6C
:1001A0005046C0B208FB00F0484429698160607C79
:1001B000002813D05046C0B208FB00F04844DFF8D6
:1001C0007C1391ED000ABDEEC00A10EE101A017307
:1001D00000206074DA4802F08AFA06E05046C0B2A5
:1001E00008FB00F04844002101735FFA8AFA08FB1B
:1001F0000AFA09EB0A00012101745FF01408DFF824
:100200002093608808FB00F04844007B01F0BFF9B0
:10021000618808FB01F1494491ED010AB5EE400AFD
:10022000F1EE10FA08D5618808FB01F1494491ED1F
:10023000010AB1EE400A05E0618808FB01F149447A
:1002400091ED010A618808FB01F14944D1ED010AF1
:10025000F5EE400AF1EE10FA0AD5618808FB01F1CB
:100260004944D1ED010AF1EE600AFDEEE00A07E033
:10027000618808FB01F14944D1ED010AFDEEE00A75
:10028000618808FB01F1494491ED011AB5EE401A6D
:10029000F1EE10FA0AD5618808FB01F1494491EDAD
:1002A000011AB1EE411ABDEEC11A07E0618808FBE0
:1002B00001F1494491ED011ABDEEC11A618808FBB4
:1002C00001F14944D1ED011AF5EE401AF1EE10FAB0
:1002D00001D58FA200E08FA2618808FB01F149449B
:1002E000D1ED001AF5EE401AF1EE10FA08D561884A
:1002F00008FB01F14944D1ED001AF1EE611A05E065
:10030000618808FB01F14944D1ED001A618808FBBE
:1003100001F1494491ED002AB5EE402AF1EE10FAC0
:100320000AD5618808FB01F1494491ED002AB1EE3C
:10033000422ABDEEC22A07E0618808FB01F1494468
:1003400091ED002ABDEEC22A618808FB01F1494403
:10035000D1ED002AF5EE402AF1EE10FA0AD56188B7
:1003600008FB01F14944D1ED002AF1EE622AFDEECD
:10037000E22A07E0618808FB01F14944D1ED002A37
:10038000FDEEE22A618808FB01F1494491ED003A53
:10039000B5EE403AF1EE10FA04D55DA103E000BFDE
:1003A0000100003F5BA19FED5C3A638808FB03F806
:1003B00009EB0803DB8904930390F8EEE00A30EEC2
:1003C000600A20EE030ABDEEC00A8DED020A8DED33
:1003D000011A0092B8EEC20A31EEC00A20EE030AFA
:1003E000BDEEC00A10EE103A12EE902A554802F007
:1003F0007EF995ED000BB7EEC00B86ED000A95ED8A
:10040000020BB7EEC00B87ED000A6088401C6080CD
:1004100006B0BDE8F0870000CECC4C3DF8B53F4CAF
:100420000020608001F06CFA002714253C4E380053
:10043000C0B2684330444449142202F0CFFA7F1C12
:100440003800C0B2684330444049142202F0C6FA72
:100450007F1C3800C0B2684330443D49142202F08A
:10046000BDFA7F1C3800C0B26843304439491422B9
:1004700002F0B4FA7F1C3800C0B2684330443649F9
:10048000142202F0ABFA7F1C3800C0B2684330443B
:100490003249142202F0A2FA7F1C3800C0B205FBD8
:1004A00000F506EB05002E49142202F097FA7F1C96
:1004B000FFB2678000202080F1BD2A4991ED000A3B
:1004C000BDEEC00A10EE100A0200D2B2002A1ED001
:1004D000C0B2012804D018D303280AD001D314E0F5
:1004E00013E00E48002242800022028000220274A3
:1004F0000BE01D4890ED000ABDEEC00A10EE100A98
:100500001A4A107001201A4A1070002008607047C3
:100510002D000000000000000000C842105002281A
:10052000AC080228C8510228D4510228404F0228A2
:10053000D8510228DC51022818E50810C0510228C1
:1005400088E508107CE10810A8E80810BCE808104D
:10055000D0E80810E4E80810F8E808100CE90810E2
:1005600020E90810BC510228C451022888500228F2
:10057000C45202282DE9F0472DED0E8B98B0DFF81C
:10058000804DDFF8805D28786179884200F01F8116
:1005900062792978DFF8D80D02F0A9F80020608090
:1005A000002020800020207442F210710022DFF829
:1005B000C46D3700380002F093FA6079002806D144
:1005C000FFF72CFFDFF8980D02F091F806E0607954
:1005D000012803D1DFF88C0D02F089F82079012879
:1005E00040F0F3806088002800F0EF806188DFF839
:1005F000780D02F07CF8002736E0DAA212E008FB62
:1006000007F2324492ED000ABDEEC03A08FB07F84B
:1006100006EB080292ED000AB5EE400AF1EE10FA80
:10062000EBD5D1A29FEDD10A0490B8EEC11A70EEBD
:10063000C10A60EE800AFDEEE00ACDED030ACDEDC1
:10064000021A0191F8EEE20A72EE600A20EE800AC8
:10065000BDEEC00A8DED000A13EE103A3900DFF846
:100660006C0D02F044F87F1C6088874280F2A980FC
:100670005FF0140808FB07F03044007B00F087FFB0
:1006800008FB07F1314491ED010AB5EE400AF1EEA5
:1006900010FA07D508FB07F1314491ED010AF1EE9C
:1006A000400A04E008FB07F13144D1ED010A08FBE0
:1006B00007F1314491ED010AB5EE400AF1EE10FA6E
:1006C00009D508FB07F1314491ED010AB1EE400A6A
:1006D000BDEEC01A06E008FB07F1314491ED010AB6
:1006E000BDEEC01A08FB07F1314491ED010AB5EEE9
:1006F000400AF1EE10FA09D508FB07F1314491EDFB
:10070000010AB1EE400AFDEEC01A06E008FB07F14F
:10071000314491ED010AFDEEC01A08FB07F13144A6
:1007200091ED010AB5EE400AF1EE10FA01D58EA165
:1007300000E08CA108FB07F2324492ED000AB5EE0E
:10074000400AF1EE10FA07D508FB07F2324492EDA9
:10075000000AB1EE402A04E008FB07F2324492EDB1
:10076000002A08FB07F2324492ED000AB5EE400A77
:10077000F1EE10FA09D508FB07F2324492ED000AB7
:10078000B1EE400AFDEEC02A06E008FB07F2324453
:1007900092ED000AFDEEC02A08FB07F2324492ED0A
:1007A000000AB5EE400AF1EE10FA7FF528AF08FB1B
:1007B00007F2324492ED000AB1EE400ABDEEC03AB3
:1007C00024E7DFF8280C01F092FF60792870DFF849
:1007D000206C30782179884200F018812079002837
:1007E00005D1207930706079287000F0E9BD20795A
:1007F000012840F009816079012840F0058101F06D
:100800007FF80020208002F0ABF9DFF8A40C01F0A3
:100810006EFF6088002800F0F7806188DFF8480BE1
:1008200001F065FF002536E04EA212E008FB05F25C
:100830003A4492ED000ABDEEC03A08FB05F807EB1A
:10084000080292ED000AB5EE400AF1EE10FAEBD57F
:1008500045A29FED460A0490B8EEC11A70EEC10A97
:1008600060EE800AFDEEE00ACDED030ACDED021A3E
:100870000191F8EEE20A72EE600A20EE800ABDEE07
:10088000C00A8DED000A13EE103A2900DFF83C0C87
:1008900001F02DFF6D1C6088854280F2B1805FF011
:1008A0001408DFF8D07A08FB05F03844007B00F02C
:1008B0006EFE08FB05F1394491ED010AB5EE400AE0
:1008C000F1EE10FA07D508FB05F1394491ED010A64
:1008D000F1EE400A04E008FB05F13944D1ED010ACC
:1008E00008FB05F1394491ED010AB5EE400AF1EE3D
:1008F00010FA09D508FB05F1394491ED010AB1EE72
:10090000400ABDEEC01A06E008FB05F1394491ED3E
:10091000010ABDEEC01A08FB05F1394491ED010A48
:10092000B5EE400AF1EE10FA09D508FB05F139449D
:1009300091ED010AB1EE400AFDEEC01A06E008FB97
:1009400005F1394491ED010AFDEEC01A08FB05F1ED
:10095000394491ED010AB5EE400AF1EE10FA07D5DF
:1009600001A106E0000000002D0000000000C842C8
:10097000A1A108FB05F23A4492ED000AB5EE400A47
:10098000F1EE10FA07D508FB05F23A4492ED000AA1
:10099000B1EE402A04E008FB05F23A4492ED002A49
:1009A00008FB05F23A4492ED000AB5EE400AF1EE7A
:1009B00010FA09D508FB05F23A4492ED000AB1EEAF
:1009C000400AFDEEC02A06E008FB05F23A4492ED2B
:1009D000000AFDEEC02A08FB05F23A4492ED000A37
:1009E000B5EE400AF1EE10FA7FF520AF08FB05F2F4
:1009F0003A4492ED000AB1EE400ABDEEC03A1CE75F
:100A0000DFF8E80901F073FE2079307020790028C2
:100A100005D0022800F0C48403D300F0D1BC00F05C
:100A2000CFBC678825883800C0B2002800F0C88491
:100A30009FED720BDFF8980B90ED001AB0EEC11A23
:100A4000B7EEC11A9FED6F3B21EE031BB0EE402BBA
:100A500001EE002BF7EEC20BB7EE000A02F0BEF873
:100A6000F0EE400A9FED690A02F0CCF8B0EE408A41
:100A70007E1EA84601E018F1010840463900C0B2C8
:100A8000C9B2884221D2DFF8682B1421DFF8E408CC
:100A90004346DBB24B430344D3ED011A4346DBB27A
:100AA00001FB03F1084490ED001A92ED020BF7EE02
:100AB000C00B92ED002BB7EEC20B00F0FBFCB4EEC6
:100AC000480AF1EE10FAD6DB464600200021CDE9B7
:100AD000160100200021CDE914019FED4D9A14AAC2
:100AE00016A93000C0B280B200F084FC00281FD0EC
:100AF0009DED160BB7EEC00BDFF8F40AD0ED040A3B
:100B000030EE600A01F0C2F99DED141BB6EE003B19
:100B1000B4EE431BF1EE10FA02D5DFED3D0A01E021
:100B2000DFED3B0AB7EE001A71EE600A20EE809A04
:100B3000DFF8A00A90ED000ADFED360AB4EE600A95
:100B4000F1EE10FAC0F2E282DFF88C0A90ED000AB2
:100B5000F2EE040A80EE200ABDEEC00A10EE100A82
:100B6000010049B2002900D10520DFF8701A0A7887
:100B7000521C0A7091F9002040B28242C0F2C68233
:100B800000200870B5EE409AF1EE10FA02D5B1EEF1
:100B900049DA01E0B0EE49DAB5EE409AF1EE10FA2A
:100BA00004D5B1EE490ABDEEC08A01E0BDEEC98AA6
:100BB000B5EE409AF1EE10FA04D5B1EE490AFDEE19
:100BC000C08A01E0FDEEC98AB5EE409AF1EE10FA56
:100BD00001D5C5A700E008A79DED140BB7EEC00B2B
:100BE000B5EE400AF1EE10FA16D59DED140BB7EEF6
:100BF000C00BB1EE409A13E000000000000000A01E
:100C00009999C93F3AC8C6554C4D633FCDCC4C3E2F
:100C1000000000000100003F9DED140BB7EEC09BEB
:100C20009DED140BB7EEC00BB5EE400AF1EE10FAD5
:100C300008D59DED140BB7EEC00BB1EE400AFDEEEA
:100C4000C09A05E09DED140BB7EEC00BFDEEC09A07
:100C50009DED140BB7EEC00BB5EE400AF1EE10FAA5
:100C600008D59DED140BB7EEC00BB1EE400ABDEEFA
:100C7000C0AA05E09DED140BB7EEC00BBDEEC0AAF7
:100C80009DED140BB7EEC00BB5EE400AF1EE10FA75
:100C900002D50FF2542801E00FF250285FF014093A
:100CA000DFF8D0A63000C0B209FB00F05044007B52
:100CB00000F06DFC3100C9B209FB01F1514491ED26
:100CC000010AB5EE400AF1EE10FA09D53100C9B2B9
:100CD00009FB01F1514491ED010AB1EE401A06E021
:100CE0003100C9B209FB01F1514491ED011A310003
:100CF000C9B209FB01F1514491ED010AB5EE400A78
:100D0000F1EE10FA0BD53100C9B209FB01F15144E3
:100D100091ED010AB1EE400AFDEEC01A08E0310083
:100D2000C9B209FB01F1514491ED010AFDEEC01A6F
:100D30003100C9B209FB01F1514491ED010AB5EE50
:100D4000400AF1EE10FA0BD53100C9B209FB01F1EE
:100D5000514491ED010AB1EE400ABDEEC02A08E00F
:100D60003100C9B209FB01F1514491ED010ABDEE18
:100D7000C02A3100C9B209FB01F1514491ED010AC9
:100D8000B5EE400AF1EE10FA01D557A200E057A2E5
:100D90003100C9B209FB01F1514491ED000AB5EEF1
:100DA000400AF1EE10FA09D53100C9B209FB01F190
:100DB000514491ED000AF1EE407A06E03100C9B2EB
:100DC00009FB01F15144D1ED007A3100C9B209FBB0
:100DD00001F1514491ED000AB5EE400AF1EE10FA2E
:100DE0000BD53100C9B209FB01F1514491ED000A64
:100DF000B1EE400AFDEEC02A08E03100C9B209FB9D
:100E000001F1514491ED000AFDEEC02A3100C9B252
:100E100009FB01F1514491ED000AB5EE400AF1EEF3
:100E200010FA0BD53100C9B209FB01F1514491ED23
:100E3000000AB1EE400ABDEEC03A08E03100C9B286
:100E400009FB01F1514491ED000ABDEEC03AF6B242
:100E500009FB06F90AEB090191ED000AB5EE400A1B
:100E6000F1EE10FA01D520A300E020A3DFF88017EF
:100E700091ED040AB5EE400AF1EE10FA04D591EDB9
:100E8000040AB1EE407A01E091ED047A91ED040A92
:100E9000B5EE400AF1EE10FA06D591ED040AB1EE76
:100EA000400AFDEEC03A03E091ED040AFDEEC03ABF
:100EB00091ED040AB5EE400AF1EE10FA06D591ED77
:100EC000040AB1EE400ABDEEC04A03E091ED040A07
:100ED000BDEEC04A91ED040AB5EE400AF1EE10FAFB
:100EE00006D501A605E000BF2D00000000000000AF
:100EF000D7A691ED026B9FEDD70BB0EE465BB4EE3B
:100F0000405BF1EE10FA04D591ED020BB1EE40CB4F
:100F100001E091ED02CB91ED020BB0EE406B9FED45
:100F2000CD0BB0EE465BB4EE405BF1EE10FA06D5A9
:100F300091ED020BB1EE400BFDEEC04B03E091EDE5
:100F4000020BFDEEC04B91ED020BB0EE406B9FED3E
:100F5000C10BB0EE465BB4EE405BF1EE10FA06D585
:100F600091ED020BB1EE400BBDEEC05B03E091EDE5
:100F7000020BBDEEC05B91ED020BB0EE40BB9FEDEE
:100F8000B50BB0EE4B6BB4EE406BF1EE10FA02D540
:100F90000FF2683C01E00FF2B82C91ED000BB0EEBF
:100FA00040BB9FEDAC0BB0EE4B6BB4EE406BF1EE83
:100FB00010FA04D591ED000BB1EE40BB01E091EDCC
:100FC00000BB91ED000BB0EE40EB9FEDA20BB0EE3D
:100FD0004E6BB4EE406BF1EE10FA06D591ED000BBE
:100FE000B1EE400BFDEEC05B03E091ED000BFDEEBA
:100FF000C05B91ED000BB0EE40EB9FED960BB0EEB9
:101000004E6BB4EE406BF1EE10FA06D591ED000B8D
:10101000B1EE400BFDEEC0AB03E091ED000BFDEE39
:10102000C0AB91ED000BB0EE40EB9FED8A0BB0EE44
:101030004E6BB4EE406BF1EE10FA01D5AFA100E0BB
:1010400083A19FEDC56B9FEDC90AF8EEC80A7DEE3E
:10105000600A60EE800AFDEEE00ACDED120ACDEDE9
:10106000118A1097F8EEE90A79EE600A60EE800ABC
:10107000FDEEE00ACDED0F0A8DED0EAACDF834801D
:101080000C90F8EEE10A71EE600A60EE800AFDEE67
:10109000E00ACDED0B0A8DED0A2A0992F8EEE20A7C
:1010A00077EEE00A60EE800AFDEEE00ACDED080A78
:1010B0008DED073A0693F8EEE30A77EE600A20EE2C
:1010C000800ABDEEC00A8DED050A8DED044A039637
:1010D000B8EEE40B3CEE400B20EE060BBDEEC00B71
:1010E0008DED020A8DED015ACDF800C0B8EEE50B8A
:1010F0003BEE400B20EE060BBDEEC00B10EE103A9F
:101100001AEE902ADFF8D80401F0F1FA2800C0B2F4
:1011100080B200F0DFF9002800F0398100F058F9C2
:101120002800C0B2002803D10020DFF8BC140870EA
:1011300020880100C9B2628889B2914280F01C8186
:101140002900C0B2C9B2884200F016811426894F26
:101150002800C0B27043384490F8200000F017FA1D
:101160002900C9B27143394491ED060AB5EE400A2F
:10117000F1EE10FA08D52900C9B27143394491ED56
:10118000060AF1EE400A05E02900C9B2714339446C
:10119000D1ED060A2900C9B27143394491ED060A1E
:1011A000B5EE400AF1EE10FA0AD52900C9B2714332
:1011B000394491ED060AB1EE400ABDEEC01A07E0CF
:1011C0002900C9B27143394491ED060ABDEEC01A37
:1011D0002900C9B27143394491ED060AB5EE400ABF
:1011E000F1EE10FA0AD52900C9B27143394491EDE4
:1011F000060AB1EE400AFDEEC01A07E02900C9B2A6
:101200007143394491ED060AFDEEC01A2900C9B2B6
:101210007143394491ED060AB5EE400AF1EE10FA39
:1012200001D536A200E00AA22900C9B271433944AF
:1012300091ED050AB5EE400AF1EE10FA0ED529003F
:10124000C9B27143394491ED050AB1EE402A0BE071
:101250000000000000000000000000002900C9B2EA
:101260007143394491ED052A2900C9B271433944CB
:1012700091ED050AB5EE400AF1EE10FA0AD5290003
:10128000C9B27143394491ED050AB1EE400AFDEE51
:10129000C02A07E02900C9B27143394491ED050A1B
:1012A000FDEEC02A2900C9B27143394491ED050A07
:1012B000B5EE400AF1EE10FA0AD52900C9B2714321
:1012C000394491ED050AB1EE400ABDEEC03A07E09F
:1012D0002900C9B27143394491ED050ABDEEC03A07
:1012E0002900C9B27143394491ED050AB5EE400AAF
:1012F000F1EE10FA08D501A107E000BF2D000000B3
:1013000010500228A908022871A19FED180AEDB219
:1013100006FB05F607EB06035B8C04930390B8EE1F
:10132000C11A70EEC10A60EE800AFDEEE00ACDED52
:10133000020ACDED011A0092F8EEE20A72EE600A9E
:1013400020EE800ABDEEC00A10EE103A13EE102A0D
:10135000A44801F0CCF91AE0000000000000594058
:10136000A4E70810C4E2081048E608100000C842CC
:101370009CE60810AC0802289B4D2878002806D16E
:10138000A94801F0B4F901202870002020712088BC
:101390006188491E884202DB208800F09BF80FE03C
:1013A0006079002801D1FFF739F86079012801D16F
:1013B000FEF772FE6079022801D1FFF77EF8FFE7A1
:1013C00018B0BDEC0E8BBDE8F0870000B8E5081042
:1013D000964801884288521E914201DB002003E0BA
:1013E0000188491C0180012070470000E8E50810D1
:1013F000CA52022870B52DED048B0C0015000100B7
:1014000089B2B1F5FA7F0DDA1422784B010089B266
:1014100051431944097C002904D0754E96F82510D3
:10142000002901D100203FE0010089B25143194455
:1014300091ED000AB7EEC00A96ED001B30EE418B2D
:1014400080B25043184490ED010AB7EEC00A96ED01
:10145000021B30EE419B28EE080B09EE090B01F050
:10146000E7FB85ED000B95ED000B9FED622BB4EED5
:10147000420BF1EE10FA06D596ED040AB7EEC00A5B
:1014800084ED000B0FE0B0EE481BB0EE490B01F00D
:10149000E3FB9FED5A2B20EE020B9FED652B80EEB8
:1014A000020B84ED000B0120BDEC048B70BD00002D
:1014B0000CE3081080B531EE400A71EEE00A20EE30
:1014C000000A00EEA00A01F007FC01BD18E60810B2
:1014D0000000000018B4010089B2B1F5FA7F0DDAFE
:1014E0001422424B010089B251431944097C00295E
:1014F00004D03F4C94F82510002901D1002044E08D
:10150000010089B25143194491ED000AB7EEC00AB7
:1015100094ED001B30EE410B010089B25143194498
:1015200091ED011AB7EEC11A94ED022B31EE421B78
:1015300020EE000B01EE010B9FED321A80B25043FA
:101540001844007B002809D0042802D0062806D0C1
:101550000AE0DFED391A21EE211A09E008E0F6EE83
:10156000001A21EE211A03E0F6EE001A21EE211AEC
:1015700021EE011AB7EEC11AB4EE401BF1EE10FADB
:1015800001DB012000E00020C0B212BC7047C0B2F5
:1015900000280BD002280DD00AD304280ED00BD37C
:1015A00006280FD00CD307280ED00FE016480EE007
:1015B00016480CE016480AE0164808E0164806E00F
:1015C000164804E0164802E0164800E01B48704741
:1015D000F0500228380702283C070228CB52022884
:1015E00090E0081020E10810CC520228AC08022834
:1015F000404F02287B14AE47E17A843F0000000090
:1016000000806640CDCC4C3E84E908101CEA0810EE
:1016100090E908109CE90810A8E90810B4E908103E
:10162000C0E9081024EA081050E3081010500228FE
:10163000282D4454FB210940CDCC4C3FCCE9081067
:10164000F8B52DED048B04000D0016009FEDA80BDE
:10165000DFF8E87997ED041AB7EEC11A21EE001B06
:101660009FEDA53B81EE031BB7EEC18B97ED031AEF
:10167000B7EEC11A21EE000B9FED9F2B80EE020BFF
:10168000F7EEC08BB0EE480A01F01EFCB0EE409AB7
:10169000B0EE680A01F018FCF0EE409AB0EE480A8D
:1016A00001F010FC60EE299AB0EE680A01F00AFC25
:1016B000F0EE408AB0EE480A01F004FC20EE280A61
:1016C000DFEDBA0A97ED091A31EE491A21EE201A18
:1016D00084ED001A97ED0A1A31EE691A21EE201AEC
:1016E00085ED001A97ED0B1A31EE400A20EE200A24
:1016F00086ED000ABDEC048BF1BD000080B52DED38
:10170000028B00F055F99FEDA58AB0EE480ADFF88C
:10171000300901F0DDFDB0EE480ADFF8280901F0DC
:10172000D7FDB6EE000ADFF8200901F0D1FD9FEDEC
:101730009C0ADFF8180901F0CBFDBDEC028B01BD5E
:10174000F8B52DED028BDFF8084994ED0A0ADFF8B1
:101750000409D0ED000A30EE600A00F097FBDFF8D4
:10176000DC58B1EE400A85ED050A94ED0C0AB1EEA5
:10177000400A85ED040A94ED0B0AB1EE400A85EDAE
:10178000030A94ED010AB1EE400A85ED060A94EDD4
:10179000000AB1EE400A85ED070A94ED020AB1EEA7
:1017A000400A85ED080A94ED040AB1EE400A85ED81
:1017B000090A94ED030AB1EE400A85ED0A0A606950
:1017C000E862DFF89408B0F9101049422980B0F9B6
:1017D0001200404268809FED730BB5F9000001EEE6
:1017E000100AB8EEC11AB7EEC11A21EE001BB7EE0F
:1017F000C11B85ED011AB5F9020001EE100AB8EE21
:10180000C11AB7EEC11A21EE000BB7EEC00B85ED81
:10181000020ADFF8486895ED010ADFF8240801F0B4
:101820006FFD86ED010A95ED020ADFF8180801F058
:1018300067FD86ED020A16F12C0216F1280116F159
:101840002400FFF7FDFE96ED090ADFF8FC0701F022
:1018500057FD86ED090A6869706128693061E8689A
:10186000F0600C2215F1180116F11807380001F08C
:10187000A5F895ED080ADFF8D40701F041FD86EDE3
:10188000080A94ED0A0AB7EEC00A9FED192B20EE64
:10189000020B9FED192B80EE020BB7EEC08BDFF829
:1018A000C047B0EE480A01F00FFBDFF8B807218807
:1018B00000EB810080ED000AB0EE480A01F002FB67
:1018C000DFF8A407218800EB810080ED000A208862
:1018D000401C20802088B0F5967F05DB002020800A
:1018E0000120DFF888170870BDEC028BF1BD000005
:1018F000282D4454FB210940000000000080664070
:1019000010B5DFF86C4700200021C4E90001002079
:101910000021C4E90201DFF854070078002832D022
:101920009FED7C0ADFED7B0A002014E0DFF834171E
:10193000020092B201EB820191ED001A30EE010A31
:10194000DFF82417020092B201EB820191ED001A38
:1019500070EE810A401C010089B2B1F5967FE5DB8B
:1019600001F0E8FCB7EEC00A9FED6B2B20EE020BF6
:101970009FED6B2B80EE020BB7EEC00BDFF8D406A9
:1019800080ED000A05E0DFF8C806806ADFF8C416BB
:101990000860012084F8250010BD0000CDCC4C3F2C
:1019A000CDCC4C3E3AC8C6554C4D633F0AE81C416D
:1019B00038B5DFF8C046012303220421200001F0DE
:1019C00085FADFF81405206004F2C445280001F010
:1019D0005DFFDFF8A40690ED000A00220021280038
:1019E00001F0F6FCDFF8940690ED000A01220121D7
:1019F000280001F0EDFCDFF8880690ED000A0222D5
:101A00000221280001F0E4FCDFF8780690ED000ADE
:101A100003220321280001F0DBFC04F25C552800BE
:101A200001F034FFDFF8600690ED000A002200218B
:101A3000280001F0CDFCDFF8540690ED000A0122E9
:101A40000121280001F0C4FCDFF8440690ED000AF3
:101A500002220221280001F0BBFC14F53F7528008A
:101A600001F014FFB7EE000A00220021280001F067
:101A7000AFFCB7EE000A01220121280001F0A8FC0A
:101A8000B7EE000A01220221280001F0A1FCB7EE06
:101A9000000A03220221280001F09AFC04F22C40E3
:101AA00001F0AAFC241D200001F0F0FE9FED190AB0
:101AB00000220021200001F08BFC31BD38B52DED56
:101AC000028BB0EE408ADFF8AC45D4ED008A14F505
:101AD000E675280001F090FCB1EE680A02220021B0
:101AE000280001F075FC14F19C05280001F0CEFEE1
:101AF000B0EE680A00220021280001F069FCB0EE77
:101B0000480A0022002114F59A7001F061FCBDEC36
:101B1000028B31BD00000000000000000080664024
:101B2000282D4454FB2109402DE9F0412DED088B6F
:101B300084B0FFF705FE00F071F900F0D1F900283C
:101B400004D1DFF85005007A002801D0012600E01A
:101B5000002600F04AF9F0EE408A00F053F9B0EEAA
:101B6000409ADFF8D804D0ED089ADFF8F04494EDFD
:101B700009AADFF8140590ED000ADFF81005D0ED92
:101B800000AADFF8EC5495F82400012807D1DFF80B
:101B9000080590ED000ADFF80405D0ED00AA9FEDDE
:101BA000CE8AF0EEE80AF4EE480AF1EE10FA14D507
:101BB000F0EEC90A9FEDB31AF4EE410AF1EE10FA05
:101BC0000BD53000C0B2002807D19FEDBEAADFEDD3
:101BD000AEAAB0EE6A0A9FEDBB9ADFF8987407F2DE
:101BE0005C5800220021404601F0F2FBB0EE6A0A88
:101BF00001220121404601F0EBFBDFF8940490ED57
:101C0000000A02220221404601F0E2FB07F2C4482A
:101C1000DFF8640490ED000A00220021404601F044
:101C2000D7FBDFF8580490ED000A0122012140465D
:101C300001F0CEFBDFF8480490ED000A02220221F9
:101C4000404601F0C5FBDFF83C0490ED000A03229A
:101C50000321404601F0BCFBF6B2002E24D09FEDDC
:101C6000990AFFF72BFF380001F0FAF93E1D002218
:101C70000021300001F0AAFDF0EE408A002201218F
:101C8000300001F0A3FDB0EE409A002201213000A7
:101C900001F09CFDF0EE409A00220321300001F09B
:101CA00095FD70EE299A06E0B0EE4A0AFFF706FFAE
:101CB000380001F0D5F9CDED008A684680ED019A33
:101CC000C0ED029A6946380001F022FA3E1D00225A
:101CD0000021300001F07AFDF0EE408A002201215F
:101CE000300001F073FDB0EE409A94ED050AB7EEB6
:101CF000C00A9FED752B20EE020B9FED752B80EE39
:101D0000020BF7EEC09B9FED6F0A9FED6E0A69EE26
:101D100008AAB0EEC90ADFED710AB4EE600AF1EE6E
:101D200010FA14D5B0EE000ACAEE80AA39EEAA0A5B
:101D300001F0C8F820EE280A20EE08AA39EEAA0A17
:101D400001F0C2F820EE280A20EE080A1DE088EE15
:101D5000898A39EEAA0A01F0B7F8B0EE40AAB0EECF
:101D6000690A01F0B1F83AEE400A20EE08AAB0EE96
:101D7000690A01F0A7F8B0EE40BA39EEAA0A01F0FC
:101D8000A1F83BEE400A20EE080AB7EECA1A95ED1C
:101D9000002B31EE021B85ED001BB7EEC00A95ED5E
:101DA000021B30EE010B85ED020BC5ED058A85EDBA
:101DB000069A00220221300001F008FD85ED070A95
:101DC00000220321300001F001FD85ED080A94EDA9
:101DD000050A00F05BF885ED040A012085F825006E
:101DE00004B0BDEC088BBDE8F0819C4890ED010A81
:101DF000D0ED020A30EE600AF6EE000A20EE200A6C
:101E000070470000954890ED010AD0ED020A30EECF
:101E1000200ADFED7F0A80EE200A704780B52DEDA5
:101E2000028B9FED2D8AFFF7E0FF9D48D0ED000A61
:101E300070EE600AC0EE880A80ED000A874890EDD7
:101E4000090A30EEC00AB0EEC00ADFED720AB4EE45
:101E5000600AF1EE10FA0BDB92480178491C017020
:101E6000007803280BDB0120814981F8240006E07B
:101E700000208C49087000207D4981F82400BDECC9
:101E8000028B01BDCDCC4C3D17B7D13880B52DEDBF
:101E9000028B9FED618AF0EE480A9FED601A30EEEA
:101EA000010A01F00DFDB5EE400AF1EE10FA01D580
:101EB00030EE080ADFED5A0A30EE200ABDEC028B44
:101EC00001BD000000000000282D4454FB21094002
:101ED00000000000008066400AD7233C6F12833A5E
:101EE00010B49FED502ADFED4A2A9FED4F3A9FED47
:101EF0004F0ADFED4F0A9FED4F1ADFED4F1A4F48A3
:101F0000D0ED0B3A90ED064AD0ED074A664862EEF6
:101F1000233AB7EE005A35EE422A90ED005A42EECF
:101F2000053AC0ED003AB0EEC42AF0EEE43A33EEE2
:101F3000822A5E4922EE822AF7EE003A73EEE22A06
:101F4000D1ED003A02EEA32A81ED002A90ED002A9D
:101F5000B4EE432AF1EE10FA08D590ED002AB4EE63
:101F6000420AF1EE10FA01D5012200E0002291EDC3
:101F7000000AB4EE600AF1EE10FA01D5012300E088
:101F8000002390ED000AB4EE401AF1EE10FA08D5E5
:101F900090ED000AB4EE610AF1EE10FA01D50124C9
:101FA00000E0002442490878002818D1D2B2002A63
:101FB00011D0DBB2002B0ED03E480278521C0270CA
:101FC00000223D4B1A700278052A1DDB01220A709F
:101FD0000022027018E00020364A107014E0E4B2CB
:101FE000002C0ED034480278521C02700022314B73
:101FF0001A7002780A2A07DB00220A700022027097
:1020000002E000202C4A1070087810BC70470000D5
:10201000CDCC4C3E010000400000B44300003443EE
:10202000000034C39A99993ECDCCCC3ECDCCCCBEE9
:102030000000AF43CDCC4C3F9A99993FEC4D02281C
:1020400094500228A0500228AC500228B850022810
:102050006C4D0228B0510228245002281C4E022840
:102060009E520228D43F022884440228C5520228E6
:10207000404F0228BC2F022810070228140702280C
:10208000180702281C070228200702282807022810
:102090003007022888500228240702282C0702282B
:1020A000B4510228C652022834070228B851022827
:1020B000C7520228C8520228C95202285FF0FF30D6
:1020C0007FF07C41704730B400204FF480721300E1
:1020D000DFF834472500012B0FDB15F01F01CB186B
:1020E000BFF34F8FDFF824170D602035203B012B05
:1020F000F8DABFF34F8FBFF36F8F94F8F410002915
:1021000015D00120002184F8F410012A0FDB14F00F
:102110001F018A18BFF34F8FDFF8F0160C602034D0
:10212000203A012AF8DABFF34F8FBFF36F8FC0B2A6
:1021300030BC7047DFF8D82682F8D4004FF4E07145
:1021400001290FDB12F01F004118BFF34F8FDFF89A
:10215000BC060260203220390129F8DABFF34F8F24
:10216000BFF36F8F70472DE9F0474FF4E079494690
:102170000022DFF89C462500280000F0B1FC4FF457
:10218000847529000022DFF88C663700380000F0E3
:10219000A7FC4FF4807739000022DFF86C86C24636
:1021A000504600F09DFCDFF870060068C8F800009B
:1021B000DFF868060068C8F80400DFF86406006805
:1021C000C8F80800DFF85C060068C8F80C00DFF803
:1021D00058060068C8F81000DFF850060068C8F814
:1021E0001400DFF84C060068C8F81800DFF8440651
:1021F0000068C8F81C00DFF840060068C8F8200036
:10220000DFF838060068C8F82400DFF834060068F4
:10221000C8F82800DFF82C060068C8F82C00DFF8A2
:1022200028060068C8F83000DFF820060068C8F803
:102230003400DFF81C060068C8F83800DFF8140620
:102240000068C8F83C00DFF810060068C8F84000D5
:10225000DFF808060068C8F84400DFF804060068E4
:10226000C8F84800DFF8FC050068C8F84C00DFF843
:10227000F8050068C8F85000DFF8F0050068C8F8F5
:102280005400DFF8EC050068C8F85800DFF8E405F2
:102290000068C8F85C00DFF8E0050068C8F8600076
:1022A000DFF8D8050068C8F86400DFF8D4050068D6
:1022B000C8F86800DFF8CC050068C8F86C00DFF8E3
:1022C000C8050068C8F87000DFF8C0050068C8F8E5
:1022D0007400DFF8BC050068C8F87800DFF8B405C2
:1022E0000068C8F87C00DFF8B0050068C8F8800016
:1022F000DFF8A8050068C8F88400DFF8A4050068C6
:10230000C8F88800DFF89C050068C8F88C00DFF882
:1023100098050068C8F89000DFF890050068C8F8D4
:102320009400DFF88C050068C8F89800DFF8840591
:102330000068C8F89C00DFF880050068C8F8A000B5
:10234000DFF878050068C8F8A400DFF874050068B5
:10235000C8F8A800DFF86C050068C8F8AC00DFF822
:1023600068050068C8F8B000DFF860050068C8F8C4
:10237000B400DFF85C050068C8F8B800DFF8540561
:102380000068C8F8BC00DFF850050068C8F8C00055
:10239000DFF848050068C8F8C400DFF844050068A5
:1023A000C8F8C800DFF83C050068C8F8CC00DFF8C2
:1023B00038050068C8F8D000DFF830050068C8F8B4
:1023C000D400DFF82C050068C8F8D800DFF8240531
:1023D0000068C8F8DC00DFF820050068C8F8E000F5
:1023E000DFF818050068C8F8E400FFF767FEC8E9E1
:1023F0003A01012088F8F0001F20C8F8F8000020FA
:1024000088F8F200012088F8F300B9F1010F12DB1F
:1024100014F01F0010EB0909BFF34F8FDFF8EC0336
:1024200004602034B9F12009B9F1010FF6DABFF3E5
:102430004F8FBFF36F8F012D0FDB16F01F00451973
:10244000BFF34F8FDFF8C40306602036203D012D17
:10245000F8DABFF34F8FBFF36F8F012F11DB18F046
:102460001F00C719BFF34F8FDFF8A003C0F800802B
:1024700018F12008203F012FF6DABFF34F8FBFF38A
:102480006F8FBDE8F087DFF88813DFF87404026B04
:102490000A60C26A4A60806A8860DFF8680400687F
:1024A000C860DFF8640400680861DFF86004006851
:1024B0004861DFF85C0400688861DFF85804006850
:1024C000C861DFF85404028A0A84408A4884DFF82D
:1024D0004C0400888884DFF848040088C884DFF84A
:1024E000440490ED000BB7EEC00B81ED0A0A90EDAD
:1024F000020BB7EEC00B81ED0B0A42690A638269D9
:102500004A6302698A6390F8250000EE100AB8EE6B
:10251000400A81ED0F0ADFF8100400680864DFF854
:102520000C0400684864DFF8080400688864DFF879
:1025300004040068C864DFF8000400680865DFF878
:10254000FC0300684865DFF8F80300688865DFF879
:10255000F4030068C865DFF8F00300680866DFF878
:10256000EC0300684866DFF8E80300688866DFF877
:10257000E4030068C866DFF8E00300680867DFF876
:10258000DC0300684867DFF8D80300688867DFF875
:10259000D4030068C867DFF8D0030068C1F8800082
:1025A000DFF8C803008800EE100AB8EE400A81ED9B
:1025B000210ADFF8BC03007800EE100AB8EE400AEA
:1025C00081ED220ADFF8AC03007800EE100AB8EEC5
:1025D000400A81ED230ADFF8A00390ED000AB8EE6F
:1025E000400A81ED240ADFF8940390ED000AB8EE6A
:1025F000400A81ED250ADFF8880390ED000AB8EE65
:10260000400A81ED260ADFF87C0390ED000AB8EE5F
:10261000400A81ED270ADFF870030068C1F8A000C6
:10262000DFF868030068C1F8A400DFF864030068FD
:10263000C1F8A800DFF85C030068C1F8AC00DFF85F
:1026400058030068C1F8B000DFF850030068C1F813
:10265000B400DFF84C030068C1F8B800DFF84403A9
:102660000068C1F8BC00DFF840030068C1F8C00092
:10267000DFF838030068C1F8C400DFF834030068ED
:10268000C1F8C800002009E001EB8002DFF8243324
:1026900053F820301B68C2F8D830401C3A28F3DBCE
:1026A000D1F8CC00401CC1F8CC00DFF80C038279D3
:1026B00081F8D020C27981F8D120027A81F8D22025
:1026C000407A81F8D3004FF4E072012A0EDB11F05A
:1026D0001F008218BFF34F8F4C4801602031203A11
:1026E000012AF9DABFF34F8FBFF36F8F70470EB433
:1026F00000B5C0B0020041AB4FF48071684601F0F4
:1027000045F900208DF8FF0072B6002100E0491C59
:10271000B1F5807F07D26846425C3E4B0B445A714C
:10272000405C0028F3D1B1F5807F03D30020394904
:1027300081F80401374A012010711068401C1060B4
:102740004FF4847101290EDB12F01F004118BFF312
:102750004F8F2E480260203220390129F9DABFF369
:102760004F8FBFF36F8F62B640B05DF810FB924899
:102770000079704770B501F032F94FF48074210090
:10278000214D2A0001290EDB12F01F004118BFF372
:102790004F8F1E480260203220390129F9DABFF339
:1027A0004F8FBFF36F8F95F8F000012829D10026D5
:1027B0000DE0D5E93A01320001F0CEF9C00705D5A8
:1027C00055F826007B4951F826100860761C3A2EF1
:1027D000EFDB00200021C5E93A01002085F8F00078
:1027E000012C0EDB15F01F000419BFF34F8F0748B3
:1027F00005602035203C012CF9DABFF34F8FBFF381
:102800006F8F70BD000000000016002870EF00E020
:102810000010002800140028E8EA0810ECEA08106C
:10282000F0EA0810F4EA0810F8EA0810FCEA0810C8
:1028300000EB081004EB081008EB08100CEB081074
:1028400010EB081014EB081018EB08101CEB081024
:1028500020EB081024EB081028EB08102CEB0810D4
:1028600030EB081034EB081038EB08103CEB081084
:1028700064EB081068EB08106CEB081070EB0810A4
:1028800074EB081078EB08107CEB081080EB081054
:1028900084EB081088EB08108CEB081090EB081004
:1028A00094EB081098EB08109CEB0810C0EB081094
:1028B000C4EB0810C8EB0810CCEB081040EB081074
:1028C00044EB081048EB08104CEB081050EB0810D4
:1028D00054EB081058EB08105CEB081060EB081084
:1028E000A0EB0810A4EB0810A8EB0810ACEB081044
:1028F000B0EB0810B4EB0810B8EB0810BCEB0810F4
:102900006C4D0228E051022840070228E4510228B9
:10291000E85102284407022824500228965202282F
:1029200098520228404F02280C51022810510228C8
:1029300014510228185102281C5102282051022843
:1029400000510228FC5002283C5102284051022824
:1029500044510228485102284C5102285051022863
:1029600054510228585102285C510228A4520228CE
:10297000D8520228D9520228505202285452022812
:10298000585202285C520228E45002284052022881
:10299000980702289C070228A0070228A4070228FB
:1029A000A8070228AC0702284452022848520228ED
:1029B0004C520228F8DE0810B007022862B38B07D9
:1029C00008D0521E11F8013B00F8013B00F02480B2
:1029D0008B07F6D1830740F0208000BF103A07D361
:1029E00030B4B1E83810103AA0E83810F9D230BC51
:1029F000530724BFB1E80810A0E8081044BF51F8FD
:102A0000043B40F8043BD20724BF31F8022B20F8E6
:102A1000022B44BF0B7803707047121F17D35B0063
:102A200009D151F8043B20F8023B1B0C121F20F87F
:102A3000023BF6D20BE051F8043B00F8013B1B0AC5
:102A400020F8023B1B0C121F00F8013BF3D238BFE9
:102A5000121D521E24BF11F8013B00F8013BF8D8AB
:102A60007047F0B40246106895681318506803EB7D
:102A70005004C00748BF4D44A3422DD013F8016B4A
:102A800016F0030004BF13F8010BC01C31090F2915
:102A900007D113F8011B0F3103E013F8017B05F890
:102AA000017B401EF9D10029E6D013F8010BC6F3D3
:102AB0008106032E08BF13F8016B00EB062040428D
:102AC00028440026B71E8F421EBF10F8017B05F870
:102AD000017B761CF6D1CFE7F0BC02F10C00704709
:102AE00062F30F2262F31F42401810F0030308D074
:102AF000C91A1FD3DB0748BF00F8012D28BF20F8F3
:102B0000022D130030B414461546103928BF20E9B1
:102B10003C00FAD8490728BF20E90C0048BF40F81C
:102B2000042D890028BF20F8022D48BF00F8012D90
:102B300030BC7047C91818BF00F8012DCB0728BF5B
:102B400000F8012D70478268521C8260426832B1E1
:102B50000268531C036011704168491E4160704750
:102B600010B4DFF86C10002081F86400002081F8B8
:102B70006500002200E0521CDFF8580040888242C5
:102B800024DA1423DFF8504003FB02F02044007BDA
:102B90000028F0D003FB02F02044007B0728EAD095
:102BA00091F8640001F8102091F8640001EB4000F6
:102BB00003FB02F323441B7B437091F86400401C29
:102BC00081F8640091F864003228D4DB10BC7047AF
:102BD000BC4C022810500228AC08022810EE100A43
:102BE000F5EE400AF1EE10FA0BD618B904BFB0EEBC
:102BF000600A06E0F4EE400AF1EE10FAB8BFB0EE5B
:102C0000600A704710EE100AF5EE400AF1EE10FA75
:102C100009D604BFC04207E0B4EE600AF1EE10FA34
:102C2000B8BFB0EE600A704728BFB0EE600A7047C8
:102C3000B5EEC00BF1EE10FA02D4B1EEC00B704746
:102C40006FF0004C20EE10CBAFF3008070470268AD
:102C5000531C03601170704752EC113B51EC10CBC8
:102C6000B0EEC00BB0EEC11BC80F4900520028BF28
:102C70000C3011F5001F34BF12F5001F10E0634542
:102C800072EB010C38BF80F0040013431AD003D25A
:102C900081EE000B00F070BF80EE010B00F06CBF06
:102CA00011F5001F08BF80F0040094BF12F5001F4B
:102CB0000CE08A424FF0000312BF00224FF07C521A
:102CC00042F4700242EC103B00F056BF6FF000413E
:102CD00020EE101B70470000B5EEC00AF1EE10FAAE
:102CE00002D4B1EEC00A70476FF0004C00EE10CA7B
:102CF000AFF3008070470000DFED620A60EE200A4B
:102D000010EE902A22F0004101EE101ADFED5E1A5B
:102D1000B4EE611AF1EE10FA25D54FF07C5102F0B5
:102D200000420A4301EE102A71EE200AFDEEE00A8D
:102D300010EE901A00296AD0FAEEC90A9FED531AD4
:102D400000EE810ADFED521A00EEA10A9FED512A32
:102D500000EE820ADFED502A00EEA20A9FED4F1A24
:102D600000EE810A53E010EE101A4B001B1613F10F
:102D7000010F0AD14900081610F1010F02D1090212
:102D800040F07F809FED460A7047490004D100283B
:102D900077D0B7EE000A70474FF07C5102F0004246
:102DA0000A4301EE102A71EE200A10EE902A51001B
:102DB0000DD0090EC1F196011829A8BF02F00042FA
:102DC00003DA0029C4BFCA408A4000EE902A10EE00
:102DD000901A490017D09FED331A20EE811ADFEDCB
:102DE0002B1A01EE210A9FED2A2A01EE020ADFEDDD
:102DF000292A01EE220A9FED283A01EE030ADFEDAF
:102E0000271A01EE210AFDEEE00A10EE901A01F0F9
:102E10000301081810EE101A21F0004100EE901A7C
:102E20009FED211AF4EE410AF1EE10FA04D5C10724
:102E300023D5B7EE000A20E0C10760EE000A0ED5E8
:102E40009FED1A0A9FED1A1A00EE801ADFED191A8B
:102E500041EE201AB7EE000A01EEA00A0DE09FED48
:102E6000162ADFED161A40EE821ADFED152A20EE43
:102E7000201A41EEA02A01EE220A800748BFB1EED7
:102E8000400A704783F9223F0000004F0000C9C686
:102E900000A0FDC00020A2BA000034B30030C2AED2
:102EA000FFFFFF7F00008038000080399349B2BAED
:102EB00036A02A3DDFFFFFBE6E8C4CB94283083C32
:102EC000A1AA2ABE012017E7002015E7F8B52DEDCD
:102ED000028B04000E0017001D00002C05D0701E90
:102EE000062802D2781E042801D30020B2E0012275
:102EF0003100201D00F054FA2A00310014F19C002A
:102F000000F04EFA0122290014F59A7000F048FAF8
:102F10003200310014F5E67000F042FA3200310060
:102F200014F5197000F03CFA3200390014F53F70C6
:102F300000F036FA3A00310014F5657000F030FA0E
:102F40003200310004F22C4000F02AFA3200310045
:102F500004F2C44000F024FA3A00390004F25C5054
:102F600000F01EFA0122390004F2F45000F018FAC1
:102F70003A00310004F28C6000F012FA01223100B4
:102F800004F2247000F00CFA0122310004F2BC704B
:102F900000F006FA3200310004F6540000F000FAA6
:102FA0003A00310004F6EC0000F0FAF93A0039007A
:102FB00004F6841000F0F4F93A00390004F61C20FD
:102FC00000F0EEF90122390004F6B42000F0E8F92F
:102FD0000122310004F64C3000F0E2F932003100F9
:102FE00004F6E43000F0DCF93200310004F67C40F5
:102FF00000F0D6F941F20C00265041F210002750A3
:1030000041F21400255014F5E67000F0F5F904F2D1
:103010002C4000F0F1F914F19C0000F0EDF904F2FD
:10302000C44000F0E9F99FED0D8AB0EE480A04F2C1
:10303000C44104F2C44000F0E5FB04F25C5000F02F
:10304000DBF9B0EE480A04F25C5104F25C5000F087
:10305000D9FB0120BDEC028BF2BD00000AD7233C56
:1030600010B50400002C52D041F20C00205841F25F
:1030700014016158D4F85C22824213D1D4F8602242
:1030800082420FD1D4F82C2182420BD1D4F83001E6
:10309000884207D1D4F8C401884203D1D4F8C801CA
:1030A000012800D033E0221D14F5E67104F22470EB
:1030B00000F004FA14F59A7214F19C0104F2BC7049
:1030C00000F0FCF904F2BC7204F22471201D00F03F
:1030D000B2F904F22C4214F5E67104F6540000F043
:1030E000EDF914F5E67114F5197000F02FFA14F5E6
:1030F000197204F6540104F22C4000F0DFF904F2D6
:10310000C44204F22C4104F22C4000F094F910BDAA
:103110002DE9F0412DED028B04000D00002C01D0B3
:10312000002D00D1D0E041F20C00265841F21000F1
:103130002758D4F88C03B8420BD1D4F89003B0428E
:1031400007D1D4F8EC05B84203D1D4F8F005B84261
:1031500000D0B9E05FF000080BE005EB880090EDCF
:10316000000A0022414604F2F45000F031F918F14F
:103170000108B845F1DB14F53F7114F5657000F0F6
:10318000E5F914F5657204F22C4104F6EC0000F048
:1031900095F904F6EC0214F53F7104F6841000F082
:1031A0008DF904F25C5204F6841104F6841000F0E8
:1031B00042F904F6841104F61C2000F0EBF9002813
:1031C00000F0828004F61C2204F6EC0104F28C600C
:1031D00000F074F9221D14F53F7104F6B42000F0DC
:1031E0006DF9002516E00022290004F2F45000F0E9
:1031F000EDFAB0EE408A0022290004F6B42000F077
:10320000E5FA38EE400A0022290004F6B42000F066
:10321000DFF86D1CBD42E6DB04F6B42204F28C61DB
:1032200004F64C3000F04AF904F64C32211D201D02
:1032300000F001F914F53F7204F28C6104F6E430F9
:1032400000F03CF904F67C4000F0D6F8002519E0C7
:103250003A00290004F67C4000F0B8FAB0EE408A4B
:103260003A00290004F6E43000F0B0FA38EE400AE3
:103270003A00290004F67C4000F0AAF87F1CB7420F
:10328000E6DB6D1CB54201DA0027F8E704F22C42B8
:1032900004F67C4104F6540000F010F900250FE01C
:1032A0003A00290004F6540000F090FA3A00290090
:1032B00004F22C4000F08CF87F1CB742F0DB6D1C50
:1032C000B54201DA0027F8E7BDEC028BBDE8F081DA
:1032D00000280BD0B5EE400AF1EE10FA06D9F7EE51
:1032E000000AB4EE600AF1EE10FA01DB002006E0FD
:1032F00080ED000A00214160012101720120704728
:10330000002802D0017A002900D111E0D0ED000A96
:1033100020EE800AF7EE000A90ED001A70EEC10A66
:1033200090ED011A00EE810A80ED010A90ED010A8C
:103330007047000052EC101AB0EEC00AC80F4900E6
:103340005200F0EEE00A28BF0C3011F1807F38BF48
:1033500012F1807F0CD28A4238BF80F00400124202
:1033600014D034BF80EE800A80EE200A00F090BCBA
:1033700011F1807F08BF80F0040098BF12F1807FB8
:1033800008D88A4214BF00224FF07E5200EE102A65
:1033900000F07EBC6FF0004100EE101A7047000094
:1033A00070B4C0F89010C0F8942000230AE01825EB
:1033B00005FB03F50544002645F82460641C94428F
:1033C000F5DB5B1C8B4201DA0024F8E770BC704728
:1033D000002910D4D0F8903099420CDA002A0AD48F
:1033E000D0F894309A4206DA18235943084400EB87
:1033F000820080ED000A7047002100E0491CD0F8EF
:103400009020914216DA002202E09FED4F0A07E079
:10341000D0F894309A42F1DA9142F6D1B7EE000A30
:10342000182303FB01F3034403EB820383ED000A3B
:10343000521CEDE77047F0B4D1F89030D2F89040CC
:10344000A34211D1D1F89430D2F89440A3420BD1C9
:10345000D0F89030D1F89040A34205D1D0F8943004
:10346000D1F89440A34200D025E000231DE01825A8
:1034700005FB03F6064406EB840605FB03F70F4441
:1034800007EB840797ED000A05FB03F5154405EBF0
:103490008405D5ED000A30EE200A86ED000A641C92
:1034A000D1F89450AC42E2DB5B1CD1F89040A342CF
:1034B00001DA0024F4E7F0BC70470000F0B4D1F862
:1034C0009430D2F89040A3420BD1D0F89030D1F88C
:1034D0009040A34205D1D0F89430D2F89440A34252
:1034E00000D02FE0002300E05B1CD1F89040A34205
:1034F00028DA00241EE0182606FB03F70F4407EB2A
:103500008507D7ED000A06FB05F6164406EB840690
:1035100096ED001A00EE810A6D1CD1F89460B54258
:10352000E9DB182505FB03F5054405EB840585ED6E
:10353000000A641CD2F89450AC42D5DA9FED020A1E
:103540000025EAE7F0BC70470000000030B4D1F875
:103550009420C0F89020D1F89020C0F89420002248
:1035600010E0182404FB03F5054404FB02F40C44AA
:1035700054F8234045F822405B1CD1F89440A34204
:10358000EFDB521CD1F890309A4201DA0023F4E7C5
:1035900030BC70472DE9F843C8B00D00002D08D0AD
:1035A0000400002C05D0D5F89000D5F8941088427E
:1035B00001D0002006E1D5F8906068464FF4907184
:1035C00000F0B8FB00271CE06846302101FB07F142
:1035D000084400EB880942463900280000F0F6F85C
:1035E00089ED000A18F10108B045EDDB684630218D
:1035F00001FB07F10844F1195FF07E5240F82120E9
:103600007F1CB74202DA5FF00008EDE7002000E01F
:10361000401CB04280F2B78030216A4601FB00F3C3
:103620001A4402EB800292ED000A020003001AE045
:10363000F0EEC00A6D4601FB03F73D4405EB800543
:1036400095ED001AB0EEC11AF4EE410AF1EE10FA4F
:1036500008D56A4601FB03F52A4402EB800292ED8D
:10366000000A1A005B1CB342E2DBDFED640AB0EE35
:10367000C00AB4EE600AF1EE10FA03D4824223D0FD
:1036800000231EE000209DE06D4601FB00F73D4455
:1036900005EB830595ED000A6D4601FB00F73D44FF
:1036A0006F4601FB02FC674457F8237045F823700E
:1036B0006D4601FB02F73D4405EB830585ED000AED
:1036C0005B1CB3EB460FDFDB6A4601FB00F31A44D9
:1036D00002EB800292ED000A002212E06B4601FB31
:1036E00000F52B4403EB82036D4601FB00F73D44DC
:1036F00005EB820595ED001A81EE001A83ED001AA4
:10370000521CB2EB460FE9DB00221EE06D4601FBC6
:1037100002F73D4405EB83056F4601FB00FC67445F
:1037200007EB830797ED001A6F4601FB02FC674425
:1037300007EB8307D7ED001A40EE411AC5ED001ADA
:103740005B1CB3EB460FE1DB521CB242BFF660AF2D
:103750008242F9D06B4601FB02F52B4403EB800358
:1037600093ED000AB0EEC00AB4EE600AF1EE10FA72
:10377000EADB6B4601FB02F52B4403EB800393ED80
:10378000000A0023DDE7320031002000FFF708FEC9
:10379000002512E06846302101FB05F10844F119CB
:1037A00000EB810090ED000A3A0029002000FFF7AD
:1037B0000FFE7F1CB742EDDB6D1CB54201DA00271E
:1037C000F8E7012049B0BDE8F0830000002911D4DA
:1037D000D0F8903099420DDA002A0BD4D0F894300A
:1037E0009A4207DA18235943084400EB820090ED0F
:1037F000000A01E09FED020A7047000078CC2B32EE
:103800000000000030B4002801D0002900D13BE0C6
:10381000D0F89020D1F890309A4215D1D0F8942069
:10382000D1F894309A420FD1D1F89020072A0BDAC0
:10383000D1F89420072A07DAD0F89020072A03DA73
:10384000D0F89420072A00DB1EE0002216E018249E
:1038500004FB02F5054405EB830504FB02F40C446C
:1038600004EB8304D4ED000A60EE800AC5ED000A83
:103870005B1CD1F89440A342E9DB521CD1F8903094
:103880009A4201DA0023F4E730BC704710B40028F4
:1038900014D000210CE0182303FB01F3034400249F
:1038A00043F82240521CD0F894309A42F3DB491C72
:1038B000D0F89020914201DA0022F4E710BC704762
:1038C00000B551EC100A00F003F800EE100A00BD3C
:1038D00010B54FF0004C00F000434900C0F3C7544E
:1038E0000A0E1ABFFF2CFF2A2DE0B1EB400F21D2A8
:1038F0004CEAC1114CEA0020090AA41A083C07D975
:10390000B0FBF1FE01FB1E0000021AD0083CF7D804
:103910006442E040B0FBF1FE01FB1E0088B1B0FA4A
:1039200080F18840D21D521A06DB43EA102000EBDA
:10393000C25010BD05D010BDD2F10802D0401843CE
:1039400010BD184610BD09421ABFFF2CFF2A0FE018
:10395000B1EB400FEED20902B1FA81F2914052422E
:103960002442C7D14002B0FA80F4A0406442C3E7C9
:103970006346DA0912EB400F2CBFD843D14218BF7F
:10398000D843BDE81040AFF30080704708B584B05D
:103990000023039300290EBF01930190491E029159
:1039A000009301A904AB07487844183000F0C9F926
:1039B000019909B100220A70002858BF039805B088
:1039C00000BD00BF83F1FFFF3F21084070470100A9
:1039D000C9B20A2901DB002000E0C0B270472DE91E
:1039E000F8435A4CA579E679277A94F809804FF480
:1039F00080710A00DFF858914B46012A0EDB13F064
:103A00001F008218BFF34F8F524803602033203AC3
:103A1000012AF9DABFF34F8FBFF36F8F99F8F300E4
:103A200000281AD11F20C9F8F800002089F8F200F8
:103A3000012089F8F3004A4601290EDB12F01F002D
:103A40004118BFF34F8F43480260203220390129CB
:103A5000F9DABFF34F8FBFF36F8FD9F8F800FFF794
:103A6000B3FF206099F8F100207199F8F2006071BD
:103A7000A571E671277284F80980BDE8F18310B55D
:103A800004002000C0B2062801DB002007E0FFF799
:103A9000A6FF2E480068E04010F00100C0B210BD43
:103AA00038B504000D002000C0B2062831DAFFF757
:103AB00096FFEDB2002D07D024480168012212FACA
:103AC00004F40C43046007E020480168012212FA64
:103AD00004F431EA040404601D4C1C480068FFF73C
:103AE00073FFC4F8F800012084F8F3004FF48071EC
:103AF00001290EDB14F01F004118BFF34F8F15484A
:103B00000460203420390129F9DABFF34F8FBFF365
:103B10006F8F31BD80B5C0B2FFF759FF0B49887177
:103B200001BD80B5C0B2FFF752FF0849C87101BDA1
:103B300080B5C0B2FFF74BFF0449087201BD80B5E4
:103B4000C0B2FFF744FF0149487201BDB007022827
:103B50000016002870EF00E0D2B2203A22BF21FA0E
:103B600002F0002170472032D141D04048409140BE
:103B7000D14048407047000021A1B1EC061BB4EED3
:103B8000410BF1EE10FA09DBB1EE424B33EE001BB4
:103B900000EE034B84EE010B40F0020030EE10CB40
:103BA000B1EC063B2CF0004CBCF1795F15D320EE54
:103BB000001B03EE014B20EE013B04EE015B05EE22
:103BC000030BB1EC083B03EE014B04EE015B05EE89
:103BD000016B06EE012B80EE020B38BF203140084E
:103BE00010F0020F18BFB1EE400B01EBC00191EDD8
:103BF000001B30EE010B28BFB1EE400B70470000F8
:103C000057CD9E5E1426D13F000000000000F03F1B
:103C1000AA4C58E87AB6FB3F845D57134B57B03F28
:103C2000B2934C19ED5EE43FBEDE02B90240F83FAC
:103C3000DE39028FC7C0743F8AAB1283000CC83FC5
:103C400024D7E508B6D8F03F0F34580E5895FD3FFD
:103C5000000000000000000066732D3852C1E03FF4
:103C6000182D4454FB21F93F66732D3852C1F03FA3
:103C7000182D4454FB21F93F66732D3852C1004082
:103C8000182D4454FB2109403FD038C6A6F104400A
:103C90001AA210EE101A43F2A40CC3F6896CF2ECCF
:103CA000060A614509DB00EE803A70EE800A83EE79
:103CB000200A40F0020010EE101A4900D1F1E6414E
:103CC0000BD860EE000A20EE203A03EE010A01EE66
:103CD000A02A42EE202A80EE220A400810F0020FAD
:103CE00018BFB1EE400A02EB8002D2ED000A30EEBE
:103CF000200A28BFB1EE400A70470000D7B3DD3F6D
:103D00006AD5033F2B94A93DB82A593F0000803F54
:103D1000000080BF00000000920A063FDB0FC93F91
:103D2000920A863FDB0FC93F920A0640DB0F4940EB
:103D3000368D2740002200F059BF000040F02000DF
:103D400070472DE9F14FB0B0924604910DF1420158
:103D50003A9A2B9199464A7000200AE01AF8011B02
:103D60000498309A90470028049000F034860D980B
:103D7000401C0D909AF8000050B12528EED100218A
:103D800000220791089209910A920B910C9204E08B
:103D90000D9800F022BE41F001011AF8010F202811
:103DA000F9D023280CD02B2804D02D2805D030287A
:103DB00009D00BE041F00201EFE741F00401ECE72C
:103DC00041F00801E9E741F01001E6E72A280FD1A8
:103DD000D9F8002052F8040BC9F8002000280F90F1
:103DE00003D540420F9041F004010AF1010A14E0AA
:103DF0000F92DFF8EC3B0AE00F98984205DA00EBEF
:103E0000800402EB4402303A0F920AF1010A9AF858
:103E10000020A2F130000A28EED39AF800002E28E4
:103E200003D04FF0FF320E9229E01AF8010F2A2832
:103E300009D1D9F8000050F8042BC9F800000E92FF
:103E40000AF1010A1BE02D280CBF0AF1010A00202B
:103E500000220E92DFF8884B0BE040B90E9AA24286
:103E600005DA02EB820503EB4503303B0E930AF1C2
:103E7000010A9AF80030A3F130020A2AEDD3ADF816
:103E800040100FF660309AF8001000F0C9FE08B13B
:103E90001AF8010B8DF842009DF84200682805D100
:103EA0009AF8000068280CD1622106E06C2804BF53
:103EB0009AF800006C2804D171218DF842100AF1A3
:103EC000010A12A806901AF801BBBBF125012CD0FB
:103ED0001C3900F09481091F022940F290811339A6
:103EE00000F0AB84093900F08A81891E00F040851A
:103EF000491E00F0ED84491E022940F28081091F0D
:103F000000F0E684491F00F0EF80491E00F0958420
:103F1000491E00F0D780C91E0CD0891E00F08D8488
:103F2000C91E00F08A8400F02EBD012307932521CD
:103F300000F026BDD9F8000050F8044BC9F8000085
:103F4000002C059440F0AB802B994878002800F0B5
:103F5000A1804FF0FF340FF6942000F06DFE241A7C
:103F600040F0398500F01BBD01236A4602A93046A6
:103F700000F000FE002840F02E85641EF4D130963B
:103F8000079C12AF74B1309E17F8011B0498B0471C
:103F90000028049000F01F850D98401C641E0D90B1
:103FA000F2D130960A9C3021002C8DF800100CDDE7
:103FB000309E01236A4602A9304600F0DBFD00284E
:103FC00040F00985641EF4D13096059F089C74B1B9
:103FD000309E17F8011B0498B0470028049000F0A9
:103FE000FA840D98401C641E0D90F2D130960B9C03
:103FF0003021002C8DF800100CDD309E01236A4624
:1040000002A9304600F0B6FD002840F0E484641EAA
:10401000F4D1309605980899099C471874B1309EE0
:1040200017F8011B0498B0470028049000F0D384CF
:104030000D98401C641E0D90F2D130960C9C3021DE
:10404000002C8DF800100CDD309E01236A4602A979
:10405000304600F08FFD002840F0BD84641EF4D18E
:1040600030969DF8400041077FF584AE2020002D5A
:104070008DF800007FF77EAE309C01236A4602A9CE
:10408000204600F077FD002840F0A5846D1EF4D195
:1040900030946FE60FF63C30059000F080BC0E9D2A
:1040A000002D04D5204600F0E7FD044607E02A462F
:1040B000204600F0FDFD002814BF041B2C46089488
:1040C00000F06DBCD9F8001051F8040BC9F80010CD
:1040D00020F00004002121F0FF35CDE9024512ABAC
:1040E0000593782100F040BC2B99487820B14FF01F
:1040F000FF340FF6B02030E79DF84200622860D010
:10410000682817D06A283FD06C2806D0712847D07D
:1041100074282CD07A281DD062E0D9F8001051F80C
:10412000040BC9F80010002866D14FF0FF340FF6D9
:104130008C2012E7D9F8001051F8040BC9F80010D0
:1041400020B94FF0FF340FF6742006E70D99018077
:1041500000F025BCD9F8001051F8040BC9F8001084
:10416000002849D14FF0FF340FF65020F5E6D9F87A
:10417000001051F8040BC9F8001000283CD14FF092
:10418000FF340FF63820E8E6D9F8001051F8040B98
:10419000C9F8001080B94FF0FF340FF62020DCE69C
:1041A000D9F8001051F8040BC9F8001020B94FF0ED
:1041B000FF340FF60820D0E60D9AD317C0E900238C
:1041C000EDE3D9F8001051F8040BC9F8001020B93C
:1041D0004FF0FF340FF6E410BFE60D990170DEE3F7
:1041E000D9F8001051F8040BC9F8001020B94FF0AD
:1041F000FF340FF6C810B0E60D990160CFE39DF8CB
:1042000042004C2807BFD9F80010CA1DD9F8000099
:10421000C21D22F00702C9F80020D2E900010832CD
:10422000C9F80020CDE90201C80F02D007982D215E
:104230000AE0BDF84000810702D507982B2103E072
:10424000C00705D50798202112AA1154401C0790D9
:1042500012A807994BF0200300EB010CDDE90201E5
:10426000CDE92C01612BCDF814C021AC0BD00E98F8
:10427000002848BF062105D404BF4BF02000672862
:1042800001D101210E91DDE902014F0047EAD0770B
:104290007E15FF174FF0FF32974208BF964210D1AC
:1042A000090341EA10510003002908BF002808D083
:1042B000ABF1610503211A2D089118D30FF61C11DB
:1042C00010E0DDE902014A00521512F1010F11D18F
:1042D00008030FD1ABF1610503211A2D08911FD3FB
:1042E0000FF6001103226046FEF768FB57E30FF656
:1042F000E801F7E7DDE902016A4600F005FDCDE9D6
:1043000002014BF02000612811D105983021017085
:10431000821C0592BBF1610F0CBF7821582102E08D
:104320000FF6BC01DEE741700798801C0790DDE9BD
:10433000020120F0000231F0004308BF002A02D140
:104340000026002542E14BF02008B8F1610F40F053
:1043500092800E98002847BF21210191401C0190B6
:10436000019FDDE92C017F1C00220023DDE90245CD
:1043700000F002FD38BF85F0004500998DF88420DB
:10438000091F002F00910DF1850632DD20462946D8
:104390000022002300F00AFD2BD21C2200F020FD99
:1043A00004460D4600F09EFDFF1F002F804609DDEC
:1043B00000F09FFD02460B462046294600F0A0FD76
:1043C00004460D46F01D0721B8F1000F0CDD491E13
:1043D0005EBF08F00F0200F8012D4FEA2818F3D550
:1043E00002E0002200F8012D491EFAD5C61D002F5B
:1043F000CCDC0DF18500361A01980DF1850486425A
:10440000D8BF304600282FD4B04206DA0DF185011E
:104410000A5C082AA8BF0F2100DA0021024621AB5E
:10442000134400E0401E13F80159521E8D42F9D08A
:104430000F2904D10DF185018B5C5B1C8B54002A84
:1044400004D50099091D21AC401C0091411E0BD4DC
:10445000621813783033DDB23A2DA4BF5B443A3B87
:10446000491E02F80139F4D50E99002940F1AC80BB
:10447000421E0E92A8E00099DFF8E82647F2975016
:10448000414391FBF2F20092DDE92C45C2F10702B3
:10449000002A25F0004504DD2046294600F03EFBB9
:1044A0000BE052420020DFF8C01600F037FB024656
:1044B0000B462046294600F02CFD04460D46B8F177
:1044C000660F06BF009F0A3706270E983F18142F65
:1044D000C8BF142730208DF884000DF18506002F09
:1044E00034DD2046294600F01DFD01460A4606F14E
:1044F000080304200A26B2FBF6F606EB860EA2EBB2
:104500004E02303203F8012C0A22B6FBF2F202EB23
:10451000820EA6EB4E063036401E03F8026DE9D13E
:10452000083F002F03F10806D9DD084600F001FD21
:1045300002460B462046294600F0E2FC0022DFF846
:104540002C3600F0FDFC04460D46CAE70DF185004F
:10455000361A0DF1850404E00098401E761E009086
:10456000641C20783028F7D0B8F1660F02D100988B
:10457000401C04E0B8F1650F0CBF012000200E992B
:1045800040188642B8BF701E00281DD4B04204DA1D
:10459000215C3429C8BF392100DC30210246631E6A
:1045A0009D1800E0401E15F80169521E8E42F9D098
:1045B000392902D1A15C491CA154002A04D50099D3
:1045C000491C1C46401C00910646009D0E9F30B2BF
:1045D000002802DC01260FF210644BF02000662850
:1045E00008BF6D1C15D067280FFA85F841D118F166
:1045F000040F44DBB84542DA9DF840006D1C01070A
:1046000003D430B2B842D8BF074628B23F1A48BFD9
:1046100000270FFA85F8B8F1000F00F3AF80089873
:10462000411C0891302205990A54002F03DC9DF8A3
:104630004000010705D50898411C08912E220599D4
:104640000A5417EB080FB8BF7D422DB26842ED192E
:1046500032B20B909542B8BF2E46059B089836B2F1
:104660000996324621461844FEF7A8F9AD1B0C9571
:10467000CCE0BBF1610F15D14FF0700B17E030B2F9
:10468000B84204DA9DF840100A0758BF07467F1E5B
:1046900048BF0027BBF1670F14BF4FF0450B4FF029
:1046A000650B04E0BBF1410F08BF4FF0500B0898B9
:1046B000411C0891002F059914F8012B0A5403DCC2
:1046C0009DF84000010719D50898411C08912E2239
:1046D00005990A54002F11DD761E30B28742B8BF0B
:1046E0003E460598089B32B221461844FEF766F90B
:1046F000089836B23018BF1B08900B970598089998
:104700000844B8F1000F80F800B003D42B224270A7
:10471000821C04E02D2145464170821C6D4200211F
:104720002CAB28460AE004460A2094FBF0F000EB8C
:104730008005A4EB450403F8014B491C00B2002896
:10474000F1DC012906DC4BF02000652804BF302095
:1047500002F8010B00292CAB08D1302002F8010B24
:1047600006E0491E585C303002F8010B0029F8DCE5
:10477000059908980844121A099247E030B229B204
:1047800088421BDA0598089B32B221461844FEF78E
:1047900015F9089936B271180891A8EB0600002F98
:1047A0000B9003DC9DF84000020705D5059A2E20EA
:1047B00050540999491C09910C9727E00598089BCA
:1047C0002AB221461844FEF7F9F80898761B4044AF
:1047D000002F089003DC9DF840100A0704D5411C07
:1047E00008912E2205990A5430B28742B8BF3E463E
:1047F0000598089B32B204EB08011844FEF7DEF876
:10480000089836B23018BE1B08900B969DF84000F1
:1048100000F01400102840F0C280079A08980B9905
:10482000821809988A1882180C980F998018884263
:1048300080F2B580081A0A90B1E09DF84200622823
:1048400008D068280ED06A2814D06C281FD0712890
:1048500010D01CE0D9F8001051F8040BC9F8001072
:10486000C0B21AE0D9F8001051F8040BC9F80010D2
:1048700080B212E0D9F80000C21D22F00702C9F888
:104880000020D2E900010832C9F8002006E0D9F87A
:10489000001051F8040BC9F800100021CDE9020105
:1048A0009DF8400001075AD5DDE90223002B08BF1F
:1048B000002A54D04BF02000782850D1079812A934
:1048C00030220A54401C431C079301F800B046E014
:1048D0009DF84200622808D068280ED06A2814D0BB
:1048E0006C281FD0712810D01CE0D9F8001051F8A6
:1048F000040BC9F8001040B21AE0D9F8001051F8C2
:10490000040BC9F8001000B212E0D9F80000C21D73
:1049100022F00702C9F80020D2E900010832C9F8E4
:10492000002006E0D9F8001051F8040BC9F8001077
:10493000C117CDE90201002902D507982D210AE00F
:10494000BDF84000810702D507982B2103E0C0077E
:1049500005D50798202112AA1154401C079012A8CF
:10496000079901440591594602A800F04DF816E058
:1049700001200790D9F8000050F8041BC9F8000086
:104980008DF848100BE001212522BBF1000F0791A3
:104990008DF8482003D0022207928DF849B00F9D70
:1049A00007990A986D1A08992D1A0B986D1A09998A
:1049B0002D1A0C986D1A9DF840102D1A48073FF5D6
:1049C000DFAA2021002D8DF800107FF7D9AA309E94
:1049D0002C46FFF7C9BA4FF0FF3031B0BDE8F08F79
:1049E000CBCCCC0C686A6C747A4C00007072696E27
:1049F00074665F733A206261642025732061726778
:104A0000756D656E740000002DE9FC4707468A4607
:104A10003C6950466F2808BF082505D0FFF78EF97E
:104A2000782814BF0A251025D7E900013C268046C6
:104A30008946BAF1640F18BFBAF1690F05D1002990
:104A400003D5D8F1000869EB4909B9F1000F08BF97
:104A5000B8F1000F0CD1386B50B9082D3AD197F846
:104A60003800010736D530223B2684F83B2031E060
:104A70008DF800A0404649462A46EB1700F06AFA36
:104A80003032D0B2761E3A2801960EDAA255404650
:104A900049462A46EB1700F05DFA80465FEA0109B5
:104AA00008BFB8F1000F05D108E09DF8000012180A
:104AB000513AEBE7F868A1198842DBD3082D09D1F8
:104AC00097F83800010705D5A05D302802D0761E82
:104AD0003020A055C6F13C03BB61A119F960386BC9
:104AE000834208DAC31A3B624FF6EF70398F0140F8
:104AF0003987BDE8F38700280ED597F8380000F015
:104B00001400102808D17A6B7969386A521A121A7F
:104B1000D21A002AC8BF3A62BDE8F3872DE9D04314
:104B200006460F4614464FF00008DFF8449012E0A6
:104B3000E00707D542464B463046394600F000FABA
:104B400006460F464046494642464B4600F0F8F9B5
:104B5000641080468946002CEAD130463946BDE8CB
:104B6000D0830000A08601000000F03F84D7974169
:104B700000002440F8B505460E4617461C460020A6
:104B80005CB117F8011BB068A847B06030B1F06A9B
:104B9000401CF0620020641EF3D1F2BD4FF0FF30E4
:104BA000F2BD00007072696E74665F733A20256E04
:104BB00020646973616C6C6F776564007072696EF4
:104BC00074663A2062616420256E20617267756D9B
:104BD000656E7400000000006E616E004E414E0074
:104BE000696E6600494E46003000000000B500BF07
:104BF000130096469446103928BFA0E80C50FAD806
:104C00005FEA417C28BF0CC048BF40F8042BC907AD
:104C100028BF20F8022B48BF00F8012B00BD000080
:104C2000C9B202788A421AB11CBF10F8012FF9E705
:104C300018BF00207047000080B500B906A00549E4
:104C40000B681BB122220021984701E000F09AFA7C
:104C5000222002BD90520228636F6E7374726169E4
:104C60006E742068616E646C65723A2062616420C3
:104C70006D6573736167650000F10103810704D0FE
:104C800010F8011B820781B1FAD10268A2F101314B
:104C9000914311F0803104BF50F8042FF6E709BAB0
:104CA000B1FA81F100EBD100401CC01A704700003E
:104CB000C9B2830706D0521E22D310F8013B994295
:104CC000F7D11FE0083A13D302F1040241EA0121AF
:104CD00041EA014150F8043B121F21BF4B40A3F1B0
:104CE000013C2CEA030C1CF0803FF3D0C9B2001F3A
:104CF000083210F8013B521E28BF91EA030FF8D882
:104D000018BF0120401E704710B5144600F002F88D
:104D1000226010BDC1F30A5343B14A0012F5001FCF
:104D200028D2A3F2FE32A1EB0251704750EA410CA7
:104D300020D001F0004C31EA0C01B1FA81F204BF3D
:104D4000B0FA80F3D2180B3AB2F120032CBF00FA6C
:104D500003F1914041EA0C013EBFC2F1200C20FA60
:104D60000CF319439040524240F2FD33D21A01EB4A
:104D7000035170470022704741EA030C50EA4C0C83
:104D800052EA0C0C4FF4001C09D307D01CEB410F66
:104D90009CBF1CEB430F8B4208BF824270471CEB49
:104DA000430FFBD8994208BF9042704741EA030C79
:104DB00050EA4C0C52EA0C0C4FF4001C09D307D0FB
:104DC0001CEB410F9CBF1CEB430F994208BF904264
:104DD00070471CEB410FFBD88B4208BF82427047E3
:104DE00000B541EC100B104600F004F851EC100B2C
:104DF00000BD00BF020030EE101B40F2FF7C37D434
:104E00001CEA115313D063456BD09B18634504D241
:104E100001EB025120EE101B704701F0004141EA06
:104E20000C51002041EC100BAFF30080704710EEE6
:104E3000100B50EA410054D0B2F57F7F08D202EB4C
:104E40005C010905002041EC110B20EE010B7047BD
:104E50004FF0FE41002341EC113B20EE010BB2F577
:104E60007E7230EE101B4FEA410342EB5353CDE705
:104E700052421CEA115316D0634532D09A4204D2F2
:104E8000A1EB025120EE101B70475B1ED21AA1EB62
:104E9000035120EE101B372A0CD3002001F00041F3
:104EA00041EC100BC0E710EE100B50EA410018D097
:104EB000372AF2D2C2EB5C021105002041EC110B43
:104EC000F1EE100A20F01F0121F4F851E1EE101A62
:104ED00020EE010BF1EE101AE1EE100A11F0080FAE
:104EE000A2D1704741EC100BBDEEC00B10EE100AC2
:104EF000704700EE100AB8EEC00B51EC100B704773
:104F000041EC100B43EC112B30EE410B51EC100B2C
:104F1000704741EC100B43EC112B80EE010B51EC70
:104F2000100B704741EC100BBCEEC00B10EE100ADA
:104F3000704700EE100AB8EE400B51EC100B7047B2
:104F400041EC100B43EC112B20EE010B51EC100B3C
:104F500070470000BBBBE1B1B2F5803F80F07E80BE
:104F6000022A1ED98C46B1FBF2F102FB11C31B04CD
:104F700043EA1043B3FBF2FC02FB1C3380B240EA6D
:104F80000343B3FBF2F002FB103240EA0C40002373
:104F90007047022A05D98446B0FBF2F002FB10C22A
:104FA00070474AB105D100F0010249085FEA3000BC
:104FB000704700220023704700F0E8B80B000200A1
:104FC000002100207047904271EB030CF6D3B3F53B
:104FD000803F2FD2F0B5B3FA83F7B1FA81F4A7F18D
:104FE0000F0E3D1B5340CEF1200602FA0EF2F341A4
:104FF0005340B5F10F0746D80F3C2C444140C4F153
:105000002006A040F1414140B1FBF3F603FB16112D
:10501000A2FB0645001BA94102D2761E8018594109
:1050200080EA010221FA0EF362FA0EF200215A40E0
:105030003046F0BD30B4B1FBF3FC03FB1C11A2FB06
:105040000C45001BA94103D2ACF1010C8018594159
:1050500030BC02460B46604600217047B2F1807FAB
:1050600065D3F0B5B2FA82F7B1FA81F4C7F10F0651
:105070003D1B22FA06F307F1110EF24120355A408A
:10508000B5F10F07B8D94140C4F12006A040F14165
:105090004140B1FBF3FC03FB1C11A2FB0C45001BC0
:1050A000A94103D2BCF1010C801859410F2F12D332
:1050B0000F3FC90341EA5041B1FBF3F603FB161160
:1050C000A2FB0645D4EBC030A94102D2761E80185F
:1050D000594146EACC3C07B34140C7F12006B840ED
:1050E000F1414140B1FBF3F603FB1611A2FB06456B
:1050F000001BA94102D2761E8018594180EA0102A4
:1051000021FA0EF3C7F1200462FA0EF20CFA07F04E
:105110005A402CFA04F13043F0BD80EA010221FA32
:105120000EF3002162FA0EF260465A40F0BD8C4642
:10513000B1FBF2F102FB11C31B0243EA1063B3FBA4
:10514000F2FC02FB1C331B024CEA002043EA106312
:10515000B3FBF2FC02FB1C331B024CEA002043EAC7
:105160001063B3FBF2FC02FB1C331B024CEA002071
:1051700043EA1063B3FBF2FC02FB1C324CEA002052
:1051800000237047012000F003B8000070470000C2
:1051900080B5AFF30080024A11001820ABBEFBE7D8
:1051A0002600020080B52DED068BF0EE609A9FED93
:1051B00047AADFF84C05D0ED000AF5EE400AF1EE03
:1051C00010FA02DDD0ED00AA03E0DFF83805D0EDDB
:1051D00000AADFF83405D0ED000AF5EE400AF1EE42
:1051E00010FA02DD90ED008A03E0DFF8200590ED73
:1051F000008ADFF81C05D0ED000AF5EE400AF1EE5A
:1052000010FA02DDD0ED008A03E0DFF80805D0EDEA
:10521000008ADFF80405C0ED00AADFF8000580ED84
:10522000008AB2EE041AFAEE040A00F0F9FEB0EEBB
:10523000409A9FED271ADFED5A0AB0EE690A00F096
:10524000EFFEF0EE400A29EE0A0A6AEEA09A00F09C
:1052500019FF69EE809AB0EEC90ADFED520AB4EE8A
:10526000600AF1EE10FA10DBB0EEE90AB4EE680A5B
:10527000F1EE10FA09D5B5EE409AF1EE10FA02DD22
:10528000F0EE689A01E0F1EE689AB0EE481AF1EE9D
:10529000480AB0EE690A00F0C3FE70EE690AF0EE4B
:1052A000E00A9FED411AF4EE410AF1EE10FA05DB37
:1052B000DFF8D0075FF07E51016003E0DFF8C4073C
:1052C00000210160BDEC068B01BD000035FA8E3C6B
:1052D000295C0F3E10B5DFF84844200000F0B1FE15
:1052E000DFF8400490ED001ADFF83C04D0ED000A2E
:1052F000DFF8380490ED000A200000F0BBFEDFF874
:105300003044200000F09DFEDFF8280490ED001AE4
:10531000DFF82404D0ED000ADFF8200490ED000A45
:10532000200000F0A7FEDFF81844200000F089FEFE
:10533000DFF8100490ED001ADFF80C04D0ED000A3D
:10534000DFF8080490ED000A200000F093FEDFF87B
:105350000044200000F075FEDFF8F80390ED001A1D
:10536000DFF8F403D0ED000ADFF8F00390ED000A57
:10537000200000F07FFEDFF8E843200000F061FE2F
:10538000DFF8E00390ED001ADFF8DC03D0ED000A4F
:10539000DFF8F40690ED000A200000F06BFE10BD6F
:1053A000CDCCCC3C9B99993EADC52737E0B5FFF7F6
:1053B00091FF6A4601A9DFF8DC06D0ED000ADFF8AC
:1053C000440B90ED000A002001F042F90099019889
:1053D00001F0DDF907BD000030EEC00A80ED010AE2
:1053E00090ED020AD0ED010A30EE200A80ED020AAB
:1053F00090ED020ADFED930AB4EE600AF1EE10FAC6
:1054000002DBDFF8941681609FED8F0AD0ED020A6F
:10541000F4EE400AF1EE10FA01D580ED020ADFF851
:10542000001391ED000AD0ED010A20EE200AD1ED23
:10543000010A90ED021A00EE810A80ED000A90ED5B
:10544000000ADFED820AB4EE600AF1EE10FA02DB28
:105450005FF08241016090ED000AFAEE000AB4EEBE
:10546000600AF1EE10FA02D55FF04141016090ED63
:10547000000A704710B52DED028BDFF81406D0ED51
:10548000001A31EE811A31EE408AF1EE608ADFF8BF
:10549000784A94ED000A30EE080A84ED000A9FED88
:1054A0006C1ADFED6C0A94ED000A00F0B9FD84ED92
:1054B000000A9F4890ED000A20EE480AD0ED010A4C
:1054C00094ED001A00EEC10AD0ED020A08EEA00A1F
:1054D000DFF8380A80ED008ADFED5F0AB4EE600A7B
:1054E000F1EE10FA01DB9FED5D0ADFED7B0AB4EE11
:1054F000600AF1EE10FA01D5B0EE600ABDEC028B45
:1055000010BD000070EE600ADFF8040A90ED000A9A
:1055100030EE200A80ED000A90ED000A9FED6F1A30
:10552000B4EE410AF1EE10FA02DBDFF8E81901608F
:105530009FED6B0A90ED001AB4EE401AF1EE10FAEE
:1055400001D580ED000ADFF8D01991ED000A30EEA8
:10555000C01ADFF8C82992ED000A20EE200AD2ED29
:10556000011A90ED002A01EE820AD2ED021A01EE34
:10557000810AC1ED000A7047010040F6AD5081423A
:1055800002DB40F6AC5004E0DFF89409814200DB16
:1055900008007047DFF88C0900210160DFF88809F6
:1055A00000210160DFF8840900210160DFF8800933
:1055B00000210160DFF87C0900210160DFF8780933
:1055C00000210160704780B50020DFF87019088065
:1055D0000020DFF86C190880FFF7DCFF00210020B5
:1055E00001F089FB01BD10B52DED028BC0B2002882
:1055F00008D030EE201ABDEEC11A30EE600ABDEEC2
:10560000C08A03E0BDEEC01ABDEEC08A11EE100ADA
:10561000FFF7B2FF0400644218EE100AFFF7ACFF78
:10562000DFF818190C80DFF818190880644240422E
:10563000010009B2200000B201F05DFBBDEC028B5D
:1056400010BD00000100FA440000FAC4010000414E
:1056500000007A4400007AC401409C4500409C450B
:1056600080B530EEC00ADFF82404D0ED020A03E072
:105670009FED1C1A30EE010A9FED1B1AB4EE410A91
:10568000F1EE10FAF4DA9FED191AB4EE410AF1EED8
:1056900010FA04D59FED161A30EE010AF3E7B0EECA
:1056A000C01AF7EE081AB4EE611AF1EE10FA01D53D
:1056B0009FED100A254890ED001A21EE000A2148BE
:1056C00090ED001A01EE600A9FED0B1ADFED0B0A58
:1056D00000F0A6FC01BD000000409CC50180BB4459
:1056E0000080BBC40000B4C301003443000034C3D5
:1056F0000000B4430000000000009644000096C47F
:105700004807022840EB08104C07022844EB081019
:105710005007022848EB0810505102285451022823
:105720004C4E0228F4510228F0510228EC51022874
:105730007C4E022800520228FC510228F85102280F
:10574000AC4E022824520228205202281C52022861
:10575000DC4E02280C520228085202280452022869
:105760000C4F0228185202281452022870B52DED51
:10577000028BDFF8D007B0F9000000EE100AB8EE97
:10578000C00A01F079FBB0EE408A01F075FD0028F7
:1057900015D00320FEF7C5F9DFF8AC070021016042
:1057A000DFF8A80700210160DFF8A40700210160ED
:1057B000DFF8A00700210160FFF705FF5CE1FCF7BF
:1057C000D6FF002815D10120FEF7ABF9DFF87807E6
:1057D00000210160DFF8740700210160DFF8700725
:1057E00000210160DFF86C0700210160FFF7EBFE8C
:1057F00042E10020FEF795F9DFF85C1708780028F1
:105800000BD0DFF858070078002806D0DFF85007E3
:10581000DFF85027026000200870DFF84C579B4CDF
:10582000206B286001F0D0FD002833D00320FEF764
:1058300078F99FED931ADFED920A9FED910ADFF858
:105840002C0700F017FC9FED8E1ADFED8D0A9FEDFF
:105850008C0ADFF81C0700F00DFC9FED891ADFEDC4
:10586000880A9FED870ADFF8B40600F003FCDFF832
:10587000D80600210160DFF8D40600210160DFF8BE
:10588000D00600210160DFF8CC0600210160FFF79F
:105890009AFEF1E0DFF8DC0690ED001ADFF8D8069A
:1058A000D0ED000ADFF8D40690ED000ADFF8BC0660
:1058B00000F0E0FBDFF8C80690ED001ADFF8C40640
:1058C000D0ED000ADFF8C00690ED000ADFF8A00670
:1058D00000F0D0FBDFF8B40690ED001ADFF8B00658
:1058E000D0ED000ADFF8AC0690ED000ADFF82C06D8
:1058F00000F0C0FBDFF8A00690ED001ADFF89C0670
:10590000D0ED000ADFF8980690ED000ADFF8940663
:1059100000F0B0FBDFF890160878401C0870DFF844
:105920008C060278521C02700A78052A52DB00228B
:105930000A70DFF87C26DFF87C16B1F910305B4284
:1059400000EE103AB8EEC00A82ED000ADFF86836C1
:10595000B1F91210494200EE101AB8EEC00A83EDF8
:10596000000ADFF8581692ED000AD3ED000A30EE77
:10597000600AF0EE000A80EE200A81ED000A02784B
:10598000142A1BDB00220270DFF8C065DFF8300646
:10599000D0ED000A91ED000ADFF82806FFF71CFDA4
:1059A00086ED000ADFF8A80531680160DFF8180607
:1059B00031680160DFF81416006808609FED301A46
:1059C000F0EE480A95ED000AFFF754FDDFF8780580
:1059D00080ED000ADFF87065F0EE480A96ED000AE7
:1059E000FFF790FDB0EE408ADFF86855DFF87005EC
:1059F000D0ED000A94ED0A0AFFF732FE85ED000AA9
:105A0000DFF84805DFF81C1502680A60DFF8181592
:105A100000680860DFF8140531680160DFF81005E0
:105A200031680160DFF80C0580ED008ADFF80805B9
:105A300080ED008ADFF898050068002801D1012078
:105A400000E00020C0B2D5ED000AB0EE480AFFF732
:105A5000CAFDDFF880050178491C0170017814291E
:105A60000ADB0021017001F007FC002804D109497C
:105A7000DFF8900400F012F8BDEC028B70BD00005E
:105A8000000000005C510228105202286C4D0228D0
:105A9000E4510228440702280000FA44F8B52DED2D
:105AA000068B84B005000C00B7EE000A0020DFF87A
:105AB000280590ED000AF7EE000A30EE200A80ED8E
:105AC000000A01F0D9FB002813D00420FEF730F8BB
:105AD000DFF8F80400210160DFF800050021016013
