:020000041008E2
:100000000000082879A008102DA70810BDA308102B
:1000100031A7081035A7081039A708100000000004
:100020000000000000000000000000008DA4081087
:100030003DA708100000000041A7081045A70810C0
:10004000C79C0810ED9C0810139D0810399D0810DE
:100050005F9D0810859D0810AB9D0810D19D08106C
:1000600049A708104DA7081051A7081055A7081058
:1000700059A708105DA7081061A7081065A7081008
:1000800040F0200070472DE9F14FB0B09246049146
:100090000DF142013A9A2B9199464A7000200AE0EC
:1000A0001AF8011B0498309A90470028049000F039
:1000B00034860D98401C0D909AF8000050B1252808
:1000C000EED1002100220791089209910A920B912A
:1000D0000C9204E00D9800F022BE41F001011AF8E4
:1000E000010F2028F9D023280CD02B2804D02D284C
:1000F00005D0302809D00BE041F00201EFE741F0D4
:100100000401ECE741F00801E9E741F01001E6E7FE
:100110002A280FD1D9F8002052F8040BC9F8002082
:1001200000280F9003D540420F9041F004010AF1DE
:10013000010A14E00F92DFF8EC3B0AE00F989842B6
:1001400005DA00EB800402EB4402303A0F920AF128
:10015000010A9AF80020A2F130000A28EED39AF89A
:1001600000002E2803D04FF0FF320E9229E01AF83B
:10017000010F2A2809D1D9F8000050F8042BC9F83A
:1001800000000E920AF1010A1BE02D280CBF0AF1B3
:10019000010A002000220E92DFF8884B0BE040B9E4
:1001A0000E9AA24205DA02EB820503EB4503303BCF
:1001B0000E930AF1010A9AF80030A3F130020A2ADC
:1001C000EDD3ADF840100FF660309AF8001000F053
:1001D000EDFE08B11AF8010B8DF842009DF84200BF
:1001E000682805D19AF8000068280CD1622106E041
:1001F0006C2804BF9AF800006C2804D171218DF896
:1002000042100AF1010A12A806901AF801BBBBF1CC
:1002100025012CD01C3900F09481091F022940F2DD
:100220009081133900F0AB84093900F08A81891E6E
:1002300000F04085491E00F0ED84491E022940F27D
:100240008081091F00F0E684491F00F0EF80491EFD
:1002500000F09584491E00F0D780C91E0CD0891E7D
:1002600000F08D84C91E00F08A8400F02EBD0123A9
:100270000793252100F026BDD9F8000050F8044B63
:10028000C9F80000002C059440F0AB802B99487809
:10029000002800F0A1804FF0FF340FF6942000F00A
:1002A00095FE241A40F0398500F01BBD01236A46F3
:1002B00002A9304600F000FE002840F02E85641EA2
:1002C000F4D13096079C12AF74B1309E17F8011B21
:1002D0000498B0470028049000F01F850D98401C3A
:1002E000641E0D90F2D130960A9C3021002C8DF8BE
:1002F00000100CDD309E01236A4602A9304600F052
:10030000DBFD002840F00985641EF4D13096059F7E
:10031000089C74B1309E17F8011B0498B047002860
:10032000049000F0FA840D98401C641E0D90F2D1E8
:1003300030960B9C3021002C8DF800100CDD309E87
:1003400001236A4602A9304600F0B6FD002840F0BD
:10035000E484641EF4D1309605980899099C4718E6
:1003600074B1309E17F8011B0498B0470028049020
:1003700000F0D3840D98401C641E0D90F2D130968D
:100380000C9C3021002C8DF800100CDD309E0123D8
:100390006A4602A9304600F08FFD002840F0BD8477
:1003A000641EF4D130969DF8400041077FF584AE7D
:1003B0002020002D8DF800007FF77EAE309C0123B9
:1003C0006A4602A9204600F077FD002840F0A58487
:1003D0006D1EF4D130946FE60FF63C30059000F0BE
:1003E00080BC0E9D002D04D5204600F00FFE044673
:1003F00007E02A46204600F025FE002814BF041B13
:100400002C46089400F06DBCD9F8001051F8040B8C
:10041000C9F8001020F00004002121F0FF35CDE9DB
:10042000024512AB0593782100F040BC2B99487827
:1004300020B14FF0FF340FF6B02030E79DF84200B6
:10044000622860D0682817D06A283FD06C2806D070
:10045000712847D074282CD07A281DD062E0D9F8B2
:10046000001051F8040BC9F80010002866D14FF0B5
:10047000FF340FF68C2012E7D9F8001051F8040B66
:10048000C9F8001020B94FF0FF340FF6742006E7CA
:100490000D99018000F025BCD9F8001051F8040B2B
:1004A000C9F80010002849D14FF0FF340FF6502052
:1004B000F5E6D9F8001051F8040BC9F8001000282F
:1004C0003CD14FF0FF340FF63820E8E6D9F80010A1
:1004D00051F8040BC9F8001080B94FF0FF340FF643
:1004E0002020DCE6D9F8001051F8040BC9F8001000
:1004F00020B94FF0FF340FF60820D0E60D9AD3173D
:10050000C0E90023EDE3D9F8001051F8040BC9F855
:10051000001020B94FF0FF340FF6E410BFE60D993C
:100520000170DEE3D9F8001051F8040BC9F800108F
:1005300020B94FF0FF340FF6C810B0E60D990160F6
:10054000CFE39DF842004C2807BFD9F80010CA1D20
:10055000D9F80000C21D22F00702C9F80020D2E934
:1005600000010832C9F80020CDE90201C80F02D00D
:1005700007982D210AE0BDF84000810702D50798B1
:100580002B2103E0C00705D50798202112AA11549A
:10059000401C079012A807994BF0200300EB010CB8
:1005A000DDE90201CDE92C01612BCDF814C021ACAD
:1005B0000BD00E98002848BF062105D404BF4BF08D
:1005C0002000672801D101210E91DDE902014F00D1
:1005D00047EAD0777E15FF174FF0FF32974208BFEA
:1005E000964210D1090341EA10510003002908BFC7
:1005F000002808D0ABF1610503211A2D089118D30A
:100600000FF61C1110E0DDE902014A00521512F14B
:10061000010F11D108030FD1ABF1610503211A2D90
:1006200008911FD30FF600110322604600F036FD3B
:1006300057E30FF6E801F7E7DDE902016A4600F04B
:1006400081FDCDE902014BF02000612811D1059810
:1006500030210170821C0592BBF1610F0CBF782123
:10066000582102E00FF6BC01DEE741700798801CBC
:100670000790DDE9020120F0000231F0004308BFDD
:10068000002A02D10026002542E14BF02008B8F1F3
:10069000610F40F092800E98002847BF2121019100
:1006A000401C0190019FDDE92C017F1C00220023EA
:1006B000DDE9024500F07EFD38BF85F00045009978
:1006C0008DF88420091F002F00910DF1850632DD81
:1006D000204629460022002300F086FD2BD21C2252
:1006E00000F09CFD04460D4600F01AFEFF1F002F8F
:1006F000804609DD00F01BFE02460B4620462946D7
:1007000000F01CFE04460D46F01D0721B8F1000F55
:100710000CDD491E5EBF08F00F0200F8012D4FEA04
:100720002818F3D502E0002200F8012D491EFAD561
:10073000C61D002FCCDC0DF18500361A01980DF195
:1007400085048642D8BF304600282FD4B04206DA4E
:100750000DF185010A5C082AA8BF0F2100DA0021EB
:10076000024621AB134400E0401E13F80159521E0B
:100770008D42F9D00F2904D10DF185018B5C5B1CF2
:100780008B54002A04D50099091D21AC401C00910E
:10079000411E0BD4621813783033DDB23A2DA4BF5A
:1007A0005B443A3B491E02F80139F4D50E99002901
:1007B00040F1AC80421E0E92A8E00099DFF8E826D6
:1007C00047F29750414391FBF2F20092DDE92C454C
:1007D000C2F10702002A25F0004504DD2046294623
:1007E00000F03EFB0BE052420020DFF8C01600F0A4
:1007F00037FB02460B462046294600F0A8FD04467A
:100800000D46B8F1660F06BF009F0A3706270E98FF
:100810003F18142FC8BF142730208DF884000DF125
:100820008506002F34DD2046294600F099FD01465B
:100830000A4606F1080304200A26B2FBF6F606EB88
:10084000860EA2EB4E02303203F8012C0A22B6FBD0
:10085000F2F202EB820EA6EB4E063036401E03F893
:10086000026DE9D1083F002F03F10806D9DD0846E3
:1008700000F07DFD02460B462046294600F05EFD55
:100880000022DFF82C3600F079FD04460D46CAE759
:100890000DF18500361A0DF1850404E00098401E24
:1008A000761E0090641C20783028F7D0B8F1660FCF
:1008B00002D10098401C04E0B8F1650F0CBF012084
:1008C00000200E9940188642B8BF701E00281DD423
:1008D000B04204DA215C3429C8BF392100DC302160
:1008E0000246631E9D1800E0401E15F80169521E65
:1008F0008E42F9D0392902D1A15C491CA154002AA9
:1009000004D50099491C1C46401C00910646009DD8
:100910000E9F30B2002802DC01260FF210644BF06B
:100920002000662808BF6D1C15D067280FFA85F8CF
:1009300041D118F1040F44DBB84542DA9DF840007C
:100940006D1C010703D430B2B842D8BF074628B2A5
:100950003F1A48BF00270FFA85F8B8F1000F00F3DF
:10096000AF800898411C0891302205990A54002F45
:1009700003DC9DF84000010705D50898411C08914B
:100980002E2205990A5417EB080FB8BF7D422DB2ED
:100990006842ED1932B20B909542B8BF2E46059BC6
:1009A000089836B2099632462146184400F076FB84
:1009B000AD1B0C95CCE0BBF1610F15D14FF0700B66
:1009C00017E030B2B84204DA9DF840100A0758BF69
:1009D00007467F1E48BF0027BBF1670F14BF4FF0CB
:1009E000450B4FF0650B04E0BBF1410F08BF4FF022
:1009F000500B0898411C0891002F059914F8012B01
:100A00000A5403DC9DF84000010719D50898411CE1
:100A100008912E2205990A54002F11DD761E30B25E
:100A20008742B8BF3E460598089B32B2214618441B
:100A300000F034FB089836B23018BF1B08900B97B3
:100A4000059808990844B8F1000F80F800B003D465
:100A50002B224270821C04E02D2145464170821CED
:100A60006D4200212CAB28460AE004460A2094FB84
:100A7000F0F000EB8005A4EB450403F8014B491CA2
:100A800000B20028F1DC012906DC4BF020006528CB
:100A900004BF302002F8010B00292CAB08D1302014
:100AA00002F8010B06E0491E585C303002F8010BD9
:100AB0000029F8DC059908980844121A099247E0C1
:100AC00030B229B288421BDA0598089B32B221461F
:100AD000184400F0E3FA089936B271180891A8EBAF
:100AE0000600002F0B9003DC9DF84000020705D59F
:100AF000059A2E2050540999491C09910C9727E01A
:100B00000598089B2AB22146184400F0C7FA0898B5
:100B1000761B4044002F089003DC9DF840100A0724
:100B200004D5411C08912E2205990A5430B28742FF
:100B3000B8BF3E460598089B32B204EB0801184442
:100B400000F0ACFA089836B23018BE1B08900B962D
:100B50009DF8400000F01400102840F0C280079A71
:100B600008980B99821809988A1882180C980F997E
:100B70008018884280F2B580081A0A90B1E09DF88A
:100B80004200622808D068280ED06A2814D06C2849
:100B90001FD0712810D01CE0D9F8001051F8040BB8
:100BA000C9F80010C0B21AE0D9F8001051F8040BCF
:100BB000C9F8001080B212E0D9F80000C21D22F07E
:100BC0000702C9F80020D2E900010832C9F8002064
:100BD00006E0D9F8001051F8040BC9F80010002104
:100BE000CDE902019DF8400001075AD5DDE9022355
:100BF000002B08BF002A54D04BF02000782850D199
:100C0000079812A930220A54401C431C079301F88C
:100C100000B046E09DF84200622808D068280ED057
:100C20006A2814D06C281FD0712810D01CE0D9F885
:100C3000001051F8040BC9F8001040B21AE0D9F8BE
:100C4000001051F8040BC9F8001000B212E0D9F8F6
:100C50000000C21D22F00702C9F80020D2E90001FD
:100C60000832C9F8002006E0D9F8001051F8040B4A
:100C7000C9F80010C117CDE90201002902D5079873
:100C80002D210AE0BDF84000810702D507982B21ED
:100C900003E0C00705D50798202112AA1154401C73
:100CA000079012A8079901440591594602A800F03F
:100CB0004DF816E001200790D9F8000050F8041B09
:100CC000C9F800008DF848100BE001212522BBF186
:100CD000000F07918DF8482003D0022207928DF86B
:100CE00049B00F9D07990A986D1A08992D1A0B980B
:100CF0006D1A09992D1A0C986D1A9DF840102D1A2D
:100D000048073FF5DFAA2021002D8DF800107FF75E
:100D1000D9AA309E2C46FFF7C9BA4FF0FF3031B048
:100D2000BDE8F08FCBCCCC0C686A6C747A4C0000B8
:100D30007072696E74665F733A2062616420257315
:100D400020617267756D656E740000002DE9FC47C7
:100D500007468A463C6950466F2808BF082505D0DB
:100D6000FFF78EF9782814BF0A251025D7E900016E
:100D70003C2680468946BAF1640F18BFBAF1690F64
:100D800005D1002903D5D8F1000869EB4909B9F16B
:100D9000000F08BFB8F1000F0CD1386B50B9082D07
:100DA0003AD197F83800010736D530223B2684F82F
:100DB0003B2031E08DF800A0404649462A46EB171B
:100DC00000F0E6FA3032D0B2761E3A2801960EDAFA
:100DD000A255404649462A46EB1700F0D9FA80460C
:100DE0005FEA010908BFB8F1000F05D108E09DF8DE
:100DF00000001218513AEBE7F868A1198842DBD3DA
:100E0000082D09D197F83800010705D5A05D3028D5
:100E100002D0761E3020A055C6F13C03BB61A1195B
:100E2000F960386B834208DAC31A3B624FF6EF7001
:100E3000398F01403987BDE8F38700280ED597F830
:100E4000380000F01400102808D17A6B7969386AEC
:100E5000521A121AD21A002AC8BF3A62BDE8F387A2
:100E60002DE9D04306460F4614464FF00008DFF840
:100E7000449012E0E00707D542464B4630463946DB
:100E800000F07CFA06460F464046494642464B462D
:100E900000F074FA641080468946002CEAD130468E
:100EA0003946BDE8D0830000A08601000000F03F75
:100EB00084D7974100002440F8B505460E461746F2
:100EC0001C4600205CB117F8011BB068A847B06051
:100ED00030B1F06A401CF0620020641EF3D1F2BD14
:100EE0004FF0FF30F2BD00007072696E74665F7380
:100EF0003A20256E20646973616C6C6F77656400BD
:100F00007072696E74663A2062616420256E206199
:100F10007267756D656E7400000000006E616E0092
:100F20004E414E00696E6600494E46003000F0B4F6
:100F30000246106895681318506803EB5004C00708
:100F400048BF4D44A3422DD013F8016B16F00300A7
:100F500004BF13F8010BC01C31090F2907D113F886
:100F6000011B0F3103E013F8017B05F8017B401EE4
:100F7000F9D10029E6D013F8010BC6F38106032E40
:100F800008BF13F8016B00EB0620404228440026FE
:100F9000B71E8F421EBF10F8017B05F8017B761C3F
:100FA000F6D1CFE7F0BC02F10C007047C9B202786D
:100FB0008A421AB11CBF10F8012FF9E718BF0020B0
:100FC00070470268531C03601170704780B500B908
:100FD00006A005490B681BB122220021984701E0B9
:100FE00000F0EEFA222002BD6C100228636F6E73CF
:100FF000747261696E742068616E646C65723A2007
:10100000626164206D6573736167650000F10103BF
:10101000810704D010F8011B820781B1FAD1026860
:10102000A2F10131914311F0803104BF50F8042F37
:10103000F6E709BAB1FA81F100EBD100401CC01A01
:1010400070470000C9B2830706D0521E22D310F8A1
:10105000013B9942F7D11FE0083A13D302F1040291
:1010600041EA012141EA014150F8043B121F21BF2E
:101070004B40A3F1013C2CEA030C1CF0803FF3D061
:10108000C9B2001F083210F8013B521E28BF91EA76
:10109000030FF8D818BF0120401E704762B38B07BA
:1010A00008D0521E11F8013B00F8013B00F02480EB
:1010B0008B07F6D1830740F0208000BF103A07D39A
:1010C00030B4B1E83810103AA0E83810F9D230BC8A
:1010D000530724BFB1E80810A0E8081044BF51F836
:1010E000043B40F8043BD20724BF31F8022B20F820
:1010F000022B44BF0B7803707047121F17D35B009D
:1011000009D151F8043B20F8023B1B0C121F20F8B8
:10111000023BF6D20BE051F8043B00F8013B1B0AFE
:1011200020F8023B1B0C121F00F8013BF3D238BF22
:10113000121D521E24BF11F8013B00F8013BF8D8E4
:101140007047000010B5144600F002F8226010BD90
:10115000C1F30A5343B14A0012F5001F28D2A3F28B
:10116000FE32A1EB0251704750EA410C20D001F051
:10117000004C31EA0C01B1FA81F204BFB0FA80F3FD
:10118000D2180B3AB2F120032CBF00FA03F19140C0
:1011900041EA0C013EBFC2F1200C20FA0CF31943C6
:1011A0009040524240F2FD33D21A01EB0351704796
:1011B0000022704741EA030C50EA4C0C52EA0C0C36
:1011C0004FF4001C09D307D01CEB410F9CBF1CEB54
:1011D000430F8B4208BF824270471CEB430FFBD882
:1011E000994208BF9042704741EA030C50EA4C0C08
:1011F00052EA0C0C4FF4001C09D307D01CEB410F32
:101200009CBF1CEB430F994208BF904270471CEBF8
:10121000410FFBD88B4208BF8242704700B541ECBA
:10122000100B104600F004F851EC100B00BD00BF8D
:10123000020030EE101B40F2FF7C37D41CEA115341
:1012400013D063456BD09B18634504D201EB025168
:1012500020EE101B704701F0004141EA0C510020C4
:1012600041EC100BAFF30080704710EE100B50EA0A
:10127000410054D0B2F57F7F08D202EB5C01090532
:10128000002041EC110B20EE010B70474FF0FE41A6
:10129000002341EC113B20EE010BB2F57E7230EEE3
:1012A000101B4FEA410342EB5353CDE752421CEA75
:1012B000115316D0634532D09A4204D2A1EB0251A9
:1012C00020EE101B70475B1ED21AA1EB035120EEDB
:1012D000101B372A0CD3002001F0004141EC100B09
:1012E000C0E710EE100B50EA410018D0372AF2D2B6
:1012F000C2EB5C021105002041EC110BF1EE100A6B
:1013000020F01F0121F4F851E1EE101A20EE010B3C
:10131000F1EE101AE1EE100A11F0080FA2D1704799
:1013200041EC100BBDEEC00B10EE100A704700EE42
:10133000100AB8EEC00B51EC100B704741EC100BCB
:1013400043EC112B30EE410B51EC100B704741EC8C
:10135000100B43EC112B80EE010B51EC100B70477E
:1013600041EC100BBCEEC00B10EE100A704700EE03
:10137000100AB8EE400B51EC100B704741EC100B0B
:1013800043EC112B20EE010B51EC100B70470000C9
:10139000BBBBE1B1B2F5803F80F07E80022A1ED94E
:1013A0008C46B1FBF2F102FB11C31B0443EA10436C
:1013B000B3FBF2FC02FB1C3380B240EA0343B3FBF5
:1013C000F2F002FB103240EA0C4000237047022A80
:1013D00005D98446B0FBF2F002FB10C270474AB157
:1013E00005D100F0010249085FEA30007047002291
:1013F0000023704700F0E8B80B0002000021002035
:101400007047904271EB030CF6D3B3F5803F2FD2B7
:10141000F0B5B3FA83F7B1FA81F4A7F10F0E3D1BD3
:101420005340CEF1200602FA0EF2F3415340B5F1DB
:101430000F0746D80F3C2C444140C4F12006A04081
:10144000F1414140B1FBF3F603FB1611A2FB064547
:10145000001BA94102D2761E8018594180EA010280
:1014600021FA0EF362FA0EF200215A403046F0BD26
:1014700030B4B1FBF3FC03FB1C11A2FB0C45001BB9
:10148000A94103D2ACF1010C8018594130BC02468D
:101490000B46604600217047B2F1807F65D3F0B5FE
:1014A000B2FA82F7B1FA81F4C7F10F063D1B22FAB6
:1014B00006F307F1110EF24120355A40B5F10F073E
:1014C000B8D94140C4F12006A040F1414140B1FBF0
:1014D000F3FC03FB1C11A2FB0C45001BA94103D22A
:1014E000BCF1010C801859410F2F12D30F3FC903D3
:1014F00041EA5041B1FBF3F603FB1611A2FB06458E
:10150000D4EBC030A94102D2761E8018594146EA78
:10151000CC3C07B34140C7F12006B840F1414140FF
:10152000B1FBF3F603FB1611A2FB0645001BA94114
:1015300002D2761E8018594180EA010221FA0EF388
:10154000C7F1200462FA0EF20CFA07F05A402CFAA6
:1015500004F13043F0BD80EA010221FA0EF30021CC
:1015600062FA0EF260465A40F0BD8C46B1FBF2F1D1
:1015700002FB11C31B0243EA1063B3FBF2FC02FB44
:101580001C331B024CEA002043EA1063B3FBF2FC5D
:1015900002FB1C331B024CEA002043EA1063B3FB3E
:1015A000F2FC02FB1C331B024CEA002043EA1063EE
:1015B000B3FBF2FC02FB1C324CEA00200023704714
:1015C000012000F003B800007047000080B5AFF3C1
:1015D0000080024A11001820ABBEFBE72600020083
:1015E000022801D3012010E00B00DBB2042B01DB49
:1015F00001200AE0DFF8283803EB8000C9B2405C24
:10160000824201D3012000E000207047F8B50600B7
:101610000F0015001C00022E01D301201DE02A003E
:101620003900C9B23000FFF7DBFF012801D10120EA
:1016300013E03800C0B2002812D1B4F5807F0DD27B
:10164000DFF8E0077603304400EB850010F58050AA
:10165000016864F30F2101600020F2BD0120FCE766
:10166000FFB2012F11D1B4F5803F0CD2DFF8B407DF
:101670007603304400EB850010F5A050016864F358
:1016800017210160E8E70120E7E70120E5E700B264
:101690000012C0B27047F8B505000E001700280010
:1016A00000B2FFF7F4FF04002000C0B2022801D30B
:1016B000012024E03A003100C9B22000C0B2FFF797
:1016C0008FFF012801D1012019E0DFF85817200011
:1016D000C0B2400308442A00D2B200EB8200D0F826
:1016E000000CF6B266F3092067F30700E4B2640366
:1016F0002144EDB201EB8501C1F8000C0020F2BDE0
:1017000070B504000D001600022C01D301201DE06D
:1017100032002900C9B22000FFF762FF012801D181
:10172000012013E0DFF8FC166003085850F0004079
:1017300050F0407050F47F00EDB265F3092066F37D
:1017400007006203885064030859002070BD10B57B
:10175000C0B2002800F0EA80022800F0EB80C0F060
:10176000E780042800F0EA80C0F0E680062800F058
:10177000E980C0F0E580082800F0E880C0F0E4804F
:101780000A2800F0E780C0F0E3800C2800F0E68033
:10179000C0F0E2800E2800F0E580C0F0E180102863
:1017A00000F0E480C0F0E080122800F0E380C0F098
:1017B000DF80142800F0E280C0F0DE80162800F000
:1017C000E180C0F0DD80182800F0E080C0F0DC800F
:1017D0001A2800F0DF80C0F0DB801C2800F0DE80DB
:1017E000C0F0DA801E2800F0DD80C0F0D98020280B
:1017F00000F0DC80C0F0D880222800F0DB80C0F050
:10180000D780242800F0DA80C0F0D680262800F0A7
:10181000D980C0F0D580282800F0D880C0F0D480CE
:101820002A2800F0D780C0F0D3802C2800F0D68082
:10183000C0F0D2802E2800F0D580C0F0D1803028B2
:1018400000F0D480C0F0D080322800F0D380C0F007
:10185000CF80342800F0D280C0F0CE80362800F04F
:10186000D180C0F0CD80382800F0D080C0F0CC808E
:101870003A2800F0CF80C0F0CB803C2800F0CE802A
:10188000C0F0CA803E2800F0CD80C0F0C98040285A
:1018900000F0CC80C0F0C880422800F0CB80C0F0BF
:1018A000C780442800F0CA80C0F0C680462800F0F7
:1018B000C980C0F0C580482800F0C880C0F0C4804E
:1018C0004A2800F0C780C0F0C3804C2800F0C680D2
:1018D000C0F0C2804E2800F0C580C0F0C180502802
:1018E00000F0C480C0F0C080522800F0C380C0F077
:1018F000BF80542800F0C280C0F0BE80562800F09F
:10190000C180C0F0BD80582800F0C080C0F0BC800D
:101910005A2800F0BF80C0F0BB805C2800F0BE8079
:10192000C0F0BA805D2800F0BB80BBE01924BFE0A6
:101930003124BDE01824BBE03324B9E03524B7E0FE
:101940001424B5E03724B3E01324B1E02024AFE041
:101950001224ADE02124ABE01124A9E01024A7E07B
:101960002824A5E02924A3E02A24A1E009249FE05B
:101970002B249DE008249BE02C2499E0032497E08D
:10198000022495E0392493E03B2491E03D248FE04C
:1019900001248DE03F248BE0002489E0402487E08F
:1019A000412485E0422483E0432481E0BF247FE09A
:1019B00048247DE049247BE0BC2479E0992477E049
:1019C0009A2475E0502473E09B2471E0B6246FE004
:1019D00051246DE09C246BE0B52469E0522467E05B
:1019E000A02465E0B42463E0532461E0B3245FE005
:1019F00054245DE0B2245BE0B12459E0AD2457E00B
:101A0000602455E0AE2453E0612451E0AD244FE062
:101A100062244DE063244BE0AB2449E0642447E0BA
:101A2000AA2445E0652443E0A92441E0A8243FE03E
:101A300069243DE06B243BE06D2439E06F2437E0FE
:101A4000A32435E0702433E0A22431E071242FE098
:101A5000A1242DE097242BE0962429E0742427E08C
:101A6000952425E0752423E0942421E093241FE0AD
:101A700092241DE078241BE0792419E08C2417E0DF
:101A80007A2415E08B2413E07B2411E08A240FE0F4
:101A90005A240DE059240BE0892409E0582407E07A
:101AA000882405E09D22DFF84019002000F02CFE7C
:101AB0002000C0B210BD10B5C0B2002800F0EA800E
:101AC000022800F0EB80C0F0E780042800F0EA80F4
:101AD000C0F0E680062800F0E980C0F0E580082824
:101AE00000F0E880C0F0E4800A2800F0E780C0F051
:101AF000E3800C2800F0E680C0F0E2800E2800F0C1
:101B0000E580C0F0E180102800F0E480C0F0E080C3
:101B1000122800F0E380C0F0DF80142800F0E2809B
:101B2000C0F0DE80162800F0E180C0F0DD801828CB
:101B300000F0E080C0F0DC801A2800F0DF80C0F008
:101B4000DB801C2800F0DE80C0F0DA801E2800F068
:101B5000DD80C0F0D980202800F0DC80C0F0D88083
:101B6000222800F0DB80C0F0D780242800F0DA8043
:101B7000C0F0D680262800F0D980C0F0D580282873
:101B800000F0D880C0F0D4802A2800F0D780C0F0C0
:101B9000D3802C2800F0D680C0F0D2802E2800F010
:101BA000D580C0F0D180302800F0D480C0F0D08043
:101BB000322800F0D380C0F0CF80342800F0D280EB
:101BC000C0F0CE80362800F0D180C0F0CD8038281B
:101BD00000F0D080C0F0CC803A2800F0CF80C0F078
:101BE000CB803C2800F0CE80C0F0CA803E2800F0B8
:101BF000CD80C0F0C980402800F0CC80C0F0C88003
:101C0000422800F0CB80C0F0C780442800F0CA8092
:101C1000C0F0C680462800F0C980C0F0C5804828C2
:101C200000F0C880C0F0C4804A2800F0C780C0F02F
:101C3000C3804C2800F0C680C0F0C2804E2800F05F
:101C4000C580C0F0C180502800F0C480C0F0C080C2
:101C5000522800F0C380C0F0BF80542800F0C2803A
:101C6000C0F0BE80562800F0C180C0F0BD8058286A
:101C700000F0C080C0F0BC805A2800F0BF80C0F0E7
:101C8000BB805C2800F0BE80C0F0BA805D2800F008
:101C9000BB80BBE00824C0E00824BEE00824BCE010
:101CA0000824BAE00824B8E00824B6E00824B4E028
:101CB0000824B2E00824B0E00824AEE00824ACE038
:101CC0000824AAE00824A8E00824A6E00824A4E048
:101CD0000824A2E00824A0E008249EE008249CE058
:101CE00008249AE0082498E0082496E0082494E068
:101CF000082492E0082490E008248EE008248CE078
:101D000008248AE0082488E0082486E0082484E087
:101D1000082482E0082480E008247EE008247CE097
:101D200008247AE0082478E0082476E0082474E0A7
:101D3000082472E0082470E008246EE008246CE0B7
:101D400008246AE0082468E0082466E0082464E0C7
:101D5000082462E0082460E008245EE008245CE0D7
:101D600008245AE0162458E0082456E0082454E0D9
:101D7000082452E0082450E008244EE008244CE0F7
:101D800008244AE0082448E0082446E0082444E007
:101D9000082442E0082440E008243EE008243CE017
:101DA00008243AE0082438E0082436E0082434E027
:101DB000082432E0082430E008242EE008242CE037
:101DC00008242AE0082428E0082426E0082424E047
:101DD000082422E0082420E008241EE008241CE057
:101DE00008241AE0082418E0082416E0082414E067
:101DF000082412E0082410E008240EE008240CE077
:101E000008240AE0082408E0082406E04FF486725B
:101E1000DFF8D415002000F077FC2000C0B210BD20
:101E2000BCA508100000044080B5C0B2002800F036
:101E3000EA80022800F0EB80C0F0E780042800F080
:101E4000EA80C0F0E680062800F0E980C0F0E58076
:101E5000082800F0E880C0F0E4800A2800F0E7805D
:101E6000C0F0E3800C2800F0E680C0F0E2800E288D
:101E700000F0E580C0F0E180102800F0E480C0F0C0
:101E8000E080122800F0E380C0F0DF80142800F02A
:101E9000E280C0F0DE80162800F0E180C0F0DD8036
:101EA000182800F0E080C0F0DC801A2800F0DF8005
:101EB000C0F0DB801C2800F0DE80C0F0DA801E2835
:101EC00000F0DD80C0F0D980202800F0DC80C0F078
:101ED000D880222800F0DB80C0F0D780242800F0D2
:101EE000DA80C0F0D680262800F0D980C0F0D580F6
:101EF000282800F0D880C0F0D4802A2800F0D780AD
:101F0000C0F0D3802C2800F0D680C0F0D2802E28DC
:101F100000F0D580C0F0D180302800F0D480C0F02F
:101F2000D080322800F0D380C0F0CF80342800F079
:101F3000D280C0F0CE80362800F0D180C0F0CD80B5
:101F4000382800F0D080C0F0CC803A2800F0CF8054
:101F5000C0F0CB803C2800F0CE80C0F0CA803E2884
:101F600000F0CD80C0F0C980402800F0CC80C0F0E7
:101F7000C880422800F0CB80C0F0C780442800F021
:101F8000CA80C0F0C680462800F0C980C0F0C58075
:101F9000482800F0C880C0F0C4804A2800F0C780FC
:101FA000C0F0C3804C2800F0C680C0F0C2804E282C
:101FB00000F0C580C0F0C180502800F0C480C0F09F
:101FC000C080522800F0C380C0F0BF80542800F0C9
:101FD000C280C0F0BE80562800F0C180C0F0BD8035
:101FE000582800F0C080C0F0BC805A2800F0BF80A4
:101FF000C0F0BB805C2800F0BE80C0F0BA805D28D5
:1020000000F0BB80BBE00020C0E00020BEE001206B
:10201000BCE00120BAE00220B8E00320B6E00320D3
:10202000B4E00420B2E00420B0E00520AEE00520DA
:10203000ACE00620AAE00720A8E00920A6E00A20DC
:10204000A4E00B20A2E00B20A0E00C209EE00C20DE
:102050009CE00D209AE00D2098E00E2096E00F20E5
:1020600094E0102092E0112090E011208EE01220E8
:102070008CE012208AE0132088E0142086E01520EE
:1020800084E0162082E0162080E018207EE01920EF
:102090007CE019207AE01A2078E01B2076E01C20F2
:1020A00074E01C2072E01C2070E01D206EE01D20FA
:1020B0006CE01D206AE01E2068E01E2066E01E2005
:1020C00064E01F2062E01F2060E020205EE020200E
:1020D0005CE021205AE0222058E0242056E0242011
:1020E00054E0252052E0252050E026204EE0272015
:1020F0004CE027204AE0282048E0282046E029201C
:1021000044E0292042E02A2040E02C203EE02D201F
:102110003CE02E203AE02F2038E02F2036E030201F
:1021200034E0302032E0312030E031202EE0322027
:102130002CE033202AE0342028E0342026E035202B
:1021400024E0352022E0362020E037201EE0382031
:102150001CE039201AE0392018E03A2016E03A2035
:1021600014E03B2012E03B2010E03B200EE03C203E
:102170000CE03C200AE03D2008E03D2006E040F273
:102180007B129949002000F0BFFA0020C0B202BDC6
:10219000002007E09549C2018A5822F00042C3019D
:1021A000CA50401C3F28F5DB704770B504000E0094
:1021B000002000202000C0B2FFF736FE8B4DC0B2D9
:1021C000C0012844006A80B206FB00F642F210709B
:1021D000B6FBF0F62000C0B2FFF726FEC00128448F
:1021E000B6B246612000C0B2FFF71EFE0100C9B2C0
:1021F000C9012944096C51F00101C0B2C001284451
:10220000016470BD2DE9F041AAB004000D00160074
:10221000342100221DAF380000F006FB002074219D
:1022200000226F46380000F0FFFA0E201E902000BA
:10223000C0B2FFF740FC8DF87C002000C0B2FFF771
:1022400086FA07005FF008082000C0B2FFF77FFAA7
:102250001DAA97FBF8F108FB11773900644BC0B257
:10226000C010C001184400F09EFB2000C0B2FFF770
:10227000DBFD00220121C0B210F5937000B2FFF720
:102280000AFA2000C0B2FFF7CFFDC0B210F593707C
:1022900000B2FFF7FCF9092300220121C0B2FFF7C9
:1022A000B5F92000C0B2FFF7BFFDC0B210F59370C2
:1022B00000B2FFF7ECF900220121C0B2FFF720FACB
:1022C0004C48B0FBF5F1090C4A482A04B0FBF2F384
:1022D00002FB1300002800D0491C022903D2002071
:1022E0008DF801002FE0032903D201208DF80100B1
:1022F00029E0052903D202208DF8010023E00929F5
:1023000003D203208DF801001DE0112903D204201F
:102310008DF8010017E0212903D205208DF8010076
:1023200011E0412903D206208DF801000BE081293C
:1023300003D207208DF8010005E040F2C9122A49B6
:10234000002000F0E1F904208DF8000001208DF854
:10235000100000208DF8110003208DF812000320DA
:102360008DF8130000208DF80800224901229DF904
:1023700001008240B1FBF2F0B0FBF5F0401E059089
:102380000598401C06FB00F642F21070B6FBF0F018
:10239000089002208DF8400003208DF8680001208D
:1023A0001B9001208DF828002000C0B2FFF73CFDF3
:1023B0000E4D6946C0B2C001284400F033FB200036
:1023C000C0B2FFF731FDC0B2C001284400F02AFCC2
:1023D0002000C0B2FFF728FDC0B2C001284400F0C1
:1023E00026FC2AB0BDE8F081C0A2081000005840C9
:1023F0000000314000127A0082B0002001900020DD
:1024000000900020019009E00098401C0090009886
:10241000B0F5005FF8D30198401C01900198B0F529
:10242000805F02D200200090F1E702B0704780B5D3
:102430000100002000F005FE01BD2DE9F043ADF5DF
:10244000137D0700884616001C000020ADF802002E
:102450000020ADF80000002002900020ADF804003C
:102460000020ADF806004046FEF7D0FD0290DFF8F0
:1024700080532888002801D028698047DFF874033A
:102480000078002800F033812888002800F01181AE
:10249000BDF90600411CADF806103A00010089B2F2
:1024A0000020EB68984747464046FEF7AFFD029094
:1024B0006888A97990FBF1F0ADF804003800471C5A
:1024C00000780028FAD10020ADF800000EE07F1E51
:1024D00038782F2802D038785C2804D1BDF8000065
:1024E000401CADF800000298401E0290BDF80000AC
:1024F000022802DA02980028E9D50298002806D4BA
:102500007A1CDFF8F41253A801F08CF80EE0BDF845
:102510000000002805D13A00B84953A801F082F81C
:1025200004E03A00B44953A801F07CF80020ADF86B
:10253000020042E0BDF80010BDF80020BDF80230F6
:1025400053AF9BB2BDF90400434313FA82F0385CE9
:1025500043AA89B25054BDF80000401CADF80000F9
:10256000BDF8000080B2BDF9041088420EDA53A80D
:10257000FEF74CFDBDF80020BDF802309BB2BDF95E
:1025800004104B4313FA82F18842D3D2002043A9AE
:10259000BDF800208854BDF90600411CADF80610B6
:1025A00043AAE97911FB00F189B20020EB68984752
:1025B000BDF80200401CADF80200BDF8027053A83F
:1025C000FEF724FDBDF90410B0FBF1F0401CBFB2D2
:1025D000874203D20020ADF80000C1E732008849ED
:1025E00053A801F01FF8BDF90600411CADF8061014
:1025F00053AAE97911FB00F189B20020EB689847F2
:10260000002C74D00020ADF8020041E0BDF80010AD
:10261000BDF80020BDF802309BB2BDF90400434371
:1026200013FA82F0205C43AA89B25054BDF800002E
:10263000401CADF80000BDF8000080B2BDF90410E8
:1026400088420EDA2000FEF7E1FCBDF80020BDF85C
:1026500002309BB2BDF904104B4313FA82F1884259
:10266000D4D2002043A9BDF800208854BDF906004B
:10267000411CADF8061043AAE97911FB00F189B2BB
:102680000020EB689847BDF80200401CADF802003E
:10269000BDF802602000FEF7B9FCBDF90410B0FBE4
:1026A000F1F0401CB6B2864221D20020ADF8000005
:1026B000C1E74FF4807100220DF10C09484600F08B
:1026C000B3F83800A9688847002C07D0009433007D
:1026D00042464C4903A800F0A5FF05E033004246FE
:1026E000494903A800F09EFF03A8A96888470DF593
:1026F000137DBDE8F08310B514002200D2B2002093
:1027000000F090FC200010BD38B50C001500C0B2E0
:10271000002803D13E480078002800D131BD3D4952
:102720000878002800D0FEE70878401C087000F008
:10273000E3FF00232A0021003748FFF77EFEFFF762
:102740005BFEF6E710B514001A00C0B2002808D1ED
:1027500028480078002804D00B0021002F48FFF7FC
:102760006CFE10BD002101804FF6FF714180818019
:10277000FF218171C171002181600021C1600021B0
:10278000016170471A4902880A8042884A8082881B
:102790008A8082798A71C279CA7182688A60C268C5
:1027A000CA6000690861012012490870704700B5CD
:1027B00085B06846FFF7D6FF194802906846FFF7D4
:1027C000E1FF05B000BD80B5FFF7F1FF0023002257
:1027D0005FF4E131002000F037FE4023114A002170
:1027E0000A4800F0B1FF0121002000F0DFFC01BD2C
:1027F000A40E0228951002288CA508103CA50810EC
:1028000098A5081054A408100CA50810640E0228FE
:102810007D080228961002284CA50810A4A50810CF
:102820002F240810900C022862F30F2262F31F423B
:10283000401810F0030308D0C91A1FD3DB0748BFA4
:1028400000F8012D28BF20F8022D130030B41446E3
:102850001546103928BF20E93C00FAD8490728BF9F
:1028600020E90C0048BF40F8042D890028BF20F85B
:10287000022D48BF00F8012D30BC7047C91818BFA1
:1028800000F8012DCB0728BF00F8012D704700008C
:1028900030B4614B1818C009604C14EB00140429C3
:1028A0000DD223681F25C8008540AB43D2B212F079
:1028B0001F02C90012FA01F1194321600CE0091F3F
:1028C00063681F25C8008540AB43D2B212F01F02D7
:1028D000C9008A401A43626030BC7047002A04D1A4
:1028E000012212FA01F1416003E0012212FA01F122
:1028F0008160704710B48900436C0F248C40A3435F
:1029000012F00F0212FA01F11943416410BC704732
:1029100010B4836C01248C40A34312F0010212FA1C
:1029200001F11943816410BC704710B4C36C0124D9
:102930008C40A34312F0010212FA01F11943C16461
:1029400010BC704710B449001031C36C03248C4094
:10295000A34312F0030212FA01F11943C16410BC3F
:1029600070474269012212FA01F1416140697047E2
:1029700010B4836901248C40A34312F0010212FABF
:1029800001F11943816110BC704710B44900036C18
:1029900003248C40A34312F0030212FA01F11943FD
:1029A000016410BC7047F8B505000E001400002744
:1029B000002D2ED0002C2CD0226831002800FFF7EB
:1029C0008DFF227A31002800FFF762FF6269310033
:1029D0002800FFF79DFFA26931002800FFF7A5FF3F
:1029E000E26931002800FFF7ADFF6268310028007E
:1029F000FFF780FFE26831002800FFF7C6FF3100D3
:102A00002800FFF7AEFF226931002800FFF7B0FF72
:102A100000E0034F3800F2BD0000CFBF000030409F
:102A200001005A000122002800F0EC80002900F08B
:102A3000E980754A12680B7A63F392420B7B13F0BC
:102A4000030363F311420B7813F0070363F31A6275
:102A50008B7863F39E7291F8283063F3000291F84B
:102A6000343063F341020B7F63F382024B7F63F3E5
:102A7000C30291F8403063F38A2291F84030DBB210
:102A80005B08DBB263F3492291F8703063F30822EC
:102A900091F8713013F0030363F30D3202600A7A88
:102AA000002A02D10022826007E00A7A012A02D1BC
:102AB0004A69826001E0012282600A6A02614A6A10
:102AC0004261CA6A82610A6BC2614A6902628A69AA
:102AD00042624E4A126891F8443003F0FF03120A32
:102AE00012021A4391F84C3003F0FF0363F31742CC
:102AF00091F85C3003F0FF0363F31F6291F86C30D0
:102B000003F0FF0363F30F224264414A126891F815
:102B1000643003F0FF0363F30F2291F8543003F0A5
:102B2000FF03120A12021A4382643A4A126891F8A9
:102B3000413013F00303920892001A4391F8603079
:102B400013F0030363F38B2291F8483013F003036F
:102B500063F3051291F8503013F0030363F3092275
:102B600091F8583013F0030363F3871291F868303B
:102B700013F0030363F38302C264274A126891F8D7
:102B8000723013F00703D208D2001A4391F8733061
:102B900013F0070363F30612426591F8352082674C
:102BA0001E4A12680B7C13F00303920892001A432A
:102BB000CB7C13F0030363F387124B7C13F0030306
:102BC00063F383028B7C13F0030363F30512026546
:102BD000134A1268CB8863F31F428B889BB21B0A8F
:102BE0009BB263F30F220B78052B06D1097901F014
:102BF000FF01120A12020A4302E0497861F3070258
:102C0000026300221000704758A608105CA6081046
:102C100060A6081064A6081068A608106CA6081024
:102C200070A60810016851F0004101607047403003
:102C3000016851F01001016070470000010009B205
:102C4000002909D4012210F01F018A40DFF88C19F5
:102C500000B2400941F820207047022801D301202A
:102C600010E00B00DBB2042B01DB01200AE0DFF8EF
:102C7000703903EB8000C9B2405C824201D301206D
:102C800000E000207047F8B504000F0015001E009A
:102C9000022C01D301202AE02A003900C9B2200009
:102CA000FFF7DBFF012801D1012020E00698390061
:102CB000C9B202291ED1B6F5803F19D2202817D2F9
:102CC0004FF4C052DFF81C1963030B4403EB850378
:102CD00013441F6866F317271F606403214401EB48
:102CE000850111440A6860F3C7020A600020F2BD42
:102CF0000120FCE7FFB2032F1FD1B6F1807F1AD26B
:102D0000202818D24FF4E052DFF8D81863030B44A0
:102D100003EB850313441F6807F0FF0757EA0627F4
:102D20001F606403214401EB850111440A6860F3CC
:102D3000C7020A60DAE70120D9E70120D7E700B22D
:102D40000012C0B27047F8B505000E001700280049
:102D500000B2FFF7F4FF04002000C0B2022801D344
:102D6000012024E03A003100C9B22000C0B2FFF7D0
:102D700074FF012801D1012019E0DFF86818200054
:102D8000C0B2400308442A00D2B200EB8200D0F85F
:102D9000000CF6B266F3092067F30700E4B264039F
:102DA0002144EDB201EB8501C1F8000C0020F2BD19
:102DB00070B504000D001600022C01D301201DE0A7
:102DC00032002900C9B22000FFF747FF012801D1D6
:102DD000012013E0DFF80C186003085850F00040A1
:102DE00050F0407050F47F00EDB265F3092066F3B7
:102DF00007006203885064030859002070BDD0F8B2
:102E000040037047D0F80803C005C00D7047C0F8F4
:102E100040127047D0F80802C005C00D7047D0F8C6
:102E20000802C0F3C030704738B505002800FFF72E
:102E3000F1FF04002800FFF7F2FF0419002C01D174
:102E4000012000E00020C0B232BDC0F8C81F7047AA
:102E5000D0F8C80F7047C0F8881F7047D0F8880FA7
:102E60007047016851F000410160704738B50400B7
:102E70001500C9B2002906D002291ED010D304299A
:102E800035D027D340E0DFF86007A0600120207331
:102E9000112060734FF48C70E0811220208239E0A1
:102EA000DFF84807A060012020731120607340F212
:102EB0001D10E0816B2020822CE0DFF83407A06039
:102EC00001202073112060734FF48E70E0816A201E
:102ED00020821FE0DFF81C07A06002202073112071
:102EE000607340F21B10E0816920208212E0DFF85D
:102EF0000807A06001202073132060734FF48D70C9
:102F0000E0816820208205E07C22DFF8F0160020B6
:102F1000FFF7FAFBEDB2002D06D0022D1ED010D324
:102F2000042D35D027D340E0DFF8BC062060002018
:102F30002071112060714FF48C70E081122020828A
:102F400039E0DFF8A80620600020207111206071B0
:102F500040F21D10E0816B2020822CE0DFF890060B
:102F6000206000202071112060714FF48E70E0818C
:102F70006A2020821FE0DFF87C062060012020719B
:102F80001120607140F21B10E0816920208212E064
:102F9000DFF86406206000202071132060714FF478
:102FA0008D70E0816820208205E0A822DFF84C16B1
:102FB0000020FFF7A9FB31BD10B5C0B2002806D034
:102FC00002280AD006D304280DD009D30EE0DFF87A
:102FD000304611E0DFF82C460EE0DFF82C460BE01F
:102FE000DFF8284608E0DFF8284605E0BD22DFF8D4
:102FF0000C160020FFF788FB200010BD38B5040038
:10300000DFF81056C9B22000C0B255F82000FFF713
:10301000FEFE2000C0B255F82000FFF705FF002893
:10302000F7D031BD70B505000E00140006E0317810
:103030002800C0B2FFF7E2FF641E761C002CF6D118
:1030400070BD38B504000D0005E029782000C0B23D
:10305000FFF7D4FF6D1C28780028F6D131BD70B57C
:1030600004000D000020DFF8AC652000C0B256F867
:103070002000FFF7C7FE002807D0E4B256F824006E
:10308000FFF7BDFE2870012000E00020C0B270BD37
:1030900070B505000C00DFF87C652800C0B256F85A
:1030A0002000FFF7DBFE4008400001002800C0B20E
:1030B00056F82000FFF7CFFE2800C0B256F82000D7
:1030C000FFF7CCFE30F0020001002800C0B256F835
:1030D0002000FFF7C0FE2800C0B256F82000FFF71E
:1030E000BDFE30F0200001002800C0B256F82000DC
:1030F000FFF7B1FE2800C0B256F82000FFF7AEFE81
:1031000030F0400001002800C0B256F82000FFF760
:10311000A2FE2800C0B256F82000FFF79FFE30F054
:10312000100001002800C0B256F82000FFF793FEFF
:103130002800C0B256F82000FFF790FE30F48070EF
:1031400001002800C0B256F82000FFF784FE2800D6
:10315000C0B256F82000FFF781FE30F48060010015
:103160002800C0B256F82000FFF775FE002C0ED0E4
:103170002800C0B256F82000FFF76AFE50F4007035
:103180000100EDB256F82500FFF765FE0DE02800BE
:10319000C0B256F82000FFF75BFE30F4007001006B
:1031A000EDB256F82500FFF756FE70BD70B505006C
:1031B0000C00DFF860642800C0B256F82000FFF76A
:1031C00047FE4008400001002800C0B256F8200029
:1031D000FFF73BFE2800C0B256F82000FFF738FE8C
:1031E00030F0080001002800C0B256F82000FFF7B8
:1031F0002CFE2800C0B256F82000FFF729FE30F060
:10320000200001002800C0B256F82000FFF71DFE84
:103210002800C0B256F82000FFF71AFE30F4807084
:1032200001002800C0B256F82000FFF70EFE28006B
:10323000C0B256F82000FFF70BFE30F4007001001A
:103240002800C0B256F82000FFF7FFFD2800C0B2EA
:1032500056F82000FFF7FCFD30F400600100280064
:10326000C0B256F82000FFF7F0FD002C0ED0280069
:10327000C0B256F82000FFF7EBFD50F0040001004B
:10328000EDB256F82500FFF7E0FD0DE02800C0B2D2
:1032900056F82000FFF7DCFD30F004000100EDB22D
:1032A00056F82500FFF7D1FD70BD2DE9F841A7B014
:1032B00005000F00160028003100C0B2C9B28842D4
:1032C00001D1012000E000201C00DFF8308340F233
:1032D0005D124146C0B2FFF717FA28002100C0B2C4
:1032E000C9B2884201D1012000E000204FF4AF7242
:1032F0004146C0B2FFF708FA02A8142100F044FAD0
:10330000342100220DF168084046FFF78DFA4C2168
:1033100000220DF11C084046FFF786FAFF003A0034
:103320000023BD480021FEF733F807002200D2B287
:103330003100C9B202A8FFF799FD08201B909DF843
:103340000D008DF870001AAA9DF80C100298FFF776
:103350002AFB06201B909DF80D008DF870001AAA1C
:103360009DF814100498FFF71EFB0020079008201A
:1033700008900920099002200B9002200C90002058
:10338000129000201490A34C2800C0B254F82000E2
:1033900000F040FBA1492A00D2B2382042430A443F
:1033A00007A92800C0B254F8200000F0F1F9280065
:1033B000C0B254F82000FFF754FD2A00D2B2032116
:1033C000BDF91600FFF7BFFCBDF91600FFF7B7FC0B
:1033D00017F01F010091C7F357132A00D2B203213F
:1033E000C0B2FFF750FCBDF91600FFF7A8FC2A0099
:1033F000D2B20321C0B2FFF7DBFCBDF91800ADF873
:1034000000000320ADF8020001208DF8040068469A
:1034100000F048FB82482900C9B250F82110BDF9DC
:10342000000000F07EFBBDF90200FFF707FC002161
:103430002800C0B2FFF7BAFE00212800C0B2FFF793
:1034400027FE28B0BDE8F0812DE9F841A7B00500BE
:103450000F00160028003100C0B2C9B2884201D165
:10346000012000E000201C00DFF890814FF4CE72B4
:103470004146C0B2FFF748F928002100C0B2C9B2E6
:10348000884201D1012000E0002040F29D12414617
:10349000C0B2FFF739F902A8142100F075F9342100
:1034A00000220DF168084046FFF7BEF94C210022CA
:1034B0000DF11C084046FFF7B7F9FF003A00002362
:1034C00055480021FDF764FF07002200D2B2310009
:1034D000C9B202A8FFF7CAFC08201B909DF80D0096
:1034E0008DF870001AAA9DF80C100298FFF75BFA8D
:1034F00006201B909DF80D008DF870001AAA9DF80B
:1035000014100498FFF74FFA002007900820089045
:103510000820099002200B9000200C9000201290AF
:10352000002014903B4C2800C0B254F8200000F05A
:1035300071FA3A492A00D2B2382042430A4407A914
:103540002800C0B254F8200000F022F92800C0B2D0
:1035500054F82000FFF785FC2A00D2B20321BDF900
:103560001600FFF7F0FBBDF91600FFF7E8FB17F0B8
:103570001F010091C7F357132A00D2B20321C0B232
:10358000FFF781FBBDF91600FFF7D9FB2A00D2B285
:103590000321C0B2FFF70CFCBDF91800ADF8000024
:1035A0000320ADF8020001208DF8040007221C481A
:1035B0002900C9B250F82110684600F0A9F800218E
:1035C0002800C0B2FFF7F2FD00212800C0B2FFF7CB
:1035D0005FFD28B0BDE8F0810000000000E100E0E0
:1035E000BCA508100000044000003140000231403A
:1035F00000053140800831400007314020A3081009
:10360000000060400000654000006440000063402E
:10361000000062406408022800809698800A022810
:10362000500802280CB430B583B00A4606A90291AE
:10363000044600250194009502AB01A9084878448E
:103640001E30FCF720FD019A157000284EBF04467D
:103650000198041B204603B030BC5DF80CFB00BF92
:1036600063D9FFFF010009B2002908D4012210F03C
:103670001F018A401B4900B2400941F820207047D1
:10368000010009B2002908D4012210F01F018A406C
:10369000154900B2400941F820207047020012B2DB
:1036A000002A04D44901114A00B2115407E049012B
:1036B0000F4A00B210F00F00104400F8041C7047CD
:1036C000002800D162B60B480168491C01607047B0
:1036D00072B608490868002802D00868401E0860D1
:1036E0000868704700E100E080E200E000E400E0EC
:1036F00018ED00E05410022880B5FFF7E9FFFEF74F
:1037000047FD01BD80B5C9B200B2FFF7C7FF01BDDB
:1037100070B504000D001600200000F0C3F9290068
:10372000B4F9000000F0FDF93100C9B2B4F90200AB
:10373000FFF7E8FFB4F90200FFF7A2FFB4F90200B7
:10374000FFF790FF70BD0000F8B504000E001700F1
:103750001D00002C01D0012000E000204FF4077272
:103760000849C0B2FEF7D0FF002067600021217039
:1037700066700021A1600021E16025616561C0B231
:10378000F2BD000060A20810002200F0E1B90000C4
:103790002DE9F44FDFF8D822DFF8D8321B68DFF8C4
:1037A000D8422468DFF8D4522D68DFF8D462366836
:1037B000DFF8D0723F68DFF8D0C2DCF800C0DFF875
:1037C000CCE2DEF800E0DFF8C882D8F80080DFF84D
:1037D000C492D9F80090DFF8C0A2DAF800A000285F
:1037E00000F01581002900F012810A68022A06D132
:1037F00091F82620002A02D15FF0000B03E0D1F8F7
:1038000004B0BBF1010B91F82420002A01D0012261
:1038100000E0002262F3104333F440436BF30303F0
:10382000022262F3196303600A7812F0030262F362
:103830001964046491F82520002A01D0012200E0D7
:10384000002262F38615CA7E002A01D0012200E020
:10385000002262F38A254A7E002A01D0012200E07C
:10386000002262F308258A7E002A01D0012200E0AE
:10387000002262F349258A6B521E12F00F0262F396
:1038800013450A69521E12F00702ED08ED001543B8
:103890004A6962F304154A69520862F34515856462
:1038A0000A7B002A01D0012200E0002262F30826F0
:1038B0000A7E002A01D0012200E0002262F349269C
:1038C0008A68521E12F01F02760976011643C0F86C
:1038D00000630A7F02F0FF023F0A3F02174391F89C
:1038E000202002F0FF0262F31747C0F8107391F82E
:1038F0002720002A01D0012200E0002262F3082CD8
:103900000A69521E12F007025FEADC0C5FEACC0C77
:1039100052EA0C0C4A6962F3041C4A69520862F3C9
:10392000451CC0F844C00A7B002A01D0012200E0F7
:10393000002262F3082E8A68521E12F01F025FEA0C
:103940005E1E5FEA4E1E52EA0E0E0A68012A01D17F
:10395000012200E0002262F3104EC0F800E291F86C
:103960003C2002F0FF025FEA18285FEA082852EACA
:103970000808C0F8048391F82820002A01D0012209
:1039800000E0002262F35969CA6A012A01D10122CA
:1039900000E0002262F318694A6B012A01D1012379
:1039A00000E00023009A63F3104991F8303003F0EF
:1039B000FF035FEA19295FEA092953EA0909C0F8F8
:1039C000509091F8443003F0FF035FEA1A2A5FEA4F
:1039D0000A2A53EA0A0AC0F804A28B6CC0F8883F8E
:1039E000096CC0F8C81F002A10D0002050600020C9
:1039F0001060002090600020D06000201062002045
:103A0000D06200201063DFF89400506300221000A1
:103A1000BDE8F28FDFF8881001605FF440110164A7
:103A20000021816440F20711C0F800130022C0F8A1
:103A300004230022C0F8102300224264C0F80012C0
:103A40000021C0F80412002101650021C0F8C81E41
:103A50000021C0F8881E0021C0F8C81F0021C0F84E
:103A6000881F0021C0F8081F0021C0F8481F7047B8
:103A70000160AA0014A6081018A608101CA60810B9
:103A800020A6081024A6081028A608102CA60810A6
:103A900030A6081034A6081038A60810EFCDAB00E9
:103AA0000F00000330B40021234A1368234A14682E
:103AB000002832D0224A1568C5F303250E2D0FD0F9
:103AC0001268C2F303220D2A28D1827812F00F0265
:103AD0002409240114430279002A15D0012214E09C
:103AE000827812F00F021B091B0113430279002A8E
:103AF00001D0012200E0002262F3DF73114AB0F925
:103B0000000042F8203009E0002262F3DF740E4A20
:103B1000B0F9000042F8204000E00649080030BC3F
:103B200070470A4B1A68002A03D01A6800B242F89C
:103B300020107047010056003CA6081040A608104F
:103B40000000204000A0204000C02040EC060228D9
:103B500000B500BF130096469446103928BFA0E870
:103B60000C50FAD85FEA417C28BF0CC048BF40F82F
:103B7000042BC90728BF20F8022B48BF00F8012BEF
:103B800000BD000080B52DED068BF0EE609A9FED34
:103B900037AADFF85404D0ED000AF5EE400AF1EE42
:103BA00010FA02DDD0ED00AA03E0DFF84004D0ED0A
:103BB00000AADFF83C04D0ED000AF5EE400AF1EE71
:103BC00010FA02DD90ED008A03E0DFF8280490EDA2
:103BD000008ADFF82404D0ED000AF5EE400AF1EE89
:103BE00010FA02DDD0ED008A03E0DFF81004D0ED1A
:103BF000008AB2EE041AFAEE040A00F0E7FDB0EE15
:103C0000409A9FED4E1ADFED4E0AB0EE690A00F0C1
:103C1000DDFDF0EE400A29EE0A0A6AEEA09A00F0F5
:103C200007FE29EE800AF0EEC90A9FED461AF4EE6F
:103C3000410AF1EE10FA10DBF0EEC00AF4EE680A69
:103C4000F1EE10FA09D5B5EE409AF1EE10FA02DD68
:103C5000B0EE680A01E0B1EE680AB0EE481AF1EE83
:103C6000480A00F0B3FDBDEC068B01BD35FA8E3C71
:103C700010B5DFF88C43200000F0B9FDDFF88403B5
:103C800090ED001ADFF88003D0ED000ADFF87C0326
:103C900090ED000A200000F0C3FDDFF8744320001F
:103CA00000F0A5FDDFF86C0390ED001ADFF8680363
:103CB000D0ED000ADFF8640390ED000A200000F068
:103CC000AFFDDFF85C43200000F091FDDFF8540306
:103CD00090ED001ADFF85003D0ED000ADFF84C0336
:103CE00090ED000A200000F09BFDDFF84443200027
:103CF00000F07DFDDFF83C0390ED001ADFF838039B
:103D0000D0ED000ADFF8340390ED000A200000F047
:103D100087FDDFF82C43200000F069FDDFF8240365
:103D200090ED001ADFF82003D0ED000ADFF85C09FF
:103D300090ED000A200000F073FD10BD295C0F3EDD
:103D4000CDCCCC3C9B99993EE0B5FFF791FF6A46FC
:103D500001A9DFF85409D0ED000ADFF8580990ED09
:103D6000000A002001F04AF80099019801F0E5F8F6
:103D700007BD000030EEC00A80ED010A90ED020A96
:103D8000D0ED010A30EE200A80ED020A90ED020A21
:103D9000DFED660AB4EE600AF1EE10FA02DBDFF83E
:103DA0000C1981609FED620AD0ED020AF4EE400A20
:103DB000F1EE10FA01D580ED020A914991ED000A69
:103DC000D0ED010A20EE200AD1ED010A90ED021A91
:103DD00000EE810A80ED000A90ED000ADFED550A41
:103DE000B4EE600AF1EE10FA02DBDFF8CC180160E5
:103DF000B9EE080AD0ED000AF4EE400AF1EE10FA2E
:103E000001D580ED000A90ED000A704710B52DED48
:103E1000028BDFF82406D0ED001A31EE811A31EE64
:103E2000408AF1EE608ADFF8944894ED000A30EEA3
:103E3000080A84ED000A9FED5E1ADFED5E0A94ED3C
:103E4000000A00F0C3FC84ED000A714890ED000AFE
:103E500020EE480AD0ED010A94ED001A00EEC10AE6
:103E6000D0ED020A08EEA00ADFF8540880ED008ABF
:103E7000DFED510AB4EE600AF1EE10FA01DB9FEDBE
:103E80004F0ADFED4F0AB4EE600AF1EE10FA01D5E9
:103E9000B0EE600ABDEC028B10BD000030EE600A8F
:103EA000DFF82008D0ED000A70EE800AC0ED000AAD
:103EB000D0ED000A9FED431AF4EE410AF1EE10FA3C
:103EC00002DBDFF804180160DFED3F0A90ED001A15
:103ED000B4EE601AF1EE10FA01D5C0ED000ADFF879
:103EE000EC17D1ED000A70EE600ADFF8C42792EDFE
:103EF000001A21EE001AD2ED011A90ED002A01EE0F
:103F0000821AD2ED021A01EEA01A81ED000A704762
:103F1000010040F2D170814202DB4FF4FA6004E00C
:103F2000DFF8AC07814200DB080070470100FA446B
:103F30000000FAC40100C04080B530EEC00ADFF8CE
:103F4000F404D0ED020A03E09FED201A30EE010ADE
:103F50009FED1F1AB4EE410AF1EE10FAF4DA9FED6C
:103F60001D1AB4EE410AF1EE10FA04D59FED1A1AAB
:103F700030EE010AF3E7B0EEC01AF7EE081AB4EE1D
:103F8000611AF1EE10FA01D59FED140A274890ED61
:103F9000001A21EE000A234890ED001A01EE600A93
:103FA0009FED0F1ADFED0F0A00F010FC01BD0000BD
:103FB00000007A4400007AC401409C4500409C45C2
:103FC00000409CC50180BB440080BBC40000B4C35A
:103FD00001003443000034C30000B443000000007B
:103FE00000009644000096C43C070228D0A60810A2
:103FF00040070228D4A6081044070228D8A60810B3
:10400000D00C0228E00F0228DC0F0228D80F02286B
:10401000000D0228EC0F0228E80F0228E40F022806
:10402000300D0228101002280C1002280810022857
:10403000600D0228F80F0228F40F0228F00F022862
:10404000900D02280410022800100228F8B52DED6A
:10405000028B9FED610ADFF87C46DFF87C06B0F941
:10406000001000EE901AF8EEE00A94ED011AC0EE8E
:10407000810A30EE808AB0F9000000EE900AF8EE76
:10408000E08AD4ED010A40EE808A01F0C4F90028EC
:1040900034D1DFF8480600210160DFF84406002132
:1040A0000160DFF8400600210160DFF83C060021D6
:1040B00001600020DFF8341608800020DFF8301699
:1040C0000880DFF8300600210160DFF82C060021AF
:1040D0000160DFF8280600210160DFF824060021D6
:1040E0000160DFF8200600210160DFF81C060021D6
:1040F00001600021002001F01EFB96E1DFF80C16A4
:10410000087800280BD0DFF808060078002806D0D1
:10411000DFF80006DFF80026026000200870DFF8F4
:10412000FC65C44D286B306001F0CBFB002855D0F6
:104130009FEDBF1ADFEDBE0A9FEDBD0ADFF8E00577
:1041400000F06EFB9FEDBA1ADFEDB90A9FEDB80AD9
:10415000DFF8D00500F064FB9FEDB51ADFEDB40A7F
:104160009FEDB30ADFF8480500F05AFBDFF86C0555
:1041700000210160DFF8680500210160DFF86405B7
:1041800000210160DFF86005002101600020DFF8F8
:104190005C1508800020DFF858150880DFF854050A
:1041A00000210160DFF8500500210160DFF84C05B7
:1041B00000210160DFF8480500210160DFF84405B7
:1041C00000210160DFF8400500210160002100208E
:1041D00001F0B1FA29E100BF48E1FABEDFF8480575
:1041E00090ED001ADFF84405D0ED000ADFF8400535
:1041F00090ED000ADFF8280500F012FBDFF8340527
:1042000090ED001ADFF83005D0ED000ADFF82C053C
:1042100090ED000ADFF80C0500F002FBDFF8200546
:1042200090ED001ADFF81C05D0ED000ADFF8180544
:1042300090ED000ADFF8780400F0F2FADFF80C05E0
:1042400090ED001ADFF80805D0ED000ADFF804054C
:1042500090ED000ADFF8000500F0E2FADFF8FC1448
:104260000878401C0870DFF8F8040278521C0270CD
:104270000A78052A52DB00220A70DFF8E824DFF80A
:10428000E814B1F910305B4200EE103AB8EEC00A03
:1042900082ED000ADFF8D434B1F91210494200EE81
:1042A000101AB8EEC00A83ED000ADFF8C41492EDCC
:1042B000000AD3ED000A30EE600AF0EE000A80EE4C
:1042C000200A81ED000A0278142A1BDB002202700A
:1042D000DFF80C74DFF89C04D0ED000A91ED000AC1
:1042E000DFF89404FFF746FD87ED000ADFF8F403DA
:1042F00039680160DFF8840439680160DFF88014F0
:10430000006808609FED4A1AF0EE480A96ED000A30
:10431000FFF77CFDDFF8C40380ED000ADFF8BC6323
:10432000F0EE680A96ED000A94ED011A20EE010AFB
:10433000FFF7B4FDB0EE408ADFF8AC43DFF8D403FA
:10434000D0ED000A95ED0A0AFFF7F6FD84ED000AAC
:10435000DFF83004006801280ED1BDEEC80A10EE67
:10436000100ADFF888130880BDEEC80A10EE100AA4
:10437000DFF87C13088015E094ED000A38EE000A9F
:10438000BDEEC00A10EE100ADFF86013088094ED4D
:10439000000A38EE400ABDEEC00A10EE100ADFF83F
:1043A00050130880DFF84443B4F90000FFF7B0FD74
:1043B00000B240422080DFF83853B5F90000FFF723
:1043C000A7FD2880DFF81803DFF8281302680A60C9
:1043D000DFF8241300680860DFF82003316801600B
:1043E000DFF81C0331680160DFF8180380ED008AF4
:1043F000DFF8140380ED008AB5F90010494209B2D4
:10440000B4F90000404200B201F095F9DFF87803FA
:104410000178491C01700178142906DB0021017024
:10442000A149DFF8900200F009F8BDEC028BF1BD64
:1044300000000000500C0228D00F0228F8B52DED26
:10444000068B84B005000C00B7EE000A0020DFF8F0
:104450003C0390ED000AF7EE000A30EE200A80EDF2
:10446000000A00209FED8A1ADFED8A0ADFF8200398
:1044700090ED000A00F0AAF9B0EE408A9FED869A0E
:10448000DFED869AB0EE691AF0EE490A95ED000A62
:1044900000F09CF9F0EE408A9FED811ADFED810A71
:1044A00094ED000A00F092F9B0EE40AADFF8CC6279
:1044B000F0EE4A0A96ED000AFFF764FBF0EE40AA20
:1044C000B0EE691AF0EE490A38EEAA0A00F07EF959
:1044D000DFF8AC0231680160DFF8B802C0ED00AA75
:1044E000DFF8B40280ED000AC5ED008A84ED00AA71
:1044F000DFF8A85220682860DFF8A46220683060E6
:10450000DFF8A002C0ED00AA0120DFF89C120870BD
:10451000DFF898422078002804D0DFF8940280ED7C
:10452000000A11E0DFF88872B0EE481AF1EE480A8E
:10453000D7ED001A30EE610A00F048F9D7ED000A15
:1045400030EE800A87ED000ADFF86472DFF864025B
:104550003968016002AA03A9D5ED000A97ED000AA7
:10456000002000F04BFC6A4601A9D6ED000A97ED49
:10457000000A012000F042FC207800280DD00398AA
:104580008D49086002988D49086001988C4908603F
:1045900000988C490860002020708B48864D9DED66
:1045A000030AB8EEC00AD0ED000A20EE200AD5EDCD
:1045B000000AF8EEE00AB7EE001AD0ED001A31EE6C
:1045C000611A00EE810ABDEEC00A8DED030A7B4E32
:1045D0009DED020AB8EEC00AD0ED000A20EE200AD6
:1045E000D6ED000AF8EEE00AB7EE001AD0ED001A98
:1045F00031EE611A00EE810ABDEEC00A8DED020AAD
:104600006F4F9DED010AB8EEC00AD0ED000A20EE12
:10461000200AD7ED000AF8EEE00AB7EE001AD0ED56
:10462000001A31EE611A00EE810ABDEEC00A8DED6E
:10463000010A644C9DED000AB8EEC00AD0ED000AF4
:1046400020EE200AD4ED000AF8EEE00AB7EE001AD8
:10465000D0ED001A31EE611A00EE810ABDEEC00AFB
:104660008DED000A0299039800F0C0FC00990198B2
:1046700000F0E6FC039828600298306001983860EA
:104680000098206004B0BDEC068BF1BDFC0F022841
:104690000AD7A33C17B7D138CDCC4CBDCDCC4C3DBF
:1046A000295C0F3ECDCCCC3C380702280000FA44F0
:1046B000600D0228D40F02280000C040800F02289D
:1046C000540F0228840F02280080BB44580F022890
:1046D00030F8FFFF0C0F02287A100228880F0228FA
:1046E000340F0228380F0228300F022872100228D7
:1046F000741002283C0F0228400F0228440F0228A1
:10470000480F02284C0F0228500F02287A0802286E
:104710008910022834070228000034435C0F022865
:10472000D00C0228000D0228E00F0228DC0F02281E
:10473000D80F0228EC0F0228E80F0228E40F022805
:10474000F80F0228F40F0228F00F02281010022898
:104750000C10022808100228300D02288A100228A6
:104760008B100228240F0228900E0228280F0228FE
:10477000200F0228CC0F0228E80E0228680F02281A
:104780006C0F0228640F02288C1002287C0F02286C
:1047900048070228700F0228740F0228900F022881
:1047A000940F02282C0F02287C0802287B0802287C
:1047B0008C0F0228780F0228980F02289C0F0228DD
:1047C000A00F0228A40F022874A60810B4EE600AF5
:1047D000F1EE10FA02D5B0EE600A07E0B4EE401A2E
:1047E000F1EE10FA02D5B0EE410AFFE77047002162
:1047F000016000214160002181600021C160002131
:10480000016100214161002181610021C16100211C
:10481000016200214162002181620021C162704772
:1048200080ED000AC0ED010A80ED021A7047000019
:10483000DFED5B0A60EE200A10EE901A21F00040D6
:1048400001EE100ADFED571AB4EE611AF1EE10FA1C
:1048500025D54FF07C5001F00041014301EE101AC4
:1048600071EE200AFDEEE00A10EE900A002864D0F6
:10487000FAEEC90A9FED4C1A00EE810ADFED4B1AE1
:1048800000EEA10A9FED4A2A00EE820ADFED492AD6
:1048900000EEA20A9FED481A00EE810A4DE010EEEC
:1048A000100A4200121612F1010F09D14000011640
:1048B00011F1010F01D1000270D19FED400A704744
:1048C00040006BD04FF07C5001F00041014301EEFD
:1048D000101A71EE200A10EE901A48000DD0000E4A
:1048E000C0F196001828A8BF01F0004103DA0028A3
:1048F000C4BFC140814000EE901A10EE900A400003
:1049000017D09FED2F1A20EE811ADFED271A01EE46
:10491000210A9FED262A01EE020ADFED252A01EE8B
:10492000220A9FED243A01EE030ADFED231A01EE7D
:10493000210AFDEEE00A10EE900A10EE101A21F0A6
:10494000004100EE901A9FED1F1AF4EE410AF1EEBD
:1049500010FA00F0030006D5C0071FD5FFEE000ACD
:1049600080EE800A704720EE001ADFED171A9FEDE7
:10497000172A01EE212AF7EE000A42EE010A20EE84
:10498000011ADFED132AC00701EE220A04D580EEDA
:10499000800AB1EE400A704780EE200A704700BFDF
:1049A00083F9223F0000004F0000C9C600A0FDC0EF
:1049B0000020A2BA000034B30030C2AEFFFFFF7F78
:1049C00000008038000080396D161F3C1EB5DBBE2C
:1049D0008329C4BD03E0DFEDA20A30EE200ADFED3B
:1049E000AA0AB4EE600AF1EE10FAF4DAB5EE400A63
:1049F000F1EE10FA02D530EE200AF7E7704700001A
:104A000080B5FFF7E7FFDFED970AB4EE600AF1EE3D
:104A100010FA03DBDFED920A30EE200A01BDB5EE9D
:104A2000400AF1EE10FA01DAB1EE400A704780B5A3
:104A300030EE600AFFF7E4FFFFF7F1FF01BD000071
:104A400038B52DED048BB0EE601A04000D00B7EE02
:104A5000C00A9FED853B30EE030BF7EEC01B9FEDC8
:104A6000842BB0EE000A61EE800AB7EEE03A23EE46
:104A7000023BF7EEC30B21EE000AB7EEC03A23EE7D
:104A8000022BB7EEC20B61EEA11A41EE011AB7EE8E
:104A9000E11A9FED793B31EE031B9FED793B31EE3F
:104AA000031BB7EEC18B60EEA08A40EE008AB0EE29
:104AB000681A08EE481AB5EE401AF1EE10FA04D45E
:104AC000F5EE408AF1EE10FA01D8002028E000F05F
:104AD000AFFFB0EE409AB0EE680A00F0DFFF88EE5C
:104AE000000A00F0EBFFF0EE409A9FEDC18B39EE2B
:104AF000290AB7EEC00A20EE080BB7EEC00BFFF78D
:104B000069FF84ED000A39EE690AB7EEC00A20EEAB
:104B1000080BB7EEC00BFFF75DFF85ED000A012023
:104B2000BDEC048B32BD000038B52DED048BB0EE2A
:104B3000601A04000D00B7EEC00A9FEDAA3B30EEEC
:104B4000030BF7EEC01B9FED4A2BB0EE000A61EE9F
:104B5000800AB7EEE03A23EE023BF7EEC30B21EEFC
:104B6000000AB7EEC03A23EE022BB7EEC20B61EE9D
:104B7000A11A41EE011AB7EEE11A9FED3F3B31EE6B
:104B8000031B9FED3F3B31EE031BB7EEC18B60EE85
:104B9000A08A40EE008AB0EE681A08EE481AB5EE18
:104BA000401AF1EE10FA04D4F5EE408AF1EE10FA54
:104BB00001D8002028E000F03BFFB0EE409AB0EEB4
:104BC000680A00F06BFF88EE000A00F077FFF0EE55
:104BD000409A9FED878B39EE690AB7EEC00A20EE46
:104BE000080BB7EEC00BFFF70BFF84ED000A39EEA0
:104BF000290AB7EEC00A20EE080BB7EEC00BFFF78C
:104C0000FFFE85ED000A0120BDEC048B32BD0000E3
:104C1000DFED760AB4EE600AF1EE10FA08DBDFEDA4
:104C2000760AB4EE600AF1EE10FA01D5012000E038
:104C30000020C0B270470000DFEDA60AB4EE600AA3
:104C4000F1EE10FA08DBDFEDA40AB4EE600AF1EE33
:104C500010FA01D5012000E00020C0B2704700002A
:104C60000000B4C301003443DBF97E6ABC74933F97
:104C7000B81E85EB51B8AE3F92CB7F48BF7D6D3FEC
:104C800082E2C798BB9680BF0000B44338B52DEDD3
:104C9000048BF0EE408AB0EE609AB0EE418A0500D7
:104CA000B0EE680AFFF7B4FF0400B0EE490AFFF760
:104CB000AFFF50EA0401002901D1002027E0002CB9
:104CC00005D0002803D1C5ED008A01201FE0002C8B
:104CD00005D1002803D085ED009A012017E0F0EE01
:104CE000480AB0EE680AFFF7A2FEF0EE409AF0EE36
:104CF000480AB0EE490AFFF79AFEB4EE690AF1EEEF
:104D000010FA01DAF0EE498AC5ED008A0120BDEC07
:104D1000048B32BD38B52DED048BB0EE409AB0EE69
:104D2000608AF0EE418A0500B0EE490AFFF784FF81
:104D30000400B0EE480AFFF77FFF50EA04010029A3
:104D400001D1002023E0002C05D0002803D185EDFF
:104D5000009A01201BE0002C05D1002803D085ED2E
:104D6000008A012013E039EE680AFFF758FEF0EEE2
:104D7000409A38EE680AFFF752FEB4EE690AF1EE87
:104D800010FA01DAB0EE489A85ED009A0120BDECE8
:104D9000048B32BDDFED510A30EE200ADFED500A00
:104DA00080EE200ADFED4F0A9FED4F1A00EE201A29
:104DB000BDEEC10A10EE100A70470000DFED4B0A8D
:104DC00030EE200ADFED460A80EE200ADFED450ACC
:104DD0009FED451A00EE201ABDEEC10A10EE100A32
:104DE00070470000DBF97E6ABC7493BF0000C642C6
:104DF000F8C1631ADCA54C400180824370B52DEDEB
:104E0000028B86B0B0EE408AF0EE608A0D0014008E
:104E1000002D01D0002C00D158E00100C9B20029BA
:104E200009D00100C9B2012905D0FA20286040F25A
:104E3000EE2020604AE02E49C0B2000101EB0006DE
:104E400004A905A8F0EE680AB0EE480AFFF7F8FDDD
:104E5000002809D002A903A8F0EE680AB0EE480ABB
:104E6000FFF762FE002804D1306828607068206077
:104E70002CE001A896ED021ADDED040A9DED050A6D
:104E8000FFF704FF00280AD0684696ED031ADDED0F
:104E9000020A9DED030AFFF73DFF002804D13068A8
:104EA00028607068206011E09DED010AFFF772FF35
:104EB00028609DED000AFFF781FF206028683060C0
:104EC000206870600198B0600098F06006B0BDEC9A
:104ED000028B70BD0000A2C20100A2420000B4C259
:104EE0000000344300007A4400007A430000B442DA
:104EF000F0060228704740F2DC51081A704740F271
:104F0000CF41884202D340F2CE4003E0FA2801D2DA
:104F1000FA20FFE7704780B5B1F9062080180A89AA
:104F2000904200DA08894A89824200DA4889097980
:104F3000002901D0FFF7DFFF02BD2DE9F0410D0090
:104F4000FFF7DDFF04002800FFF7D9FF05005248F6
:104F50000460524805605248046052480560524E51
:104F600052492800FFF7D7FF3060514F51492800C0
:104F7000FFF7D1FF3860504D50492000FFF7CBFFBD
:104F80002860DFF83C814F492000FFF7C4FFC8F8D4
:104F9000000001213068FFF7ADFF30600221386862
:104FA000FFF7A8FF386003212868FFF7A3FF2860F8
:104FB0000421D8F80000FFF79DFFC8F80000326810
:104FC00032211420FDF71EF93A6832211120FDF735
:104FD00019F92A6832211020FDF714F9D8F80020B9
:104FE00032210E20FDF70EF9BDE8F08170B50D00FD
:104FF000FFF785FF04002800FFF781FF26490C60BA
:1050000026490860284D2949FFF785FF28602C4E66
:105010002C492000FFF77FFF306001212868FFF74F
:1050200069FF286004213068FFF764FF3060296859
:105030001420FDF7BAF831680E20FDF7B6F870BD00
:1050400070B50D00FFF75BFF04002800FFF757FF66
:1050500005001348046013480560174E17492000E7
:10506000FFF759FF3060124C12492800FFF753FF39
:10507000206003213068FFF73DFF30600221206887
:10508000FFF738FF206031681020FDF78EF82168A7
:105090001120FDF78AF870BDBC0F0228C00F02284E
:1050A000C40F0228C80F0228AC0F022868A50810F8
:1050B000B00F022880A50810B40F022874A50810AC
:1050C000B80F02285CA508105FF0FF3041F6FF71B1
:1050D0007047F8B54FF49E7529000022DFF8F86399
:1050E00034002000FDF7A0FBC8210022DFF8E043D8
:1050F00027003800FDF798FBDFF8E0030068206028
:10510000DFF8DC0300686060DFF8D8030068A060A7
:10511000DFF8D4030068E060DFF8D00300682061A6
:10512000DFF8CC0300686061DFF8C8030068A061A5
:10513000DFF8C4030068E061DFF8C00300682062A4
:10514000DFF8BC0300686062DFF8B8030068A062A3
:10515000DFF8B4030068E062DFF8B00300682063A2
:10516000DFF8AC0300686063DFF8A8030068A063A1
:10517000DFF8A4030068E063DFF8A00300682064A0
:10518000DFF89C0300686064DFF898030068A0649F
:10519000DFF894030068E064DFF89003006820659E
:1051A000DFF88C0300686065DFF888030068A0659D
:1051B000DFF884030068E065DFF88003006820669C
:1051C000DFF87C0300686066DFF878030068A0669B
:1051D000DFF874030068E066DFF87003006820679A
:1051E000DFF86C0300686067DFF868030068A06799
:1051F000DFF864030068E067DFF860030068C4F864
:105200008000DFF85C030068C4F88400DFF8540312
:105210000068C4F88800DFF850030068C4F88C0008
:10522000DFF848030068C4F89000DFF84403006822
:10523000C4F89400DFF83C030068C4F89800DFF875
:1052400038030068C4F89C00DFF830030068C4F835
:10525000A000DFF82C030068C4F8A400DFF82403E2
:105260000068C4F8A800DFF820030068C4F8AC00A8
:10527000DFF818030068C4F8B000FFF725FFC4E9A1
:105280002E01012084F8C000012D0EDB16F01F0056
:105290004519BFF34F8F8F4806602036203D012D02
:1052A000F9DABFF34F8FBFF36F8FC82101290EDBEF
:1052B00014F01F004118BFF34F8F8648046020345C
:1052C00020390129F9DABFF34F8FBFF36F8FF1BD9A
:1052D0008149DFF8BC02026B0A60C26A4A60806AD8
:1052E0008860DFF8B002028A8A81408AC881DFF8CC
:1052F000A80200880882DFF8A40200884882DFF84C
:10530000A00290ED000BB7EEC00B81ED050A90ED09
:10531000020BB7EEC00B81ED060A4269CA618069D3
:105320000862DFF8800200684862DFF87C020068EB
:105330008862DFF878020068C862DFF874020068EB
:105340000863DFF8700200684863DFF86C020068E9
:105350008863DFF868020068C863DFF864020068E9
:105360000864DFF8600200684864DFF85C020068E7
:105370008864DFF858020068C864954800680865CA
:1053800094480068486594480068886593480068B8
:10539000C865934800680866924800684866924865
:1053A0000068886691480068C86691480068086788
:1053B0009048006848679048006888678F48006890
:1053C000C8678F480068C1F88000002008E001EB42
:1053D00080028C4B53F820301B68C2F88830401C88
:1053E0002D28F4DBD1F88400401CC1F884004FF470
:1053F0009E72012A0EDB11F01F008218BFF34F8F3F
:10540000344801602031203A012AF9DABFF34F8F86
:10541000BFF36F8F7047C8212D4A130001290EDB9F
:1054200013F01F004118BFF34F8F2A480360203349
:1054300020390129F9DABFF34F8FBFF36F8F92F84C
:10544000C100704730B5C821214C220001290EDB74
:1054500012F01F004118BFF34F8F1E480260203228
:1054600020390129F9DABFF34F8FBFF36F8F94F81A
:10547000C00001282AD100250DE0D4E92E012A0020
:1054800000F04EFBC00705D554F825005D4951F8E2
:10549000251008606D1C2D2DEFDB00200021C4E9D4
:1054A0002E01002084F8C000C82101290EDB14F071
:1054B0001F004118BFF34F8F064804602034203985
:1054C0000129F9DABFF34F8FBFF36F8F30BD0000B2
:1054D0000012002870EF00E00010002878A60810E5
:1054E0007CA6081080A6081084A6081088A60810BC
:1054F0008CA6081090A6081094A6081098A608106C
:105500009CA60810A0A60810A4A60810A8A608101B
:10551000ACA60810B0A60810B4A60810B8A60810CB
:10552000BCA60810C0A60810C4A60810C8A608107B
:10553000CCA60810E0A60810E4A60810E8A60810FB
:10554000ECA60810F0A60810F4A60810F8A608109B
:10555000FCA6081000A7081004A7081008A7081048
:105560000CA7081010A7081014A7081018A70810F7
:105570001CA7081020A7081024A7081028A70810A7
:10558000D0A60810D4A60810D8A60810DCA60810CB
:10559000500C0228900E0228721002287410022863
:1055A000C00D02283C0F0228400F0228440F022899
:1055B000480F02284C0F0228500F0228300F0228F3
:1055C0002C0F02286C0F0228700F0228740F02287B
:1055D000780F02287C0F0228140F02282C100228B2
:1055E000780702287C0702288007022884070228FF
:1055F000880702288C07022830100228341002285D
:1056000038100228409E081080B5FFF704FF0028DC
:1056100001D0012000E00020C0B202BD0A0003005A
:1056200012B21BB29A4202DA080000B20BE002008A
:1056300012B20B001BB2DA4204DA09B24942080086
:1056400000B200E000B27047002202700020088023
:1056500070470278002A03D10122027000200880DE
:10566000B1F90000B0F5FA6F0BDA088878300880DD
:10567000B1F9000040F2D172904202DB4FF4FA60BF
:10568000088070471CB569460220FDF7E8FC002839
:1056900050D09DF80000A52805D15D48C179A52905
:1056A00001D0002181735A4B9DF80000997B194469
:1056B000C871987B401C9873987B07283ADBD8798F
:1056C000A5282FD10020D873002106E0DA7B03EB58
:1056D0000100C0798218DA73491C0629F6DBD87BF1
:1056E000597B884215D1187A022809D1587A997ABB
:1056F00051EA00211982D87A197B51EA0021598296
:105700000020987307210022DC1D2000FDF78CF893
:1057100010E00020987307210022DC1D2000FDF717
:1057200083F807E00020987307210022DC1D200089
:10573000FDF77AF813BD70B504000D00FFF764FFA4
:10574000002806D10024002532493348FFF77CFFAA
:1057500012E0304E31003048FFF77BFFB6F9001001
:10576000200000B2FFF75AFF0400B6F9001028002D
:1057700000B2FFF753FF05002549A520087001205E
:105780004870200000B200128870CC70280000B26F
:10579000001208714D7100208871002204E08B799D
:1057A000885CC3188B71521C062AF8DB0722022082
:1057B000FDF738FC70BD80B51549A52008700220A2
:1057C0004870002088700020C870002008710020F8
:1057D0004871A720887107220220FDF723FC01BD34
:1057E00038B5072100220A4C25002800FDF71CF8D7
:1057F00007210022E51D2800FDF716F80020A07300
:105800000020E073002060820020208231BD000073
:10581000900E0228781002289410022880B50223E6
:1058200002225FF4E1210220FDF70EFE0121022099
:10583000FDF7BCFCFFF7D4FF00210020FFF77BFF42
:10584000FFF7B9FF01BD00006F4A10706F4A117079
:10585000C0B26F49086070476E49087000206E49F9
:105860000880704780B52DED028B84B0B0EE408A81
:10587000F0EE608A02AA03A9F0EE680AB0EE480AC8
:105880000020FFF7BBFA6A4601A9F0EE680AB0EE05
:10589000480A0120FFF7B2FA02990398FFF7A6FB26
:1058A00000990198FFF7CCFB04B0BDEC028B01BD61
:1058B00058480078002801D0012000E00020C0B244
:1058C000704751480078704750480078704738B5A5
:1058D000504B1A78002A00F094804F4C2288521CBA
:1058E00022801A78012A0AD0C0F08180032A28D0A9
:1058F00016D3052A47D035D3062A60D077E0002298
:105900000260474A0A60D1ED000A90ED000AFFF7F5
:10591000A9FF2088322802D30220FFF79DFF70E004
:1059200040F21A4529002800FFF760FB29002800F3
:10593000FFF786FB2088822802D30320FFF78CFF25
:105940005FE000220260364A0A60D1ED000A90ED65
:10595000000AFFF787FF2088502802D30420FFF7B2
:105960007BFF4EE0002202602E4A0A60D1ED000A61
:1059700090ED000AFFF776FF2088322802D3052039
:10598000FFF76AFF3DE0284A0260264A0A60D1ED2F
:10599000000A90ED000AFFF765FF244890ED050A24
:1059A000F0EE080AB4EE600AF1EE10FA03DA20888D
:1059B000B0F5167F02D30620FFF74EFF21E000224C
:1059C0000260104A0A60D1ED000A90ED000AFFF76C
:1059D00049FF2088C82809D300210020FFF734FFA1
:1059E00000200E4908600020FFF736FF09E0002183
:1059F0000020FFF729FF0020084908600020FFF77A
:105A00002BFF31BD0AD7233D8F10022890100228AA
:105A1000600F02288E10022876100228640F0228D8
:105A20008FC2F53CCDCC4C3D0AD723BC500C02288C
:105A300052EC101AB0EEC00AC80F49005200F0EE46
:105A4000E00A28BF0C3011F1807F38BF12F1807F4F
:105A50000CD28A4238BF80F00400124214D034BF06
:105A600080EE800A80EE200A00F06AB811F1807F93
:105A700008BF80F0040098BF12F1807F08D88A42E6
:105A800014BF00224FF07E5200EE102A00F058B8EA
:105A90006FF0004100EE101A70470000B5EEC00A2A
:105AA000F1EE10FA02D4B1EEC00A70476FF0004C6C
:105AB00000EE10CAAFF300807047000010EE101A1D
:105AC00004204FF07E5201EE902A490088BF082042
:105AD000490800EE101A914214D871EEC00A0F4A1C
